:100000006F60004E1300000013000000130000009A
:100010001300000013000000130000001300000094
:100020001300000013000000130000001300000084
:08003000130000007300100032
:100038000000000000000000266300003663000096
:10004800000000002664000000000000000000001E
:10005800286400002A64000000000000000000007E
:100068002C640000000000002E6400000000000066
:10007800306400003264000034640000366400001C
:10008800386400003A640000A65900001A5A0000BB
:100098008E5A0000025B0000765B00004664000098
:1000A800486400004A6400004C6400004E6400008C
:1000B800506400005264000054640000566400005C
:1000C800586400005A6400005C640000EA5B0000A9
:1000D80060640000A65D00006464000066640000BF
:1000E8003A5E0000B25E0000B65F00006E64000079
:1000F800706400007264000074640000766400009C
:1001080078640000F85400007C5500000056000098
:10011800C25C000082640000846400008664000001
:10012800AE6100008A6400008C6400008E640000E8
:10013800906400009264000036600000966400003D
:100148008456000008570000B66000002E610000C9
:10015800A0640000A2640000A4640000A66400007B
:10016800A8640000AA640000AC640000AE6400004B
:10017800B0640000B2640000B4640000568B000054
:10018800B8640000BA640000165900008A570000DD
:100198000E58000096580000C46400002E6200004B
:1001A800C8640000CA640000CC640000AE620000AD
:1001B800D0640000D2640000D4640000D66400005B
:1001C800D8640000DA640000DC640000DE6400002B
:1001D8000000000000000000000000000000000017
:1001E8000000000000000000000000000000000007
:0801F8000000000000000000FF
:100200003D432A876373C3029377F700BDEFADE5E3
:10021000937606FF3D8ABA960CC34CC30CC74CC7F5
:100220004107E36BD7FE11E28280B306C3408A0622
:100230009702000096966780A6002307B700A306E2
:10024000B7002306B700A305B7002305B700A30432
:10025000B7002304B700A303B7002303B700A3022A
:10026000B7002302B700A301B7002301B700A30022
:10027000B7002300B700828093F5F50F93968500B1
:10028000D58D93960501D58D61B79396270097027A
:10029000000096968682E78086FA9680C1171D8FA9
:1002A0003E96E374C3F8A5B7797106D622D4001838
:1002B000232EA4FC8327C4FDB18393F7F70FBD8BD6
:1002C000A307F4FE8327C4FDA18393F7F70FBD8B2B
:1002D0002307F4FE0347F4FEB73700200A0793878D
:1002E00007A6BA979C430347E4FE91460546BA85A4
:1002F0003E85EF6000500347F4FEB73700200A0741
:10030000938707A6BA979C4385453E85EF60204AB0
:1003100001000347F4FEB73700200A07938707A6BA
:10032000BA979C4389453E85EF602071AA87F5D333
:100330000347F4FEB73700200A07938707A6BA974A
:100340009C43FC478346F4FE1387018B3697034793
:100350000700B3D7E700C207C1833E85B2502254DD
:1003600045618280797106D622D40018232EA4FC20
:10037000AE87A30DF4FC0347B4FD13060005B7C711
:1003800002009385479E3A85EF406060232404FE77
:10039000A30704FE05A00325C4FD3937AA873E87BD
:1003A000832784FEBA972324F4FE8347F4FE85074F
:1003B000A307F4FE0347F4FE8347B4FDE36DF7FCA7
:1003C0008347B4FD032784FEB357F7022324F4FECA
:1003D000832784FEC207C1833E85B2502254456103
:1003E00082805D7186C6A2C48008232EA4FA232CC5
:1003F000B4FA232604FC232804FC232A04FC232C1F
:1004000004FC232E04FC232004FE232204FE2324C8
:1004100004FE8327C4FBB18393F7F70FBD8BA307BB
:10042000F4FE8327C4FB93F7F70F8146014681450D
:100430003E85EF00B03F8347F4FE99E785451305FD
:100440000020EF70C00519A80347F4FE8547631725
:10045000F700854513050040EF7060043165EF60DB
:1004600050530347F4FEB73700200A07938707A6C7
:10047000BA979C433E85EF60400F232604FC232857
:1004800004FC232A04FCB7070E00232CF4FC232EC3
:1004900004FC85472300F4FE0347F4FEB737002031
:1004A0000A07938707A6BA979C431307C4FCBA852B
:1004B0003E85EF6080110347F4FEB73700200A073E
:1004C000938707A6BA979C4385453E85EF60002039
:1004D0000347F4FEB73700200A07938707A6BA97A9
:1004E0009C4381453E85EF60E0580347F4FEB737F3
:1004F00000200A07938707A6BA979C433E85EF60C2
:10050000C02001000347F4FEB73700200A07938795
:1005100007A6BA979C433E85EF604021AA87FDF36A
:100520000347F4FEB73700200A07938707A6BA9758
:100530009C433E85EF60802201000347F4FEB737FD
:1005400000200A07938707A6BA979C433E85EF6071
:100550000023AA87FDF38346F4FE832784FB13F769
:10056000F70F9387018BB6972380E7000100B64011
:10057000264461618280011122CE00102326A4FE50
:1005800037F500E08328450037F500E093F8E8FFF1
:100590002322150183A801820965130505F433D5CB
:1005A000A802AA8601470325C4FEAA87014837F599
:1005B00000E03303F702B308D8029A983383F602B7
:1005C00033B6F6029A85B387C8003E860CC950C977
:1005D000B7F700E09843B7F700E01367070198C347
:1005E000B7F700E09843B7F700E01367170298C326
:1005F0000100B7F700E0DC4313F717008547E31A63
:10060000F7FEB7F700E09843B7F700E0799B98C38F
:100610000100724405618280011122CE0010232660
:10062000A4FE37F500E08328450037F500E093F895
:10063000E8FF2322150183A8018237157A001305EC
:10064000052033D5A802AA8601470325C4FEAA8740
:10065000014837F500E03303F702B308D8029A984F
:100660003383F60233B6F6029A85B387C8003E8616
:100670000CC950C9B7F700E09843B7F700E013671B
:10068000070198C3B7F700E09843B7F700E0136796
:10069000170298C30100B7F700E0DC4313F7170017
:1006A0008547E31AF7FEB7F700E09843B7F700E095
:1006B000799B98C30100724405618280797106D6E6
:1006C00022D40018232EA4FC231704FE231604FEB4
:1006D0000327C4FDA54763E1E70C8327C4FD1397F7
:1006E0002700B7D70200938787B9BA979C438287C0
:1006F000B7370140938707C083D74702C207C1833A
:100700002317F4FE69A8B707004083D74702C20742
:10071000C1832317F4FE61A0B70700409387074009
:1007200083D74702C207C1832317F4FE8DA8B717EA
:1007300000409387078083D74702C207C1832317EE
:10074000F4FEB1A8B7170040938707C083D74702CC
:10075000C207C1832317F4FE99A0B73701409387DE
:10076000074083D74702C207C1832317F4FE05A8B9
:10077000B7570140938707C083D74702C207C18399
:100780002317F4FE29A8B757014083D74702C207B1
:10079000C1832317F4FE21A0231704FE0100B7072D
:1007A0000020138707008327C4FDBA9783C707007B
:1007B00013F7F70F9307F00F6317F7008357E4FE63
:1007C0002316F4FE35A8B7070020138707008327F8
:1007D000C4FDBA9783C7070093F7F70F3E85EF0074
:1007E000D000AA8791EB8357E4FEB307F040C2071D
:1007F000C1832316F4FE29A08357E4FE2316F4FEDA
:100800008317C4FE3E85B250225445618280011197
:1008100022CE00102326A4FE0327C4FEA54763E1D1
:10082000E7088327C4FE13972700B7D702009387F2
:1008300007BCBA979C438287B7370140938707C0AC
:1008400023920702B9A8B70700402392070291A894
:10085000B7070040938707402392070299A0B71774
:100860000040938707802392070225A8B71700400E
:10087000938707C0239207022DA0B73701409387C3
:1008800007402392070231A8B7570140938707C05A
:100890002392070239A0B75701402392070211A003
:1008A00001000100724405618280397106DE22DC9C
:1008B00080002326A4FC2324B4FC2322C4FC23268A
:1008C00004FE91450325C4FCEF103014AA873E872F
:1008D0001306100DB7C70200938547A53A85EF4070
:1008E000000B8327C4FC1397C700832784FC7D8FEC
:1008F0008327C4FCB207B307F74093B7170093F7F9
:10090000F70F3E871306200DB7C70200938547A552
:100910003A85EF40C0078327C4FC1397C70083279D
:1009200044FC7D8F8327C4FCB207B307F74093B71D
:10093000170093F7F70F3E871306300DB7C7020075
:10094000938547A53A85EF4080040325C4FCEF104A
:100950003012832784FC93F7F70F93068004014637
:1009600081453E85E125832744FC93F7F70F9306E5
:100970008004014681453E85552D832784FC13F76D
:10098000F70FB7070020938607008327C4FCB697AC
:100990002380E7000327C4FCA54763E1E70883271A
:1009A000C4FC13972700B7D70200938787BEBA9776
:1009B0009C438287B7370140938707C02324F4FE06
:1009C0008DA0B70700402324F4FEA1A8B70700407C
:1009D000938707402324F4FEA9A0B717004093870C
:1009E00007802324F4FE35A8B7170040938707C07B
:1009F0002324F4FE3DA0B73701409387074023240A
:100A0000F4FE05A0B7570140938707C02324F4FEE6
:100A100009A8B75701402324F4FE21A085472326C7
:100A2000F4FE85450545EF609027832784FC13D7A6
:100A300087008D47631AF7008545B70716001385B1
:100A4000070CEF608058E5A8832784FC13D7870044
:100A5000C547631AF7008545B707180013850710C7
:100A6000EF60A056E9A8832784FC13D7870093077B
:100A70002002631AF7008545B7171A00138507800F
:100A8000EF60A0546DA8832784FC13D787009307D9
:100A90003002631AF7008545B7171A00138507C09F
:100AA000EF60A05269A8832784FC13D787009307BF
:100AB00010036317F70085450565EF60005141A0FD
:100AC000832784FC13D7870093071007631AF70066
:100AD0008545B707008013854700EF60004F85A06C
:100AE000832784FC13D7870093073008631AF70025
:100AF0008545B707138013850701EF60004D81A07E
:100B0000832784FC13D7870093071009631AF70023
:100B10008545B707158013850702EF60004B05A0D8
:100B2000832784FC13D78700930730096319F700E4
:100B30008545B707158013850704EF6000498327B3
:100B4000C4FEA9EB232E04FC232004FE231204FE82
:100B50009307C4FD3E85EF706047231E04FCFD57DC
:100B60002310F4FE231104FE231F04FC230204FEC1
:100B70009307C4FDBE85032584FEEF6050409305B6
:100B80000006032584FEEF70A05A8545032584FEE8
:100B9000EF7080470100F2506254216182807971C8
:100BA00006D622D40018232EA4FC232CB4FC8327C1
:100BB000C4FD93B7070493F7F70F3E87130680032E
:100BC000B7C70200938587AC3A85EF30505C832726
:100BD00084FD93B7470093F7F70F3E871306900302
:100BE000B7C70200938587AC3A85EF30505AA30708
:100BF00004FE0327C4FDA167BA9713972700832734
:100C000084FDBA97AA072324F4FEEF40D00A2322DA
:100C1000A4FEB7172707138507E0EF3060522316AD
:100C200004FE35A00357C4FE832784FEBA97984379
:100C3000B7E739E3938797336306F7008547A30740
:100C4000F4FE21A88357C4FE91072316F4FE035730
:100C5000C4FE9307F03FE3F7E7FC83A701823E85DC
:100C6000EF30004E032544FEEF40D0018347F4FEF1
:100C70003E85B250225445618280797106D622D4D5
:100C80000018232EA4FC232CB4FC8327C4FD93B7A7
:100C9000070493F7F70F3E871306C005B7C7020096
:100CA000938587AC3A85EF30904E832784FD93B7C8
:100CB000470093F7F70F3E871306D005B7C702002A
:100CC000938587AC3A85EF30904CA30704FE032749
:100CD000C4FDA167BA9713972700832784FDBA97AD
:100CE000AA072324F4FEEF40007D2322A4FEB717B9
:100CF0002707138507E0EF30A044EF50506313053A
:100D00004003EF509079032584FEEF50D0662A8788
:100D1000B737002023A4E7A613050002EF50F077B1
:100D2000EF509063B737002003A787A6914763056C
:100D3000F7008547A307F4FE83A701823E85EF30C5
:100D40002040032544FEEF40E0738347F4FE3E85D8
:100D5000B250225445618280797106D622D400189F
:100D6000232EA4FC232CB4FC8327C4FD93B70704D3
:100D700093F7F70F3E871306F00CB7C70200938571
:100D800087AC3A85EF30B040832784FD93B74700A6
:100D900093F7F70F3E871306000DB7C70200938540
:100DA00087AC3A85EF30B03E0327C4FDA167BA9700
:100DB00013972700832784FDBA97AA072324F4FEFC
:100DC000EF40606F2322A4FEB7172707138507E0C3
:100DD000EF300037231704FE3DA08357E4FE8A0757
:100DE0003E87832784FEBA978356E4FE9843B7373D
:100DF00000208A06938787C5B69798C38357E4FE79
:100E000085072317F4FE0357E4FE9307F00FE3F67C
:100E1000E7FC83A701823E85EF308032032544FE44
:100E2000EF4040660100B2502254456182807971E2
:100E300006D622D40018232EA4FC232CB4FC83272E
:100E4000C4FD93B7070493F7F70F3E871306A00E70
:100E5000B7C70200938587AC3A85EF3050338327BC
:100E600084FD93B7470093F7F70F3E871306B00E44
:100E7000B7C70200938587AC3A85EF305031A3079E
:100E800004FE232404FE231304FE0327C4FDA167EC
:100E9000BA9713972700832784FDBA97AA072324BC
:100EA000F4FE832584FD0325C4FDD539AA8791C7A7
:100EB000832584FD0325C4FDC933EF40C05F232093
:100EC000A4FEB7172707138507E0EF306027EF5020
:100ED0001046A9A0035764FEB73700200A0793877E
:100EE00087C5BA979C43BE85032584FEEF501050FA
:100EF0002A8723A6E18003A7C18091476306F700F4
:100F00008547A307F4FE0DA0835764FE85072313CE
:100F1000F4FE832784FE91072324F4FE035764FE26
:100F20009307F00FE3F8E7FAEF50104383A701822D
:100F30003E85EF30E020032504FEEF40A0548347B8
:100F4000F4FE3E85B250225445618280411106C6AE
:100F500022C40008130600409305F00FB7370020A5
:100F6000138587C5EFF0CFA90100B24022444101AB
:100F70008280011122CE00102326A4FEAE87A30595
:100F8000F4FE8347B4FE85CB8327C4FEBD8B0547A3
:100F9000B317F70093960701C1828327C4FE13D7C6
:100FA0005700B70700200A079387C700BA979C43EA
:100FB000368798CB3DA08327C4FEBD8B0547B3176A
:100FC000F70093960701C1828327C4FE13D7570009
:100FD000B70700200A079387C700BA979C43368754
:100FE000D8CB0100724405618280011122CE00102D
:100FF0002326A4FE8327C4FE958313F77700B70743
:1010000000200A079387C700BA979C439C47032791
:10101000C4FE7D8B85463397E600F98FB337F00029
:1010200093F7F70F3E85724405618280797106D689
:1010300022D40018232EA4FC232CB4FCB28723282E
:10104000D4FCA30BF4FC232004FE232204FE23245F
:1010500004FE8327C4FD958393F7F70F9D8BA307A9
:10106000F4FE8327C4FD93F7F70FFD8B2307F4FEEF
:101070008347F4FE91E785451145EF60404291A812
:101080000347F4FE85476317F70085452145EF6068
:10109000004181A00347F4FE89476317F7008545A7
:1010A0004145EF60C03F35A00347F4FE8D4763180C
:1010B000F700854513050002EF60603E19A803475D
:1010C000F4FE91476317F700854513050004EF60B0
:1010D000003D8347E4FE0547B317F700C207C1830D
:1010E0002310F4FE032784FD85476317F702832747
:1010F00004FDC207C183A183C207C18389E78D476D
:101100002322F4FE11A8832704FDC207C183A18313
:10111000C207C1832322F4FE832704FDC207C183D3
:1011200093F7F70F2324F4FE0347F4FEB7070020DC
:101130000A079387C700BA979C43130704FEBA8532
:101140003E85EF507042032784FD85476319F702FF
:101150000347F4FEB70700200A079387C700BA9732
:1011600094438347E4FE0547B317F700C207C183E2
:10117000034774FD3A86BE853685EF5090610100C5
:10118000B2502254456182801D7186CEA2CC80105F
:101190002326A4FA2324B4FA85450325C4FAEF10C4
:1011A000C006AA873E871306D006B7C702009385FC
:1011B00047B63A85EF30A07D832784FAB337F00035
:1011C00093F7F70F3E871306F006B7C70200938523
:1011D00047B63A85EF30A07B832784FABD83231579
:1011E000F4FE8357A4FE85073E87832784FAB3D78E
:1011F000E7022314F4FE0325C4FAEF106007B737A3
:101200000140938707C02326F4FE0327C4FAA547AD
:1012100063EDE7088327C4FA13972700B7D70200C6
:10122000938707C1BA979C438287B737014093875A
:1012300007C02326F4FE95A8B70700402326F4FE36
:10124000ADA0B7070040938707402326F4FEB1A85E
:10125000B7170040938707802326F4FEB9A0B7177D
:101260000040938707C02326F4FE81A0B7170040F3
:101270002326F4FE1DA8B7170040938707402326B6
:10128000F4FE25A0B7370140938707402326F4FEDC
:1012900029A8B7570140938707C02326F4FE31A041
:1012A000B75701402326F4FE0100232E04FC23201F
:1012B00004FE231204FE835784FE2310F4FE83579A
:1012C000A4FE231EF4FC231104FE231F04FC2302AE
:1012D00004FE9307C4FDBE850325C4FEEF60204ACB
:1012E000054685450325C4FEEF60905D85450325D1
:1012F000C4FEEF70201DB7C7020003AEC7B313874B
:10130000C7B3032347001387C7B383288700138716
:10131000C7B30328C7001387C7B3084B1387C7B3E6
:101320004C4B1387C7B3104F1387C7B3544F138762
:10133000C7B318539387C7B3DC53232AC4FB232CAA
:1013400064FA232E14FB232004FD2322A4FC23246F
:10135000B4FC2326C4FC2328D4FC232AE4FC232C3D
:10136000F4FC8327C4FA93F7F70F8A07130704FFE7
:10137000BA9783A747FC8D453E85EF40200E832713
:10138000C4FA8A07130704FFBA9783A747FC3E8570
:10139000EF40400985450325C4FEEF60F04601009B
:1013A000F640664425618280797106D622D4001801
:1013B000232EA4FC232CB4FC032784FD8967938788
:1013C0001771B337F70093F7F70F3E8713065003F3
:1013D000B7C70200938547BD3A85EF30405BB7370A
:1013E0000140938707C02326F4FE8327C4FDC183F1
:1013F000BD8B2547636FF70613972700B7D7020009
:10140000938787C3BA979C438287B73701409387F6
:1014100007C02326F4FEB1A8B70700402326F4FE38
:1014200089A8B7070040938707402326F4FE91A0C0
:10143000B7170040938707802326F4FE1DA8B7172F
:101440000040938707C02326F4FE25A0B73701404C
:10145000938707402326F4FE29A8B75701409387B6
:1014600007C02326F4FE31A0B75701402326F4FE1F
:1014700001008327C4FE83D7C7022315F4FE035758
:10148000A4FE832784FD3307F702896793870771DA
:10149000B357F7022314F4FE8327C4FDA1838D8B79
:1014A00081EB8327C4FE035784FE239AE702A9A891
:1014B0008327C4FDA18313F7370085476319F7001D
:1014C0008327C4FE035784FE239CE70235A88327A5
:1014D000C4FDA18313F7370089476319F7008327F9
:1014E000C4FE035784FE239EE70239A88327C4FD68
:1014F000A18313F737008D476318F7008327C4FED5
:10150000035784FE2390E7040100B2502254456142
:101510008280797122D60018232EA4FC232CB4FCDF
:10152000232AC4FC231504FE231404FE03A701820E
:10153000832784FDB357F702C1832314F4FE03A766
:101540000182835784FE8507BE86832784FDB38787
:10155000F602B357F7022315F4FEB737014093871D
:1015600007C02326F4FE8327C4FDC183BD8B254716
:10157000636FF70613972700B7D70200938707C654
:10158000BA979C438287B7370140938707C02326C9
:10159000F4FEB1A8B70700402326F4FE89A8B707D8
:1015A0000040938707402326F4FE91A0B717004020
:1015B000938707802326F4FE1DA8B7170040938762
:1015C00007C02326F4FE25A0B737014093870740C4
:1015D0002326F4FE29A8B7570140938707C0232686
:1015E000F4FE31A0B75701402326F4FE01008357D3
:1015F000A4FEFD171397070141838327C4FE23969A
:10160000E7028327C4FE035784FE2394E7020357AF
:10161000A4FE832744FD3307F70289679387077188
:10162000B357F7022313F4FE8327C4FDA1838D8BE8
:1016300081EB8327C4FE035764FE239AE702A9A81F
:101640008327C4FDA18313F7370085476319F7008B
:101650008327C4FE035764FE239CE70235A8832733
:10166000C4FDA18313F7370089476319F700832767
:10167000C4FE035764FE239EE70239A88327C4FDF6
:10168000A18313F737008D476318F7008327C4FE43
:10169000035764FE2390E7040100325445618280C1
:1016A0005D7186C6A2C48008232EA4FA232CB4FA46
:1016B000232AC4FA8327C4FBC1838D453E85EF00EE
:1016C000D034AA873E871306D00AB7C70200938595
:1016D00047BD3A85EF30A02B032744FB89679387EA
:1016E0001771B337F70093F7F70F3E871306F00A29
:1016F000B7C70200938547BD3A85EF304029232EB6
:1017000004FC232004FE231204FE232604FC2328C9
:1017100004FC232A04FC232C04FC231504FE832749
:10172000C4FBC183BD8B3E85EF0090348327C4FB8F
:1017300093F7F70F93068031014685453E85EFF01C
:10174000FF8E85450545EF509055B737014093878B
:1017500007C02326F4FE8327C4FBC183BD8B254726
:10176000636FF70613972700B7D70200938787C8E0
:10177000BA979C438287B7370140938707C02326D7
:10178000F4FEB1A8B70700402326F4FE89A8B707E6
:101790000040938707402326F4FE91A0B71700402E
:1017A000938707802326F4FE1DA8B7170040938770
:1017B00007C02326F4FE25A0B737014093870740D2
:1017C0002326F4FE29A8B7570140938707C0232694
:1017D000F4FE31A0B75701402326F4FE0100832711
:1017E000C4FB13D7C7008D47631AF7008545B707B9
:1017F00016001385070CEF50407D15AA8327C4FB04
:1018000013D7C700C547631AF7008545B707180007
:1018100013850710EF50607B19AA8327C4FB13D7E9
:10182000C700C947631AF7008545B7071800138535
:101830000720EF508079E5A88327C4FB13D7C700A2
:10184000CD47631AF7008545B707180013850730A1
:10185000EF50A077E9A88327C4FB13D7C7009307ED
:101860002002631AF7008545B7171A001385078011
:10187000EF50A0756DA88327C4FB13D7C70093074B
:101880003002631AF7008545B7171A00138507C0A1
:10189000EF50A07369A88327C4FB13D7C700930731
:1018A00010036317F70085450565EF50007241A0EE
:1018B0008327C4FB13D7C70093071007631AF700E9
:1018C0008545B707008013854700EF50007085A05D
:1018D0008327C4FB13D7C70093073008631AF700A8
:1018E0008545B707138013850701EF50006E81A06F
:1018F0008327C4FB13D7C70093071009631AF700A7
:101900008545B707158013850702EF50006C05A0C9
:101910008327C4FB13D7C700930730096319F70067
:101920008545B707158013850704EF50006A03A7A4
:101930000182832784FBB357F702C1832315F4FE8A
:1019400003A701828357A4FE8507BE86832784FBF5
:10195000B387F602B357F7022314F4FE035784FE4D
:10196000832744FB3307F702896793870771B357CF
:10197000F7022313F4FE835784FEFD17C207C183C9
:101980002310F4FE8357A4FE231EF4FC231104FE4F
:10199000231F04FC230204FE9307C4FDBE85032518
:1019A000C4FEEF50D05D930700072316F4FC854773
:1019B0002317F4FC231804FC835764FE2319F4FC5A
:1019C0008947231AF4FC8947231BF4FC231C04FCDD
:1019D000231D04FC8327C4FBA1838D8B9DE3930708
:1019E000C4FCBE850325C4FEEF505071A1450325FC
:1019F000C4FEEF60207D91450325C4FEEF605011C9
:101A000045A08327C4FBA18313F7370085476315DF
:101A1000F7029307C4FCBE850325C4FEEF60C00730
:101A2000A1450325C4FEEF60A07E93050040032579
:101A3000C4FEEF60B012ADA08327C4FBA18313F7EF
:101A4000370089476314F7029307C4FCBE8503255A
:101A5000C4FEEF608022A1450325C4FEEF60F000C4
:101A600091450325C4FEEF60D0141DA88327C4FB55
:101A7000A18313F737008D476314F7029307C4FC63
:101A8000BE850325C4FEEF60003DA1450325C4FECD
:101A9000EF607002930500400325C4FEEF6030162E
:101AA00085450325C4FEEF60A05B85450325C4FE84
:101AB000EF6080550100B6402644616182800111CB
:101AC00022CE00102326A4FEAE87A305F4FEB7D7CE
:101AD00002000327C4FE0A07938707CBBA979C43EB
:101AE0003E878347B4FEC207C1832316F700010077
:101AF000B7D702000327C4FE0A07938707CBBA971C
:101B00009C4383D78700C207C18393F70708EDF38F
:101B1000B7D702000327C4FE0A07938707CBBA97FB
:101B20009C4383D7C7000100724405618280011184
:101B300022CE00102326A4FEAE872315F4FE835781
:101B4000A4FEA183C207C18393F6F70FB7D70200A3
:101B50000327C4FE0A07938707CBBA979C433E87A7
:101B600093970601C1832316F7000100B7D702003F
:101B70000327C4FE0A07938707CBBA979C4383D7F2
:101B80008700C207C18393F70708EDF38357A4FECC
:101B900093F6F70FB7D702000327C4FE0A0793870F
:101BA00007CBBA979C433E8793970601C1832316C0
:101BB000F7000100B7D702000327C4FE0A07938786
:101BC00007CBBA979C4383D78700C207C18393F79B
:101BD0000708EDF30100724405618280011122CEF5
:101BE00000102326A4FEAE873287A305F4FEBA8731
:101BF0002305F4FEB7D702000327C4FE0A07938724
:101C000007CBBA979C433E878347B4FEC207C18384
:101C10002316F7000100B7D702000327C4FE0A0706
:101C2000938707CBBA979C4383D78700C207C183AA
:101C300093F70708EDF3B7D702000327C4FE0A079E
:101C4000938707CBBA979C4383D7C700B7D70200C7
:101C50000327C4FE0A07938707CBBA979C433E87A6
:101C60008347A4FEC207C1832316F7000100B7D73C
:101C700002000327C4FE0A07938707CBBA979C4349
:101C800083D78700C207C18393F70708EDF3B7D75F
:101C900002000327C4FE0A07938707CBBA979C4329
:101CA00083D7C7000100724405618280011122CEF2
:101CB00000102326A4FEAE872322C4FE2320D4FED8
:101CC000A305F4FEB7D702000327C4FE0A079387D3
:101CD00007CBBA979C433E878347B4FEC207C183B4
:101CE0002316F7000100B7D702000327C4FE0A0736
:101CF000938707CBBA979C4383D78700C207C183DA
:101D000093F70708EDF389A8832744FE138717008C
:101D10002322E4FE83C60700B7D702000327C4FED0
:101D20000A07938707CBBA979C433E879397060190
:101D3000C1832316F7000100B7D702000327C4FEB2
:101D40000A07938707CBBA979C4383D78700C207BC
:101D5000C18393F70708EDF3832704FE1387F7FF8A
:101D60002320E4FED5F3010072440561828079717D
:101D700022D60018232EA4FCAE87A30DF4FCB7D7FF
:101D800002000327C4FD0A07938707CBBA979C4339
:101D90003E878347B4FDC207C1832316F7000100C5
:101DA000B7D702000327C4FD0A07938707CBBA976A
:101DB0009C4383D78700C207C18393F70708EDF3DD
:101DC000B7D702000327C4FD0A07938707CBBA974A
:101DD0009C4383D7C700B7D702000327C4FD0A0777
:101DE000938707CBBA979C433E8789472316F70012
:101DF0000100B7D702000327C4FD0A07938707CB6A
:101E0000BA979C4383D78700C207C18393F707081B
:101E1000EDF3B7D702000327C4FD0A07938707CB6A
:101E2000BA979C4383D7C700C207C183A307F4FEB8
:101E30008347F4FE3E85325445618280011122CEF3
:101E400000102326A4FEAE872322C4FE2320D4FE46
:101E5000A305F4FEB7D702000327C4FE0A07938741
:101E600007CBBA979C433E878347B4FEC207C18322
:101E70002316F7000100B7D702000327C4FE0A07A4
:101E8000938707CBBA979C4383D78700C207C18348
:101E900093F70708EDF3B7D702000327C4FE0A073C
:101EA000938707CBBA979C4383D7C700ADA0B7D71A
:101EB00002000327C4FE0A07938707CBBA979C4307
:101EC000239607000100B7D702000327C4FE0A07C4
:101ED000938707CBBA979C4383D78700C207C183F8
:101EE00093F70708EDF3B7D702000327C4FE0A07EC
:101EF000938707CBBA979C4383D7C7009396070174
:101F0000C182832744FE138717002322E4FE13F7C0
:101F1000F60F2380E700832704FE1387F7FF2320B3
:101F2000E4FED1F701007244056182805D7186C6CE
:101F3000A2C480082326A4FC2324B4FC2322C4FCCE
:101F40002320D4FC232EE4FA232CF4FA232A04FBC6
:101F5000B7D702000327C4FC0A07938707CBBA97B9
:101F60009C433E85EF50206585450545EF50205345
:101F7000032704FC93073012631DF7000327C4FBFB
:101F8000930750126317F70085450545EF50E003AE
:101F900025A0032704FC89679387A714631EF70015
:101FA0000327C4FB89679387C7146317F700854528
:101FB00037152000EF5060018327C4FC91E7854569
:101FC0000565EF50C04D25A00327C4FC8547631766
:101FD000F70085451165EF50E05011A80327C4FCB8
:101FE00089476316F70085452165EF50A04F832789
:101FF00004FC93F7F70F93068031054685453E852F
:10200000EFF0CF828327C4FB93F7F70F930680315D
:10201000054685453E85EFF06F81032784FBC16748
:10202000F917630DF700832784FB93F7F70F9306E7
:102030008034054681453E85EFE05FFF032744FB82
:102040009307F00F630DF700832744FB93F7F70F17
:1020500093060031014685453E85EFE03FFD232E86
:1020600004FC232004FE232204FE232404FE231662
:1020700004FE231E04FC93074010231FF4FC2310CE
:1020800004FE032784FC85476305F702832784FC4D
:1020900081CF032784FC89476303F702032784FC6D
:1020A0008D476304F7020DA8231104FE231204FEDA
:1020B00025A0231104FE85472312F4FE31A8894789
:1020C0002311F4FE231204FE01A889472311F4FE14
:1020D00085472312F4FE0100231704FE03A70182A3
:1020E000832744FCB357F7022317F4FE03A70182AA
:1020F000832744FCB377F70291E78357E4FEFD178B
:102100002317F4FE0357E4FE9307F00763F7E70095
:10211000930780032317F4FE51A80357E4FE9307A7
:10212000F00363F7E700930700032317F4FEBDA84D
:102130000357E4FEFD4763F7E70093078002231788
:10214000F4FEADA00357E4FEBD4763F7E700930735
:1021500000022317F4FE99A80357E4FE9D4763F697
:10216000E700E1472317F4FE91A00357E4FE8D47F3
:1021700063F6E700C1472317F4FE0DA80357E4FEFA
:10218000854763F6E700A1472317F4FE05A08357B0
:10219000E4FE81C7231704FE11A813067021B7C7F8
:1021A0000200938547C40145EF20607E8357E4FE1B
:1021B0002314F4FE930700202313F4FE231504FEDA
:1021C0009D472316F4FEB7D702000327C4FC0A0775
:1021D000938707CBBA979C433E879307C4FDBE8580
:1021E0003A85EF50A044B7D702000327C4FC0A0782
:1021F000938707CBBA979C4385453E85EF50805225
:102200000100B640264461618280797122D60018AF
:10221000232EA4FC232CB4FC8547A307F4FE03273C
:10222000C4FD0A07938781DFBA979C4399EB032784
:10223000C4FD0A07938781DFBA97032784FD98C3FB
:1022400015A00327C4FD0A07938781DFBA979C4333
:10225000032784FD6316F7008547A307F4FE19A042
:10226000A30704FE8347F4FE3E8532544561828015
:10227000011106CE22CC00102326A4FE8327C4FE23
:1022800081EB8545856713850780EF5040216DA858
:102290000327C4FE85476317F70085450545EF50C2
:1022A00060245DA00327C4FE89476317F7008545B6
:1022B0000945EF50202349A80327C4FE8D47631723
:1022C000F70085451145EF50E021BDA80327C4FE66
:1022D00091476317F70085452145EF50A020ADA039
:1022E0000327C4FE95476317F70085454145EF5026
:1022F000601F99A80327C4FE99476318F700854516
:1023000013050002EF50001E81A00327C4FE9D4765
:102310006317F70085450965EF50601835A003275E
:10232000C4FEA1476318F700854537050800EF5044
:10233000001719A80327C4FEA5476317F7008545B2
:1023400037051000EF50A0150100F240624405610E
:102350008280011122CE00102326A4FEAE87A305A1
:10236000F4FE0100B7D702000327C4FE0A079387D3
:10237000C7CBBA979C4383D70700C207C18393F7A3
:102380000708EDD3B7D702000327C4FE0A079387D7
:10239000C7CBBA979C433E878347B4FEC207C1832D
:1023A0002312F7000100724405618280011106CEFC
:1023B00022CC00102326A4FE2324B4FE2322C4FE34
:1023C000832784FEB337F00093F7F70F3E87130699
:1023D0001004B7C70200938547CB3A85EF20205BF6
:1023E00029A8832784FE138717002324E4FE83C7CC
:1023F0000700BE850325C4FEA93F832744FE13873B
:10240000F7FF2322E4FEF1FF0100F2406244056180
:102410008280011106CE22CC00102326A4FE2324A4
:10242000B4FE832784FEB337F00093F7F70F3E879F
:1024300013060005B7C70200938547CB3A85EF2006
:10244000005539A8832784FE138717002324E4FE50
:102450008387070093F7F70FBE850325C4FED53D9C
:10246000832784FE83870700F1FF0100F240624466
:1024700005618280011106CE22CC00102326A4FE25
:10248000AE87A305F4FEB7D702000327C4FE0A07F0
:102490009387C7CBBA979C433E878347B4FE3E865B
:1024A000930550523A85EF60002E138701898327E8
:1024B000C4FEBA9783C7070081453E85EF20107A96
:1024C0008347B4FE81CF138701898327C4FEBA975F
:1024D00083C707003E85EF20F07419A81387018990
:1024E0008327C4FEBA9783C707003E85EF20507547
:1024F0000100F240624405618280011122CE001089
:102500002326A4FE2324B4FEB7D702000327C4FE6B
:102510000A079387C7CBBA979C4383D70700C207A4
:10252000C18393F7070295C7B7D702000327C4FEFC
:102530000A079387C7CBBA979C4383D74700C20744
:10254000C18313F7F70F832784FE2380E7008547B5
:1025500011A081473E85724405618280797106D65B
:1025600022D40018232EA4FC232CB4FC232AC4FC60
:102570002328D4FC032744FD832704FD3D8F8327B4
:10258000C4FDB207F98F93B7170093F7F70F3E8793
:102590001306A00AB7C70200938547CB3A85EF2000
:1025A000003F832744FD13D78700832704FDA183C1
:1025B000B307F74093B7170093F7F70F3E8713065B
:1025C000B00AB7C70200938547CB3A85EF20203C7D
:1025D000832744FD93F7F70FE146014685453E8585
:1025E000EFE0DFA4832704FD93F7F70F9306800441
:1025F000014681453E85EFE07FA385450545EF40D7
:10260000106A032744FDC167FD17F98F0D67130793
:1026100007386385E7200D67130707386369F704F8
:102620000567130757166381E716056713075716E3
:10263000636FF7001307F022638AE70C130760301B
:102640006381E710130760126388E70855A60967DE
:1026500013078736638AE7160D671307071263852A
:10266000E71809671307A7146380E71451A61567D5
:102670001307A738638CE72615671307A73863622B
:10268000F702116713078738638EE71E1567130774
:1026900087126383E722116713074712638AE71AD9
:1026A00081AE19671307C7386386E72A19671307CE
:1026B000C7386368F7001967130767106382E72656
:1026C00005AE1D671307E7106380E72C1D6713072E
:1026D000E7386385E72E29AEB7070140D44FB70727
:1026E0000140370700FC7D17758FD8CFB707014031
:1026F000D843B70701406D9BD8C3B7070140D84303
:10270000B707014013674700D8C3DDA4B7070140EE
:10271000D44FB7070140370700FC7D17758FD8CF1E
:10272000B7070140D44FB707014037070004558F62
:10273000D8CFB7070140D843B70701406D9BD8C336
:1027400045ACB7070140D44FB7070140370700FC3D
:102750007D17758FD8CFB7070140D44FB707014019
:1027600037070004558FD8CFB7070140D843B707C4
:1027700001406D9BD8C3B7070140D843B70701405C
:1027800013674700D8C3ADA4B7070140D843B707C4
:1027900001405D9BD8C3B7070140D843B70701404C
:1027A00013678700D8C3A9A4B7070140D843B70768
:1027B00001401D9BD8C3B7070140D843B70701406C
:1027C00013678700D8C32DA4B7070140D843B707C4
:1027D00001401D9BD8C3B7070140D843B70701404C
:1027E00013678701D8C329A4B7070140D44FB7079F
:1027F00001403707FDFF7D17758FD8CFB707014020
:10280000D44F832744FDA18313970701B707030023
:102810007D8FB7070140558FD8CFD9AAB7070140A0
:10282000D44FB70701403707FDFF7D17758FD8CF0D
:10283000B7070140D44F832744FDA18313970701B5
:10284000B70703007D8FB7070140558FD8CF4DA242
:10285000B7070140D44FB70701403707F4FF7D1792
:10286000758FD8CFB7070140D44F832744FDA1838C
:1028700013972701B7070C007D8FB7070140558FCD
:10288000D8CFBDA2B7070140D44FB70701403707E3
:10289000F4FF7D17758FD8CFB7070140D44F83273A
:1028A00044FDA18313972701B7070C007D8FB7075D
:1028B0000140558FD8CF2DAAB7070140D44FB70795
:1028C00001403707D0FF7D17758FD8CFB70701407C
:1028D000D44F832744FDA18313974701B7073000E6
:1028E0007D8FB7070140558FD8CF19A2B707014098
:1028F000D44FB70701403707D0FF7D17758FD8CF6A
:10290000B7070140D44F832744FDA18313974701A4
:10291000B70730007D8FB7070140558FD8CFC9A8C2
:10292000B7070140D44FB7070140370740FF7D1775
:10293000758FD8CFB7070140D44F832744FDA183BB
:1029400013976701B707C0007D8FB7070140558F08
:10295000D8CF79A8B7070140D44FB7070140370750
:1029600040FF7D17758FD8CFB7070140D44F83271D
:1029700044FDA18313976701B707C0007D8FB70798
:102980000140558FD8CFADA0B7070140D44FB7074E
:102990000140370700FD7D17758FD8CFB70701407D
:1029A000D44F832744FDA18313978701B707000302
:1029B0007D8FB7070140558FD8CF1DA8B7070140BD
:1029C000D44FB7070140370700FD7D17758FD8CF6B
:1029D000B7070140D44F832744FDA1831397870194
:1029E000B70700037D8FB7070140558FD8CF01008F
:1029F0008327C4FD91E785451165EF40502A69A8FA
:102A00000327C4FD85476318F70085453705020095
:102A1000EF40502D51A00327C4FD89476318F700EC
:102A2000854537050400EF40F02BBDA00327C4FD0A
:102A30008D476318F700854537050800EF40902A59
:102A4000A1A80327C4FD91476318F7008545370502
:102A50001000EF40302989A00327C4FD9547631873
:102A6000F700854513050004EF40D02735A0032764
:102A7000C4FD99476318F700854513050008EF402A
:102A8000702619A80327C4FD9D476317F7008545E5
:102A900013050010EF401025232004FE232204FE1E
:102AA000232404FE232604FE832784FD2320F4FE32
:102AB000231204FE231304FE231404FE231604FE33
:102AC000B1472315F4FEB7D702000327C4FD0A0758
:102AD0009387C7CBBA979C433E87930704FEBE8576
:102AE0003A85EF501021B7D702000327C4FD0A072B
:102AF0009387C7CBBA979C4385453E85EF50B0423C
:102B00000100B250225445618280797106D622D4E8
:102B10000018AA87232CB4FCA30FF4FCA30704FE1F
:102B2000230704FEA945032584FDEF60C234232456
:102B3000A4FEA30604FE230604FE832784FE81CFA1
:102B4000032784FE832784FDB307F74093F7F70F2D
:102B50008507A306F4FEA30704FE91A08347F4FEB5
:102B6000032784FDBA97038707009307C002631702
:102B7000F7008347E4FE85072307F4FE0347E4FEDE
:102B80008347F4FD6318F7008347F4FE85072306A7
:102B9000F4FE21A88347F4FE8507A307F4FE03474C
:102BA000F4FE8347D4FEE36BF7FA8347C4FE3E8509
:102BB000B250225445618280397106DE22DC8000E9
:102BC0002326A4FCA30704FE232404FE8325C4FCBF
:102BD0000545253FAA87A307F4FE8347F4FEFD17AA
:102BE000A307F4FE0347F4FE9307C4FD3A8683254A
:102BF000C4FC3E85EF60E22A8347F4FE130704FF1E
:102C0000BA97238607FE9307C4FD3E85EF105076E2
:102C10002324A4FE832784FE3E85F2506254216162
:102C20008280397106DE22DC80002326A4FCA30703
:102C300004FE232404FE8325C4FC0545F935AA8738
:102C4000A307F4FE8347F4FEFD17A307F4FE034732
:102C5000F4FE930784FD3A868325C4FC3E85EF602D
:102C600042248347F4FE130704FFBA97238407FE28
:102C7000930784FD3E85EF202032AA872E883E856B
:102C8000C285EF50A223D307A5202724F4FE87276F
:102C900084FE5385F720F25062542161828039719D
:102CA00006DE22DC80002326A4FCA30704FE2320EA
:102CB00004FE232204FE8325C4FC0545B935AA87FA
:102CC000A307F4FE8347F4FEFD17A307F4FE0347B2
:102CD000F4FE930704FD3A868325C4FC3E85EF602D
:102CE000421C8347F4FE130704FFBA97238007FEB4
:102CF000930704FD3E85EF20202A2320A4FE2322F3
:102D0000B4FE832704FE032844FE3E85C285F250AC
:102D1000625421618280797122D60018232EA4FC8E
:102D2000A30704FE8327C4FD83C74700A10713F749
:102D3000F70F8327C4FD2382E7008327C4FD03C761
:102D40004700DD4763FEE7128327C4FD83C74700C2
:102D5000A11713F7F70F8327C4FD2382E70083270A
:102D6000C4FD83C73700850713F7F70F8327C4FD1A
:102D7000A381E7008327C4FD03C7270089476319A0
:102D8000F704F147A307F4FE8327C4FD83D70700A8
:102D90008D8BC207C18381EF8327C4FD03D7070052
:102DA00093074006B377F702C207C18381EF8327F9
:102DB000C4FD03D7070093070019B377F702C207D2
:102DC000C183A9EB8347F4FE8507A307F4FE99A00E
:102DD000FD47A307F4FE8327C4FD03C727009147DF
:102DE0006307F7028327C4FD03C7270099476300E1
:102DF000F7028327C4FD03C72700A5476309F7002F
:102E00008327C4FD03C72700AD476315F700F947C3
:102E1000A307F4FE8327C4FD83C737000347F4FEEE
:102E20006370F7068327C4FD0547A381E700832766
:102E3000C4FD83C72700850713F7F70F8327C4FD59
:102E40002381E7008327C4FD03C72700B14763F947
:102E5000E7028327C4FD83C72700D11713F7F70FB5
:102E60008327C4FD2381E7008327C4FD83D70700A0
:102E700085071397070141838327C4FD2390E7004B
:102E800001003254456182805D7186C6A2C4CAC207
:102E9000CEC08008232EA4FA232CB4FA230704FE04
:102EA000A30604FE232004FE232204FE232C04FC9C
:102EB000232E04FC232A04FC232804FC232604FCE0
:102EC000232404FC232204FC8327C4FB2320F4FCDA
:102ED000A30704FE832504FC09450539AA873E871C
:102EE000832704FCBA97838707002307F4FE832710
:102EF00084FB238407000347E4FE93071004631A4E
:102F0000F7348547A307F4FE832784FB0547238412
:102F1000E700832504FC1145CD3EAA873E87832721
:102F200004FCBA9703870700832784FB2384E70206
:102F3000832504FC1945D13EAA873E87832704FCDC
:102F4000BA9703870700832784FBA384E7028325BE
:102F500004FC0D455D3EAA873E87832704FCBA9793
:102F60003E85353B2320A4FE2322B4FE832504FCAA
:102F70001545613EAA873E87832704FCBA973E85A4
:102F8000393B232CA4FC232EB4FC032504FE83250B
:102F900044FEEF40723F2A8793074006B347F7028B
:102FA000139707014183832784FB2395E700832739
:102FB00084FB83D7A7003E8793074006B307F70239
:102FC0003E85EF40D253AA872E883E86C2860325CF
:102FD00004FE832544FEEF40A20AAA872E883E8580
:102FE000C285EF40B26DD307A520272AF4FC8727BE
:102FF00044FDD39707C0139707014183832784FBC0
:103000002396E700832784FB83D7C700D3F707D035
:10301000072744FD5377F708B7C7020087A707DDE6
:10302000D377F7102728F4FC872704FDD39707C030
:10303000139707014183832784FB2397E700032528
:1030400084FD8325C4FDEF4032342A879307400670
:10305000B347F702139707014183832784FB239823
:10306000E700832784FB83D707013E879307400649
:10307000B307F7023E85EF409248AA872E883E8626
:10308000C286032584FD8325C4FDEF30727FAA87A5
:103090002E883E85C285EF407262D307A520272681
:1030A000F4FC8727C4FCD39707C01397070141831B
:1030B000832784FB2399E700832784FB83D7270199
:1030C000D3F707D00727C4FC5377F708B7C7020028
:1030D00087A707DDD377F7102724F4FC872784FC24
:1030E000D39707C0139707014183832784FB239A53
:1030F000E700832784FB83D7A7003E85EF4032405B
:103100002A89AE89832784FB83D7C7003E85EF4099
:103110001246B7C7020003A687DD83A6C7DDEF20EE
:10312000F271AA872E883E86C2864A85CE85EF2018
:103130000250AA872E883E89C289832784FB83D7C1
:10314000E7003E85EF40B242B7C7020003A607DEA4
:1031500083A647DEEF20926EAA872E883E86C2861F
:103160004A85CE85EF20A24CAA872E88032784FBB0
:103170001CCF232E0701832784FB83D707013E85BD
:10318000EF40F2372A89AE89832784FB83D7270152
:103190003E85EF40D23DB7C7020003A687DD83A678
:1031A000C7DDEF20B269AA872E883E86C2864A858F
:1031B000CE85EF20C247AA872E883E89C289832701
:1031C00084FB83D747013E85EF40723AB7C70200C0
:1031D00003A607DE83A647DEEF205266AA872E8865
:1031E0003E86C2864A85CE85EF206244AA872E8815
:1031F000032784FB1CD323220703832504FC1D45DE
:10320000EFF0BF90AA873E87832704FCBA973E85DC
:10321000EFF03FA12722A4FC072744FCB7C7020018
:1032200087A787DED377F710832784FBDCF7832516
:1032300004FC2145EFF07F8DAA873E87832704FC9D
:10324000BA973E85EFF0FF9DD307A520832784FB27
:103250009CFB832704FC9D0783870700938707FD5A
:1032600093F7F70F3E87BA878A07BA97860713F74F
:10327000F70F832704FCA1078387070093F7F70F55
:10328000BA9793F7F70F938707FD13F7F70F832785
:1032900084FB2382E700832704FCA50783870700BC
:1032A000938707FD93F7F70F3E87BA878A07BA9788
:1032B000860713F7F70F832704FCA9078387070006
:1032C00093F7F70FBA9793F7F70F938707FD13F765
:1032D000F70F832784FBA382E700832704FCAD0755
:1032E00083870700938707FD93F7F70F3E87BA8719
:1032F0008A07BA97860713F7F70F832704FCB107ED
:103300008387070093F7F70FBA9793F7F70F938721
:1033100007FD13F7F70F832784FB2383E70083253B
:1033200004FC2545EFF06FFEAA87A306F4FE834751
:10333000D4FE032704FCBA9783870700938707FD11
:1033400093F7F70F3E87BA878A07BA97860713F76E
:10335000F70F8347D4FE8507832604FCB69783873F
:10336000070093F7F70FBA9793F7F70F938707FDC7
:1033700013F7F70F832784FBA381E7008347D4FE6D
:103380008907032704FCBA9783870700938707FD03
:1033900093F7F70F3E87BA878A07BA97860713F71E
:1033A000F70F8347D4FE8D07832604FCB6978387E7
:1033B000070093F7F70FBA9793F7F70F938707FD77
:1033C00013F7F70F832784FB2381E7008347D4FE9D
:1033D0009107032704FCBA9783870700938707FDAB
:1033E000C207C1833E87BA878A07BA9786071397B1
:1033F000070141838347D4FE9507832604FCB697D3
:1034000083870700C207C183BA97C207C183938726
:10341000077A139707014183832784FB2390E700F2
:10342000832784FB3E85EFF01F8F8347F4FE3E85A4
:10343000B64026441649864961618280397106DEAC
:1034400022DC22F680002326A4FC2324B4FC230FD4
:1034500004FC8327C4FC232CF4FCA30F04FC832569
:1034600084FD0945EFF06FEAAA873E87832784FD34
:10347000BA9783870700230FF4FC0347E4FD930703
:10348000C002630CF706832584FD1D45EFF0EFE7CE
:10349000AA873E87832784FDBA973E85EFF0CFF158
:1034A000AA8713F7F70F832784FC238AE702832573
:1034B00084FD2545EFF06FE5AA873E87832784FDCD
:1034C000BA973E85EFF0EFF55304A520832584FDE0
:1034D0002D45EFF08FE3AA873E87832784FDBA97B7
:1034E0003E85EFF00FF4D307A520D377F4008327B0
:1034F00084FC9CFF8547A30FF4FC8347F4FD3E85C5
:10350000F2506254327421618280011106CE22CCC5
:103510000010A30704FE03A7818A2320E4FE9387FB
:10352000818A83C747002302F4FEA30304FE230716
:1035300004FE232404FE03A7818B85476314F70A46
:10354000094723ACE18A9305A002138501EEEF50F1
:103550009212AA8713871700930704FE890709466A
:10356000BA853E85EF50F213930704FE3E85EF10B7
:103570007049AA87A303F4FE938701EE83C717005F
:103580002307F4FE89472324F4FE15A0138701EED8
:10359000832784FEBA9703C707008347E4FEB98FE9
:1035A0002307F4FE832784FE85072324F4FE138774
:1035B00001EE832784FEBA9703C707009307A00292
:1035C000E316F7FC0347E4FE834774FE6306F70047
:1035D0008547A307F4FEC9A0938501E2138501EE98
:1035E000EFF09F8A23AC018A03A7418B85476313C1
:1035F000F70A094723AAE18A9305A002138501E689
:10360000EF507207AA8713871700930704FE8907F4
:103610000946BA853E85EF50D208930704FE3E85E1
:10362000EF10503EAA87A303F4FE938701E683C7F9
:1036300017002307F4FE89472324F4FE15A01387FF
:1036400001E6832784FEBA9703C707008347E4FE99
:10365000B98F2307F4FE832784FE85072324F4FE15
:10366000138701E6832784FEBA9703C707009307F1
:10367000A002E316F7FC0347E4FE834774FE6306EB
:10368000F7008547A307F4FE01A8938501E213859F
:1036900001E66D3323AA018A8347F4FE3E85F2409A
:1036A000624405618280011106CE22CC0010AA87F7
:1036B0002E87A307F4FEBA872307F4FEB70700207E
:1036C0009387C7009C4713070040D8CB0347E4FE0D
:1036D0008347F4FE3A86BE850945EFE02FD0B70751
:1036E00000209387C7009C471307004098CB010038
:1036F000F240624405618280011106CE22CC0010A6
:10370000AA872324B4FE2322C4FEA307F4FEB7072E
:1037100000209387C7009C4713070040D8CB8347FE
:10372000F4FE832644FE032684FEBE850945EFE0B1
:10373000EFD7B70700209387C7009C4713070040C7
:1037400098CB0100F240624405618280797106D60F
:1037500022D40018AA87A30FF4FCB7070020938790
:10376000C7009C4713070040D8CB8347F4FD93E77D
:1037700007F893F7F70F1307C4FE89463A86BE850C
:103780000945EFE0AFEBB70700209387C7009C47E0
:103790001307004098CB8347D4FE3E85B250225495
:1037A00045618280797106D622D40018AA87232C1D
:1037B000B4FC232AC4FCA30FF4FCB70700209387B2
:1037C000C7009C4713070040D8CB8347F4FD93E71D
:1037D00007F813F7F70F832744FD93861700930725
:1037E00044FE3E86BA850945EFE04FE5B707002065
:1037F0009387C7009C471307004098CB232604FEFD
:103800003DA08327C4FE13871700832784FD93867A
:103810001700232CD4FC930604FF3697034747FF79
:103820002380E7008327C4FE85072326F4FE832731
:10383000C4FE032744FDE3E6E7FC0100B250225436
:1038400045618280011106CE22CC0010A30504FE42
:10385000A30704FE231604FE8357C4FE1387170034
:103860002316E4FE1307F00F6376F7008547A307DE
:10387000F4FE39A80145D93DAA87A305F4FE054504
:10388000EFC07FCF0347B4FE93074002E316F7FC77
:103890008347F4FE3E85F240624405618280011157
:1038A00006CE22CC0010930784FE1946BE85314512
:1038B000D53D834794FEA2071397070141878347AD
:1038C00084FEC207C187D98F1397070141872391CF
:1038D000E18C8347B4FEA207139707014187834712
:1038E000A4FEC207C187D98F13970701418723928E
:1038F000E18C8347D4FEA2071397070141878347D2
:10390000C4FEC207C187D98F13970701418723934C
:10391000E18C0100F240624405618280011106CE13
:1039200022CC0010930784FE1946BE8549459D3D73
:10393000834794FEA207139707014187834784FEBC
:10394000C207C187D98F139707014187239EE18A58
:103950008347B4FEA2071397070141878347A4FE5C
:10396000C207C187D98F139707014187239FE18A37
:103970008347D4FEA2071397070141878347C4FEFC
:10398000C207C187D98F1397070141872390E18C24
:103990000100F240624405618280011106CE22CC12
:1039A0000010A30704FE5145EFC0FFBC1308F00F41
:1039B00089679387470209671307570289669386C9
:1039C0003602379698001306066881450945EFE0F0
:1039D000EFD5C146054685451305A004EFD00FE598
:1039E0000145AD338535AA8795C39306600EB7C7E9
:1039F0000200138687E1B7C70200938507E90145F6
:103A0000EF00907F8547A307F4FEE9A081451305E9
:103A1000C007EFF05FC90545EFC0FFB5814513054D
:103A20009005EFF05FC80966B7F7020093854781FC
:103A30001305E005D131854513059005EFF0BFC6AC
:103A40005145EFC05FB3130510020933AA8795E310
:103A50009306500FB7C70200138687E1B7C702006D
:103A60009385C7EA0145EF0030798547A307F4FE47
:103A700095A0B9451305D007EFF0FFC29305700A72
:103A800013050004EFF03FC29305900A13052004CC
:103A9000EFF07FC1894513051004EFF0DFC037C791
:103AA0000200872747EC27A8F18001000347F4FEB6
:103AB00085476300F702814513053004EFF0BFBE70
:103AC0009387018137C70200872787ECDCE3010079
:103AD00011A001008347F4FE3E85F2406244056177
:103AE0008280011106CE22CC0010AA872E87A30760
:103AF000F4FEBA872307F4FEB70700209387C700B8
:103B00009C4713070040D8CB0347E4FE8347F4FEED
:103B10003A86BE850945EFE06F8CB7070020938792
:103B2000C7009C471307004098CB0100F240624455
:103B300005618280797106D622D40018AA87A30F66
:103B4000F4FCA30704FEB70700209387C7009C4737
:103B500013070040D8CB8347F4FD93E707F893F7AA
:103B6000F70FBE850945EFE08FA0AA87A307F4FEF3
:103B7000B70700209387C7009C471307004098CBE6
:103B80008347F4FE3E85B250225445618280011184
:103B900006CE22CC0010AA872324B4FE2322C4FE22
:103BA000A307F4FEB70700209387C7009C471307BD
:103BB0000040D8CB8347F4FE93E707F893F7F70F5D
:103BC000832644FE032684FEBE850945EFE00FA749
:103BD000B70700209387C7009C471307004098CB86
:103BE0000100F240624405618280797106D622D4D8
:103BF0000018AA87AE863287A30FF4FCB687230F7E
:103C0000F4FCBA87A30EF4FCA30704FE231604FEFB
:103C10008347F4FD8607A30FF4FC81455D45D1354C
:103C20008347F4FDBE8555456D3D8347E4FDBE8564
:103C30005945453D8347D4FDBE85130510025535D2
:103C40009305C0045145713D15A08357C4FE1387E9
:103C500017002316E4FE1307F00F6376F70085477D
:103C6000A307F4FE21A80945EFC0FF901305200229
:103C7000D135AA87E207E187E3D907FC8347F4FE41
:103C80003E85B250225445618280797106D622D495
:103C90000018AA872E87A30FF4FCBA87230FF4FC21
:103CA000231704FE8347F4FD8607A30FF4FC834724
:103CB000F4FD93E7170093F7F70FBE8555451535CB
:103CC0008347E4FDBE855945293D85455D45113D48
:103CD0009305C0045145313531A88357E4FE13875D
:103CE00017002317E4FE1307F00F636EF700094572
:103CF000EFC07F8813052002353DAA87858B93F797
:103D0000F70FE1DF11A0010009452D35AA873E8597
:103D1000B250225445618280011106CE22CC00109F
:103D2000AA872E87A307F4FEBA872307F4FE8347EA
:103D3000F4FE8607A307F4FE8347F4FE93E717001B
:103D400093F7F70FBE855545693B8347E4FEBE8573
:103D50005945413B99455D4569339305C006514539
:103D600049330100F240624405618280011106CEB0
:103D700022CC0010A30704FE230704FE231604FE32
:103D80003DA08357C4FE138717002316E4FE1307D4
:103D9000F00F6376F7008547A307F4FE39A83D4589
:103DA000513BAA872307F4FE2945EFC0CFFC034708
:103DB000E4FE9307B006E316F7FC8347F4FE3E8566
:103DC000F240624405618280011106CE22CC0010CF
:103DD000A30704FE230704FE231604FE05A8835749
:103DE000C4FE138717002316E4FE1307F00F637653
:103DF000F7008547A307F4FE05A0B54535457135A5
:103E0000AA872307F4FE2945EFC0EFF60347E4FE37
:103E10009307F00FE315F7FC8347F4FE3E85F2406D
:103E2000624405618280011106CE22CC0010930508
:103E300000040545EFF0FFCA13052002EFF09FCF05
:103E4000AA87A307F4FE8347F4FE858B93F7F70F49
:103E5000A5CB930784FE1946BE850945EFF03FD3F5
:103E6000834794FEA207139707014187834784FE87
:103E7000C207C187D98F1397070141872394E18C2B
:103E80008347B4FEA2071397070141878347A4FE27
:103E9000C207C187D98F1397070141872395E18C0A
:103EA0008347D4FEA2071397070141878347C4FEC7
:103EB000C207C187D98F1397070141872396E18CE9
:103EC00081450545EFF0FFC10100F2406244056104
:103ED0008280011106CE22CC0010A30704FE2945E2
:103EE000EFC06FE91308F00F8967938747020967EE
:103EF0001307570289669386360237969800130691
:103F0000066881450945EFE06F82C1460146854557
:103F10001305A004EFD08F9181450545EFF07FBCDC
:103F200085454945EFF0FFBB0945EFC0CFE481452A
:103F30000545EFF01FBB1D3DAA8795C3930690175B
:103F4000B7C702001386C7ECB7C70200938547F4D2
:103F50000145EF00702A8547A307F4FE89AA8D4525
:103F60003545EFF01FB89305C0034145EFF07FB72B
:103F7000B707002037C702008727C7F827A0F70236
:103F800001000347F4FE8547630EF7109305C00553
:103F90004545EFF01FB5B70700209387070237C7E5
:103FA0000200872707F9DCE301000347F4FE854799
:103FB000630CF70E930540044945EFF09FB2894525
:103FC0004D45EFF01FB281455145EFF09FB181455E
:103FD0005545EFF01FB181455945EFF09FB085453C
:103FE0006145EFF01FB0930500040545EFF07FAF8A
:103FF000930500085145EFF0DFAE0945EFC0AFD79C
:1040000081455145EFF0FFAD0945EFC0CFD613060E
:104010000008A9453545EFF05FBD0945EFC0AFD5B4
:104020000146A9453545EFF05FBC0945EFC0AFD467
:10403000EFF09FD9AA8795C39306C01EB7C70200A9
:104040001386C7ECB7C702009385C7F60145EF009A
:10405000B01A8547A307F4FE99A86546A5453545DE
:10406000EFF0BFB8B70700209387070237C70200F9
:10407000872747F99CE701000347F4FE854763075C
:10408000F7020546AD453545EFF03FB6814535456C
:10409000EFF09FC881450545EFF0BFA45145EFC043
:1040A0008FCD31A0010021A0010011A001008347A4
:1040B000F4FE3E85F240624405618280411122C6D1
:1040C00000080100324441018280411122C60008EB
:1040D000B71702409843B71702401367170098C3F9
:1040E000B7170240D443B71702403707FFF8758F60
:1040F000D8C3B71702409443B71702403707F7FEFB
:104100007D17758F98C3B71702409443B7170240C5
:104110003707FCFF7D17758F98C3B7170240D4434C
:10412000B7170240370781FF7D17758FD8C3B717C0
:10413000024037079F0098C7010032444101828046
:10414000797122D60018232EA4FC232604FE2324F2
:1041500004FEB71702409443B71702404167558FDA
:1041600098C3B71702409843B7070200F98F23247A
:10417000F4FE8327C4FE85072326F4FE832784FEEE
:1041800091E70327C4FE8567E31DF7FCB7170240DC
:104190009843B7070200F98F89C785472324F4FEA7
:1041A00019A0232404FE032784FE85476312F71613
:1041B00037170240B71702405843D8C33717024099
:1041C000B71702405843D8C337170240B717024009
:1041D0005843D8C3B7170240D443B7170240370734
:1041E000C1FF7D17758FD8C30327C4FDB747950856
:1041F00093870740631BF700B7170240D443B717F4
:1042000002404167558FD8C355A80327C4FDB7178F
:104210002707938707E0631CF700B7170240D443D2
:10422000B717024037073900558FD8C341A8032775
:10423000C4FDB7E7B80593870780631CF700B7177D
:104240000240D443B717024037072900558FD8C31F
:10425000B5A00327C4FDB7A74A0493870720631CB2
:10426000F700B7170240D443B717024037071D00C5
:10427000558FD8C3A1A00327C4FDB777DC0293876D
:1042800007C0631CF700B7170240D443B7170240BA
:1042900037071100558FD8C315A00327C4FDB737C2
:1042A0006E0193870760631BF700B7170240D44382
:1042B000B717024037070500558FD8C3B71702401C
:1042C0009443B717024037070001558F98C3010088
:1042D000B71702409843B7070002F98FF5DBB7170D
:1042E0000240D843B7170240719BD8C3B7170240AA
:1042F000D843B717024013672700D8C30100B71788
:104300000240DC4313F7C700A147E31AF7FE11A0F0
:1043100001A0325445618280011106CE22CC0010EA
:104320002326A4FE0327C4FE23A0E182EFF0FFD9D9
:104330000325C4FEEFF0DFE0EF10A01A0100F24009
:10434000624405618280411122C60008010001001B
:10435000324441018280011106CE22CC0010232676
:1043600004FE232404FE232604FE25A0232404FEA9
:1043700039A0D13F832784FE85072324F4FE032739
:1043800084FEC167E367F7FE8327C4FE8507232603
:10439000F4FE0327C4FE9307F00FE3F9E7FC0100E6
:1043A000F240624405618280411122C6000801008A
:1043B000324441018280011106CE22CC0010232616
:1043C000A4FE8325C4FE0945EFE0AF840100F2405E
:1043D000624405618280130101D92326112623241A
:1043E000812623229126801C232EA4D8232CB4D8E6
:1043F000232AC4D82328D4D8231504FE231404FE6A
:10440000231304FE231204FE231104FE032584D982
:10441000EF401228AA87C207C1872313F4FE83D76F
:1044200001F689C7938701F69C4B829783C7E18C7D
:1044300093F7F70F6383074C83D701F6638B074429
:10444000938701F6D447835724FE139707014187CA
:1044500093170701C1838507C207C183C207C187BC
:104460002311F4FE93170701C1830326C4D9BE8527
:1044700001458296832784D92326F4FE032584D917
:10448000EF401221AA87C207C1872313F4FE938746
:1044900001F683D727003E87938701F683C767001D
:1044A000B347F702C207C1872312F4FE0100832736
:1044B000C4FE138717002326E4FE83870700E5FB6D
:1044C000231404FEA1A88327C4FEFD172326F4FEAF
:1044D0008327C4FE038707009307F002630AF700EF
:1044E0008327C4FE038707009307C005631BF700FB
:1044F000835784FEC207C1838507C207C183231483
:10450000F4FE835764FEC207C187C207C183FD174B
:10451000C207C183C207C1872313F4FE835784FEF9
:10452000139707014183854763E8E700835764FEDB
:10453000C207C187E3D907F8835764FEC207C18762
:1045400063C307028327C4FE85072326F4FE1307EF
:1045500004EE0326C4FEB7C70200938587F93A85A7
:10456000EF40120D2DA8835784FEC207C18389EF47
:10457000130704EE0326C4FEB7C70200938547FA6B
:104580003A85EF40F20A21A8130704EE0326C4FE81
:10459000B7C70200938587F93A85EF407209231562
:1045A00004FE21AA231404FE59A0930704EE3E85BD
:1045B000EF40120E2A87835784FEC207C183BE864E
:1045C0008357A4FEC207C1833E86835744FEC207B9
:1045D000C187B307F602B6976367F706835784FE71
:1045E000C207C1833E878357A4FEC207C183BE862C
:1045F000835744FEC207C187B387F602BA970357B1
:1046000084FE42074183BA86130704FFBA970387E3
:1046100007EF930704FFB6972388E7EA835784FEE2
:10462000C207C1838507C207C1832314F4FE8357E1
:1046300084FEC207C1833E87835744FEC207C187F9
:10464000E345F7F611A00100835784FEC207C1833A
:10465000130704FFBA97238807EA938701F603A894
:10466000C700938701F683C777001397070141833B
:10467000835724FE93960701C18693970601C18351
:104680008507C207C183C207C1872311F4FE939730
:104690000601C183B307F702C207C183130704EA07
:1046A0003A86BE85014502988357A4FEC207C1839E
:1046B0008507C207C1832315F4FE8357A4FEC207F2
:1046C000C183BE84930704EE3E85EF40627C2A8757
:1046D000835744FEC207C187B357F7028507E3E358
:1046E000F4EC130704EE032644D9B7C70200938500
:1046F00047FB3A85EF40C273938701F603A8C700D2
:10470000938701F683C77700139707014183835787
:1047100024FE93960701C18693970601C1838507FE
:10472000C207C183C207C1872311F4FE9397060114
:10473000C183B307F702C207C183130704EE3A86A9
:10474000BE8501450298832704D96388071A23157B
:1047500004FE21AA231404FE59A0032504D9EF4026
:1047600022732A87835784FEC207C183BE8683577C
:10477000A4FEC207C1833E86835744FEC207C18799
:10478000B307F602B6976368F706835784FEC2073D
:10479000C1833E878357A4FEC207C183BE86835769
:1047A00044FEC207C187B387F602BA973E878327C4
:1047B00004D9BA97035784FE42074183BA86038718
:1047C0000700930704FFB6972388E7EA835784FE20
:1047D000C207C1838507C207C1832314F4FE835730
:1047E00084FEC207C1833E87835744FEC207C18748
:1047F000E345F7F611A00100835784FEC207C18389
:10480000130704FFBA97238807EA938701F603A8E2
:10481000C700938701F683C7770013970701418389
:10482000835724FE93960701C18693970601C1839F
:104830008507C207C183C207C1872311F4FE93977E
:104840000601C183B307F702C207C183130704EA55
:104850003A86BE85014502988357A4FEC207C183EC
:104860008507C207C1832315F4FE8357A4FEC20740
:10487000C183BE84032504D9EF4082612A87835710
:1048800044FEC207C187B357F7028507E3E4F4EC9F
:10489000ADA0930704DA1306001081453E85EFB002
:1048A0003F96938701F69C470325C4D982978327B7
:1048B00004D985C3130504DA032704D9832644D910
:1048C000032684D9B7C70200938507FCEF40425600
:1048D00031A8130704DA832644D9032684D9B7C73D
:1048E00002009385C7FD3A85EF408254938701F615
:1048F0009847930704DA3E85029701008320C1267A
:1049000003248126832441261301012782807971A3
:1049100006D622D40018232EA4FC232CB4FC232A70
:10492000C4FC232604FEB9A00100B7D70200938778
:10493000C7CB9C47930500043E85EF30F073AA87F0
:10494000EDD7B7D702009387C7CB9C47BE86832796
:1049500084FD13871700232CE4FC83870700C2071C
:10496000C183BE853685EF30506E8327C4FE850730
:104970002326F4FE0327C4FE832744FDE346F7FA0B
:10498000832744FD3E85B250225445618280011147
:1049900006CE22CC0010AA872324B4FE2322C4FE14
:1049A000A307F4FE8347F4FEB9E383C7418293F77C
:1049B000F70F95CF83C7F18C91C301A083C7F18C0A
:1049C000850713F7F70FA387E18CEF00D02EEFF0E8
:1049D000BF9D8146032644FE832584FEB7C702009F
:1049E000138547FFEFF03F9FEFF0FF96DDB7010023
:1049F000F240624405618280011106CE22CC001093
:104A0000AA872324B4FE2322C4FE2320D4FEA307B6
:104A1000F4FE8347F4FE9DE383C7E18C93F7F70F21
:104A200099CF832684FE032604FE832544FEB7C760
:104A3000020013854700EFF01F9A11A0010001004A
:104A4000F240624405618280011122CE00102326CB
:104A5000A4FE8327C4FE239007008327C4FE7D574E
:104A60002391E7008327C4FE7D572392E700832725
:104A7000C4FE7D572383E7008327C4FE7D57A383AD
:104A8000E7008327C4FE23A407008327C4FE23A6D0
:104A900007008327C4FE23A80700010072440561B4
:104AA0008280011122CE00102326A4FE8327C4FE9B
:104AB00003D707002390E1F68327C4FE03D727001E
:104AC000938701F62391E7008327C4FE03D74700AD
:104AD000938701F62392E7008327C4FE03C767008C
:104AE000938701F62383E7008327C4FE03C777007B
:104AF000938701F6A383E7008327C4FE9847938733
:104B000001F698C78327C4FED847938701F6D8C714
:104B10008327C4FE984B938701F698CB05472387DC
:104B2000E18C0100724405618280797106D622D43D
:104B300000189307C4FD3E85013FB74700009387E7
:104B4000673B2322F4FE9307C4FD3E85993F8967A6
:104B50009386B70289671386A702F16793850720BA
:104B60000945EFD0BF9F0100B250225445618280B9
:104B7000797106D622D40018232EA4FC8327C4FD05
:104B8000B337F00093F7F70F3E8713064005B7C71A
:104B90000200938507013A85EFF07FDFA30704FE4B
:104BA000232404FE8327C4FDCDC38327C4FD0387CC
:104BB00007009307D002631BF7008547A307F4FEA5
:104BC0008327C4FD8507232EF4FCB1A08327C4FDF1
:104BD000038707009307B002631FF7028327C4FD12
:104BE0008507232EF4FC05A8032784FEBA878A07CD
:104BF000BA9786073E878327C4FD8387070093F70C
:104C0000F70F938707FDBA972324F4FE8327C4FD8B
:104C10008507232EF4FC8327C4FD03870700930731
:104C2000F00263DAE7008327C4FD038707009307D8
:104C30009003E3DBE7FA8347F4FE89CB832784FE06
:104C4000B307F0402324F4FE11A00100832784FE63
:104C50003E85B250225445618280397106DE22DCE5
:104C600080002326A4FC2324B4FC8327C4FCB33790
:104C7000F00093F7F70F3E871306C00CB7C702008A
:104C8000938507013A85EFF09FD0A30704FE8327A1
:104C9000C4FCD9CB832784FCB1E38327C4FC13076E
:104CA00000032380E70051A0032784FCA947B376C3
:104CB000F7028347F4FE13871700A307E4FE139758
:104CC00086016187930604FFB6972386E7FE0327D4
:104CD00084FCA947B357F7022324F4FC832784FC00
:104CE000E1F73DA88347F4FEFD17130704FFBA97C9
:104CF0008387C7FE93F7F70F9387070393F6F70FA2
:104D00008327C4FC138717002326E4FC139786012E
:104D100061872380E7008347F4FEFD17A307F4FEB5
:104D20008347F4FEE1F311A001000100F250625448
:104D300021618280597186D6A2D48018232EA4F8CE
:104D4000272CA4F8AE87A30BF4F88327C4F9B33754
:104D5000F00093F7F70F3E8713060013B7C7020062
:104D6000938507013A85EFF09FC2232604FE232492
:104D700004FE834774F9A303F4FE8327C4F9638711
:104D80000720872784F9D39707C02326F4FE8727B7
:104D900084F9530700F0D397E7A081CF8327C4F9A4
:104DA00013871700232EE4F81307D0022380E700AF
:104DB00099A0872784F9530700F0D3A7E7A085CFF0
:104DC0008327C4F913871700232EE4F81307000381
:104DD0002380E7008327C4F913871700232EE4F804
:104DE0001307E0022380E7008327C4F913070003B9
:104DF0002380E70069AA8327C4FED3F707D00727DB
:104E000084F9D377F708272CF4F819A8072784F931
:104E1000B7C7020087A7C709D377F710272CF4F884
:104E2000834774FE1387F7FFA303E4FEE5F38727A8
:104E300084F9D39707C02324F4FEA30304FE834719
:104E400074FE13871700A303E4FEBE860327C4FE87
:104E5000A9473367F70293972600930604FFB69796
:104E600023AAE7FC0327C4FEA947B347F70223267A
:104E7000F4FE8327C4FEE1F7A1A0834774FEFD176B
:104E80008A07130704FFBA9783A747FD13D7F74193
:104E9000B98F998F93F7F70F9387070393F6F70F5F
:104EA0008327C4F913871700232EE4F8139786018C
:104EB00061872380E700834774FEFD17A303F4FE98
:104EC000834774FEDDFB834774F9F1C3A30304FE3B
:104ED0008327C4F913871700232EE4F81307E00291
:104EE0002380E700832784FEB9E78327C4F91307EB
:104EF00000032380E70061A8834774FE138717002F
:104F0000A303E4FEBE86032784FEA9473367F702A6
:104F100093972600930604FFB69723AEE7FA03277C
:104F200084FEA947B347F7022324F4FE834774F9AC
:104F3000FD17A30BF4F8834774F9DDFFA1A08347A5
:104F400074FEFD178A07130704FFBA9783A7C7FBF0
:104F500013D7F741B98F998F93F7F70F938707030B
:104F600093F6F70F8327C4F913871700232EE4F86D
:104F70001397860161872380E700834774FEFD173E
:104F8000A303F4FE834774FEDDFB11A001000100C2
:104F9000B650265465618280397106DE22DC4ADA19
:104FA0004ED880002326A4FC8327C4FCB337F0002E
:104FB00093F7F70F3E8713065018B7C70200938583
:104FC00007013A85EFF0BF9CA30704FE232004FEEF
:104FD000232204FE232C04FC232E04FCB7C702006A
:104FE00003A8C70A83A7870A2328F4FC232A04FD01
:104FF0008327C4FC638B071E8327C4FC0387070039
:105000009307D002631BF7008547A307F4FE8327AD
:10501000C4FC85072326F4FCADA88327C4FC0387C2
:1050200007009307B0026316F7068327C4FC8507C1
:105030002326F4FCB9A8B7C7020003A6070B83A672
:10504000470B032504FE832544FEEF10121EAA879A
:105050002E883E89C2898327C4FC8387070093F783
:10506000F70F938707FD3E85EF207249AA872E88A8
:105070003E86C2864A85CE85EF00625BAA872E886F
:105080002320F4FE232204FF8327C4FC8507232664
:10509000F4FC8327C4FC038707009307F00263DA5C
:1050A000E7008327C4FC0387070093079003E3D43A
:1050B000E7F88327C4FC038707009307E002631720
:1050C000F70E8327C4FC85072326F4FC49A0B7C745
:1050D000020003A6070B83A6470B032584FD832547
:1050E000C4FDEF109214AA872E883E89C2898327B7
:1050F000C4FC8387070093F7F70F938707FD3E856E
:10510000EF20F23FAA872E883E86C2864A85CE854A
:10511000EF00E251AA872E88232CF4FC232E04FDF5
:10512000B7C7020003A6070B83A6470B032504FDA0
:10513000832544FDEF10720FAA872E882328F4FCE4
:10514000232A04FD8327C4FC85072326F4FC832738
:10515000C4FC038707009307F00263D9E7028327A3
:10516000C4FC038707009307900363C1E702B7C736
:10517000020003A6870B83A6C70B032504FD832526
:1051800044FDEF10227FAA87E3C307F4032604FD42
:10519000832644FD032584FD8325C4FDEF00126AA8
:1051A000AA872E88232CF4FC232E04FD032684FDDD
:1051B0008326C4FD032504FE832544FEEF00224719
:1051C000AA872E882320F4FE232204FF8347F4FEBF
:1051D00091CF832704FE2320F4FE032744FEB70764
:1051E0000080B98F2322F4FE11A00100832704FE62
:1051F000032844FE3E85C285F25062545259C2597A
:1052000021618280797106D622D40018232EA4FC55
:105210008327C4FDB337F00093F7F70F3E871306DB
:105220006021B7C70200938507013A85EFF02FF69A
:105230000325C4FDEF30D2452326A4FE232404FE1B
:10524000A30304FE230304FE8327C4FD6387071022
:10525000834764FEC5CF8327C4FD038707009307F8
:10526000000663D5E7028327C4FD03870700930781
:10527000600663CDE7008327C4FD8387070093F7AB
:10528000F70F938797FAA303F4FEB5A08327C4FD15
:10529000038707009307000463D5E7028327C4FD53
:1052A000038707009307600463CDE7008327C4FDED
:1052B0008387070093F7F70F938797FCA303F4FE08
:1052C0001DA88327C4FD038707009307F00263D757
:1052D000E7088327C4FD038707009307900363CF84
:1052E000E7068327C4FD8387070093F7F70F9387AB
:1052F00007FDA303F4FE832784FE1397470083472B
:1053000074FEBD8BD98F2324F4FE15A88327C4FD1A
:1053100003870700930700036313F7028327C4FD85
:1053200085070387070093078007631AF700832721
:10533000C4FD8507232EF4FC85472303F4FE832751
:10534000C4FD8507232EF4FC8327C4FE1387F7FFD3
:105350002326E4FEE39A07EE11A00100832784FED2
:105360003E85B250225445618280411122C6000818
:105370009967938787087390078001003244410141
:105380008280411122C6000899677390078001004E
:10539000324441018280011122CE00102326A4FE56
:1053A0008327C4FEFD8B0547B316F70037E700E0FF
:1053B0008327C4FE9583938707048A07BA9794C30B
:1053C0000100724405618280011122CE0010232663
:1053D000A4FE8327C4FEFD8B0547B316F70037E70D
:1053E00000E08327C4FE9583938707068A07BA9750
:1053F00094C30100724405618280011122CE001025
:105400002326A4FEAE87A305F4FE37E700E083273A
:10541000C4FEBA970347B4FE2380E74001007244FC
:1054200005618280011106CE22CC00102326A4FE45
:105430000325C4FE8D370100F2406244056182807D
:10544000011106CE22CC00102326A4FE0325C4FEA3
:10545000A53F0100F240624405618280011106CE41
:1054600022CC00102326A4FEAE87A305F4FE8347BA
:10547000B4FEBE850325C4FE49370100F2406244F4
:1054800005618280011106CE22CC00102326A4FEE5
:105490008327C4FE99C783A7018D1387F7FF23A82D
:1054A000E18C83A7018D99E3EFF03FEC0100F2401E
:1054B000624405618280411106C622C4000883A7A8
:1054C000018D99E3EFF0FFEB83A7018D13871700A0
:1054D00023A8E18C83A7018D3E85B240224441017F
:1054E0008280411106C622C400080145613F0100C7
:1054F000B2402244410182801D71A2CE82E686E440
:105500008AE28EE012FE16FC1AFA1EF82AF62EF433
:1055100032F236F03AEE3EEC42EA46E872E676E4E3
:105520007AE27EE0801093055052B7470140138520
:105530000780EF30C038AA8789CB93055052B74710
:10554000014013850780EF30A047010076443660A4
:10555000A660166186617272E2725273C27332750E
:10556000A275127682767267E2675268C268326EFE
:10557000A26E126F826F2561730020301D71A2CE62
:1055800082E686E48AE28EE012FE16FC1AFA1EF823
:105590002AF62EF432F236F03AEE3EEC42EA46E8D3
:1055A00072E676E47AE27EE0801093055052B747C7
:1055B000004013850740EF308030AA8789CB9305E0
:1055C0005052B747004013850740EF30603F01005D
:1055D00076443660A660166186617272E27252731A
:1055E000C2733275A275127682767267E26752686C
:1055F000C268326EA26E126F826F25617300203016
:105600001D71A2CE82E686E48AE28EE012FE16FCCE
:105610001AFA1EF82AF62EF432F236F03AEE3EEC82
:1056200042EA46E872E676E47AE27EE0801093058C
:105630005052B757004013850780EF304028AA87A3
:1056400089CB93055052B757004013850780EF3040
:105650002037010076443660A6601661866172725A
:10566000E2725273C2733275A275127682767267D5
:10567000E2675268C268326EA26E126F826F256155
:10568000730020301D71A2CE82E686E48AE28EE0AD
:1056900012FE16FC1AFA1EF82AF62EF432F236F032
:1056A0003AEE3EEC42EA46E872E676E47AE27EE0E2
:1056B000801093055052B7570040138507C0EF3054
:1056C0000020AA8789CB93055052B7570040138515
:1056D00007C0EF30E02E010076443660A660166108
:1056E00086617272E2725273C2733275A27512765B
:1056F00082767267E2675268C268326EA26E126F7B
:10570000826F2561730020301D71A2CE82E686E48F
:105710008AE28EE012FE16FC1AFA1EF82AF62EF421
:1057200032F236F03AEE3EEC42EA46E872E676E4D1
:105730007AE27EE080109305505237550040EF30FA
:105740000018AA8791CB83A7818182979305505235
:1057500037550040EF30C026010076443660A66021
:10576000166186617272E2725273C2733275A275EB
:10577000127682767267E2675268C268326EA26EF3
:10578000126F826F2561730020301D71A2CE82E6F8
:1057900086E48AE28EE012FE16FC1AFA1EF82AF659
:1057A0002EF432F236F03AEE3EEC42EA46E872E689
:1057B00076E47AE27EE0801093055052B7270040ED
:1057C00013850780EF30A00FAA8789CB930550522D
:1057D000B727004013850780EF30801E0100764414
:1057E0003660A660166186617272E2725273C2738D
:1057F0003275A275127682767267E2675268C26865
:10580000326EA26E126F826F2561730020301D719F
:10581000A2CE82E686E48AE28EE012FE16FC1AFA36
:105820001EF82AF62EF432F236F03AEE3EEC42EA58
:1058300046E872E676E47AE27EE080109305505204
:10584000B7270040138507C0EF306007AA8799CBC0
:10585000EF80717293055052B7270040138507C03F
:10586000EF300016010076443660A660166186614E
:105870007272E2725273C2733275A27512768276B8
:105880007267E2675268C268326EA26E126F826FF0
:105890002561730020301D71A2CE82E686E48AE283
:1058A0008EE012FE16FC1AFA1EF82AF62EF432F2D8
:1058B00036F03AEE3EEC42EA46E872E676E47AE208
:1058C0007EE080109305505237250040EF20307F56
:1058D000AA8789CBEF20915393055052372500407A
:1058E000EF30000E010076443660A66016618661D6
:1058F0007272E2725273C2733275A2751276827638
:105900007267E2675268C268326EA26E126F826F6F
:105910002561730020301D71A2CE82E686E48AE202
:105920008EE012FE16FC1AFA1EF82AF62EF432F257
:1059300036F03AEE3EEC42EA46E872E676E47AE287
:105940007EE08010B707055083C7070193F7F70F74
:10595000918B8DC383A7C1818297B707055083C7F9
:10596000070113F7F70FB70705506D9B1377F70F74
:105970002388E700010076443660A66016618661E0
:105980007272E2725273C2733275A27512768276A7
:105990007267E2675268C268326EA26E126F826FDF
:1059A0002561730020301D71A2CE82E686E48AE272
:1059B0008EE012FE16FC1AFA1EF82AF62EF432F2C7
:1059C00036F03AEE3EEC42EA46E872E676E47AE2F7
:1059D0007EE080100545EF10200E2A87854763156D
:1059E000F7000545EF10A012010076443660A6606E
:1059F000166186617272E2725273C2733275A27559
:105A0000127682767267E2675268C268326EA26E60
:105A1000126F826F2561730020301D71A2CE82E665
:105A200086E48AE28EE012FE16FC1AFA1EF82AF6C6
:105A30002EF432F236F03AEE3EEC42EA46E872E6F6
:105A400076E47AE27EE080100945EF10E0062A87CE
:105A500085476315F7000945EF10600B0100764498
:105A60003660A660166186617272E2725273C2730A
:105A70003275A275127682767267E2675268C268E2
:105A8000326EA26E126F826F2561730020301D711D
:105A9000A2CE82E686E48AE28EE012FE16FC1AFAB4
:105AA0001EF82AF62EF432F236F03AEE3EEC42EAD6
:105AB00046E872E676E47AE27EE080101145EF0077
:105AC000B07F2A8785476315F7001145EF10200442
:105AD000010076443660A660166186617272E272D9
