:100000006F80C00C130000001300000013000000FC
:100010001300000013000000130000001300000094
:100020001300000013000000130000001300000084
:08003000130000007300100032
:100038000000000000000000C47E0000D47E000024
:100048000000000012800000000000000000000016
:10005800148000001680000000000000000000006E
:1000680018800000000000001A8000000000000056
:100078001C8000001E8000002080000022800000FC
:10008800248000002680000044750000B875000038
:100098002C760000A0760000147700003280000063
:1000A8003480000036800000388000003A8000006C
:1000B8003C8000003E80000040800000428000003C
:1000C80044800000468000004880000088770000D7
:1000D8004C800000447900005080000052800000ED
:1000E800D8790000507A0000547B00005A80000044
:1000F8005C8000005E80000060800000628000007C
:1001080064800000967000001A7100009E71000063
:10011800607800006E80000070800000728000002F
:100128004C7D000076800000788000007A80000016
:100138007C8000007E800000D47B0000828000006C
:1001480022720000A6720000547C0000CC7C0000E3
:100158008C8000008E80000090800000928000005B
:100168009480000096800000988000009A8000002B
:100178009C8000009E800000A080000042A7000034
:10018800A4800000A6800000B4740000287300005A
:10019800AC73000034740000B0800000CC7D000017
:1001A800B4800000B6800000B88000004C7E0000DB
:1001B800BC800000BE800000C0800000C28000003B
:1001C800C4800000C6800000C8800000CA8000000B
:1001D8000000000000000000000000000000000017
:1001E8000000000000000000000000000000000007
:0801F8000000000000000000FF
:100200003D432A876373C3029377F700BDEFADE5E3
:10021000937606FF3D8ABA960CC34CC30CC74CC7F5
:100220004107E36BD7FE11E28280B306C3408A0622
:100230009702000096966780A6002307B700A306E2
:10024000B7002306B700A305B7002305B700A30432
:10025000B7002304B700A303B7002303B700A3022A
:10026000B7002302B700A301B7002301B700A30022
:10027000B7002300B700828093F5F50F93968500B1
:10028000D58D93960501D58D61B79396270097027A
:10029000000096968682E78086FA9680C1171D8FA9
:1002A0003E96E374C3F8A5B7797106D622D4001838
:1002B000232EA4FC8327C4FDB18393F7F70FBD8BD6
:1002C000A307F4FE8327C4FDA18393F7F70FBD8B2B
:1002D0002307F4FE0347F4FEB73700200A0793878D
:1002E00007A5BA979C430347E4FE91460546BA85A5
:1002F0003E85EF80C00E0347F4FEB73700200A07A3
:10030000938707A5BA979C4385453E85EF80E00813
:1003100001000347F4FEB73700200A07938707A5BB
:10032000BA979C4389453E85EF80E02FAA87F5D395
:100330000347F4FEB73700200A07938707A5BA974B
:100340009C43FC478346F4FE1387818A3697034714
:100350000700B3D7E700C207C1833E85B2502254DD
:1003600045618280797106D622D40018232EA4FC20
:10037000AE87A30DF4FC0347B4FD13060005B7D701
:100380000200938507663A85EF503013232404FE5C
:10039000A30704FE05A00325C4FD3937AA873E87BD
:1003A000832784FEBA972324F4FE8347F4FE85074F
:1003B000A307F4FE0347F4FE8347B4FDE36DF7FCA7
:1003C0008347B4FD032784FEB357F7022324F4FECA
:1003D000832784FEC207C1833E85B2502254456103
:1003E00082805D7186C6A2C48008232EA4FA232CC5
:1003F000B4FA232604FC232804FC232A04FC232C1F
:1004000004FC232E04FC232004FE232204FE2324C8
:1004100004FE8327C4FBB18393F7F70FBD8BA307BB
:10042000F4FE8327C4FB93F7F70F8146014681450D
:100430003E85EF00D0288347F4FE99E785451305F4
:100440000020EF80904419A80347F4FE8547631706
:10045000F700854513050040EF8030430145EF80EC
:1004600010120347F4FEB73700200A07938707A549
:10047000BA979C433E85EF70104E232604FC232838
:1004800004FC232A04FCB7070E00232CF4FC232EC3
:1004900004FC85472300F4FE0347F4FEB737002031
:1004A0000A07938707A5BA979C431307C4FCBA852C
:1004B0003E85EF7050500347F4FEB73700200A071F
:1004C000938707A5BA979C4385453E85EF70D05E1C
:1004D0000347F4FEB73700200A07938707A5BA97AA
:1004E0009C4381453E85EF80A0170347F4FEB73754
:1004F00000200A07938707A5BA979C433E85EF70B3
:10050000905F01000347F4FEB73700200A07938786
:1005100007A5BA979C433E85EF701060AA87FDF34C
:100520000347F4FEB73700200A07938707A5BA9759
:100530009C433E85EF70506101000347F4FEB737DE
:1005400000200A07938707A5BA979C433E85EF7062
:10055000D061AA87FDF38346F4FE832784FB13F75B
:10056000F70F9387818AB6972380E7000100B64092
:10057000264461618280011122CE00102326A4FE50
:100580002324B4FEB1A0B7F700E023A00700B7F71B
:1005900000E0814501468CC7D0C7B7F700E00546AB
:1005A00090C30100B7F700E003A8C7009C470326EB
:1005B000C4FEB2860147C2853A86636BB600C28527
:1005C0003A86E391C5FE3E86B68763E3C700D9BF8E
:1005D000832784FE1386F7FF2324C4FECDF7010092
:1005E000724405618280797106D622D40018232EC8
:1005F000A4FC231704FE231604FE0327C4FDA5470D
:1006000063E1E70C8327C4FD13972700B7F70200C7
:1006100093874785BA979C438287B7370140938772
:1006200007C083D74702C207C1832317F4FE69A816
:10063000B707004083D74702C207C1832317F4FEE0
:1006400061A0B70700409387074083D74702C207DE
:10065000C1832317F4FE8DA8B71700409387078046
:1006600083D74702C207C1832317F4FEB1A8B71787
:100670000040938707C083D74702C207C18323176F
:10068000F4FE99A0B73701409387074083D747020C
:10069000C207C1832317F4FE05A8B757014093870B
:1006A00007C083D74702C207C1832317F4FE29A8D6
:1006B000B757014083D74702C207C1832317F4FE0F
:1006C00021A0231704FE0100B707002013870700AD
:1006D0008327C4FDBA9783C7070013F7F70F930763
:1006E000F00F6317F7008357E4FE2316F4FE35A8D6
:1006F000B7070020138707008327C4FDBA9783C775
:10070000070093F7F70F3E85EF004077AA8791EB3C
:100710008357E4FEB307F040C207C1832316F4FEFB
:1007200029A08357E4FE2316F4FE8317C4FE3E85FA
:10073000B250225445618280011122CE001023263E
:10074000A4FE0327C4FEA54763E1E7088327C4FE90
:1007500013972700B7F702009387C787BA979C4380
:100760008287B7370140938707C023920702B9A851
:10077000B70700402392070291A8B707004093876C
:1007800007402392070299A0B7170040938707807C
:100790002392070225A8B7170040938707C023922A
:1007A00007022DA0B7370140938707402392070225
:1007B00031A8B7570140938707C02392070239A099
:1007C000B75701402392070211A0010001007244B3
:1007D00005618280397106DE22DC80002326A4FCBC
:1007E0002324B4FC2322C4FC232604FE91450325C4
:1007F000C4FCEF208045AA873E871306100DB7D7AB
:1008000002009385C76B3A85EF50204B8327C4FCC9
:100810001397C700832784FC7D8F8327C4FCB2070E
:10082000B307F74093B7170093F7F70F3E87130608
:10083000200DB7D702009385C76B3A85EF50E0478C
:100840008327C4FC1397C700832744FC7D8F83272D
:10085000C4FCB207B307F74093B7170093F7F70F3D
:100860003E871306300DB7D702009385C76B3A85D4
:10087000EF50A0440325C4FCEF208043832784FC71
:1008800093F7F70F93068004014681453E85052DB9
:10089000832744FC93F7F70F9306800401468145B4
:1008A0003E85312D832784FC13F7F70FB70700200F
:1008B000938607008327C4FCB6972380E7000327AD
:1008C000C4FCA54763E1E7088327C4FC139727000E
:1008D000B7F702009387478ABA979C438287B73756
:1008E0000140938707C02324F4FE8DA0B707004082
:1008F0002324F4FEA1A8B7070040938707402324D0
:10090000F4FEA9A0B7170040938707802324F4FEC4
:1009100035A8B7170040938707C02324F4FE3DA0F5
:10092000B7370140938707402324F4FE05A0B7574B
:100930000140938707C02324F4FE09A8B75701405C
:100940002324F4FE21A085472326F4FE8545054592
:10095000EF80A073832784FC13D787008D47631A29
:10096000F7008545B70716001385070CEF80A02414
:10097000E5A8832784FC13D78700C547631AF700CF
:100980008545B707180013850710EF80C022E9A836
:10099000832784FC13D7870093072002631AF7008C
:1009A0008545B7171A0013850780EF80C0206DA812
:1009B000832784FC13D7870093073002631AF7005C
:1009C0008545B7171A00138507C0EF80C01E69A8B8
:1009D000832784FC13D78700930710036317F7005E
:1009E00085450565EF80201D41A0832784FC13D732
:1009F000870093071007631AF7008545B707008043
:100A000013854700EF80201B85A0832784FC13D724
:100A1000870093073008631AF7008545B7071380EE
:100A200013850701EF80201981A0832784FC13D749
:100A3000870093071009631AF7008545B7071580EB
:100A400013850702EF80201705A0832784FC13D7A6
:100A50008700930730096319F7008545B7071580AC
:100A600013850704EF8020158327C4FEA9EB232EEE
:100A700004FC232004FE231204FE9307C4FD3E85DC
:100A8000EF908013231E04FCFD572310F4FE231166
:100A900004FE231F04FC230204FE9307C4FDBE854D
:100AA000032584FEEF80700C93050006032584FE69
:100AB000EF90C0268545032584FEEF90A01301002A
:100AC000F250625421618280797106D622D40018D6
:100AD000232EA4FC232CB4FC8327C4FD93B7070466
:100AE00093F7F70F3E8713067003B7D7020093857D
:100AF000C7713A85EF50601C832784FD93B7470088
:100B000093F7F70F3E8713068003B7D7020093854C
:100B1000C7713A85EF50601AA30704FE0327C4FD8E
:100B2000A167BA9713972700832784FDBA97AA076E
:100B30002324F4FE231604FE35A00357C4FE8327A6
:100B400084FEBA979843B7E739E3938797336306F0
:100B5000F7008547A307F4FE21A88357C4FE910739
:100B60002316F4FE0357C4FE9307F03FE3F7E7FCB8
:100B70008347F4FE3E85B2502254456182807971EC
:100B800006D622D40018232EA4FC232CB4FC8327E1
:100B9000C4FD93B7070493F7F70F3E87130640058C
:100BA000B7D702009385C7713A85EF5000118327AC
:100BB00084FD93B7470093F7F70F3E871306500560
:100BC000B7D702009385C7713A85EF50000FA3078E
:100BD00004FE0327C4FDA167BA9713972700832754
:100BE00084FDBA97AA072324F4FEEF70103313058F
:100BF0004003EF705049032584FEEF7090362A873A
:100C0000B737002023ACE7A413050002EF70B0470C
:100C1000EF705033B737002003A787A591476305CE
:100C2000F7008547A307F4FE8347F4FE3E85B250E4
:100C3000225445618280797106D622D40018232E71
:100C4000A4FC232CB4FC8327C4FD93B7070493F7BB
:100C5000F70F3E871306800BB7D702009385C77145
:100C60003A85EF508005832784FD93B7470093F7BB
:100C7000F70F3E871306900BB7D702009385C77115
:100C80003A85EF5080030327C4FDA167BA971397F5
:100C90002700832784FDBA97AA072324F4FE23178D
:100CA00004FE3DA08357E4FE8A073E87832784FE27
:100CB000BA978356E4FE9843B73700208A06938795
:100CC00007C6B69798C38357E4FE85072317F4FE3B
:100CD0000357E4FE9307F00FE3F6E7FC0100B25080
:100CE000225445618280797106D622D40018232EC1
:100CF000A4FC232CB4FC8327C4FD93B7070493F70B
:100D0000F70F3E871306D00CB7D702009385C77143
:100D10003A85EF40907A832784FD93B7470093F795
:100D2000F70F3E871306E00CB7D702009385C77113
:100D30003A85EF409078A30704FE232404FE231392
:100D400004FE0327C4FDA167BA97139727008327E2
:100D500084FDBA97AA072324F4FE832584FD032586
:100D6000C4FD9D33AA8791C7832584FD0325C4FD57
:100D70003935EF70901AA9A0035764FEB7370020E9
:100D80000A07938707C6BA979C43BE85032584FE4E
:100D9000EF7090242A8723A6E18003A7C1809147A2
:100DA0006306F7008547A307F4FE0DA0835764FE92
:100DB00085072313F4FE832784FE91072324F4FE82
:100DC000035764FE9307F00FE3F8E7FAEF7090170C
:100DD0008347F4FE3E85B250225445618280411122
:100DE00006C622C40008130600409305F00FB7376B
:100DF0000020138507C6EFF0AFC00100B2402244C7
:100E000041018280011122CE00102326A4FEAE876C
:100E1000A305F4FE8347B4FE85CB8327C4FEBD8BB8
:100E20000547B317F70093960701C1828327C4FED5
:100E300013D75700B70700200A079387C700BA9750
:100E40009C43368798CB3DA08327C4FEBD8B0547C6
:100E5000B317F70093960701C1828327C4FE13D707
:100E60005700B70700200A079387C700BA979C432B
:100E70003687D8CB0100724405618280011122CEF1
:100E800000102326A4FE8327C4FE958313F7770062
:100E9000B70700200A079387C700BA979C439C476F
:100EA0000327C4FE7D8B85463397E600F98FB33761
:100EB000F00093F7F70F3E857244056182807971E7
:100EC00006D622D40018232EA4FC232CB4FCB2870F
:100ED0002328D4FCA30BF4FC232004FE232204FECD
:100EE000232404FE8327C4FD958393F7F70F9D8B7E
:100EF000A307F4FE8327C4FD93F7F70FFD8B2307A9
:100F0000F4FE8347F4FE91E785451145EF80E01735
:100F100091A80347F4FE85476317F70085452145EF
:100F2000EF80A01681A00347F4FE89476317F700FE
:100F300085454145EF80601535A00347F4FE8D4798
:100F40006318F700854513050002EF80001419A807
:100F50000347F4FE91476317F70085451305000426
:100F6000EF80A0128347E4FE0547B317F700C207DE
:100F7000C1832310F4FE032784FD85476317F7021E
:100F8000832704FDC207C183A183C207C18389E708
:100F90008D472322F4FE11A8832704FDC207C183D5
:100FA000A183C207C1832322F4FE832704FDC20765
:100FB000C18393F7F70F2324F4FE0347F4FEB7072A
:100FC00000200A079387C700BA979C43130704FEC3
:100FD000BA853E85EF701018032784FD8547631995
:100FE000F7020347F4FEB70700200A079387C700FC
:100FF000BA9794438347E4FE0547B317F700C20747
:10100000C183034774FD3A86BE853685EF7030375D
:101010000100B2502254456182801D7186CEA2CC5F
:1010200080102326A4FA2324B4FA85450325C4FAA4
:10103000EF10B041AA873E871306D006B7D702004B
:101040009385077A3A85EF405047832784FAB33770
:10105000F00093F7F70F3E871306F006B7D70200AC
:101060009385077A3A85EF405045832784FABD83FC
:101070002315F4FE8357A4FE85073E87832784FA51
:10108000B3D7E7022314F4FE0325C4FAEF1050424D
:10109000B7370140938707C02326F4FE0327C4FA1D
:1010A000A54763EDE7088327C4FA13972700B7F72E
:1010B00002009387C78CBA979C438287B737014059
:1010C000938707C02326F4FE95A8B7070040232680
:1010D000F4FEADA0B7070040938707402326F4FE37
:1010E000B1A8B7170040938707802326F4FEB9A064
:1010F000B7170040938707C02326F4FE81A0B717D7
:1011000000402326F4FE1DA8B71700409387074030
:101110002326F4FE25A0B7370140938707402326F6
:10112000F4FE29A8B7570140938707C02326F4FE91
:1011300031A0B75701402326F4FE0100232E04FC02
:10114000232004FE231204FE835784FE2310F4FEA2
:101150008357A4FE231EF4FC231104FE231F04FC6A
:10116000230204FE9307C4FDBE850325C4FEEF8061
:10117000C01F054685450325C4FEEF8030338545F5
:101180000325C4FEEF80D072B7D7020003AE877785
:101190001387877703234700138787778328870080
:1011A000138787770328C70013878777084B138730
:1011B00087774C4B13878777104F13878777544F68
:1011C00013878777185393878777DC53232AC4FBC9
:1011D000232C64FA232E14FB232004FD2322A4FCD9
:1011E0002324B4FC2326C4FC2328D4FC232AE4FCB7
:1011F000232CF4FC8327C4FA93F7F70F8A0713070D
:1012000004FFBA9783A747FC8D453E85EF50B05E3B
:101210008327C4FA8A07130704FFBA9783A747FCFA
:101220003E85EF50905985450325C4FEEF80901C04
:101230000100F640664425618280797106D622D489
:101240000018232EA4FC232CB4FC032784FD8967FB
:1012500093871771B337F70093F7F70F3E8713069D
:101260005003B7D702009385C77F3A85EF40F0243B
:10127000B7370140938707C02326F4FE8327C4FDB8
:10128000C183BD8B2547636FF70613972700B7F718
:1012900002009387478FBA979C438287B7370140F4
:1012A000938707C02326F4FEB1A8B7070040232682
:1012B000F4FE89A8B7070040938707402326F4FE71
:1012C00091A0B7170040938707802326F4FE1DA83E
:1012D000B7170040938707C02326F4FE25A0B73731
:1012E0000140938707402326F4FE29A8B757014001
:1012F000938707C02326F4FE31A0B7570140232669
:10130000F4FE01008327C4FE83D7C7022315F4FE31
:101310000357A4FE832784FD3307F7028967938769
:101320000771B357F7022314F4FE8327C4FDA1838A
:101330008D8B81EB8327C4FE035784FE239AE7023B
:10134000A9A88327C4FDA18313F737008547631934
:10135000F7008327C4FE035784FE239CE70235A8C9
:101360008327C4FDA18313F7370089476319F7006A
:101370008327C4FE035784FE239EE70239A88327F0
:10138000C4FDA18313F737008D476318F700832747
:10139000C4FE035784FE2390E7040100B250225498
:1013A00045618280797122D60018232EA4FC232C5B
:1013B000B4FC232AC4FC231504FE231404FE03A753
:1013C0008181832784FDB357F702C1832314F4FE80
:1013D00003A78181835784FE8507BE86832784FD0A
:1013E000B387F602B357F7022315F4FEB73701406F
:1013F000938707C02326F4FE8327C4FDC183BD8BDA
:101400002547636FF70613972700B7F70200938706
:10141000C791BA979C438287B7370140938707C02B
:101420002326F4FEB1A8B70700402326F4FE89A8BE
:10143000B7070040938707402326F4FE91A0B71713
:101440000040938707802326F4FE1DA8B7170040AD
:10145000938707C02326F4FE25A0B7370140938762
:1014600007402326F4FE29A8B7570140938707C0F9
:101470002326F4FE31A0B75701402326F4FE0100D5
:101480008357A4FEFD171397070141838327C4FEEA
:101490002396E7028327C4FE035784FE2394E702C2
:1014A0000357A4FE832744FD3307F7028967938718
:1014B0000771B357F7022313F4FE8327C4FDA183FA
:1014C0008D8B81EB8327C4FE035764FE239AE702CA
:1014D000A9A88327C4FDA18313F7370085476319A3
:1014E000F7008327C4FE035764FE239CE70235A858
:1014F0008327C4FDA18313F7370089476319F700D9
:101500008327C4FE035764FE239EE70239A883277E
:10151000C4FDA18313F737008D476318F7008327B5
:10152000C4FE035764FE2390E70401003254456172
:1015300082805D7186C6A2C48008232EA4FA232C63
:10154000B4FA232AC4FA8327C4FBC1838D453E85A0
:10155000EF10A06FAA873E871306D00AB7D7020004
:101560009385C77F3A85EF404075032744FB896721
:1015700093871771B337F70093F7F70F3E8713067A
:10158000F00AB7D702009385C77F3A85EF40E07233
:10159000232E04FC232004FE231204FE232604FC35
:1015A000232804FC232A04FC232C04FC231504FE1A
:1015B0008327C4FBC183BD8B3E85EF10606F8327FB
:1015C000C4FB93F7F70F93068031014685453E85AE
:1015D000EFF0FF8E85450545EF70302BB7370140A2
:1015E000938707C02326F4FE8327C4FBC183BD8BEA
:1015F0002547636FF70613972700B7F70200938715
:101600004794BA979C438287B7370140938707C0B6
:101610002326F4FEB1A8B70700402326F4FE89A8CC
:10162000B7070040938707402326F4FE91A0B71721
:101630000040938707802326F4FE1DA8B7170040BB
:10164000938707C02326F4FE25A0B7370140938770
:1016500007402326F4FE29A8B7570140938707C007
:101660002326F4FE31A0B75701402326F4FE0100E3
:101670008327C4FB13D7C7008D47631AF70085453E
:10168000B70716001385070CEF70E05215AA8327E1
:10169000C4FB13D7C700C547631AF7008545B707D2
:1016A000180013850710EF70005119AA8327C4FB97
:1016B00013D7C700C947631AF7008545B707180055
:1016C00013850720EF70204FE5A88327C4FB13D7AD
:1016D000C700CD47631AF7008545B7071800138583
:1016E0000730EF70404DE9A88327C4FB13D7C7002C
:1016F00093072002631AF7008545B7171A00138570
:101700000780EF70404B6DA88327C4FB13D7C70039
:1017100093073002631AF7008545B7171A0013853F
:1017200007C0EF70404969A88327C4FB13D7C700DF
:10173000930710036317F70085450565EF70A04711
:1017400041A08327C4FB13D7C70093071007631A70
:10175000F7008545B707008013854700EF70A04567
:1017600085A08327C4FB13D7C70093073008631AEB
:10177000F7008545B707138013850701EF70A04375
:1017800081A08327C4FB13D7C70093071009631AEE
:10179000F7008545B707158013850702EF70A04154
:1017A00005A08327C4FB13D7C7009307300963192B
:1017B000F7008545B707158013850704EF70A03F34
:1017C00003A78181832784FBB357F702C1832315C5
:1017D000F4FE03A781818357A4FE8507BE86832775
:1017E00084FBB387F602B357F7022314F4FE0357C2
:1017F00084FE832744FB3307F702896793870771C9
:10180000B357F7022313F4FE835784FEFD17C20774
:10181000C1832310F4FE8357A4FE231EF4FC23117E
:1018200004FE231F04FC230204FE9307C4FDBE85AF
:101830000325C4FEEF707033930700072316F4FCF2
:1018400085472317F4FC231804FC835764FE2319EF
:10185000F4FC8947231AF4FC8947231BF4FC231C5E
:1018600004FC231D04FC8327C4FBA1838D8B9DE313
:101870009307C4FCBE850325C4FEEF70F046A14566
:101880000325C4FEEF80C05291450325C4FEEF80BE
:10189000E06645A08327C4FBA18313F73700854783
:1018A0006315F7029307C4FCBE850325C4FEEF70E1
:1018B000705DA1450325C4FEEF80405493050040B0
:1018C0000325C4FEEF804068ADA08327C4FBA1833D
:1018D00013F7370089476314F7029307C4FCBE85EA
:1018E0000325C4FEEF703078A1450325C4FEEF80C8
:1018F000805691450325C4FEEF80606A1DA88327AA
:10190000C4FBA18313F737008D476314F7029307D5
:10191000C4FCBE850325C4FEEF80A012A1450325AB
:10192000C4FEEF800058930500400325C4FEEF80FD
:10193000C06B85450325C4FEEF80403185450325F6
:10194000C4FEEF80202B0100B640264461618280F6
:10195000797106D622D40018232EA4FC8327C4FD57
:10196000B337F00093F7F70F3E8713061004B7E77D
:101970000200938587853A85EF4020348327C4FD94
:101980009C43BD8B0547B317F70093960701C182AF
:101990008327C4FD9C4313D75700B70700200A07CD
:1019A0009387C700BA979C43368798CB8327C4FD9B
:1019B000DC43BD8B0547B317F70093960701C1823F
:1019C0008327C4FDDC4313D75700B70700200A075D
:1019D0009387C700BA979C43368798CB8327C4FD6B
:1019E000DC472326F4FE01008327C4FE1387F7FF9C
:1019F0002326E4FEF5FB8327C4FDDC43BD8B0547AE
:101A0000B317F70093960701C1828327C4FDDC4317
:101A100013D75700B70700200A079387C700BA9764
:101A20009C433687D8CB8327C4FDDC472324F4FEB0
:101A30000100832784FE1387F7FF2324E4FEF5FBD0
:101A40008327C4FD9C43BD8B0547B317F7009396CE
:101A50000701C1828327C4FD9C4313D75700B707F2
:101A600000200A079387C700BA979C433687D8CBD4
:101A70000100B250225445618280797106D622D489
:101A80000018232EA4FC8327C4FDB337F00093F77E
:101A9000F70F3E8713064005B7E702009385878559
:101AA0003A85EF4080218327C4FDDC43BD8B054789
:101AB000B317F70093960701C1828327C4FDDC4367
:101AC00013D75700B70700200A079387C700BA97B4
:101AD0009C433687D8CB8327C4FD9C43BD8B0547E9
:101AE000B317F70093960701C1828327C4FD9C4377
:101AF00013D75700B70700200A079387C700BA9784
:101B00009C433687D8CB8327C4FDDC472326F4FECD
:101B100001008327C4FE1387F7FF2326E4FEF5FBAD
:101B20008327C4FD9C43BD8B0547B317F7009396ED
:101B30000701C1828327C4FD9C4313D75700B70711
:101B400000200A079387C700BA979C43368798CB33
:101B50008327C4FDDC472324F4FE0100832784FE91
:101B60001387F7FF2324E4FEF5FB8327C4FDDC4342
:101B7000BD8B0547B317F70093960701C1828327F2
:101B8000C4FDDC4313D75700B70700200A0793872B
:101B9000C700BA979C43368798CB8327C4FDDC47A0
:101BA0002322F4FE0100832744FE1387F7FF23223C
:101BB000E4FEF5FB0100B250225445618280797148
:101BC00006D622D40018232EA4FCAE87A30DF4FC65
:101BD0008327C4FDB337F00093F7F70F3E87130652
:101BE0009006B7E70200938587853A85EF40E00CC1
:101BF0008327C4FD9C43BD8B0547B317F70093961D
:101C00000701C1828327C4FD9C4313D75700B70740
:101C100000200A079387C700BA979C433687D8CB22
:101C20008347B4FD95CB8327C4FDDC43BD8B0547BB
:101C3000B317F70093960701C1828327C4FDDC43E5
:101C400013D75700B70700200A079387C700BA9732
:101C50009C43368798CB0DA88327C4FDDC43BD8BFE
:101C60000547B317F70093960701C1828327C4FD88
:101C7000DC4313D75700B70700200A079387C70034
:101C8000BA979C433687D8CB8327C4FDDC472326ED
:101C9000F4FE01008327C4FE1387F7FF2326E4FE2A
:101CA000F5FB8327C4FD9C43BD8B0547B317F700A5
:101CB00093960701C1828327C4FD9C4313D7570025
:101CC000B70700200A079387C700BA979C43368757
:101CD00098CB8327C4FDDC472324F4FE010083272F
:101CE00084FE1387F7FF2324E4FEF5FB8327C4FD5E
:101CF0009C43BD8B0547B317F70093960701C1823C
:101D00008327C4FD9C4313D75700B70700200A0759
:101D10009387C700BA979C433687D8CB8327C4FDE7
:101D2000DC43BD8B0547B317F70093960701C182CB
:101D30008327C4FDDC4313D75700B70700200A07E9
:101D40009387C700BA979C43368798CB0100B2505F
:101D5000225445618280797106D622D40018232E40
:101D6000A4FC8327C4FDB337F00093F7F70F3E8739
:101D700013065008B7E70200938587853A85EF3050
:101D8000D073A30704FE8327C4FD9C43BD8B054786
:101D9000B317F70093960701C1828327C4FD9C43C4
:101DA00013D75700B70700200A079387C700BA97D1
:101DB0009C433687D8CB8327C4FDDC43BD8B0547C6
:101DC000B317F70093960701C1828327C4FDDC4354
:101DD00013D75700B70700200A079387C700BA97A1
:101DE0009C43368798CB8327C4FDDC472324F4FE2D
:101DF0000100832784FE1387F7FF2324E4FEF5FB0D
:101E00008327C4FD9C43BD8B0547B317F70093960A
:101E10000701C1828327C4FD9C4313D75700B7072E
:101E200000200A079387C700BA979C43368798CB50
:101E30008327C4FDDC472322F4FE0100832744FEF0
:101E40001387F7FF2322E4FEF5FB8327C4FDDC4361
:101E50003E85EFF0AF82AA8781C78547A307F4FECE
:101E60008327C4FD9C43BD8B0547B317F7009396AA
:101E70000701C1828327C4FD9C4313D75700B707CE
:101E800000200A079387C700BA979C433687D8CBB0
:101E90008327C4FDDC472320F4FE0100832704FED2
:101EA0001387F7FF2320E4FEF5FB8347F4FE3E850E
:101EB000B250225445618280797106D622D400182E
:101EC000232EA4FCAE87A30DF4FC8327C4FDB337F7
:101ED000F00093F7F70F3E871306700AB7E702008A
:101EE000938587853A85EF30505D930700F8A30707
:101EF000F4FE09AA0347B4FD8347F4FEF98F93F774
:101F0000F70F95CB8327C4FDDC43BD8B0547B31783
:101F1000F70093960701C1828327C4FDDC4313D7E2
:101F20005700B70700200A079387C700BA979C435A
:101F3000368798CB0DA88327C4FDDC43BD8B0547AE
:101F4000B317F70093960701C1828327C4FDDC43D2
:101F500013D75700B70700200A079387C700BA971F
:101F60009C433687D8CB8347F4FE8583A307F4FED2
:101F70008327C4FDDC472324F4FE0100832784FE6D
:101F80001387F7FF2324E4FEF5FB8327C4FD9C435E
:101F9000BD8B0547B317F70093960701C1828327CE
:101FA000C4FD9C4313D75700B70700200A07938747
:101FB000C700BA979C43368798CB8327C4FDDC477C
:101FC0002322F4FE0100832744FE1387F7FF232218
:101FD000E4FEF5FB8327C4FD9C43BD8B0547B31787
:101FE000F70093960701C1828327C4FD9C4313D752
:101FF0005700B70700200A079387C700BA979C438A
:102000003687D8CB8347F4FEE39607EE0325C4FD5D
:102010009933AA87FD17B337F00093F7F70F3E8582
:10202000B250225445618280397106DE22DC26DA04
:1020300080002326A4FCAE87A305F4FC8327C4FC00
:10204000B337F00093F7F70F3E871306000CB7E79E
:102050000200938587853A85EF303046A30704FE5A
:10206000A1472307F4FE8327C4FC9C43BD8B05478F
:10207000B317F70093960701C1828327C4FC9C43E2
:1020800013D75700B70700200A079387C700BA97EE
:102090009C433687D8CB8327C4FCDC472324F4FE3B
:1020A0000100832784FE1387F7FF2324E4FEF5FB5A
:1020B0008327C4FCDC43BD8B0547B317F700939619
:1020C0000701C1828327C4FCDC4313D75700B7073D
:1020D00000200A079387C700BA979C43368798CB9E
:1020E0007DA88327C4FC9C43BD8B0547B317F7002D
:1020F00093960701C1828327C4FC9C4313D75700E2
:10210000B70700200A079387C700BA979C43368712
:10211000D8CB8327C4FCDC472322F4FE01008327AD
:1021200044FE1387F7FF2322E4FEF5FB8327C4FC5C
:102130009C43BD8B0547B317F70093960701C182F7
:102140008327C4FC9C4313D75700B70700200A0716
:102150009387C700BA979C43368798CB8327C4FCE4
:10216000DC472320F4FE0100832704FE1387F7FFDA
:102170002320E4FEF5FB8347F4FE86079394870152
:10218000E1848327C4FCDC433E85EFE03FCFAA8790
:10219000E207E187C58FE207E187A307F4FE8347E3
:1021A000E4FE1387F7FF2307E4FE85FF8327C4FCC3
:1021B0009C43BD8B0547B317F70093960701C18277
:1021C0008327C4FC9C4313D75700B70700200A0796
:1021D0009387C700BA979C433687D8CB8327C4FC24
:1021E000DC47232EF4FC01008327C4FD1387F7FF8F
:1021F000232EE4FCF5FB8347B4FCBE850325C4FC19
:10220000EFF0FF9B8347F4FE3E85F2506254D254B8
:1022100021618280011106CE22CC00102326A4FE6B
:10222000AE873287A305F4FEBA872305F4FE832721
:10223000C4FEB337F00093F7F70F3E871306601321
:10224000B7E70200938587853A85EF30102703258D
:10225000C4FEEFF0EFEF8327C4FE83C78700860735
:1022600093F7F70FBE850325C4FEB9318347B4FE4B
:10227000BE850325C4FE89318347A4FEBE850325A0
:10228000C4FE1D390325C4FEEFF02FFF0100F2400C
:10229000624405618280797106D622D40018232E0B
:1022A000A4FCAE87A30DF4FC8327C4FDB337F00074
:1022B00093F7F70F3E871306401EB7E7020093859A
:1022C00087853A85EF30701FA30704FE0325C4FD00
:1022D000EFF00FE88327C4FD83C78700860793F7D5
:1022E000F70FBE850325C4FDC13E8347B4FDBE85FF
:1022F0000325C4FDD1360325C4FDEFF06FE5832728
:10230000C4FD83C787008607E207E18793E71700CC
:10231000E207E18793F7F70FBE850325C4FD693E09
:1023200085450325C4FD0933AA87A307F4FE0325C9
:10233000C4FDEFF08FF48347F4FE3E85B250225483
:1023400045618280011106CE22CC26CA00102326C8
:10235000A4FEAE872322C4FE2320D4FEA305F4FEF0
:102360008327C4FEB337F00093F7F70F3E871306B9
:10237000C01FB7E70200938587853A85EF30F013D9
:10238000832744FEB337F00093F7F70F3E87130619
:10239000D01FB7E70200938587853A85EF30F011AB
:1023A0000325C4FEEFF0CFDA8327C4FE83C787007E
:1023B000860793F7F70FBE850325C4FEF53C8347D8
:1023C000B4FEBE850325C4FEC53C0325C4FEEFF064
:1023D0002FD88327C4FE83C787008607E207E187DB
:1023E00093E71700E207E18793F7F70FBE85032510
:1023F000C4FED9342DA0832704FE93B7170093F7AA
:10240000F70F3E87832444FE938714002322F4FEB3
:10241000BA850325C4FE0939AA872380F4008327DF
:1024200004FE1387F7FF2320E4FEF1F70325C4FE23
:10243000EFF0AFE40100F2406244D24405618280D3
:10244000797106D622D40018232EA4FCAE87A30DE2
:10245000F4FC8327C4FDB337F00093F7F70F3E87F2
:102460001306D029B7E70200938587853A85EF30B8
:10247000D004A30704FE0325C4FDEFF06FCD83272E
:10248000C4FD83C78700860793F7F70FBE85032532
:10249000C4FDEFF07FA28347B4FDBE850325C4FDD4
:1024A000EFF09FA10325C4FDEFF02FDD0325C4FD50
:1024B000EFF00FCA8327C4FD83C787008607E207B2
:1024C000E18793E71700E207E18793F7F70FBE85EF
:1024D0000325C4FDEFF05F9E85450325C4FDA936A5
:1024E000AA87A307F4FE0325C4FDEFF00FD98347A5
:1024F000F4FE3E85B250225445618280797106D641
:1025000022D400182326A4FEAE872322C4FE232053
:10251000D4FE232EE4FCA305F4FE8327C4FEB337C8
:10252000F00093F7F70F3E871306802BB7E7020002
:10253000938587853A85EF304078032704FE83270B
:10254000C4FDB307F740B337F00093F7F70F3E87AA
:102550001306902BB7E70200938587853A85EF3005
:10256000C0758327C4FE032704FE98C38327C4FED7
:102570000327C4FDD8C38327C4FE0347B4FE2384C6
:10258000E7008327C4FE032744FED8C7C14605469B
:102590008545032504FEEFE09F92D146054685451B
:1025A0000325C4FDEFE0BF910100B2502254456104
:1025B0008280011122CE00102326A4FEAE87A3053F
:1025C000F4FEB7F702000327C4FE0A079387C796F5
:1025D000BA979C433E878347B4FEC207C183231644
:1025E000F7000100B7F702000327C4FE0A0793872C
:1025F000C796BA979C4383D78700C207C18393F7D6
:102600000708EDF3B7F702000327C4FE0A07938714
:10261000C796BA979C4383D7C700010072440561EF
:102620008280011122CE00102326A4FEAE8723153E
:10263000F4FE8357A4FEA183C207C18393F6F70F6C
:10264000B7F702000327C4FE0A079387C796BA9715
:102650009C433E8793970601C1832316F700010030
:10266000B7F702000327C4FE0A079387C796BA97F5
:102670009C4383D78700C207C18393F70708EDF314
:102680008357A4FE93F6F70FB7F702000327C4FEA3
:102690000A079387C796BA979C433E87939706018C
:1026A000C1832316F7000100B7F702000327C4FE19
:1026B0000A079387C796BA979C4383D78700C207B8
:1026C000C18393F70708EDF301007244056182802E
:1026D000011122CE00102326A4FEAE873287A30567
:1026E000F4FEBA872305F4FEB7F702000327C4FE01
:1026F0000A079387C796BA979C433E878347B4FEE1
:10270000C207C1832316F7000100B7F702000327B1
:10271000C4FE0A079387C796BA979C4383D787005E
:10272000C207C18393F70708EDF3B7F70200032749
:10273000C4FE0A079387C796BA979C4383D7C700FE
:10274000B7F702000327C4FE0A079387C796BA9714
:102750009C433E878347A4FEC207C1832316F7002C
:102760000100B7F702000327C4FE0A079387C79644
:10277000BA979C4383D78700C207C18393F70708A2
:10278000EDF3B7F702000327C4FE0A079387C79645
:10279000BA979C4383D7C7000100724405618280C9
:1027A000011122CE00102326A4FEAE872322C4FEF0
:1027B0002320D4FEA305F4FEB7F702000327C4FECE
:1027C0000A079387C796BA979C433E878347B4FE10
:1027D000C207C1832316F7000100B7F702000327E1
:1027E000C4FE0A079387C796BA979C4383D787008E
:1027F000C207C18393F70708EDF389A8832744FE36
:10280000138717002322E4FE83C60700B7F70200F0
:102810000327C4FE0A079387C796BA979C433E874F
:1028200093970601C1832316F7000100B7F7020052
:102830000327C4FE0A079387C796BA979C4383D79A
:102840008700C207C18393F70708EDF3832704FECF
:102850001387F7FF2320E4FED5F3010072440561DE
:102860008280011122CE00102326A4FEAE872322EF
:10287000C4FE2320D4FEA305F4FEB7F7020003270D
:10288000C4FE0A079387C796BA979C433E8783473F
:10289000B4FEC207C1832316F7000100B7F7020098
:1028A0000327C4FE0A079387C796BA979C4383D72A
:1028B0008700C207C18393F70708EDF3B7F702005B
:1028C0000327C4FE0A079387C796BA979C4383D70A
:1028D000C700ADA0B7F702000327C4FE0A0793871D
:1028E000C796BA979C43239607000100B7F70200EA
:1028F0000327C4FE0A079387C796BA979C4383D7DA
:102900008700C207C18393F70708EDF3B7F702000A
:102910000327C4FE0A079387C796BA979C4383D7B9
:10292000C70093960701C182832744FE13871700CF
:102930002322E4FE13F7F60F2380E700832704FE2B
:102940001387F7FF2320E4FED1F7010072440561ED
:1029500082805D7186C6A2C480082326A4FC23243D
:10296000B4FC2322C4FC2320D4FC232EE4FA232C21
:10297000F4FA232A04FBB7F702000327C4FC0A0772
:102980009387C796BA979C433E85EF609001854533
:102990000545EF60806F032704FC93073012631333
:1029A000F702032784FB93074012631DF7000327F8
:1029B000C4FB930750126317F70085450545EF6088
:1029C000801F1DA8032704FC89679387A71463153C
:1029D000F702032784FB89679387B714631EF70008
:1029E0000327C4FB89679387C7146317F7008545DE
:1029F00037152000EF60201C8327C4FC91E7854534
:102A00000565EF60806825A00327C4FC8547631730
:102A1000F70085451165EF60A06B11A80327C4FC82
:102A200089476316F70085452165EF60606A832753
:102A300004FC93F7F70F93068031054685453E85E4
:102A4000EFE0EFC78327C4FB93F7F70F93068031BE
:102A5000054685453E85EFE08FC6032784FBC167A9
:102A6000F917630DF700832784FB93F7F70F93069D
:102A70008034054681453E85EFE06FC4032744FB63
:102A80009307F00F630DF700832744FB93F7F70FCD
:102A900093060031014685453E85EFE04FC2232E67
:102AA00004FC232004FE232204FE232404FE231618
:102AB00004FE231E04FC93074010231FF4FC231084
:102AC00004FE032784FC85476305F702832784FC03
:102AD00081CF032784FC89476303F702032784FC23
:102AE0008D476304F7020DA8231104FE231204FE90
:102AF00025A0231104FE85472312F4FE31A889473F
:102B00002311F4FE231204FE01A889472311F4FEC9
:102B100085472312F4FE0100231704FE03A78181D9
:102B2000832744FCB357F7022317F4FE03A78181E0
:102B3000832744FCB377F70291E78357E4FEFD1740
:102B40002317F4FE0357E4FE9307F00763F7E7004B
:102B5000930780032317F4FE51A80357E4FE93075D
:102B6000F00363F7E700930700032317F4FEBDA803
:102B70000357E4FEFD4763F7E7009307800223173E
:102B8000F4FEADA00357E4FEBD4763F7E7009307EB
:102B900000022317F4FE99A80357E4FE9D4763F64D
:102BA000E700E1472317F4FE91A00357E4FE8D47A9
:102BB00063F6E700C1472317F4FE0DA80357E4FEB0
:102BC000854763F6E700A1472317F4FE05A0835766
:102BD000E4FE81C7231704FE11A813067021B7E78E
:102BE00002009385878B0145EF30200D8357E4FE6B
:102BF0002314F4FE930700202313F4FE231504FE90
:102C00009D472316F4FEB7F702000327C4FC0A070A
:102C10009387C796BA979C433E879307C4FDBE85AA
:102C20003A85EF60605FB7F702000327C4FC0A072C
:102C30009387C796BA979C4385453E85EF60406D64
:102C40000100B640264461618280797122D6001865
:102C5000232EA4FC232CB4FC8547A307F4FE0327F2
:102C6000C4FD0A07938701E1BA979C4399EB0327B8
:102C7000C4FD0A07938701E1BA97032784FD98C32F
:102C800015A00327C4FD0A07938701E1BA979C4367
:102C9000032784FD6316F7008547A307F4FE19A0F8
:102CA000A30704FE8347F4FE3E85325445618280CB
:102CB000011106CE22CC00102326A4FE8327C4FED9
:102CC00081EB8545856713850780EF60003C6DA823
:102CD0000327C4FE85476317F70085450545EF6068
:102CE000203F5DA00327C4FE89476317F700854591
:102CF0000945EF60E03D49A80327C4FE8D476317EF
:102D0000F70085451145EF60A03CBDA80327C4FE30
:102D100091476317F70085452145EF60603BADA003
:102D20000327C4FE95476317F70085454145EF60CB
:102D3000203A99A80327C4FE99476318F7008545F0
:102D400013050002EF60C03881A00327C4FE9D4731
:102D50006317F70085450965EF60203335A0032729
:102D6000C4FEA1476318F700854537050800EF60EA
:102D7000C03119A80327C4FEA5476317F70085458E
:102D800037051000EF6060300100F24062440561D9
:102D90008280011122CE00102326A4FEAE87A30557
:102DA000F4FE0100B7F702000327C4FE0A07938769
:102DB0008797BA979C4383D70700C207C18393F7CD
:102DC0000708EDD3B7F702000327C4FE0A0793876D
:102DD0008797BA979C433E878347B4FEC207C18357
:102DE0002312F7000100724405618280011106CEB2
:102DF00022CC00102326A4FE2324B4FE2322C4FEEA
:102E0000832784FEB337F00093F7F70F3E8713064E
:102E10001004B7E70200938547913A85EF20F069E7
:102E200029A8832784FE138717002324E4FE83C781
:102E30000700BE850325C4FEA93F832744FE1387F0
:102E4000F7FF2322E4FEF1FF0100F2406244056136
:102E50008280011106CE22CC00102326A4FE23245A
:102E6000B4FE832784FEB337F00093F7F70F3E8755
:102E700013060005B7E70200938547913A85EF20D6
:102E8000D06339A8832784FE138717002324E4FE28
:102E90008387070093F7F70FBE850325C4FED53D52
:102EA000832784FE83870700F1FF0100F24062441C
:102EB00005618280011106CE22CC00102326A4FEDB
:102EC000AE87A305F4FEB7F702000327C4FE0A0786
:102ED00093878797BA979C433E878347B4FE3E8685
:102EE000930550523A85EF70C04813878188832735
:102EF000C4FEBA9783C7070081453E85EF40A00F07
:102F00008347B4FE81CF138781888327C4FEBA9795
:102F100083C707003E85EF40400A19A813878188C0
:102F20008327C4FEBA9783C707003E85EF40C00AD7
:102F30000100F240624405618280011122CE00103E
:102F40002326A4FE2324B4FEB7F702000327C4FE01
:102F50000A0793878797BA979C4383D70700C207CE
:102F6000C18393F7070295C7B7F702000327C4FE92
:102F70000A0793878797BA979C4383D74700C2076E
:102F8000C18313F7F70F832784FE2380E70085476B
:102F900011A081473E85724405618280797106D611
:102FA00022D40018232EA4FC232CB4FC232AC4FC16
:102FB0002328D4FC032744FD832704FD3D8F83276A
:102FC000C4FDB207F98F93B7170093F7F70F3E8749
:102FD0001306A00AB7E70200938547913A85EF20D0
:102FE000D04D832744FD13D78700832704FDA18399
:102FF000B307F74093B7170093F7F70F3E87130611
:10300000B00AB7E70200938547913A85EF20F04A6E
:10301000832744FD93F7F70FE146014685453E853A
:10302000EFD0FFE9832704FD93F7F70F93068004A1
:10303000014681453E85EFD09FE885450545EF6017
:10304000C004032744FDC167FD17F98F0D671307FF
:1030500007386385E7200D67130707386369F704AE
:103060000567130757166381E71605671307571699
:10307000636FF7001307F022638AE70C13076030D1
:103080006381E710130760126388E70855A6096794
:1030900013078736638AE7160D67130707126385E0
:1030A000E71809671307A7146380E71451A615678B
:1030B0001307A738638CE72615671307A7386362E1
:1030C000F702116713078738638EE71E156713072A
:1030D00087126383E722116713074712638AE71A8F
:1030E00081AE19671307C7386386E72A1967130784
:1030F000C7386368F7001967130767106382E7260C
:1031000005AE1D671307E7106380E72C1D671307E3
:10311000E7386385E72E29AEB7070140D44FB707DC
:103120000140370700FC7D17758FD8CFB7070140E6
:10313000D843B70701406D9BD8C3B7070140D843B8
:10314000B707014013674700D8C3DDA4B7070140A4
:10315000D44FB7070140370700FC7D17758FD8CFD4
:10316000B7070140D44FB707014037070004558F18
:10317000D8CFB7070140D843B70701406D9BD8C3EC
:1031800045ACB7070140D44FB7070140370700FCF3
:103190007D17758FD8CFB7070140D44FB7070140CF
:1031A00037070004558FD8CFB7070140D843B7077A
:1031B00001406D9BD8C3B7070140D843B707014012
:1031C00013674700D8C3ADA4B7070140D843B7077A
:1031D00001405D9BD8C3B7070140D843B707014002
:1031E00013678700D8C3A9A4B7070140D843B7071E
:1031F00001401D9BD8C3B7070140D843B707014022
:1032000013678700D8C32DA4B7070140D843B70779
:1032100001401D9BD8C3B7070140D843B707014001
:1032200013678701D8C329A4B7070140D44FB70754
:1032300001403707FDFF7D17758FD8CFB7070140D5
:10324000D44F832744FDA18313970701B7070300D9
:103250007D8FB7070140558FD8CFD9AAB707014056
:10326000D44FB70701403707FDFF7D17758FD8CFC3
:10327000B7070140D44F832744FDA183139707016B
:10328000B70703007D8FB7070140558FD8CF4DA2F8
:10329000B7070140D44FB70701403707F4FF7D1748
:1032A000758FD8CFB7070140D44F832744FDA18342
:1032B00013972701B7070C007D8FB7070140558F83
:1032C000D8CFBDA2B7070140D44FB7070140370799
:1032D000F4FF7D17758FD8CFB7070140D44F8327F0
:1032E00044FDA18313972701B7070C007D8FB70713
:1032F0000140558FD8CF2DAAB7070140D44FB7074B
:1033000001403707D0FF7D17758FD8CFB707014031
:10331000D44F832744FDA18313974701B70730009B
:103320007D8FB7070140558FD8CF19A2B70701404D
:10333000D44FB70701403707D0FF7D17758FD8CF1F
:10334000B7070140D44F832744FDA183139747015A
:10335000B70730007D8FB7070140558FD8CFC9A878
:10336000B7070140D44FB7070140370740FF7D172B
:10337000758FD8CFB7070140D44F832744FDA18371
:1033800013976701B707C0007D8FB7070140558FBE
:10339000D8CF79A8B7070140D44FB7070140370706
:1033A00040FF7D17758FD8CFB7070140D44F8327D3
:1033B00044FDA18313976701B707C0007D8FB7074E
:1033C0000140558FD8CFADA0B7070140D44FB70704
:1033D0000140370700FD7D17758FD8CFB707014033
:1033E000D44F832744FDA18313978701B7070003B8
:1033F0007D8FB7070140558FD8CF1DA8B707014073
:10340000D44FB7070140370700FD7D17758FD8CF20
:10341000B7070140D44F832744FDA1831397870149
:10342000B70700037D8FB7070140558FD8CF010044
:103430008327C4FD91E785451165EF50104569A8C4
:103440000327C4FD85476318F7008545370502004B
:10345000EF50104851A00327C4FD89476318F700B7
:10346000854537050400EF50B046BDA00327C4FDD5
:103470008D476318F700854537050800EF50504524
:10348000A1A80327C4FD91476318F70085453705B8
:103490001000EF50F04389A00327C4FD954763183F
:1034A000F700854513050004EF50904235A003272F
:1034B000C4FD99476318F700854513050008EF50D0
:1034C000304119A80327C4FD9D476317F7008545C0
:1034D00013050010EF50D03F232004FE232204FEEA
:1034E000232404FE232604FE832784FD2320F4FEE8
:1034F000231204FE231304FE231404FE231604FEE9
:10350000B1472315F4FEB7F702000327C4FD0A07ED
:1035100093878797BA979C433E87930704FEBE859F
:103520003A85EF60D03BB7F702000327C4FD0A07D6
:1035300093878797BA979C4385453E85EF60705D7A
:103540000100B250225445618280797106D622D49E
:103550000018AA87232CB4FCA30FF4FC230704FE55
:10356000A30604FEA945032584FDEF70C25523245C
:10357000A4FE832784FE81CF032784FE832784FD56
:10358000B307F74093F7F70F8507A306F4FEA307E9
:1035900004FE91A08347F4FE032784FDBA970387B6
:1035A00007009307C0026317F7008347E4FE85070F
:1035B0002307F4FE0347E4FE8347F4FD6318F70096
:1035C0008347F4FE85072306F4FE21A88347F4FE13
:1035D0008507A307F4FE0347F4FE8347D4FEE36B9D
:1035E000F7FA8347C4FE3E85B2502254456182807B
:1035F000397106DE22DC80002326A4FC8325C4FC6E
:103600000545A137AA87A307F4FE8347F4FEFD17FB
:10361000A307F4FE0347F4FE9307C4FD3A8683250F
:10362000C4FC3E85EF70A24F8347F4FE130704FFEE
:10363000BA97238607FE9307C4FD3E85EF30A00CA2
:103640002324A4FE832784FE3E85F2506254216128
:103650008280397106DE22DC80002326A4FC8325CB
:10366000C4FC0545DD35AA87A307F4FE8347F4FEB5
:10367000FD17A307F4FE0347F4FE930784FD3A8683
:103680008325C4FC3E85EF7082498347F4FE13070F
:1036900004FFBA97238407FE930784FD3E85EF302D
:1036A0000049AA872E883E85C285EF602246D3074F
:1036B000A5202724F4FE872784FE5385F720F250A7
:1036C000625421618280397106DE22DC800023266B
:1036D000A4FC8325C4FC05458D3DAA87A307F4FE01
:1036E0008347F4FEFD17A307F4FE0347F4FE930798
:1036F00004FD3A868325C4FC3E85EF704242834731
:10370000F4FE130704FFBA97238007FE930704FD16
:103710003E85EF30C0412320A4FE2322B4FE832740
:1037200004FE032844FE3E85C285F25062542161A6
:103730008280797122D60018232EA4FC8327C4FD31
:1037400083C74700A10713F7F70F8327C4FD238220
:10375000E7008327C4FD03C74700DD4763FEE71288
:103760008327C4FD83C74700A11713F7F70F8327EB
:10377000C4FD2382E7008327C4FD83C73700850784
:1037800013F7F70F8327C4FDA381E7008327C4FD48
:1037900003C7270089476319F704F147A307F4FE1D
:1037A0008327C4FD83D707008D8BC207C18381EFB8
:1037B0008327C4FD03D7070093074006B377F702BA
:1037C000C207C18381EF8327C4FD03D70700930796
:1037D0000019B377F702C207C183A9EB8347F4FE50
:1037E0008507A307F4FE99A0FD47A307F4FE8327EE
:1037F000C4FD03C7270091476307F7028327C4FD71
:1038000003C7270099476300F7028327C4FD03C756
:103810002700A5476309F7008327C4FD03C72700D6
:10382000AD476315F700F947A307F4FE8327C4FDEE
:1038300083C737000347F4FE6370F7068327C4FD90
:103840000547A381E7008327C4FD83C727008507B9
:1038500013F7F70F8327C4FD2381E7008327C4FDF7
:1038600003C72700B14763F9E7028327C4FD83C775
:103870002700D11713F7F70F8327C4FD2381E70033
:103880008327C4FD83D7070085071397070141836A
:103890008327C4FD2390E7000100325445618280F4
:1038A0001D7186CEA2CCCACACEC880102326A4FA27
:1038B0002324B4FA8327C4FA2324F4FEA30704FEC6
:1038C000832584FE09455131AA873E87832784FEDC
:1038D000BA9783870700A303F4FE832784FA23841F
:1038E0000700034774FE930710046314F7348547F9
:1038F000A307F4FE832784FA05472384E700832582
:1039000084FE11459931AA873E87832784FEBA97A2
:1039100003870700832784FA2384E702832584FE34
:1039200019452531AA873E87832784FEBA970387E6
:103930000700832784FAA384E702832584FE0D45CC
:103940002931AA873E87832784FEBA973E85A53B07
:10395000232CA4FC232EB4FC832584FE1545F536C8
:10396000AA873E87832784FEBA973E85A93B2328F2
:10397000A4FC232AB4FC032584FD8325C4FDEF5059
:10398000B2652A8793074006B347F70213970701EA
:103990004183832784FA2395E700832784FA83D71A
:1039A000A7003E8793074006B307F7023E85EF5016
:1039B000127AAA872E883E86C286032584FD832537
:1039C000C4FDEF50E230AA872E883E85C285EF60A5
:1039D000E213D307A5202726F4FC8727C4FCD3973E
:1039E00007C0139707014183832784FA2396E700D2
:1039F000832784FA83D7C700D3F707D00727C4FCEF
:103A00005377F708B7E7020087A787A1D377F710A6
:103A10002724F4FC872784FCD39707C0139707015A
:103A20004183832784FA2397E700032504FD832538
:103A300044FDEF50725A2A8793074006B347F702B6
:103A4000139707014183832784FA2398E70083278C
:103A500084FA83D707013E8793074006B307F7022E
:103A60003E85EF50D26EAA872E883E86C2860325F9
:103A700004FD832544FDEF50A225AA872E883E85AC
:103A8000C285EF60A208D307A5202722F4FC872770
:103A900044FCD39707C0139707014183832784FA17
:103AA0002399E700832784FA83D72701D3F707D028
:103AB000072744FC5377F708B7E7020087A787A1D9
:103AC000D377F7102720F4FC872704FCD39707C08F
:103AD000139707014183832784FA239AE7008327FA
:103AE00084FA83D7A7003E85EF5072662A89AE8993
:103AF000832784FA83D7C7003E85EF50526CB7E71F
:103B0000020003A607A283A647A2EF402218AA87B5
:103B10002E883E86C2864A85CE85EF304276AA87B9
:103B20002E883E89C289832784FA83D7E7003E85A1
:103B3000EF50F268B7E7020003A687A283A6C7A2E8
:103B4000EF40C214AA872E883E86C2864A85CE855B
:103B5000EF30E272AA872E88032784FA1CCF232E27
:103B60000701832784FA83D707013E85EF50325E31
:103B70002A89AE89832784FA83D727013E85EF50AF
:103B80001264B7E7020003A607A283A647A2EF408C
:103B9000E20FAA872E883E86C2864A85CE85EF3000
:103BA000026EAA872E883E89C289832784FA83D72A
:103BB00047013E85EF50B260B7E7020003A687A237
:103BC00083A6C7A2EF40820CAA872E883E86C286B3
:103BD0004A85CE85EF30A26AAA872E88032784FA09
:103BE0001CD323220703832584FE1D45EFF0FF9598
:103BF000AA873E87832784FEBA973E85EFF07FA58C
:103C0000272EA4FA832784FA8727C4FBDCF78325B1
:103C100084FE2145EFF07F93AA873E87832784FEA9
:103C2000BA973E85EFF0FFA2D307A520832784FA39
:103C30009CFB832784FE9D0783870700938707FDEE
:103C400093F7F70F3E87BA878A07BA97860713F765
:103C5000F70F832784FEA1078387070093F7F70FE9
:103C6000BA9793F7F70F938707FD13F7F70F83279B
:103C700084FA2382E700832784FEA5078387070051
:103C8000938707FD93F7F70F3E87BA878A07BA979E
:103C9000860713F7F70F832784FEA907838707009A
:103CA00093F7F70FBA9793F7F70F938707FD13F77B
:103CB000F70F832784FAA382E700832784FEAD07EA
:103CC00083870700938707FD93F7F70F3E87BA872F
:103CD0008A07BA97860713F7F70F832784FEB10781
:103CE0008387070093F7F70FBA9793F7F70F938738
:103CF00007FD13F7F70F832784FA2383E700832553
:103D000084FE2545EFF07F84AA87A30DF4FA83474C
:103D1000B4FB032784FEBA9783870700938707FDC8
:103D200093F7F70F3E87BA878A07BA97860713F784
:103D3000F70F8347B4FB8507832684FEB6978387F6
:103D4000070093F7F70FBA9793F7F70F938707FDDD
:103D500013F7F70F832784FAA381E7008347B4FBA7
:103D60008907032784FEBA9783870700938707FD97
:103D700093F7F70F3E87BA878A07BA97860713F734
:103D8000F70F8347B4FB8D07832684FEB69783879E
:103D9000070093F7F70FBA9793F7F70F938707FD8D
:103DA00013F7F70F832784FA2381E7008347B4FBD7
:103DB0009107032784FEBA9783870700938707FD3F
:103DC000C207C1833E87BA878A07BA9786071397C7
:103DD000070141838347B4FB9507832684FEB6978A
:103DE00083870700C207C183BA97C207C18393873D
:103DF000077A139707014183832784FA2390E7000A
:103E0000832784FA3E85EFF0DF928347F4FE3E85F8
:103E1000F64066445649C64925618280397106DEFE
:103E200022DC22F680002326A4FC2324B4FC832772
:103E3000C4FC232CF4FCA30F04FC832584FD09455A
:103E4000EFF0AFF0AA873E87832784FDBA97838778
:103E50000700A30BF4FC034774FD9307C002630E35
:103E6000F708832584FD1D45EFF02FEEAA873E87D6
:103E7000832784FDBA973E85EFF08FF7AA8713F763
:103E8000F70F832784FC238AE702832584FD2145DD
:103E9000EFF0AFEBAA873E87832784FDBA973E8574
:103EA000EFF02FFBD307A520832784FCDCFF8325BD
:103EB00084FD2545EFF06FE9AA873E87832784FDBF
:103EC000BA973E85EFF0EFF85304A520832584FDD3
:103ED0002D45EFF08FE7AA873E87832784FDBA97A9
:103EE0003E85EFF00FF7D307A520D377F4008327A3
:103EF00084FC9CFF8547A30FF4FC8347F4FD3E85BB
:103F0000F2506254327421618280011106CE22CCBB
:103F10000010A30704FE03A7018A2320E4FE938771
:103F2000018A83C747002302F4FEA30304FE23078C
:103F300004FE03A7018B85476314F70A094723A8EA
:103F4000E18A9305A002138541F9EF60D237AA8771
:103F500013871700930704FE89070946BA853E8533
:103F6000EF60F23B930704FE3E85EF201063AA87C3
:103F7000A303F4FE938741F983C717002307F4FED8
:103F800089472324F4FE15A0138741F9832784FE73
:103F9000BA9703C707008347E4FEB98F2307F4FEEF
:103FA000832784FE85072324F4FE138741F98327A2
:103FB00084FEBA9703C707009307A002E316F7FC35
:103FC0000347E4FE834774FE6306F7008547A307B3
:103FD000F4FEC9A0938581E3138541F9EFF05F8C6E
:103FE00023A8018A03A7C18A85476313F70A0947F3
:103FF00023A6E18A9305A002138541F1EF60B22C5C
:10400000AA8713871700930704FE89070946BA8514
:104010003E85EF60D230930704FE3E85EF20F057D7
:10402000AA87A303F4FE938741F183C717002307F0
:10403000F4FE89472324F4FE15A0138741F183275A
:1040400084FEBA9703C707008347E4FEB98F2307AE
:10405000F4FE832784FE85072324F4FE138741F1B1
:10406000832784FEBA9703C707009307A002E316CD
:10407000F7FC0347E4FE834774FE6306F7008547B9
:10408000A307F4FE01A8938581E3138541F17933F9
:1040900023A6018A8347F4FE3E85F240624405610F
:1040A0008280011106CE22CC001083C7B18A638CB6
:1040B000070E09A8930734FE0546BE85138581E7E0
:1040C000EF10507C930734FEBE851D45EFE0FFE600
:1040D000AA87EDF3034734FEA9476316F70C994707
:1040E0002322F4FE130744FE930784FE85463A8696
:1040F000BE85138581E7EF204029930784FE13874F
:1041000037000D46B7E70200938507973A85EF60C1
:10411000521EAA879DEB03A7018B8947630EF70602
:10412000054723A8E18A138581E7EF105071AA871C
:104130002322F4FE930744FE81463E86938541F98F
:10414000138581E7EF20602481A8930784FE1387FD
:1041500037000D46B7E70200938547973A85EF6031
:104160005219AA8795EB03A7C18A89476306F7020C
:10417000054723A6E18A138581E7EF10506CAA87D3
:104180002322F4FE930744FE81463E86938541F147
:10419000138581E7EF20601F138581E7EF10105A28
:1041A00005472385E18A0100F2406244056182806F
:1041B000717106D722D50019B7E7020003A88797C7
:1041C000138787974843138787970C4713878797E9
:1041D000504713878797144B13878797584B9387BC
:1041E00087979C4F232A04FD232CA4FC232EB4FC88
:1041F0002320C4FE2322D4FE2324E4FE2326F4FE3F
:10420000B7E7020083A647991387479958432324A9
:10421000D4FC2326E4FC9387479903D7870023180F
:10422000E4FC83C7A7002309F4FCB7E7020083A6D8
:10423000079A1387079A5843232ED4FA2320E4FCC5
:104240009387079A03D787002312E4FC83C7A7004C
:104250002303F4FCB7E7020083A6C79A1387C79A23
:1042600058432328D4FA232AE4FA9387C79A03D71A
:104270008700231CE4FA83C7A700230DF4FAB7E7ED
:10428000020083A6879B1387879B58432322D4FA77
:104290002324E4FA9387879B03D787002316E4FA45
:1042A00083C7A7002307F4FAB7E7020083A6479C59
:1042B0001387479C5843232CD4F8232EE4F8938784
:1042C000479C03D787002310E4FA83C7A700230184
:1042D000F4FAB7E7020083A6079D1387079D5843AA
:1042E0002326D4F82328E4F89387079D03D7870073
:1042F000231AE4F883C7A700230BF4F8B7E70200FA
:1043000083A6C79D1387C79D58432320D4F8232233
:10431000E4F89387C79D03D787002314E4F883C785
:10432000A7002305F4F8B7E7020083A6879E13874A
:10433000879E5843232AD4F6232CE4F69387879E3E
:1043400003D78700231EE4F683C7A700230FF4F6E4
:10435000B7E7020083A6479F1387479F584323244C
:10436000D4F62326E4F69387479F03D787002318C4
:10437000E4F683C7A7002309F4F6B7E7020083A693
:1043800007A0138707A05843232ED4F42320E4F674
:10439000938707A003D787002312E4F683C7A700FB
:1043A0002303F4F6B7E7020083A6C7A01387C7A0CC
:1043B00058432328D4F4232AE4F49387C7A003D7CF
:1043C0008700231CE4F483C7A700230DF4F49306AD
:1043D0000008138641E98145138581E7EF202029F4
:1043E00003A781818967938707F4B357F702930581
:1043F000401F3E85EFC02F989D679386F7389D67D5
:104400001386E738F167938507201D45EFE01FB954
:10441000930744FD7146BE851D45EFE03F9D03A710
:1044200081818967938707F4B357F7029305800C5E
:104430003E85EFC04F949307C4FB2D46BE851D45B6
:10444000EFE0DF9A03A781818967938707F4B35769
:10445000F702930520033E85EFC0EF91930784FC9C
:104460002D46BE851D45EFE07F9803A781818967B2
:10447000938707F4B357F702930520033E85EFC0F7
:104480008F8F930704FB2D46BE851D45EFE01F96D9
:1044900003A781818967938707F4B357F7029305D0
:1044A00020033E85EFC02F8D930744FA2D46BE852D
:1044B0001D45EFE0BF9303A781818967938707F4C8
:1044C000B357F702930520033E85EFC0CF8A9307C9
:1044D00084F92D46BE851D45EFE05F9103A78181DC
:1044E0008967938707F4B357F702930520033E8546
:1044F000EFC06F889307C4F82D46BE851D45EFE0D9
:10450000FF8E03A781818967938707F4B357F7026A
:10451000930520033E85EFC00F86930704F82D46D0
:10452000BE851D45EFE09F8C03A781818967938736
:1045300007F4B357F702930520033E85EFC0AF831E
:10454000930744F72D46BE851D45EFE03F8A03A73C
:1045500081818967938707F4B357F7029305200396
:104560003E85EFC04F81930784F62D46BE851D45DD
:10457000EFE0DF8703A781818967938707F4B3574B
:10458000F702930520033E85EFB0FFFE9307C4F5C5
:104590002D46BE851D45EFE07F8503A78181896794
:1045A000938707F4B357F702930520033E85EFB0D6
:1045B0009FFC930704F52D46BE851D45EFE01F8344
:1045C00003A781818967938707F4B357F70293059F
:1045D00020033E85EFB03FFA0547A385E18A854574
:1045E0001D45EFE03F8D0100BA502A544D61828095
:1045F000011106CE22CC0010A30704FE230704FEFF
:10460000231604FE99A08357C4FE138717002316B0
:10461000E4FE1307F00F6376F70085472307F4FEE7
:1046200015A89305500713854101EFD0DFC6AA876F
:10463000A307F4FE03A781818967938707F4B35723
:10464000F702A9453E85EFB01FF30347F4FEC947C3
:10465000E31BF7FA8347E4FE3E85F24062440561BE
:104660008280011106CE22CC0010930784FE994669
:104670003E869305B00313854101EFD0BFCC83473D
:1046800084FEA207139707014187834794FEC20760
:10469000C187D98F139707014187239DE18A8347FB
:1046A000A4FEA2071397070141878347B4FEC20700
:1046B000C187D98F139707014187239EE18A8347DA
:1046C000C4FEA2071397070141878347D4FEC207A0
:1046D000C187D98F139707014187239FE18A010082
:1046E000F240624405618280011106CE22CC0010A6
:1046F000930784FE99463E86930530041385410155
:10470000EFD05FC4834784FEA20713970701418758
:10471000834794FEC207C187D98F1397070141874A
:10472000239AE18A8347A4FEA207139707014187D2
:104730008347B4FEC207C187D98F1397070141870A
:10474000239BE18A8347C4FEA20713970701418791
:104750008347D4FEC207C187D98F139707014187CA
:10476000239CE18A0100F2406244056182800111CC
:1047700006CE22CC0010A30504FEA30704FE2316D8
:1047800004FE03A781818967938707F4B357F70273
:10479000A9453E85EFB03FDE130750029306300275
:1047A000130640069305900613854101EFD01FD5EF
:1047B0008135AA8795C393064011B7E70200138697
:1047C00087A5B7E70200938587AB0145EF108055B9
:1047D0008547A307F4FECDA0130600089305B00695
:1047E00013854101EFD01FA303A7818189679387B8
:1047F00007F4B357F70289453E85EFB0DFD793053D
:10480000B00613854101EFD01FA9AA87A305F4FEC6
:104810008357C4FE138717002316E4FE1307F00F17
:104820006373F70293064012B7E70200138687A569
:10483000B7E70200938547AD0145EF10A04E8547CD
:10484000A307F4FE39A00347B4FE93071004E3184E
:10485000F7FA0347F4FE8547630FF704054693050F
:10486000B00613854101EFD0FF9A01469305C006BB
:1048700013854101EFD01F9A0546E9451385410193
:10488000EFD05F991D46E54513854101EFD09F9814
:104890006146ED4513854101EFD0DF974146F14573
:1048A00013854101EFD01F970D46F5451385410152
:1048B000EFD05F9611A001008347F4FE3E85F240E1
:1048C000624405618280011106CE22CC0010AA87C5
:1048D0002E87A307F4FEBA872307F4FEB70700204C
:1048E0009387C7009C4713070040D8CB0347E4FEDB
:1048F0008347F4FE3A86BE850945EFD07FDDB707D2
:1049000000209387C7009C471307004098CB010005
:10491000F240624405618280011106CE22CC001073
:10492000AA872324B4FE2322C4FEA307F4FEB707FC
:1049300000209387C7009C4713070040D8CB8347CC
:10494000F4FE832644FE032684FEBE850945EFD08F
:104950003FE5B70700209387C7009C471307004037
:1049600098CB0100F240624405618280797106D6DD
:1049700022D40018AA87A30FF4FCB707002093875E
:10498000C7009C4713070040D8CB8347F4FD93E74B
:1049900007F893F7F70F1307C4FE89463A86BE85DA
:1049A0000945EFD01FECB70700209387C7009C474D
:1049B0001307004098CB8347D4FE3E85B250225463
:1049C00045618280797106D622D40018AA87232CEB
:1049D000B4FC232AC4FCA30FF4FCB7070020938780
:1049E000C7009C4713070040D8CB8347F4FD93E7EB
:1049F00007F813F7F70F832744FD938617009307F3
:104A000044FE3E86BA850945EFD0BFE5B7070020D2
:104A10009387C7009C471307004098CB232604FECA
:104A20003DA08327C4FE13871700832784FD938648
:104A30001700232CD4FC930604FF3697034747FF47
:104A40002380E7008327C4FE85072326F4FE8327FF
:104A5000C4FE032744FDE3E6E7FC0100B250225404
:104A600045618280011106CE22CC0010A30504FE10
:104A7000A30704FE231604FE8357C4FE1387170002
:104A80002316E4FE1307F00F6376F7008547A307AC
:104A9000F4FE3DA00145D93DAA87A305F4FE03A776
:104AA00081818967938707F4B357F70285453E856F
:104AB000EFB07FAC0347B4FE93074002E31EF7FA62
:104AC0008347F4FE3E85F240624405618280011115
:104AD00006CE22CC0010930784FE1946BE853145D0
:104AE000D535834794FEA207139707014187834773
:104AF00084FEC207C187D98F13970701418723938B
:104B0000E18C8347B4FEA2071397070141878347CF
:104B1000A4FEC207C187D98F139707014187239449
:104B2000E18C8347D4FEA20713970701418783478F
:104B3000C4FEC207C187D98F139707014187239508
:104B4000E18C0100F240624405618280011106CED1
:104B500022CC0010930784FE1946BE854945EFF02C
:104B60007FE6834794FEA207139707014187834797
:104B700084FEC207C187D98F13970701418723900D
:104B8000E18C8347B4FEA20713970701418783474F
:104B9000A4FEC207C187D98F1397070141872391CC
:104BA000E18C8347D4FEA20713970701418783470F
:104BB000C4FEC207C187D98F13970701418723928B
:104BC000E18C0100F240624405618280011106CE51
:104BD00022CC0010A30704FE03A781818967938775
:104BE00007F4B357F702D1453E85EFB0DF981308BD
:104BF000F00F896793874702096713075702896691
:104C00009386360237969800130606688145094553
:104C1000EFD03FD4C146054685451305A004EFC03B
:104C20000FAA0145EFF09FD4EFF0DFE3AA8795C309
:104C300093060011B7E70200138647AFB7E70200FB
:104C4000938547B50145EF10E00D8547A307F4FEB6
:104C5000C9A081451305C007EFF0FFC603A78181F6
:104C60008967938707F4B357F70285453E85EFB010
:104C70009F90814513059005EFF0FFC40966B727A3
:104C800003009385C7E01305E005EFF0FFC88545F5
:104C900013059005EFF03FC303A7818189679387D0
:104CA00007F4B357F702D1453E85EFB0DF8C13050B
:104CB0001002EFF0BFCBAA8795E39306F011B7E798
:104CC0000200138647AFB7E70200938507B7014597
:104CD000EF1040058547A307F4FE25A8B945130545
:104CE000D007EFF05FBE9305700A13050004EFF0E4
:104CF0009FBD9305900A13052004EFF0DFBC8945A2
:104D000013051004EFF03FBC814513053004EFF0AC
:104D10009FBB8347F4FE3E85F2406244056182807A
:104D2000797106D622D40018AA87AE863287A30FDF
:104D3000F4FCB687230FF4FCBA87A30EF4FCA30798
:104D400004FE231604FE8347F4FD8607A30FF4FC3C
:104D50000146DD4513854102EFD0CFCB8347F4FDFB
:104D60003E86D54513854102EFD0CFCA8347E4FD87
:104D70003E86D94513854102EFD0CFC98347D4FD84
:104D80003E869305100213854102EFD0AFC813068B
:104D9000C004D14513854102EFD0CFC715A8835772
:104DA000C4FE138717002316E4FE1307F00F637683
:104DB000F7008547A307F4FE3DA003A7818189671B
:104DC000938707F4B357F70289453E85EFB0AFFAF2
:104DD0009305200213854102EFD08FE6AA87E207F0
:104DE000E187E3DE07FA8347F4FE3E85B2502254A2
:104DF00045618280797106D622D40018AA872E8751
:104E0000A30FF4FCBA87230FF4FC231704FE834797
:104E1000F4FD8607A30FF4FC8347F4FD93E7170026
:104E200093F7F70F3E86D54513854102EFD08FBE2D
:104E30008347E4FD3E86D94513854102EFD08FBDFF
:104E40000546DD4513854102EFD0CFBC1306C004F3
:104E5000D14513854102EFD0EFBB35A08357E4FE67
:104E6000138717002317E4FE1307F00F6369F70297
:104E700003A781818967938707F4B357F7028945B0
:104E80003E85EFB04FEF9305200213854102EFD02E
:104E90002FDBAA87858B93F7F70FE9D311A00100C9
:104EA000894513854102EFD0AFD9AA873E85B2501C
:104EB000225445618280011106CE22CC0010AA87BF
:104EC0002E87A307F4FEBA872307F4FE8347F4FE78
:104ED0008607A307F4FE8347F4FE93E7170093F7D2
:104EE000F70F3E86D54513854102EFD0AFB2834719
:104EF000E4FE3E86D94513854102EFD0AFB1194695
:104F0000DD4513854102EFD0EFB01306C006D14551
:104F100013854102EFD00FB00100F24062440561F9
:104F20008280011106CE22CC0010A30704FE2307C5
:104F300004FE231604FE91A08357C4FE13871700B6
:104F40002316E4FE1307F00F6376F7008547A307E7
:104F5000F4FE15A8BD4513854102EFD06FCEAA8798
:104F60002307F4FE03A781818967938707F4B3576A
:104F7000F702A9453E85EFB00FE00347E4FE930733
:104F8000B006E31BF7FA8347F4FE3E85F240624425
:104F900005618280011106CE22CC0010A30704FE19
:104FA000230704FE231604FE89A08357C4FE13873B
:104FB00017002316E4FE1307F00F6376F70085470A
:104FC000A307F4FE0DA8B5453545EFF0BFE2AA876B
:104FD0002307F4FE03A781818967938707F4B357FA
:104FE000F702A9453E85EFB00FD90347E4FE9307CA
:104FF000F00FE31CF7FA8347F4FE3E85F24062446B
:1050000005618280011106CE22CC0010930784FE38
:1050100099463E869305800213854102EFD08FB2F8
:10502000834794FEA207139707014187834784FEB5
:10503000C207C187D98F1397070141872399E18C54
:105040008347B4FEA2071397070141878347A4FE55
:10505000C207C187D98F139707014187239AE18C33
:105060008347D4FEA2071397070141878347C4FEF5
:10507000C207C187D98F139707014187239BE18C12
:105080000100F240624405618280011106CE22CC0B
:105090000010930784FE99463E86930520021385EF
:1050A0004102EFD02FAA834794FEA207139707016E
:1050B0004187834784FEC207C187D98F13970701B1
:1050C00041872396E18C8347B4FEA207139707011B
:1050D00041878347A4FEC207C187D98F1397070171
:1050E00041872397E18C8347D4FEA20713970701DA
:1050F00041878347C4FEC207C187D98F1397070131
:1051000041872398E18C0100F2406244056182806E
:10511000011106CE22CC001013060004854513852C
:105120004102EFD02F8F9305200213854102EFD06B
:105130002FB1AA87A307F4FE8347F4FE858B93F76C
:10514000F70FB5CB930784FE99463E8689451385B4
:105150004102EFD02F9F834794FEA20713970701C8
:105160004187834784FEC207C187D98F1397070100
:105170004187239CE18C8347B4FEA2071397070164
:1051800041878347A4FEC207C187D98F13970701C0
:105190004187239DE18C8347D4FEA2071397070123
:1051A00041878347C4FEC207C187D98F1397070180
:1051B0004187239EE18C0146854513854102EFD04E
:1051C0006F850100F240624405618280011106CEC4
:1051D00022CC0010A30704FE03A78181896793876F
:1051E00007F4B357F702A9453E85EFB0CFB81307D0
:1051F00060089306500829469305B00613854102BE
:10520000EFD0CFAF0146854513854102EFD08F80A7
:105210000546C94513854102EFC0DFFF03A7818121
:105220008967938707F4B357F70289453E85EFB046
:105230008FB40146854513854102EFC0BFFDEFF0F5
:105240005FCEAA8795C39306701BB7E7020013864B
:1052500007B9B7E70200938507BF0145EF00902C1F
:105260008547A307F4FE8DAA0D46B5451385410277
:10527000EFC05FFA1306C003C14513854102EFC0BA
:105280007FF91306C005C54513854102EFC09FF89D
:1052900013064004C94513854102EFC0BFF7094614
:1052A000CD4513854102EFC0FFF60146D145138578
:1052B0004102EFC03FF60146D54513854102EFC0DC
:1052C0007FF50146D94513854102EFC0BFF405467D
:1052D000E14513854102EFC0FFF313060004854545
:1052E00013854102EFC01FF313060008D145138553
:1052F0004102EFC03FF203A781818967938707F4DA
:10530000B357F70289453E85EFB0EFA60146D14578
:1053100013854102EFC01FF003A78181896793873E
:1053200007F4B357F70289453E85EFB0CFA41306C3
:105330000008A9453545EFF0BF9E03A78181896725
:10534000938707F4B357F70289453E85EFB0AFA2C4
:105350000146A9453545EFF0BF9C03A781818967C8
:10536000938707F4B357F70289453E85EFB0AFA0A6
:10537000EFF05FC2AA8795C39306201EB7E702002D
:10538000138607B9B7E70200938587C10145EF008F
:1053900070198547A307F4FE81A06546A5453545EC
:1053A000EFF01F980546AD453545EFF07F978145F5
:1053B0003545EFF05FB00146854513854102EFC0EA
:1053C0007FE503A781818967938707F4B357F702C5
:1053D000D1453E85EFB02F9A8347F4FE3E85F240DB
:1053E000624405618280411122C6000801003244F6
:1053F00041018280411122C60008B717024098433C
:10540000B71702401367170098C3B7170240D44379
:10541000B71702403707FFF8758FD8C3B717024098
:105420009443B71702403707F7FE7D17758F98C36F
:10543000B71702409443B71702403707FCFF7D17A8
:10544000758F98C3B7170240D443B7170240370788
:1054500081FF7D17758FD8C3B717024037079F00AC
:1054600098C70100324441018280797122D6001828
:10547000232EA4FC232604FE232404FEB717024097
:105480009443B71702404167558F98C3B71702403E
:105490009843B7070200F98F2324F4FE8327C4FE44
:1054A00085072326F4FE832784FE91E70327C4FEA5
:1054B0008567E31DF7FCB71702409843B707020062
:1054C000F98F89C785472324F4FE19A0232404FEFD
:1054D000032784FE85476312F71637170240B71774
:1054E00002405843D8C337170240B7170240584309
:1054F000D8C337170240B71702405843D8C3B7176D
:105500000240D443B71702403707C1FF7D17758F9C
:10551000D8C30327C4FDB747950893870740631B8B
:10552000F700B7170240D443B71702404167558FC1
:10553000D8C355A80327C4FDB7172707938707E0EB
:10554000631CF700B7170240D443B7170240370770
:105550003900558FD8C341A80327C4FDB7E7B80564
:1055600093870780631CF700B7170240D443B7172F
:10557000024037072900558FD8C3B5A00327C4FDC3
:10558000B7A74A0493870720631CF700B7170240A8
:10559000D443B717024037071D00558FD8C3A1A0C9
:1055A0000327C4FDB777DC02938707C0631CF700AD
:1055B000B7170240D443B717024037071100558F81
:1055C000D8C315A00327C4FDB7376E0193870760C2
:1055D000631BF700B7170240D443B71702403707E1
:1055E0000500558FD8C3B71702409443B717024040
:1055F00037070001558F98C30100B7170240984341
:10560000B7070002F98FF5DBB7170240D843B71789
:105610000240719BD8C3B7170240D843B717024066
:1056200013672700D8C30100B7170240DC4313F704
:10563000C700A147E31AF7FE11A001A0325445614B
:105640008280011106CE22CC00102326A4FE03275F
:10565000C4FE23ACE180EFF0FFD90325C4FEEFF0D8
:10566000DFE0EF10D0210100F2406244056182804A
:10567000411122C60008010001003244410182802C
:10568000011106CE22CC0010232604FE232404FEA2
:10569000232604FE2DA0232404FE01A8EFF05FFDC5
:1056A000832784FE85072324F4FE032784FEC16735
:1056B000E366F7FE8327C4FE85072326F4FE03274F
:1056C000C4FE9307F00FE3F8E7FC0100F2406244E8
:1056D00005618280411122C6000801003244410167
:1056E0008280011106CE22CC00102326A4FE832541
:1056F000C4FE0945EFD0EFF50100F24062440561B8
:105700008280130101D923261126232481262322F6
:105710009126801C232EA4D8232CB4D8232AC4D8A5
:105720002328D4D8231504FE231404FE231304FED7
:10573000231204FE231104FE032584D9EF50423ABC
:10574000AA87C207C1872313F4FE83D7410389C701
:10575000938741039C4B829783C7E18D93F7F70FA3
:105760006383074C83D74103638B074493874103CB
:10577000D447835724FE13970701418793170701E6
:10578000C1838507C207C183C207C1872311F4FE05
:1057900093170701C1830326C4D9BE8501458296AC
:1057A000832784D92326F4FE032584D9EF5042337E
:1057B000AA87C207C1872313F4FE9387410383D7C7
:1057C00027003E879387410383C76700B347F702EB
:1057D000C207C1872312F4FE01008327C4FE13878A
:1057E00017002326E4FE83870700E5FB231404FE4D
:1057F000A1A88327C4FEFD172326F4FE8327C4FE39
:10580000038707009307F002630AF7008327C4FEAB
:10581000038707009307C005631BF700835784FEC7
:10582000C207C1838507C207C1832314F4FE8357CF
:1058300064FEC207C187C207C183FD17C207C183C7
:10584000C207C1872313F4FE835784FE1397070111
:105850004183854763E8E700835764FEC207C18739
:10586000E3D907F8835764FEC207C18763C3070201
:105870008327C4FE85072326F4FE130704EE0326C0
:10588000C4FEB7E702009385C7C33A85EF50421FB5
:105890002DA8835784FEC207C18389EF130704EE46
:1058A0000326C4FEB7E70200938587C43A85EF500C
:1058B000221D21A8130704EE0326C4FEB7E7020049
:1058C0009385C7C33A85EF50A21B231504FE21AA76
:1058D000231404FE59A0930704EE3E85EF504220A6
:1058E0002A87835784FEC207C183BE868357A4FEDE
:1058F000C207C1833E86835744FEC207C187B307F0
:10590000F602B6976367F706835784FEC207C18322
:105910003E878357A4FEC207C183BE86835744FED9
:10592000C207C187B387F602BA97035784FE4207BE
:105930004183BA86130704FFBA97038707EF9307DB
:1059400004FFB6972388E7EA835784FEC207C18322
:105950008507C207C1832314F4FE835784FEC20760
:10596000C1833E87835744FEC207C187E345F7F6EC
:1059700011A00100835784FEC207C183130704FFEF
:10598000BA97238807EA9387410303A8C700938740
:10599000410383C77700139707014183835724FE90
:1059A00093960701C18693970601C1838507C207B5
:1059B000C183C207C1872311F4FE93970601C183F7
:1059C000B307F702C207C183130704EA3A86BE850C
:1059D000014502988357A4FEC207C1838507C20709
:1059E000C1832315F4FE8357A4FEC207C183BE847E
:1059F000930704EE3E85EF50A20E2A87835744FE9C
:105A0000C207C187B357F7028507E3E3F4EC130736
:105A100004EE032644D9B7E70200938587C53A858B
:105A2000EF5002069387410303A8C7009387410301
:105A300083C77700139707014183835724FE93960A
:105A40000701C18693970601C1838507C207C183F9
:105A5000C207C1872311F4FE93970601C183B307E0
:105A6000F702C207C183130704EE3A86BE850145DB
:105A70000298832704D96388071A231504FE21AAF4
:105A8000231404FE59A0032504D9EF5062052A8788
:105A9000835784FEC207C183BE868357A4FEC20714
:105AA000C1833E86835744FEC207C187B307F6020F
:105AB000B6976368F706835784FEC207C1833E87A3
:105AC0008357A4FEC207C183BE86835744FEC20724
:105AD000C187B387F602BA973E87832704D9BA975E
