:100000006F50100A130000001300000013000000DE
:100010001300000013000000130000001300000094
:100020001300000013000000130000001300000084
:08003000130000007300100032
:100038000000000000000000FA5600000A57000007
:1000480000000000E657000000000000000000006B
:10005800E8570000EA570000000000000000000018
:10006800EC57000000000000EE5700000000000000
:10007800F0570000F2570000F4570000F657000050
:10008800F8570000FA570000CA4D00003E4E000025
:10009800B24E0000264F00009A4F0000065800009C
:1000A800085800000A5800000C5800000E580000BC
:1000B800105800001258000014580000165800008C
:1000C800185800001A5800001C5800000E50000074
:1000D80020580000CA51000024580000265800008B
:1000E8006A520000E25200008A5300002E580000B5
:1000F80030580000325800003458000036580000CC
:10010800385800001C490000A0490000244A00009B
:10011800E6500000425800004458000046580000CD
:10012800825500004A5800004C5800004E58000004
:1001380050580000525800000A5400005658000059
:10014800A84A00002C4B00008A5400000255000009
:1001580060580000625800006458000066580000AB
:10016800685800006A5800006C5800006E5800007B
:10017800705800007258000074580000127F000088
:10018800785800007A5800003A4D0000AE4B000045
:10019800324C0000BA4C000084580000025600009F
:1001A800885800008A5800008C58000082560000C9
:1001B800905800009258000094580000965800008B
:1001C800985800009A5800009C5800009E5800005B
:1001D8000000000000000000000000000000000017
:1001E8000000000000000000000000000000000007
:0801F8000000000000000000FF
:100200003D432A876373C3029377F700BDEFADE5E3
:10021000937606FF3D8ABA960CC34CC30CC74CC7F5
:100220004107E36BD7FE11E28280B306C3408A0622
:100230009702000096966780A6002307B700A306E2
:10024000B7002306B700A305B7002305B700A30432
:10025000B7002304B700A303B7002303B700A3022A
:10026000B7002302B700A301B7002301B700A30022
:10027000B7002300B700828093F5F50F93968500B1
:10028000D58D93960501D58D61B79396270097027A
:10029000000096968682E78086FA9680C1171D8FA9
:1002A0003E96E374C3F8A5B7797106D622D4001838
:1002B000232EA4FC8327C4FDB18393F7F70FBD8BD6
:1002C000A307F4FE8327C4FDA18393F7F70FBD8B2B
:1002D0002307F4FE0347F4FEB73700200A0793878D
:1002E00007A5BA979C430347E4FE91460546BA85A5
:1002F0003E85EF50100C0347F4FEB73700200A0785
:10030000938707A5BA979C4385453E85EF503006F5
:1003100001000347F4FEB73700200A07938707A5BB
:10032000BA979C4389453E85EF50302DAA87F5D377
:100330000347F4FEB73700200A07938707A5BA974B
:100340009C43FC478346F4FE1387818F369703470F
:100350000700B3D7E700C207C1833E85B2502254DD
:1003600045618280797106D622D40018232EA4FC20
:10037000AE87A30DF4FC0347B4FD13060005B7D701
:1003800002009385C71D3A85EF30F06E232404FEEA
:10039000A30704FE05A00325C4FD3937AA873E87BD
:1003A000832784FEBA972324F4FE8347F4FE85074F
:1003B000A307F4FE0347F4FE8347B4FDE36DF7FCA7
:1003C0008347B4FD032784FEB357F7022324F4FECA
:1003D000832784FEC207C1833E85B2502254456103
:1003E00082805D7186C6A2C48008232EA4FA232CC5
:1003F000B4FA232604FC232804FC232A04FC232C1F
:1004000004FC232E04FC232004FE232204FE2324C8
:1004100004FE8327C4FBB18393F7F70FBD8BA307BB
:10042000F4FE8327C4FB93F7F70F8146014681450D
:100430003E85EF00B03F8347F4FE99E785451305FD
:100440000020EF60804119A80347F4FE8547631739
:10045000F700854513050040EF6020403165EF60EF
:10046000000F0347F4FEB73700200A07938707A55C
:10047000BA979C433E85EF50404B232604FC23282B
:1004800004FC232A04FCB7070E00232CF4FC232EC3
:1004900004FC85472300F4FE0347F4FEB737002031
:1004A0000A07938707A5BA979C431307C4FCBA852C
:1004B0003E85EF50804D0347F4FEB73700200A0712
:1004C000938707A5BA979C4385453E85EF50005C0E
:1004D0000347F4FEB73700200A07938707A5BA97AA
:1004E0009C4381453E85EF50F0140347F4FEB73737
:1004F00000200A07938707A5BA979C433E85EF50D3
:10050000C05C01000347F4FEB73700200A07938759
:1005100007A5BA979C433E85EF50405DAA87FDF33F
:100520000347F4FEB73700200A07938707A5BA9759
:100530009C433E85EF50805E01000347F4FEB737D1
:1005400000200A07938707A5BA979C433E85EF5082
:10055000005FAA87FDF38346F4FE832784FB13F72D
:10056000F70F9387818FB6972380E7000100B6408D
:10057000264461618280011122CE00102326A4FE50
:1005800037F500E08328450037F500E093F8E8FFF1
:100590002322150183A801820965130505F433D5CB
:1005A000A802AA8601470325C4FEAA87014837F599
:1005B00000E03303F702B308D8029A983383F602B7
:1005C00033B6F6029A85B387C8003E860CC950C977
:1005D000B7F700E09843B7F700E01367070198C347
:1005E000B7F700E09843B7F700E01367170298C326
:1005F0000100B7F700E0DC4313F717008547E31A63
:10060000F7FEB7F700E09843B7F700E0799B98C38F
:100610000100724405618280011122CE0010232660
:10062000A4FE37F500E08328450037F500E093F895
:10063000E8FF2322150183A8018237157A001305EC
:10064000052033D5A802AA8601470325C4FEAA8740
:10065000014837F500E03303F702B308D8029A984F
:100660003383F60233B6F6029A85B387C8003E8616
:100670000CC950C9B7F700E09843B7F700E013671B
:10068000070198C3B7F700E09843B7F700E0136796
:10069000170298C30100B7F700E0DC4313F7170017
:1006A0008547E31AF7FEB7F700E09843B7F700E095
:1006B000799B98C30100724405618280797106D6E6
:1006C00022D40018232EA4FC231704FE231604FEB4
:1006D0000327C4FDA54763E1E70C8327C4FD1397F7
:1006E0002700B7E702009387C72DBA979C438287FC
:1006F000B7370140938707C083D74702C207C1833A
:100700002317F4FE69A8B707004083D74702C20742
:10071000C1832317F4FE61A0B70700409387074009
:1007200083D74702C207C1832317F4FE8DA8B717EA
:1007300000409387078083D74702C207C1832317EE
:10074000F4FEB1A8B7170040938707C083D74702CC
:10075000C207C1832317F4FE99A0B73701409387DE
:10076000074083D74702C207C1832317F4FE05A8B9
:10077000B7570140938707C083D74702C207C18399
:100780002317F4FE29A8B757014083D74702C207B1
:10079000C1832317F4FE21A0231704FE0100B7072D
:1007A0000020138707008327C4FDBA9783C707007B
:1007B00013F7F70F9307F00F6317F7008357E4FE63
:1007C0002316F4FE35A8B7070020138707008327F8
:1007D000C4FDBA9783C7070093F7F70F3E85EF0074
:1007E000D000AA8791EB8357E4FEB307F040C2071D
:1007F000C1832316F4FE29A08357E4FE2316F4FEDA
:100800008317C4FE3E85B250225445618280011197
:1008100022CE00102326A4FE0327C4FEA54763E1D1
:10082000E7088327C4FE13972700B7E702009387E2
:100830004730BA979C438287B7370140938707C0F8
:1008400023920702B9A8B70700402392070291A894
:10085000B7070040938707402392070299A0B71774
:100860000040938707802392070225A8B71700400E
:10087000938707C0239207022DA0B73701409387C3
:1008800007402392070231A8B7570140938707C05A
:100890002392070239A0B75701402392070211A003
:1008A00001000100724405618280397106DE22DC9C
:1008B00080002326A4FC2324B4FC2322C4FC23268A
:1008C00004FE91450325C4FCEF20A041AA873E8782
:1008D0001306100DB7D70200938587233A85EF30B2
:1008E00090198327C4FC1397C700832784FC7D8F4E
:1008F0008327C4FCB207B307F74093B7170093F7F9
:10090000F70F3E871306200DB7D702009385872384
:100910003A85EF3050168327C4FC1397C70083270E
:1009200044FC7D8F8327C4FCB207B307F74093B71D
:10093000170093F7F70F3E871306300DB7D7020065
:10094000938587233A85EF3010130325C4FCEF20ED
:10095000A03F832784FC93F7F70F9306800401469A
:1009600081453E85E125832744FC93F7F70F9306E5
:100970008004014681453E85552D832784FC13F76D
:10098000F70FB7070020938607008327C4FCB697AC
:100990002380E7000327C4FCA54763E1E70883271A
:1009A000C4FC13972700B7E702009387C732BA97B2
:1009B0009C438287B7370140938707C02324F4FE06
:1009C0008DA0B70700402324F4FEA1A8B70700407C
:1009D000938707402324F4FEA9A0B717004093870C
:1009E00007802324F4FE35A8B7170040938707C07B
:1009F0002324F4FE3DA0B73701409387074023240A
:100A0000F4FE05A0B7570140938707C02324F4FEE6
:100A100009A8B75701402324F4FE21A085472326C7
:100A2000F4FE85450545EF505063832784FC13D7BA
:100A300087008D47631AF7008545B70716001385B1
:100A4000070CEF505014E5A8832784FC13D78700C8
:100A5000C547631AF7008545B707180013850710C7
:100A6000EF507012E9A8832784FC13D787009307FF
:100A70002002631AF7008545B7171A00138507800F
:100A8000EF5070106DA8832784FC13D7870093075D
:100A90003002631AF7008545B7171A00138507C09F
:100AA000EF50700E69A8832784FC13D78700930743
:100AB00010036317F70085450565EF50D00C41A082
:100AC000832784FC13D7870093071007631AF70066
:100AD0008545B707008013854700EF50D00A85A0F1
:100AE000832784FC13D7870093073008631AF70025
:100AF0008545B707138013850701EF50D00881A003
:100B0000832784FC13D7870093071009631AF70023
:100B10008545B707158013850702EF50D00605A05D
:100B2000832784FC13D78700930730096319F700E4
:100B30008545B707158013850704EF50D004832738
:100B4000C4FEA9EB232E04FC232004FE231204FE82
:100B50009307C4FD3E85EF603003231E04FCFD5760
:100B60002310F4FE231104FE231F04FC230204FEC1
:100B70009307C4FDBE85032584FEEF50107C9305CA
:100B80000006032584FEEF6070168545032584FE6C
:100B9000EF6050030100F25062542161828079714C
:100BA00006D622D40018232EA4FC232CB4FC8327C1
:100BB000C4FD93B7070493F7F70F3E87130680032E
:100BC000B7D70200938587293A85EF30C06A83271B
:100BD00084FD93B7470093F7F70F3E871306900302
:100BE000B7D70200938587293A85EF30C068A307FD
:100BF00004FE0327C4FDA167BA9713972700832734
:100C000084FDBA97AA072324F4FEEF30304D232247
:100C1000A4FEB7172707138507E0EF2030612316DE
:100C200004FE35A00357C4FE832784FEBA97984379
:100C3000B7E739E3938797336306F7008547A30740
:100C4000F4FE21A88357C4FE91072316F4FE035730
:100C5000C4FE9307F03FE3F7E7FC83A701823E85DC
:100C6000EF20D05C032544FEEF3050448347F4FE70
:100C70003E85B250225445618280797106D622D4D5
:100C80000018232EA4FC232CB4FC8327C4FD93B7A7
:100C9000070493F7F70F3E871306C005B7D7020086
:100CA000938587293A85EF30005D832784FD93B7CC
:100CB000470093F7F70F3E871306D005B7D702001A
:100CC000938587293A85EF30005BA30704FE03274D
:100CD000C4FDA167BA9713972700832784FDBA97AD
:100CE000AA072324F4FEEF30703F2322A4FEB71797
:100CF0002707138507E0EF207053EF50401F1305BF
:100D00004003EF508035032584FEEF50C0222A8730
:100D1000B737002023ACE7A413050002EF50E033FF
:100D2000EF50801FB737002003A787A591476305C1
:100D3000F7008547A307F4FE83A701823E85EF20D5
:100D4000F04E032544FEEF3070368347F4FE3E85B7
:100D5000B250225445618280797106D622D400189F
:100D6000232EA4FC232CB4FC8327C4FD93B70704D3
:100D700093F7F70F3E871306F00CB7D70200938561
:100D800087293A85EF30204F832784FD93B74700AA
:100D900093F7F70F3E871306000DB7D70200938530
:100DA00087293A85EF30204D0327C4FDA167BA9704
:100DB00013972700832784FDBA97AA072324F4FEFC
:100DC000EF30D0312322A4FEB7172707138507E0A1
:100DD000EF20D045231704FE3DA08357E4FE8A0789
:100DE0003E87832784FEBA978356E4FE9843B7373D
:100DF00000208A06938707CCB69798C38357E4FEF2
:100E000085072317F4FE0357E4FE9307F00FE3F67C
:100E1000E7FC83A701823E85EF205041032544FE75
:100E2000EF30D0280100B2502254456182807971A0
:100E300006D622D40018232EA4FC232CB4FC83272E
:100E4000C4FD93B7070493F7F70F3E871306A00E70
:100E5000B7D70200938587293A85EF30C0418327B1
:100E600084FD93B7470093F7F70F3E871306B00E44
:100E7000B7D70200938587293A85EF30C03FA30793
:100E800004FE232404FE231304FE0327C4FDA167EC
:100E9000BA9713972700832784FDBA97AA072324BC
:100EA000F4FE832584FD0325C4FDD539AA8791C7A7
:100EB000832584FD0325C4FDC933EF303022232070
:100EC000A4FEB7172707138507E0EF203036EF5051
:100ED0000002A9A0035764FEB73700200A079387D2
:100EE00007CCBA979C43BE85032584FEEF50000CC7
:100EF0002A8723A6E18003A7C18091476306F700F4
:100F00008547A307F4FE0DA0835764FE85072313CE
:100F1000F4FE832784FE91072324F4FE035764FE26
:100F20009307F00FE3F8E7FAEF40107F83A7018201
:100F30003E85EF20B02F032504FEEF3030178347A6
:100F4000F4FE3E85B250225445618280411106C6AE
:100F500022C40008130600409305F00FB7370020A5
:100F6000138507CCEFF0CFA90100B2402244410124
:100F70008280011122CE00102326A4FEAE87A30595
:100F8000F4FE8347B4FE85CB8327C4FEBD8B0547A3
:100F9000B317F70093960701C1828327C4FE13D7C6
:100FA0005700B70700200A079387C700BA979C43EA
:100FB000368798CB3DA08327C4FEBD8B0547B3176A
:100FC000F70093960701C1828327C4FE13D7570009
:100FD000B70700200A079387C700BA979C43368754
:100FE000D8CB0100724405618280011122CE00102D
:100FF0002326A4FE8327C4FE958313F77700B70743
:1010000000200A079387C700BA979C439C47032791
:10101000C4FE7D8B85463397E600F98FB337F00029
:1010200093F7F70F3E85724405618280797106D689
:1010300022D40018232EA4FC232CB4FCB28723282E
:10104000D4FCA30BF4FC232004FE232204FE23245F
:1010500004FE8327C4FD958393F7F70F9D8BA307A9
:10106000F4FE8327C4FD93F7F70FFD8B2307F4FEEF
:101070008347F4FE91E785451145EF50007E91A826
:101080000347F4FE85476317F70085452145EF5078
:10109000C07C81A00347F4FE89476317F7008545AC
:1010A0004145EF50807B35A00347F4FE8D47631820
:1010B000F700854513050002EF50207A19A8034771
:1010C000F4FE91476317F700854513050004EF50C0
:1010D000C0788347E4FE0547B317F700C207C18312
:1010E0002310F4FE032784FD85476317F702832747
:1010F00004FDC207C183A183C207C18389E78D476D
:101100002322F4FE11A8832704FDC207C183A18313
:10111000C207C1832322F4FE832704FDC207C183D3
:1011200093F7F70F2324F4FE0347F4FEB7070020DC
:101130000A079387C700BA979C43130704FEBA8532
:101140003E85EF40307E032784FD85476319F70213
:101150000347F4FEB70700200A079387C700BA9732
:1011600094438347E4FE0547B317F700C207C183E2
:10117000034774FD3A86BE853685EF50401D010059
:10118000B2502254456182801D7186CEA2CC80105F
:101190002326A4FA2324B4FA85450325C4FAEF10C4
:1011A0005034AA873E871306D006B7D7020093852E
:1011B000C7313A85EF30200C832784FAB337F0002B
:1011C00093F7F70F3E871306F006B7D70200938513
:1011D000C7313A85EF30200A832784FABD8323156F
:1011E000F4FE8357A4FE85073E87832784FAB3D78E
:1011F000E7022314F4FE0325C4FAEF10F034B737E6
:101200000140938707C02326F4FE0327C4FAA547AD
:1012100063EDE7088327C4FA13972700B7E70200B6
:1012200093874735BA979C438287B73701409387A6
:1012300007C02326F4FE95A8B70700402326F4FE36
:10124000ADA0B7070040938707402326F4FEB1A85E
:10125000B7170040938707802326F4FEB9A0B7177D
:101260000040938707C02326F4FE81A0B7170040F3
:101270002326F4FE1DA8B7170040938707402326B6
:10128000F4FE25A0B7370140938707402326F4FEDC
:1012900029A8B7570140938707C02326F4FE31A041
:1012A000B75701402326F4FE0100232E04FC23201F
:1012B00004FE231204FE835784FE2310F4FE83579A
:1012C000A4FE231EF4FC231104FE231F04FC2302AE
:1012D00004FE9307C4FDBE850325C4FEEF50F00550
:1012E000054685450325C4FEEF6040198545032565
:1012F000C4FEEF60E058B7D7020003AE472F138754
:10130000472F032347001387472F8328870013871E
:10131000472F0328C7001387472F084B1387472FF2
:101320004C4B1387472F104F1387472F544F13876A
:10133000472F18539387472FDC53232AC4FB232CB2
:1013400064FA232E14FB232004FD2322A4FC23246F
:10135000B4FC2326C4FC2328D4FC232AE4FC232C3D
:10136000F4FC8327C4FA93F7F70F8A07130704FFE7
:10137000BA9783A747FC8D453E85EF30A050832761
:10138000C4FA8A07130704FFBA9783A747FC3E8570
:10139000EF30C04B85450325C4FEEF60A00201007D
:1013A000F640664425618280797106D622D4001801
:1013B000232EA4FC232CB4FC032784FD8967938788
:1013C0001771B337F70093F7F70F3E8713065003F3
:1013D000B7D70200938587373A85EF20D069B737B2
:1013E0000140938707C02326F4FE8327C4FDC183F1
:1013F000BD8B2547636FF70613972700B7E70200F9
:101400009387C737BA979C438287B7370140938742
:1014100007C02326F4FEB1A8B70700402326F4FE38
:1014200089A8B7070040938707402326F4FE91A0C0
:10143000B7170040938707802326F4FE1DA8B7172F
:101440000040938707C02326F4FE25A0B73701404C
:10145000938707402326F4FE29A8B75701409387B6
:1014600007C02326F4FE31A0B75701402326F4FE1F
:1014700001008327C4FE83D7C7022315F4FE035758
:10148000A4FE832784FD3307F702896793870771DA
:10149000B357F7022314F4FE8327C4FDA1838D8B79
:1014A00081EB8327C4FE035784FE239AE702A9A891
:1014B0008327C4FDA18313F7370085476319F7001D
:1014C0008327C4FE035784FE239CE70235A88327A5
:1014D000C4FDA18313F7370089476319F7008327F9
:1014E000C4FE035784FE239EE70239A88327C4FD68
:1014F000A18313F737008D476318F7008327C4FED5
:10150000035784FE2390E7040100B2502254456142
:101510008280797122D60018232EA4FC232CB4FCDF
:10152000232AC4FC231504FE231404FE03A701820E
:10153000832784FDB357F702C1832314F4FE03A766
:101540000182835784FE8507BE86832784FDB38787
:10155000F602B357F7022315F4FEB737014093871D
:1015600007C02326F4FE8327C4FDC183BD8B254716
:10157000636FF70613972700B7E702009387473A90
:10158000BA979C438287B7370140938707C02326C9
:10159000F4FEB1A8B70700402326F4FE89A8B707D8
:1015A0000040938707402326F4FE91A0B717004020
:1015B000938707802326F4FE1DA8B7170040938762
:1015C00007C02326F4FE25A0B737014093870740C4
:1015D0002326F4FE29A8B7570140938707C0232686
:1015E000F4FE31A0B75701402326F4FE01008357D3
:1015F000A4FEFD171397070141838327C4FE23969A
:10160000E7028327C4FE035784FE2394E7020357AF
:10161000A4FE832744FD3307F70289679387077188
:10162000B357F7022313F4FE8327C4FDA1838D8BE8
:1016300081EB8327C4FE035764FE239AE702A9A81F
:101640008327C4FDA18313F7370085476319F7008B
:101650008327C4FE035764FE239CE70235A8832733
:10166000C4FDA18313F7370089476319F700832767
:10167000C4FE035764FE239EE70239A88327C4FDF6
:10168000A18313F737008D476318F7008327C4FE43
:10169000035764FE2390E7040100325445618280C1
:1016A0005D7186C6A2C48008232EA4FA232CB4FA46
:1016B000232AC4FA8327C4FBC1838D453E85EF10DE
:1016C0004062AA873E871306D00AB7D702009385E7
:1016D00087373A85EF20303A032744FB89679387A1
:1016E0001771B337F70093F7F70F3E871306F00A29
:1016F000B7D70200938587373A85EF20D037232E5E
:1017000004FC232004FE231204FE232604FC2328C9
:1017100004FC232A04FC232C04FC231504FE832749
:10172000C4FBC183BD8B3E85EF1000628327C4FBE1
:1017300093F7F70F93068031014685453E85EFF01C
:10174000FF8E85450545EF504011B737014093871F
:1017500007C02326F4FE8327C4FBC183BD8B254726
:10176000636FF70613972700B7E702009387C73C1C
:10177000BA979C438287B7370140938707C02326D7
:10178000F4FEB1A8B70700402326F4FE89A8B707E6
:101790000040938707402326F4FE91A0B71700402E
:1017A000938707802326F4FE1DA8B7170040938770
:1017B00007C02326F4FE25A0B737014093870740D2
:1017C0002326F4FE29A8B7570140938707C0232694
:1017D000F4FE31A0B75701402326F4FE0100832711
:1017E000C4FB13D7C7008D47631AF7008545B707B9
:1017F00016001385070CEF40103915AA8327C4FB88
:1018000013D7C700C547631AF7008545B707180007
:1018100013850710EF40303719AA8327C4FB13D76D
:10182000C700C947631AF7008545B7071800138535
:101830000720EF405035E5A88327C4FB13D7C70026
:10184000CD47631AF7008545B707180013850730A1
:10185000EF407033E9A88327C4FB13D7C700930771
:101860002002631AF7008545B7171A001385078011
:10187000EF4070316DA88327C4FB13D7C7009307CF
:101880003002631AF7008545B7171A00138507C0A1
:10189000EF40702F69A88327C4FB13D7C7009307B5
:1018A00010036317F70085450565EF40D02D41A073
:1018B0008327C4FB13D7C70093071007631AF700E9
:1018C0008545B707008013854700EF40D02B85A0E2
:1018D0008327C4FB13D7C70093073008631AF700A8
:1018E0008545B707138013850701EF40D02981A0F4
:1018F0008327C4FB13D7C70093071009631AF700A7
:101900008545B707158013850702EF40D02705A04E
:101910008327C4FB13D7C700930730096319F70067
:101920008545B707158013850704EF40D02503A729
:101930000182832784FBB357F702C1832315F4FE8A
:1019400003A701828357A4FE8507BE86832784FBF5
:10195000B387F602B357F7022314F4FE035784FE4D
:10196000832744FB3307F702896793870771B357CF
:10197000F7022313F4FE835784FEFD17C207C183C9
:101980002310F4FE8357A4FE231EF4FC231104FE4F
:10199000231F04FC230204FE9307C4FDBE85032518
:1019A000C4FEEF508019930700072316F4FC854707
:1019B0002317F4FC231804FC835764FE2319F4FC5A
:1019C0008947231AF4FC8947231BF4FC231C04FCDD
:1019D000231D04FC8327C4FBA1838D8B9DE3930708
:1019E000C4FCBE850325C4FEEF50002DA145032590
:1019F000C4FEEF50F03891450325C4FEEF50104D62
:101A000045A08327C4FBA18313F7370085476315DF
:101A1000F7029307C4FCBE850325C4FEEF50804344
:101A2000A1450325C4FEEF50703A930500400325FD
:101A3000C4FEEF50704EADA08327C4FBA18313F703
:101A4000370089476314F7029307C4FCBE8503255A
:101A5000C4FEEF50405EA1450325C4FEEF50B03CEC
:101A600091450325C4FEEF5090501DA88327C4FB69
:101A7000A18313F737008D476314F7029307C4FC63
:101A8000BE850325C4FEEF50C078A1450325C4FEE2
:101A9000EF50303E930500400325C4FEEF50F05157
:101AA00085450325C4FEEF50701785450325C4FE08
:101AB000EF5050110100B640264461618280797177
:101AC00006D622D40018232EA4FC8327C4FDB337E6
:101AD000F00093F7F70F3E8713061004B7D7020004
:101AE0009385473D3A85EF2000798327C4FD9C43C9
:101AF000BD8B0547B317F70093960701C182832773
:101B0000C4FD9C4313D75700B70700200A079387EB
:101B1000C700BA979C43368798CB8327C4FDDC4324
:101B2000BD8B0547B317F70093960701C182832742
:101B3000C4FDDC4313D75700B70700200A0793877B
:101B4000C700BA979C43368798CB8327C4FDDC47F0
:101B50002326F4FE01008327C4FE1387F7FF232604
:101B6000E4FEF5FB8327C4FDDC43BD8B0547B317BB
:101B7000F70093960701C1828327C4FDDC4313D786
:101B80005700B70700200A079387C700BA979C43FE
:101B90003687D8CB8327C4FDDC472324F4FE01001D
:101BA000832784FE1387F7FF2324E4FEF5FB8327B6
:101BB000C4FD9C43BD8B0547B317F70093960701FF
:101BC000C1828327C4FD9C4313D75700B707002069
:101BD0000A079387C700BA979C433687D8CB010082
:101BE000B250225445618280797106D622D4001801
:101BF000232EA4FC8327C4FDB337F00093F7F70F1F
:101C00003E8713064005B7D702009385473D3A85C6
:101C1000EF2060668327C4FDDC43BD8B0547B31707
:101C2000F70093960701C1828327C4FDDC4313D7D5
:101C30005700B70700200A079387C700BA979C434D
:101C40003687D8CB8327C4FD9C43BD8B0547B3178C
:101C5000F70093960701C1828327C4FD9C4313D7E5
:101C60005700B70700200A079387C700BA979C431D
:101C70003687D8CB8327C4FDDC472326F4FE01003A
:101C80008327C4FE1387F7FF2326E4FEF5FB832793
:101C9000C4FD9C43BD8B0547B317F700939607011E
:101CA000C1828327C4FD9C4313D75700B707002088
:101CB0000A079387C700BA979C43368798CB832738
:101CC000C4FDDC472324F4FE0100832784FE138730
:101CD000F7FF2324E4FEF5FB8327C4FDDC43BD8B23
:101CE0000547B317F70093960701C1828327C4FD08
:101CF000DC4313D75700B70700200A079387C700B4
:101D0000BA979C43368798CB8327C4FDDC472322B0
:101D1000F4FE0100832744FE1387F7FF2322E4FE2D
:101D2000F5FB0100B250225445618280797106D6DC
:101D300022D40018232EA4FCAE87A30DF4FC832725
:101D4000C4FDB337F00093F7F70F3E8713069006F4
:101D5000B7D702009385473D3A85EF20C0518327CE
:101D6000C4FD9C43BD8B0547B317F700939607014D
:101D7000C1828327C4FD9C4313D75700B7070020B7
:101D80000A079387C700BA979C433687D8CB834707
:101D9000B4FD95CB8327C4FDDC43BD8B0547B3174A
:101DA000F70093960701C1828327C4FDDC4313D754
:101DB0005700B70700200A079387C700BA979C43CC
:101DC000368798CB0DA88327C4FDDC43BD8B054720
:101DD000B317F70093960701C1828327C4FDDC4344
:101DE00013D75700B70700200A079387C700BA9791
:101DF0009C433687D8CB8327C4FDDC472326F4FEDB
:101E000001008327C4FE1387F7FF2326E4FEF5FBBA
:101E10008327C4FD9C43BD8B0547B317F7009396FA
:101E20000701C1828327C4FD9C4313D75700B7071E
:101E300000200A079387C700BA979C43368798CB40
:101E40008327C4FDDC472324F4FE0100832784FE9E
:101E50001387F7FF2324E4FEF5FB8327C4FD9C438F
:101E6000BD8B0547B317F70093960701C1828327FF
:101E7000C4FD9C4313D75700B70700200A07938778
:101E8000C700BA979C433687D8CB8327C4FDDC4371
:101E9000BD8B0547B317F70093960701C1828327CF
:101EA000C4FDDC4313D75700B70700200A07938708
:101EB000C700BA979C43368798CB0100B250225492
:101EC00045618280797106D622D40018232EA4FCA5
:101ED0008327C4FDB337F00093F7F70F3E8713064F
:101EE0005008B7D702009385473D3A85EF20A038C8
:101EF000A30704FE8327C4FD9C43BD8B0547B3178E
:101F0000F70093960701C1828327C4FD9C4313D732
:101F10005700B70700200A079387C700BA979C436A
:101F20003687D8CB8327C4FDDC43BD8B0547B31769
:101F3000F70093960701C1828327C4FDDC4313D7C2
:101F40005700B70700200A079387C700BA979C433A
:101F5000368798CB8327C4FDDC472324F4FE010099
:101F6000832784FE1387F7FF2324E4FEF5FB8327F2
:101F7000C4FD9C43BD8B0547B317F700939607013B
:101F8000C1828327C4FD9C4313D75700B7070020A5
:101F90000A079387C700BA979C43368798CB832755
:101FA000C4FDDC472322F4FE0100832744FE13878F
:101FB000F7FF2322E4FEF5FB8327C4FDDC433E85C7
:101FC000EFF0AF82AA8781C78547A307F4FE832776
:101FD000C4FD9C43BD8B0547B317F70093960701DB
:101FE000C1828327C4FD9C4313D75700B707002045
:101FF0000A079387C700BA979C433687D8CB8327B5
:10200000C4FDDC472320F4FE0100832704FE138770
:10201000F7FF2320E4FEF5FB8347F4FE3E85B25034
:10202000225445618280797106D622D40018232E6D
:10203000A4FCAE87A30DF4FC8327C4FDB337F000E6
:1020400093F7F70F3E871306700AB7D70200938500
:10205000473D3A85EF202022930700F8A307F4FEBE
:1020600009AA0347B4FD8347F4FEF98F93F7F70FEE
:1020700095CB8327C4FDDC43BD8B0547B317F70021
:1020800093960701C1828327C4FDDC4313D7570011
:10209000B70700200A079387C700BA979C43368783
:1020A00098CB0DA88327C4FDDC43BD8B0547B31730
:1020B000F70093960701C1828327C4FDDC4313D741
:1020C0005700B70700200A079387C700BA979C43B9
:1020D0003687D8CB8347F4FE8583A307F4FE832796
:1020E000C4FDDC472324F4FE0100832784FE13870C
:1020F000F7FF2324E4FEF5FB8327C4FD9C43BD8B3F
:102100000547B317F70093960701C1828327C4FDE3
:102110009C4313D75700B70700200A079387C700CF
:10212000BA979C43368798CB8327C4FDDC4723228C
:10213000F4FE0100832744FE1387F7FF2322E4FE09
:10214000F5FB8327C4FD9C43BD8B0547B317F70000
:1021500093960701C1828327C4FD9C4313D7570080
:10216000B70700200A079387C700BA979C433687B2
:10217000D8CB8347F4FEE39607EE0325C4FD9933DD
:10218000AA87FD17B337F00093F7F70F3E85B250DB
:10219000225445618280397106DE22DC26DA800015
:1021A0002326A4FCAE87A305F4FC8327C4FCB33725
:1021B000F00093F7F70F3E871306000CB7D7020025
:1021C0009385473D3A85EF20000BA30704FEA14706
:1021D0002307F4FE8327C4FC9C43BD8B0547B3173C
:1021E000F70093960701C1828327C4FC9C4313D751
:1021F0005700B70700200A079387C700BA979C4388
:102200003687D8CB8327C4FCDC472324F4FE0100A7
:10221000832784FE1387F7FF2324E4FEF5FB83273F
:10222000C4FCDC43BD8B0547B317F7009396070149
:10223000C1828327C4FCDC4313D75700B7070020B3
:102240000A079387C700BA979C43368798CB7DA827
:102250008327C4FC9C43BD8B0547B317F7009396B7
:102260000701C1828327C4FC9C4313D75700B707DB
:1022700000200A079387C700BA979C433687D8CBBC
:102280008327C4FCDC472322F4FE0100832744FE9D
:102290001387F7FF2322E4FEF5FB8327C4FC9C434E
:1022A000BD8B0547B317F70093960701C1828327BB
:1022B000C4FC9C4313D75700B70700200A07938735
:1022C000C700BA979C43368798CB8327C4FCDC476A
:1022D0002320F4FE0100832704FE1387F7FF232049
:1022E000E4FEF5FB8347F4FE860793948701E184BF
:1022F0008327C4FCDC433E85EFE03FCFAA87E2079B
:10230000E187C58FE207E187A307F4FE8347E4FE78
:102310001387F7FF2307E4FE85FF8327C4FC9C4354
:10232000BD8B0547B317F70093960701C18283273A
:10233000C4FC9C4313D75700B70700200A079387B4
:10234000C700BA979C433687D8CB8327C4FCDC47A9
:10235000232EF4FC01008327C4FD1387F7FF232EEF
:10236000E4FCF5FB8347B4FCBE850325C4FCEFF019
:10237000FF9B8347F4FE3E85F2506254D2542161A4
:102380008280011106CE22CC00102326A4FEAE8747
:102390003287A305F4FEBA872305F4FE8327C4FE23
:1023A000B337F00093F7F70F3E8713066013B7D7E4
:1023B00002009385473D3A85EF10F06B0325C4FE7C
:1023C000EFF0EFEF8327C4FE83C78700860793F7FC
:1023D000F70FBE850325C4FEB9318347B4FEBE8521
:1023E0000325C4FE89318347A4FEBE850325C4FEB0
:1023F0001D390325C4FEEFF02FFF0100F2406244B7
:1024000005618280797106D622D40018232EA4FC9F
:10241000AE87A30DF4FC8327C4FDB337F00093F718
:10242000F70F3E871306401EB7D702009385473D3E
:102430003A85EF105064A30704FE0325C4FDEFF0B6
:102440000FE88327C4FD83C78700860793F7F70F3C
:10245000BE850325C4FDC13E8347B4FDBE8503256B
:10246000C4FDD1360325C4FDEFF06FE58327C4FD1D
:1024700083C787008607E207E18793E71700E20733
:10248000E18793F7F70FBE850325C4FD693E8545B7
:102490000325C4FD0933AA87A307F4FE0325C4FD61
:1024A000EFF08FF48347F4FE3E85B250225445612D
:1024B0008280011106CE22CC26CA00102326A4FE5B
:1024C000AE872322C4FE2320D4FEA305F4FE832777
:1024D000C4FEB337F00093F7F70F3E871306C01F13
:1024E000B7D702009385473D3A85EF10D058832730
:1024F00044FEB337F00093F7F70F3E871306D01F63
:10250000B7D702009385473D3A85EF10D056032593
:10251000C4FEEFF0CFDA8327C4FE83C787008607A7
:1025200093F7F70FBE850325C4FEF53C8347B4FE41
:10253000BE850325C4FEC53C0325C4FEEFF02FD89D
:102540008327C4FE83C787008607E207E18793E7F6
:102550001700E207E18793F7F70FBE850325C4FE56
:10256000D9342DA0832704FE93B7170093F7F70FF4
:102570003E87832444FE938714002322F4FEBA8509
:102580000325C4FE0939AA872380F400832704FEAB
:102590001387F7FF2320E4FEF1F70325C4FEEFF0D5
:1025A000AFE40100F2406244D24405618280797157
:1025B00006D622D400182326A4FEAE872322C4FE0A
:1025C0002320D4FE232EE4FCA305F4FE8327C4FEBF
:1025D000B337F00093F7F70F3E871306802BB7D77A
:1025E00002009385473D3A85EF10F048032704FE2B
:1025F0008327C4FDB307F740B337F00093F7F70F15
:102600003E871306902BB7D702009385473D3A8546
:10261000EF1070468327C4FE032704FE98C3832768
:10262000C4FE0327C4FDD8C38327C4FE0347B4FEFA
:102630002384E7008327C4FE032744FED8C7C1468E
:1026400005468545032504FEEFE05F9ED14605461D
:1026500085450325C4FDEFE07F9D0100B250225463
:1026600045618280011122CE00102326A4FEAE8790
:10267000A305F4FEB7E702000327C4FE0A07938709
:10268000473FBA979C433E878347B4FEC207C18346
:102690002316F7000100B7E702000327C4FE0A076C
:1026A0009387473FBA979C4383D78700C207C1836C
:1026B00093F70708EDF3B7E702000327C4FE0A0704
:1026C0009387473FBA979C4383D7C7000100724462
:1026D00005618280011122CE00102326A4FEAE8760
:1026E0002315F4FE8357A4FEA183C207C18393F68A
:1026F000F70FB7E702000327C4FE0A079387473F97
:10270000BA979C433E8793970601C1832316F7002F
:102710000100B7E702000327C4FE0A079387473F7B
:10272000BA979C4383D78700C207C18393F70708F2
:10273000EDF38357A4FE93F6F70FB7E702000327E4
:10274000C4FE0A079387473FBA979C433E879397F7
:102750000601C1832316F7000100B7E70200032733
:10276000C4FE0A079387473FBA979C4383D78700E5
:10277000C207C18393F70708EDF3010072440561B6
:102780008280011122CE00102326A4FEAE8732875C
:10279000A305F4FEBA872305F4FEB7E7020003277A
:1027A000C4FE0A079387473FBA979C433E878347F7
:1027B000B4FEC207C1832316F7000100B7E7020089
:1027C0000327C4FE0A079387473FBA979C4383D7E2
:1027D0008700C207C18393F70708EDF3B7E702004C
:1027E0000327C4FE0A079387473FBA979C4383D7C2
:1027F000C700B7E702000327C4FE0A079387473FD5
:10280000BA979C433E878347A4FEC207C183231621
:10281000F7000100B7E702000327C4FE0A07938709
:10282000473FBA979C4383D78700C207C18393F77A
:102830000708EDF3B7E702000327C4FE0A079387F2
:10284000473FBA979C4383D7C70001007244056194
:102850008280011122CE00102326A4FEAE872322FF
:10286000C4FE2320D4FEA305F4FEB7E7020003272D
:10287000C4FE0A079387473FBA979C433E87834726
:10288000B4FEC207C1832316F7000100B7E70200B8
:102890000327C4FE0A079387473FBA979C4383D711
:1028A0008700C207C18393F70708EDF389A8832740
:1028B00044FE138717002322E4FE83C60700B7E710
:1028C00002000327C4FE0A079387473FBA979C4339
:1028D0003E8793970601C1832316F7000100B7E7EF
:1028E00002000327C4FE0A079387473FBA979C4319
:1028F00083D78700C207C18393F70708EDF38327C7
:1029000004FE1387F7FF2320E4FED5F30100724491
:1029100005618280011122CE00102326A4FEAE871D
:102920002322C4FE2320D4FEA305F4FEB7E7020051
:102930000327C4FE0A079387473FBA979C433E8705
:102940008347B4FEC207C1832316F7000100B7E72F
:1029500002000327C4FE0A079387473FBA979C43A8
:1029600083D78700C207C18393F70708EDF3B7E762
:1029700002000327C4FE0A079387473FBA979C4388
:1029800083D7C700ADA0B7E702000327C4FE0A073C
:102990009387473FBA979C43239607000100B7E708
:1029A00002000327C4FE0A079387473FBA979C4358
:1029B00083D78700C207C18393F70708EDF3B7E712
:1029C00002000327C4FE0A079387473FBA979C4338
:1029D00083D7C70093960701C182832744FE1387DC
:1029E00017002322E4FE13F7F60F2380E700832766
:1029F00004FE1387F7FF2320E4FED1F701007244A1
:102A0000056182805D7186C6A2C480082326A4FC6D
:102A10002324B4FC2322C4FC2320D4FC232EE4FA78
:102A2000232CF4FA232A04FBB7E702000327C4FC93
:102A30000A079387473FBA979C433E85EF307073F0
:102A400085450545EF307061032704FC930730127C
:102A5000631DF7000327C4FB930750126317F700A9
:102A600085450545EF30301225A0032704FC896712
:102A70009387A714631EF7000327C4FB8967938716
:102A8000C7146317F700854537152000EF30B00FE6
:102A90008327C4FC91E785450565EF30105C25A0D0
:102AA0000327C4FC85476317F70085451165EF30A0
:102AB000305F11A80327C4FC89476316F7008545DA
:102AC0002165EF30F05D832704FC93F7F70F930641
:102AD0008031054685453E85EFE04FD58327C4FB11
:102AE00093F7F70F93068031054685453E85EFE065
:102AF000EFD3032784FBC167F917630DF700832722
:102B000084FB93F7F70F93068034054681453E8595
:102B1000EFE0CFD1032744FB9307F00F630DF700DD
:102B2000832744FB93F7F70F930600310146854551
:102B30003E85EFE0AFCF232E04FC232004FE2322AA
:102B400004FE232404FE231604FE231E04FC930724
:102B50004010231FF4FC231004FE032784FC854748
:102B60006305F702832784FC81CF032784FC894710
:102B70006303F702032784FC8D476304F7020DA863
:102B8000231104FE231204FE25A0231104FE854711
:102B90002312F4FE31A889472311F4FE231204FE08
:102BA00001A889472311F4FE85472312F4FE010092
:102BB000231704FE03A70182832744FCB357F702BF
:102BC0002317F4FE03A70182832744FCB377F7029F
:102BD00091E78357E4FEFD172317F4FE0357E4FE45
:102BE0009307F00763F7E700930780032317F4FECA
:102BF00051A80357E4FE9307F00363F7E700930738
:102C000000032317F4FEBDA80357E4FEFD4763F756
:102C1000E700930780022317F4FEADA00357E4FEFC
:102C2000BD4763F7E700930700022317F4FE99A856
:102C30000357E4FE9D4763F6E700E1472317F4FEE0
:102C400091A00357E4FE8D4763F6E700C1472317C1
:102C5000F4FE0DA80357E4FE854763F6E700A1479D
:102C60002317F4FE05A08357E4FE81C7231704FE53
:102C700011A813067021B7D7020093854743014579
:102C8000EF10605F8357E4FE2314F4FE93070020E7
:102C90002313F4FE231504FE9D472316F4FEB7E725
:102CA00002000327C4FC0A079387473FBA979C4357
:102CB0003E879307C4FDBE853A85EF30F052B7E7F3
:102CC00002000327C4FC0A079387473FBA979C4337
:102CD00085453E85EF30D0600100B64026446161F5
:102CE0008280797122D60018232EA4FC232CB4FCF8
:102CF0008547A307F4FE0327C4FD0A07938701E76E
:102D0000BA979C4399EB0327C4FD0A07938701E711
:102D1000BA97032784FD98C315A00327C4FD0A07AB
:102D2000938701E7BA979C43032784FD6316F70056
:102D30008547A307F4FE19A0A30704FE8347F4FE0A
:102D40003E85325445618280011106CE22CC0010AE
:102D50002326A4FE8327C4FE81EB85458567138562
:102D60000780EF30902F6DA80327C4FE85476317B7
:102D7000F70085450545EF30B0325DA00327C4FE5E
:102D800089476317F70085450945EF30703149A839
:102D90000327C4FE8D476317F70085451145EF30C3
:102DA0003030BDA80327C4FE91476317F70085455F
:102DB0002145EF30F02EADA00327C4FE95476317E1
:102DC000F70085454145EF30B02D99A80327C4FE93
:102DD00099476318F700854513050002EF30502C22
:102DE00081A00327C4FE9D476317F7008545096549
:102DF000EF30B02635A00327C4FEA1476318F700C3
:102E0000854537050800EF30502519A80327C4FE73
:102E1000A5476317F700854537051000EF30F0230D
:102E20000100F240624405618280011122CE00104F
:102E30002326A4FEAE87A305F4FE0100B7E7020037
:102E40000327C4FE0A0793870740BA979C4383D79A
:102E50000700C207C18393F70708EDD3B7E7020065
:102E60000327C4FE0A0793870740BA979C433E870F
:102E70008347B4FEC207C1832312F70001007244E6
:102E800005618280011106CE22CC00102326A4FE0B
:102E90002324B4FE832784FEB337F00093F7F70FA3
:102EA0003E8713060005B7D70200938507493A8588
:102EB000EF10603C39A8832784FE13871700232472
:102EC000E4FE8387070093F7F70FBE850325C4FE52
:102ED000A93F832784FE83870700F1FF0100F240AA
:102EE000624405618280011106CE22CC00102326A7
:102EF000A4FEAE87A305F4FEB7E702000327C4FED5
:102F00000A0793870740BA979C433E878347B4FEDE
:102F10003E86930550523A85EF40B0421387C18DEB
:102F20008327C4FEBA9783C7070081453E85EF100B
:102F300070158347B4FE81CF1387C18D8327C4FEEC
:102F4000BA9783C707003E85EF10501019A8138762
:102F5000C18D8327C4FEBA9783C707003E85EF1053
:102F6000B0100100F240624405618280011122CE5E
:102F700000102326A4FE2324B4FEB7E70200032793
:102F8000C4FE0A0793870740BA979C4383D707007C
:102F9000C207C18393F7070295C7B7E7020003276B
:102FA000C4FE0A0793870740BA979C4383D747001C
:102FB000C207C18313F7F70F832784FE2380E7003E
:102FC000854711A081473E857244056182807971F1
:102FD00006D622D40018232EA4FC232CB4FC232ACA
:102FE000C4FC2328D4FC032744FD832704FD3D8F24
:102FF0008327C4FDB207F98F93B7170093F7F70F34
:103000003E871306A00AB7D70200938507493A8581
:10301000EF106026832744FD13D78700832704FD24
:10302000A183B307F74093B7170093F7F70F3E87D5
:103030001306B00AB7D70200938507493A85EF1007
:103040008023832744FD93F7F70FE146014685452A
:103050003E85EFD0BFFD832704FD93F7F70F93065E
:103060008004014681453E85EFD05FFC85450545DE
:10307000EF30A07E032744FDC167FD17F98F0D6770
:10308000130707386385E7200D671307073863695F
:10309000F7040567130757166381E71605671307DB
:1030A0005716636FF7001307F022638AE70C1307C4
:1030B00060306381E710130760126388E70855A644
:1030C000096713078736638AE7160D671307071228
:1030D0006385E71809671307A7146380E71451A6EF
:1030E00015671307A738638CE72615671307A738FA
:1030F0006362F702116713078738638EE71E15674F
:10310000130787126383E722116713074712638A45
:10311000E71A81AE19671307C7386386E72A19676C
:103120001307C7386368F7001967130767106382CE
:10313000E72605AE1D671307E7106380E72C1D67C0
:103140001307E7386385E72E29AEB7070140D44F50
:10315000B7070140370700FC7D17758FD8CFB70739
:103160000140D843B70701406D9BD8C3B707014062
:10317000D843B707014013674700D8C3DDA4B7079A
:103180000140D44FB7070140370700FC7D17758F0A
:10319000D8CFB7070140D44FB70701403707000425
:1031A000558FD8CFB7070140D843B70701406D9B73
:1031B000D8C345ACB7070140D44FB7070140370724
:1031C00000FC7D17758FD8CFB7070140D44FB707E4
:1031D000014037070004558FD8CFB7070140D843C7
:1031E000B70701406D9BD8C3B7070140D843B70765
:1031F000014013674700D8C3ADA4B7070140D843C7
:10320000B70701405D9BD8C3B7070140D843B70754
:10321000014013678700D8C3A9A4B7070140D8436A
:10322000B70701401D9BD8C3B7070140D843B70774
:10323000014013678700D8C32DA4B7070140D843C6
:10324000B70701401D9BD8C3B7070140D843B70754
:10325000014013678701D8C329A4B7070140D44FA1
:10326000B70701403707FDFF7D17758FD8CFB70728
:103270000140D44F832744FDA18313970701B7076B
:1032800003007D8FB7070140558FD8CFD9AAB70764
:103290000140D44FB70701403707FDFF7D17758FF9
:1032A000D8CFB7070140D44F832744FDA18313979C
:1032B0000701B70703007D8FB7070140558FD8CFAF
:1032C0004DA2B7070140D44FB70701403707F4FFBD
:1032D0007D17758FD8CFB7070140D44F832744FDA2
:1032E000A18313972701B7070C007D8FB707014013
:1032F000558FD8CFBDA2B7070140D44FB7070140C3
:103300003707F4FF7D17758FD8CFB7070140D44F2B
:10331000832744FDA18313972701B7070C007D8FF6
:10332000B7070140558FD8CF2DAAB7070140D44F1A
:10333000B70701403707D0FF7D17758FD8CFB70784
:103340000140D44F832744FDA18313974701B7075A
:1033500030007D8FB7070140558FD8CF19A2B7072E
:103360000140D44FB70701403707D0FF7D17758F55
:10337000D8CFB7070140D44F832744FDA1831397CB
:103380004701B70730007D8FB7070140558FD8CF71
:10339000C9A8B7070140D44FB7070140370740FF1E
:1033A0007D17758FD8CFB7070140D44F832744FDD1
:1033B000A18313976701B707C0007D8FB70701404E
:1033C000558FD8CF79A8B7070140D44FB707014030
:1033D000370740FF7D17758FD8CFB7070140D44F0F
:1033E000832744FDA18313976701B707C0007D8F32
:1033F000B7070140558FD8CFADA0B7070140D44FD4
:10340000B7070140370700FD7D17758FD8CFB70785
:103410000140D44F832744FDA18313978701B70749
:1034200000037D8FB7070140558FD8CF1DA8B70780
:103430000140D44FB7070140370700FD7D17758F56
:10344000D8CFB7070140D44F832744FDA1831397FA
:103450008701B70700037D8FB7070140558FD8CF8D
:1034600001008327C4FD91E785451165EF30E03EFB
:1034700069A80327C4FD85476318F700854537050C
:103480000200EF30E04151A00327C4FD89476318D3
:10349000F700854537050400EF308040BDA00327C5
:1034A000C4FD8D476318F700854537050800EF30E8
:1034B000203FA1A80327C4FD91476318F700854565
:1034C00037051000EF30C03D89A00327C4FD9547A4
:1034D0006318F700854513050004EF30603C35A004
:1034E0000327C4FD99476318F700854513050008B5
:1034F000EF30003B19A80327C4FD9D476317F70071
:10350000854513050010EF30A039232004FE232247
:1035100004FE232404FE232604FE832784FD2320A7
:10352000F4FE231204FE231304FE231404FE2316C8
:1035300004FEB1472315F4FEB7E702000327C4FDDC
:103540000A0793870740BA979C433E87930704FE78
:10355000BE853A85EF40A035B7E702000327C4FDDA
:103560000A0793870740BA979C4385453E85EF40FD
:1035700040570100B250225445618280011106CEAD
:1035800022CC0010AA872E87A307F4FEBA87230750
:10359000F4FEB70700209387C7009C47130700403D
:1035A000D8CB0347E4FE8347F4FE3A86BE8509453F
:1035B000EFF02F9DB70700209387C7009C471307A4
:1035C000004098CB0100F240624405618280011105
:1035D00006CE22CC0010AA872324B4FE2322C4FEE8
:1035E000A307F4FEB70700209387C7009C47130783
:1035F0000040D8CB8347F4FE832644FE032684FE96
:10360000BE850945EFF0EFA4B70700209387C700F8
:103610009C471307004098CB0100F24062440561CB
:103620008280797106D622D40018AA87A30FF4FCF1
:10363000B70700209387C7009C4713070040D8CBEB
:103640008347F4FD93E707F893F7F70F1307C4FEDA
:1036500089463A86BE850945EFF0CFABB707002013
:103660009387C7009C471307004098CB8347D4FE3D
:103670003E85B250225445618280797106D622D4AB
:103680000018AA87232CB4FC232AC4FCA30FF4FC43
:10369000B70700209387C7009C4713070040D8CB8B
:1036A0008347F4FD93E707F813F7F70F832744FDEB
:1036B00093861700930744FE3E86BA850945EFF0CE
:1036C0006FA5B70700209387C7009C4713070040EA
:1036D00098CB232604FE3DA08327C4FE1387170042
:1036E000832784FD93861700232CD4FC930604FFC4
:1036F0003697034747FF2380E7008327C4FE8507EB
:103700002326F4FE8327C4FE032744FDE3E6E7FCFB
:103710000100B250225445618280011106CE22CCB4
:103720000010A30504FEA30704FE231604FE83571E
:10373000C4FE138717002316E4FE1307F00F637609
:10374000F7008547A307F4FE39A80145D93DAA87AC
:10375000A305F4FE0545EFC01FE20347B4FE93073F
:103760004002E316F7FC8347F4FE3E85F2406244D4
:1037700005618280011106CE22CC0010930784FEE1
:103780001946BE853145D53D834794FEA207139760
:1037900007014187834784FEC207C187D98F1397EA
:1037A000070141872390E1908347B4FEA207139756
:1037B000070141878347A4FEC207C187D98F1397AA
:1037C000070141872391E1908347D4FEA207139715
:1037D000070141878347C4FEC207C187D98F13976A
:1037E000070141872392E1900100F24062440561A4
:1037F0008280011106CE22CC0010930784FE194668
:10380000BE8549459D3D834794FEA2071397070156
:103810004187834784FEC207C187D98F1397070169
:103820004187239DE18E8347B4FEA20713970701CA
:1038300041878347A4FEC207C187D98F1397070129
:103840004187239EE18E8347D4FEA2071397070189
:1038500041878347C4FEC207C187D98F13970701E9
:103860004187239FE18E0100F2406244056182801E
:10387000011106CE22CC0010A30704FE5145EFC073
:103880009FCF1308F00F89679387470209671307D3
:1038900057028966938636023796980013060668A3
:1038A00081450945EFF00F96C1460546854513054C
:1038B000A004EFD0AFF70145AD338535AA8795C396
:1038C0009306600EB7D702001386C74EB7D7020023
:1038D0009385C7540145EF0090208547A307F4FE68
:1038E0006DA881451305C00751390545EFC0BFC814
:1038F00081451305900559310966B7070300938583
:1039000047FB1305E005E131854513059005BD3101
:103910005145EFC05FC6130510022133AA8795E316
:103920009306500FB7D702001386C74EB7D70200D1
:10393000938587560145EF00901A8547A307F4FE4B
:10394000A9A8B9451305D00715399305700A1305C1
:1039500000042D319305900A130520040531894593
:1039600013051004213937D702008727075827A8E5
:10397000F18001000347F4FE8547630FF70081459E
:1039800013053004E53E9387018137D7020087276E
:103990004758DCE3010011A001008347F4FE3E8597
:1039A000F240624405618280411122C60008010094
:1039B000324441018280411122C60008B7170240FB
:1039C0009843B71702401367170098C3B717024010
:1039D000D443B71702403707FFF8758FD8C3B7171E
:1039E00002409443B71702403707F7FE7D17758FE3
:1039F00098C3B71702409443B71702403707FCFF3C
:103A00007D17758F98C3B7170240D443B71702408C
:103A1000370781FF7D17758FD8C3B7170240370767
:103A20009F0098C70100324441018280797122D6FB
:103A30000018232EA4FC232604FE232404FEB7171B
:103A400002409443B71702404167558F98C3B71798
:103A500002409843B7070200F98F2324F4FE83271E
:103A6000C4FE85072326F4FE832784FE91E70327FF
:103A7000C4FE8567E31DF7FCB71702409843B707FC
:103A80000200F98F89C785472324F4FE19A0232457
:103A900004FE032784FE85476312F716371702409A
:103AA000B71702405843D8C337170240B717024030
:103AB0005843D8C337170240B71702405843D8C3FA
:103AC000B7170240D443B71702403707C1FF7D172D
:103AD000758FD8C30327C4FDB74795089387074060
:103AE000631BF700B7170240D443B7170240416782
:103AF000558FD8C355A80327C4FDB7172707938749
:103B000007E0631CF700B7170240D443B717024021
:103B100037073900558FD8C341A80327C4FDB7E73D
:103B2000B80593870780631CF700B7170240D4439A
:103B3000B717024037072900558FD8C3B5A0032710
:103B4000C4FDB7A74A0493870720631CF700B71783
:103B50000240D443B717024037071D00558FD8C322
:103B6000A1A00327C4FDB777DC02938707C0631CBD
:103B7000F700B7170240D443B717024037071100C8
:103B8000558FD8C315A00327C4FDB7376E0193879F
:103B90000760631BF700B7170240D443B717024012
:103BA00037070500558FD8C3B71702409443B7179E
:103BB000024037070001558F98C30100B717024034
:103BC0009843B7070002F98FF5DBB7170240D843D7
:103BD000B7170240719BD8C3B7170240D843B71735
:103BE000024013672700D8C30100B7170240DC4327
:103BF00013F7C700A147E31AF7FE11A001A0325442
:103C000045618280011106CE22CC00102326A4FE3D
:103C10000327C4FE23A0E182793B0325C4FE393586
:103C2000EF00704E0100F240624405618280411154
:103C300022C60008010001003244410182800111C6
:103C400006CE22CC0010232604FE232404FE2326C5
:103C500004FE25A0232404FE39A0D13F832784FE3F
:103C600085072324F4FE032784FEC167E367F7FE7C
:103C70008327C4FE85072326F4FE0327C4FE93078B
:103C8000F00FE3F9E7FC0100F24062440561828035
:103C9000411122C600080100324441018280011115
:103CA00006CE22CC00102326A4FE8325C4FE09459F
:103CB000EFF04F9D0100F2406244056182801301E4
:103CC00001D9232611262324812623229126801C14
:103CD000232EA4D8232CB4D8232AC4D82328D4D85C
:103CE000231504FE231404FE231304FE231204FEF2
:103CF000231104FE032584D9EF605222AA87C2074C
:103D0000C1872313F4FE83D781E989C7938781E9AB
:103D10009C4B829783C7619093F7F70F6383074C9F
:103D200083D781E9638B0744938781E9D44783571D
:103D300024FE13970701418793170701C183850765
:103D4000C207C183C207C1872311F4FE931707017D
:103D5000C1830326C4D9BE8501458296832784D9B1
:103D60002326F4FE032584D9EF60521BAA87C207DD
:103D7000C1872313F4FE938781E983D727003E8709
:103D8000938781E983C76700B347F702C207C187FA
:103D90002312F4FE01008327C4FE13871700232695
:103DA000E4FE83870700E5FB231404FEA1A8832714
:103DB000C4FEFD172326F4FE8327C4FE03870700F5
:103DC0009307F002630AF7008327C4FE0387070006
:103DD0009307C005631BF700835784FEC207C183A6
:103DE0008507C207C1832314F4FE835764FEC2070C
:103DF000C187C207C183FD17C207C183C207C1873C
:103E00002313F4FE835784FE1397070141838547EC
:103E100063E8E700835764FEC207C187E3D907F868
:103E2000835764FEC207C18763C307028327C4FEAA
:103E300085072326F4FE130704EE0326C4FEB7D736
:103E40000200938587583A85EF60F2082DA88357C2
:103E500084FEC207C18389EF130704EE0326C4FE64
:103E6000B7D70200938547593A85EF60D20621A85B
:103E7000130704EE0326C4FEB7D7020093858758C4
:103E80003A85EF605205231504FE21AA231404FE8F
:103E900059A0930704EE3E85EF6052082A878357A6
:103EA00084FEC207C183BE868357A4FEC207C183B6
:103EB0003E86835744FEC207C187B307F602B69712
:103EC0006367F706835784FEC207C1833E87835723
:103ED000A4FEC207C183BE86835744FEC207C187C2
:103EE000B387F602BA97035784FE42074183BA8626
:103EF000130704FFBA97038707EF930704FFB697EA
:103F00002388E7EA835784FEC207C1838507C20777
:103F1000C1832314F4FE835784FEC207C1833E8706
:103F2000835744FEC207C187E345F7F611A001009D
:103F3000835784FEC207C183130704FFBA972388FF
:103F400007EA938781E903A8C700938781E983C7BC
:103F50007700139707014183835724FE9396070147
:103F6000C18693970601C1838507C207C183C20733
:103F7000C1872311F4FE93970601C183B307F702AB
:103F8000C207C183130704EA3A86BE850145029839
:103F90008357A4FEC207C1838507C207C1832315C7
:103FA000F4FE8357A4FEC207C183BE84930704EEC8
:103FB0003E85EF60A2762A87835744FEC207C187F9
:103FC000B357F7028507E3E3F4EC130704EE032687
:103FD00044D9B7D702009385475A3A85EF60A26F5C
:103FE000938781E903A8C700938781E983C7770096
:103FF000139707014183835724FE93960701C186D7
:1040000093970601C1838507C207C183C207C18791
:104010002311F4FE93970601C183B307F702C20789
:10402000C183130704EE3A86BE85014502988327B3
:1040300004D96388071A231504FE21AA231404FE59
:1040400059A0032504D9EF60626D2A87835784FE47
:10405000C207C183BE868357A4FEC207C1833E86C2
:10406000835744FEC207C187B307F602B697636859
:10407000F706835784FEC207C1833E878357A4FE99
:10408000C207C183BE86835744FEC207C187B38778
:10409000F602BA973E87832704D9BA97035784FE5E
:1040A00042074183BA8603870700930704FFB69748
:1040B0002388E7EA835784FEC207C1838507C207C6
:1040C000C1832314F4FE835784FEC207C1833E8755
:1040D000835744FEC207C187E345F7F611A00100EC
:1040E000835784FEC207C183130704FFBA9723884E
:1040F00007EA938781E903A8C700938781E983C70B
:104100007700139707014183835724FE9396070195
:10411000C18693970601C1838507C207C183C20781
:10412000C1872311F4FE93970601C183B307F702F9
:10413000C207C183130704EA3A86BE850145029887
:104140008357A4FEC207C1838507C207C183231515
:10415000F4FE8357A4FEC207C183BE84032504D99D
:10416000EF60C25B2A87835744FEC207C187B357FB
:10417000F7028507E3E4F4ECADA0930704DA130635
:10418000001081453E85EFC0AF87938781E99C474A
:104190000325C4D98297832704D985C3130504DA7C
:1041A000032704D9832644D9032684D9B7D702002C
:1041B0009385075BEF60225231A8130704DA832648
:1041C00044D9032684D9B7D702009385C75C3A85C2
:1041D000EF606250938781E99847930704DA3E8540
:1041E000029701008320C1260324812683244126CF
:1041F000130101278280797106D622D40018232E5C
:10420000A4FC232CB4FC232AC4FC232604FEB9A05E
:104210000100B7E70200938707409C47930500041D
:104220003E85EF303021AA87EDD7B7E702009387AC
:1042300007409C47BE86832784FD13871700232CE5
:10424000E4FC83870700C207C183BE853685EF3053
:10425000901B8327C4FE85072326F4FE0327C4FE94
:10426000832744FDE346F7FA832744FD3E85B25099
:10427000225445618280011106CE22CC0010AA870B
:104280002324B4FE2322C4FEA307F4FE8347F4FED6
:10429000B1E383C7418293F7F70F8DCF83C7719046
:1042A00091C301A083C77190850713F7F70FA3830C
:1042B000E1902D25EFF0DF9D8146032644FE832506
:1042C00084FEB7D702001385475EEFF05F9FEFF0E3
:1042D0001F97DDB70100F240624405618280011141
:1042E00006CE22CC0010AA872324B4FE2322C4FECB
:1042F0002320D4FEA307F4FE8347F4FE9DE383C787
:10430000619093F7F70F99CF832684FE032604FE6E
:10431000832544FEB7D702001385475FEFF03F9A2D
:1043200011A001000100F240624405618280011188
:1043300022CE00102326A4FE8327C4FE239007006C
:104340008327C4FE7D572391E7008327C4FE7D5752
:104350002392E7008327C4FE7D572383E70083274A
:10436000C4FE7D57A383E7008327C4FE23A4070070
:104370008327C4FE23A607008327C4FE23A80700C3
:104380000100724405618280011122CE00102326B3
:10439000A4FE8327C4FE03D70700239CE1E88327FC
:1043A000C4FE03D72700938781E92391E700832781
:1043B000C4FE03D74700938781E92392E700832750
:1043C000C4FE03C76700938781E92383E70083273F
:1043D000C4FE03C77700938781E9A383E70083279F
:1043E000C4FE9847938781E998C78327C4FED847BE
:1043F000938781E9D8C78327C4FE984B938781E9C7
:1044000098CB05472383E1900100724405618280C7
:10441000797106D622D400189307C4FD3E85013F6A
:10442000B74700009387E7C92322F4FE9307C4FD32
:104430003E85993F89679386B70289671386A702ED
:10444000F167938507200945EFE07FB80100B2507E
:10445000225445618280397106DE22DC80002326E9
:10446000A4FC2324B4FC8327C4FCB337F00093F7E7
:10447000F70F3E871306C00CB7D70200938507607D
:104480003A85D53BA30704FE8327C4FCD9CB8327F9
:1044900084FCB1E38327C4FC130700032380E700F7
:1044A00051A0032784FCA947B376F7028347F4FEA3
:1044B00013871700A307E4FE13978601618793060D
:1044C00004FFB6972386E7FE032784FCA947B3576A
:1044D000F7022324F4FC832784FCE1F73DA88347FB
:1044E000F4FEFD17130704FFBA978387C7FE93F7FF
:1044F000F70F9387070393F6F70F8327C4FC1387FF
:1045000017002326E4FC1397860161872380E700C8
:104510008347F4FEFD17A307F4FE8347F4FEE1F39F
:1045200011A001000100F250625421618280597192
:1045300086D6A2D48018232EA4F8272CA4F8AE8700
:10454000A30BF4F88327C4F9B337F00093F7F70F00
:104550003E8713060013B7D70200938507603A859C
:10456000EFF07FD1232604FE232404FE834774F951
:10457000A303F4FE8327C4F963870720872784F900
:10458000D39707C02326F4FE872784F9530700F04A
:10459000D397E7A081CF8327C4F913871700232E71
:1045A000E4F81307D0022380E70099A0872784F955
:1045B000530700F0D3A7E7A085CF8327C4F913875B
:1045C0001700232EE4F8130700032380E700832756
:1045D000C4F913871700232EE4F81307E0022380A1
:1045E000E7008327C4F9130700032380E70069AAC3
:1045F0008327C4FED3F707D0072784F9D377F708BA
:10460000272CF4F819A8072784F9B7D7020087A741
:104610004767D377F710272CF4F8834774FE138786
:10462000F7FFA303E4FEE5F3872784F9D39707C0D8
:104630002324F4FEA30304FE834774FE13871700AC
:10464000A303E4FEBE860327C4FEA9473367F7022F
:1046500093972600930604FFB69723AAE7FC032747
:10466000C4FEA947B347F7022326F4FE8327C4FEFE
:10467000E1F7A1A0834774FEFD178A07130704FF23
:10468000BA9783A747FD13D7F741B98F998F93F74F
:10469000F70F9387070393F6F70F8327C4F9138760
:1046A0001700232EE4F81397860161872380E70023
:1046B000834774FEFD17A303F4FE834774FEDDFBFE
:1046C000834774F9F1C3A30304FE8327C4F9138756
:1046D0001700232EE4F81307E0022380E700832766
:1046E00084FEB9E78327C4F9130700032380E7009A
:1046F00061A8834774FE13871700A303E4FEBE86F8
:10470000032784FEA9473367F70293972600930691
:1047100004FFB69723AEE7FA032784FEA947B34701
:10472000F7022324F4FE834774F9FD17A30BF4F872
:10473000834774F9DDFFA1A0834774FEFD178A0744
:10474000130704FFBA9783A7C7FB13D7F741B98FA5
:10475000998F93F7F70F9387070393F6F70F832744
:10476000C4F913871700232EE4F813978601618795
:104770002380E700834774FEFD17A303F4FE8347FD
:1047800074FEDDFB11A001000100B65026546561E6
:104790008280411122C60008996793878708739029
:1047A00007800100324441018280411122C6000885
:1047B00099677390078001003244410182800111A2
:1047C00022CE00102326A4FE8327C4FEFD8B0547BE
:1047D000B316F70037E700E08327C4FE958393877D
:1047E00007048A07BA9794C3010072440561828066
:1047F000011122CE00102326A4FE8327C4FEFD8BC8
:104800000547B316F70037E700E08327C4FE95831A
:10481000938707068A07BA9794C30100724405611B
:104820008280011122CE00102326A4FEAE87A305AC
:10483000F4FE37E700E08327C4FEBA970347B4FECF
:104840002380E7400100724405618280011106CE99
:1048500022CC00102326A4FE0325C4FE8D370100C0
:10486000F240624405618280011106CE22CC001024
:104870002326A4FE0325C4FEA53F0100F2406244A6
:1048800005618280011106CE22CC00102326A4FEF1
:10489000AE87A305F4FE8347B4FEBE850325C4FEA0
:1048A00049370100F240624405618280011106CE61
:1048B00022CC00102326A4FE8327C4FE99C783A719
:1048C00081901387F7FF23A4E19083A7819091E360
:1048D000C9350100F240624405618280411106C67B
:1048E00022C4000883A7819091E3C13583A78190FA
:1048F0001387170023A4E19083A781903E85B240DF
:10490000224441018280411106C622C400080145AB
:10491000713F0100B2402244410182801D71A2CE4C
:1049200082E686E48AE28EE012FE16FC1AFA1EF88F
:104930002AF62EF432F236F03AEE3EEC42EA46E83F
:1049400072E676E47AE27EE0801093055052B74733
:10495000014013850780EF304032AA8789CB930549
:104960005052B747014013850780EF3020410100C6
:1049700076443660A660166186617272E272527386
:10498000C2733275A275127682767267E2675268D8
:10499000C268326EA26E126F826F25617300203082
:1049A0001D71A2CE82E686E48AE28EE012FE16FC3B
:1049B0001AFA1EF82AF62EF432F236F03AEE3EECEF
:1049C00042EA46E872E676E47AE27EE080109305F9
:1049D0005052B747004013850740EF30002AAA879E
:1049E00089CB93055052B747004013850740EF30FD
:1049F000E038010076443660A66016618661727206
:104A0000E2725273C2733275A27512768276726741
:104A1000E2675268C268326EA26E126F826F2561C1
:104A2000730020301D71A2CE82E686E48AE28EE019
:104A300012FE16FC1AFA1EF82AF62EF432F236F09E
:104A40003AEE3EEC42EA46E872E676E47AE27EE04E
:104A5000801093055052B757004013850780EF3000
:104A6000C021AA8789CB93055052B75700401385C0
:104A70000780EF30A030010076443660A6601661F2
:104A800086617272E2725273C2733275A2751276C7
:104A900082767267E2675268C268326EA26E126FE7
:104AA000826F2561730020301D71A2CE82E686E4FC
:104AB0008AE28EE012FE16FC1AFA1EF82AF62EF48E
:104AC00032F236F03AEE3EEC42EA46E872E676E43E
:104AD0007AE27EE0801093055052B757004013856C
:104AE00007C0EF308019AA8789CB93055052B7577A
:104AF0000040138507C0EF3060280100764436601F
:104B0000A660166186617272E2725273C273327568
:104B1000A275127682767267E2675268C268326E58
:104B2000A26E126F826F2561730020301D71A2CEBC
:104B300082E686E48AE28EE012FE16FC1AFA1EF87D
:104B40002AF62EF432F236F03AEE3EEC42EA46E82D
:104B500072E676E47AE27EE0801093055052375593
:104B60000040EF308011AA8791CB83A78181829783
:104B70009305505237550040EF30402001007644F5
:104B80003660A660166186617272E2725273C273F9
:104B90003275A275127682767267E2675268C268D1
:104BA000326EA26E126F826F2561730020301D710C
:104BB000A2CE82E686E48AE28EE012FE16FC1AFAA3
:104BC0001EF82AF62EF432F236F03AEE3EEC42EAC5
:104BD00046E872E676E47AE27EE080109305505271
:104BE000B727004013850780EF302009AA8789CBBB
:104BF00093055052B727004013850780EF30001807
:104C0000010076443660A660166186617272E272B7
:104C10005273C2733275A275127682767267E2673A
:104C20005268C268326EA26E126F826F2561730085
:104C300020301D71A2CE82E686E48AE28EE012FE6A
:104C400016FC1AFA1EF82AF62EF432F236F03AEE74
:104C50003EEC42EA46E872E676E47AE27EE08010D4
:104C600093055052B7270040138507C0EF30E0008E
:104C7000AA8799CBEFB0011693055052B727004091
:104C8000138507C0EF30800F010076443660A660C0
:104C9000166186617272E2725273C2733275A275C6
:104CA000127682767267E2675268C268326EA26ECE
:104CB000126F826F2561730020301D71A2CE82E6D3
:104CC00086E48AE28EE012FE16FC1AFA1EF82AF634
:104CD0002EF432F236F03AEE3EEC42EA46E872E664
:104CE00076E47AE27EE0801093055052372500404A
:104CF000EF20B078AA8789CBEF40211F930550524F
:104D000037250040EF308007010076443660A6600A
:104D1000166186617272E2725273C2733275A27545
:104D2000127682767267E2675268C268326EA26E4D
:104D3000126F826F2561730020301D71A2CE82E652
:104D400086E48AE28EE012FE16FC1AFA1EF82AF6B3
:104D50002EF432F236F03AEE3EEC42EA46E872E6E3
:104D600076E47AE27EE08010B707055083C707013A
:104D700093F7F70F918B8DC383A7C1818297B707F4
:104D8000055083C7070113F7F70FB70705506D9B51
:104D90001377F70F2388E700010076443660A6609A
:104DA000166186617272E2725273C2733275A275B5
:104DB000127682767267E2675268C268326EA26EBD
:104DC000126F826F2561730020301D71A2CE82E6C2
:104DD00086E48AE28EE012FE16FC1AFA1EF82AF623
:104DE0002EF432F236F03AEE3EEC42EA46E872E653
:104DF00076E47AE27EE080100545EF10E0072A872E
:104E000085476315F7000545EF10600C01007644F7
:104E10003660A660166186617272E2725273C27366
:104E20003275A275127682767267E2675268C2683E
:104E3000326EA26E126F826F2561730020301D7179
:104E4000A2CE82E686E48AE28EE012FE16FC1AFA10
:104E50001EF82AF62EF432F236F03AEE3EEC42EA32
:104E600046E872E676E47AE27EE080100945EF10CB
:104E7000A0002A8785476315F7000945EF10200534
:104E8000010076443660A660166186617272E27235
:104E90005273C2733275A275127682767267E267B8
:104EA0005268C268326EA26E126F826F2561730003
:104EB00020301D71A2CE82E686E48AE28EE012FEE8
:104EC00016FC1AFA1EF82AF62EF432F236F03AEEF2
:104ED0003EEC42EA46E872E676E47AE27EE0801052
:104EE0001145EF0070792A8785476315F700114552
:104EF000EF00F07D010076443660A66016618661A1
:104F00007272E2725273C2733275A2751276827631
:104F10007267E2675268C268326EA26E126F826F69
:104F20002561730020301D71A2CE82E686E48AE2FC
:104F30008EE012FE16FC1AFA1EF82AF62EF432F251
:104F400036F03AEE3EEC42EA46E872E676E47AE281
:104F50007EE080102145EF0030722A878547631577
:104F6000F7002145EF00B076010076443660A66078
:104F7000166186617272E2725273C2733275A275E3
:104F8000127682767267E2675268C268326EA26EEB
:104F9000126F826F2561730020301D71A2CE82E6F0
:104FA00086E48AE28EE012FE16FC1AFA1EF82AF651
:104FB0002EF432F236F03AEE3EEC42EA46E872E681
:104FC00076E47AE27EE080104145EF00F06A2A87BD
:104FD00085476315F7004145EF00706F0100764487
:104FE0003660A660166186617272E2725273C27395
:104FF0003275A275127682767267E2675268C2686D
:10500000326EA26E126F826F2561730020301D71A7
:10501000A2CE82E686E48AE28EE012FE16FC1AFA3E
:105020001EF82AF62EF432F236F03AEE3EEC42EA60
:1050300046E872E676E47AE27EE08010130500022C
:10504000EF0090632A8785476316F7001305000277
:10505000EF00F06713050004EF0010622A87854710
:105060006316F70013050004EF00706613050008CF
:10507000EF0090602A8785476316F7001305000844
:10508000EF00F06413050010EF00105F2A878547DA
:105090006316F70013050010EF007063130500207E
:1050A000EF00905D2A8785476316F70013050020FF
:1050B000EF00F061010076443660A66016618661FB
:1050C0007272E2725273C2733275A2751276827670
:1050D0007267E2675268C268326EA26E126F826FA8
:1050E0002561730020301D71A2CE82E686E48AE23B
:1050F0008EE012FE16FC1AFA1EF82AF62EF432F290
:1051000036F03AEE3EEC42EA46E872E676E47AE2BF
:105110007EE0801013050040EF0010562A87854777
:105120006316F70013050040EF00705A856713857A
:105130000780EF0070542A8785476317F70085675B
:1051400013850780EF00B0580565EF00F0522A87FD
:1051500085476315F7000565EF0070570965EF0097
:10516000B0512A8785476315F7000965EF0030566F
:105170001165EF0070502A8785476315F7001165A8
:10518000EF00F0542165EF00304F2A878547631503
:10519000F7002165EF00B053010076443660A66049
:1051A000166186617272E2725273C2733275A275B1
:1051B000127682767267E2675268C268326EA26EB9
:1051C000126F826F2561730020305971A2D682EE72
:1051D00086EC8AEA8EE892E696E49AE29EE02AFE5F
:1051E0002EFC32FA36F83AF63EF442F246F072EE0F
:1051F00076EC7AEA7EE880188545B737014013855A
:1052000007C0EF20E060AA8785CB8545B73701400E
:10521000138507C0EF20C066EFD0901DEFE08059E6
:10522000EFE0802FAA87231FF4F88317E4F93E8567
:10523000EFD0F07FEFE0603D010036547660E6602D
:105240005661C6613662A662166386637275E27540
:105250005276C2763277A27712788278726EE26ED8
:10526000526FC26F6561730020301D71A2CE82E65D
:1052700086E48AE28EE012FE16FC1AFA1EF82AF67E
:105280002EF432F236F03AEE3EEC42EA46E872E6AE
:1052900076E47AE27EE08010854537050040EF2015
:1052A0002057AA8791C7854537050040EF20405D0C
:1052B000010076443660A660166186617272E27201
:1052C0005273C2733275A275127682767267E26784
:1052D0005268C268326EA26E126F826F25617300CF
:1052E00020301D71A2CE82E686E48AE28EE012FEB4
:1052F00016FC1AFA1EF82AF62EF432F236F03AEEBE
:105300003EEC42EA46E872E676E47AE27EE080101D
:105310008545B707004013850740EF20604FAA87F7
:1053200085CF8545B707004013850740EF204055DE
:1053300083A7C1901387170023A6E190EFD0C06A1E
:10534000EFE0207BEFE0C052EF10E11BB7570120E8
:10535000138507C3EFB0C150010076443660A660E4
:10536000166186617272E2725273C2733275A275EF
:10537000127682767267E2675268C268326EA26EF7
:10538000126F826F2561730020301D71A2CE82E6FC
:1053900086E48AE28EE012FE16FC1AFA1EF82AF65D
:1053A0002EF432F236F03AEE3EEC42EA46E872E68D
:1053B00076E47AE27EE080108545B71700401385D9
:1053C0000780EF20E044AA8781CB8545B7170040CE
:1053D00013850780EF20C04A010076443660A6603E
:1053E000166186617272E2725273C2733275A2756F
:1053F000127682767267E2675268C268326EA26E77
:10540000126F826F2561730020301D71A2CE82E67B
:1054100086E48AE28EE012FE16FC1AFA1EF82AF6DC
:105420002EF432F236F03AEE3EEC42EA46E872E60C
:1054300076E47AE27EE080108545B7170040138558
:1054400007C0EF20E03CAA8781CB8545B717004015
:10545000138507C0EF20C042010076443660A66085
:10546000166186617272E2725273C2733275A275EE
:10547000127682767267E2675268C268326EA26EF6
:10548000126F826F2561730020301D71A2CE82E6FB
:1054900086E48AE28EE012FE16FC1AFA1EF82AF65C
:1054A0002EF432F236F03AEE3EEC42EA46E872E68C
:1054B00076E47AE27EE08010854537150040EF20E3
:1054C0002035AA8791C7854537150040EF20403B1E
:1054D000010076443660A660166186617272E272DF
:1054E0005273C2733275A275127682767267E26762
:1054F0005268C268326EA26E126F826F25617300AD
:1055000020301D71A2CE82E686E48AE28EE012FE91
:1055100016FC1AFA1EF82AF62EF432F236F03AEE9B
:105520003EEC42EA46E872E676E47AE27EE08010FB
:105530008545B717004013850740EF20602DAA87E7
:1055400081CB8545B717004013850740EF204033D6
:10555000010076443660A660166186617272E2725E
:105560005273C2733275A275127682767267E267E1
:105570005268C268326EA26E126F826F256173002C
:1055800020301D71A2CE82E686E48AE28EE012FE11
:1055900016FC1AFA1EF82AF62EF432F236F03AEE1B
:1055A0003EEC42EA46E872E676E47AE27EE080107B
:1055B0008545B737014013850740EF206025AA874E
:1055C00081CB8545B737014013850740EF20402B3D
:1055D000010076443660A660166186617272E272DE
:1055E0005273C2733275A275127682767267E26761
:1055F0005268C268326EA26E126F826F25617300AC
:1056000020301D71A2CE82E686E48AE28EE012FE90
:1056100016FC1AFA1EF82AF62EF432F236F03AEE9A
:105620003EEC42EA46E872E676E47AE27EE08010FA
:105630008545B7570140138507C0EF20601DAA8735
:1056400081CB8545B7570140138507C0EF20402324
:10565000010076443660A660166186617272E2725D
:105660005273C2733275A275127682767267E267E0
:105670005268C268326EA26E126F826F256173002B
:1056800020301D71A2CE82E686E48AE28EE012FE10
:1056900016FC1AFA1EF82AF62EF432F236F03AEE1A
:1056A0003EEC42EA46E872E676E47AE27EE080107A
:1056B000854537550140EF20A015AA8791C785453C
:1056C00037550140EF20C01B010076443660A660CC
:1056D000166186617272E2725273C2733275A2757C
:1056E000127682767267E2675268C268326EA26E84
:1056F000126F826F256173002030411122C60008AD
:1057000001003244410173002030411122C60008DB
:1057100001A0411106C622C40008B74795081385A9
:105720000740EFE02FCEEFE0BFCE01287945EFA094
:105730009FE45145EF003167D5BF411106C622C431
:105740000008EFB06121EF2081610545EF0031488D
:105750008145856713852720EFA0BFC8EFD080263D
:10576000EF30A101EFA04177EFA0C15C0145EF60F0
:10577000015EEF30E103EF404104EFA0213BEFC0B9
:105780000023EFE00072EFD0E03F0100B24022447E
:1057900041018280011106CE22CC0010A945856707
:1057A00013852720EFA01FBCAA87D3F717D0272681
:1057B000F4FE0727C4FEB7D7020087A7076A53770E
:1057C000F710B7D7020087A7476AD377F7182724BF
:1057D000F4FE872784FE5385F720F240624405617A
:1057E000828001A001A001A001A001A001A001A050
:1057F00001A001A001A001A001A001A001A001A0A1
:1058000001A001A001A001A001A001A001A001A090
:1058100001A001A001A001A001A001A001A001A080
:1058200001A001A001A001A001A001A001A001A070
:1058300001A001A001A001A001A001A001A001A060
:1058400001A001A001A001A001A001A001A001A050
:1058500001A001A001A001A001A001A001A001A040
:1058600001A001A001A001A001A001A001A001A030
:1058700001A001A001A001A001A001A001A001A020
:1058800001A001A001A001A001A001A001A001A010
:1058900001A001A001A001A001A001A001A001A000
:1058A00097E1FF1F9381019B17210120130181754F
:1058B00017D50200130545B997A5FF1F9385857479
:1058C0001386818F63FAC5008322050023A055004B
:1058D00011059105E3EAC5FE1385818F97F5002038
:1058E0009385C53C6377B500232005001105E36D62
:1058F000B5FEFD42739002BCFD4273904280B762D8
:1059000000009382820873A0023097A2FFFF938267
:10591000E27293E232007390523097020000938259
:1059200082DF7390123473002030011106CE22CC36
:1059300000102326A4FE0327C4FEB7270140938747
:105940000740631DF700854513050020EF00B0797F
:10595000814513050020EF0010791DA00327C4FE28
:10596000B737014093870780631CF700854513050F
:105970000040EF005077814513050040EF00B076FE
:105980000100F240624405618280797122D60018DC
:10599000232EA4FC232CB4FC232604FEA30504FE22
:1059A0008327C4FDDC432326F4FE0327C4FEB70788
:1059B000F1E09387F7EFF98F2326F4FE832784FD28
:1059C0009843832784FD9C4F5D8F832784FDDC4FA4
:1059D0005D8F832784FDDC43A207D98F0327C4FE94
:1059E000D98F2326F4FE8327C4FD0327C4FED8C322
:1059F0008327C4FD9C472326F4FE0327C4FEB7F784
:105A0000F1FF9387D77FF98F2326F4FE832784FD48
:105A1000984B832784FDDC475D8F832784FD9C475B
:105A20008607D98F0327C4FED98F2326F4FE832748
:105A3000C4FD0327C4FE98C78327C4FDDC57232673
:105A4000F4FE0327C4FEB70710FFFD17F98F2326C6
:105A5000F4FE832784FD83C74701FD1713F7F70F73
:105A60008347B4FED98FA305F4FE8347B4FED20763
:105A70000327C4FED98F2326F4FE8327C4FD032702
:105A8000C4FED8D70100325445618280011122CE74
:105A900000102326A4FE2324B4FE832784FE91CB8A
:105AA0008327C4FE9C4713E717008327C4FE98C7CB
:105AB00009A88327C4FE9C4713F7E7FF8327C4FE8A
:105AC00098C70100724405618280011122CE001046
:105AD0002326A4FE8327C4FE9C4713E78700832761
