:100000006F70B06F130000001300000013000000B9
:100010001300000013000000130000001300000094
:100020001300000013000000130000001300000084
:08003000130000007300100032
:1000380000000000000000003C7D00004C7D000036
:1000480000000000407E00000000000000000000EA
:10005800427E0000447E0000000000000000000016
:10006800467E000000000000487E000000000000FE
:100078004A7E00004C7E00004E7E0000507E00004C
:10008800527E0000547E0000C073000034740000EB
:10009800A87400001C75000090750000607E0000C8
:1000A800627E0000647E0000667E0000687E0000BC
:1000B8006A7E00006C7E00006E7E0000707E00008C
:1000C800727E0000747E0000767E000004760000D8
:1000D8007A7E0000C07700007E7E0000807E0000EF
:1000E80054780000CC780000CC790000887E0000AD
:1000F8008A7E00008C7E00008E7E0000907E0000CC
:10010800927E0000126F0000966F00001A700000C7
:10011800DC7600009C7E00009E7E0000A07E000031
:10012800C47B0000A47E0000A67E0000A87E00001C
:10013800AA7E0000AC7E00004C7A0000B07E000071
:100148009E70000022710000CC7A0000447B000001
:10015800BA7E0000BC7E0000BE7E0000C07E0000AB
:10016800C27E0000C47E0000C67E0000C87E00007B
:10017800CA7E0000CC7E0000CE7E000070A5000084
:10018800D27E0000D47E000030730000A47100000D
:1001980028720000B0720000DE7E0000447C00007F
:1001A800E27E0000E47E0000E67E0000C47C0000E1
:1001B800EA7E0000EC7E0000EE7E0000F07E00008B
:1001C800F27E0000F47E0000F67E0000F87E00005B
:1001D8000000000000000000000000000000000017
:1001E8000000000000000000000000000000000007
:0801F8000000000000000000FF
:100200003D432A876373C3029377F700BDEFADE5E3
:10021000937606FF3D8ABA960CC34CC30CC74CC7F5
:100220004107E36BD7FE11E28280B306C3408A0622
:100230009702000096966780A6002307B700A306E2
:10024000B7002306B700A305B7002305B700A30432
:10025000B7002304B700A303B7002303B700A3022A
:10026000B7002302B700A301B7002301B700A30022
:10027000B7002300B700828093F5F50F93968500B1
:10028000D58D93960501D58D61B79396270097027A
:10029000000096968682E78086FA9680C1171D8FA9
:1002A0003E96E374C3F8A5B7797106D622D4001838
:1002B000232EA4FC8327C4FDB18393F7F70FBD8BD6
:1002C000A307F4FE8327C4FDA18393F7F70FBD8B2B
:1002D0002307F4FE0347F4FEB70700200A079387BD
:1002E000876CBA979C430347E4FE91460546BA855E
:1002F0003E85EF70B0710347F4FEB70700200A0790
:100300009387876CBA979C4385453E85EF70D06B89
:1003100001000347F4FEB70700200A079387876CA4
:10032000BA979C4389453E85EF80C012AA87F5D3D2
:100330000347F4FEB70700200A079387876CBA9734
:100340009C43FC478346F4FE138781893697034715
:100350000700B3D7E700C207C1833E85B2502254DD
:1003600045618280797106D622D40018232EA4FC20
:10037000AE87A30DF4FC0347B4FD13060005B727B1
:1003800002009385875D3A85EF50E07A232404FECE
:10039000A30704FE05A00325C4FD3937AA873E87BD
:1003A000832784FEBA972324F4FE8347F4FE85074F
:1003B000A307F4FE0347F4FE8347B4FDE36DF7FCA7
:1003C0008347B4FD032784FEB357F7022324F4FECA
:1003D000832784FEC207C1833E85B2502254456103
:1003E00082805D7186C6A2C48008232EA4FA232CC5
:1003F000B4FA232604FC232804FC232A04FC232C1F
:1004000004FC232E04FC232004FE232204FE2324C8
:1004100004FE8327C4FBB18393F7F70FBD8BA307BB
:10042000F4FE8327C4FB93F7F70F8146014681450D
:100430003E85EF00D0288347F4FE99E785451305F4
:100440000020EF80702719A80347F4FE8547631743
:10045000F700854513050040EF8010260145EF8029
:10046000E0740347F4FEB70700200A079387876C00
:10047000BA979C433E85EF70F030232604FC232876
:1004800004FC232A04FCB7070E00232CF4FC232EC3
:1004900004FC85472300F4FE0347F4FEB707002061
:1004A0000A079387876CBA979C431307C4FCBA85E5
:1004B0003E85EF7030330347F4FEB70700200A078C
:1004C0009387876CBA979C4385453E85EF70B04112
:1004D0000347F4FEB70700200A079387876CBA9793
:1004E0009C4381453E85EF70907A0347F4FEB70741
:1004F00000200A079387876CBA979C433E85EF706C
:10050000704201000347F4FEB70700200A079387F3
:10051000876CBA979C433E85EF70F042AA87FDF343
:100520000347F4FEB70700200A079387876CBA9742
:100530009C433E85EF70304401000347F4FEB7074B
:1005400000200A079387876CBA979C433E85EF701B
:10055000B044AA87FDF38346F4FE832784FB13F798
:10056000F70F93878189B6972380E7000100B64093
:10057000264461618280011122CE00102326A4FE50
:100580002324B4FEB1A0B7F700E023A00700B7F71B
:1005900000E0814501468CC7D0C7B7F700E00546AB
:1005A00090C30100B7F700E003A8C7009C470326EB
:1005B000C4FEB2860147C2853A86636BB600C28527
:1005C0003A86E391C5FE3E86B68763E3C700D9BF8E
:1005D000832784FE1386F7FF2324C4FECDF7010092
:1005E000724405618280797106D622D40018232EC8
:1005F000A4FC231704FE231604FE0327C4FDA5470D
:1006000063E1E70C8327C4FD13972700B737020087
:100610009387C763BA979C438287B7370140938714
:1006200007C083D74702C207C1832317F4FE69A816
:10063000B707004083D74702C207C1832317F4FEE0
:1006400061A0B70700409387074083D74702C207DE
:10065000C1832317F4FE8DA8B71700409387078046
:1006600083D74702C207C1832317F4FEB1A8B71787
:100670000040938707C083D74702C207C18323176F
:10068000F4FE99A0B73701409387074083D747020C
:10069000C207C1832317F4FE05A8B757014093870B
:1006A00007C083D74702C207C1832317F4FE29A8D6
:1006B000B757014083D74702C207C1832317F4FE0F
:1006C00021A0231704FE0100B707002013870700AD
:1006D0008327C4FDBA9783C7070013F7F70F930763
:1006E000F00F6317F7008357E4FE2316F4FE35A8D6
:1006F000B7070020138707008327C4FDBA9783C775
:10070000070093F7F70F3E85EF004077AA8791EB3C
:100710008357E4FEB307F040C207C1832316F4FEFB
:1007200029A08357E4FE2316F4FE8317C4FE3E85FA
:10073000B250225445618280011122CE001023263E
:10074000A4FE0327C4FEA54763E1E7088327C4FE90
:1007500013972700B737020093874766BA979C43E1
:100760008287B7370140938707C023920702B9A851
:10077000B70700402392070291A8B707004093876C
:1007800007402392070299A0B7170040938707807C
:100790002392070225A8B7170040938707C023922A
:1007A00007022DA0B7370140938707402392070225
:1007B00031A8B7570140938707C02392070239A099
:1007C000B75701402392070211A0010001007244B3
:1007D00005618280397106DE22DC80002326A4FCBC
:1007E0002324B4FC2322C4FC232604FE91450325C4
:1007F000C4FCEF20802CAA873E871306100DB72774
:100800000200938547633A85EF50E0328327C4FCAA
:100810001397C700832784FC7D8F8327C4FCB2070E
:10082000B307F74093B7170093F7F70F3E87130608
:10083000200DB7270200938547633A85EF50A02F1C
:100840008327C4FC1397C700832744FC7D8F83272D
:10085000C4FCB207B307F74093B7170093F7F70F3D
:100860003E871306300DB7270200938547633A850C
:10087000EF50602C0325C4FCEF20802A832784FCE2
:1008800093F7F70F93068004014681453E85052DB9
:10089000832744FC93F7F70F9306800401468145B4
:1008A0003E85312D832784FC13F7F70FB70700200F
:1008B000938607008327C4FCB6972380E7000327AD
:1008C000C4FCA54763E1E7088327C4FC139727000E
:1008D000B73702009387C768BA979C438287B737B8
:1008E0000140938707C02324F4FE8DA0B707004082
:1008F0002324F4FEA1A8B7070040938707402324D0
:10090000F4FEA9A0B7170040938707802324F4FEC4
:1009100035A8B7170040938707C02324F4FE3DA0F5
:10092000B7370140938707402324F4FE05A0B7574B
:100930000140938707C02324F4FE09A8B75701405C
:100940002324F4FE21A085472326F4FE8545054592
:10095000EF808056832784FC13D787008D47631A66
:10096000F7008545B70716001385070CEF80800751
:10097000E5A8832784FC13D78700C547631AF700CF
:100980008545B707180013850710EF80A005E9A873
:10099000832784FC13D7870093072002631AF7008C
:1009A0008545B7171A0013850780EF80A0036DA84F
:1009B000832784FC13D7870093073002631AF7005C
:1009C0008545B7171A00138507C0EF80A00169A8F5
:1009D000832784FC13D78700930710036317F7005E
:1009E00085450565EF80000041A0832784FC13D76F
:1009F000870093071007631AF7008545B707008043
:100A000013854700EF70107E85A0832784FC13D7E1
:100A1000870093073008631AF7008545B7071380EE
:100A200013850701EF70107C81A0832784FC13D706
:100A3000870093071009631AF7008545B7071580EB
:100A400013850702EF70107A05A0832784FC13D763
:100A50008700930730096319F7008545B7071580AC
:100A600013850704EF7010788327C4FEA9EB232EAB
:100A700004FC232004FE231204FE9307C4FD3E85DC
:100A8000EF807076231E04FCFD572310F4FE231123
:100A900004FE231F04FC230204FE9307C4FDBE854D
:100AA000032584FEEF80406F93050006032584FE36
:100AB000EF90A0098545032584FEEF809076010024
:100AC000F250625421618280797106D622D40018D6
:100AD000232EA4FC232CB4FC8327C4FD93B7070466
:100AE00093F7F70F3E8713067003B727020093852D
:100AF00047693A85EF502004832784FD93B7470068
:100B000093F7F70F3E8713068003B72702009385FC
:100B100047693A85EF502002A30704FE0327C4FD6E
:100B2000A167BA9713972700832784FDBA97AA076E
:100B30002324F4FE231604FE35A00357C4FE8327A6
:100B400084FEBA979843B7E739E3938797336306F0
:100B5000F7008547A307F4FE21A88357C4FE910739
:100B60002316F4FE0357C4FE9307F03FE3F7E7FCB8
:100B70008347F4FE3E85B2502254456182807971EC
:100B800006D622D40018232EA4FC232CB4FC8327E1
:100B9000C4FD93B7070493F7F70F3E87130640058C
:100BA000B7270200938547693A85EF40D0788327BD
:100BB00084FD93B7470093F7F70F3E871306500560
:100BC000B7270200938547693A85EF40D076A3079F
:100BD00004FE0327C4FDA167BA9713972700832754
:100BE00084FDBA97AA072324F4FEEF70F0151305CD
:100BF0004003EF70302C032584FEEF7070192A87B4
:100C0000B707002023A8E76C13050002EF70902AB5
:100C1000EF703016B707002003A7076D91476305F3
:100C2000F7008547A307F4FE8347F4FE3E85B250E4
:100C3000225445618280797106D622D40018232E71
:100C4000A4FC232CB4FC8327C4FD93B7070493F7BB
:100C5000F70F3E871306800BB7270200938547697D
:100C60003A85EF40506D832784FD93B7470093F793
:100C7000F70F3E871306900BB7270200938547694D
:100C80003A85EF40506B0327C4FDA167BA971397CD
:100C90002700832784FDBA97AA072324F4FE23178D
:100CA00004FE3DA08357E4FE8A073E87832784FE27
:100CB000BA978356E4FE9843B71700208A069387B5
:100CC000C78AB69798C38357E4FE85072317F4FEB7
:100CD0000357E4FE9307F00FE3F6E7FC0100B25080
:100CE000225445618280797106D622D40018232EC1
:100CF000A4FC232CB4FC8327C4FD93B7070493F70B
:100D0000F70F3E871306D00CB7270200938547697B
:100D10003A85EF405062832784FD93B7470093F7ED
:100D2000F70F3E871306E00CB7270200938547694B
:100D30003A85EF405060A30704FE232404FE2313EA
:100D400004FE0327C4FDA167BA97139727008327E2
:100D500084FDBA97AA072324F4FE832584FD032586
:100D6000C4FD9D33AA8791C7832584FD0325C4FD57
:100D70003935EF70607DA9A0035764FEB7170020D6
:100D80000A079387C78ABA979C43BE85032584FECA
:100D9000EF7070072A8723A6E18003A7C1809147DF
:100DA0006306F7008547A307F4FE0DA0835764FE92
:100DB00085072313F4FE832784FE91072324F4FE82
:100DC000035764FE9307F00FE3F8E7FAEF70607AD9
:100DD0008347F4FE3E85B250225445618280411122
:100DE00006C622C40008130600409305F00FB7178B
:100DF00000201385C78AEFF0AFC00100B240224443
:100E000041018280011122CE00102326A4FEAE876C
:100E1000A305F4FE8347B4FE85CB8327C4FEBD8BB8
:100E20000547B317F70093960701C1828327C4FED5
:100E300013D75700B70700200A079387C700BA9750
:100E40009C43368798CB3DA08327C4FEBD8B0547C6
:100E5000B317F70093960701C1828327C4FE13D707
:100E60005700B70700200A079387C700BA979C432B
:100E70003687D8CB0100724405618280011122CEF1
:100E800000102326A4FE8327C4FE958313F7770062
:100E9000B70700200A079387C700BA979C439C476F
:100EA0000327C4FE7D8B85463397E600F98FB33761
:100EB000F00093F7F70F3E857244056182807971E7
:100EC00006D622D40018232EA4FC232CB4FCB2870F
:100ED0002328D4FCA30BF4FC232004FE232204FECD
:100EE000232404FE8327C4FD958393F7F70F9D8B7E
:100EF000A307F4FE8327C4FD93F7F70FFD8B2307A9
:100F0000F4FE8347F4FE91E785451145EF70D07AF2
:100F100091A80347F4FE85476317F70085452145EF
:100F2000EF70907981A00347F4FE89476317F700BB
:100F300085454145EF70507835A00347F4FE8D4755
:100F40006318F700854513050002EF70F07619A8C5
:100F50000347F4FE91476317F70085451305000426
:100F6000EF7090758347E4FE0547B317F700C2079B
:100F7000C1832310F4FE032784FD85476317F7021E
:100F8000832704FDC207C183A183C207C18389E708
:100F90008D472322F4FE11A8832704FDC207C183D5
:100FA000A183C207C1832322F4FE832704FDC20765
:100FB000C18393F7F70F2324F4FE0347F4FEB7072A
:100FC00000200A079387C700BA979C43130704FEC3
:100FD000BA853E85EF70E07A032784FD8547631963
:100FE000F7020347F4FEB70700200A079387C700FC
:100FF000BA9794438347E4FE0547B317F700C20747
:10100000C183034774FD3A86BE853685EF70101A9A
:101010000100B2502254456182801D7186CEA2CC5F
:1010200080102326A4FA2324B4FA85450325C4FAA4
:10103000EF10B028AA873E871306D006B727020014
:10104000938587713A85EF40102F832784FAB33751
:10105000F00093F7F70F3E871306F006B72702005C
:10106000938587713A85EF40102D832784FABD83DD
:101070002315F4FE8357A4FE85073E87832784FA51
:10108000B3D7E7022314F4FE0325C4FAEF10502966
:10109000B7370140938707C02326F4FE0327C4FA1D
:1010A000A54763EDE7088327C4FA13972700B737EE
:1010B00002009387476BBA979C438287B7370140FA
:1010C000938707C02326F4FE95A8B7070040232680
:1010D000F4FEADA0B7070040938707402326F4FE37
:1010E000B1A8B7170040938707802326F4FEB9A064
:1010F000B7170040938707C02326F4FE81A0B717D7
:1011000000402326F4FE1DA8B71700409387074030
:101110002326F4FE25A0B7370140938707402326F6
:10112000F4FE29A8B7570140938707C02326F4FE91
:1011300031A0B75701402326F4FE0100232E04FC02
:10114000232004FE231204FE835784FE2310F4FEA2
:101150008357A4FE231EF4FC231104FE231F04FC6A
:10116000230204FE9307C4FDBE850325C4FEEF8061
:10117000A002054685450325C4FEEF80101685456F
:101180000325C4FEEF80B055B727020003AE076FFA
:101190001387076F032347001387076F8328870090
:1011A0001387076F0328C7001387076F084B138740
:1011B000076F4C4B1387076F104F1387076F544F00
:1011C0001387076F18539387076FDC53232AC4FBD9
:1011D000232C64FA232E14FB232004FD2322A4FCD9
:1011E0002324B4FC2326C4FC2328D4FC232AE4FCB7
:1011F000232CF4FC8327C4FA93F7F70F8A0713070D
:1012000004FFBA9783A747FC8D453E85EF50704693
:101210008327C4FA8A07130704FFBA9783A747FCFA
:101220003E85EF50504185450325C4FEEF80607F29
:101230000100F640664425618280797106D622D489
:101240000018232EA4FC232CB4FC032784FD8967FB
:1012500093871771B337F70093F7F70F3E8713069D
:101260005003B7270200938547773A85EF40B00CCB
:10127000B7370140938707C02326F4FE8327C4FDB8
:10128000C183BD8B2547636FF70613972700B737D8
:1012900002009387C76DBA979C438287B737014096
:1012A000938707C02326F4FEB1A8B7070040232682
:1012B000F4FE89A8B7070040938707402326F4FE71
:1012C00091A0B7170040938707802326F4FE1DA83E
:1012D000B7170040938707C02326F4FE25A0B73731
:1012E0000140938707402326F4FE29A8B757014001
:1012F000938707C02326F4FE31A0B7570140232669
:10130000F4FE01008327C4FE83D7C7022315F4FE31
:101310000357A4FE832784FD3307F7028967938769
:101320000771B357F7022314F4FE8327C4FDA1838A
:101330008D8B81EB8327C4FE035784FE239AE7023B
:10134000A9A88327C4FDA18313F737008547631934
:10135000F7008327C4FE035784FE239CE70235A8C9
:101360008327C4FDA18313F7370089476319F7006A
:101370008327C4FE035784FE239EE70239A88327F0
:10138000C4FDA18313F737008D476318F700832747
:10139000C4FE035784FE2390E7040100B250225498
:1013A000456182805D7186C6A2C48008232EA4FA9E
:1013B000232CB4FA232AC4FA8327C4FBC1838D45A6
:1013C0003E85EF10806FAA873E871306D00AB727A5
:1013D0000200938547773A85EF40E075032744FB89
:1013E000896793871771B337F70093F7F70F3E8735
:1013F0001306F00AB7270200938547773A85EF4036
:101400008073232E04FC232004FE231204FE2326D3
:1014100004FC232804FC232A04FC232C04FC2315AD
:1014200004FE8327C4FBC183BD8B3E85EF10406F54
:101430008327C4FB93F7F70F930680310146854558
:101440003E85B53C85450545EF701027B73701400F
:10145000938707C02326F4FE8327C4FBC183BD8B7B
:101460002547636FF70613972700B7370200938766
:101470004770BA979C438287B7370140938707C06C
:101480002326F4FEB1A8B70700402326F4FE89A85E
:10149000B7070040938707402326F4FE91A0B717B3
:1014A0000040938707802326F4FE1DA8B71700404D
:1014B000938707C02326F4FE25A0B7370140938702
:1014C00007402326F4FE29A8B7570140938707C099
:1014D0002326F4FE31A0B75701402326F4FE010075
:1014E0008327C4FB13D7C7008D47631AF7008545D0
:1014F000B70716001385070CEF70C04E15AA832797
:10150000C4FB13D7C700C547631AF7008545B70763
:10151000180013850710EF70E04C19AA8327C4FB4D
:1015200013D7C700C947631AF7008545B7071800E6
:1015300013850720EF70004BE5A88327C4FB13D762
:10154000C700CD47631AF7008545B7071800138514
:101550000730EF702049E9A88327C4FB13D7C700E1
:1015600093072002631AF7008545B7171A00138501
:101570000780EF7020476DA88327C4FB13D7C700EF
:1015800093073002631AF7008545B7171A001385D1
:1015900007C0EF70204569A88327C4FB13D7C70095
:1015A000930710036317F70085450565EF708043C7
:1015B00041A08327C4FB13D7C70093071007631A02
:1015C000F7008545B707008013854700EF7080411D
:1015D00085A08327C4FB13D7C70093073008631A7D
:1015E000F7008545B707138013850701EF70803F2B
:1015F00081A08327C4FB13D7C70093071009631A80
:10160000F7008545B707158013850702EF70803D09
:1016100005A08327C4FB13D7C700930730096319BC
:10162000F7008545B707158013850704EF70803BE9
:1016300003A78181832784FBB357F702C183231556
:10164000F4FE03A781818357A4FE8507BE86832706
:1016500084FBB387F602B357F7022314F4FE035753
:1016600084FE832744FB3307F7028967938707715A
:10167000B357F7022313F4FE835784FEFD17C20706
:10168000C1832310F4FE8357A4FE231EF4FC231110
:1016900004FE231F04FC230204FE9307C4FDBE8541
:1016A0000325C4FEEF70502F930700072316F4FCA8
:1016B00085472317F4FC231804FC835764FE231981
:1016C000F4FC8947231AF4FC8947231BF4FC231CF0
:1016D00004FC231D04FC8327C4FBA1838D8B9DE3A5
:1016E0009307C4FCBE850325C4FEEF70D042A1451C
:1016F0000325C4FEEF80A04E91450325C4FEEF8074
:10170000C06245A08327C4FBA18313F73700854738
:101710006315F7029307C4FCBE850325C4FEEF7072
:101720005059A1450325C4FEEF8020509305004089
:101730000325C4FEEF802064ADA08327C4FBA183F2
:1017400013F7370089476314F7029307C4FCBE857B
:101750000325C4FEEF701074A1450325C4FEEF807D
:10176000605291450325C4FEEF8040661DA8832783
:10177000C4FBA18313F737008D476314F702930767
:10178000C4FCBE850325C4FEEF80800EA145032561
:10179000C4FEEF80E053930500400325C4FEEF80B4
:1017A000A06785450325C4FEEF80202D85450325D0
:1017B000C4FEEF8000270100B640264461618280AC
:1017C000797106D622D40018232EA4FC8327C4FDE9
:1017D000B337F00093F7F70F3E8713061004B727CF
:1017E00002009385077D3A85EF40E0348327C4FDEE
:1017F0009C43BD8B0547B317F70093960701C18241
:101800008327C4FD9C4313D75700B70700200A075E
:101810009387C700BA979C43368798CB8327C4FD2C
:10182000DC43BD8B0547B317F70093960701C182D0
:101830008327C4FDDC4313D75700B70700200A07EE
:101840009387C700BA979C43368798CB8327C4FDFC
:10185000DC472326F4FE01008327C4FE1387F7FF2D
:101860002326E4FEF5FB8327C4FDDC43BD8B05473F
:10187000B317F70093960701C1828327C4FDDC43A9
:1018800013D75700B70700200A079387C700BA97F6
:101890009C433687D8CB8327C4FDDC472324F4FE42
:1018A0000100832784FE1387F7FF2324E4FEF5FB62
:1018B0008327C4FD9C43BD8B0547B317F700939660
:1018C0000701C1828327C4FD9C4313D75700B70784
:1018D00000200A079387C700BA979C433687D8CB66
:1018E0000100B250225445618280797106D622D41B
:1018F0000018232EA4FC8327C4FDB337F00093F710
:10190000F70F3E8713064005B72702009385077D32
:101910003A85EF4040228327C4FDDC43BD8B054759
:10192000B317F70093960701C1828327C4FDDC43F8
:1019300013D75700B70700200A079387C700BA9745
:101940009C433687D8CB8327C4FD9C43BD8B05477A
:10195000B317F70093960701C1828327C4FD9C4308
:1019600013D75700B70700200A079387C700BA9715
:101970009C433687D8CB8327C4FDDC472326F4FE5F
:1019800001008327C4FE1387F7FF2326E4FEF5FB3F
:101990008327C4FD9C43BD8B0547B317F70093967F
:1019A0000701C1828327C4FD9C4313D75700B707A3
:1019B00000200A079387C700BA979C43368798CBC5
:1019C0008327C4FDDC472324F4FE0100832784FE23
:1019D0001387F7FF2324E4FEF5FB8327C4FDDC43D4
:1019E000BD8B0547B317F70093960701C182832784
:1019F000C4FDDC4313D75700B70700200A079387BD
:101A0000C700BA979C43368798CB8327C4FDDC4731
:101A10002322F4FE0100832744FE1387F7FF2322CD
:101A2000E4FEF5FB0100B2502254456182807971D9
:101A300006D622D40018232EA4FCAE87A30DF4FCF6
:101A40008327C4FDB337F00093F7F70F3E871306E3
:101A50009006B72702009385077D3A85EF40A00DD9
:101A60008327C4FD9C43BD8B0547B317F7009396AE
:101A70000701C1828327C4FD9C4313D75700B707D2
:101A800000200A079387C700BA979C433687D8CBB4
:101A90008347B4FD95CB8327C4FDDC43BD8B05474D
:101AA000B317F70093960701C1828327C4FDDC4377
:101AB00013D75700B70700200A079387C700BA97C4
:101AC0009C43368798CB0DA88327C4FDDC43BD8B90
:101AD0000547B317F70093960701C1828327C4FD1A
:101AE000DC4313D75700B70700200A079387C700C6
:101AF000BA979C433687D8CB8327C4FDDC4723267F
:101B0000F4FE01008327C4FE1387F7FF2326E4FEBB
:101B1000F5FB8327C4FD9C43BD8B0547B317F70036
:101B200093960701C1828327C4FD9C4313D75700B6
:101B3000B70700200A079387C700BA979C433687E8
:101B400098CB8327C4FDDC472324F4FE01008327C0
:101B500084FE1387F7FF2324E4FEF5FB8327C4FDEF
:101B60009C43BD8B0547B317F70093960701C182CD
:101B70008327C4FD9C4313D75700B70700200A07EB
:101B80009387C700BA979C433687D8CB8327C4FD79
:101B9000DC43BD8B0547B317F70093960701C1825D
:101BA0008327C4FDDC4313D75700B70700200A077B
:101BB0009387C700BA979C43368798CB0100B250F1
:101BC000225445618280797106D622D40018232ED2
:101BD000A4FC8327C4FDB337F00093F7F70F3E87CB
:101BE00013065008B72702009385077D3A85EF302A
:101BF0009074A30704FE8327C4FD9C43BD8B054757
:101C0000B317F70093960701C1828327C4FD9C4355
:101C100013D75700B70700200A079387C700BA9762
:101C20009C433687D8CB8327C4FDDC43BD8B054757
:101C3000B317F70093960701C1828327C4FDDC43E5
:101C400013D75700B70700200A079387C700BA9732
:101C50009C43368798CB8327C4FDDC472324F4FEBE
:101C60000100832784FE1387F7FF2324E4FEF5FB9E
:101C70008327C4FD9C43BD8B0547B317F70093969C
:101C80000701C1828327C4FD9C4313D75700B707C0
:101C900000200A079387C700BA979C43368798CBE2
:101CA0008327C4FDDC472322F4FE0100832744FE82
:101CB0001387F7FF2322E4FEF5FB8327C4FDDC43F3
:101CC0003E85EFF0AF9BAA8781C78547A307F4FE47
:101CD0008327C4FD9C43BD8B0547B317F70093963C
:101CE0000701C1828327C4FD9C4313D75700B70760
:101CF00000200A079387C700BA979C433687D8CB42
:101D00008327C4FDDC472320F4FE0100832704FE63
:101D10001387F7FF2320E4FEF5FB8347F4FE3E859F
:101D2000B250225445618280797106D622D40018BF
:101D3000232EA4FCAE87A30DF4FC8327C4FDB33788
:101D4000F00093F7F70F3E871306700AB7270200DB
:101D50009385077D3A85EF30105E930700F8A3075F
:101D6000F4FE09AA0347B4FD8347F4FEF98F93F705
:101D7000F70F95CB8327C4FDDC43BD8B0547B31715
:101D8000F70093960701C1828327C4FDDC4313D774
:101D90005700B70700200A079387C700BA979C43EC
:101DA000368798CB0DA88327C4FDDC43BD8B054740
:101DB000B317F70093960701C1828327C4FDDC4364
:101DC00013D75700B70700200A079387C700BA97B1
:101DD0009C433687D8CB8347F4FE8583A307F4FE64
:101DE0008327C4FDDC472324F4FE0100832784FEFF
:101DF0001387F7FF2324E4FEF5FB8327C4FD9C43F0
:101E0000BD8B0547B317F70093960701C18283275F
:101E1000C4FD9C4313D75700B70700200A079387D8
:101E2000C700BA979C43368798CB8327C4FDDC470D
:101E30002322F4FE0100832744FE1387F7FF2322A9
:101E4000E4FEF5FB8327C4FD9C43BD8B0547B31718
:101E5000F70093960701C1828327C4FD9C4313D7E3
:101E60005700B70700200A079387C700BA979C431B
:101E70003687D8CB8347F4FEE39607EE0325C4FDEF
:101E80009933AA87FD17B337F00093F7F70F3E8514
:101E9000B250225445618280397106DE22DC26DA96
:101EA00080002326A4FCAE87A305F4FC8327C4FC92
:101EB000B337F00093F7F70F3E871306000CB727F0
:101EC00002009385077D3A85EF30F046A30704FEB4
:101ED000A1472307F4FE8327C4FC9C43BD8B054721
:101EE000B317F70093960701C1828327C4FC9C4374
:101EF00013D75700B70700200A079387C700BA9780
:101F00009C433687D8CB8327C4FCDC472324F4FECC
:101F10000100832784FE1387F7FF2324E4FEF5FBEB
:101F20008327C4FCDC43BD8B0547B317F7009396AA
:101F30000701C1828327C4FCDC4313D75700B707CE
:101F400000200A079387C700BA979C43368798CB2F
:101F50007DA88327C4FC9C43BD8B0547B317F700BE
:101F600093960701C1828327C4FC9C4313D7570073
:101F7000B70700200A079387C700BA979C433687A4
:101F8000D8CB8327C4FCDC472322F4FE010083273F
:101F900044FE1387F7FF2322E4FEF5FB8327C4FCEE
:101FA0009C43BD8B0547B317F70093960701C18289
:101FB0008327C4FC9C4313D75700B70700200A07A8
:101FC0009387C700BA979C43368798CB8327C4FC76
:101FD000DC472320F4FE0100832704FE1387F7FF6C
:101FE0002320E4FEF5FB8347F4FE860793948701E4
:101FF000E1848327C4FCDC433E85EFE03FE8AA8709
:10200000E207E187C58FE207E187A307F4FE834774
:10201000E4FE1387F7FF2307E4FE85FF8327C4FC54
:102020009C43BD8B0547B317F70093960701C18208
:102030008327C4FC9C4313D75700B70700200A0727
:102040009387C700BA979C433687D8CB8327C4FCB5
:10205000DC47232EF4FC01008327C4FD1387F7FF20
:10206000232EE4FCF5FB8347B4FCBE850325C4FCAA
:10207000EFF0FF9B8347F4FE3E85F2506254D2544A
:1020800021618280011106CE22CC00102326A4FEFD
:10209000AE873287A305F4FEBA872305F4FE8327B3
:1020A000C4FEB337F00093F7F70F3E8713066013B3
:1020B000B72702009385077D3A85EF30D0270325A7
:1020C000C4FEEFF0EFEF8327C4FE83C787008607C7
:1020D00093F7F70FBE850325C4FEB9318347B4FEDD
:1020E000BE850325C4FE89318347A4FEBE85032532
:1020F000C4FE1D390325C4FEEFF02FFF0100F2409E
:10210000624405618280797106D622D40018232E9C
:10211000A4FCAE87A30DF4FC8327C4FDB337F00005
:1021200093F7F70F3E871306401EB72702009385EB
:10213000077D3A85EF303020A30704FE0325C4FD58
:10214000EFF00FE88327C4FD83C78700860793F766
:10215000F70FBE850325C4FDC13E8347B4FDBE8590
:102160000325C4FDD1360325C4FDEFF06FE58327B9
:10217000C4FD83C787008607E207E18793E717005E
:10218000E207E18793F7F70FBE850325C4FD693E9B
:1021900085450325C4FD0933AA87A307F4FE03255B
:1021A000C4FDEFF08FF48347F4FE3E85B250225415
:1021B00045618280011106CE22CC26CA001023265A
:1021C000A4FEAE872322C4FE2320D4FEA305F4FE82
:1021D0008327C4FEB337F00093F7F70F3E8713064B
:1021E000C01FB72702009385077D3A85EF30B014F2
:1021F000832744FEB337F00093F7F70F3E871306AB
:10220000D01FB72702009385077D3A85EF30B012C3
:102210000325C4FEEFF0CFDA8327C4FE83C787000F
:10222000860793F7F70FBE850325C4FEF53C834769
:10223000B4FEBE850325C4FEC53C0325C4FEEFF0F5
:102240002FD88327C4FE83C787008607E207E1876C
:1022500093E71700E207E18793F7F70FBE850325A1
:10226000C4FED9342DA0832704FE93B7170093F73B
:10227000F70F3E87832444FE938714002322F4FE45
:10228000BA850325C4FE0939AA872380F400832771
:1022900004FE1387F7FF2320E4FEF1F70325C4FEB5
:1022A000EFF0AFE40100F2406244D2440561828065
:1022B000797106D622D40018232EA4FCAE87A30D74
:1022C000F4FC8327C4FDB337F00093F7F70F3E8784
:1022D0001306D029B72702009385077D3A85EF3092
:1022E0009005A30704FE0325C4FDEFF06FCD8327FF
:1022F000C4FD83C78700860793F7F70FBE850325C4
:10230000C4FDEFF07FA28347B4FDBE850325C4FD65
:10231000EFF09FA10325C4FDEFF02FDD0325C4FDE1
:10232000EFF00FCA8327C4FD83C787008607E20743
:10233000E18793E71700E207E18793F7F70FBE8580
:102340000325C4FDEFF05F9E85450325C4FDA93636
:10235000AA87A307F4FE0325C4FDEFF00FD9834736
:10236000F4FE3E85B250225445618280797106D6D2
:1023700022D400182326A4FEAE872322C4FE2320E5
:10238000D4FE232EE4FCA305F4FE8327C4FEB3375A
:10239000F00093F7F70F3E871306802BB727020054
:1023A0009385077D3A85EF300079032704FE832764
:1023B000C4FDB307F740B337F00093F7F70F3E873C
:1023C0001306902BB72702009385077D3A85EF30DF
:1023D00080768327C4FE032704FE98C38327C4FEA8
:1023E0000327C4FDD8C38327C4FE0347B4FE238458
:1023F000E7008327C4FE032744FED8C7C14605462D
:102400008545032504FEEFE09FABD1460546854593
:102410000325C4FDEFE0BFAA0100B250225445617C
:102420008280011122CE00102326A4FEAE87A305D0
:10243000F4FEB73702000327C4FE0A079387C7726A
:10244000BA979C433E878347B4FEC207C1832316D5
:10245000F7000100B73702000327C4FE0A0793877D
:10246000C772BA979C4383D78700C207C18393F78B
:102470000708EDF3B73702000327C4FE0A07938766
:10248000C772BA979C4383D7C700010072440561A5
:102490008280011122CE00102326A4FEAE872315D0
:1024A000F4FE8357A4FEA183C207C18393F6F70FFE
:1024B000B73702000327C4FE0A079387C772BA978B
:1024C0009C433E8793970601C1832316F7000100C2
:1024D000B73702000327C4FE0A079387C772BA976B
:1024E0009C4383D78700C207C18393F70708EDF3A6
:1024F0008357A4FE93F6F70FB73702000327C4FEF5
:102500000A079387C772BA979C433E879397060141
:10251000C1832316F7000100B73702000327C4FE6A
:102520000A079387C772BA979C4383D78700C2076D
:10253000C18393F70708EDF30100724405618280BF
:10254000011122CE00102326A4FEAE873287A305F8
:10255000F4FEBA872305F4FEB73702000327C4FE52
:102560000A079387C772BA979C433E878347B4FE96
:10257000C207C1832316F7000100B7370200032703
:10258000C4FE0A079387C772BA979C4383D7870014
:10259000C207C18393F70708EDF3B737020003279B
:1025A000C4FE0A079387C772BA979C4383D7C700B4
:1025B000B73702000327C4FE0A079387C772BA978A
:1025C0009C433E878347A4FEC207C1832316F700BE
:1025D0000100B73702000327C4FE0A079387C772BA
:1025E000BA979C4383D78700C207C18393F7070834
:1025F000EDF3B73702000327C4FE0A079387C772BB
:10260000BA979C4383D7C70001007244056182805A
:10261000011122CE00102326A4FEAE872322C4FE81
:102620002320D4FEA305F4FEB73702000327C4FE1F
:102630000A079387C772BA979C433E878347B4FEC5
:10264000C207C1832316F7000100B7370200032732
:10265000C4FE0A079387C772BA979C4383D7870043
:10266000C207C18393F70708EDF389A8832744FEC7
:10267000138717002322E4FE83C60700B737020042
:102680000327C4FE0A079387C772BA979C433E8705
:1026900093970601C1832316F7000100B7370200A4
:1026A0000327C4FE0A079387C772BA979C4383D750
:1026B0008700C207C18393F70708EDF3832704FE61
:1026C0001387F7FF2320E4FED5F301007244056170
:1026D0008280011122CE00102326A4FEAE87232281
:1026E000C4FE2320D4FEA305F4FEB737020003275F
:1026F000C4FE0A079387C772BA979C433E878347F5
:10270000B4FEC207C1832316F7000100B7370200E9
:102710000327C4FE0A079387C772BA979C4383D7DF
:102720008700C207C18393F70708EDF3B7370200AC
:102730000327C4FE0A079387C772BA979C4383D7BF
:10274000C700ADA0B73702000327C4FE0A0793876E
:10275000C772BA979C43239607000100B73702005F
:102760000327C4FE0A079387C772BA979C4383D78F
:102770008700C207C18393F70708EDF3B73702005C
:102780000327C4FE0A079387C772BA979C4383D76F
:10279000C70093960701C182832744FE1387170061
:1027A0002322E4FE13F7F60F2380E700832704FEBD
:1027B0001387F7FF2320E4FED1F70100724405617F
:1027C00082805D7186C6A2C480082326A4FC2324CF
:1027D000B4FC2322C4FC2320D4FC232EE4FA232CB3
:1027E000F4FA232A04FBB73702000327C4FC0A07C4
:1027F0009387C772BA979C433E85EF60607D85459D
:102800000545EF60606B032704FC930730126313E8
:10281000F702032784FB93074012631DF700032789
:10282000C4FB930750126317F70085450545EF6019
:10283000601B1DA8032704FC89679387A7146315F1
:10284000F702032784FB89679387B714631EF70099
:102850000327C4FB89679387C7146317F70085456F
:1028600037152000EF6000188327C4FC91E78545E9
:102870000565EF60606425A00327C4FC85476317E6
:10288000F70085451165EF60806711A80327C4FC38
:1028900089476316F70085452165EF604066832709
:1028A00004FC93F7F70F93068031054685453E8576
:1028B000EFE0EFE08327C4FB93F7F70F9306803137
:1028C000054685453E85EFE08FDF032784FBC16722
:1028D000F917630DF700832784FB93F7F70F93062F
:1028E0008034054681453E85EFE06FDD032744FBDC
:1028F0009307F00F630DF700832744FB93F7F70F5F
:1029000093060031014685453E85EFE04FDB232EDF
:1029100004FC232004FE232204FE232404FE2316A9
:1029200004FE231E04FC93074010231FF4FC231015
:1029300004FE032784FC85476305F702832784FC94
:1029400081CF032784FC89476303F702032784FCB4
:102950008D476304F7020DA8231104FE231204FE21
:1029600025A0231104FE85472312F4FE31A88947D0
:102970002311F4FE231204FE01A889472311F4FE5B
:1029800085472312F4FE0100231704FE03A781816B
:10299000832744FCB357F7022317F4FE03A7818172
:1029A000832744FCB377F70291E78357E4FEFD17D2
:1029B0002317F4FE0357E4FE9307F00763F7E700DD
:1029C000930780032317F4FE51A80357E4FE9307EF
:1029D000F00363F7E700930700032317F4FEBDA895
:1029E0000357E4FEFD4763F7E700930780022317D0
:1029F000F4FEADA00357E4FEBD4763F7E70093077D
:102A000000022317F4FE99A80357E4FE9D4763F6DE
:102A1000E700E1472317F4FE91A00357E4FE8D473A
:102A200063F6E700C1472317F4FE0DA80357E4FE41
:102A3000854763F6E700A1472317F4FE05A08357F7
:102A4000E4FE81C7231704FE11A813067021B737CF
:102A50000200938507830145EF30E00D8357E4FEC4
:102A60002314F4FE930700202313F4FE231504FE21
:102A70009D472316F4FEB73702000327C4FC0A075C
:102A80009387C772BA979C433E879307C4FDBE8560
:102A90003A85EF60405BB73702000327C4FC0A07A2
:102AA0009387C772BA979C4385453E85EF6020693E
:102AB0000100B640264461618280797122D60018F7
:102AC000232EA4FC232CB4FC8547A307F4FE032784
:102AD000C4FD0A07938741DEBA979C4399EB03270D
:102AE000C4FD0A07938741DEBA97032784FD98C384
:102AF00015A00327C4FD0A07938741DEBA979C43BC
:102B0000032784FD6316F7008547A307F4FE19A089
:102B1000A30704FE8347F4FE3E853254456182805C
:102B2000011106CE22CC00102326A4FE8327C4FE6A
:102B300081EB8545856713850780EF60E0376DA8D9
:102B40000327C4FE85476317F70085450545EF60F9
:102B5000003B5DA00327C4FE89476317F700854546
:102B60000945EF60C03949A80327C4FE8D476317A4
:102B7000F70085451145EF608038BDA80327C4FEE6
:102B800091476317F70085452145EF604037ADA0B9
:102B90000327C4FE95476317F70085454145EF605D
:102BA000003699A80327C4FE99476318F7008545A6
:102BB00013050002EF60A03481A00327C4FE9D47E7
:102BC0006317F70085450965EF60002F35A00327DF
:102BD000C4FEA1476318F700854537050800EF607C
:102BE000A02D19A80327C4FEA5476317F700854544
:102BF00037051000EF60402C0100F240624405618F
:102C00008280011122CE00102326A4FEAE87A305E8
:102C1000F4FE0100B73702000327C4FE0A079387BA
:102C20008773BA979C4383D70700C207C18393F782
:102C30000708EDD3B73702000327C4FE0A079387BE
:102C40008773BA979C433E878347B4FEC207C1830C
:102C50002312F7000100724405618280011106CE43
:102C600022CC00102326A4FE2324B4FE2322C4FE7B
:102C7000832784FEB337F00093F7F70F3E871306E0
:102C80001004B73702009385C7883A85EF20B06AF1
:102C900029A8832784FE138717002324E4FE83C713
:102CA0000700BE850325C4FEA93F832744FE138782
:102CB000F7FF2322E4FEF1FF0100F24062440561C8
:102CC0008280011106CE22CC00102326A4FE2324EC
:102CD000B4FE832784FEB337F00093F7F70F3E87E7
:102CE00013060005B73702009385C7883A85EF20A1
:102CF000906439A8832784FE138717002324E4FEF9
:102D00008387070093F7F70FBE850325C4FED53DE3
:102D1000832784FE83870700F1FF0100F2406244AD
:102D200005618280011106CE22CC00102326A4FE6C
:102D3000AE87A305F4FEB73702000327C4FE0A07D7
:102D400093878773BA979C433E878347B4FE3E863A
:102D5000930550523A85EF70A0441387018883276A
:102D6000C4FEBA9783C7070081453E85EF406010D7
:102D70008347B4FE81CF138701888327C4FEBA97A7
:102D800083C707003E85EF40000B19A81387018811
:102D90008327C4FEBA9783C707003E85EF40800BA8
:102DA0000100F240624405618280011122CE0010D0
:102DB0002326A4FE2324B4FEB73702000327C4FE53
:102DC0000A0793878773BA979C4383D70700C20784
:102DD000C18393F7070295C7B73702000327C4FEE4
:102DE0000A0793878773BA979C4383D74700C20724
:102DF000C18313F7F70F832784FE2380E7008547FD
:102E000011A081473E85724405618280797106D6A2
:102E100022D40018232EA4FC232CB4FC232AC4FCA7
:102E20002328D4FC032744FD832704FD3D8F8327FB
:102E3000C4FDB207F98F93B7170093F7F70F3E87DA
:102E40001306A00AB73702009385C7883A85EF209A
:102E5000904E832744FD13D78700832704FDA18369
:102E6000B307F74093B7170093F7F70F3E871306A2
:102E7000B00AB73702009385C7883A85EF20B04B78
:102E8000832744FD93F7F70FE146014685453E85CC
:102E9000EFE0EF82832704FD93F7F70F930680049A
:102EA000014681453E85EFE08F8185450545EF6010
:102EB000A000032744FDC167FD17F98F0D671307B5
:102EC00007386385E7200D67130707386369F70440
:102ED0000567130757166381E7160567130757162B
:102EE000636FF7001307F022638AE70C1307603063
:102EF0006381E710130760126388E70855A6096726
:102F000013078736638AE7160D6713070712638571
:102F1000E71809671307A7146380E71451A615671C
:102F20001307A738638CE72615671307A738636272
:102F3000F702116713078738638EE71E15671307BB
:102F400087126383E722116713074712638AE71A20
:102F500081AE19671307C7386386E72A1967130715
:102F6000C7386368F7001967130767106382E7269D
:102F700005AE1D671307E7106380E72C1D67130775
:102F8000E7386385E72E29AEB7070140D44FB7076E
:102F90000140370700FC7D17758FD8CFB707014078
:102FA000D843B70701406D9BD8C3B7070140D8434A
:102FB000B707014013674700D8C3DDA4B707014036
:102FC000D44FB7070140370700FC7D17758FD8CF66
:102FD000B7070140D44FB707014037070004558FAA
:102FE000D8CFB7070140D843B70701406D9BD8C37E
:102FF00045ACB7070140D44FB7070140370700FC85
:103000007D17758FD8CFB7070140D44FB707014060
:1030100037070004558FD8CFB7070140D843B7070B
:1030200001406D9BD8C3B7070140D843B7070140A3
:1030300013674700D8C3ADA4B7070140D843B7070B
:1030400001405D9BD8C3B7070140D843B707014093
:1030500013678700D8C3A9A4B7070140D843B707AF
:1030600001401D9BD8C3B7070140D843B7070140B3
:1030700013678700D8C32DA4B7070140D843B7070B
:1030800001401D9BD8C3B7070140D843B707014093
:1030900013678701D8C329A4B7070140D44FB707E6
:1030A00001403707FDFF7D17758FD8CFB707014067
:1030B000D44F832744FDA18313970701B70703006B
:1030C0007D8FB7070140558FD8CFD9AAB7070140E8
:1030D000D44FB70701403707FDFF7D17758FD8CF55
:1030E000B7070140D44F832744FDA18313970701FD
:1030F000B70703007D8FB7070140558FD8CF4DA28A
:10310000B7070140D44FB70701403707F4FF7D17D9
:10311000758FD8CFB7070140D44F832744FDA183D3
:1031200013972701B7070C007D8FB7070140558F14
:10313000D8CFBDA2B7070140D44FB707014037072A
:10314000F4FF7D17758FD8CFB7070140D44F832781
:1031500044FDA18313972701B7070C007D8FB707A4
:103160000140558FD8CF2DAAB7070140D44FB707DC
:1031700001403707D0FF7D17758FD8CFB7070140C3
:10318000D44F832744FDA18313974701B70730002D
:103190007D8FB7070140558FD8CF19A2B7070140DF
:1031A000D44FB70701403707D0FF7D17758FD8CFB1
:1031B000B7070140D44F832744FDA18313974701EC
:1031C000B70730007D8FB7070140558FD8CFC9A80A
:1031D000B7070140D44FB7070140370740FF7D17BD
:1031E000758FD8CFB7070140D44F832744FDA18303
:1031F00013976701B707C0007D8FB7070140558F50
:10320000D8CF79A8B7070140D44FB7070140370797
:1032100040FF7D17758FD8CFB7070140D44F832764
:1032200044FDA18313976701B707C0007D8FB707DF
:103230000140558FD8CFADA0B7070140D44FB70795
:103240000140370700FD7D17758FD8CFB7070140C4
:10325000D44F832744FDA18313978701B707000349
:103260007D8FB7070140558FD8CF1DA8B707014004
:10327000D44FB7070140370700FD7D17758FD8CFB2
:10328000B7070140D44F832744FDA18313978701DB
:10329000B70700037D8FB7070140558FD8CF0100D6
:1032A0008327C4FD91E785451165EF50F04069A87B
:1032B0000327C4FD85476318F700854537050200DD
:1032C000EF50F04351A00327C4FD89476318F7006E
:1032D000854537050400EF509042BDA00327C4FD8B
:1032E0008D476318F700854537050800EF503041DA
:1032F000A1A80327C4FD91476318F700854537054A
:103300001000EF50D03F89A00327C4FD95476318F4
:10331000F700854513050004EF50703E35A00327E4
:10332000C4FD99476318F700854513050008EF5061
:10333000103D19A80327C4FD9D476317F700854575
:1033400013050010EF50B03B232004FE232204FE9F
:10335000232404FE232604FE832784FD2320F4FE79
:10336000231204FE231304FE231404FE231604FE7A
:10337000B1472315F4FEB73702000327C4FD0A073F
:1033800093878773BA979C433E87930704FEBE8555
:103390003A85EF60B037B73702000327C4FD0A074C
:1033A00093878773BA979C4385453E85EF60505954
:1033B0000100B250225445618280797106D622D430
:1033C0000018AA87232CB4FCA30FF4FC230704FEE7
:1033D000A30604FEA945032584FDEFC0416623240E
:1033E000A4FE832784FE81CF032784FE832784FDE8
:1033F000B307F74093F7F70F8507A306F4FEA3077B
:1034000004FE91A08347F4FE032784FDBA97038747
:1034100007009307C0026317F7008347E4FE8507A0
:103420002307F4FE0347E4FE8347F4FD6318F70027
:103430008347F4FE85072306F4FE21A88347F4FEA4
:103440008507A307F4FE0347F4FE8347D4FEE36B2E
:10345000F7FA8347C4FE3E85B2502254456182800C
:10346000397106DE22DC80002326A4FC8325C4FCFF
:103470000545A137AA87A307F4FE8347F4FEFD178D
:10348000A307F4FE0347F4FE9307C4FD3A868325A1
:10349000C4FC3E85EFC021608347F4FE130704FFA0
:1034A000BA97238607FE9307C4FD3E85EF30600D73
:1034B0002324A4FE832784FE3E85F25062542161BA
:1034C0008280397106DE22DC80002326A4FC83255D
:1034D000C4FC0545DD35AA87A307F4FE8347F4FE47
:1034E000FD17A307F4FE0347F4FE930784FD3A8615
:1034F0008325C4FC3E85EFC0015A8347F4FE1307C1
:1035000004FFBA97238407FE930784FD3E85EF30BE
:10351000C049AA872E883E85C285EFB0A156D30741
:10352000A5202724F4FE872784FE5385F720F25038
:10353000625421618280397106DE22DC80002326FC
:10354000A4FC8325C4FC05458D3DAA87A307F4FE92
:103550008347F4FEFD17A307F4FE0347F4FE930729
:1035600004FD3A868325C4FC3E85EFC0C1528347E3
:10357000F4FE130704FFBA97238007FE930704FDA8
:103580003E85EF3080422320A4FE2322B4FE832711
:1035900004FE032844FE3E85C285F2506254216138
:1035A0008280797122D60018232EA4FC8327C4FDC3
:1035B00083C74700A10713F7F70F8327C4FD2382B2
:1035C000E7008327C4FD03C74700DD4763FEE7121A
:1035D0008327C4FD83C74700A11713F7F70F83277D
:1035E000C4FD2382E7008327C4FD83C73700850716
:1035F00013F7F70F8327C4FDA381E7008327C4FDDA
:1036000003C7270089476319F704F147A307F4FEAE
:103610008327C4FD83D707008D8BC207C18381EF49
:103620008327C4FD03D7070093074006B377F7024B
:10363000C207C18381EF8327C4FD03D70700930727
:103640000019B377F702C207C183A9EB8347F4FEE1
:103650008507A307F4FE99A0FD47A307F4FE83277F
:10366000C4FD03C7270091476307F7028327C4FD02
:1036700003C7270099476300F7028327C4FD03C7E8
:103680002700A5476309F7008327C4FD03C7270068
:10369000AD476315F700F947A307F4FE8327C4FD80
:1036A00083C737000347F4FE6370F7068327C4FD22
:1036B0000547A381E7008327C4FD83C7270085074B
:1036C00013F7F70F8327C4FD2381E7008327C4FD89
:1036D00003C72700B14763F9E7028327C4FD83C707
:1036E0002700D11713F7F70F8327C4FD2381E700C5
:1036F0008327C4FD83D707008507139707014183FC
:103700008327C4FD2390E700010032544561828085
:103710001D7186CEA2CCCACACEC880102326A4FAB8
:103720002324B4FA8327C4FA2324F4FEA30704FE57
:10373000832584FE09455131AA873E87832784FE6D
:10374000BA9783870700A303F4FE832784FA2384B0
:103750000700034774FE93071004631AF734854784
:10376000A307F4FE832784FA05472384E700832513
:1037700084FE11459931AA873E87832784FEBA9734
:1037800003870700832784FA2384E702832584FEC6
:1037900019452531AA873E87832784FEBA97038778
:1037A0000700832784FAA384E702832584FE0D455E
:1037B0002931AA873E87832784FEBA973E85A53B99
:1037C000232CA4FC232EB4FC832584FE1545F5365A
:1037D000AA873E87832784FEBA973E85A93B232884
:1037E000A4FC232AB4FC032584FD8325C4FDEFA09B
:1037F00031762A8793074006B347F70213970701EC
:103800004183832784FA2395E700832784FA83D7AB
:10381000A7003E8793074006B307F7023E85EFB047
:10382000810AAA872E883E86C286032584FD8325C9
:10383000C4FDEFA06141AA872E883E85C285EFB006
:103840006124D307A5202726F4FC8727C4FCD3973F
:1038500007C0139707014183832784FA2396E70063
:10386000832784FA83D7C700D3F707D00727C4FC80
:103870005377F708B737020087A70799D377F71070
:103880002724F4FC872784FCD39707C013970701EC
:103890004183832784FA2397E700032504FD8325CA
:1038A00044FDEFA0F16A2A8793074006B347F70269
:1038B000139707014183832784FA2398E70083271E
:1038C00084FA83D707013E8793074006B307F702C0
:1038D0003E85EFA0517FAA872E883E86C2860325AB
:1038E00004FD832544FDEFA02136AA872E883E855E
:1038F000C285EFB02119D307A5202722F4FC872722
:1039000044FCD39707C0139707014183832784FAA8
:103910002399E700832784FA83D72701D3F707D0B9
:10392000072744FC5377F708B737020087A70799A2
:10393000D377F7102720F4FC872704FCD39707C020
:10394000139707014183832784FA239AE70083278B
:1039500084FA83D7A7003E85EFA0F1762A89AE8945
:10396000832784FA83D7C7003E85EFA0D17CB73781
:10397000020003A6879983A6C799EF90A128AA877A
:103980002E883E86C2864A85CE85EF80D106AA87DC
:103990002E883E89C289832784FA83D7E7003E8533
:1039A000EFA07179B737020003A6079A83A6479A5A
:1039B000EF904125AA872E883E86C2864A85CE850D
:1039C000EF807103AA872E88032784FA1CCF232E49
:1039D0000701832784FA83D707013E85EFA0B16EE4
:1039E0002A89AE89832784FA83D727013E85EFA0F1
:1039F0009174B737020003A6879983A6C799EF9001
:103A00006120AA872E883E86C2864A85CE85EF80B1
:103A1000817EAA872E883E89C289832784FA83D72C
:103A200047013E85EFA03171B737020003A6079A20
:103A300083A6479AEF90011DAA872E883E86C286EC
:103A40004A85CE85EF80217BAA872E88032784FABA
:103A50001CD323220703832584FE1D45EFF0FF9529
:103A6000AA873E87832784FEBA973E85EFF07FA51D
:103A7000272EA4FA0727C4FBB737020087A7879A27
:103A8000D377F710832784FADCF7832584FE21455A
:103A9000EFF0BF92AA873E87832784FEBA973E85C0
:103AA000EFF03FA2D307A520832784FA9CFB83274E
:103AB00084FE9D0783870700938707FD93F7F70F21
:103AC0003E87BA878A07BA97860713F7F70F8327C7
:103AD00084FEA1078387070093F7F70FBA9793F740
:103AE000F70F938707FD13F7F70F832784FA2382D5
:103AF000E700832784FEA50783870700938707FDD8
:103B000093F7F70F3E87BA878A07BA97860713F7A6
:103B1000F70F832784FEA9078387070093F7F70F22
:103B2000BA9793F7F70F938707FD13F7F70F8327DC
:103B300084FAA382E700832784FEAD07838707000A
:103B4000938707FD93F7F70F3E87BA878A07BA97DF
:103B5000860713F7F70F832784FEB10783870700D3
:103B600093F7F70FBA9793F7F70F938707FD13F7BC
:103B7000F70F832784FA2383E700832584FE2545F6
:103B8000EFF0BF83AA87A30DF4FA8347B4FB0327A2
:103B900084FEBA9783870700938707FD93F7F70F93
:103BA0003E87BA878A07BA97860713F7F70F8347C6
:103BB000B4FB8507832684FEB6978387070093F7B7
:103BC000F70FBA9793F7F70F938707FD13F7F70FE0
:103BD000832784FAA381E7008347B4FB890703277F
:103BE00084FEBA9783870700938707FD93F7F70F43
:103BF0003E87BA878A07BA97860713F7F70F834776
:103C0000B4FB8D07832684FEB6978387070093F75E
:103C1000F70FBA9793F7F70F938707FD13F7F70F8F
:103C2000832784FA2381E7008347B4FB91070327A6
:103C300084FEBA9783870700938707FDC207C18375
:103C40003E87BA878A07BA97860713970701418389
:103C50008347B4FB9507832684FEB69783870700C6
:103C6000C207C183BA97C207C1839387077A1397A4
:103C700007014183832784FA2390E700832784FA8E
:103C80003E85EFF01F928347F4FE3E85F640664482
:103C90005649C64925618280397106DE22DC22F64A
:103CA00080002326A4FC2324B4FC8327C4FC232CFB
:103CB000F4FCA30F04FC832584FD0945EFF0EFEF2E
:103CC000AA873E87832784FDBA9783870700A30BC3
:103CD000F4FC034774FD9307C002630EF7088325C5
:103CE00084FD1D45EFF06FEDAA873E87832784FD95
:103CF000BA973E85EFF0CFF6AA8713F7F70F832721
:103D000084FC238AE702832584FD2145EFF0EFEA56
:103D1000AA873E87832784FDBA973E85EFF06FFA26
:103D2000D307A520832784FCDCFF832584FD25455C
:103D3000EFF0AFE8AA873E87832784FDBA973E85D8
:103D4000EFF02FF85304A520832584FD2D45EFF0D7
:103D5000CFE6AA873E87832784FDBA973E85EFF09A
:103D60004FF6D307A520D377F400832784FC9CFF6C
:103D70008547A30FF4FC8347F4FD3E85F25062545F
:103D8000327421618280011106CE22CC0010A3077B
:103D900004FE03A701892320E4FE9387018983C7DA
:103DA00047002302F4FEA30304FE230704FE03A737
:103DB000018A85476314F70A094723A0E18A93051E
:103DC000A0021385C1F6EFB09147AA8713871700A9
:103DD000930704FE89070946BA853E85EFB0B14BCB
:103DE000930704FE3E85EF201063AA87A303F4FE29
:103DF0009387C1F683C717002307F4FE894723245E
:103E0000F4FE15A01387C1F6832784FEBA9703C773
:103E100007008347E4FEB98F2307F4FE832784FE5F
:103E200085072324F4FE1387C1F6832784FEBA97FF
:103E300003C707009307A002E316F7FC0347E4FE5D
:103E4000834774FE6306F7008547A307F4FEC9A005
:103E5000938501E11385C1F6EFF09F8B23A0018AC2
:103E600003A7C18985476313F70A094723AEE18891
:103E70009305A0021385C1EEEFB0713CAA871387AA
:103E80001700930704FE89070946BA853E85EFB0FF
:103E90009140930704FE3E85EF20F057AA87A303C5
:103EA000F4FE9387C1EE83C717002307F4FE89470A
:103EB0002324F4FE15A01387C1EE832784FEBA974E
:103EC00003C707008347E4FEB98F2307F4FE832767
:103ED00084FE85072324F4FE1387C1EE832784FE26
:103EE000BA9703C707009307A002E316F7FC03473E
:103EF000E4FE834774FE6306F7008547A307F4FEDC
:103F000001A8938501E11385C1EE793323AE0188C1
:103F10008347F4FE3E85F2406244056182800111D0
:103F200006CE22CC001083C7B189638C070E09A886
:103F3000930734FE0546BE85138501E5EF10507CDE
:103F4000930734FEBE851D45EFE03FE6AA87EDF3FB
:103F5000034734FEA9476316F70C99472322F4FE62
:103F6000130744FE930784FE85463A86BE85138573
:103F700001E5EF204029930784FE138737000D46A3
:103F8000B73702009385878E3A85EFB0112EAA8746
:103F90009DEB03A7018A8947630EF706054723A017
:103FA000E18A138501E5EF105071AA872322F4FE00
:103FB000930744FE81463E869385C1F6138501E54D
:103FC000EF20602481A8930784FE138737000D46F5
:103FD000B73702009385C78E3A85EFB01129AA87BB
:103FE00095EB03A7C18989476306F702054723AE0E
:103FF000E188138501E5EF10506CAA872322F4FEB7
:10400000930744FE81463E869385C1EE138501E504
:10401000EF20601F138501E5EF10105A0547238D2F
:10402000E1880100F240624405618280717106D727
:1040300022D50019B737020003A8078F1387078F0F
:1040400048431387078F0C471387078F5047138701
:10405000078F144B1387078F584B9387078F9C4FFD
:10406000232A04FD232CA4FC232EB4FC2320C4FE0D
:104070002322D4FE2324E4FE2326F4FEB7370200D5
:1040800083A6C7901387C79058432324D4FC2326C4
:10409000E4FC9387C79003D787002318E4FC83C709
:1040A000A7002309F4FCB737020083A68791138782
:1040B00087915843232ED4FA2320E4FC93878791D9
:1040C00003D787002312E4FC83C7A7002303F4FC73
:1040D000B737020083A64792138747925843232895
:1040E000D4FA232AE4FA9387479203D78700231C44
:1040F000E4FA83C7A700230DF4FAB737020083A6BA
:1041000007931387079358432322D4FA2324E4FA0E
:104110009387079303D787002316E4FA83C7A70082
:104120002307F4FAB737020083A6C7931387C79310
:104130005843232CD4F8232EE4F89387C79303D74E
:1041400087002310E4FA83C7A7002301F4FAB737E6
:10415000020083A687941387879458432326D4F8B4
:104160002328E4F89387879403D78700231AE4F879
:1041700083C7A700230BF4F8B737020083A647953F
:104180001387479558432320D4F82322E4F89387D4
:10419000479503D787002314E4F883C7A7002305B6
:1041A000F4F8B737020083A607961387079658439B
:1041B000232AD4F6232CE4F69387079603D78700A7
:1041C000231EE4F683C7A700230FF4F6B7370200D7
:1041D00083A6C7961387C79658432324D4F623266D
:1041E000E4F69387C79603D787002318E4F683C7BE
:1041F000A7002309F4F6B737020083A68797138731
:1042000087975843232ED4F42320E4F69387879787
:1042100003D787002312E4F683C7A7002303F4F62D
:10422000B737020083A64798138747985843232837
:10423000D4F4232AE4F49387479803D78700231CF8
:10424000E4F483C7A700230DF4F493060008138653
:10425000C1E68145138501E5EF20202903A781816F
:104260008967938707F4B357F7029305401F3E858C
:10427000EFC06FB09D679386F7389D671386E73868
:10428000F167938507201D45EFE05FB8930744FD74
:104290007146BE851D45EFE07F9C03A7818189673C
:1042A000938707F4B357F7029305800C3E85EFC060
:1042B0008FAC9307C4FB2D46BE851D45EFE01F9ACA
:1042C00003A781818967938707F4B357F7029305A2
:1042D00020033E85EFC02FAA930784FC2D46BE85A0
:1042E0001D45EFE0BF9703A781818967938707F496
:1042F000B357F702930520033E85EFC0CFA793077E
:1043000004FB2D46BE851D45EFE05F9503A7818127
:104310008967938707F4B357F702930520033E8517
:10432000EFC06FA5930744FA2D46BE851D45EFE00B
:10433000FF9203A781818967938707F4B357F70238
:10434000930520033E85EFC00FA3930784F92D4604
:10435000BE851D45EFE09F9003A781818967938704
:1043600007F4B357F702930520033E85EFC0AFA0D3
:104370009307C4F82D46BE851D45EFE03F8E03A789
:1043800081818967938707F4B357F7029305200368
:104390003E85EFC04F9E930704F82D46BE851D4510
:1043A000EFE0DF8B03A781818967938707F4B35719
:1043B000F702930520033E85EFC0EF9B930744F778
:1043C0002D46BE851D45EFE07F8903A78181896762
:1043D000938707F4B357F702930520033E85EFC098
:1043E0008F99930784F62D46BE851D45EFE01F8704
:1043F00003A781818967938707F4B357F702930571
:1044000020033E85EFC02F979307C4F52D46BE8548
:104410001D45EFE0BF8403A781818967938707F477
:10442000B357F702930520033E85EFC0CF9493075F
:1044300004F52D46BE851D45EFE05F8203A781810F
:104440008967938707F4B357F702930520033E85E6
:10445000EFC06F920547A38DE18885451D45EFE0CC
:104460007F8C0100BA502A544D618280011106CE22
:1044700022CC0010A30704FE230704FE231604FE2B
:1044800099A08357C4FE138717002316E4FE130771
:10449000F00F6376F70085472307F4FE15A8930510
:1044A00050071385C1FEEFD01FC6AA87A307F4FEED
:1044B00003A781818967938707F4B357F702A9455A
:1044C0003E85EFC04F8B0347F4FEC947E31BF7FA65
:1044D0008347E4FE3E85F24062440561828001111B
:1044E00006CE22CC0010930784FE99463E869305A3
:1044F000B0031385C1FEEFD0FFCB834784FEA20734
:10450000139707014187834794FEC207C187D98F5C
:104510001397070141872395E18A8347A4FEA207E9
:104520001397070141878347B4FEC207C187D98F1C
:104530001397070141872396E18A8347C4FEA207A8
:104540001397070141878347D4FEC207C187D98FDC
:104550001397070141872397E18A0100F2406244E3
:1045600005618280011106CE22CC0010930784FEE3
:1045700099463E86930530041385C1FEEFD09FC354
:10458000834784FEA207139707014187834794FE60
:10459000C207C187D98F1397070141872392E18A08
:1045A0008347A4FEA2071397070141878347B4FE00
:1045B000C207C187D98F1397070141872393E18AE7
:1045C0008347C4FEA2071397070141878347D4FEA0
:1045D000C207C187D98F1397070141872394E18AC6
:1045E0000100F240624405618280011106CE22CCB6
:1045F0000010A30504FEA30704FE231604FE03A770
:1046000081818967938707F4B357F702A9453E85EF
:10461000EFB07FF6130750029306300213064006F0
:10462000930590061385C1FEEFD05FD48135AA872C
:1046300095C393064011B73702001386879DB7379D
:104640000200938587A30145EF1080558547A30796
:10465000F4FECDA0130600089305B0061385C1FE35
:10466000EFD05FA203A781818967938707F4B357CF
:10467000F70289453E85EFB01FF09305B00613851C
:10468000C1FEEFD05FA8AA87A305F4FE8357C4FE3E
:10469000138717002316E4FE1307F00F6373F70266
:1046A00093064012B73702001386879DB737020082
:1046B000938547A50145EF10A04E8547A307F4FE5B
:1046C00039A00347B4FE93071004E318F7FA034731
:1046D000F4FE8547630FF70405469305B00613857E
:1046E000C1FEEFD03F9A01469305C0061385C1FE77
:1046F000EFD05F990546E9451385C1FEEFD09F983D
:104700001D46E5451385C1FEEFD0DF976146ED45B7
:104710001385C1FEEFD01F974146F1451385C1FEB9
:10472000EFD05F960D46F5451385C1FEEFD09F95FE
:1047300011A001008347F4FE3E85F240624405610A
:104740008280011106CE22CC0010AA872E87A307F3
:10475000F4FEBA872307F4FEB70700209387C7004B
:104760009C4713070040D8CB0347E4FE8347F4FE81
:104770003A86BE850945EFD0BFDCB7070020938796
:10478000C7009C471307004098CB0100F2406244E9
:1047900005618280011106CE22CC0010AA87232455
:1047A000B4FE2322C4FEA307F4FEB70700209387BC
:1047B000C7009C4713070040D8CB8347F4FE8326ED
:1047C00044FE032684FEBE850945EFD07FE4B7078B
:1047D00000209387C7009C471307004098CB010037
:1047E000F240624405618280797106D622D40018B5
:1047F000AA87A30FF4FCB70700209387C7009C4744
:1048000013070040D8CB8347F4FD93E707F893F7ED
:10481000F70F1307C4FE89463A86BE850945EFD0D7
:104820005FEBB70700209387C7009C471307004042
:1048300098CB8347D4FE3E85B25022544561828096
:10484000797106D622D40018AA87232CB4FC232A17
:10485000C4FCA30FF4FCB70700209387C7009C4754
:1048600013070040D8CB8347F4FD93E707F813F70D
:10487000F70F832744FD93861700930744FE3E8677
:10488000BA850945EFD0FFE4B70700209387C7003A
:104890009C471307004098CB232604FE3DA08327A6
:1048A000C4FE13871700832784FD93861700232CEB
:1048B000D4FC930604FF3697034747FF2380E700A5
:1048C0008327C4FE85072326F4FE8327C4FE03271F
:1048D00044FDE3E6E7FC0100B250225445618280CA
:1048E000011106CE22CC0010A30504FEA30704FE8E
:1048F000231604FE8357C4FE138717002316E4FE15
:104900001307F00F6376F7008547A307F4FE3DA079
:104910000145D93DAA87A305F4FE03A781818967D4
:10492000938707F4B357F70285453E85EFB0BFC4C0
:104930000347B4FE93074002E31EF7FA8347F4FEF1
:104940003E85F240624405618280011106CE22CC90
:104950000010930784FE1946BE853145D53583473F
:1049600094FEA207139707014187834784FEC2077D
:10497000C187D98F139707014187239BE18A83471A
:10498000B4FEA2071397070141878347A4FEC2071D
:10499000C187D98F139707014187239CE18A8347F9
:1049A000D4FEA2071397070141878347C4FEC207BD
:1049B000C187D98F139707014187239DE18A0100A1
:1049C000F240624405618280011106CE22CC0010C3
:1049D000930784FE1946BE854945EFF07FE683477D
:1049E00094FEA207139707014187834784FEC207FD
:1049F000C187D98F1397070141872398E18A83479D
:104A0000B4FEA2071397070141878347A4FEC2079C
:104A1000C187D98F1397070141872399E18A83477B
:104A2000D4FEA2071397070141878347C4FEC2073C
:104A3000C187D98F139707014187239AE18A010023
:104A4000F240624405618280011106CE22CC001042
:104A5000A30704FE03A781818967938707F4B357EF
:104A6000F702D1453E85EFB01FB11308F00F8967FB
:104A700093874702096713075702896693863602B0
:104A8000379698001306066881450945EFD07FD315
:104A9000C146054685451305A004EFC04FC2014538
:104AA000EFF09FD4EFF0DFE3AA8795C393060011E0
:104AB000B7370200138647A7B7370200938547AD83
:104AC0000145EF10E00D8547A307F4FEC9A081451D
:104AD0001305C007EFF0FFC603A78181896793879D
:104AE00007F4B357F70285453E85EFB0DFA881454F
:104AF00013059005EFF0FFC40966B77702009385B0
:104B0000C7B71305E005EFF0FFC88545130590050D
:104B1000EFF03FC303A781818967938707F4B357F9
:104B2000F702D1453E85EFB01FA513051002EFF047
:104B3000BFCBAA8795E39306F011B737020013861F
:104B400047A7B7370200938507AF0145EF1040052F
:104B50008547A307F4FE25A8B9451305D007EFF054
:104B60005FBE9305700A13050004EFF09FBD930527
:104B7000900A13052004EFF0DFBC894513051004EB
:104B8000EFF03FBC814513053004EFF09FBB834736
:104B9000F4FE3E85F240624405618280797106D65A
:104BA00022D40018AA87AE863287A30FF4FCB687FA
:104BB000230FF4FCBA87A30EF4FCA30704FE23160C
:104BC00004FE8347F4FD8607A30FF4FC0146DD4590
:104BD0001385C1FFEFD00FCB8347F4FD3E86D5454B
:104BE0001385C1FFEFD00FCA8347E4FD3E86D94548
:104BF0001385C1FFEFD00FC98347D4FD3E869305CF
:104C000010021385C1FFEFD0EFC71306C004D145D2
:104C10001385C1FFEFD00FC715A88357C4FE1387B4
:104C200017002316E4FE1307F00F6376F70085479D
:104C3000A307F4FE3DA003A781818967938707F44A
:104C4000B357F70289453E85EFB0FF9293052002E6
:104C50001385C1FFEFD0CFE5AA87E207E187E3DE46
:104C600007FA8347F4FE3E85B250225445618280A4
:104C7000797106D622D40018AA872E87A30FF4FCD8
:104C8000BA87230FF4FC231704FE8347F4FD86073D
:104C9000A30FF4FC8347F4FD93E7170093F7F70F96
:104CA0003E86D5451385C1FFEFD0CFBD8347E4FDD8
:104CB0003E86D9451385C1FFEFD0CFBC0546DD4503
:104CC0001385C1FFEFD00FBC1306C004D145138577
:104CD000C1FFEFD02FBB35A08357E4FE1387170029
:104CE0002317E4FE1307F00F6369F70203A781811E
:104CF0008967938707F4B357F70289453E85EFB07C
:104D00009F87930520021385C1FFEFD06FDAAA8732
:104D1000858B93F7F70FE9D311A00100894513851F
:104D2000C1FFEFD0EFD8AA873E85B250225445612B
:104D30008280011106CE22CC0010AA872E87A307FD
:104D4000F4FEBA872307F4FE8347F4FE8607A30721
:104D5000F4FE8347F4FE93E7170093F7F70F3E86C0
:104D6000D5451385C1FFEFD0EFB18347E4FE3E8602
:104D7000D9451385C1FFEFD0EFB01946DD45138546
:104D8000C1FFEFD02FB01306C006D1451385C1FF78
:104D9000EFD04FAF0100F240624405618280011103
:104DA00006CE22CC0010A30704FE230704FE231620
:104DB00004FE91A08357C4FE138717002316E4FE58
:104DC0001307F00F6376F7008547A307F4FE15A8D5
:104DD000BD451385C1FFEFD0AFCDAA872307F4FEF1
:104DE00003A781818967938707F4B357F702A94521
:104DF0003E85EFB04FF80347E4FE9307B006E31B90
:104E0000F7FA8347F4FE3E85F240624405618280F2
:104E1000011106CE22CC0010A30704FE230704FED6
:104E2000231604FE89A08357C4FE13871700231698
:104E3000E4FE1307F00F6376F7008547A307F4FE3F
:104E40000DA8B5453545EFF0BFE2AA872307F4FE6C
:104E500003A781818967938707F4B357F702A945B0
:104E60003E85EFB04FF10347E4FE9307F00FE31CDC
:104E7000F7FA8347F4FE3E85F24062440561828082
:104E8000011106CE22CC0010930784FE99463E867F
:104E9000930580021385C1FFEFD0CFB1834794FE05
:104EA000A207139707014187834784FEC207C18782
:104EB000D98F1397070141872391E18C8347B4FE73
:104EC000A2071397070141878347A4FEC207C18742
:104ED000D98F1397070141872392E18C8347D4FE32
:104EE000A2071397070141878347C4FEC207C18702
:104EF000D98F1397070141872393E18C0100F2407A
:104F0000624405618280011106CE22CC0010930715
:104F100084FE99463E86930520021385C1FFEFD09B
:104F20006FA9834794FEA207139707014187834720
:104F300084FEC207C187D98F139707014187239E3B
:104F4000E18A8347B4FEA20713970701418783478D
:104F5000A4FEC207C187D98F139707014187239FFA
:104F6000E18A8347D4FEA20713970701418783474D
:104F7000C4FEC207C187D98F1397070141872390C9
:104F8000E18C0100F240624405618280011106CE8D
:104F900022CC00101306000485451385C1FFEFD015
:104FA0006F8E930520021385C1FFEFD06FB0AA87E3
:104FB000A307F4FE8347F4FE858B93F7F70FB5CB79
:104FC000930784FE99463E8689451385C1FFEFD03D
:104FD0006F9E834794FEA20713970701418783477B
:104FE00084FEC207C187D98F139707014187239495
:104FF000E18C8347B4FEA2071397070141878347DB
:10500000A4FEC207C187D98F139707014187239553
:10501000E18C8347D4FEA20713970701418783479A
:10502000C4FEC207C187D98F139707014187239612
:10503000E18C014685451385C1FFEFD0AF840100A7
:10504000F240624405618280011106CE22CC00103C
:10505000A30704FE03A781818967938707F4B357E9
:10506000F702A9453E85EFB00FD1130760089306FC
:10507000500829469305B0061385C1FFEFD00FAF46
:10508000014685451385C1FFEFC0DFFF0546C945D1
:105090001385C1FFEFC01FFF03A781818967938735
:1050A00007F4B357F70289453E85EFB0CFCC0146F0
:1050B00085451385C1FFEFC0FFFCEFF05FCEAA87E7
:1050C00095C39306701BB7370200138607B1B73735
:1050D0000200938507B70145EF00902C8547A30791
:1050E000F4FE8DAA0D46B5451385C1FFEFC09FF9AB
:1050F0001306C003C1451385C1FFEFC0BFF81306F7
:10510000C005C5451385C1FFEFC0DFF71306400496
:10511000C9451385C1FFEFC0FFF60946CD4513858C
:10512000C1FFEFC03FF60146D1451385C1FFEFC077
:105130007FF50146D5451385C1FFEFC0BFF4014699
:10514000D9451385C1FFEFC0FFF30546E14513853F
:10515000C1FFEFC03FF31306000485451385C1FF6F
:10516000EFC05FF213060008D1451385C1FFEFC001
:105170007FF103A781818967938707F4B357F7020B
:1051800089453E85EFB02FBF0146D1451385C1FF4C
:10519000EFC05FEF03A781818967938707F4B35757
:1051A000F70289453E85EFB00FBD13060008A945FB
:1051B0003545EFF0BF9E03A781818967938707F488
:1051C000B357F70289453E85EFB0EFBA0146A945CE
:1051D0003545EFF0BF9C03A781818967938707F46A
:1051E000B357F70289453E85EFB0EFB8EFF05FC2E5
:1051F000AA8795C39306201EB7370200138607B10E
:10520000B7370200938587B90145EF0070198547CC
:10521000A307F4FE81A06546A5453545EFF01F982C
:105220000546AD453545EFF07F9781453545EFF0B3
:105230005FB0014685451385C1FFEFC0BFE403A7FA
:1052400081818967938707F4B357F702D1453E857B
:10525000EFB06FB28347F4FE3E85F24062440561D1
:105260008280411122C6000801003244410182803F
:10527000411122C60008B71702409843B7170240F1
:105280001367170098C3B7170240D443B7170240FB
:105290003707FFF8758FD8C3B71702409443B71785
:1052A00002403707F7FE7D17758F98C3B717024086
:1052B0009443B71702403707FCFF7D17758F98C3DB
:1052C000B7170240D443B7170240370781FF7D1755
:1052D000758FD8C3B717024037079F0098C70100E2
:1052E000324441018280797122D60018232EA4FC19
:1052F000232604FE232404FEB71702409443B71765
:1053000002404167558F98C3B71702409843B707CB
:105310000200F98F2324F4FE8327C4FE8507232689
:10532000F4FE832784FE91E70327C4FE8567E31D0F
:10533000F7FCB71702409843B7070200F98F89C7F7
:1053400085472324F4FE19A0232404FE032784FEAA
:1053500085476312F71637170240B71702405843C4
:10536000D8C337170240B71702405843D8C337177E
:105370000240B71702405843D8C3B7170240D4437E
:10538000B71702403707C1FF7D17758FD8C30327B2
:10539000C4FDB747950893870740631BF700B7170D
:1053A0000240D443B71702404167558FD8C355A870
:1053B0000327C4FDB7172707938707E0631CF7008F
:1053C000B7170240D443B717024037073900558F4B
:1053D000D8C341A80327C4FDB7E7B8059387078062
:1053E000631CF700B7170240D443B71702403707D2
:1053F0002900558FD8C3B5A00327C4FDB7A74A0419
:1054000093870720631CF700B7170240D443B717F0
:10541000024037071D00558FD8C3A1A00327C4FD44
:10542000B777DC02938707C0631CF700B717024009
:10543000D443B717024037071100558FD8C315A0C2
:105440000327C4FDB7376E0193870760631BF7001E
:10545000B7170240D443B717024037070500558FEE
:10546000D8C3B71702409443B7170240370700016B
:10547000558F98C30100B71702409843B707000241
:10548000F98FF5DBB7170240D843B7170240719B7D
:10549000D8C3B7170240D843B71702401367270095
:1054A000D8C30100B7170240DC4313F7C700A14778
:1054B000E31AF7FE11A001A0325445618280011168
:1054C00006CE22CC00102326A4FE0327C4FE23AC64
:1054D000E180EFF0FFD90325C4FEEFF0DFE0EF102D
:1054E000D0210100F240624405618280411122C650
:1054F000000801000100324441018280011106CE02
:1055000022CC0010232604FE232404FE232604FEBE
:105510002DA0232404FE01A8EFF05FFD832784FE65
:1055200085072324F4FE032784FEC167E366F7FEA4
:105530008327C4FE85072326F4FE0327C4FE9307B2
:10554000F00FE3F8E7FC0100F2406244056182805D
:10555000411122C60008010032444101828001113C
:1055600006CE22CC00102326A4FE8325C4FE0945C6
:10557000EFD02FF50100F2406244056182801301F3
:1055800001D9232611262324812623229126801C3B
:10559000232EA4D8232CB4D8232AC4D82328D4D883
:1055A000231504FE231404FE231304FE231204FE19
:1055B000231104FE032584D9EFA0014AAA87C2075C
:1055C000C1872313F4FE83D7C10089C79387C10025
:1055D0009C4B829783C7E18C93F7F70F6383074C4B
:1055E00083D7C100638B07449387C100D447835797
:1055F00024FE13970701418793170701C18385078D
:10560000C207C183C207C1872311F4FE93170701A4
:10561000C1830326C4D9BE8501458296832784D9D8
:105620002326F4FE032584D9EFA00143AA87C207ED
:10563000C1872313F4FE9387C10083D727003E87D9
:105640009387C10083C76700B347F702C207C187CA
:105650002312F4FE01008327C4FE138717002326BC
:10566000E4FE83870700E5FB231404FEA1A883273B
:10567000C4FEFD172326F4FE8327C4FE038707001C
:105680009307F002630AF7008327C4FE038707002D
:105690009307C005631BF700835784FEC207C183CD
:1056A0008507C207C1832314F4FE835764FEC20733
:1056B000C187C207C183FD17C207C183C207C18763
:1056C0002313F4FE835784FE139707014183854714
:1056D00063E8E700835764FEC207C187E3D907F890
:1056E000835764FEC207C18763C307028327C4FED2
:1056F00085072326F4FE130704EE0326C4FEB737FE
:1057000002009385C7BB3A85EFA0012F2DA88357D0
:1057100084FEC207C18389EF130704EE0326C4FE8B
:10572000B7370200938587BC3A85EFA0E12C21A80A
:10573000130704EE0326C4FEB73702009385C7BBE8
:105740003A85EFA0612B231504FE21AA231404FE41
:1057500059A0930704EE3E85EFA001302A878357B6
:1057600084FEC207C183BE868357A4FEC207C183DD
:105770003E86835744FEC207C187B307F602B69739
:105780006367F706835784FEC207C1833E8783574A
:10579000A4FEC207C183BE86835744FEC207C187E9
:1057A000B387F602BA97035784FE42074183BA864D
:1057B000130704FFBA97038707EF930704FFB69711
:1057C0002388E7EA835784FEC207C1838507C2079F
:1057D000C1832314F4FE835784FEC207C1833E872E
:1057E000835744FEC207C187E345F7F611A00100C5
:1057F000835784FEC207C183130704FFBA97238827
:1058000007EA9387C10003A8C7009387C10083C735
:105810007700139707014183835724FE939607016E
:10582000C18693970601C1838507C207C183C2075A
:10583000C1872311F4FE93970601C183B307F702D2
:10584000C207C183130704EA3A86BE850145029860
:105850008357A4FEC207C1838507C207C1832315EE
:10586000F4FE8357A4FEC207C183BE84930704EEEF
:105870003E85EFA0611E2A87835744FEC207C18779
:10588000B357F7028507E3E3F4EC130704EE0326AE
:1058900044D9B7370200938587BD3A85EFA0C1157B
:1058A0009387C10003A8C7009387C10083C777000F
:1058B000139707014183835724FE93960701C186FE
:1058C00093970601C1838507C207C183C207C187B9
:1058D0002311F4FE93970601C183B307F702C207B1
:1058E000C183130704EE3A86BE85014502988327DB
:1058F00004D96388071A231504FE21AA231404FE81
:1059000059A0032504D9EFA021152A87835784FEC7
:10591000C207C183BE868357A4FEC207C1833E86E9
:10592000835744FEC207C187B307F602B697636880
:10593000F706835784FEC207C1833E878357A4FEC0
:10594000C207C183BE86835744FEC207C187B3879F
:10595000F602BA973E87832704D9BA97035784FE85
:1059600042074183BA8603870700930704FFB6976F
:105970002388E7EA835784FEC207C1838507C207ED
:10598000C1832314F4FE835784FEC207C1833E877C
:10599000835744FEC207C187E345F7F611A0010013
:1059A000835784FEC207C183130704FFBA97238875
:1059B00007EA9387C10003A8C7009387C10083C784
:1059C0007700139707014183835724FE93960701BD
:1059D000C18693970601C1838507C207C183C207A9
:1059E000C1872311F4FE93970601C183B307F70221
:1059F000C207C183130704EA3A86BE8501450298AF
:105A00008357A4FEC207C1838507C207C18323153C
:105A1000F4FE8357A4FEC207C183BE84032504D9C4
:105A2000EFA081032A87835744FEC207C187B3577B
:105A3000F7028507E3E4F4ECADA0930704DA13065C
:105A4000001081453E85EFA0AFFB9387C1009C47C6
:105A50000325C4D98297832704D985C3130504DAA3
:105A6000032704D9832644D9032684D9B7370200F3
:105A7000938547BEEF90517831A8130704DA832647
:105A800044D9032684D9B7370200938507C03A85E5
:105A9000EF9091769387C1009847930704DA3E858B
:105AA000029701008320C1260324812683244126F6
:105AB000130101278280797106D622D40018232E83
:105AC000A4FC232CB4FC232AC4FC232604FEB9A086
:105AD0000100B7370200938787739C479305000442
