:100000006F80406113000000130000001300000027
:100010001300000013000000130000001300000094
:100020001300000013000000130000001300000084
:08003000130000007300100032
:1000380000000000000000001C8200002C8200006C
:10004800000000005A8500000000000000000000C9
:100058005C8500005E8500000000000000000000D4
:1000680060850000000000006285000000000000BC
:100078006485000066850000688500006A850000C8
:100088006C8500006E85000076770000827800009D
:10009800F67800006A790000DE7900007A850000B1
:1000A8007C8500007E850000808500008285000038
:1000B8008485000086850000888500008A85000008
:1000C8008C8500008E85000090850000527A000023
:1000D800948500000E7C0000988500009A85000039
:1000E800A27C00001A7D0000AC7E0000A285000002
:1000F800A4850000A6850000A8850000AA85000048
:10010800AC850000C472000048730000CC73000086
:100118002A7B0000B6850000B8850000BA8500007B
:10012800A4800000BE850000C0850000C2850000D4
:10013800C4850000C68500002C7F0000CA85000029
:1001480050740000D4740000AC7F000024800000CC
:10015800D4850000D6850000D8850000DA85000027
:10016800DC850000DE850000E0850000E2850000F7
:10017800E4850000E6850000E885000008A9000085
:10018800EC850000EE850000E67600005A75000058
:10019800DE75000066760000F88500002481000006
:1001A800FC850000FE85000000860000A481000098
:1001B8000486000006860000088600000A86000003
:1001C8000C8600000E8600001086000012860000D3
:1001D8000000000000000000000000000000000017
:1001E8000000000000000000000000000000000007
:0801F8000000000000000000FF
:100200003D432A876373C3029377F700BDEFADE5E3
:10021000937606FF3D8ABA960CC34CC30CC74CC7F5
:100220004107E36BD7FE11E28280B306C3408A0622
:100230009702000096966780A6002307B700A306E2
:10024000B7002306B700A305B7002305B700A30432
:10025000B7002304B700A303B7002303B700A3022A
:10026000B7002302B700A301B7002301B700A30022
:10027000B7002300B700828093F5F50F93968500B1
:10028000D58D93960501D58D61B79396270097027A
:10029000000096968682E78086FA9680C1171D8FA9
:1002A0003E96E374C3F8A5B7011122CE00102326B1
:1002B000A4FE2324B4FEB1A0B7F700E023A00700FA
:1002C000B7F700E0814501468CC7D0C7B7F700E01B
:1002D000054690C30100B7F700E003A8C7009C479C
:1002E0000326C4FEB2860147C2853A86636BB60018
:1002F000C2853A86E391C5FE3E86B68763E3C700B2
:10030000D9BF832784FE1386F7FF2324C4FECDF7CD
:100310000100724405618280797106D622D40018EA
:10032000232EA4FC231704FE231604FE0327C4FD7A
:10033000A54763E1E70C8327C4FD13972700B72780
:1003400002009387C747BA979C438287B73701401B
:10035000938707C083D74702C207C1832317F4FEE0
:1003600069A8B707004083D74702C207C183231794
:10037000F4FE61A0B70700409387074083D7470288
:10038000C207C1832317F4FE8DA8B71700409387D7
:10039000078083D74702C207C1832317F4FEB1A8A1
:1003A000B7170040938707C083D74702C207C183AE
:1003B0002317F4FE99A0B73701409387074083D7EE
:1003C0004702C207C1832317F4FE05A8B7570140AF
:1003D000938707C083D74702C207C1832317F4FE60
:1003E00029A8B757014083D74702C207C183231703
:1003F000F4FE21A0231704FE0100B7070020138795
:1004000007008327C4FDBA9783C7070013F7F70FC8
:100410009307F00F6317F7008357E4FE2316F4FEEB
:1004200035A8B7070020138707008327C4FDBA97B4
:1004300083C7070093F7F70F3E85EF009008AA8760
:1004400091EB8357E4FEB307F040C207C183231644
:10045000F4FE29A08357E4FE2316F4FE8317C4FE9E
:100460003E85B250225445618280011122CE001097
:100470002326A4FE0327C4FEA54763E1E7088327DC
:10048000C4FE13972700B72702009387474ABA97FD
:100490009C438287B7370140938707C023920702A6
:1004A000B9A8B70700402392070291A8B7070040F8
:1004B000938707402392070299A0B71700409387BC
:1004C00007802392070225A8B7170040938707C02B
:1004D000239207022DA0B73701409387074023924C
:1004E000070231A8B7570140938707C0239207023C
:1004F00039A0B75701402392070211A00100010063
:10050000724405618280397106DE22DC8000232678
:10051000A4FC2324B4FC2322C4FC232604FE91451E
:100520000325C4FCEF20C03DAA873E871306100DAB
:10053000B7170200938547623A85EF50F01A832778
:10054000C4FC1397C700832784FC7D8F8327C4FCDA
:10055000B207B307F74093B7170093F7F70F3E873B
:100560001306200DB7170200938547623A85EF50B6
:10057000B0178327C4FC1397C700832744FC7D8FE3
:100580008327C4FCB207B307F74093B7170093F76C
:10059000F70F3E871306300DB717020093854762A9
:1005A0003A85EF5070140325C4FCEF20C03B83272D
:1005B00084FC93F7F70F93068004014681453E853E
:1005C000EF004074832744FC93F7F70F93068004F1
:1005D000014681453E85EF00E072832784FC13F7D6
:1005E000F70FB7070020938607008327C4FCB69750
:1005F0002380E7000327C4FCA54763E1E7088327BE
:10060000C4FC13972700B72702009387C74CBA97FB
:100610009C438287B7370140938707C02324F4FEA9
:100620008DA0B70700402324F4FEA1A8B70700401F
:10063000938707402324F4FEA9A0B71700409387AF
:1006400007802324F4FE35A8B7170040938707C01E
:100650002324F4FE3DA0B7370140938707402324AD
:10066000F4FE05A0B7570140938707C02324F4FE8A
:1006700009A8B75701402324F4FE21A0854723266B
:10068000F4FE85450545EF80B03C832784FC13D7F5
:1006900087008D47631AF7008545B7071600138555
:1006A000070CEF80E067E5A8832784FC13D7870059
:1006B000C547631AF7008545B7071800138507106B
:1006C000EF800066E9A8832784FC13D7870093078F
:1006D0002002631AF7008545B7171A0013850780B3
:1006E000EF8000646DA8832784FC13D787009307ED
:1006F0003002631AF7008545B7171A00138507C043
:10070000EF80006269A8832784FC13D787009307D2
:1007100010036317F70085450565EF80606041A011
:10072000832784FC13D7870093071007631AF70009
:100730008545B707008013854700EF80605E85A080
:10074000832784FC13D7870093073008631AF700C8
:100750008545B707138013850701EF80605C81A092
:10076000832784FC13D7870093071009631AF700C7
:100770008545B707158013850702EF80605A05A0ED
:10078000832784FC13D78700930730096319F70088
:100790008545B707158013850704EF8060588327C8
:1007A000C4FEA9EB232E04FC232004FE231204FE26
:1007B0009307C4FD3E85EF90805C231E04FCFD572B
:1007C0002310F4FE231104FE231F04FC230204FE65
:1007D0009307C4FDBE85032584FEEF807055930505
:1007E0000006032584FEEF90C06F8545032584FE37
:1007F000EF90A05C0100F250625421618280797117
:1008000006D622D40018232EA4FC232CB4FC854544
:100810000545EF80F02393068004054681450325B6
:10082000C4FDCD218327C4FD958313F7F70F8327DC
:10083000C4FD93F7F70FFD8B93F7F70FBE853A854D
:10084000EF80806A232004FE232204FE232404FE7A
:10085000232604FE8327C4FDFD8B0547B317F7004D
:100860002320F4FE232204FE832784FD2324F4FEA8
:1008700085472326F4FE930704FE3E85EF70306221
:100880008327C4FDFD8B89E75945EF60F015BDA0B6
:100890008327C4FDF98B89E75D45EF60F014B9A8A3
:1008A0008327C4FD13F7F701894763E6E700614535
:1008B000EF609013A1A08327C4FDF18B89E7654504
:1008C000EF60901225A88327C4FD13F7F701914725
:1008D00063E6E7006945EF6030110DA08327C4FD92
:1008E00013F7F701A54763E7E70013057002EF6010
:1008F000B00F29A013058003EF60100F0100B25064
:10090000225445618280797106D622D40018232EA4
:10091000A4FC232CB4FC8327C4FD93B7070493F7EE
:10092000F70F3E8713067003B717020093854768D9
:100930003A85EF50605B832784FD93B7470093F7B8
:10094000F70F3E8713068003B717020093854768A9
:100950003A85EF506059A30704FE0327C4FDA16741
:10096000BA9713972700832784FDBA97AA072324F1
:10097000F4FE231604FE35A00357C4FE832784FE2D
:10098000BA979843B7E739E3938797336306F7003D
:100990008547A307F4FE21A88357C4FE91072316B9
:1009A000F4FE0357C4FE9307F03FE3F7E7FC8347E9
:1009B000F4FE3E85B250225445618280797106D69C
:1009C00022D40018232EA4FC232CB4FC8327C4FDBE
:1009D00093B7070493F7F70F3E8713064005B71741
:1009E0000200938547683A85EF500050832784FDC5
:1009F00093B7470093F7F70F3E8713065005B717D5
:100A00000200938547683A85EF50004EA30704FE25
:100A10000327C4FDA167BA9713972700832784FD96
:100A2000BA97AA072324F4FEEF70D065130540039C
:100A3000EF70107C032584FEEF7050692A87B7079A
:100A4000002023A4E76C13050002EF70707AEF70AA
:100A50001066B707002003A7876C91476305F7006E
:100A60008547A307F4FE8347F4FE3E85B250225427
:100A700045618280797106D622D40018232EA4FC09
:100A8000232CB4FC8327C4FD93B7070493F7F70F17
:100A90003E871306800BB7170200938547683A8597
:100AA000EF508044832784FD93B7470093F7F70FF7
:100AB0003E871306900BB7170200938547683A8567
:100AC000EF5080420327C4FDA167BA971397270010
:100AD000832784FDBA97AA072324F4FE231704FE74
:100AE0003DA08357E4FE8A073E87832784FEBA979A
:100AF0008356E4FE9843B71700208A069387078938
:100B0000B69798C38357E4FE85072317F4FE03576F
:100B1000E4FE9307F00FE3F6E7FC0100B250225425
:100B200045618280797106D622D40018232EA4FC58
:100B3000232CB4FC8327C4FD93B7070493F7F70F66
:100B40003E871306D00CB7170200938547683A8595
:100B5000EF508039832784FD93B7470093F7F70F51
:100B60003E871306E00CB7170200938547683A8565
:100B7000EF508037A30704FE232404FE231304FE52
:100B80000327C4FDA167BA9713972700832784FD25
:100B9000BA97AA072324F4FE832584FD0325C4FD08
:100BA0009D33AA8791C7832584FD0325C4FD39356C
:100BB000EF70504D89A8035764FEB71700200A074D
:100BC00093870789BA979C43BE85032584FEEF70FF
:100BD00050572A87B707002023A6E76CB7070020E5
:100BE00003A7C76C91476306F7008547A307F4FE88
:100BF0000DA0835764FE85072313F4FE832784FE2C
:100C000091072324F4FE035764FE9307F00FE3F4E7
:100C1000E7FAEF70D0498347F4FE3E85B250225484
:100C200045618280411106C622C4000813060040B7
:100C30009305F00FB717002013850789EFF04FDCFD
:100C40000100B240224441018280011122CE0010F5
:100C50002326A4FEAE87A305F4FE8347B4FE85CB0E
:100C60008327C4FEBD8B0547B317F7009396070192
:100C7000C1828327C4FE13D75700B70700200A0795
:100C80009387C700BA979C43368798CB3DA08327AC
:100C9000C4FEBD8B0547B317F70093960701C182C9
:100CA0008327C4FE13D75700B70700200A0793878E
:100CB000C700BA979C433687D8CB010072440561C0
:100CC0008280011122CE00102326A4FE8327C4FEB9
:100CD000958313F77700B70700200A079387C700AB
:100CE000BA979C439C470327C4FE7D8B8546339768
:100CF000E600F98FB337F00093F7F70F3E857244A3
:100D000005618280797106D622D40018232EA4FCB6
:100D1000232CB4FCB2872328D4FCA30BF4FC23209F
:100D200004FE232204FE232404FE8327C4FD9583AE
:100D300093F7F70F9D8BA307F4FE8327C4FD93F76A
:100D4000F70FFD8B2307F4FE8347F4FE91E78545FB
:100D50001145EF80E04F91A80347F4FE85476317E4
:100D6000F70085452145EF80A04E81A00347F4FEA2
:100D700089476317F70085454145EF80604D35A0F1
:100D80000347F4FE8D476318F700854513050002FD
:100D9000EF80004C19A80347F4FE91476317F70052
:100DA000854513050004EF80A04A8347E4FE05470C
:100DB000B317F700C207C1832310F4FE032784FD95
:100DC00085476317F702832704FDC207C183A18308
:100DD000C207C18389E78D472322F4FE11A8832728
:100DE00004FDC207C183A183C207C1832322F4FE8D
:100DF000832704FDC207C18393F7F70F2324F4FE72
:100E00000347F4FEB70700200A079387C700BA9785
:100E10009C43130704FEBA853E85EF70504A0327B2
:100E200084FD85476319F7020347F4FEB7070020E6
:100E30000A079387C700BA9794438347E4FE0547A0
:100E4000B317F700C207C183034774FD3A86BE8516
:100E50003685EF7070690100B2502254456182807E
:100E60001D7186CEA2CC80102326A4FA2324B4FAC6
:100E700085450325C4FAEF10B028AA873E871306DC
:100E8000D006B7170200938587703A85EF50C005EA
:100E9000832784FAB337F00093F7F70F3E871306E2
:100EA000F006B7170200938587703A85EF50C003AC
:100EB000832784FABD832315F4FE8357A4FE850798
:100EC0003E87832784FAB3D7E7022314F4FE032571
:100ED000C4FAEF105029B7370140938707C0232683
:100EE000F4FE0327C4FAA54763EDE7088327C4FA95
:100EF00013972700B72702009387474FBA979C4361
:100F00008287B7370140938707C02326F4FE95A850
:100F1000B70700402326F4FEADA0B7070040938733
:100F200007402326F4FEB1A8B71700409387078037
:100F30002326F4FEB9A0B7170040938707C02326E5
:100F4000F4FE81A0B71700402326F4FE1DA8B717B2
:100F50000040938707402326F4FE25A0B7370140C1
:100F6000938707402326F4FE29A8B75701409387AB
:100F700007C02326F4FE31A0B75701402326F4FE14
:100F80000100232E04FC232004FE231204FE8357B9
:100F900084FE2310F4FE8357A4FE231EF4FC2311C9
:100FA00004FE231F04FC230204FE9307C4FDBE8538
:100FB0000325C4FEEF80C057054685450325C4FEC2
:100FC000EF80306B85450325C4FEEF90C02AB7172C
:100FD000020003AE076E1387076E032347001387D3
:100FE000076E832887001387076E0328C7001387BF
:100FF000076E084B1387076E4C4B1387076E104F15
:101000001387076E544F1387076E18539387076E25
:10101000DC53232AC4FB232C64FA232E14FB232045
:1010200004FD2322A4FC2324B4FC2326C4FC23288F
:10103000D4FC232AE4FC232CF4FC8327C4FA93F782
:10104000F70F8A07130704FFBA9783A747FC8D455C
:101050003E85EF60201D8327C4FA8A07130704FF2B
:10106000BA9783A747FC3E85EF60001885450325A6
:10107000C4FEEF8090540100F640664425618280F2
:10108000797106D622D40018232EA4FC232CB4FC9C
:10109000032784FD896793871771B337F70093F7A8
:1010A000F70F3E8713065003B71702009385477664
:1010B0003A85EF407063B7370140938707C0232616
:1010C000F4FE8327C4FDC183BD8B2547636FF706FC
:1010D00013972700B72702009387C751BA979C43FD
:1010E0008287B7370140938707C02326F4FEB1A853
:1010F000B70700402326F4FE89A8B707004093876E
:1011000007402326F4FE91A0B7170040938707807D
:101110002326F4FE1DA8B7170040938707C0232697
:10112000F4FE25A0B7370140938707402326F4FE3D
:1011300029A8B7570140938707C02326F4FE31A0A2
:10114000B75701402326F4FE01008327C4FE83D74E
:10115000C7022315F4FE0357A4FE832784FD33073B
:10116000F702896793870771B357F7022314F4FED8
:101170008327C4FDA1838D8B81EB8327C4FE035796
:1011800084FE239AE702A9A88327C4FDA18313F74D
:10119000370085476319F7008327C4FE035784FE91
:1011A000239CE70235A88327C4FDA18313F73700EA
:1011B00089476319F7008327C4FE035784FE239EE3
:1011C000E70239A88327C4FDA18313F737008D47B1
:1011D0006318F7008327C4FE035784FE2390E704B7
:1011E0000100B2502254456182805D7186C6A2C45E
:1011F0008008232EA4FA232CB4FA232AC4FA8327C6
:10120000C4FBC1838D453E85EF10806FAA873E8762
:101210001306D00AB7170200938547763A85EF4048
:10122000B04C032744FB896793871771B337F700E6
:1012300093F7F70F3E871306F00AB717020093855E
:1012400047763A85EF40504A232E04FC232004FEC3
:10125000231204FE232604FC232804FC232A04FC76
:10126000232C04FC231504FE8327C4FBC183BD8B00
:101270003E85EF10406F8327C4FB93F7F70F93066B
:101280008031014685453E85B53C85450545EF7075
:10129000307CB7370140938707C02326F4FE8327AD
:1012A000C4FBC183BD8B2547636FF70613972700E7
:1012B000B727020093874754BA979C438287B73772
:1012C0000140938707C02326F4FEB1A8B70700406A
:1012D0002326F4FE89A8B7070040938707402326FA
:1012E000F4FE91A0B7170040938707802326F4FEF1
:1012F0001DA8B7170040938707C02326F4FE25A03A
:10130000B7370140938707402326F4FE29A8B75733
:101310000140938707C02326F4FE31A0B757014050
:101320002326F4FE01008327C4FB13D7C7008D4793
:10133000631AF7008545B70716001385070CEF7091
:10134000301E15AA8327C4FB13D7C700C547631AED
:10135000F7008545B707180013850710EF70501C7C
:1013600019AA8327C4FB13D7C700C947631AF7001C
:101370008545B707180013850720EF70701AE5A898
:101380008327C4FB13D7C700CD47631AF7008545F1
:10139000B707180013850730EF709018E9A8832766
:1013A000C4FB13D7C70093072002631AF7008545D3
:1013B000B7171A0013850780EF7090166DA8832762
:1013C000C4FB13D7C70093073002631AF7008545A3
:1013D000B7171A00138507C0EF70901469A8832708
:1013E000C4FB13D7C700930710036317F7008545A5
:1013F0000565EF70F01241A08327C4FB13D7C70027
:1014000093071007631AF7008545B7070080138517
:101410004700EF70F01085A08327C4FB13D7C700E7
:1014200093073008631AF7008545B70713801385C3
:101430000701EF70F00E81A08327C4FB13D7C7000C
:1014400093071009631AF7008545B70715801385C0
:101450000702EF70F00C05A08327C4FB13D7C70069
:10146000930730096319F7008545B7071580138581
:101470000704EF70F00A03A70181832784FBB357A9
:10148000F702C1832315F4FE03A701818357A4FE4D
:101490008507BE86832784FBB387F602B357F7021E
:1014A0002314F4FE035784FE832744FB3307F7021B
:1014B000896793870771B357F7022313F4FE8357A5
:1014C00084FEFD17C207C1832310F4FE8357A4FED8
:1014D000231EF4FC231104FE231F04FC230204FE3C
:1014E0009307C4FDBE850325C4FEEF806004930707
:1014F00000072316F4FC85472317F4FC231804FC8B
:10150000835764FE2319F4FC8947231AF4FC8947A6
:10151000231BF4FC231C04FC231D04FC8327C4FBB5
:10152000A1838D8B9DE39307C4FCBE850325C4FE78
:10153000EF80E017A1450325C4FEEF80D02391453D
:101540000325C4FEEF80F03745A08327C4FBA183A9
:1015500013F7370085476315F7029307C4FCBE8570
:101560000325C4FEEF80602EA1450325C4FEEF8055
:101570005025930500400325C4FEEF805039ADA0EF
:101580008327C4FBA18313F7370089476314F7024D
:101590009307C4FCBE850325C4FEEF802049A14506
:1015A0000325C4FEEF80902791450325C4FEEF80FC
:1015B000703B1DA88327C4FBA18313F737008D4719
:1015C0006314F7029307C4FCBE850325C4FEEF80B5
:1015D000A063A1450325C4FEEF80102993050040B8
:1015E0000325C4FEEF80D03C85450325C4FEEF8073
:1015F000500285450325C4FEEF80207C0100B640E3
:10160000264461618280797106D622D40018232E87
:10161000A4FC8327C4FDB337F00093F7F70F3E8790
:1016200013061004B71702009385077C3A85EF4034
:10163000B00B8327C4FD9C43BD8B0547B317F70050
:1016400093960701C1828327C4FD9C4313D757009B
:10165000B70700200A079387C700BA979C433687CD
:1016600098CB8327C4FDDC43BD8B0547B317F70038
:1016700093960701C1828327C4FDDC4313D757002B
:10168000B70700200A079387C700BA979C4336879D
:1016900098CB8327C4FDDC472326F4FE0100832773
:1016A000C4FE1387F7FF2326E4FEF5FB8327C4FD62
:1016B000DC43BD8B0547B317F70093960701C18242
:1016C0008327C4FDDC4313D75700B70700200A0760
:1016D0009387C700BA979C433687D8CB8327C4FD2E
:1016E000DC472324F4FE0100832784FE1387F7FFE1
:1016F0002324E4FEF5FB8327C4FD9C43BD8B0547F3
:10170000B317F70093960701C1828327C4FD9C435A
:1017100013D75700B70700200A079387C700BA9767
:101720009C433687D8CB0100B25022544561828059
:10173000797106D622D40018232EA4FC8327C4FD79
:10174000B337F00093F7F70F3E8713064005B7173E
:1017500002009385077C3A85EF4000798327C4FD1A
:10176000DC43BD8B0547B317F70093960701C18291
:101770008327C4FDDC4313D75700B70700200A07AF
:101780009387C700BA979C433687D8CB8327C4FD7D
:101790009C43BD8B0547B317F70093960701C182A1
:1017A0008327C4FD9C4313D75700B70700200A07BF
:1017B0009387C700BA979C433687D8CB8327C4FD4D
:1017C000DC472326F4FE01008327C4FE1387F7FFBE
:1017D0002326E4FEF5FB8327C4FD9C43BD8B054710
:1017E000B317F70093960701C1828327C4FD9C437A
:1017F00013D75700B70700200A079387C700BA9787
:101800009C43368798CB8327C4FDDC472324F4FE12
:101810000100832784FE1387F7FF2324E4FEF5FBF2
:101820008327C4FDDC43BD8B0547B317F7009396B0
:101830000701C1828327C4FDDC4313D75700B707D4
:1018400000200A079387C700BA979C43368798CB36
:101850008327C4FDDC472322F4FE0100832744FED6
:101860001387F7FF2322E4FEF5FB0100B250225458
:1018700045618280797106D622D40018232EA4FCFB
:10188000AE87A30DF4FC8327C4FDB337F00093F7B4
:10189000F70F3E8713069006B71702009385077C63
:1018A0003A85EF4060648327C4FD9C43BD8B0547A8
:1018B000B317F70093960701C1828327C4FD9C43A9
:1018C00013D75700B70700200A079387C700BA97B6
:1018D0009C433687D8CB8347B4FD95CB8327C4FD83
:1018E000DC43BD8B0547B317F70093960701C18210
:1018F0008327C4FDDC4313D75700B70700200A072E
:101900009387C700BA979C43368798CB0DA8832747
:10191000C4FDDC43BD8B0547B317F7009396070161
:10192000C1828327C4FDDC4313D75700B7070020CB
:101930000A079387C700BA979C433687D8CB83277B
:10194000C4FDDC472326F4FE01008327C4FE138771
:10195000F7FF2326E4FEF5FB8327C4FD9C43BD8BE4
:101960000547B317F70093960701C1828327C4FD8B
:101970009C4313D75700B70700200A079387C70077
:10198000BA979C43368798CB8327C4FDDC47232432
:10199000F4FE0100832784FE1387F7FF2324E4FE6F
:1019A000F5FB8327C4FD9C43BD8B0547B317F700A8
:1019B00093960701C1828327C4FD9C4313D7570028
:1019C000B70700200A079387C700BA979C4336875A
:1019D000D8CB8327C4FDDC43BD8B0547B317F70085
:1019E00093960701C1828327C4FDDC4313D75700B8
:1019F000B70700200A079387C700BA979C4336872A
:101A000098CB0100B250225445618280797106D68C
:101A100022D40018232EA4FC8327C4FDB337F00082
:101A200093F7F70F3E8713065008B7170200938508
:101A3000077C3A85EF40404BA30704FE8327C4FD93
:101A40009C43BD8B0547B317F70093960701C182EE
:101A50008327C4FD9C4313D75700B70700200A070C
:101A60009387C700BA979C433687D8CB8327C4FD9A
:101A7000DC43BD8B0547B317F70093960701C1827E
:101A80008327C4FDDC4313D75700B70700200A079C
:101A90009387C700BA979C43368798CB8327C4FDAA
:101AA000DC472324F4FE0100832784FE1387F7FF1D
:101AB0002324E4FEF5FB8327C4FD9C43BD8B05472F
:101AC000B317F70093960701C1828327C4FD9C4397
:101AD00013D75700B70700200A079387C700BA97A4
:101AE0009C43368798CB8327C4FDDC472322F4FE32
:101AF0000100832744FE1387F7FF2322E4FEF5FB52
:101B00008327C4FDDC433E85EFF0AF9BAA8781C7E6
:101B10008547A307F4FE8327C4FD9C43BD8B05477F
:101B2000B317F70093960701C1828327C4FD9C4336
:101B300013D75700B70700200A079387C700BA9743
:101B40009C433687D8CB8327C4FDDC472320F4FE93
:101B50000100832704FE1387F7FF2320E4FEF5FB33
:101B60008347F4FE3E85B2502254456182807971EC
:101B700006D622D40018232EA4FCAE87A30DF4FCB5
:101B80008327C4FDB337F00093F7F70F3E871306A2
:101B9000700AB71702009385077C3A85EF40C0347E
:101BA000930700F8A307F4FE09AA0347B4FD83478F
:101BB000F4FEF98F93F7F70F95CB8327C4FDDC4331
:101BC000BD8B0547B317F70093960701C1828327A2
:101BD000C4FDDC4313D75700B70700200A079387DB
:101BE000C700BA979C43368798CB0DA88327C4FDBE
:101BF000DC43BD8B0547B317F70093960701C182FD
:101C00008327C4FDDC4313D75700B70700200A071A
:101C10009387C700BA979C433687D8CB8347F4FE97
:101C20008583A307F4FE8327C4FDDC472324F4FE49
:101C30000100832784FE1387F7FF2324E4FEF5FBCE
:101C40008327C4FD9C43BD8B0547B317F7009396CC
:101C50000701C1828327C4FD9C4313D75700B707F0
:101C600000200A079387C700BA979C43368798CB12
:101C70008327C4FDDC472322F4FE0100832744FEB2
:101C80001387F7FF2322E4FEF5FB8327C4FD9C4363
:101C9000BD8B0547B317F70093960701C1828327D1
:101CA000C4FD9C4313D75700B70700200A0793874A
:101CB000C700BA979C433687D8CB8347F4FEE39698
:101CC00007EE0325C4FD9933AA87FD17B337F0004B
:101CD00093F7F70F3E85B2502254456182803971E7
:101CE00006DE22DC26DA80002326A4FCAE87A305CC
:101CF000F4FC8327C4FCB337F00093F7F70F3E875B
:101D00001306000CB71702009385077C3A85EF4055
:101D1000A01DA30704FEA1472307F4FE8327C4FCEC
:101D20009C43BD8B0547B317F70093960701C1820B
:101D30008327C4FC9C4313D75700B70700200A072A
:101D40009387C700BA979C433687D8CB8327C4FCB8
:101D5000DC472324F4FE0100832784FE1387F7FF6A
:101D60002324E4FEF5FB8327C4FCDC43BD8B05473D
:101D7000B317F70093960701C1828327C4FCDC43A5
:101D800013D75700B70700200A079387C700BA97F1
:101D90009C43368798CB7DA88327C4FC9C43BD8B8E
:101DA0000547B317F70093960701C1828327C4FC48
:101DB0009C4313D75700B70700200A079387C70033
:101DC000BA979C433687D8CB8327C4FCDC472322B1
:101DD000F4FE0100832744FE1387F7FF2322E4FE6D
:101DE000F5FB8327C4FC9C43BD8B0547B317F70065
:101DF00093960701C1828327C4FC9C4313D75700E5
:101E0000B70700200A079387C700BA979C43368715
:101E100098CB8327C4FCDC472320F4FE01008327F2
:101E200004FE1387F7FF2320E4FEF5FB8347F4FE4F
:101E3000860793948701E1848327C4FCDC433E85B5
:101E4000EFE03FE8AA87E207E187C58FE207E18775
:101E5000A307F4FE8347E4FE1387F7FF2307E4FE9E
:101E600085FF8327C4FC9C43BD8B0547B317F70050
:101E700093960701C1828327C4FC9C4313D7570064
:101E8000B70700200A079387C700BA979C43368795
:101E9000D8CB8327C4FCDC47232EF4FC0100832726
:101EA000C4FD1387F7FF232EE4FCF5FB8347B4FC46
:101EB000BE850325C4FCEFF0FF9B8347F4FE3E85FF
:101EC000F2506254D25421618280011106CE22CC9C
:101ED00000102326A4FEAE873287A305F4FEBA873E
:101EE0002305F4FE8327C4FEB337F00093F7F70F02
:101EF0003E8713066013B71702009385077C3A8567
:101F0000EF30907E0325C4FEEFF0EFEF8327C4FE91
:101F100083C78700860793F7F70FBE850325C4FEA6
:101F2000B9318347B4FEBE850325C4FE893183479A
:101F3000A4FEBE850325C4FE1D390325C4FEEFF0B3
:101F40002FFF0100F240624405618280797106D65C
:101F500022D40018232EA4FCAE87A30DF4FC832703
:101F6000C4FDB337F00093F7F70F3E871306401E0A
:101F7000B71702009385077C3A85EF30F076A30708
:101F800004FE0325C4FDEFF00FE88327C4FD83C7DB
:101F90008700860793F7F70FBE850325C4FDC13E72
:101FA0008347B4FDBE850325C4FDD1360325C4FD9A
:101FB000EFF06FE58327C4FD83C787008607E2073C
:101FC000E18793E71700E207E18793F7F70FBE85F4
:101FD0000325C4FD693E85450325C4FD0933AA8751
:101FE000A307F4FE0325C4FDEFF08FF48347F4FE4E
:101FF0003E85B250225445618280011106CE22CC2A
:1020000026CA00102326A4FEAE872322C4FE232066
:10201000D4FEA305F4FE8327C4FEB337F00093F784
:10202000F70F3E871306C01FB71702009385077C82
:102030003A85EF30706B832744FEB337F00093F797
:10204000F70F3E871306D01FB71702009385077C52
:102050003A85EF3070690325C4FEEFF0CFDA8327AD
:10206000C4FE83C78700860793F7F70FBE85032555
:10207000C4FEF53C8347B4FEBE850325C4FEC53CC3
:102080000325C4FEEFF02FD88327C4FE83C7870043
:102090008607E207E18793E71700E207E18793F7F6
:1020A000F70FBE850325C4FED9342DA0832704FE77
:1020B00093B7170093F7F70F3E87832444FE938767
:1020C00014002322F4FEBA850325C4FE0939AA8729
:1020D0002380F400832704FE1387F7FF2320E4FE08
:1020E000F1F70325C4FEEFF0AFE40100F2406244D3
:1020F000D24405618280797106D622D40018232E3D
:10210000A4FCAE87A30DF4FC8327C4FDB337F00015
:1021100093F7F70F3E871306D029B7170200938570
:10212000077C3A85EF30505CA30704FE0325C4FD0D
:10213000EFF06FCD8327C4FD83C78700860793F731
:10214000F70FBE850325C4FDEFF07FA28347B4FDE2
:10215000BE850325C4FDEFF09FA10325C4FDEFF06C
:102160002FDD0325C4FDEFF00FCA8327C4FD83C70D
:1021700087008607E207E18793E71700E207E18718
:1021800093F7F70FBE850325C4FDEFF05F9E8545ED
:102190000325C4FDA936AA87A307F4FE0325C4FDC1
:1021A000EFF00FD98347F4FE3E85B25022544561CB
:1021B0008280797106D622D400182326A4FEAE8729
:1021C0002322C4FE2320D4FE232EE4FCA305F4FE28
:1021D0008327C4FEB337F00093F7F70F3E8713064B
:1021E000802BB71702009385077C3A85EF30D04FDC
:1021F000032704FE8327C4FDB307F740B337F0007D
:1022000093F7F70F3E871306902BB71702009385BD
:10221000077C3A85EF30504D8327C4FE032704FE28
:1022200098C38327C4FE0327C4FDD8C38327C4FEF5
:102230000347B4FE2384E7008327C4FE032744FE3C
:10224000D8C7C14605468545032504FEEFE09FAB90
:10225000D146054685450325C4FDEFE0BFAA010030
:10226000B250225445618280011122CE00102326F3
:10227000A4FEAE87A305F4FEB72702000327C4FE21
:102280000A079387C756BA979C433E878347B4FE95
:10229000C207C1832316F7000100B72702000327F6
:1022A000C4FE0A079387C756BA979C4383D7870013
:1022B000C207C18393F70708EDF3B727020003278E
:1022C000C4FE0A079387C756BA979C4383D7C700B3
:1022D0000100724405618280011122CE0010232684
:1022E000A4FEAE872315F4FE8357A4FEA183C20784
:1022F000C18393F6F70FB72702000327C4FE0A072E
:102300009387C756BA979C433E8793970601C1832C
:102310002316F7000100B72702000327C4FE0A07AF
:102320009387C756BA979C4383D78700C207C18358
:1023300093F70708EDF38357A4FE93F6F70FB7273B
:1023400002000327C4FE0A079387C756BA979C4327
:102350003E8793970601C1832316F7000100B72734
:1023600002000327C4FE0A079387C756BA979C4307
:1023700083D78700C207C18393F70708EDF30100F5
:10238000724405618280011122CE00102326A4FE32
:10239000AE873287A305F4FEBA872305F4FEB7277C
:1023A00002000327C4FE0A079387C756BA979C43C7
:1023B0003E878347B4FEC207C1832316F70001009E
:1023C000B72702000327C4FE0A079387C756BA97A8
:1023D0009C4383D78700C207C18393F70708EDF3B7
:1023E000B72702000327C4FE0A079387C756BA9788
:1023F0009C4383D7C700B72702000327C4FE0A0700
:102400009387C756BA979C433E878347A4FEC2076B
:10241000C1832316F7000100B72702000327C4FE7B
:102420000A079387C756BA979C4383D78700C2078A
:10243000C18393F70708EDF3B72702000327C4FE13
:102440000A079387C756BA979C4383D7C7000100F2
:10245000724405618280011122CE00102326A4FE61
:10246000AE872322C4FE2320D4FEA305F4FEB727A3
:1024700002000327C4FE0A079387C756BA979C43F6
:102480003E878347B4FEC207C1832316F7000100CD
:10249000B72702000327C4FE0A079387C756BA97D7
:1024A0009C4383D78700C207C18393F70708EDF3E6
:1024B00089A8832744FE138717002322E4FE83C6DE
:1024C0000700B72702000327C4FE0A079387C756F1
:1024D000BA979C433E8793970601C1832316F70062
:1024E0000100B72702000327C4FE0A079387C756D7
:1024F000BA979C4383D78700C207C18393F7070825
:10250000EDF3832704FE1387F7FF2320E4FED5F3C2
:102510000100724405618280011122CE0010232641
:10252000A4FEAE872322C4FE2320D4FEA305F4FE1E
:10253000B72702000327C4FE0A079387C756BA9736
:102540009C433E878347B4FEC207C1832316F7002E
:102550000100B72702000327C4FE0A079387C75666
:10256000BA979C4383D78700C207C18393F70708B4
:10257000EDF3B72702000327C4FE0A079387C75667
:10258000BA979C4383D7C700ADA0B72702000327A3
:10259000C4FE0A079387C756BA979C432396070041
:1025A0000100B72702000327C4FE0A079387C75616
:1025B000BA979C4383D78700C207C18393F7070864
:1025C000EDF3B72702000327C4FE0A079387C75617
:1025D000BA979C4383D7C70093960701C18283278C
:1025E00044FE138717002322E4FE13F7F60F23801F
:1025F000E700832704FE1387F7FF2320E4FED1F7CB
:1026000001007244056182805D7186C6A2C48008A3
:102610002326A4FC2324B4FC2322C4FC2320D4FCC2
:10262000232EE4FA232CF4FA232A04FBB727020012
:102630000327C4FC0A079387C756BA979C433E8575
:10264000EF60905285450545EF609040032704FCFC
:10265000930730126313F702032784FB930740129A
:10266000631DF7000327C4FB930750126317F7009D
:1026700085450545EF60C06A1DA8032704FC8967EE
:102680009387A7146315F702032784FB8967938751
:10269000B714631EF7000327C4FB89679387C71429
:1026A0006317F700854537152000EF6060678327C3
:1026B000C4FC91E785450565EF60903925A00327A7
:1026C000C4FC85476317F70085451165EF60B03C92
:1026D00011A80327C4FC89476316F70085452165C7
:1026E000EF60703B832704FC93F7F70F930680316C
:1026F000054685453E85EFE0EFE08327C4FB93F771
:10270000F70F93068031054685453E85EFE08FDF64
:10271000032784FBC167F917630DF700832784FB48
:1027200093F7F70F93068034054681453E85EFE029
:102730006FDD032744FB9307F00F630DF70083273A
:1027400044FB93F7F70F93060031014685453E851C
:10275000EFE04FDB232E04FC232004FE232204FEA3
:10276000232404FE231604FE231E04FC93074010BA
:10277000231FF4FC231004FE032784FC8547630514
:10278000F702832784FC81CF032784FC89476303F6
:10279000F702032784FC8D476304F7020DA8231179
:1027A00004FE231204FE25A0231104FE85472312F4
:1027B000F4FE31A889472311F4FE231204FE01A878
:1027C00089472311F4FE85472312F4FE01002317E5
:1027D00004FE03A70181832744FCB357F7022317A4
:1027E000F4FE03A70181832744FCB377F70291E746
:1027F0008357E4FEFD172317F4FE0357E4FE930707
:10280000F00763F7E700930780032317F4FE51A84E
:102810000357E4FE9307F00363F7E7009307000311
:102820002317F4FEBDA80357E4FEFD4763F7E70056
:10283000930780022317F4FEADA00357E4FEBD47C3
:1028400063F7E700930700022317F4FE99A80357E4
:10285000E4FE9D4763F6E700E1472317F4FE91A0ED
:102860000357E4FE8D4763F6E700C1472317F4FEE4
:102870000DA80357E4FE854763F6E700A147231739
:10288000F4FE05A08357E4FE81C7231704FE11A8B8
:1028900013067021B7270200938507820145EF30A8
:1028A000A0648357E4FE2314F4FE9307002023134F
:1028B000F4FE231504FE9D472316F4FEB7270200FD
:1028C0000327C4FC0A079387C756BA979C433E87E1
:1028D0009307C4FDBE853A85EF607030B7270200CC
:1028E0000327C4FC0A079387C756BA979C438545BC
:1028F0003E85EF60503E0100B64026446161828013
:10290000797122D60018232EA4FC232CB4FC854711
:10291000A307F4FE0327C4FD0A07938781DCBA9757
:102920009C4399EB0327C4FD0A07938781DCBA9780
:10293000032784FD98C315A00327C4FD0A079387C6
:1029400081DCBA979C43032784FD6316F700854713
:10295000A307F4FE19A0A30704FE8347F4FE3E85F7
:10296000325445618280011106CE22CC001023260C
:10297000A4FE8327C4FE81EB854585671385078008
:10298000EF60100D6DA80327C4FE85476317F7009D
:1029900085450545EF6030105DA00327C4FE8947DB
:1029A0006317F70085450945EF60F00E49A8032736
:1029B000C4FE8D476317F70085451145EF60B00DE4
:1029C000BDA80327C4FE91476317F700854521453D
:1029D000EF60700CADA00327C4FE95476317F700A6
:1029E00085454145EF60300B99A80327C4FE994700
:1029F0006318F700854513050002EF60D00981A038
:102A00000327C4FE9D476317F70085450965EF60FE
:102A1000300435A00327C4FEA1476318F70085459D
:102A200037050800EF60D00219A80327C4FEA547A8
:102A30006317F700854537051000EF60700101004E
:102A4000F240624405618280011122CE00102326EB
:102A5000A4FEAE87A305F4FE0100B72702000327FA
:102A6000C4FE0A0793878757BA979C4383D707000A
:102A7000C207C18393F70708EDD3B72702000327E6
:102A8000C4FE0A0793878757BA979C433E878347BC
:102A9000B4FEC207C1832312F7000100724405612E
:102AA0008280011106CE22CC00102326A4FE23240E
:102AB000B4FE2322C4FE832784FEB337F00093F7CD
:102AC000F70F3E8713061004B72702009385C787C8
:102AD0003A85EF30604129A8832784FE13871700C9
:102AE0002324E4FE83C70700BE850325C4FEA93F57
:102AF000832744FE1387F7FF2322E4FEF1FF010042
:102B0000F240624405618280011106CE22CC0010A1
:102B10002326A4FE2324B4FE832784FEB337F000CB
:102B200093F7F70F3E8713060005B727020093853A
:102B3000C7873A85EF30403B39A8832784FE138747
:102B400017002324E4FE8387070093F7F70FBE8561
:102B50000325C4FED53D832784FE83870700F1FF4C
:102B60000100F240624405618280011106CE22CC50
:102B700000102326A4FEAE87A305F4FEB7270200AB
:102B80000327C4FE0A0793878757BA979C433E875B
:102B90008347B4FE3E86930550523A85EF70D019B4
:102BA000138701878327C4FEBA9783C7070081452F
:102BB0003E85EF4020678347B4FE81CF13870187AE
:102BC0008327C4FEBA9783C707003E85EF40C061E4
:102BD00019A8138701878327C4FEBA9783C7070004
:102BE0003E85EF4040620100F24062440561828010
:102BF000011122CE00102326A4FE2324B4FEB72701
:102C000002000327C4FE0A0793878757BA979C439D
:102C100083D70700C207C18393F7070295C7B72779
:102C200002000327C4FE0A0793878757BA979C437D
:102C300083D74700C207C18313F7F70F832784FEAA
:102C40002380E700854711A081473E8572440561D6
:102C50008280797106D622D40018232EA4FC232C5E
:102C6000B4FC232AC4FC2328D4FC032744FD832777
:102C700004FD3D8F8327C4FDB207F98F93B717007A
:102C800093F7F70F3E871306A00AB7270200938534
:102C9000C7873A85EF304025832744FD13D7870047
:102CA000832704FDA183B307F74093B7170093F779
:102CB000F70F3E871306B00AB72702009385C78730
:102CC0003A85EF306022832744FD93F7F70FE14602
:102CD000014685453E85EFE0EF82832704FD93F7AB
:102CE000F70F93068004014681453E85EFE08F8112
:102CF00085450545EF60C055032744FDC167FD17B5
:102D0000F98F0D67130707386385E7200D671307F1
:102D100007386369F7040567130757166381E716D9
:102D2000056713075716636FF7001307F022638ACE
:102D3000E70C130760306381E710130760126388A4
:102D4000E70855A6096713078736638AE7160D67F4
:102D5000130707126385E71809671307A714638031
:102D6000E71451A615671307A738638CE726156784
:102D70001307A7386362F702116713078738638E5A
:102D8000E71E1567130787126383E722116713078E
:102D90004712638AE71A81AE19671307C73863863B
:102DA000E72A19671307C7386368F700196713071D
:102DB00067106382E72605AE1D671307E71063807F
:102DC000E72C1D671307E7386385E72E29AEB707A1
:102DD0000140D44FB7070140370700FC7D17758FBE
:102DE000D8CFB7070140D843B70701406D9BD8C380
:102DF000B7070140D843B707014013674700D8C35E
:102E0000DDA4B7070140D44FB7070140370700FCE6
:102E10007D17758FD8CFB7070140D44FB707014052
:102E200037070004558FD8CFB7070140D843B707FD
:102E300001406D9BD8C345ACB7070140D44FB707DD
:102E40000140370700FC7D17758FD8CFB7070140C9
:102E5000D44FB707014037070004558FD8CFB707C5
:102E60000140D843B70701406D9BD8C3B707014065
:102E7000D843B707014013674700D8C3ADA4B707CD
:102E80000140D843B70701405D9BD8C3B707014055
:102E9000D843B707014013678700D8C3A9A4B70771
:102EA0000140D843B70701401D9BD8C3B707014075
:102EB000D843B707014013678700D8C32DA4B707CD
:102EC0000140D843B70701401D9BD8C3B707014055
:102ED000D843B707014013678701D8C329A4B707B0
:102EE0000140D44FB70701403707FDFF7D17758FAD
:102EF000D8CFB7070140D44F832744FDA183139750
:102F00000701B70703007D8FB7070140558FD8CF62
:102F1000D9AAB7070140D44FB70701403707FDFFD3
:102F20007D17758FD8CFB7070140D44F832744FD55
:102F3000A18313970701B70703007D8FB7070140EF
:102F4000558FD8CF4DA2B7070140D44FB7070140E6
:102F50003707F4FF7D17758FD8CFB7070140D44FDF
:102F6000832744FDA18313972701B7070C007D8FAA
:102F7000B7070140558FD8CFBDA2B7070140D44F46
:102F8000B70701403707F4FF7D17758FD8CFB70714
:102F90000140D44F832744FDA18313972701B7072E
:102FA0000C007D8FB7070140558FD8CF2DAAB707EA
:102FB0000140D44FB70701403707D0FF7D17758F09
:102FC000D8CFB7070140D44F832744FDA18313977F
:102FD0004701B70730007D8FB7070140558FD8CF25
:102FE00019A2B7070140D44FB70701403707D0FFF8
:102FF0007D17758FD8CFB7070140D44F832744FD85
:10300000A18313974701B70730007D8FB7070140B1
:10301000558FD8CFC9A8B7070140D44FB707014093
:10302000370740FF7D17758FD8CFB7070140D44FC2
:10303000832744FDA18313976701B707C0007D8FE5
:10304000B7070140558FD8CF79A8B7070140D44FB3
:10305000B7070140370740FF7D17758FD8CFB707F7
:103060000140D44F832744FDA18313976701B7071D
:10307000C0007D8FB7070140558FD8CFADA0B707EF
:103080000140D44FB7070140370700FD7D17758F0A
:10309000D8CFB7070140D44F832744FDA1831397AE
:1030A0008701B70700037D8FB7070140558FD8CF41
:1030B0001DA8B7070140D44FB7070140370700FDEF
:1030C0007D17758FD8CFB7070140D44F832744FDB4
:1030D000A18313978701B70700037D8FB7070140CE
:1030E000558FD8CF01008327C4FD91E78545116531
:1030F000EF60001669A80327C4FD85476318F70031
:10310000854537050200EF60001951A00327C4FD73
:1031100089476318F700854537050400EF60A0175D
:10312000BDA00327C4FD8D476318F700854537050B
:103130000800EF604016A1A80327C4FD914763185B
:10314000F700854537051000EF60E01489A00327DC
:10315000C4FD95476318F700854513050004EF602B
:10316000801335A00327C4FD99476318F7008545F0
:1031700013050008EF60201219A80327C4FD9D471E
:103180006317F700854513050010EF60C01023207A
:1031900004FE232204FE232404FE232604FE8327A8
:1031A00084FD2320F4FE231204FE231304FE2314C3
:1031B00004FE231604FEB1472315F4FEB7270200D0
:1031C0000327C4FD0A0793878757BA979C433E8716
:1031D000930704FEBE853A85EF70C00CB727020046
:1031E0000327C4FD0A0793878757BA979C438545F1
:1031F0003E85EF70602E0100B250225445618280FE
:10320000797106D622D40018AA87232CB4FCA30F08
:10321000F4FC230704FEA30604FEA945032584FD50
:10322000EFB0B1062324A4FE832784FE81CF0327B9
:1032300084FE832784FDB307F74093F7F70F8507D4
:10324000A306F4FEA30704FE91A08347F4FE032720
:1032500084FDBA97038707009307C0026317F7003E
:103260008347E4FE85072307F4FE0347E4FE834714
:10327000F4FD6318F7008347F4FE85072306F4FE88
:1032800021A88347F4FE8507A307F4FE0347F4FE55
:103290008347D4FEE36BF7FA8347C4FE3E85B25002
:1032A000225445618280397106DE22DC80002326AB
:1032B000A4FC8325C4FC0545A137AA87A307F4FE17
:1032C0008347F4FEFD17A307F4FE0347F4FE9307BC
:1032D000C4FD3A868325C4FC3E85EFB09100834748
:1032E000F4FE130704FFBA97238607FE9307C4FD75
:1032F0003E85EF3020642324A4FE832784FE3E8590
:10330000F250625421618280397106DE22DC800035
:103310002326A4FC8325C4FC0545DD35AA87A30725
:10332000F4FE8347F4FEFD17A307F4FE0347F4FE03
:10333000930784FD3A868325C4FC3E85EFB0617A0D
:103340008347F4FE130704FFBA97238407FE93070D
:1033500084FD3E85EF309020AA872E883E85C28569
:10336000EFA00177D307A5202724F4FE872784FE4A
:103370005385F720F250625421618280397106DE54
:1033800022DC80002326A4FC8325C4FC05458D3D5A
:10339000AA87A307F4FE8347F4FEFD17A307F4FEF4
:1033A0000347F4FE930704FD3A868325C4FC3E855B
:1033B000EFB021738347F4FE130704FFBA9723800D
:1033C00007FE930704FD3E85EF3050192320A4FE2D
:1033D0002322B4FE832704FE032844FE3E85C285D3
:1033E000F250625421618280797122D60018232E16
:1033F000A4FC8327C4FD83C74700A10713F7F70F79
:103400008327C4FD2382E7008327C4FD03C7470049
:10341000DD4763FEE7128327C4FD83C74700A1177A
:1034200013F7F70F8327C4FD2382E7008327C4FD2A
:1034300083C73700850713F7F70F8327C4FDA381E0
:10344000E7008327C4FD03C7270089476319F704F2
:10345000F147A307F4FE8327C4FD83D707008D8BB4
:10346000C207C18381EF8327C4FD03D707009307F9
:103470004006B377F702C207C18381EF8327C4FDFB
:1034800003D7070093070019B377F702C207C18378
:10349000A9EB8347F4FE8507A307F4FE99A0FD4737
:1034A000A307F4FE8327C4FD03C7270091476307E2
:1034B000F7028327C4FD03C7270099476300F7027B
:1034C0008327C4FD03C72700A5476309F7008327A7
:1034D000C4FD03C72700AD476315F700F947A307ED
:1034E000F4FE8327C4FD83C737000347F4FE6370EF
:1034F000F7068327C4FD0547A381E7008327C4FDA2
:1035000083C72700850713F7F70F8327C4FD23819F
:10351000E7008327C4FD03C72700B14763F9E7022B
:103520008327C4FD83C72700D11713F7F70F83271D
:10353000C4FD2381E7008327C4FD83D707008507E7
:103540001397070141838327C4FD2390E7000100FF
:103550003254456182801D7186CEA2CCCACACEC8C3
:1035600080102326A4FA2324B4FA8327C4FA232440
:10357000F4FEA30704FE832584FE09455131AA8782
:103580003E87832784FEBA9783870700A303F4FE50
:10359000832784FA23840700034774FE93071004EB
:1035A000631AF7348547A307F4FE832784FA054797
:1035B0002384E700832584FE11459931AA873E873D
:1035C000832784FEBA9703870700832784FA23841E
:1035D000E702832584FE19452531AA873E87832784
:1035E00084FEBA9703870700832784FAA384E7023F
:1035F000832584FE0D452931AA873E87832784FED3
:10360000BA973E85A53B232CA4FC232EB4FC83252E
:1036100084FE1545F536AA873E87832784FEBA9730
:103620003E85A93B2328A4FC232AB4FC032584FD62
:103630008325C4FDEFA081162A8793074006B34770
:10364000F702139707014183832784FA2395E70044
:10365000832784FA83D7A7003E8793074006B307E2
:10366000F7023E85EFA0E12AAA872E883E86C28611
:10367000032584FD8325C4FDEF90C161AA872E88B0
:103680003E85C285EFA0C144D307A5202726F4FCC0
:103690008727C4FCD39707C013970701418383276B
:1036A00084FA2396E700832784FA83D7C700D3F7E9
:1036B00007D00727C4FC5377F708B727020087A76E
:1036C0000798D377F7102724F4FC872784FCD39737
:1036D00007C0139707014183832784FA2397E700E4
:1036E000032504FD832544FDEFA0410B2A879307A2
:1036F0004006B347F702139707014183832784FAF3
:103700002398E700832784FA83D707013E8793072E
:103710004006B307F7023E85EFA0A11FAA872E88B7
:103720003E86C286032504FD832544FDEF90815625
:10373000AA872E883E85C285EFA08139D307A520B0
:103740002722F4FC872744FCD39707C0139707016F
:103750004183832784FA2399E700832784FA83D758
:103760002701D3F707D0072744FC5377F708B7277B
:10377000020087A70798D377F7102720F4FC872744
:1037800004FCD39707C0139707014183832784FA6A
:10379000239AE700832784FA83D7A7003E85EFA00A
:1037A00041172A89AE89832784FA83D7C7003E85CB
:1037B000EFA0211DB727020003A6879883A6C7980C
:1037C000EF800149AA872E883E86C2864A85CE852B
:1037D000EF703127AA872E883E89C289832784FA11
:1037E00083D7E7003E85EFA0C119B727020003A6E3
:1037F000079983A64799EF80A145AA872E883E8620
:10380000C2864A85CE85EF70D123AA872E880327EA
:1038100084FA1CCF232E0701832784FA83D707015C
:103820003E85EFA0010F2A89AE89832784FA83D7CA
:1038300027013E85EFA0E114B727020003A6879871
:1038400083A6C798EF80C140AA872E883E86C2868D
:103850004A85CE85EF70F11EAA872E883E89C289DF
:10386000832784FA83D747013E85EFA08111B727CC
:10387000020003A6079983A64799EF80613DAA87B6
:103880002E883E86C2864A85CE85EF70911BAA8718
:103890002E88032784FA1CD323220703832584FE62
:1038A0001D45EFF0FF95AA873E87832784FEBA97D0
:1038B0003E85EFF07FA5272EA4FA0727C4FBB72784
:1038C000020087A78799D377F710832784FADCF75C
:1038D000832584FE2145EFF0BF92AA873E87832788
:1038E00084FEBA973E85EFF03FA2D307A520832739
:1038F00084FA9CFB832784FE9D07838707009387B8
:1039000007FD93F7F70F3E87BA878A07BA978607AE
:1039100013F7F70F832784FEA1078387070093F728
:10392000F70FBA9793F7F70F938707FD13F7F70F82
:10393000832784FA2382E700832784FEA5078387F1
:103940000700938707FD93F7F70F3E87BA878A072B
:10395000BA97860713F7F70F832784FEA907838793
:10396000070093F7F70FBA9793F7F70F938707FDC1
:1039700013F7F70F832784FAA382E700832784FED7
:10398000AD0783870700938707FD93F7F70F3E87FF
:10399000BA878A07BA97860713F7F70F832784FE3B
:1039A000B1078387070093F7F70FBA9793F7F70FDD
:1039B000938707FD13F7F70F832784FA2383E70024
:1039C000832584FE2545EFF0BF83AA87A30DF4FA73
:1039D0008347B4FB032784FEBA9783870700938746
:1039E00007FD93F7F70F3E87BA878A07BA978607CE
:1039F00013F7F70F8347B4FB8507832684FEB6973A
:103A00008387070093F7F70FBA9793F7F70F93871A
:103A100007FD13F7F70F832784FAA381E700834795
:103A2000B4FB8907032784FEBA978387070093872F
:103A300007FD93F7F70F3E87BA878A07BA9786077D
:103A400013F7F70F8347B4FB8D07832684FEB697E1
:103A50008387070093F7F70FBA9793F7F70F9387CA
:103A600007FD13F7F70F832784FA2381E7008347C5
:103A7000B4FB9107032784FEBA97838707009387D7
:103A800007FDC207C1833E87BA878A07BA978607B0
:103A90001397070141838347B4FB9507832684FE70
:103AA000B69783870700C207C183BA97C207C1834D
:103AB0009387077A139707014183832784FA23901A
:103AC000E700832784FA3E85EFF01F928347F4FED8
:103AD0003E85F64066445649C64925618280397163
:103AE00006DE22DC22F680002326A4FC2324B4FC7C
:103AF0008327C4FC232CF4FCA30F04FC832584FD42
:103B00000945EFF0EFEFAA873E87832784FDBA9738
:103B100083870700A30BF4FC034774FD9307C002DF
:103B2000630EF708832584FD1D45EFF06FEDAA872E
:103B30003E87832784FDBA973E85EFF0CFF6AA87AC
:103B400013F7F70F832784FC238AE702832584FD7C
:103B50002145EFF0EFEAAA873E87832784FDBA97D5
:103B60003E85EFF06FFAD307A520832784FCDCFFA6
:103B7000832584FD2545EFF0AFE8AA873E8783279C
:103B800084FDBA973E85EFF02FF85304A5208325D6
:103B900084FD2D45EFF0CFE6AA873E87832784FD7D
:103BA000BA973E85EFF04FF6D307A520D377F40000
:103BB000832784FC9CFF8547A30FF4FC8347F4FD17
:103BC0003E85F2506254327421618280197186DE22
:103BD000A2DCCADACED8D2D6D6D40001232CA4F8DF
:103BE000232EB4F82328C4F8232AD4F82324E4F895
:103BF0002326F4F8232004F9232214F9B72702001E
:103C000003A8479A83A7079A232CF4FC232E04FDCC
:103C1000B727020003A6879A83A6C79A032584F9CB
:103C20008325C4F9EF80B121AA872E883E85C285FD
:103C3000B727020003A6079B83A6479BEF8041019D
:103C4000AA872E882328F4FC232A04FDB727020024
:103C500003A6879A83A6C79A032584F88325C4F808
:103C6000EF80F11DAA872E883E85C285B727020006
:103C700003A6079B83A6479BEF70917DAA872E889A
:103C80002324F4FC232604FDB727020003A6879A09
:103C900083A6C79A032504F9832544F9EF80311AD6
:103CA000AA872E883E85C285B727020003A6079BF8
:103CB00083A6479BEF70D179AA872E882320F4FC36
:103CC000232204FDB727020003A6879A83A6C79A7A
:103CD000032504F8832544F8EF807116AA872E88FF
:103CE0003E85C285B727020003A6079B83A6479B94
:103CF000EF701176AA872E88232CF4FA232E04FB6A
:103D0000032684FC8326C4FC032504FD832544FD8F
:103D1000EF805178AA872E882328F4FA232A04FBFF
:103D2000032684FB8326C4FB032504FC832544FC73
:103D3000EF805176AA872E882324F4FA232604FBE9
:103D4000B727020003A6879B83A6C79B032504FB16
:103D5000832544FBEF70D16FAA872E883E85C285EC
:103D6000EF205111B727020003A8C79B83A7879BA9
:103D70003E86C286EF20B13A2A89AE89032504FD2A
:103D8000832544FDEF20F1052A8AAE8A032584FCB1
:103D90008325C4FCEF20F104AA872E883E86C286C4
:103DA0005285D685EF80B109AA872E883E8AC28ABD
:103DB000B727020003A6879B83A6C79B032584FA27
:103DC0008325C4FAEF70D168AA872E883E85C28504
:103DD000EF20510AB727020003A8C79B83A7879B40
:103DE0003E86C286EF20B133AA872E883E86C286E1
:103DF0005285D685EF80B104AA872E883E86C2867A
:103E00004A85CE85EF70E143AA872E883E85C2851C
:103E1000EF205163AA872E883E85C285EF201124AA
:103E2000AA872E883E86C2863E85C285EF70614194
:103E3000AA872E882320F4FA232204FB032684FD7C
:103E40008326C4FD032504FA832544FAEF80217FED
:103E5000AA872E882320F4FA232204FB832704FA5E
:103E6000032844FA3E85C285F65066545659C65911
:103E7000365AA65A096182801D7186CEA2CCCACA62
:103E8000CEC8D2C6D6C48010232CA4FA232EB4FAEE
:103E90002328C4FA232AD4FA2324E4FA2326F4FAA2
:103EA000232004FB232214FBB727020003A6879AD2
:103EB00083A6C79A032584FB8325C4FBEF80217862
:103EC000AA872E883E85C285B727020003A6079BD6
:103ED00083A6479BEF70D157AA872E88232CF4FA2C
:103EE000232E04FBB727020003A6879A83A6C79A4E
:103EF000032584FA8325C4FAEF806174AA872E888B
:103F00003E85C285B727020003A6079B83A6479B71
:103F1000EF701154AA872E882324F4FA232604FB79
:103F2000B727020003A6879A83A6C79A032504FB36
:103F3000832544FBEF80A170AA872E883E85C28529
:103F4000B727020003A6079B83A6479BEF7051503B
:103F5000AA872E882328F4FA232A04FBB727020015
:103F600003A6879A83A6C79A032504FA832544FAF1
:103F7000EF80E16CAA872E883E85C285B7270200B4
:103F800003A6079B83A6479BEF70914CAA872E88B8
:103F90002320F4FA232204FB032604FB832644FB9C
:103FA000032504FA832544FAEF80D14EAA872E8890
:103FB0003E85C285EF20016C2A89AE89032584FAEB
:103FC0008325C4FAEF20E161AA872E883E86C28647
:103FD0004A85CE85EF80A166AA872E88232CF4FC23
:103FE000232E04FD032584FB8325C4FBEF20615FA2
:103FF0002A89AE89032584FA8325C4FAEF208167D4
:10400000AA872E883E86C2864A85CE85EF802163A8
:10401000AA872E883E89C289032584FB8325C4FB99
:10402000EF2041652A8AAE8A032584FA8325C4FAE3
:10403000EF20215BAA872E883E86C2865285D685D0
:10404000EF80E15FAA872E883E8AC28A032604FB9E
:10405000832644FB032504FA832544FAEF80914329
:10406000AA872E883E85C285EF20A157AA872E8871
:104070003E86C2865285D685EF80615CAA872E88EF
:104080003E86C2864A85CE85EF80D140AA872E889B
:104090002328F4FC232A04FD032604FD832644FD83
:1040A000032584FD8325C4FDEF203107B7270200D7
:1040B00003A6079B83A6479BEF806158AA872E889B
:1040C0003E85C285B727020003A6879A83A6C79AB2
:1040D000EF701138AA872E882324F4FC232604FDD0
:1040E00001468146032584FC8325C4FCEF80613EA4
:1040F000AA876357F000832784FC0328C4FC39A8EF
:10410000B727020003A6079C83A6479C032584FCCF
:104110008325C4FCEF70E112AA872E883E85C285F4
:10412000F64066445649C649364AA64A2561828009
:10413000011106CE22CC0010A30704FE03A70188BC
:104140002320E4FE9387018883C747002302F4FEFF
:10415000A30304FE230704FE03A701898547631414
:10416000F70A094723A8E1889305A0021385C1F443
:10417000EFA0B111AA8713871700930704FE8907E0
:104180000946BA853E85EFA0D115930704FE3E850A
:10419000EF209063AA87A303F4FE9387C1F483C73B
:1041A00017002307F4FE89472324F4FE15A0138784
:1041B000C1F4832784FEBA9703C707008347E4FE50
:1041C000B98F2307F4FE832784FE85072324F4FE9A
:1041D0001387C1F4832784FEBA9703C707009307A8
:1041E000A002E316F7FC0347E4FE834774FE630670
:1041F000F7008547A307F4FED1A0938501DF13855F
:10420000C1F4EFF04FB523A8018803A7C188854703
:104210006314F70A094723A6E1889305A0021385D2
:10422000C1ECEFA09106AA8713871700930704FE3D
:1042300089070946BA853E85EFA0B10A930704FEB7
:104240003E85EF207058AA87A303F4FE9387C1EC44
:1042500083C717002307F4FE89472324F4FE15A023
:104260001387C1EC832784FEBA9703C707008347EF
:10427000E4FEB98F2307F4FE832784FE85072324F9
:10428000F4FE1387C1EC832784FEBA9703C70700A7
:104290009307A002E316F7FC0347E4FE834774FE8E
:1042A0006306F7008547A307F4FE09A8938501DF9D
:1042B0001385C1ECEFF0BF8223A601888347F4FE8B
:1042C0003E85F240624405618280011106CE22CC17
:1042D000001083C79188638C070E09A8930734FEEA
:1042E0000546BE85138501E3EF10B07C930734FECD
:1042F000BE851D45EFE0DF8FAA87EDF3034734FE4F
:10430000A9476316F70C99472322F4FE130744FECE
:10431000930784FE85463A86BE85138501E3EF2028
:10432000A029930784FE138737000D46B7270200A4
:104330009385878D3A85EFA00178AA879DEB03A727
:1043400001898947630EF706054723A8E18813858D
:1043500001E3EF10B071AA872322F4FE930744FE15
:1043600081463E869385C1F4138501E3EF20C02486
:1043700081A8930784FE138737000D46B7270200F4
:104380009385C78D3A85EFA00173AA8795EB03A7A4
:10439000C18889476306F702054723A6E18813858C
:1043A00001E3EF10B06CAA872322F4FE930744FECA
:1043B00081463E869385C1EC138501E3EF20C01F43
:1043C000138501E3EF10705A05472384E18801004B
:1043D000F240624405618280717106D722D50019CE
:1043E000B727020003A8078E1387078E4843138759
:1043F000078E0C471387078E50471387078E144B81
:104400001387078E584B9387078E9C4F232A04FDF2
:10441000232CA4FC232EB4FC2320C4FE2322D4FE90
:104420002324E4FE2326F4FEB727020083A6C78FC9
:104430001387C78F58432324D4FC2326E4FC938797
:10444000C78F03D787002318E4FC83C7A70023097D
:10445000F4FCB727020083A6879013878790584300
:10446000232ED4FA2320E4FC9387879003D7870078
:104470002312E4FC83C7A7002303F4FCB727020040
:1044800083A647911387479158432328D4FA232AB8
:10449000E4FA9387479103D78700231CE4FA83C784
:1044A000A700230DF4FAB727020083A6079213870B
:1044B000079258432322D4FA2324E4FA93870792DD
:1044C00003D787002316E4FA83C7A7002307F4FA6B
:1044D000B727020083A6C7921387C7925843232C9D
:1044E000D4F8232EE4F89387C79203D787002310CC
:1044F000E4FA83C7A7002301F4FAB727020083A6D2
:1045000087931387879358432326D4F82328E4F806
:104510009387879303D78700231AE4F883C7A700FC
:10452000230BF4F8B727020083A647941387479418
:1045300058432320D4F82322E4F89387479403D7E1
:1045400087002314E4F883C7A7002305F4F8B727EE
:10455000020083A60795138707955843232AD4F6AC
:10456000232CE4F69387079503D78700231EE4F6F0
:1045700083C7A700230FF4F6B727020083A6C795C9
:104580001387C79558432324D4F62326E4F693874C
:10459000C79503D787002318E4F683C7A70023092C
:1045A000F4F6B727020083A68796138787965843A9
:1045B000232ED4F42320E4F69387879603D787002D
:1045C0002312E4F683C7A7002303F4F6B7270200FB
:1045D00083A647971387479758432328D4F4232A61
:1045E000E4F49387479703D78700231CE4F483C739
:1045F000A700230DF4F4930600081386C1E4814557
:10460000138501E3EF20802903A701818967938740
:1046100007F4B357F7029305401F3E85EFB0DFC89C
:104620009D679386F7389D671386E738F167938512
:1046300007201D45EFE0EFE1930744FD7146BE857D
:104640001D45EFE00FC603A701818967938707F433
:10465000B357F7029305800C3E85EFB0FFC4930774
:10466000C4FB2D46BE851D45EFE0AFC303A7018106
:104670008967938707F4B357F702930520033E85B4
:10468000EFB09FC2930784FC2D46BE851D45EFE029
:104690004FC103A701818967938707F4B357F702D6
:1046A000930520033E85EFB03FC0930704FB2D46E2
:1046B000BE851D45EFE0EFBE03A7018189679387A3
:1046C00007F4B357F702930520033E85EFB0DFBD33
:1046D000930744FA2D46BE851D45EFE08FBC03A726
:1046E00001818967938707F4B357F7029305200385
:1046F0003E85EFB07FBB930784F92D46BE851D45EF
:10470000EFE02FBA03A701818967938707F4B357B6
:10471000F702930520033E85EFB01FB99307C4F855
:104720002D46BE851D45EFE0CFB703A70181896700
:10473000938707F4B357F702930520033E85EFB044
:10474000BFB6930704F82D46BE851D45EFE06FB553
:1047500003A701818967938707F4B357F70293058D
:1047600020033E85EFB05FB4930744F72D46BE8526
:104770001D45EFE00FB303A701818967938707F415
:10478000B357F702930520033E85EFB0FFB19307BF
:1047900084F62D46BE851D45EFE0AFB003A701812D
:1047A0008967938707F4B357F702930520033E8583
:1047B000EFB09FAF9307C4F52D46BE851D45EFE0D2
:1047C0004FAE03A701818967938707F4B357F702B8
:1047D000930520033E85EFB03FAD930704F52D46CA
:1047E000BE851D45EFE0EFAB03A701818967938785
:1047F00007F4B357F702930520033E85EFB0DFAA15
:104800000547A384E18885451D45EFE00FB601000B
:10481000BA502A544D618280011106CE22CC00107C
:10482000A30704FE230704FE231604FE99A0835762
:10483000C4FE138717002316E4FE1307F00F6376F8
:10484000F70085472307F4FE15A893055007138545
:10485000C1FCEFD0AFEFAA87A307F4FE03A7018145
:104860008967938707F4B357F702A9453E85EFB0F0
:10487000BFA30347F4FEC947E31BF7FA8347E4FEEF
:104880003E85F240624405618280011106CE22CC51
:104890000010930784FE99463E869305B003138566
:1048A000C1FCEFD08FF5834784FEA2071397070161
:1048B0004187834794FEC207C187D98F13970701A9
:1048C0004187239DE1888347A4FEA2071397070130
:1048D00041878347B4FEC207C187D98F1397070169
:1048E0004187239EE1888347C4FEA20713970701EF
:1048F00041878347D4FEC207C187D98F1397070129
:104900004187239FE1880100F24062440561828073
:10491000011106CE22CC0010930784FE99463E86F4
:10492000930530041385C1FCEFD02FED834784FE3F
:10493000A207139707014187834794FEC207C187E7
:10494000D98F139707014187239AE1888347A4FEF3
:10495000A2071397070141878347B4FEC207C187A7
:10496000D98F139707014187239BE1888347C4FEB2
:10497000A2071397070141878347D4FEC207C18767
:10498000D98F139707014187239CE1880100F240EA
:10499000624405618280011106CE22CC0010A3057D
:1049A00004FEA30704FE231604FE03A70181896702
:1049B000938707F4B357F702A9453E85EFB0DF8E22
:1049C0001307500293063002130640069305900623
:1049D0001385C1FCEFD0EFFDEFF01FE4AA8795C36C
:1049E00093064011B72702001386879CB727020061
:1049F000938587A20145EF10C0558547A307F4FEB4
:104A0000CDA0130600089305B0061385C1FCEFD0B6
:104A1000CFCB03A701818967938707F4B357F702C8
:104A200089453E85EFB05F889305B0061385C1FCCC
:104A3000EFD0CFD1AA87A305F4FE8357C4FE138716
:104A400017002316E4FE1307F00F6373F7029306B3
:104A50004012B72702001386879CB7270200938570
:104A600047A40145EF10E04E8547A307F4FE39A0A7
:104A70000347B4FE93071004E318F7FA0347F4FE64
:104A80008547630FF70405469305B0061385C1FCFF
:104A9000EFD0AFC301469305C0061385C1FCEFD02C
:104AA000CFC20546E9451385C1FCEFD00FC21D46B4
:104AB000E5451385C1FCEFD04FC16146ED45138537
:104AC000C1FCEFD08FC04146F1451385C1FCEFD04A
:104AD000CFBF0D46F5451385C1FCEFD00FBF11A028
:104AE00001008347F4FE3E85F24062440561828006
:104AF000011106CE22CC0010AA872E87A307F4FE50
:104B0000BA872307F4FEB70700209387C7009C47A6
:104B100013070040D8CB0347E4FE8347F4FE3A86F0
:104B2000BE850945EFD03F86B70700209387C700B1
:104B30009C471307004098CB0100F2406244056196
:104B40008280011106CE22CC0010AA872324B4FE55
:104B50002322C4FEA307F4FEB70700209387C700F3
:104B60009C4713070040D8CB8347F4FE832644FEBE
:104B7000032684FEBE850945EFD0FF8DB7070020D0
:104B80009387C7009C471307004098CB0100F24071
:104B9000624405618280797106D622D40018AA8702
:104BA000A30FF4FCB70700209387C7009C471307A7
:104BB0000040D8CB8347F4FD93E707F893F7F70F4E
:104BC0001307C4FE89463A86BE850945EFD0DF94B7
:104BD000B70700209387C7009C471307004098CB76
:104BE0008347D4FE3E85B25022544561828079715C
:104BF00006D622D40018AA87232CB4FC232AC4FC8E
:104C0000A30FF4FCB70700209387C7009C47130746
:104C10000040D8CB8347F4FD93E707F813F7F70F6D
:104C2000832744FD93861700930744FE3E86BA858A
:104C30000945EFD07F8EB70700209387C7009C47B8
:104C40001307004098CB232604FE3DA08327C4FE13
:104C500013871700832784FD93861700232CD4FC29
:104C6000930604FF3697034747FF2380E700832717
:104C7000C4FE85072326F4FE8327C4FE032744FDD4
:104C8000E3E6E7FC0100B250225445618280011145
:104C900006CE22CC0010A30504FEA30704FE2316B3
:104CA00004FE8357C4FE138717002316E4FE130780
:104CB000F00F6376F7008547A307F4FE05A80145CA
:104CC000EFF07FEDAA87A305F4FE03A701818967B2
:104CD000938707F4B357F70285453E85EFB0CFDCE5
:104CE0000347B4FE93074002E31DF7FA8347F4FE3F
:104CF0003E85F240624405618280011106CE22CCDD
:104D00000010930784FE1946BE853145EFF03FEE53
:104D1000834794FEA207139707014187834784FEC8
:104D2000C207C187D98F1397070141872393E18A6F
:104D30008347B4FEA2071397070141878347A4FE68
:104D4000C207C187D98F1397070141872394E18A4E
:104D50008347D4FEA2071397070141878347C4FE08
:104D6000C207C187D98F1397070141872395E18A2D
:104D70000100F240624405618280011106CE22CC1E
:104D80000010930784FE1946BE854945EFF03FE6C3
:104D9000834794FEA207139707014187834784FE48
:104DA000C207C187D98F1397070141872390E18AF2
:104DB0008347B4FEA2071397070141878347A4FEE8
:104DC000C207C187D98F1397070141872391E18AD1
:104DD0008347D4FEA2071397070141878347C4FE88
:104DE000C207C187D98F1397070141872392E18AB0
:104DF0000100F240624405618280011106CE22CC9E
:104E00000010A30704FE03A701818967938707F4B5
:104E1000B357F702D1453E85EFB00FC91308F00F25
:104E20008967938747020967130757028966938644
:104E30003602379698001306066881450945EFD07B
:104E4000AFFCC146054685451305A004EFB09FEBB6
:104E50000145EFF05FD4EFF09FE3AA8795C3930677
:104E60000011B7270200138647A6B72702009385D3
:104E700047AC0145EF10E00D8547A307F4FEC9A03C
:104E800081451305C007EFF0BFC603A701818967FD
:104E9000938707F4B357F70285453E85EFB0CFC03F
:104EA000814513059005EFF0BFC40966B76702009E
:104EB0009385479F1305E005EFF0BFC885451305AF
:104EC0009005EFF0FFC203A701818967938707F47C
:104ED000B357F702D1453E85EFB00FBD1305100261
:104EE000EFF07FCBAA8795E39306F011B727020076
:104EF000138647A6B7270200938507AE0145EF103A
:104F000040058547A307F4FE25A8B9451305D0073A
:104F1000EFF01FBE9305700A13050004EFF05FBDAC
:104F20009305900A13052004EFF09FBC89451305F3
:104F30001004EFF0FFBB814513053004EFF05FBBB9
:104F40008347F4FE3E85F2406244056182807971B8
:104F500006D622D40018AA87AE863287A30FF4FCA7
:104F6000B687230FF4FCBA87A30EF4FCA30704FE54
:104F7000231604FE8347F4FD8607A30FF4FC0146C5
:104F8000DD451385C1FDEFC05FF48347F4FD3E8628
:104F9000D5451385C1FDEFC05FF38347E4FD3E8631
:104FA000D9451385C1FDEFC05FF28347D4FD3E862E
:104FB000930510021385C1FDEFC03FF11306C00435
:104FC000D1451385C1FDEFC05FF015A88357C4FE1E
:104FD000138717002316E4FE1307F00F6376F7001C
:104FE0008547A307F4FE3DA003A701818967938746
:104FF00007F4B357F70289453E85EFB0EFAA930552
:1050000020021385C1FDEFD00F8FAA87E207E18749
:10501000E3DE07FA8347F4FE3E85B2502254456131
:105020008280797106D622D40018AA872E87A30F12
:10503000F4FCBA87230FF4FC231704FE8347F4FD26
:105040008607A30FF4FC8347F4FD93E7170093F75B
:10505000F70F3E86D5451385C1FDEFC01FE7834797
:10506000E4FD3E86D9451385C1FDEFC01FE6054628
:10507000DD451385C1FDEFC05FE51306C004D145D2
:105080001385C1FDEFC07FE435A08357E4FE13878D
:1050900017002317E4FE1307F00F6369F70203A755
:1050A00001818967938707F4B357F70289453E85E5
:1050B000EFB08F9F930520021385C1FDEFD0AF8322
:1050C000AA87858B93F7F70FE9D311A001008945D3
:1050D0001385C1FDEFD02F82AA873E85B25022549E
:1050E00045618280011106CE22CC0010AA872E874E
:1050F000A307F4FEBA872307F4FE8347F4FE86076E
:10510000A307F4FE8347F4FE93E7170093F7F70F26
:105110003E86D5451385C1FDEFC03FDB8347E4FEE6
:105120003E86D9451385C1FDEFC03FDA1946DD45FE
:105130001385C1FDEFC07FD91306C006D145138585
:10514000C1FDEFC09FD80100F2406244056182803A
:10515000011106CE22CC0010A30704FE230704FE93
:10516000231604FE91A08357C4FE1387170023164D
:10517000E4FE1307F00F6376F7008547A307F4FEFC
:1051800015A8BD451385C1FDEFC0FFF6AA8723070B
:10519000F4FE03A701818967938707F4B357F702E9
:1051A000A9453E85EFB04F900347E4FE9307B00654
:1051B000E31BF7FA8347F4FE3E85F2406244056143
:1051C0008280011106CE22CC0010A30704FE230723
:1051D00004FE231604FE89A08357C4FE138717001C
:1051E0002316E4FE1307F00F6376F7008547A30745
:1051F000F4FE0DA8B5453545EFF0BFE2AA872307B9
:10520000F4FE03A701818967938707F4B357F70278
:10521000A9453E85EFB04F890347E4FE9307F00FA1
:10522000E31CF7FA8347F4FE3E85F24062440561D1
:105230008280011106CE22CC0010930784FE99468D
:105240003E86930580021385C1FDEFC01FDB8347B7
:1052500094FEA207139707014187834784FEC20784
:10526000C187D98F1397070141872399E18A834723
:10527000B4FEA2071397070141878347A4FEC20724
:10528000C187D98F139707014187239AE18A834702
:10529000D4FEA2071397070141878347C4FEC207C4
:1052A000C187D98F139707014187239BE18A0100AA
:1052B000F240624405618280011106CE22CC0010CA
:1052C000930784FE99463E86930520021385C1FD0F
:1052D000EFC0BFD2834794FEA2071397070141870F
:1052E000834784FEC207C187D98F1397070141877F
:1052F0002396E18A8347B4FEA207139707014187EB
:105300008347A4FEC207C187D98F1397070141873E
:105310002397E18A8347D4FEA207139707014187A9
:105320008347C4FEC207C187D98F139707014187FE
:105330002398E18A0100F2406244056182800111F4
:1053400006CE22CC00101306000485451385C1FD4E
:10535000EFC0BFB7930520021385C1FDEFC0BFD9D1
:10536000AA87A307F4FE8347F4FE858B93F7F70F14
:10537000B5CB930784FE99463E8689451385C1FDCA
:10538000EFC0BFC7834794FEA20713970701418769
:10539000834784FEC207C187D98F139707014187CE
:1053A000239CE18A8347B4FEA20713970701418734
:1053B0008347A4FEC207C187D98F1397070141878E
:1053C000239DE18A8347D4FEA207139707014187F3
:1053D0008347C4FEC207C187D98F1397070141874E
:1053E000239EE18A014685451385C1FDEFC0FFADCF
:1053F0000100F240624405618280011106CE22CC98
:105400000010A30704FE03A701818967938707F4AF
:10541000B357F702A9453E85EFA01FE913076008BF
:105420009306500829469305B0061385C1FDEFC0C9
:105430005FD8014685451385C1FDEFC01FA905460C
:10544000C9451385C1FDEFC05FA803A70181896726
:10545000938707F4B357F70289453E85EFA0DFE451
:10546000014685451385C1FDEFC03FA6EFF05FCE35
:10547000AA8795C39306701BB7270200138607B04F
:10548000B7270200938507B60145EF00902C8547AA
:10549000A307F4FE8DAA0D46B5451385C1FDEFC0E7
:1054A000DFA21306C003C1451385C1FDEFC0FFA1F4
:1054B0001306C005C5451385C1FDEFC01FA1130626
:1054C0004004C9451385C1FDEFC03FA00946CD4545
:1054D0001385C1FDEFC07F9F0146D1451385C1FDF6
:1054E000EFC0BF9E0146D5451385C1FDEFC0FF9DAE
:1054F0000146D9451385C1FDEFC03F9D0546E145F5
:105500001385C1FDEFC07F9C1306000485451385FC
:10551000C1FDEFC09F9B13060008D1451385C1FD57
:10552000EFC0BF9A03A701818967938707F4B35738
:10553000F70289453E85EFA03FD70146D145138547
:10554000C1FDEFC09F9803A701818967938707F486
:10555000B357F70289453E85EFA01FD51306000813
:10556000A9453545EFF0BF9E03A701818967938761
:1055700007F4B357F70289453E85EFA0FFD20146F5
:10558000A9453545EFF0BF9C03A701818967938743
:1055900007F4B357F70289453E85EFA0FFD0EFF03F
:1055A0005FC2AA8795C39306201EB7270200138601
:1055B00007B0B7270200938587B80145EF0070193F
:1055C0008547A307F4FE81A06546A5453545EFF064
:1055D0001F980546AD453545EFF07F978145354528
:1055E000EFF05FB0014685451385C1FDEFC0FF8D2B
:1055F00003A701818967938707F4B357F702D14561
:105600003E85EFA07FCA8347F4FE3E85F2406244A8
:1056100005618280411122C6000801003244410127
:105620008280411122C60008B71702409843B7177D
:1056300002401367170098C3B7170240D443B71747
:1056400002403707FFF8758FD8C3B717024094435D
:10565000B71702403707F7FE7D17758F98C3B71746
:1056600002409443B71702403707FCFF7D17758F40
:1056700098C3B7170240D443B7170240370781FFDA
:105680007D17758FD8C3B717024037079F0098C79B
:105690000100324441018280797122D60018232E04
:1056A000A4FC232604FE232404FEB71702409443DF
:1056B000B71702404167558F98C3B7170240984308
:1056C000B7070200F98F2324F4FE8327C4FE850761
:1056D0002326F4FE832784FE91E70327C4FE856713
:1056E000E31DF7FCB71702409843B7070200F98F94
:1056F00089C785472324F4FE19A0232404FE032729
:1057000084FE85476312F71637170240B717024029
:105710005843D8C337170240B71702405843D8C37D
:1057200037170240B71702405843D8C3B717024093
:10573000D443B71702403707C1FF7D17758FD8C311
:105740000327C4FDB747950893870740631BF700FD
:10575000B7170240D443B71702404167558FD8C3EB
:1057600055A80327C4FDB7172707938707E0631CD5
:10577000F700B7170240D443B71702403707390084
:10578000558FD8C341A80327C4FDB7E7B805938751
:105790000780631CF700B7170240D443B7170240D5
:1057A00037072900558FD8C3B5A00327C4FDB7A775
:1057B0004A0493870720631CF700B7170240D443BD
:1057C000B717024037071D00558FD8C3A1A0032784
:1057D000C4FDB777DC02938707C0631CF700B717D7
:1057E0000240D443B717024037071100558FD8C382
:1057F00015A00327C4FDB7376E0193870760631BAD
:10580000F700B7170240D443B71702403707050027
:10581000558FD8C3B71702409443B71702403707D4
:105820000001558F98C30100B71702409843B7078E
:105830000002F98FF5DBB7170240D843B7170240D3
:10584000719BD8C3B7170240D843B71702401367FC
:105850002700D8C30100B7170240DC4313F7C70085
:10586000A147E31AF7FE11A001A0325445618280DE
:10587000011106CE22CC00102326A4FE0327C4FE6D
:1058800023A8E180EFF0FFD90325C4FEEFF0DFE0AD
:10589000EF10D0210100F240624405618280411185
:1058A00022C600080100010032444101828001113A
:1058B00006CE22CC0010232604FE232404FE232639
:1058C00004FE2DA0232404FE01A8EFF05FFD832732
:1058D00084FE85072324F4FE032784FEC167E36664
:1058E000F7FE8327C4FE85072326F4FE0327C4FEA4
:1058F0009307F00FE3F8E7FC0100F2406244056112
:105900008280411122C60008010032444101828098
:10591000011106CE22CC00102326A4FE8325C4FE4E
:105920000945EFD06F9E0100F2406244056182801C
:10593000130101D92326112623248126232291260F
:10594000801C232EA4D8232CB4D8232AC4D82328DF
:10595000D4D8231504FE231404FE231304FE2312BB
:1059600004FE231104FE032584D9EF90A113AA8716
:10597000C207C1872313F4FE83D7C1FE89C793876B
:10598000C1FE9C4B829783C7E18B93F7F70F63832C
:10599000074C83D7C1FE638B07449387C1FED4476E
:1059A000835724FE13970701418793170701C1838B
:1059B0008507C207C183C207C1872311F4FE93176D
:1059C0000701C1830326C4D9BE850145829683277A
:1059D00084D92326F4FE032584D9EF90A10CAA874D
:1059E000C207C1872313F4FE9387C1FE83D7270024
:1059F0003E879387C1FE83C76700B347F702C2079C
:105A0000C1872312F4FE01008327C4FE1387170009
:105A10002326E4FE83870700E5FB231404FEA1A8E8
:105A20008327C4FEFD172326F4FE8327C4FE0387C5
:105A300007009307F002630AF7008327C4FE038779
:105A400007009307C005631BF700835784FEC20756
:105A5000C1838507C207C1832314F4FE835764FE04
:105A6000C207C187C207C183FD17C207C183C2072E
:105A7000C1872313F4FE835784FE139707014183E4
:105A8000854763E8E700835764FEC207C187E3D90F
:105A900007F8835764FEC207C18763C307028327E1
:105AA000C4FE85072326F4FE130704EE0326C4FE76
:105AB000B72702009385C7BA3A85EF80B1782DA841
:105AC000835784FEC207C18389EF130704EE0326C0
:105AD000C4FEB7270200938587BB3A85EF80917695
