:100000006F40005E130000001300000013000000AA
:100010001300000013000000130000001300000094
:100020001300000013000000130000001300000084
:08003000130000007300100032
:100038000000000000000000D4440000E444000078
:10004800000000002645000000000000000000003D
:10005800284500002A4500000000000000000000BC
:100068002C450000000000002E45000000000000A4
:100078003045000032450000344500003645000098
:10008800384500003A450000F23B0000663C00009D
:10009800DA3C00004E3D0000C23D0000464500002D
:1000A800484500004A4500004C4500004E45000008
:1000B80050450000524500005445000056450000D8
:1000C800584500005A4500005C450000363E0000D7
:1000D80060450000E03F0000644500006645000000
:1000E80064400000DC400000644100006E450000F0
:1000F8007045000072450000744500007645000018
:10010800784500003A370000BE370000423800004A
:100118000E3F00008245000084450000864500002F
:100128005C4300008A4500008C4500008E450000B5
:100138009045000092450000E4410000964500000B
:10014800C63800004A39000064420000DC42000062
:10015800A0450000A2450000A4450000A6450000F7
:10016800A8450000AA450000AC450000AE450000C7
:10017800B0450000B2450000B4450000B06300007F
:10018800B8450000BA4500005E3B0000D0390000C9
:10019800543A0000DE3A0000C4450000DC43000089
:1001A800C8450000CA450000CC4500005C4400007A
:1001B800D0450000D2450000D4450000D6450000D7
:1001C800D8450000DA450000DC450000DE450000A7
:1001D8000000000000000000000000000000000017
:1001E8000000000000000000000000000000000007
:0801F8000000000000000000FF
:100200003D432A876373C3029377F700BDEFADE5E3
:10021000937606FF3D8ABA960CC34CC30CC74CC7F5
:100220004107E36BD7FE11E28280B306C3408A0622
:100230009702000096966780A6002307B700A306E2
:10024000B7002306B700A305B7002305B700A30432
:10025000B7002304B700A303B7002303B700A3022A
:10026000B7002302B700A301B7002301B700A30022
:10027000B7002300B700828093F5F50F93968500B1
:10028000D58D93960501D58D61B79396270097027A
:10029000000096968682E78086FA9680C1171D8FA9
:1002A0003E96E374C3F8A5B7011122CE00102326B1
:1002B000A4FE2324B4FEB1A0B7F700E023A00700FA
:1002C000B7F700E0814501468CC7D0C7B7F700E01B
:1002D000054690C30100B7F700E003A8C7009C479C
:1002E0000326C4FEB2860147C2853A86636BB60018
:1002F000C2853A86E391C5FE3E86B68763E3C700B2
:10030000D9BF832784FE1386F7FF2324C4FECDF7CD
:100310000100724405618280797106D622D40018EA
:10032000232EA4FC231704FE231604FE0327C4FD7A
:10033000A54763E0E70C8327C4FD13972700C56733
:100340009387C70CBA979C438287B737014093873E
:1003500007C083D74702C207C1832317F4FE69A8E9
:10036000B707004083D74702C207C1832317F4FEB3
:1003700061A0B70700409387074083D74702C207B1
:10038000C1832317F4FE8DA8B71700409387078019
:1003900083D74702C207C1832317F4FEB1A8B7175A
:1003A0000040938707C083D74702C207C183231742
:1003B000F4FE99A0B73701409387074083D74702DF
:1003C000C207C1832317F4FE05A8B75701409387DE
:1003D00007C083D74702C207C1832317F4FE29A8A9
:1003E000B757014083D74702C207C1832317F4FEE2
:1003F00021A0231704FE0100B70700201387070080
:100400008327C4FDBA9783C7070013F7F70F930735
:10041000F00F6317F7008357E4FE2316F4FE2DA8B0
:10042000B7070020138707008327C4FDBA9783C747
:10043000070093F7F70F3E853521AA8791EB835785
:10044000E4FEB307F040C207C1832316F4FE29A0DF
:100450008357E4FE2316F4FE8317C4FE3E85B25094
:10046000225445618280011122CE00102326A4FE71
:100470000327C4FEA54763E0E7088327C4FE13975C
:100480002700C5679387470FBA979C438287B73782
:100490000140938707C023920702B9A8B70700401D
:1004A0002392070291A8B707004093870740239241
:1004B000070299A0B717004093870780239207028D
:1004C00025A8B7170040938707C0239207022DA0E5
:1004D000B7370140938707402392070231A8B757E7
:1004E0000140938707C02392070239A0B757014004
:1004F0002392070211A0010001007244056182806D
:10050000397106DE22DC80002326A4FC2324B4FCFF
:100510002322C4FC232604FE91450325C4FCEF10CE
:10052000201DAA873E871306100DC5679385C7AAAD
:100530003A85EF2040738327C4FC1397C7008327B5
:1005400084FC7D8F8327C4FCB207B307F74093B7C1
:10055000170093F7F70F3E871306200DC5679385A5
:10056000C7AA3A85EF2020708327C4FC1397C700E1
:10057000832744FC7D8F8327C4FCB207B307F74071
:1005800093B7170093F7F70F3E871306300DC56733
:100590009385C7AA3A85EF20006D0325C4FCEF10B0
:1005A000801B832784FC93F7F70F93068004014692
:1005B00081453E85CD2C832744FC93F7F70F9306A6
:1005C0008004014681453E85F92C832784FC13F77E
:1005D000F70FB7070020938607008327C4FCB69760
:1005E0002380E7000327C4FCA54763E0E7088327CF
:1005F000C4FC13972700C5679387C711BA979C431C
:100600008287B7370140938707C02324F4FE8DA06B
:10061000B70700402324F4FEA1A8B7070040938742
:1006200007402324F4FEA9A0B71700409387078052
:100630002324F4FE35A8B7170040938707C023246E
:10064000F4FE3DA0B7370140938707402324F4FE12
:1006500005A0B7570140938707C02324F4FE09A8DB
:10066000B75701402324F4FE21A085472326F4FE3A
:1006700085450545EF408075832784FC13D78700A7
:100680008D47631AF7008545B70716001385070CD9
:10069000EF40E02AE5A8832784FC13D78700C547ED
:1006A000631AF7008545B707180013850710EF4058
:1006B0000029E9A8832784FC13D787009307200229
:1006C000631AF7008545B7171A0013850780EF40B6
:1006D00000276DA8832784FC13D787009307300277
:1006E000631AF7008545B7171A00138507C0EF4056
:1006F000002569A8832784FC13D78700930710037C
:100700006317F70085450565EF40602341A0832707
:1007100084FC13D7870093071007631AF7008545F9
:10072000B707008013854700EF40602185A083272D
:1007300084FC13D7870093073008631AF7008545B8
:10074000B707138013850701EF40601F81A083273F
:1007500084FC13D7870093071009631AF7008545B7
:10076000B707158013850702EF40601D05A083279A
:1007700084FC13D78700930730096319F700854578
:10078000B707158013850704EF40601B8327C4FE5D
:10079000A9EB232E04FC232004FE231204FE93075E
:1007A000C4FD3E85EF50A014231E04FCFD5723100A
:1007B000F4FE231104FE231F04FC230204FE93070E
:1007C000C4FDBE85032584FEEF40900D9305000611
:1007D000032584FEEF50E0278545032584FEEF5076
:1007E000C0140100F250625421618280011122CEB6
:1007F00000102326A4FEAE87A305F4FE8347B4FEB3
:1008000085CB8327C4FEBD8B0547B317F7009396AE
:100810000701C1828327C4FE13D75700B707002002
:100820000A079387C700BA979C43368798CB3DA0A9
:100830008327C4FEBD8B0547B317F70093960701C6
:10084000C1828327C4FE13D75700B70700200A07C9
:100850009387C700BA979C433687D8CB0100724470
:1008600005618280011122CE00102326A4FE832779
:10087000C4FE958313F77700B70700200A07938714
:10088000C700BA979C439C470327C4FE7D8B8546CF
:100890003397E600F98FB337F00093F7F70F3E85F3
:1008A000724405618280797106D622D40018232E05
:1008B000A4FC232CB4FCB2872328D4FCA30BF4FCA7
:1008C000232004FE232204FE232404FE8327C4FDE8
:1008D000958393F7F70F9D8BA307F4FE8327C4FD41
:1008E00093F7F70FFD8B2307F4FE8347F4FE91E7A0
:1008F00085451145EF40804D91A80347F4FE85479B
:100900006317F70085452145EF40404C81A0034720
:10091000F4FE89476317F70085454145EF40004BDA
:1009200035A00347F4FE8D476318F700854513058E
:100930000002EF40A04919A80347F4FE914763174E
:10094000F700854513050004EF4040488347E4FE67
:100950000547B317F700C207C1832310F4FE03272E
:1009600084FD85476317F702832704FDC207C1830F
:10097000A183C207C18389E78D472322F4FE11A812
:10098000832704FDC207C183A183C207C183232239
:10099000F4FE832704FDC207C18393F7F70F2324D6
:1009A000F4FE0347F4FEB70700200A079387C70049
:1009B000BA979C43130704FEBA853E85EF30105268
:1009C000032784FD85476319F7020347F4FEB70741
:1009D00000200A079387C700BA9794438347E4FE31
:1009E0000547B317F700C207C183034774FD3A8672
:1009F000BE853685EF3030710100B250225445611A
:100A000082801D7186CEA2CC80102326A4FA2324D6
:100A1000B4FA85450325C4FAEF00904DAA873E87B6
:100A20001306D006C567938547B33A85EF20A02308
:100A3000832784FAB337F00093F7F70F3E87130646
:100A4000F006C567938547B33A85EF20C021832719
:100A500084FABD832315F4FE8357A4FE85073E87E1
:100A6000832784FAB3D7E7022314F4FE0325C4FADC
:100A7000EF00704EB7370140938707C02326F4FE7E
:100A80000327C4FAA54763ECE7088327C4FA139742
:100A90002700C56793874714BA979C438287B73767
:100AA0000140938707C02326F4FE95A8B7070040AE
:100AB0002326F4FEADA0B707004093870740232606
:100AC000F4FEB1A8B7170040938707802326F4FEF1
:100AD000B9A0B7170040938707C02326F4FE81A072
:100AE000B71700402326F4FE1DA8B71700409387D0
:100AF00007402326F4FE25A0B7370140938707401F
:100B00002326F4FE29A8B7570140938707C0232660
:100B1000F4FE31A0B75701402326F4FE0100232E36
:100B200004FC232004FE231204FE835784FE2310BA
:100B3000F4FE8357A4FE231EF4FC231104FE231F9E
:100B400004FC230204FE9307C4FDBE850325C4FEF6
:100B5000EF400055054685450325C4FEEF4070680B
:100B600085450325C4FEEF500028C56703AEC7B016
:100B70001387C7B0032347001387C7B083288700B4
:100B80001387C7B00328C7001387C7B0084B138764
:100B9000C7B04C4B1387C7B0104F1387C7B0544F23
:100BA0001387C7B018539387C7B0DC53232AC4FBFD
:100BB000232C64FA232E14FB232004FD2322A4FCFF
:100BC0002324B4FC2326C4FC2328D4FC232AE4FCDD
:100BD000232CF4FC8327C4FA93F7F70F8A07130733
:100BE00004FFBA9783A747FC8D453E85EF20702B05
:100BF0008327C4FA8A07130704FFBA9783A747FC21
:100C00003E85EF20502885450325C4FEEF40F05176
:100C10000100F640664425618280797106D622D4AF
:100C20000018232EA4FC232CB4FC032784FD896721
:100C300093871771B337F70093F7F70F3E871306C3
:100C40005003C567938507B93A85EF20C001B737D0
:100C50000140938707C02326F4FE8327C4FDC18388
:100C6000BD8B2547636EF70613972700C5679387EB
:100C7000C716BA979C438287B7370140938707C04E
:100C80002326F4FEB1A8B70700402326F4FE89A866
:100C9000B7070040938707402326F4FE91A0B717BB
:100CA0000040938707802326F4FE1DA8B717004055
:100CB000938707C02326F4FE25A0B737014093870A
:100CC00007402326F4FE29A8B7570140938707C0A1
:100CD0002326F4FE31A0B75701402326F4FE01007D
:100CE0008327C4FE83D7C7022315F4FE0357A4FE4F
:100CF000832784FD3307F702896793870771B3570A
:100D0000F7022314F4FE8327C4FDA1838D8B81EBAE
:100D10008327C4FE035784FE239AE702A9A88327EA
:100D2000C4FDA18313F7370085476319F7008327B4
:100D3000C4FE035784FE239CE70235A88327C4FD25
:100D4000A18313F7370089476319F7008327C4FE8F
:100D5000035784FE239EE70239A88327C4FDA1839D
:100D600013F737008D476318F7008327C4FE035736
:100D700084FE2390E7040100B25022544561828032
:100D80005D7186C6A2C48008232EA4FA232CB4FA6F
:100D9000232AC4FA8327C4FBC1838D453E85EF0017
:100DA0003015AA873E871306D00AC567938507B911
:100DB0003A85EF10506B032744FB896793871771BF
:100DC000B337F70093F7F70F3E871306F00AC567AE
:100DD000938507B93A85EF101069232E04FC232070
:100DE00004FE231204FE232604FC232804FC232AE9
:100DF00004FC232C04FC231504FE8327C4FBC183BD
:100E0000BD8B3E85EF0030158327C4FB93F7F70FAA
:100E100093068031014685453E85713485450545FB
:100E2000EF30D07AB7370140938707C02326F4FE0E
:100E30008327C4FBC183BD8B2547636EF7061397D9
:100E40002700C56793874719BA979C438287B737AE
:100E50000140938707C02326F4FEB1A8B7070040DE
:100E60002326F4FE89A8B70700409387074023266E
:100E7000F4FE91A0B7170040938707802326F4FE65
:100E80001DA8B7170040938707C02326F4FE25A0AE
:100E9000B7370140938707402326F4FE29A8B757A8
:100EA0000140938707C02326F4FE31A0B7570140C5
:100EB0002326F4FE01008327C4FB13D7C7008D4708
:100EC000631AF7008545B70716001385070CEF3046
:100ED000102715AA8327C4FB13D7C700C547631A79
:100EE000F7008545B707180013850710EF30302548
:100EF00019AA8327C4FB13D7C700C947631AF70091
:100F00008545B707180013850720EF305023E5A863
:100F10008327C4FB13D7C700CD47631AF700854565
:100F2000B707180013850730EF307021E9A8832731
:100F3000C4FB13D7C70093072002631AF700854547
:100F4000B7171A0013850780EF30701F6DA883272D
:100F5000C4FB13D7C70093073002631AF700854517
:100F6000B7171A00138507C0EF30701D69A88327D3
:100F7000C4FB13D7C700930710036317F700854519
:100F80000565EF30D01B41A08327C4FB13D7C700F2
:100F900093071007631AF7008545B707008013858C
:100FA0004700EF30D01985A08327C4FB13D7C700B3
:100FB00093073008631AF7008545B7071380138538
:100FC0000701EF30D01781A08327C4FB13D7C700D8
:100FD00093071009631AF7008545B7071580138535
:100FE0000702EF30D01505A08327C4FB13D7C70035
:100FF000930730096319F7008545B70715801385F6
:101000000704EF30D01303A7C180832784FBB357B5
:10101000F702C1832315F4FE03A7C1808357A4FE02
:101020008507BE86832784FBB387F602B357F70292
:101030002314F4FE035784FE832744FB3307F7028F
:10104000896793870771B357F7022313F4FE835719
:1010500084FEFD17C207C1832310F4FE8357A4FE4C
:10106000231EF4FC231104FE231F04FC230204FEB0
:101070009307C4FDBE850325C4FEEF4060029307BD
:1010800000072316F4FC85472317F4FC231804FCFF
:10109000835764FE2319F4FC8947231AF4FC89471B
:1010A000231BF4FC231C04FC231D04FC8327C4FB2A
:1010B000A1838D8B9DE39307C4FCBE850325C4FEED
:1010C000EF40E015A1450325C4FEEF40D021914536
:1010D0000325C4FEEF40F03545A08327C4FBA18360
:1010E00013F7370085476315F7029307C4FCBE85E5
:1010F0000325C4FEEF40602CA1450325C4FEEF404C
:101100005023930500400325C4FEEF405037ADA0A7
:101110008327C4FBA18313F7370089476314F702C1
:101120009307C4FCBE850325C4FEEF402047A145BC
:101130000325C4FEEF40902591450325C4FEEF40F2
:1011400070391DA88327C4FBA18313F737008D478F
:101150006314F7029307C4FCBE850325C4FEEF4069
:10116000A061A1450325C4FEEF4010279305004070
:101170000325C4FEEF40D03A85450325C4FEEF4069
:10118000500085450325C4FEEF40207A0100B6409B
:10119000264461618280011122CE00102326A4FE24
:1011A000AE873287A305F4FEBA872305F4FEC56730
:1011B0000327C4FE0A079387C71BBA979C433E8741
:1011C0008347B4FEC207C1832316F7000100C56739
:1011D0000327C4FE0A079387C71BBA979C4383D78C
:1011E0008700C207C18393F70708F5F3C567032794
:1011F000C4FE0A079387C71BBA979C4383D7C700CF
:10120000C5670327C4FE0A079387C71BBA979C4389
:101210003E878347A4FEC207C1832316F70001005F
:10122000C5670327C4FE0A079387C71BBA979C4369
:1012300083D78700C207C18393F70708F5F3C56713
:101240000327C4FE0A079387C71BBA979C4383D71B
:10125000C7000100724405618280797122D60018AE
:10126000232EA4FCAE87A30DF4FCC5670327C4FDA1
:101270000A079387C71BBA979C433E878347B4FDF1
:10128000C207C1832316F7000100C5670327C4FD09
:101290000A079387C71BBA979C4383D78700C20767
:1012A000C18393F70708F5F3C5670327C4FD0A0751
:1012B0009387C71BBA979C4383D7C700C56703278B
:1012C000C4FD0A079387C71BBA979C433E8789478B
:1012D0002316F7000100C5670327C4FD0A0793879B
:1012E000C71BBA979C4383D78700C207C18393F774
:1012F0000708F5F3C5670327C4FD0A079387C71BD3
:10130000BA979C4383D7C700C207C183A307F4FEE3
:101310008347F4FE3E85325445618280011122CE1E
:1013200000102326A4FEAE872322C4FE2320D4FE71
:10133000A305F4FEC5670327C4FE0A079387C71BEE
:10134000BA979C433E878347B4FEC207C1832316E6
:10135000F7000100C5670327C4FE0A079387C71B70
:10136000BA979C4383D78700C207C18393F70708C6
:10137000F5F3C5670327C4FE0A079387C71BBA970F
:101380009C4383D7C70095A0C5670327C4FE0A07FF
:101390009387C71BBA979C43239607000100C56734
:1013A0000327C4FE0A079387C71BBA979C4383D7BA
:1013B0008700C207C18393F70708F5F3C5670327C2
:1013C000C4FE0A079387C71BBA979C4383D7C700FD
:1013D00093960701C182832744FE138717002322B7
:1013E000E4FE13F7F60F2380E700832704FE13873C
:1013F000F7FF2320E4FEC9FB0100724405618280EF
:101400005D7186C6A2C480082326A4FC2324B4FCF4
:101410002322C4FC2320D4FC232EE4FA232CF4FA48
:10142000232A04FBC5670327C4FC0A079387C71B4D
:10143000BA979C433E85EF30F02A85450545EF304D
:10144000F018032704FC930730126313F7020327F5
:1014500084FB93074012631DF7000327C4FB930727
:1014600050126317F70085450545EF30404D1DA824
:10147000032704FC89679387A7146315F7020327E2
:1014800084FB89679387B714631EF7000327C4FBA7
:1014900089679387C7146317F700854537152000C0
:1014A000EF30E0498327C4FC91E785450565EF30BF
:1014B000F01125A00327C4FC85476317F700854575
:1014C0001165EF30101511A80327C4FC8947631676
:1014D000F70085452165EF30D013832704FC93F78F
:1014E000F70F93068031054685453E85EFF0AFBB8B
:1014F0008327C4FB93F7F70F930680310546854594
:101500003E85EFF04FBA032784FBC167F917630DDF
:10151000F700832784FB93F7F70F93068034054683
:1015200081453E85EFF02FB8032744FB9307F00F6A
:10153000630DF700832744FB93F7F70F9306003101
:10154000014685453E85EFF00FB6232E04FC23208F
:1015500004FE232204FE232404FE231604FE231E7D
:1015600004FC93074010231FF4FC231004FE032700
:1015700084FC85476305F702832784FC81CF03271A
:1015800084FC89476303F702032784FC8D476304C7
:10159000F7020DA8231104FE231204FE25A0231137
:1015A00004FE85472312F4FE31A889472311F4FE77
:1015B000231204FE01A889472311F4FE8547231254
:1015C000F4FE0100231704FE03A7C180832744FC17
:1015D000B357F7022317F4FE03A7C180832744FC07
:1015E000B377F70291E78357E4FEFD172317F4FE64
:1015F0000357E4FE9307F00763F7E70093078003C0
:101600002317F4FE49A80357E4FE9307F00363F79A
:10161000E700930700032317F4FEB5A80357E4FE81
:10162000FD4763F7E700930780022317F4FEA5A0A8
:101630000357E4FEBD4763F7E70093070002231753
:10164000F4FE91A80357E4FE9D4763F6E700E147E7
:101650002317F4FE89A00357E4FE8D4763F6E700E5
:10166000C1472317F4FE05A80357E4FE854763F638
:10167000E700A1472317F4FE39A88357E4FE81C78A
:10168000231704FE09A813067021C5679385C7BEFA
:101690000145EF10405D8357E4FE2314F4FE9307E9
:1016A00000202313F4FE231504FE9D472316F4FEA9
:1016B000C5670327C4FC0A079387C71BBA979C43D7
:1016C0003E879307C4FDBE853A85EF305008C56755
:1016D0000327C4FC0A079387C71BBA979C43854519
:1016E0003E85EF3050160100B6402644616182808D
:1016F000797122D60018232EA4FC232CB4FC854734
:10170000A307F4FE0327C4FD0A079387418CBA9709
:101710009C4399EB0327C4FD0A079387418CBA9732
:10172000032784FD98C315A00327C4FD0A079387E8
:10173000418CBA979C43032784FD6316F7008547C5
:10174000A307F4FE19A0A30704FE8347F4FE3E8519
:10175000325445618280011106CE22CC001023262E
:10176000A4FE8327C4FE81EB85458567138507802A
:10177000EF30C0656DA80327C4FE85476317F700E7
:1017800085450545EF30E0685DA00327C4FE894725
:101790006317F70085450945EF30A06749A803277F
:1017A000C4FE8D476317F70085451145EF3060662D
:1017B000BDA80327C4FE91476317F700854521455F
:1017C000EF302065ADA00327C4FE95476317F700EF
:1017D00085454145EF30E06399A80327C4FE99474A
:1017E0006318F700854513050002EF30806281A081
:1017F0000327C4FE9D476317F70085450965EF3051
:10180000E05C35A00327C4FEA1476318F7008545B7
:1018100037050800EF30805B19A80327C4FEA547F1
:101820006317F700854537051000EF30205A010097
:10183000F240624405618280011122CE001023260D
:10184000A4FEAE87A305F4FE0100C5670327C4FE0E
:101850000A079387871CBA979C4383D70700C20760
:10186000C18393F70708F5D3C5670327C4FE0A07AA
:101870009387871CBA979C433E878347B4FEC20771
:10188000C1832312F70001007244056182800111B7
:1018900006CE22CC00102326A4FE2324B4FE8327E8
:1018A00084FEB337F00093F7F70F3E871306000569
:1018B000C567938587C43A85EF10E03A39A8832736
:1018C00084FE138717002324E4FE8387070093F721
:1018D000F70FBE850325C4FE8537832784FE8387E3
:1018E0000700F1FF0100F2406244056182800111AE
:1018F00022CE00102326A4FE2324B4FEC5670327AE
:10190000C4FE0A079387871CBA979C4383D70700B6
:10191000C207C18393F707028DC7C5670327C4FEBB
:101920000A079387871CBA979C4383D74700C2074F
:10193000C18313F7F70F832784FE2380E7008547D1
:1019400011A081473E85724405618280797106D677
:1019500022D40018232EA4FC232CB4FC232AC4FC7C
:101960002328D4FC032744FD832704FD3D8F8327D0
:10197000C4FDB207F98F93B7170093F7F70F3E87AF
:101980001306A00AC567938587C43A85EF10A02D7A
:10199000832744FD13D78700832704FDA183B30762
:1019A000F74093B7170093F7F70F3E871306B00A77
:1019B000C567938587C43A85EF10E02A832744FDE5
:1019C00093F7F70FE146014685453E85EFE0BFED11
:1019D000832704FD93F7F70F9306800401468145A2
:1019E0003E85EFE05FEC85450545EF30203E03275F
:1019F00044FDC167FD17F98F0D671307073863852D
:101A0000E7200D67130707386369F70405671307B5
:101A100057166381E716056713075716636FF700BC
:101A20001307F022638AE70C130760306381E71025
:101A3000130760126388E70855A6096713078736FE
:101A4000638AE7160D67130707126385E7180967AE
:101A50001307A7146380E71451A615671307A73867
:101A6000638CE72615671307A7386362F7021167CF
:101A700013078738638EE71E156713078712638382
:101A8000E722116713074712638AE71A81AE1967C5
:101A90001307C7386386E72A19671307C7386368CF
:101AA000F7001967130767106382E72605AE1D6705
:101AB0001307E7106380E72C1D671307E73863857A
:101AC000E72E29AEB7070140D44FB70701403707CB
:101AD00000FC7D17758FD8CFB7070140D843B707F3
:101AE00001406D9BD8C3B7070140D843B7070140F9
:101AF00013674700D8C3DDA4B7070140D44FB70729
:101B00000140370700FC7D17758FD8CFB70701401C
:101B1000D44FB707014037070004558FD8CFB70718
:101B20000140D843B70701406D9BD8C345ACB70708
:101B30000140D44FB7070140370700FC7D17758F70
:101B4000D8CFB7070140D44FB7070140370700048B
:101B5000558FD8CFB7070140D843B70701406D9BD9
:101B6000D8C3B7070140D843B70701401367470000
:101B7000D8C3ADA4B7070140D843B70701405D9B68
:101B8000D8C3B7070140D843B707014013678700A0
:101B9000D8C3A9A4B7070140D843B70701401D9B8C
:101BA000D8C3B7070140D843B70701401367870080
:101BB000D8C32DA4B7070140D843B70701401D9BE8
:101BC000D8C3B7070140D843B7070140136787015F
:101BD000D8C329A4B7070140D44FB707014037073E
:101BE000FDFF7D17758FD8CFB7070140D44F8327EE
:101BF00044FDA18313970701B70703007D8FB70743
:101C00000140558FD8CFD9AAB7070140D44FB707A5
:101C100001403707FDFF7D17758FD8CFB70701400B
:101C2000D44F832744FDA18313970701B70703000F
:101C30007D8FB7070140558FD8CF4DA2B707014020
:101C4000D44FB70701403707F4FF7D17758FD8CF02
:101C5000B7070140D44F832744FDA1831397270181
:101C6000B7070C007D8FB7070140558FD8CFBDA2B5
:101C7000B7070140D44FB70701403707F4FF7D177E
:101C8000758FD8CFB7070140D44F832744FDA18378
:101C900013972701B7070C007D8FB7070140558FB9
:101CA000D8CF2DAAB7070140D44FB7070140370757
:101CB000D0FF7D17758FD8CFB7070140D44F83274A
:101CC00044FDA18313974701B70730007D8FB70705
:101CD0000140558FD8CF19A2B7070140D44FB7079D
:101CE00001403707D0FF7D17758FD8CFB707014068
:101CF000D44F832744FDA18313974701B7073000D2
:101D00007D8FB7070140558FD8CFC9A8B7070140CD
:101D1000D44FB7070140370740FF7D17758FD8CFE5
:101D2000B7070140D44F832744FDA1831397670170
:101D3000B707C0007D8FB7070140558FD8CF79A86E
:101D4000B7070140D44FB7070140370740FF7D1761
:101D5000758FD8CFB7070140D44F832744FDA183A7
:101D600013976701B707C0007D8FB7070140558FF4
:101D7000D8CFADA0B7070140D44FB7070140370710
:101D800000FD7D17758FD8CFB7070140D44F83274B
:101D900044FDA18313978701B70700037D8FB70721
:101DA0000140558FD8CF1DA8B7070140D44FB707C2
:101DB0000140370700FD7D17758FD8CFB707014069
:101DC000D44F832744FDA18313978701B7070003EE
:101DD0007D8FB7070140558FD8CF01008327C4FD01
:101DE00091E785451165EF20707E69A80327C4FD42
:101DF00085476318F700854537050200EF3060011D
:101E000051A00327C4FD89476318F70085453705AE
:101E10000400EF300000BDA00327C4FD8D47631808
:101E2000F700854537050800EF20B07EA1A80327FD
:101E3000C4FD91476318F700854537051000EF2072
:101E4000507D89A00327C4FD95476318F700854599
:101E500013050004EF20F07B35A00327C4FD99474C
:101E60006318F700854513050008EF20907A19A83C
:101E70000327C4FD9D476317F70085451305001030
:101E8000EF203079232004FE232204FE232404FEC5
:101E9000232604FE832784FD2320F4FE231204FE60
:101EA000231304FE231404FE231604FEB147231556
:101EB000F4FEC5670327C4FD0A079387871CBA97FA
:101EC0009C433E87930704FEBE853A85EF309074AD
:101ED000C5670327C4FD0A079387871CBA979C43ED
:101EE00085453E85EF4040160100B25022544561C1
:101EF0008280011106CE22CC001083C79183638AB1
:101F0000070E09A8930734FE0546BE851385C18ECA
:101F1000EF102011930734FEBE851D45EFF03F9D65
:101F2000AA87EDF3034734FEA9476314F70C9947DA
:101F30002322F4FE130744FE930784FE85463A8667
:101F4000BE851385C18EEF10803D930784FE1387F5
:101F500037000D46C567938587CA3A85EFC0800C68
:101F6000AA879DEB03A701848947630DF706054700
:101F700023A0E1841385C18EEF106006AA87232277
:101F8000F4FE930744FE81463E869385819813852F
:101F9000C18EEF10C038B9A0930784FE13873700B5
:101FA0000D46C5679385C7CA3A85EFC0A007AA87C3
:101FB00095EB03A7C18389476306F702054723AE64
:101FC000E1821385C18EEF108001AA872322F4FEDF
:101FD000930744FE81463E86938581901385C18E8A
:101FE000EF10E0331385C18EEF00906F0547238C0F
:101FF000E1820100F240624405618280011106CE57
:1020000022CC0010AA872E87A307F4FEBA872307E5
:10201000F4FEB70700209387C7009C4713070040D2
:10202000D8CB0347E4FE8347F4FE3A86BE850945D4
:10203000EFF06F96B70700209387C7009C47130700
:10204000004098CB0100F2406244056182807971C2
:1020500006D622D40018AA87A30FF4FCB7070020E5
:102060009387C7009C4713070040D8CB8347F4FDF4
:1020700093E707F893F7F70FBE850945EFF0EF9D5B
:10208000AA87A307F4FEB70700209387C7009C47E1
:102090001307004098CB8347F4FE3E85B25022548C
:1020A00045618280011106CE22CC0010AA8723242C
:1020B000B4FE3287A307F4FEBA872307F4FEB707FE
:1020C00000209387C7009C4713070040D8CB834765
:1020D000F4FE93E707F893F7F70F0347E4FEBA8699
:1020E000032684FEBE850945EFF04FA3B707002005
:1020F0009387C7009C471307004098CB0100F2402C
:10210000624405618280011106CE22CC0010A30733
:1021100004FE230704FE231604FE81A08357C4FE99
:10212000138717002316E4FE1307F00F6376F700FA
:1021300085472307F4FE3DA013055007093FAA87F2
:10214000A307F4FE03A7C1808967938707F4B357F9
:10215000F702A9453E85EFE02F950347F4FEC947F6
:10216000E31EF7FA8347E4FE3E85F24062440561D0
:102170008280011106CE22CC0010930784FE1946FE
:10218000BE851305B003393F834784FEA20713972A
:1021900007014187834794FEC207C187D98F1397F0
:1021A000070141872395E1848347A4FEA207139783
:1021B000070141878347B4FEC207C187D98F1397B0
:1021C000070141872396E1848347C4FEA207139742
:1021D000070141878347D4FEC207C187D98F139770
:1021E000070141872397E1840100F24062440561C1
:1021F0008280011106CE22CC0010930784FE19467E
:10220000BE8513053004793D834784FEA2071397EA
:1022100007014187834794FEC207C187D98F13976F
:10222000070141872392E1848347A4FEA207139705
:10223000070141878347B4FEC207C187D98F13972F
:10224000070141872393E1848347C4FEA2071397C4
:10225000070141878347D4FEC207C187D98F1397EF
:10226000070141872394E1840100F2406244056143
:102270008280011106CE22CC0010A30504FEA30724
:1022800004FE231604FE03A7C1808967938707F421
:10229000B357F702A9453E85EFE00F811308F00F11
:1022A00089679387470209671307570289669386F0
:1022B0003602379698001306066881450945EFF007
:1022C0002F94C146054685451305A004EFE0AFDD18
:1022D0001D3DAA8785C393064011C567138687D91C
:1022E000C567938587DF0145EF00701E8547A3070B
:1022F000F4FE65A0930500081305B006013303A79B
:10230000C1808967938707F4B357F70289453E85F3
:10231000EFD09FF91305B0061D3BAA87A305F4FE75
:102320008357C4FE138717002316E4FE1307F00F2C
:102330006371F70293064012C567138687D9C56794
:10234000938547E10145EF0090188547A307F4FE08
:1023500039A00347B4FE93071004E31DF7FA0347BF
:10236000F4FE8547630AF70285451305B006793107
:1023700081451305C00659318545694541319D4563
:102380006545AD39E1456D459539C1457145BD316D
:102390008D457545A53111A001008347F4FE3E85AA
:1023A000F240624405618280411122C600080100AA
:1023B000324441018280411122C60008B717024011
:1023C0009843B71702401367170098C3B717024026
:1023D000D443B71702403707FFF8758FD8C3B71734
:1023E00002409443B71702403707F7FE7D17758FF9
:1023F00098C3B71702409443B71702403707FCFF52
:102400007D17758F98C3B7170240D443B7170240A2
:10241000370781FF7D17758FD8C3B717024037077D
:102420009F0098C70100324441018280797122D611
:102430000018232EA4FC232604FE232404FEB71731
:1024400002409443B71702404167558F98C3B717AE
:1024500002409843B7070200F98F2324F4FE832734
:10246000C4FE85072326F4FE832784FE91E7032715
:10247000C4FE8567E31DF7FCB71702409843B70712
:102480000200F98F89C785472324F4FE19A023246D
:1024900004FE032784FE85476312F71637170240B0
:1024A000B71702405843D8C337170240B717024046
:1024B0005843D8C337170240B71702405843D8C310
:1024C000B7170240D443B71702403707C1FF7D1743
:1024D000758FD8C30327C4FDB74795089387074076
:1024E000631BF700B7170240D443B7170240416798
:1024F000558FD8C355A80327C4FDB717270793875F
:1025000007E0631CF700B7170240D443B717024037
:1025100037073900558FD8C341A80327C4FDB7E753
:10252000B80593870780631CF700B7170240D443B0
:10253000B717024037072900558FD8C3B5A0032726
:10254000C4FDB7A74A0493870720631CF700B71799
:102550000240D443B717024037071D00558FD8C338
:10256000A1A00327C4FDB777DC02938707C0631CD3
:10257000F700B7170240D443B717024037071100DE
:10258000558FD8C315A00327C4FDB7376E019387B5
:102590000760631BF700B7170240D443B717024028
:1025A00037070500558FD8C3B71702409443B717B4
:1025B000024037070001558F98C30100B71702404A
:1025C0009843B7070002F98FF5DBB7170240D843ED
:1025D000B7170240719BD8C3B7170240D843B7174B
:1025E000024013672700D8C30100B7170240DC433D
:1025F00013F7C700A147E31AF7FE11A001A0325458
:1026000045618280011106CE22CC00102326A4FE53
:102610000327C4FE23A6E180793B0325C4FE393598
:10262000EF1040100100F2406244056182804111C8
:1026300022C60008010001003244410182800111DC
:1026400006CE22CC0010232604FE232404FE2326DB
:1026500004FE25A0232404FE39A0D13F832784FE55
:1026600085072324F4FE032784FEC167E367F7FE92
:102670008327C4FE85072326F4FE0327C4FE9307A1
:10268000F00FE3F9E7FC0100F2406244056182804B
:10269000411122C60008010032444101828001112B
:1026A00006CE22CC00102326A4FE8325C4FE0945B5
:1026B000EFF0EF9D0100F24062440561828013015A
:1026C00001D9232611262324812623229126801C2A
:1026D000232EA4D8232CB4D8232AC4D82328D4D872
:1026E000231504FE231404FE231304FE231204FE08
:1026F000231104FE032584D9EFB0B011AA87C207C5
:10270000C1872313F4FE83D781A089C7938781A053
:102710009C4B829783C7018593F7F70F638D074A18
:1027200083D781A063870744938781A0D4478357C9
:1027300024FE13970701418793170701C18385077B
:10274000C207C183C207C1872311F4FE9317070193
:10275000C1830326C4D9BE8501458296832784D9C7
:102760002326F4FE032584D9EFB0B00AAA87C20756
:10277000C1872313F4FE938781A083D727003E8768
:10278000938781A083C76700B347F702C207C18759
:102790002312F4FE01008327C4FE138717002326AB
:1027A000E4FE83870700E5FB231404FEA1A883272A
:1027B000C4FEFD172326F4FE8327C4FE038707000B
:1027C0009307F002630AF7008327C4FE038707001C
:1027D0009307C005631BF700835784FEC207C183BC
:1027E0008507C207C1832314F4FE835764FEC20722
:1027F000C187C207C183FD17C207C183C207C18752
:102800002313F4FE835784FE139707014183854702
:1028100063E8E700835764FEC207C187E3D907F87E
:10282000835764FEC207C18763C207028327C4FEC1
:1028300085072326F4FE130704EE0326C4FEC567AE
:10284000938547E33A85EFB060781DA8835784FEEF
:10285000C207C18381EF130704EE0326C4FEC567D8
:10286000938507E43A85EFB0607619A8130704EE64
:102870000326C4FEC567938547E33A85EFB000752C
:10288000231504FE21AA231404FE59A0930704EE85
:102890003E85EFB000782A87835784FEC207C18344
:1028A000BE868357A4FEC207C1833E86835744FE7B
:1028B000C207C187B307F602B6976367F706835767
:1028C00084FEC207C1833E878357A4FEC207C1832B
:1028D000BE86835744FEC207C187B387F602BA9704
:1028E000035784FE42074183BA86130704FFBA9751
:1028F000038707EF930704FFB6972388E7EA835718
:1029000084FEC207C1838507C207C1832314F4FE76
:10291000835784FEC207C1833E87835744FEC207A4
:10292000C187E345F7F611A00100835784FEC20773
:10293000C183130704FFBA97238807EA938781A00E
:1029400003A8C700938781A083C777001397070167
:102950004183835724FE93960701C186939706010E
:10296000C1838507C207C183C207C1872311F4FE53
:1029700093970601C183B307F702C207C183130708
:1029800004EA3A86BE85014502988357A4FEC20731
:10299000C1838507C207C1832315F4FE8357A4FEB4
:1029A000C207C183BE84930704EE3E85EFB0606624
:1029B0002A87835744FEC207C187B357F7028507AA
:1029C000E3E3F4EC130704EE032644D9C5679385CB
:1029D00007E53A85EFB0805F938781A003A8C70021
:1029E000938781A083C7770013970701418383579B
:1029F00024FE93960701C18693970601C18385073C
:102A0000C207C183C207C1872311F4FE9397060151
:102A1000C183B307F702C207C183130704EE3A86E6
:102A2000BE8501450298832704D96386071A2315BA
:102A300004FE21AA231404FE59A0032504D9EFB0F3
:102A4000405D2A87835784FEC207C183BE868357B1
:102A5000A4FEC207C1833E86835744FEC207C187D6
:102A6000B307F602B6976368F706835784FEC2077A
:102A7000C1833E878357A4FEC207C183BE868357A6
:102A800044FEC207C187B387F602BA973E87832701
:102A900004D9BA97035784FE42074183BA86038755
:102AA0000700930704FFB6972388E7EA835784FE5D
:102AB000C207C1838507C207C1832314F4FE83576D
:102AC00084FEC207C1833E87835744FEC207C18785
:102AD000E345F7F611A00100835784FEC207C183C6
:102AE000130704FFBA97238807EA938781A003A8F6
:102AF000C700938781A083C777001397070141839D
:102B0000835724FE93960701C18693970601C183DC
:102B10008507C207C183C207C1872311F4FE9397BB
:102B20000601C183B307F702C207C183130704EA92
:102B30003A86BE85014502988357A4FEC207C18329
:102B40008507C207C1832315F4FE8357A4FEC2077D
:102B5000C183BE84032504D9EFB0A04B2A878357D5
:102B600044FEC207C187B357F7028507E3E4F4ECDC
:102B70009DA0930704DA1306001081453E85EFD02F
:102B80002FE8938781A09C470325C4D98297832788
:102B900004D999CF130504DA032704D9832644D92D
:102BA000032684D9C5679385C7E5EFB0204229A8DD
:102BB000130704DA832644D9032684D9C56793858D
:102BC00087E73A85EFB08040938781A098479307C5
:102BD00004DA3E85029701008320C1260324812662
:102BE00083244126130101278280797106D622D4DD
:102BF0000018232EA4FC232CB4FC232AC4FC232677
:102C000004FEA9A00100C5679387871C9C47930514
:102C100000043E85EF30204CAA87F5D7C56793871F
:102C2000871C9C47BE86832784FD13871700232CAF
:102C3000E4FC83870700C207C183BE853685EF3079
:102C4000A0468327C4FE85072326F4FE0327C4FE7F
:102C5000832744FDE348F7FA832744FD3E85B250BD
:102C6000225445618280011106CE22CC0010AA8731
:102C70002324B4FE2322C4FEA307F4FE8347F4FEFC
:102C8000B1E383C7018193F7F70F8DCF83C7118518
:102C900091C301A083C71185850713F7F70FA38898
:102CA000E184EF009025EFF0BF9E8146032644FEAD
:102CB000832584FEC567138507E9EFF05FA0EFF079
:102CC0001F98E5B70100F24062440561828001115E
:102CD00006CE22CC0010AA872324B4FE2322C4FEF1
:102CE0002320D4FEA307F4FE8347F4FE95E383C7B5
:102CF000018593F7F70F91CF832684FE032604FE08
:102D0000832544FEC567138507EAEFF05F9B11A09A
:102D100001000100F240624405618280011122CE6F
:102D200000102326A4FE8327C4FE239007008327D8
:102D3000C4FE7D572391E7008327C4FE7D5723926D
:102D4000E7008327C4FE7D572383E7008327C4FE63
:102D50007D57A383E7008327C4FE23A407008327AE
:102D6000C4FE23A607008327C4FE23A80700010092
:102D7000724405618280011122CE00102326A4FE38
:102D80008327C4FE03D707002394E1A08327C4FE52
:102D900003D72700938781A02391E7008327C4FEF0
:102DA00003D74700938781A02392E7008327C4FEBF
:102DB00003C76700938781A02383E7008327C4FEAE
:102DC00003C77700938781A0A383E7008327C4FE0E
:102DD0009847938781A098C78327C4FED8479387D5
:102DE00081A0D8C78327C4FE984B938781A098CB36
:102DF00005472388E184010072440561828079716E
:102E000006D622D400189307C4FD3E85013FB7279C
:102E100000009387E7692322F4FE9307C4FD3E85F3
:102E2000993F89679386B70289671386A702F1677E
:102E3000938507200945EFE07FB10100B25022548D
:102E400045618280011122CE00102326A4FE232496
:102E5000B4FE8327C4FED847832784FE3E9783278A
:102E6000C4FED8C719A88327C4FED8478327C4FE49
:102E70009C4F1D8F8327C4FED8C78327C4FE984F5D
:102E80008327C4FEDC47E3F0E7FE010072440561DE
:102E90008280011122CE00102326A4FE2324B4FE3A
:102EA0008327C4FE984B832784FE3E978327C4FE66
:102EB00098CB19A88327C4FE984B8327C4FE9C4F48
:102EC0001D8F8327C4FE98CB8327C4FE984F83278A
:102ED000C4FE9C4BE3F0E7FE010072440561828072
:102EE000797106D622D40018232EA4FC8327C4FDB2
:102EF000B337F00093F7F70F3E8713064005C56719
:102F00009385C7EA3A858533232604FE8327C4FDCB
:102F100083C70700858B93F7F70F89C78947232657
:102F2000F4FE7DA08327C4FD83C7070093E7170045
:102F300013F7F70F8327C4FD2380E7008327C4FD21
:102F400023A607008327C4FD23A807008327C4FD09
:102F5000984F8327C4FDD8CB8327C4FDDC430547A6
:102F60006383E70289C70947638CE702B9A0832717
:102F7000C4FD98478327C4FD9C4F3E8681453A8512
:102F8000EFD00FA81DA88327C4FD98478327C4FD51
:102F90009C4F86073E8681453A85EFD06FA631A8C3
:102FA0008327C4FD98478327C4FD9C4F8A073E862C
:102FB00081453A85EFD0CFA401008327C4FD83C7A4
:102FC0000700F99B13F7F70F8327C4FD2380E70061
:102FD0008327C4FE3E85B250225445618280011190
:102FE00006CE22CC00102326A4FE8327C4FEB337CE
:102FF000F00093F7F70F3E871306C007C567938568
:10300000C7EA3A85EFF03FC68327C4FE984F83276F
:10301000C4FEDC4BB307F7403E85F24062440561D5
:103020008280797106D622D40018232EA4FC232C8A
:10303000B4FC232AC4FC8327C4FDB337F00093F704
:10304000F70F3E871306C00BC5679385C7EA3A851D
:10305000EFF07FC1232604FE232404FE832784FD92
:1030600089E78D472326F4FE65A48327C4FD83C723
:103070000700898B93F7F70F89C785472326F4FE4E
:1030800041AC8327C4FD83C7070093E7270013F7EC
:10309000F70F8327C4FD2380E7008327C4FDDC4BA3
:1030A000032744FD63E8E7248327C4FD984F832763
:1030B000C4FDDC47B307F7402324F4FE032744FD97
:1030C000832784FE63FEE7168327C4FDDC430547A0
:1030D000638DE70689C709476385E70E11A4832737
:1030E000C4FD98478327C4FDDC47BA97032684FEB6
:1030F000832584FD3E85EFA0803E832584FE032545
:10310000C4FD89338327C4FD98478327C4FDDC476A
:10311000B306F700032784FD832784FEB305F70079
:10312000032744FD832784FEB307F7403E86368598
:10313000EFA0E03A032744FD832784FEB307F7405E
:10314000BE850325C4FDFD3961AA8327C4FD9847C8
:103150008327C4FDDC4786073E97832784FE8607C6
:103160003E86832584FD3A85EFA06037832584FE63
:103170000325C4FDC1398327C4FD98478327C4FDB7
:10318000DC478607B306F700832784FE86070327FC
:1031900084FDB305F700032744FD832784FEB307AE
:1031A000F74086073E863685EFA06033032744FD4F
:1031B000832784FEB307F740BE850325C4FD59313C
:1031C00005A28327C4FD98478327C4FDDC478A07EF
:1031D0003E97832784FE8A073E86832584FD3A85B1
:1031E000EFA0E02F832584FE0325C4FDEFF09FC5EB
:1031F0008327C4FD98478327C4FDDC478A07B306AD
:10320000F700832784FE8A07032784FDB305F700B0
:10321000032744FD832784FEB307F7408A073E86D1
:103220003685EFA0C02B032744FD832784FEB30718
:10323000F740BE850325C4FDEFF0DFC001004DA0BF
:103240008327C4FDDC430547638CE70289C7094730
:103250006380E70671A08327C4FD98478327C4FDD8
:10326000DC47BA97032644FD832584FD3E85EFA005
:103270000027832544FD0325C4FDEFF0BFBC8DA0CE
:103280008327C4FD98478327C4FDDC4786073E9704
:10329000832744FD86073E86832584FD3A85EFA07B
:1032A0000024832544FD0325C4FDEFF0BFB90DA81C
:1032B0008327C4FD98478327C4FDDC478A073E97D0
:1032C000832744FD8A073E86832584FD3A85EFA047
:1032D0000021832544FD0325C4FDEFF0BFB60100A6
:1032E0008327C4FDD84B832744FD1D8F8327C4FD4E
:1032F000D8CB21A091472326F4FE8327C4FD83C7A2
:103300000700F59B13F7F70F8327C4FD2380E70021
:103310008327C4FE3E85B250225445618280797174
:1033200006D622D40018232EA4FC232CB4FC232A76
:10333000C4FC2328D4FC8327C4FDB337F00093F7E3
:10334000F70F3E8713067016C5679385C7EA3A855F
:10335000EFF07F91832744FDB337F00093F7F70F29
:103360003E8713068016C5679385C7EA3A85EFF056
:103370009F8F232604FE832784FD89E78D4723261C
:10338000F4FEA1AC8327C4FD83C7070093E7470081
:1033900013F7F70F8327C4FD2380E7000325C4FD3F
:1033A000EFF0FFC32324A4FE832744FD9C4303279F
:1033B00084FE637AF700832744FD032784FE98C3C5
:1033C00095472326F4FE8327C4FD984F8327C4FD29
:1033D0009C4BB307F7402322F4FE832744FD9C4314
:1033E000032744FE6365F7088327C4FDDC430547D4
:1033F0006388E70289C709476387E704BDA283277B
:10340000C4FD98478327C4FD9C4B3E97832744FD0A
:103410009C433E86BA85032584FDEFA0400CB1A2F3
:103420008327C4FD98478327C4FD9C4B86073E979E
:10343000832744FD9C4386073E86BA85032584FD89
:10344000EFA0E0091DA28327C4FD98478327C4FD90
:103450009C4B8A073E97832744FD9C438A073E8600
:10346000BA85032584FDEFA080070100FDA883270E
:10347000C4FDDC430547638AE70489C70947638EB7
:10348000E708E5A08327C4FD98478327C4FD9C4B2C
:10349000BA97032644FEBE85032584FDEFA02004D1
:1034A000032784FD832744FEB306F7008327C4FD6A
:1034B0008C47832744FD9843832744FEB307F74096
:1034C0003E863685EFA0A0014DA08327C4FD984716
:1034D0008327C4FD9C4B86073E97832744FE8607BF
:1034E0003E86BA85032584FDEF90707F832744FED6
:1034F0008607032784FDB306F7008327C4FD8C47A6
:10350000832744FD9843832744FEB307F74086078B
:103510003E863685EF90B07C89A88327C4FD984706
:103520008327C4FD9C4B8A073E97832744FE8A0766
:103530003E86BA85032584FDEF90707A832744FE8A
:103540008A07032784FDB306F7008327C4FD8C4751
:10355000832744FD9843832744FEB307F7408A0737
:103560003E863685EF90B0770100832704FDB5E7EE
:103570008327C4FD83C70700858B93F7F70F89C79F
:1035800089472326F4FE91A88327C4FD83C707003B
:1035900093E7170013F7F70F8327C4FD2380E70095
:1035A000832744FD9C43BE850325C4FDEFF07F8E39
:1035B0008327C4FDD84B832744FD9C433E97832734
:1035C000C4FDD8CB8327C4FD83C70700F99B13F73D
:1035D000F70F8327C4FD2380E7008327C4FD83C73B
:1035E0000700918B13F7F70F8327C4FD2380E700B3
:1035F0008327C4FE3E85B25022544561828041112A
:1036000022C6000899679387870873900780010096
:10361000324441018280411122C6000899677390AB
:1036200007800100324441018280011122CE001046
:103630002326A4FE8327C4FEFD8B0547B316F7009F
:1036400037E700E08327C4FE9583938707048A0742
:10365000BA9794C30100724405618280011122CEA1
:1036600000102326A4FEAE87A305F4FE37E700E092
:103670008327C4FEBA970347B4FE2380E7400100C6
:10368000724405618280011106CE22CC00102326EF
:10369000A4FE0325C4FE513F0100F24062440561CF
:1036A0008280011106CE22CC00102326A4FEAE8714
:1036B000A305F4FE8347B4FEBE850325C4FE793F0F
:1036C0000100F240624405618280011106CE22CCE5
:1036D00000102326A4FE8327C4FE99C783A7418533
:1036E0001387F7FF23AAE18483A7418591E3013F74
:1036F0000100F240624405618280411106C622C485
:10370000000883A7418591E3393783A74185138753
:10371000170023AAE18483A741853E85B240224455
:1037200041018280411106C622C400080145713F53
:103730000100B2402244410182801D71A2CE82E686
:1037400086E48AE28EE012FE16FC1AFA1EF82AF6C9
:103750002EF432F236F03AEE3EEC42EA46E872E6F9
:1037600076E47AE27EE0801093055052B74701403C
:1037700013850780EF20901AAA8789CB93055052B2
:10378000B747014013850780EF2070290100764478
:103790003660A660166186617272E2725273C273FD
:1037A0003275A275127682767267E2675268C268D5
:1037B000326EA26E126F826F2561730020301D7110
:1037C000A2CE82E686E48AE28EE012FE16FC1AFAA7
:1037D0001EF82AF62EF432F236F03AEE3EEC42EAC9
:1037E00046E872E676E47AE27EE080109305505275
:1037F000B747004013850740EF205012AA8789CBB6
:1038000093055052B747004013850740EF20302101
:10381000010076443660A660166186617272E272BB
:103820005273C2733275A275127682767267E2673E
:103830005268C268326EA26E126F826F2561730089
:1038400020301D71A2CE82E686E48AE28EE012FE6E
:1038500016FC1AFA1EF82AF62EF432F236F03AEE78
:103860003EEC42EA46E872E676E47AE27EE08010D8
:1038700093055052B757004013850780EF20100A78
:10388000AA8789CB93055052B7570040138507800C
:10389000EF20F018010076443660A660166186615C
:1038A0007272E2725273C2733275A27512768276A8
:1038B0007267E2675268C268326EA26E126F826FE0
:1038C0002561730020301D71A2CE82E686E48AE273
:1038D0008EE012FE16FC1AFA1EF82AF62EF432F2C8
:1038E00036F03AEE3EEC42EA46E872E676E47AE2F8
:1038F0007EE0801093055052B7570040138507C0F3
:10390000EF20D001AA8789CB93055052B7570040CA
:10391000138507C0EF20B010010076443660A66022
:10392000166186617272E2725273C2733275A27549
:10393000127682767267E2675268C268326EA26E51
:10394000126F826F2561730020301D71A2CE82E656
:1039500086E48AE28EE012FE16FC1AFA1EF82AF6B7
:103960002EF432F236F03AEE3EEC42EA46E872E6E7
:1039700076E47AE27EE0801093055052375500409D
:10398000EF20C079AA8781CFB707002083A7076BF4
:1039900082979305505237550040EF2050080100A0
:1039A00076443660A660166186617272E272527366
:1039B000C2733275A275127682767267E2675268B8
:1039C000C268326EA26E126F826F25617300203062
:1039D0001D71A2CE82E686E48AE28EE012FE16FC1B
:1039E0001AFA1EF82AF62EF432F236F03AEE3EECCF
:1039F00042EA46E872E676E47AE27EE080109305D9
:103A00005052B727004013850780EF202071AA8706
:103A100089CB93055052B727004013850780EF20CC
:103A20001000010076443660A660166186617272ED
:103A3000E2725273C2733275A27512768276726721
:103A4000E2675268C268326EA26E126F826F2561A1
:103A5000730020301D71A2CE82E686E48AE28EE0F9
:103A600012FE16FC1AFA1EF82AF62EF432F236F07E
:103A70003AEE3EEC42EA46E872E676E47AE27EE02E
:103A8000801093055052B7270040138507C0EF20E0
:103A9000E068AA8781CF83A78180829793055052DF
:103AA000B7270040138507C0EF20607701007644F8
:103AB0003660A660166186617272E2725273C273DA
:103AC0003275A275127682767267E2675268C268B2
:103AD000326EA26E126F826F2561730020301D71ED
:103AE000A2CE82E686E48AE28EE012FE16FC1AFA84
:103AF0001EF82AF62EF432F236F03AEE3EEC42EAA6
:103B000046E872E676E47AE27EE080109305505251
:103B100037250040EF208060AA8789CBEFE06FBD9A
:103B20009305505237250040EF20606F0100764426
:103B30003660A660166186617272E2725273C27359
:103B40003275A275127682767267E2675268C26831
:103B5000326EA26E126F826F2561730020301D716C
:103B6000A2CE82E686E48AE28EE012FE16FC1AFA03
:103B70001EF82AF62EF432F236F03AEE3EEC42EA25
:103B800046E872E676E47AE27EE08010B7070550F8
:103B900083C7070193F7F70F918B9DC3B7070020E9
:103BA00083A7476B8297B707055083C7070113F7B1
:103BB000F70FB70705506D9B1377F70F2388E700C2
:103BC000010076443660A660166186617272E27208
:103BD0005273C2733275A275127682767267E2678B
:103BE0005268C268326EA26E126F826F25617300D6
:103BF00020301D71A2CE82E686E48AE28EE012FEBB
:103C000016FC1AFA1EF82AF62EF432F236F03AEEC4
:103C10003EEC42EA46E872E676E47AE27EE0801024
:103C20000545EF0050242A8785476315F7000545B1
:103C3000EF00D028010076443660A66016618661E8
:103C40007272E2725273C2733275A2751276827604
:103C50007267E2675268C268326EA26E126F826F3C
:103C60002561730020301D71A2CE82E686E48AE2CF
:103C70008EE012FE16FC1AFA1EF82AF62EF432F224
:103C800036F03AEE3EEC42EA46E872E676E47AE254
:103C90007EE080100945EF00101D2A8785476315D7
:103CA000F7000945EF009021010076443660A660D8
:103CB000166186617272E2725273C2733275A275B6
:103CC000127682767267E2675268C268326EA26EBE
:103CD000126F826F2561730020301D71A2CE82E6C3
:103CE00086E48AE28EE012FE16FC1AFA1EF82AF624
:103CF0002EF432F236F03AEE3EEC42EA46E872E654
:103D000076E47AE27EE080101145EF00D0152A8734
:103D100085476315F7001145EF00501A01007644FE
:103D20003660A660166186617272E2725273C27367
:103D30003275A275127682767267E2675268C2683F
:103D4000326EA26E126F826F2561730020301D717A
:103D5000A2CE82E686E48AE28EE012FE16FC1AFA11
:103D60001EF82AF62EF432F236F03AEE3EEC42EA33
:103D700046E872E676E47AE27EE080102145EF00C4
:103D8000900E2A8785476315F7002145EF00101331
:103D9000010076443660A660166186617272E27236
:103DA0005273C2733275A275127682767267E267B9
:103DB0005268C268326EA26E126F826F2561730004
:103DC00020301D71A2CE82E686E48AE28EE012FEE9
:103DD00016FC1AFA1EF82AF62EF432F236F03AEEF3
:103DE0003EEC42EA46E872E676E47AE27EE0801053
:103DF0004145EF0050072A8785476315F700414585
:103E0000EF00D00B010076443660A6601661866133
:103E10007272E2725273C2733275A2751276827632
:103E20007267E2675268C268326EA26E126F826F6A
:103E30002561730020301D71A2CE82E686E48AE2FD
:103E40008EE012FE16FC1AFA1EF82AF62EF432F252
:103E500036F03AEE3EEC42EA46E872E676E47AE282
:103E60007EE0801013050002EF00E07F2A8785477F
:103E70006316F70013050002EF0050041305000459
:103E8000EF00607E2A8785476316F700130500045C
:103E9000EF00D00213050008EF00E07C2A87854779
:103EA0006316F70013050008EF005001130500101A
:103EB000EF00607B2A8785476316F7001305001023
:103EC000EF00C07F13050020EF00E0792A878547C7
:103ED0006316F70013050020EF00407E01007644D2
:103EE0003660A660166186617272E2725273C273A6
:103EF0003275A275127682767267E2675268C2687E
:103F0000326EA26E126F826F2561730020301D71B8
:103F1000A2CE82E686E48AE28EE012FE16FC1AFA4F
:103F20001EF82AF62EF432F236F03AEE3EEC42EA71
:103F300046E872E676E47AE27EE0801013050040FF
:103F40001D272A8785476316F70013050040EF00F9
:103F5000E07685671385078039272A8785476317A9
:103F6000F700856713850780EF0040750565E52D2F
:103F70002A8785476315F7000565EF0020740965FA
:103F8000DD252A8785476314F7000965052F11652C
:103F9000D92D2A8785476314F70011650527216508
:103FA000D9252A8785476314F7002165012F010071
:103FB00076443660A660166186617272E272527350
:103FC000C2733275A275127682767267E2675268A2
:103FD000C268326EA26E126F826F2561730020304C
:103FE0001D71A2CE82E686E48AE28EE012FE16FC05
:103FF0001AFA1EF82AF62EF432F236F03AEE3EECB9
:1040000042EA46E872E676E47AE27EE08010854590
:10401000B7370140138507C0EF10F055AA8791CB41
:104020008545B7370140138507C0EF10D05BEF30EF
:10403000E009010076443660A660166186617272FE
:10404000E2725273C2733275A2751276827672670B
:10405000E2675268C268326EA26E126F826F25618B
:10406000730020301D71A2CE82E686E48AE28EE0E3
:1040700012FE16FC1AFA1EF82AF62EF432F236F068
:104080003AEE3EEC42EA46E872E676E47AE27EE018
:104090008010854537050040EF10F04DAA8791C785
:1040A000854537050040EF10105401007644366016
:1040B000A660166186617272E2725273C2733275C3
:1040C000A275127682767267E2675268C268326EB3
:1040D000A26E126F826F2561730020301D71A2CE17
:1040E00082E686E48AE28EE012FE16FC1AFA1EF8D8
:1040F0002AF62EF432F236F03AEE3EEC42EA46E888
:1041000072E676E47AE27EE080108545B7070040EB
:1041100013850740EF103046AA8781CF8545B70742
:10412000004013850740EF10104CEF20307EEF3039
:104130004009010076443660A6601661866172729D
:10414000E2725273C2733275A2751276827672670A
:10415000E2675268C268326EA26E126F826F25618A
:10416000730020301D71A2CE82E686E48AE28EE0E2
:1041700012FE16FC1AFA1EF82AF62EF432F236F067
:104180003AEE3EEC42EA46E872E676E47AE27EE017
:1041900080108545B717004013850780EF10B03DAC
:1041A000AA8781CB8545B717004013850780EF109C
:1041B0009043010076443660A66016618661727293
:1041C000E2725273C2733275A2751276827672678A
:1041D000E2675268C268326EA26E126F826F25610A
:1041E000730020301D71A2CE82E686E48AE28EE062
:1041F00012FE16FC1AFA1EF82AF62EF432F236F0E7
:104200003AEE3EEC42EA46E872E676E47AE27EE096
:1042100080108545B7170040138507C0EF10B035F3
:10422000AA8781CB8545B7170040138507C0EF10DB
:10423000903B010076443660A6601661866172721A
:10424000E2725273C2733275A27512768276726709
:10425000E2675268C268326EA26E126F826F256189
:10426000730020301D71A2CE82E686E48AE28EE0E1
:1042700012FE16FC1AFA1EF82AF62EF432F236F066
:104280003AEE3EEC42EA46E872E676E47AE27EE016
:104290008010854537150040EF10F02DAA8791C793
:1042A000854537150040EF10103401007644366024
:1042B000A660166186617272E2725273C2733275C1
:1042C000A275127682767267E2675268C268326EB1
:1042D000A26E126F826F2561730020301D71A2CE15
:1042E00082E686E48AE28EE012FE16FC1AFA1EF8D6
:1042F0002AF62EF432F236F03AEE3EEC42EA46E886
:1043000072E676E47AE27EE080108545B7170040D9
:1043100013850740EF103026AA8781CB8545B71754
:10432000004013850740EF10102C010076443660E2
:10433000A660166186617272E2725273C273327540
:10434000A275127682767267E2675268C268326E30
:10435000A26E126F826F2561730020301D71A2CE94
:1043600082E686E48AE28EE012FE16FC1AFA1EF855
:104370002AF62EF432F236F03AEE3EEC42EA46E805
:1043800072E676E47AE27EE080108545B737014038
:1043900013850740EF10301EAA8781CB8545B737BC
:1043A000014013850740EF10102401007644366069
:1043B000A660166186617272E2725273C2733275C0
:1043C000A275127682767267E2675268C268326EB0
:1043D000A26E126F826F2561730020301D71A2CE14
:1043E00082E686E48AE28EE012FE16FC1AFA1EF8D5
:1043F0002AF62EF432F236F03AEE3EEC42EA46E885
:1044000072E676E47AE27EE080108545B757014097
:10441000138507C0EF103016AA8781CB8545B757A3
:104420000140138507C0EF10101C01007644366070
:10443000A660166186617272E2725273C27332753F
:10444000A275127682767267E2675268C268326E2F
:10445000A26E126F826F2561730020301D71A2CE93
:1044600082E686E48AE28EE012FE16FC1AFA1EF854
:104470002AF62EF432F236F03AEE3EEC42EA46E804
:1044800072E676E47AE27EE0801085453755014099
:10449000EF10700EAA8791C7854537550140EF1080
:1044A0009014010076443660A660166186617272CF
:1044B000E2725273C2733275A27512768276726797
:1044C000E2675268C268326EA26E126F826F256117
:1044D00073002030411122C600080100324441011E
:1044E00073002030411122C6000801A0411106C608
:1044F00022C40008B747950813850740EFE08F9066
:10450000EFE0FF8FEF20B058EF404023EFD07FD691
:10451000EF30A055EF40B01EEF207059EF20B036BD
:1045200001A001A001A001A001A001A001A001A083
:1045300001A001A001A001A001A001A001A001A073
:1045400001A001A001A001A001A001A001A001A063
:1045500001A001A001A001A001A001A001A001A053
:1045600001A001A001A001A001A001A001A001A043
:1045700001A001A001A001A001A001A001A001A033
:1045800001A001A001A001A001A001A001A001A023
:1045900001A001A001A001A001A001A001A001A013
:1045A00001A001A001A001A001A001A001A001A003
:1045B00001A001A001A001A001A001A001A001A0F3
:1045C00001A001A001A001A001A001A001A001A0E3
:1045D00001A001A001A001A001A001A001A001A0D3
:1045E00097D1FF1F9381018D17C10020130181A175
:1045F00017D500001305456E97C5FF1F938585A04D
:104600001386818363FAC5008322050023A0550029
:1046100011059105E3EAC5FE138581839385C1EFFA
:104620006377B500232005001105E36DB5FEFD425B
:10463000739002BCFD4273904280B7620000938287
:10464000820873A0023097C2FFFF9382229F93E2F9
:1046500032007390523097020000938262E97390A7
:10466000123473002030797122D60018232EA4FC56
:10467000232604FE232404FEB70701409387074046
:104680009C430327C4FDF98F2324F4FEB7070140A0
:1046900093870740D84B8327C4FDF98F81CB8327AD
:1046A00084FE89C785472326F4FE19A0232604FE2D
:1046B0008327C4FE3E85325445618280011122CE9B
:1046C00000102326A4FEB707014093870740032765
:1046D000C4FED8CB0100724405618280397122DEAC
:1046E00080002326A4FC2324B4FC232604FE2320DC
:1046F00004FE232404FE232E04FC232204FE232C88
:1047000004FC832784FC9C47BD8B2326F4FE83276F
:1047100084FC9C47C18B89CB832784FCDC43032723
:10472000C4FED98F2326F4FE832784FC83D7070099
:1047300093F7F70FF1CF8327C4FC9C432322F4FEA9
:10474000232404FE65A8832784FE0547B317F700DA
:10475000232EF4FC832784FC83D707003E8783271E
:10476000C4FDF98F2320F4FE032704FE8327C4FD34
:104770006311F708832784FE8A07232EF4FC83271E
:10478000C4FD3D47B317F700232CF4FC832784FDB9
:1047900093C7F7FF032744FEF98F2322F4FE8327F4
:1047A000C4FD0327C4FEB317F700032744FED98FC7
:1047B0002322F4FE832784FC984793078002631B1F
:1047C000F700832784FE05473317F7008327C4FCCF
:1047D000D8CB05A0832784FC984793078004631AED
:1047E000F700832784FE05473317F7008327C4FCAF
:1047F00098CB832784FE85072324F4FE032784FEB9
:104800009D47E3F2E7F48327C4FC032744FE98C3E3
:10481000832784FC03D707009307F00F63F1E70EAB
:104820008327C4FCDC432322F4FE232404FE75A862
:10483000832784FEA1070547B317F700232EF4FC56
:10484000832784FC83D707003E878327C4FDF98F25
:104850002320F4FE032704FE8327C4FD6312F70818
:10486000832784FE8A07232EF4FC8327C4FD3D475B
:10487000B317F700232CF4FC832784FD93C7F7FFBD
:10488000032744FEF98F2322F4FE8327C4FD032768
:10489000C4FEB317F700032744FED98F2322F4FE8A
:1048A000832784FC984793078002631BF7008327C4
:1048B00084FEA10705473317F7008327C4FCD8CB34
:1048C000832784FC984793078004631BF7008327A2
:1048D00084FEA10705473317F7008327C4FC98CB54
:1048E000832784FE85072324F4FE032784FE9D4747
:1048F000E3F0E7F48327C4FC032744FED8C3010098
:10490000725421618280011122CE00102326A4FE60
:10491000AE872322C4FE2315F4FE832744FE99C7E5
:104920000357A4FE8327C4FE98CB31A00357A4FEEF
:104930008327C4FED8CB010072440561828079715F
:1049400022D60018232EA4FC232CB4FC232404FE1E
:10495000232204FE232604FE232004FE8327C4FD15
:1049600063D80700B7070140DC4F2326F4FE31A0CF
:10497000B7070140DC432326F4FE8327C4FDC1832F
:10498000BD8B2320F4FE0327C4FDC167FD17F98FFB
:104990002324F4FE8327C4FD63D407080327C4FD42
:1049A000B70730007D8FB70730006314F702832705
:1049B00004FEC1070D47B317F7002322F4FE832737
:1049C00044FE93C7F7FF0327C4FEF98F2326F4FEA6
:1049D000C5A80327C4FDB7071000F98F95C3832727
:1049E00004FE0D47B317F7002322F4FE832744FE8D
:1049F00093C7F7FF0327C4FEF98F2326F4FEC9A04F
:104A00008327C4FDD5839207032784FEB317F700DD
:104A100093C7F7FF0327C4FEF98F2326F4FE4DA0AA
:104A20000327C4FDB70730007D8FB707300063153B
:104A3000F7020327C4FEB70700F1FD17F98F2326FD
:104A4000F4FEB7070140D443B7070140370700F130
:104A50007D17758FD8C3ADA00327C4FDB70710001D
:104A6000F98F8DCB832704FE0D47B317F700232260
:104A7000F4FE832744FE93C7F7FF0327C4FEF98F94
:104A80002326F4FE0327C4FEB707000FD98F232681
:104A9000F4FE3DA08327C4FDD5839207032784FE3F
:104AA000B317F70093C7F7FF0327C4FEF98F232638
:104AB000F4FE0327C4FEB707000FD98F2326F4FEA8
:104AC000832784FD91CF8327C4FDD58392070327D5
:104AD00084FEB317F7000327C4FED98F2326F4FE04
:104AE0008327C4FD63D80700B70701400327C4FE2E
:104AF000D8CF31A0B70701400327C4FED8C30100B7
:104B0000325445618280397122DE80002326A4FC64
:104B1000232204FE232604FE232004FE232E04FC6D
:104B2000232404FEB7170240DC43B18B2322F4FE9A
:104B3000032744FE91476303F702032744FEA1477E
:104B40006306F702832744FE639907148327C4FC96
:104B500037177A001307072098C389AA8327C4FC54
:104B600037177A001307072098C389A2B7170240A6
:104B7000D843B7073C00F98F2326F4FEB71702404D
:104B8000D843C167F98F2320F4FE8327C4FEC9836D
:104B900089072326F4FEB7F7FF1F9387C770984352
:104BA0009167F98F91EB0327C4FEC5476319F7049A
:104BB000C9472326F4FEA1A00327C4FE8947631535
:104BC000F700C9472326F4FE0327C4FEBD47631838
:104BD000F700B5472326F4FE85472324F4FE032778
:104BE000C4FEC1476315F700BD472326F4FE032723
:104BF000C4FEC5476315F700C1472326F4FE83278B
:104C000004FEA1E3B7470240938707809C43C18B12
:104C100089CF0327C4FEB7177A009387072033078D
:104C2000F7028327C4FC98C399A80327C4FEB717CB
:104C30003D00938707903307F7028327C4FC98C38E
:104C40003DA8B7170240D843B7070200F98F89CFB4
:104C50000327C4FEB7173D00938707903307F70279
:104C60008327C4FC98C321A80327C4FEB7177A0082
:104C7000938707203307F7028327C4FC98C30327D1
:104C800084FE85476313F7028327C4FC9C4313D734
:104C900017008327C4FC98C309A88327C4FC3717CF
:104CA0007A001307072098C311A00100B71702402C
:104CB000DC4393F7070F2322F4FE832744FE9183FE
:104CC0002322F4FEB707002013870702832744FE40
:104CD000BA9783C7070093F7F70F232EF4FC8327B7
:104CE000C4FC98438327C4FD3357F7008327C4FCD3
:104CF000D8C3B7170240DC4393F707702322F4FEB2
:104D0000832744FEA1832322F4FEB70700201387E4
:104D10000702832744FEBA9783C7070093F7F70F6C
:104D2000232EF4FC8327C4FCD8438327C4FD3357C8
:104D3000F7008327C4FC98C7B7170240D843916790
:104D400093870780F98F2322F4FE832744FEAD83E7
:104D50002322F4FEB707002013870702832744FEAF
:104D6000BA9783C7070093F7F70F232EF4FC832726
:104D7000C4FCD8438327C4FD3357F7008327C4FC02
:104D8000D8C7B7170240D843B167F98F2322F4FE82
:104D9000832744FEB9832322F4FE138741818327AE
:104DA00044FEBA9783C7070093F7F70F232EF4FC4E
:104DB0008327C4FCD8478327C4FD3357F7028327D2
:104DC000C4FC98CB0100725421618280011122CE73
:104DD00000102326A4FE2324B4FE832784FE99CB4F
:104DE000B7170240944FB71702400327C4FE558FF0
:104DF00098CF21A8B7170240944F8327C4FE13C74A
:104E0000F7FFB7170240758F98CF01007244056114
:104E10008280011122CE00102326A4FE2324B4FE9A
:104E2000832784FE99CBB7170240D44FB7170240AF
:104E30000327C4FE558FD8CF21A8B7170240D44FFF
:104E40008327C4FE13C7F7FFB7170240758FD8CF6B
:104E50000100724405618280011122CE00102326D8
:104E6000A4FE2324B4FE832784FE99CBB717024007
:104E7000D447B71702400327C4FE558FD8C721A8CF
:104E8000B7170240D4478327C4FE13C7F7FFB717ED
:104E90000240758FD8C701007244056182800111FC
:104EA00022CE00102326A4FE2324B4FE832784FEF2
:104EB00099CBB7170240944BB71702400327C4FEA3
:104EC000558F98CB21A8B7170240944B8327C4FE77
:104ED00013C7F7FFB7170240758F98CB01007244D4
:104EE00005618280011106CE22CC00102326A4FE8B
:104EF0000327C4FEB73701406319F70085450565F0
:104F0000A13F81450565893F35A80327C4FEB74702
:104F10000040938707806319F70085451165413785
:104F200081451165AD3F39A80327C4FEB74700404E
:104F3000938707C06318F700854521658D37814544
:104F40002165B13F0100F2406244056182807971C0
:104F500022D60018232EA4FC232CB4FC231704FE15
:104F60008327C4FD83D707002317F4FE0357E4FE0D
:104F70008D6793870704F98F2317F4FE832784FD39
:104F800003D70700832784FD83D72700D98F139782
:104F900007014183832784FD83D74700D98F139767
:104FA00007014183832784FD83D76700D98F139737
:104FB00007014183832784FD83D78700D98F139707
:104FC00007014183832784FD83D7A700D98F1397D7
:104FD00007014183832784FD83D7C700D98F1397A7
:104FE00007014183832784FD83D7E700D98F139777
:104FF000070141838357E4FED98F2317F4FE8327EB
:10500000C4FD0357E4FE2390E7008327C4FD83D744
:10501000C701139707014183FD779387F77FF98FC6
:105020001397070141838327C4FD239EE70083274D
:1050300084FD03D707018327C4FD2398E7000100FF
:10504000325445618280011122CE00102326A4FE35
:105050002324B4FE832784FE8DC38327C4FE83D715
:105060000700C207C18393E7070413970701418331
:105070008327C4FE2390E70005A08327C4FE83D7BF
:105080000700C207C18393F7F7FB1397070141831A
:105090008327C4FE2390E7000100724405618280EB
:1050A000797122D60018232EA4FC232CB4FC2317DC
:1050B00004FE8327C4FD83D707002317F4FE0327CC
:1050C000C4FDB7370140938707C06306F70603277F
:1050D000C4FDB70700406300F7060327C4FDB70708
:1050E0000040938707406308F7040327C4FDB71700
:1050F0000040938707806300F7040327C4FDB717B8
:105100000040938707C06308F7020327C4FDB73741
:105110000140938707406300F7020327C4FDB75798
:105120000140938707C06308F7000327C4FDB75702
:1051300001406311F7028357E4FE93F7F7F8231752
:10514000F4FE832784FD03D727008357E4FED98F1D
:105150002317F4FE0327C4FDB71700406309F702C5
:105160000327C4FDB7170040938707406301F70288
:105170008357E4FE93F7F7CF2317F4FE832784FDCC
:1051800003D767008357E4FED98F2317F4FE8327E4
:10519000C4FD0357E4FE2390E700832784FD03D773
:1051A00047008327C4FD2396E702832784FD03D7A6
:1051B00007008327C4FD2394E7020327C4FDB73704
:1051C0000140938707C06308F7020327C4FDB73780
:1051D0000140938707406300F7020327C4FDB757D8
:1051E0000140938707C06308F7000327C4FDB75742
:1051F0000140631DF700832784FD83C78700139751
:10520000070141838327C4FD2398E7028327C4FD58
:105210000547239AE7000100325445618280797185
:1052200022D60018232EA4FC232CB4FC231504FE44
:10523000231704FE231604FE8327C4FD83D7070229
:10524000C207C183F99B1397070141838327C4FDDC
:105250002390E7028327C4FD83D707022317F4FEB8
:105260008327C4FD83D747002316F4FE8327C4FD9C
:1052700083D787012315F4FE8357A4FE93F7F7F82D
:105280002315F4FE8357A4FEF19B2315F4FE832718
:1052900084FD03D707008357A4FED98F2315F4FE9E
:1052A0008357E4FEF59B2317F4FE832784FD03D781
:1052B00087008357E4FED98F2317F4FE832784FDEC
:1052C00003D727008357E4FED98F2317F4FE032763
:1052D000C4FDB7370140938707C06308F70203276F
:1052E000C4FDB7370140938707406300F7020327E7
:1052F000C4FDB7570140938707C06308F700032731
:10530000C4FDB7570140631CF7068357E4FEDD9BDD
:105310002317F4FE832784FD03D7A7008357E4FEF9
:10532000D98F2317F4FE8357E4FEED9B2317F4FE79
:10533000832784FD03D747008357E4FED98F2317C3
:10534000F4FE8357C4FE93F7F7EF2316F4FE83575A
:10535000C4FE93F7F7DF2316F4FE832784FD03D7FB
:10536000C7008357C4FED98F2316F4FE832784FD1C
:1053700003D7E7008357C4FED98F2316F4FE832793
:10538000C4FD0357C4FE2392E7008327C4FD0357DF
:10539000A4FE239CE700832784FD03D767008327AF
:1053A000C4FD239AE7028327C4FD0357E4FE23903C
:1053B000E7020100325445618280797122D60018DB
:1053C000232EA4FC232CB4FC231504FE231704FE77
:1053D000231604FE8327C4FD83D70702C207C183B7
:1053E000BD9B1397070141838327C4FD2390E702E8
:1053F0008327C4FD83D707022317F4FE8327C4FD48
:1054000083D747002316F4FE8327C4FD83D7870183
:105410002315F4FE0357A4FEE577FD17F98F231536
:10542000F4FE8357A4FE93F7F7CF2315F4FE8327EA
:1054300084FD83D70700A207139707014183835791
:10544000A4FED98F2315F4FE8357E4FE93F7F7FDEE
:105450002317F4FE832784FD83D7870092071397D1
:10546000070141838357E4FED98F2317F4FE832776
:1054700084FD83D727009207139707014183835741
:10548000E4FED98F2317F4FE0327C4FDB73701408C
:10549000938707C06308F7020327C4FDB7370140AD
:1054A000938707406300F7020327C4FDB757014005
:1054B000938707C06308F7000327C4FDB75701406F
:1054C0006310F70A8357E4FE93F7F7F72317F4FE08
:1054D000832784FD83D7A700920713970701418391
:1054E0008357E4FED98F2317F4FE8357E4FE93F726
:1054F000F7FB2317F4FE832784FD83D74700920729
:105500001397070141838357E4FED98F2317F4FED5
:105510008357C4FE93F7F7BF2316F4FE0357C4FE68
:10552000FD779387F77FF98F2316F4FE832784FD99
:1055300083D7C7008A071397070141838357C4FEA7
:10554000D98F2316F4FE832784FD83D7E7008A07CB
:105550001397070141838357C4FED98F2316F4FEA6
:105560008327C4FD0357C4FE2392E7008327C4FDAD
:105570000357A4FE239CE700832784FD03D767001D
:105580008327C4FD239CE7028327C4FD0357E4FE61
:105590002390E7020100325445618280797122D65E
:1055A0000018232EA4FC232CB4FC231504FE23177F
:1055B00004FE231604FE8327C4FD83D70702C20717
:1055C000C18393F7F7EF1397070141838327C4FD46
:1055D0002390E7028327C4FD83D707022317F4FE35
:1055E0008327C4FD83D747002316F4FE8327C4FD19
:1055F00083D7C7012315F4FE8357A4FE93F7F7F86A
:105600002315F4FE8357A4FEF19B2315F4FE832794
:1056100084FD03D707008357A4FED98F2315F4FE1A
:105620008357E4FE93F7F7DF2317F4FE832784FD07
:1056300083D78700A2071397070141838357E4FEAE
:10564000D98F2317F4FE832784FD83D72700A20771
:105650001397070141838357E4FED98F2317F4FE84
:105660000327C4FDB7370140938707C06308F702DB
:105670000327C4FDB7370140938707406300F70253
:105680000327C4FDB7570140938707C06308F7009D
:105690000327C4FDB75701406312F70A0357E4FE1E
:1056A000FD779387F77FF98F2317F4FE832784FD17
:1056B00083D7A700A2071397070141838357E4FE0E
:1056C000D98F2317F4FE8357E4FE93F7F7BF231710
:1056D000F4FE832784FD83D74700A20713970701B1
:1056E00041838357E4FED98F2317F4FE0357C4FE8A
:1056F000FD77FD17F98F2316F4FE0357C4FEF977E3
:10570000FD17F98F2316F4FE832784FD83D7C70086
:1057100092071397070141838357C4FED98F23163D
:10572000F4FE832784FD83D7E700920713970701D0
:1057300041838357C4FED98F2316F4FE8327C4FD0B
:105740000357C4FE2392E7008327C4FD0357A4FE3A
:10575000239EE700832784FD03D767008327C4FDCA
:10576000239EE7028327C4FD0357E4FE2390E7024C
:105770000100325445618280797122D60018232EAF
:10578000A4FC232CB4FC231604FE231504FE2317CB
:1057900004FE8327C4FD83D70702139707014183C3
:1057A000FD77FD17F98F1397070141838327C4FD08
:1057B0002390E7028327C4FD83D707022315F4FE55
:1057C0008327C4FD83D747002317F4FE8327C4FD36
:1057D00083D7C7012316F4FE0357C4FEE577FD17F0
:1057E000F98F2316F4FE8357C4FE93F7F7CF2316E1
:1057F000F4FE832784FD83D70700A20713970701D0
:1058000041838357C4FED98F2316F4FE0357A4FEA9
:10581000F977FD17F98F2315F4FE832784FD83D7CD
:105820008700B2071397070141838357A4FED98FDE
:105830002315F4FE832784FD83D72700B20713972F
:10584000070141838357A4FED98F2315F4FE032754
:10585000C4FDB7370140938707C06308F7020327E9
:10586000C4FDB7370140938707406300F702032761
:10587000C4FDB7570140938707C06308F7000327AB
:10588000C4FDB75701406316F7020357E4FEF177F2
:10589000FD17F98F2317F4FE832784FD83D7C700F4
:1058A0009A071397070141838357E4FED98F231783
:1058B000F4FE8327C4FD0357E4FE2392E700832709
:1058C000C4FD0357C4FE239EE700832784FD03D74E
:1058D00067008327C4FD2390E7048327C4FD035793
:1058E000A4FE2390E7020100325445618280011139
:1058F00022CE00102326A4FE8327C4FE7D572392C8
:10590000E7008327C4FE239007008327C4FE239368
:1059100007008327C4FE239107008327C4FE238446
:1059200007000100724405618280011122CE00103F
:105930002326A4FE2324B4FE832784FE8DC383275D
:10594000C4FE83D70700C207C18393E717001397EC
:10595000070141838327C4FE2390E70039A88327EA
:10596000C4FE83D70700C207C183F99B13970701C1
:1059700041838327C4FE2390E70001007244056140
:105980008280011122CE00102326A4FE2324B4FE1F
:10599000832784FE95C38327C4FE83D747041397C8
:1059A00007014183E177D98F13970701418383274B
:1059B000C4FE2392E70415A08327C4FE83D74704BF
:1059C000139707014183A167FD17F98F139707010B
:1059D00041838327C4FE2392E704010072440561DA
:1059E0008280011122CE00102326A4FEAE8723223E
:1059F000C4FE2315F4FE832744FE9DC38327C4FE03
:105A000083D7C7001397070141838357A4FED98F1B
:105A10001397070141838327C4FE2396E70035A02F
:105A20008327C4FE83D7C700139707014183835799
:105A3000A4FE93C7F7FFC207C183F98F139707012D
:105A400041838327C4FE2396E70001007244056169
:105A50008280011106CE22CC00102326A4FEAE8740
:105A60002315F4FE8357A4FEBE850325C4FE2D2016
:105A70008327C4FE83D78700C207C18393E77700DB
:105A80001397070141838327C4FE2394E700010095
:105A9000F240624405618280797122D60018232E7B
:105AA000A4FCAE87231DF4FC231704FE8327C4FD4A
:105AB00083D787002317F4FE8357E4FE93F7F7F8A4
:105AC0002317F4FE0357E4FE8357A4FDD98F231751
:105AD000F4FE8327C4FD0357E4FE2394E70001008E
