:100000006F70901213000000130000001300000036
:100010001300000013000000130000001300000094
:100020001300000013000000130000001300000084
:08003000130000007300100032
:1000380000000000000000008E7700009E7700009E
:10004800000000006E7800000000000000000000C2
:1000580070780000727800000000000000000000C6
:1000680074780000000000007678000000000000AE
:10007800787800007A7800007C7800007E780000AC
:100088008078000082780000E86C0000F46D0000C1
:10009800686E0000DC6E0000506F00008E78000073
:1000A800907800009278000094780000967800001C
:1000B800987800009A7800009C7800009E780000EC
:1000C800A0780000A2780000A4780000C46F0000A7
:1000D800A878000080710000AC780000AE780000BD
:1000E800147200008C7200001E740000B6780000C4
:1000F800B8780000BA780000BC780000BE7800002C
:10010800C07800003A680000BE680000426900003C
:100118009C700000CA780000CC780000CE780000FF
:1001280016760000D2780000D4780000D678000057
:10013800D8780000DA7800009E740000DE780000AD
:10014800C66900004A6A00001E7500009675000026
:10015800E8780000EA780000EC780000EE7800000B
:10016800F0780000F2780000F4780000F6780000DB
:10017800F8780000FA780000FC780000D09C0000B5
:100188000079000002790000586C0000CC6A000079
:10019800506B0000D86B00000C79000096760000C8
:1001A8001079000012790000147900001677000019
:1001B800187900001A7900001C7900001E790000E7
:1001C80020790000227900002479000026790000B7
:1001D8000000000000000000000000000000000017
:1001E8000000000000000000000000000000000007
:0801F8000000000000000000FF
:100200003D432A876373C3029377F700BDEFADE5E3
:10021000937606FF3D8ABA960CC34CC30CC74CC7F5
:100220004107E36BD7FE11E28280B306C3408A0622
:100230009702000096966780A6002307B700A306E2
:10024000B7002306B700A305B7002305B700A30432
:10025000B7002304B700A303B7002303B700A3022A
:10026000B7002302B700A301B7002301B700A30022
:10027000B7002300B700828093F5F50F93968500B1
:10028000D58D93960501D58D61B79396270097027A
:10029000000096968682E78086FA9680C1171D8FA9
:1002A0003E96E374C3F8A5B7797106D622D4001838
:1002B000232EA4FC8327C4FDB18393F7F70FBD8BD6
:1002C000A307F4FE8327C4FDA18393F7F70FBD8B2B
:1002D0002307F4FE0347F4FEB70700200A079387BD
:1002E000876CBA979C430347E4FE91460546BA855E
:1002F0003E85EF7040700347F4FEB70700200A0701
:100300009387876CBA979C4385453E85EF70606AFA
:1003100001000347F4FEB70700200A079387876CA4
:10032000BA979C4389453E85EF707011AA87F5D333
:100330000347F4FEB70700200A079387876CBA9734
:100340009C43FC478346F4FE138781893697034715
:100350000700B3D7E700C207C1833E85B2502254DD
:1003600045618280797106D622D40018232EA4FC20
:10037000AE87A30DF4FC0347B4FD13060005B7F7E1
:100380000100938507CD3A85EF50E016232404FE43
:10039000A30704FE05A00325C4FD3937AA873E87BD
:1003A000832784FEBA972324F4FE8347F4FE85074F
:1003B000A307F4FE0347F4FE8347B4FDE36DF7FCA7
:1003C0008347B4FD032784FEB357F7022324F4FECA
:1003D000832784FEC207C1833E85B2502254456103
:1003E0008280011122CE00102326A4FE2324B4FE15
:1003F000B1A0B7F700E023A00700B7F700E0814500
:1004000001468CC7D0C7B7F700E0054690C301008E
:10041000B7F700E003A8C7009C470326C4FEB286D6
:100420000147C2853A86636BB600C2853A86E3917E
:10043000C5FE3E86B68763E3C700D9BF832784FE27
:100440001386F7FF2324C4FECDF701007244056133
:100450008280797106D622D40018232EA4FC23179B
:1004600004FE231604FE0327C4FDA54763E1E70C41
:100470008327C4FD13972700B7070200938747B966
:10048000BA979C438287B7370140938707C083D7C9
:100490004702C207C1832317F4FE69A8B7070040CB
:1004A00083D74702C207C1832317F4FE61A0B707B1
:1004B00000409387074083D74702C207C1832317B1
:1004C000F4FE8DA8B71700409387078083D74702B3
:1004D000C207C1832317F4FEB1A8B7170040938762
:1004E00007C083D74702C207C1832317F4FE99A030
:1004F000B73701409387074083D74702C207C183BC
:100500002317F4FE05A8B7570140938707C083D788
:100510004702C207C1832317F4FE29A8B757014039
:1005200083D74702C207C1832317F4FE21A02317F4
:1005300004FE0100B7070020138707008327C4FDCE
:10054000BA9783C7070013F7F70F9307F00F6317E6
:10055000F7008357E4FE2316F4FE35A8B707002002
:10056000138707008327C4FDBA9783C7070093F753
:10057000F70F3E85EF004077AA8791EB8357E4FEA3
:10058000B307F040C207C1832316F4FE29A08357A6
:10059000E4FE2316F4FE8317C4FE3E85B2502254B7
:1005A00045618280011122CE00102326A4FE03277C
:1005B000C4FEA54763E1E7088327C4FE139727001D
:1005C000B70702009387C7BBBA979C438287B737A8
:1005D0000140938707C023920702B9A8B7070040DC
:1005E0002392070291A8B707004093870740239200
:1005F000070299A0B717004093870780239207024C
:1006000025A8B7170040938707C0239207022DA0A3
:10061000B7370140938707402392070231A8B757A5
:100620000140938707C02392070239A0B7570140C2
:100630002392070211A0010001007244056182802B
:10064000397106DE22DC80002326A4FC2324B4FCBE
:100650002322C4FC232604FE91450325C4FCEF207D
:10066000602CAA873E871306100DB7F7010093850B
:10067000C7D23A85EF4030688327C4FC1397C70080
:10068000832784FC7D8F8327C4FCB207B307F74020
:1006900093B7170093F7F70F3E871306200DB7F7B0
:1006A00001009385C7D23A85EF40F0648327C4FCEC
:1006B0001397C700832744FC7D8F8327C4FCB207B0
:1006C000B307F74093B7170093F7F70F3E8713066A
:1006D000300DB7F701009385C7D23A85EF40B0617E
:1006E0000325C4FCEF20602A832784FC93F7F70FCF
:1006F00093068004014681453E85052D832744FCF1
:1007000093F7F70F93068004014681453E85312D0E
:10071000832784FC13F7F70FB707002093860700A1
:100720008327C4FCB6972380E7000327C4FCA547B2
:1007300063E1E7088327C4FC13972700B70702008B
:10074000938747BEBA979C438287B7370140938708
:1007500007C02324F4FE8DA0B70700402324F4FE35
:10076000A1A8B7070040938707402324F4FEA9A05F
:10077000B7170040938707802324F4FE35A8B717E6
:100780000040938707C02324F4FE3DA0B737014003
:10079000938707402324F4FE05A0B75701409387B1
:1007A00007C02324F4FE09A8B75701402324F4FE10
:1007B00021A085472326F4FE85450545EF70D065C9
:1007C000832784FC13D787008D47631AF70085457C
:1007D000B70716001385070CEF70301BE5A88327B9
:1007E00084FC13D78700C547631AF7008545B70710
:1007F000180013850710EF705019E9A8832784FCAF
:1008000013D7870093072002631AF7008545B717AF
:100810001A0013850780EF7050176DA8832784FC9A
:1008200013D7870093073002631AF7008545B7177F
:100830001A00138507C0EF70501569A8832784FC40
:1008400013D78700930710036317F70085450565E5
:10085000EF70B01341A0832784FC13D78700930760
:100860001007631AF7008545B70700801385470016
:10087000EF70B01185A0832784FC13D787009307FE
:100880003008631AF7008545B70713801385070101
:10089000EF70B00F81A0832784FC13D787009307E4
:1008A0001009631AF7008545B707158013850702FD
:1008B000EF70B00D05A0832784FC13D78700930742
:1008C00030096319F7008545B707158013850704BC
:1008D000EF70B00B8327C4FEA9EB232E04FC23206A
:1008E00004FE231204FE9307C4FD3E85EF80B0058D
:1008F000231E04FCFD572310F4FE231104FE231FC6
:1009000004FC230204FE9307C4FDBE85032584FE78
:10091000EF70907E93050006032584FEEF80F018AB
:100920008545032584FEEF80D0050100F250625416
:1009300021618280797106D622D40018232EA4FC6E
:10094000232CB4FC8327C4FD93B7070493F7F70F58
:100950003E8713067003B7F701009385C7D83A8521
:10096000EF407039832784FD93B7470093F7F70F63
:100970003E8713068003B7F701009385C7D83A85F1
:10098000EF407037A30704FE0327C4FDA167BA97A1
:1009900013972700832784FDBA97AA072324F4FE20
:1009A000231604FE35A00357C4FE832784FEBA979E
:1009B0009843B7E739E3938797336306F700854792
:1009C000A307F4FE21A88357C4FE91072316F4FE63
:1009D0000357C4FE9307F03FE3F7E7FC8347F4FEB9
:1009E0003E85B250225445618280797106D622D468
:1009F0000018232EA4FC232CB4FC8327C4FD93B73A
:100A0000070493F7F70F3E8713064005B7F7010079
:100A10009385C7D83A85EF40102E832784FD93B77E
:100A2000470093F7F70F3E8713065005B7F701000D
:100A30009385C7D83A85EF40102CA30704FE0327FF
:100A4000C4FDA167BA9713972700832784FDBA973F
:100A5000AA072324F4FEEF70802913054003EF70EA
:100A6000C03F032584FEEF70002D2A87B7070020C2
:100A700023A8E76C13050002EF70203EEF70C02939
:100A8000B707002003A7076D91476305F700854767
:100A9000A307F4FE8347F4FE3E85B250225445611D
:100AA0008280797106D622D40018232EA4FC232C30
:100AB000B4FC8327C4FD93B7070493F7F70F3E8771
:100AC0001306800BB7F701009385C7D83A85EF402E
:100AD0009022832784FD93B7470093F7F70F3E8753
:100AE0001306900BB7F701009385C7D83A85EF40FE
:100AF00090200327C4FDA167BA9713972700832787
:100B000084FDBA97AA072324F4FE231704FE3DA010
:100B10008357E4FE8A073E87832784FEBA9783566D
:100B2000E4FE9843B71700208A069387C78BB697D1
:100B300098C38357E4FE85072317F4FE0357E4FEAA
:100B40009307F00FE3F6E7FC0100B2502254456131
:100B50008280797106D622D40018232EA4FC232C7F
:100B6000B4FC8327C4FD93B7070493F7F70F3E87C0
:100B70001306D00CB7F701009385C7D83A85EF402C
:100B80009017832784FD93B7470093F7F70F3E87AD
:100B90001306E00CB7F701009385C7D83A85EF40FC
:100BA0009015A30704FE232404FE231304FE032749
:100BB000C4FDA167BA9713972700832784FDBA97CE
:100BC000AA072324F4FE832584FD0325C4FD9D3359
:100BD000AA8791C7832584FD0325C4FD3935EF70AD
:100BE0000011A9A0035764FEB71700200A079387D6
:100BF000C78BBA979C43BE85032584FEEF70001B0C
:100C00002A8723A6E18003A7C18091476306F700E6
:100C10008547A307F4FE0DA0835764FE85072313C1
:100C2000F4FE832784FE91072324F4FE035764FE19
:100C30009307F00FE3F8E7FAEF70000E8347F4FE36
:100C40003E85B250225445618280411106C622C4BD
:100C50000008130600409305F00FB7170020138516
:100C6000C78BEFF0EFD90100B240224441018280EE
:100C7000011122CE00102326A4FEAE87A305F4FEA8
:100C80008347B4FE85CB8327C4FEBD8B0547B317CE
:100C9000F70093960701C1828327C4FE13D757003C
:100CA000B70700200A079387C700BA979C43368787
:100CB00098CB3DA08327C4FEBD8B0547B317F70033
:100CC00093960701C1828327C4FE13D75700B70745
:100CD00000200A079387C700BA979C433687D8CB72
:100CE0000100724405618280011122CE001023268A
:100CF000A4FE8327C4FE958313F77700B70700206F
:100D00000A079387C700BA979C439C470327C4FEF2
:100D10007D8B85463397E600F98FB337F00093F764
:100D2000F70F3E85724405618280797106D622D420
:100D30000018232EA4FC232CB4FCB2872328D4FC57
:100D4000A30BF4FC232004FE232204FE232404FE30
:100D50008327C4FD958393F7F70F9D8BA307F4FEBC
:100D60008327C4FD93F7F70FFD8B2307F4FE83471A
:100D7000F4FE91E785451145EF70100A91A80347ED
:100D8000F4FE85476317F70085452145EF70D008CD
:100D900081A00347F4FE89476317F7008545414565
:100DA000EF70900735A00347F4FE8D476318F700F6
:100DB000854513050002EF70300619A80347F4FEBD
:100DC00091476317F700854513050004EF70D004C1
:100DD0008347E4FE0547B317F700C207C18323101A
:100DE000F4FE032784FD85476317F702832704FD7C
:100DF000C207C183A183C207C18389E78D4723222C
:100E0000F4FE11A8832704FDC207C183A183C20792
:100E1000C1832322F4FE832704FDC207C18393F715
:100E2000F70F2324F4FE0347F4FEB70700200A0758
:100E30009387C700BA979C43130704FEBA853E8583
:100E4000EF70800E032784FD85476319F70203477F
:100E5000F4FEB70700200A079387C700BA979443A8
:100E60008347E4FE0547B317F700C207C183034772
:100E700074FD3A86BE853685EF70A02D0100B25014
:100E80002254456182801D7186CEA2CC801023261B
:100E9000A4FA2324B4FA85450325C4FAEF10902858
:100EA000AA873E871306D006B7F70100938507E1AE
:100EB0003A85EF404064832784FAB337F00093F714
:100EC000F70F3E871306F006B7F70100938507E199
:100ED0003A85EF404062832784FABD832315F4FEF0
:100EE0008357A4FE85073E87832784FAB3D7E7029A
:100EF0002314F4FE0325C4FAEF103029B73701405C
:100F0000938707C02326F4FE0327C4FAA54763EDA1
:100F1000E7088327C4FA13972700B70702009387CF
:100F2000C7C0BA979C438287B7370140938707C0F1
:100F30002326F4FE95A8B70700402326F4FEADA0B3
:100F4000B7070040938707402326F4FEB1A8B717E0
:100F50000040938707802326F4FEB9A0B71700400E
:100F6000938707C02326F4FE81A0B71700402326ED
:100F7000F4FE1DA8B7170040938707402326F4FE10
:100F800025A0B7370140938707402326F4FE29A800
:100F9000B7570140938707C02326F4FE31A0B75707
:100FA00001402326F4FE0100232E04FC232004FE2E
:100FB000231204FE835784FE2310F4FE8357A4FEFD
:100FC000231EF4FC231104FE231F04FC230204FE51
:100FD0009307C4FDBE850325C4FEEF70F0110546DE
:100FE00085450325C4FEEF80402585450325C4FEC5
:100FF000EF80E064B7F7010003AE87DE138787DE7A
:1010000003234700138787DE83288700138787DE43
:101010000328C700138787DE084B138787DE4C4BF6
:10102000138787DE104F138787DE544F138787DEC1
:101030001853938787DEDC53232AC4FB232C64FADE
:10104000232E14FB232004FD2322A4FC2324B4FC20
:101050002326C4FC2328D4FC232AE4FC232CF4FC00
:101060008327C4FA93F7F70F8A07130704FFBA9789
:1010700083A747FC8D453E85EF5020728327C4FA35
:101080008A07130704FFBA9783A747FC3E85EF50F2
:10109000006D85450325C4FEEF80A00E0100F640DB
:1010A000664425618280797106D622D40018232EE9
:1010B000A4FC232CB4FC032784FD89679387177154
:1010C000B337F70093F7F70F3E8713065003B7F7D0
:1010D00001009385C7E63A85EF40E041B73701400C
:1010E000938707C02326F4FE8327C4FDC183BD8BED
:1010F0002547636FF70613972700B707020093870A
:1011000047C3BA979C438287B7370140938707C08C
:101110002326F4FEB1A8B70700402326F4FE89A8D1
:10112000B7070040938707402326F4FE91A0B71726
:101130000040938707802326F4FE1DA8B7170040C0
:10114000938707C02326F4FE25A0B7370140938775
:1011500007402326F4FE29A8B7570140938707C00C
:101160002326F4FE31A0B75701402326F4FE0100E8
:101170008327C4FE83D7C7022315F4FE0357A4FEBA
:10118000832784FD3307F702896793870771B35775
:10119000F7022314F4FE8327C4FDA1838D8B81EB1A
:1011A0008327C4FE035784FE239AE702A9A8832756
:1011B000C4FDA18313F7370085476319F700832720
:1011C000C4FE035784FE239CE70235A88327C4FD91
:1011D000A18313F7370089476319F7008327C4FEFB
:1011E000035784FE239EE70239A88327C4FDA18309
:1011F00013F737008D476318F7008327C4FE0357A2
:1012000084FE2390E7040100B2502254456182809D
:101210005D7186C6A2C48008232EA4FA232CB4FADA
:10122000232AC4FA8327C4FBC1838D453E85EF1072
:10123000606FAA873E871306D00AB7F7010093852F
:10124000C7E63A85EF40202B032744FB8967938745
:101250001771B337F70093F7F70F3E871306F00ABD
:10126000B7F701009385C7E63A85EF40C028232EE3
:1012700004FC232004FE231204FE232604FC23285E
:1012800004FC232A04FC232C04FC231504FE8327DE
:10129000C4FBC183BD8B3E85EF10206F8327C4FB49
:1012A00093F7F70F93068031014685453E85B53C9F
:1012B00085450545EF704036B7370140938707C035
:1012C0002326F4FE8327C4FBC183BD8B2547636FB0
:1012D000F70613972700B70702009387C7C5BA9789
:1012E0009C438287B7370140938707C02326F4FECB
:1012F000B1A8B70700402326F4FE89A8B70700402D
:10130000938707402326F4FE91A0B71700409387E8
:1013100007802326F4FE1DA8B7170040938707C057
:101320002326F4FE25A0B7370140938707402326E4
:10133000F4FE29A8B7570140938707C02326F4FE7F
:1013400031A0B75701402326F4FE01008327C4FBD8
:1013500013D7C7008D47631AF7008545B7071600F6
:101360001385070CEF60706215AA8327C4FB13D79F
:10137000C700C547631AF7008545B70718001385EE
:101380000710EF60906019AA8327C4FB13D7C7002A
:10139000C947631AF7008545B7071800138507206A
:1013A000EF60B05EE5A88327C4FB13D7C700CD4725
:1013B000631AF7008545B707180013850730EF60FB
:1013C000D05CE9A88327C4FB13D7C700930720028A
:1013D000631AF7008545B7171A0013850780EF6079
:1013E000D05A6DA88327C4FB13D7C70093073002D8
:1013F000631AF7008545B7171A00138507C0EF6019
:10140000D05869A88327C4FB13D7C70093071003DC
:101410006317F70085450565EF60305741A08327C6
:10142000C4FB13D7C70093071007631AF70085455D
:10143000B707008013854700EF60305585A08327EC
:10144000C4FB13D7C70093073008631AF70085451C
:10145000B707138013850701EF60305381A08327FE
:10146000C4FB13D7C70093071009631AF70085451B
:10147000B707158013850702EF60305105A0832759
:10148000C4FB13D7C700930730096319F7008545DC
:10149000B707158013850704EF60304F03A78181DC
:1014A000832784FBB357F702C1832315F4FE03A7F8
:1014B00081818357A4FE8507BE86832784FBB3877B
:1014C000F602B357F7022314F4FE035784FE832772
:1014D00044FB3307F702896793870771B357F70215
:1014E0002313F4FE835784FEFD17C207C183231024
:1014F000F4FE8357A4FE231EF4FC231104FE231FD5
:1015000004FC230204FE9307C4FDBE850325C4FE2C
:10151000EF70803E930700072316F4FC85472317DE
:10152000F4FC231804FC835764FE2319F4FC894758
:10153000231AF4FC8947231BF4FC231C04FC231D01
:1015400004FC8327C4FBA1838D8B9DE39307C4FC1C
:10155000BE850325C4FEEF700052A1450325C4FEDD
:10156000EF70F05D91450325C4FEEF70107245A049
:101570008327C4FBA18313F7370085476315F70260
:101580009307C4FCBE850325C4FEEF708068A145A7
:101590000325C4FEEF70705F930500400325C4FE71
:1015A000EF707073ADA08327C4FBA18313F73700DE
:1015B00089476314F7029307C4FCBE850325C4FE64
:1015C000EF705003A1450325C4FEEF70B061914553
:1015D0000325C4FEEF7090751DA88327C4FBA1836B
:1015E00013F737008D476314F7029307C4FCBE85D9
:1015F0000325C4FEEF70D01DA1450325C4FEEF7086
:101600003063930500400325C4FEEF70F0768545F6
:101610000325C4FEEF70703C85450325C4FEEF70C2
:1016200050360100B640264461618280797106D649
:1016300022D40018232EA4FC8327C4FDB337F00066
:1016400093F7F70F3E8713061004B7F70100938551
:1016500087EC3A85EF30306A8327C4FD9C43BD8B0D
:101660000547B317F70093960701C1828327C4FD8E
:101670009C4313D75700B70700200A079387C7007A
:10168000BA979C43368798CB8327C4FDDC43BD8B38
:101690000547B317F70093960701C1828327C4FD5E
:1016A000DC4313D75700B70700200A079387C7000A
:1016B000BA979C43368798CB8327C4FDDC47232603
:1016C000F4FE01008327C4FE1387F7FF2326E4FE00
:1016D000F5FB8327C4FDDC43BD8B0547B317F7003B
:1016E00093960701C1828327C4FDDC4313D75700BB
:1016F000B70700200A079387C700BA979C4336872D
:10170000D8CB8327C4FDDC472324F4FE01008327C4
:1017100084FE1387F7FF2324E4FEF5FB8327C4FD33
:101720009C43BD8B0547B317F70093960701C18211
:101730008327C4FD9C4313D75700B70700200A072F
:101740009387C700BA979C433687D8CB0100B25025
:10175000225445618280797106D622D40018232E46
:10176000A4FC8327C4FDB337F00093F7F70F3E873F
:1017700013064005B7F70100938587EC3A85EF30F3
:1017800090578327C4FDDC43BD8B0547B317F70093
:1017900093960701C1828327C4FDDC4313D757000A
:1017A000B70700200A079387C700BA979C4336877C
:1017B000D8CB8327C4FD9C43BD8B0547B317F700E7
:1017C00093960701C1828327C4FD9C4313D757001A
:1017D000B70700200A079387C700BA979C4336874C
:1017E000D8CB8327C4FDDC472326F4FE01008327E2
:1017F000C4FE1387F7FF2326E4FEF5FB8327C4FD11
:101800009C43BD8B0547B317F70093960701C18230
:101810008327C4FD9C4313D75700B70700200A074E
:101820009387C700BA979C43368798CB8327C4FD1C
:10183000DC472324F4FE0100832784FE1387F7FF8F
:101840002324E4FEF5FB8327C4FDDC43BD8B054761
:10185000B317F70093960701C1828327C4FDDC43C9
:1018600013D75700B70700200A079387C700BA9716
:101870009C43368798CB8327C4FDDC472322F4FEA4
:101880000100832744FE1387F7FF2322E4FEF5FBC4
:101890000100B250225445618280797106D622D46B
:1018A0000018232EA4FCAE87A30DF4FC8327C4FDEF
:1018B000B337F00093F7F70F3E8713069006B7F79C
:1018C0000100938587EC3A85EF30F0428327C4FD11
:1018D0009C43BD8B0547B317F70093960701C18260
:1018E0008327C4FD9C4313D75700B70700200A077E
:1018F0009387C700BA979C433687D8CB8347B4FDFC
:1019000095CB8327C4FDDC43BD8B0547B317F70098
:1019100093960701C1828327C4FDDC4313D7570088
:10192000B70700200A079387C700BA979C433687FA
:1019300098CB0DA88327C4FDDC43BD8B0547B317A7
:10194000F70093960701C1828327C4FDDC4313D7B8
:101950005700B70700200A079387C700BA979C4330
:101960003687D8CB8327C4FDDC472326F4FE01004D
:101970008327C4FE1387F7FF2326E4FEF5FB8327A6
:10198000C4FD9C43BD8B0547B317F7009396070131
:10199000C1828327C4FD9C4313D75700B70700209B
:1019A0000A079387C700BA979C43368798CB83274B
:1019B000C4FDDC472324F4FE0100832784FE138743
:1019C000F7FF2324E4FEF5FB8327C4FD9C43BD8B76
:1019D0000547B317F70093960701C1828327C4FD1B
:1019E0009C4313D75700B70700200A079387C70007
:1019F000BA979C433687D8CB8327C4FDDC43BD8B85
:101A00000547B317F70093960701C1828327C4FDEA
:101A1000DC4313D75700B70700200A079387C70096
:101A2000BA979C43368798CB0100B2502254456147
:101A30008280797106D622D40018232EA4FC832735
:101A4000C4FDB337F00093F7F70F3E871306500835
:101A5000B7F70100938587EC3A85EF30D029A307CB
:101A600004FE8327C4FD9C43BD8B0547B317F700D5
:101A700093960701C1828327C4FD9C4313D7570067
:101A8000B70700200A079387C700BA979C43368799
:101A9000D8CB8327C4FDDC43BD8B0547B317F700C4
:101AA00093960701C1828327C4FDDC4313D75700F7
:101AB000B70700200A079387C700BA979C43368769
:101AC00098CB8327C4FDDC472324F4FE0100832741
:101AD00084FE1387F7FF2324E4FEF5FB8327C4FD70
:101AE0009C43BD8B0547B317F70093960701C1824E
:101AF0008327C4FD9C4313D75700B70700200A076C
:101B00009387C700BA979C43368798CB8327C4FD39
:101B1000DC472322F4FE0100832744FE1387F7FFEE
:101B20002322E4FEF5FB8327C4FDDC433E85EFF072
:101B3000AF9BAA8781C78547A307F4FE8327C4FD0F
:101B40009C43BD8B0547B317F70093960701C182ED
:101B50008327C4FD9C4313D75700B70700200A070B
:101B60009387C700BA979C433687D8CB8327C4FD99
:101B7000DC472320F4FE0100832704FE1387F7FFD0
:101B80002320E4FEF5FB8347F4FE3E85B250225449
:101B900045618280797106D622D40018232EA4FCD8
:101BA000AE87A30DF4FC8327C4FDB337F00093F791
:101BB000F70F3E871306700AB7F70100938587EC8D
:101BC0003A85EF305013930700F8A307F4FE09AAF3
:101BD0000347B4FD8347F4FEF98F93F7F70F95CBD6
:101BE0008327C4FDDC43BD8B0547B317F7009396ED
:101BF0000701C1828327C4FDDC4313D75700B70711
:101C000000200A079387C700BA979C43368798CB72
:101C10000DA88327C4FDDC43BD8B0547B317F70030
:101C200093960701C1828327C4FDDC4313D7570075
:101C3000B70700200A079387C700BA979C433687E7
:101C4000D8CB8347F4FE8583A307F4FE8327C4FD26
:101C5000DC472324F4FE0100832784FE1387F7FF6B
:101C60002324E4FEF5FB8327C4FD9C43BD8B05477D
:101C7000B317F70093960701C1828327C4FD9C43E5
:101C800013D75700B70700200A079387C700BA97F2
:101C90009C43368798CB8327C4FDDC472322F4FE80
:101CA0000100832744FE1387F7FF2322E4FEF5FBA0
:101CB0008327C4FD9C43BD8B0547B317F70093965C
:101CC0000701C1828327C4FD9C4313D75700B70780
:101CD00000200A079387C700BA979C433687D8CB62
:101CE0008347F4FEE39607EE0325C4FD9933AA87E4
:101CF000FD17B337F00093F7F70F3E85B25022542B
:101D000045618280397106DE22DC26DA80002326D6
:101D1000A4FCAE87A305F4FC8327C4FCB337F00012
:101D200093F7F70F3E871306000CB7F70100938572
:101D300087EC3A85EF30207CA30704FEA1472307F8
:101D4000F4FE8327C4FC9C43BD8B0547B317F70003
:101D500093960701C1828327C4FC9C4313D7570085
:101D6000B70700200A079387C700BA979C433687B6
:101D7000D8CB8327C4FCDC472324F4FE010083274F
:101D800084FE1387F7FF2324E4FEF5FB8327C4FCBE
:101D9000DC43BD8B0547B317F70093960701C1825B
:101DA0008327C4FCDC4313D75700B70700200A077A
:101DB0009387C700BA979C43368798CB7DA8832723
:101DC000C4FC9C43BD8B0547B317F70093960701EE
:101DD000C1828327C4FC9C4313D75700B707002058
:101DE0000A079387C700BA979C433687D8CB8327C7
:101DF000C4FCDC472322F4FE0100832744FE138742
:101E0000F7FF2322E4FEF5FB8327C4FC9C43BD8B34
:101E10000547B317F70093960701C1828327C4FCD7
:101E20009C4313D75700B70700200A079387C700C2
:101E3000BA979C43368798CB8327C4FCDC47232082
:101E4000F4FE0100832704FE1387F7FF2320E4FE3E
:101E5000F5FB8347F4FE860793948701E18483278B
:101E6000C4FCDC433E85EFE03FE8AA87E207E18758
:101E7000C58FE207E187A307F4FE8347E4FE1387DB
:101E8000F7FF2307E4FE85FF8327C4FC9C43BD8B3B
:101E90000547B317F70093960701C1828327C4FC57
:101EA0009C4313D75700B70700200A079387C70042
:101EB000BA979C433687D8CB8327C4FCDC47232EB4
:101EC000F4FC01008327C4FD1387F7FF232EE4FCF5
:101ED000F5FB8347B4FCBE850325C4FC7D3A8347EC
:101EE000F4FE3E85F2506254D25421618280011189
:101EF00006CE22CC00102326A4FEAE873287A3058F
:101F0000F4FEBA872305F4FE8327C4FEB337F0003E
:101F100093F7F70F3E8713066013B7F70100938519
:101F200087EC3A85EF30205D0325C4FEEFF00FF01B
:101F30008327C4FE83C78700860793F7F70FBE8504
:101F40000325C4FE81398347B4FEBE850325C4FE44
:101F500091318347A4FEBE850325C4FE25390325A0
:101F6000C4FEEFF04FFF0100F24062440561828041
:101F7000797106D622D40018232EA4FCAE87A30DB7
:101F8000F4FC8327C4FDB337F00093F7F70F3E87C7
:101F90001306401EB7F70100938587EC3A85EF30B2
:101FA0008055A30704FE0325C4FDEFF02FE8832727
:101FB000C4FD83C78700860793F7F70FBE85032507
:101FC000C4FDC93E8347B4FDBE850325C4FDD93693
:101FD0000325C4FDEFF08FE58327C4FD83C7870089
:101FE0008607E207E18793E71700E207E18793F7A7
:101FF000F70FBE850325C4FD713E85450325C4FD4D
:102000001133AA87A307F4FE0325C4FDEFF0AFF454
:102010008347F4FE3E85B25022544561828001110F
:1020200006CE22CC26CA00102326A4FEAE87232289
:10203000C4FE2320D4FEA305F4FE8327C4FEB337D9
:10204000F00093F7F70F3E871306C01FB7F70100A4
:10205000938587EC3A85EF30004A832744FEB337F7
:10206000F00093F7F70F3E871306D01FB7F7010074
:10207000938587EC3A85EF3000480325C4FEEFF0E6
:10208000EFDA8327C4FE83C78700860793F7F70F2D
:10209000BE850325C4FEFD3C8347B4FEBE850325F3
:1020A000C4FECD3C0325C4FEEFF04FD88327C4FE09
:1020B00083C787008607E207E18793E71700E207F7
:1020C000E18793F7F70FBE850325C4FEE1342DA009
:1020D000832704FE93B7170093F7F70F3E878324F7
:1020E00044FE938714002322F4FEBA850325C4FE20
:1020F0001139AA872380F400832704FE1387F7FF92
:102100002320E4FEF1F70325C4FEEFF0CFE4010045
:10211000F2406244D24405618280797106D622D4AD
:102120000018232EA4FCAE87A30DF4FC8327C4FD66
:10213000B337F00093F7F70F3E871306D029B7F7B0
:102140000100938587EC3A85EF30E03AA30704FE5F
:102150000325C4FDEFF08FCD8327C4FD83C787001F
:10216000860793F7F70FBE850325C4FDEFF09FA206
:102170008347B4FDBE850325C4FDEFF0BFA1032551
:10218000C4FDEFF04FDD0325C4FDEFF02FCA832718
:10219000C4FD83C787008607E207E18793E717003E
:1021A000E207E18793F7F70FBE850325C4FDEFF043
:1021B0007F9E85450325C4FDB136AA87A307F4FE9B
:1021C0000325C4FDEFF02FD98347F4FE3E85B250BE
:1021D000225445618280797106D622D400182326C4
:1021E000A4FEAE872322C4FE2320D4FE232EE4FCCB
:1021F000A305F4FE8327C4FEB337F00093F7F70F6F
:102200003E871306802BB7F70100938587EC3A854C
:10221000EF30602E032704FE8327C4FDB307F74089
:10222000B337F00093F7F70F3E871306902BB7F7FD
:102230000100938587EC3A85EF30E02B8327C4FEBD
:10224000032704FE98C38327C4FE0327C4FDD8C315
:102250008327C4FE0347B4FE2384E7008327C4FE1C
:10226000032744FED8C7C14605468545032504FE1D
:10227000EFE0BFABD146054685450325C4FDEFE041
:10228000DFAA0100B250225445618280011122CEA2
:1022900000102326A4FEAE87A305F4FEB7070200B4
:1022A0000327C4FE0A07938747C8BA979C433E8713
:1022B0008347B4FEC207C1832316F7000100B707A6
:1022C00002000327C4FE0A07938747C8BA979C43B6
:1022D00083D78700C207C18393F70708EDF3B707D9
:1022E00002000327C4FE0A07938747C8BA979C4396
:1022F00083D7C7000100724405618280011122CE9C
:1023000000102326A4FEAE872315F4FE8357A4FEF7
:10231000A183C207C18393F6F70FB7070200032713
:10232000C4FE0A07938747C8BA979C433E87939792
:102330000601C1832316F7000100B7070200032737
:10234000C4FE0A07938747C8BA979C4383D7870080
:10235000C207C18393F70708EDF38357A4FE93F6F2
:10236000F70FB70702000327C4FE0A07938747C881
:10237000BA979C433E8793970601C1832316F700C3
:102380000100B70702000327C4FE0A07938747C866
:10239000BA979C4383D78700C207C18393F7070886
:1023A000EDF30100724405618280011122CE00101C
:1023B0002326A4FEAE873287A305F4FEBA87230541
:1023C000F4FEB70702000327C4FE0A07938747C835
:1023D000BA979C433E878347B4FEC207C183231646
:1023E000F7000100B70702000327C4FE0A0793871E
:1023F00047C8BA979C4383D78700C207C18393F726
:102400000708EDF3B70702000327C4FE0A07938706
:1024100047C8BA979C4383D7C700B7070200032772
:10242000C4FE0A07938747C8BA979C433E878347F1
:10243000A4FEC207C1832316F7000100B7070200FC
:102440000327C4FE0A07938747C8BA979C4383D7DC
:102450008700C207C18393F70708EDF3B7070200AF
:102460000327C4FE0A07938747C8BA979C4383D7BC
:10247000C7000100724405618280011122CE001064
:102480002326A4FEAE872322C4FE2320D4FEA30568
:10249000F4FEB70702000327C4FE0A07938747C864
:1024A000BA979C433E878347B4FEC207C183231675
:1024B000F7000100B70702000327C4FE0A0793874D
:1024C00047C8BA979C4383D78700C207C18393F755
:1024D0000708EDF389A8832744FE138717002322FA
:1024E000E4FE83C60700B70702000327C4FE0A07FD
:1024F000938747C8BA979C433E8793970601C18349
:102500002316F7000100B70702000327C4FE0A07DD
:10251000938747C8BA979C4383D78700C207C18374
:1025200093F70708EDF3832704FE1387F7FF2320B3
:10253000E4FED5F30100724405618280011122CED0
:1025400000102326A4FEAE872322C4FE2320D4FE3F
:10255000A305F4FEB70702000327C4FE0A0793870A
:1025600047C8BA979C433E878347B4FEC207C183DE
:102570002316F7000100B70702000327C4FE0A076D
:10258000938747C8BA979C4383D78700C207C18304
:1025900093F70708EDF3B70702000327C4FE0A0705
:1025A000938747C8BA979C4383D7C700ADA0B707A6
:1025B00002000327C4FE0A07938747C8BA979C43C3
:1025C000239607000100B70702000327C4FE0A078D
:1025D000938747C8BA979C4383D78700C207C183B4
:1025E00093F70708EDF3B70702000327C4FE0A07B5
:1025F000938747C8BA979C4383D7C7009396070130
:10260000C182832744FE138717002322E4FE13F7B9
:10261000F60F2380E700832704FE1387F7FF2320AC
:10262000E4FED1F701007244056182805D7186C6C7
:10263000A2C480082326A4FC2324B4FC2322C4FCC7
:102640002320D4FC232EE4FA232CF4FA232A04FBBF
:10265000B70702000327C4FC0A07938747C8BA9745
:102660009C433E85EF60C00C85450545EF50D07A10
:10267000032704FC930730126313F702032784FB3C
:1026800093074012631DF7000327C4FB9307501202
:102690006317F70085450545EF50302F1DA8032728
:1026A00004FC89679387A7146315F702032784FB4B
:1026B00089679387B714631EF7000327C4FB8967F4
:1026C0009387C7146317F700854537152000EF502F
:1026D000D02B8327C4FC91E785450565EF50D07367
:1026E00025A00327C4FC85476317F70085451165BE
:1026F000EF50F07611A80327C4FC89476316F70052
:1027000085452165EF50B075832704FC93F7F70FDB
:1027100093068031054685453E85EFE00FE183272E
:10272000C4FB93F7F70F93068031054685453E8538
:10273000EFE0AFDF032784FBC167F917630DF700F4
:10274000832784FB93F7F70F930680340546814572
:102750003E85EFE08FDD032744FB9307F00F630D09
:10276000F700832744FB93F7F70F930600310146E8
:1027700085453E85EFE06FDB232E04FC232004FE1D
:10278000232204FE232404FE231604FE231E04FC3D
:1027900093074010231FF4FC231004FE032784FC3E
:1027A00085476305F702832784FC81CF032784FCD8
:1027B00089476303F702032784FC8D476304F7020C
:1027C0000DA8231104FE231204FE25A0231104FEEC
:1027D00085472312F4FE31A889472311F4FE231202
:1027E00004FE01A889472311F4FE85472312F4FE55
:1027F0000100231704FE03A78181832744FCB357FC
:10280000F7022317F4FE03A78181832744FCB377E3
:10281000F70291E78357E4FEFD172317F4FE0357F1
:10282000E4FE9307F00763F7E7009307800323179D
:10283000F4FE51A80357E4FE9307F00363F7E700A3
:10284000930700032317F4FEBDA80357E4FEFD47DA
:1028500063F7E700930780022317F4FEADA0035748
:10286000E4FEBD4763F7E700930700022317F4FE79
:1028700099A80357E4FE9D4763F6E700E147231755
:10288000F4FE91A00357E4FE8D4763F6E700C147CD
:102890002317F4FE0DA80357E4FE854763F6E7000F
:1028A000A1472317F4FE05A08357E4FE81C7231731
:1028B00004FE11A813067021B7F70100938587F273
:1028C0000145EF2050438357E4FE2314F4FE9307A1
:1028D00000202313F4FE231504FE9D472316F4FE67
:1028E000B70702000327C4FC0A07938747C8BA97B3
:1028F0009C433E879307C4FDBE853A85EF50B06A7E
:10290000B70702000327C4FC0A07938747C8BA9792
:102910009C4385453E85EF5090780100B6402644A3
:1029200061618280797122D60018232EA4FC232CA9
:10293000B4FC8547A307F4FE0327C4FD0A07938769
:1029400041DFBA979C4399EB0327C4FD0A0793879D
:1029500041DFBA97032784FD98C315A00327C4FD60
:102960000A07938741DFBA979C43032784FD6316C8
:10297000F7008547A307F4FE19A0A30704FE8347C9
:10298000F4FE3E85325445618280011106CE22CC90
:1029900000102326A4FE8327C4FE81EB85458567AE
:1029A00013850780EF5050476DA80327C4FE854765
:1029B0006317F70085450545EF50704A5DA0032772
:1029C000C4FE89476317F70085450945EF50304934
:1029D00049A80327C4FE8D476317F70085451145B5
:1029E000EF50F047BDA80327C4FE91476317F700D7
:1029F00085452145EF50B046ADA00327C4FE95475D
:102A00006317F70085454145EF50704599A80327A6
:102A1000C4FE99476318F700854513050002EF507F
:102A2000104481A00327C4FE9D476317F700854526
:102A30000965EF50703E35A00327C4FEA147631817
:102A4000F700854537050800EF50103D19A803270A
:102A5000C4FEA5476317F700854537051000EF5002
:102A6000B03B0100F240624405618280011122CE38
:102A700000102326A4FEAE87A305F4FE0100B707CD
:102A800002000327C4FE0A07938707C9BA979C432D
:102A900083D70700C207C18393F70708EDD3B707B1
:102AA00002000327C4FE0A07938707C9BA979C430D
:102AB0003E878347B4FEC207C1832312F70001009B
:102AC000724405618280011106CE22CC00102326BB
:102AD000A4FE2324B4FE832784FEB337F00093F7CB
:102AE000F70F3E8713060005B7F70100938547F8F7
:102AF0003A85EF20502039A8832784FE13871700DA
:102B00002324E4FE8387070093F7F70FBE85032590
:102B1000C4FEA93F832784FE83870700F1FF0100DD
:102B2000F240624405618280011106CE22CC001081
:102B30002326A4FEAE87A305F4FEB70702000327F1
:102B4000C4FE0A07938707C9BA979C433E87834709
:102B5000B4FE3E86930550523A85EF60705A138753
:102B600001888327C4FEBA9783C7070081453E8545
:102B7000EF30B0428347B4FE81CF138701888327AB
:102B8000C4FEBA9783C707003E85EF30503D19A8B1
:102B9000138701888327C4FEBA9783C707003E8541
:102BA000EF30D03D0100F2406244056182800111A6
:102BB00022CE00102326A4FE2324B4FEB707020071
:102BC0000327C4FE0A07938707C9BA979C4383D794
:102BD0000700C207C18393F7070295C7B707020032
:102BE0000327C4FE0A07938707C9BA979C4383D774
:102BF0004700C207C18313F7F70F832784FE2380A2
:102C0000E700854711A081473E85724405618280B7
:102C1000797106D622D40018232EA4FC232CB4FCF0
:102C2000232AC4FC2328D4FC032744FD832704FD66
:102C30003D8F8327C4FDB207F98F93B7170093F731
:102C4000F70F3E871306A00AB7F70100938547F8F0
:102C50003A85EF20500A832744FD13D78700832746
:102C600004FDA183B307F74093B7170093F7F70F5D
:102C70003E871306B00AB7F70100938547F83A85F7
:102C8000EF207007832744FD93F7F70FE1460146D5
:102C900085453E85EFE06F89832704FD93F7F70FA5
:102CA00093068004014681453E85EFE00F88854507
:102CB0000545EF507016032744FDC167FD17F98FD6
:102CC0000D67130707386385E7200D67130707387B
:102CD0006369F7040567130757166381E7160567ED
:102CE00013075716636FF7001307F022638AE70C88
:102CF000130760306381E710130760126388E708E9
:102D000055A6096713078736638AE7160D67130709
:102D100007126385E71809671307A7146380E71490
:102D200051A615671307A738638CE72615671307A5
:102D3000A7386362F702116713078738638EE71EAF
:102D40001567130787126383E7221167130747127A
:102D5000638AE71A81AE19671307C7386386E72AC3
:102D600019671307C7386368F700196713076710F7
:102D70006382E72605AE1D671307E7106380E72C23
:102D80001D671307E7386385E72E29AEB7070140B3
:102D9000D44FB7070140370700FC7D17758FD8CF98
:102DA000B7070140D843B70701406D9BD8C3B707A9
:102DB0000140D843B707014013674700D8C3DDA4DB
:102DC000B7070140D44FB7070140370700FC7D1714
:102DD000758FD8CFB7070140D44FB70701403707E9
:102DE0000004558FD8CFB7070140D843B70701403B
:102DF0006D9BD8C345ACB7070140D44FB70701401E
:102E0000370700FC7D17758FD8CFB7070140D44F27
:102E1000B707014037070004558FD8CFB7070140E7
:102E2000D843B70701406D9BD8C3B7070140D843CB
:102E3000B707014013674700D8C3ADA4B7070140E7
:102E4000D843B70701405D9BD8C3B7070140D843BB
:102E5000B707014013678700D8C3A9A4B70701408B
:102E6000D843B70701401D9BD8C3B7070140D843DB
:102E7000B707014013678700D8C32DA4B7070140E7
:102E8000D843B70701401D9BD8C3B7070140D843BB
:102E9000B707014013678701D8C329A4B7070140CA
:102EA000D44FB70701403707FDFF7D17758FD8CF87
:102EB000B7070140D44F832744FDA183139707012F
:102EC000B70703007D8FB7070140558FD8CFD9AA28
:102ED000B7070140D44FB70701403707FDFF7D1703
:102EE000758FD8CFB7070140D44F832744FDA18306
:102EF00013970701B70703007D8FB7070140558F70
:102F0000D8CF4DA2B7070140D44FB70701403707CC
:102F1000F4FF7D17758FD8CFB7070140D44F8327B3
:102F200044FDA18313972701B7070C007D8FB707D6
:102F30000140558FD8CFBDA2B7070140D44FB70786
:102F400001403707F4FF7D17758FD8CFB7070140D1
:102F5000D44F832744FDA18313972701B7070C00A3
:102F60007D8FB7070140558FD8CF2DAAB7070140F5
:102F7000D44FB70701403707D0FF7D17758FD8CFE3
:102F8000B7070140D44F832744FDA183139747011E
:102F9000B70730007D8FB7070140558FD8CF19A2F2
:102FA000B7070140D44FB70701403707D0FF7D175F
:102FB000758FD8CFB7070140D44F832744FDA18335
:102FC00013974701B70730007D8FB7070140558F32
:102FD000D8CFC9A8B7070140D44FB707014037077A
:102FE00040FF7D17758FD8CFB7070140D44F832797
:102FF00044FDA18313976701B707C0007D8FB70712
:103000000140558FD8CF79A8B7070140D44FB707F3
:103010000140370740FF7D17758FD8CFB7070140B4
:10302000D44F832744FDA18313976701B707C000DE
:103030007D8FB7070140558FD8CFADA0B7070140AE
:10304000D44FB7070140370700FD7D17758FD8CFE4
:10305000B7070140D44F832744FDA183139787010D
:10306000B70700037D8FB7070140558FD8CF1DA844
:10307000B7070140D44FB7070140370700FD7D1760
:10308000758FD8CFB7070140D44F832744FDA18364
:1030900013978701B70700037D8FB7070140558F4E
:1030A000D8CF01008327C4FD91E785451165EF5016
:1030B000A05669A80327C4FD85476318F700854516
:1030C00037050200EF50A05951A00327C4FD8947DE
:1030D0006318F700854537050400EF504058BDA040
:1030E0000327C4FD8D476318F700854537050800A1
:1030F000EF50E056A1A80327C4FD91476318F700DD
:10310000854537051000EF50805589A00327C4FD81
:1031100095476318F700854513050004EF502054C8
:1031200035A00327C4FD99476318F70085451305AB
:103130000008EF50C05219A80327C4FD9D4763172C
:10314000F700854513050010EF506051232004FE61
:10315000232204FE232404FE232604FE832784FD69
:103160002320F4FE231204FE231304FE231404FE82
:10317000231604FEB1472315F4FEB7070200032708
:10318000C4FD0A07938707C9BA979C433E879307F4
:1031900004FEBE853A85EF60604DB7070200032745
:1031A000C4FD0A07938707C9BA979C4385453E85A6
:1031B000EF60006F0100B250225445618280797146
:1031C00006D622D40018AA87232CB4FCA30FF4FC43
:1031D000230704FEA30604FEA945032584FDEF8012
:1031E000917C2324A4FE832784FE81CF032784FEC1
:1031F000832784FDB307F74093F7F70F8507A306EE
:10320000F4FEA30704FE91A08347F4FE032784FD88
:10321000BA97038707009307C0026317F700834735
:10322000E4FE85072307F4FE0347E4FE8347F4FD2D
:103230006318F7008347F4FE85072306F4FE21A8F0
:103240008347F4FE8507A307F4FE0347F4FE834794
:10325000D4FEE36BF7FA8347C4FE3E85B250225496
:1032600045618280397106DE22DC80002326A4FCC1
:103270008325C4FC0545A137AA87A307F4FE83472D
:10328000F4FEFD17A307F4FE0347F4FE9307C4FD05
:103290003A868325C4FC3E85EF8071768347F4FE31
:1032A000130704FFBA97238607FE9307C4FD3E85E4
:1032B000EF20B03F2324A4FE832784FE3E85F250F6
:1032C000625421618280397106DE22DC800023266F
:1032D000A4FC8325C4FC0545DD35AA87A307F4FEBD
:1032E0008347F4FEFD17A307F4FE0347F4FE93079C
:1032F00084FD3A868325C4FC3E85EF805170834768
:10330000F4FE130704FFBA97238407FE930784FD96
:103310003E85EF20107CAA872E883E85C285EF70FF
:10332000F16CD307A5202724F4FE872784FE53855C
:10333000F720F250625421618280397106DE22DC6E
:1033400080002326A4FC8325C4FC05458D3DAA8767
:10335000A307F4FE8347F4FEFD17A307F4FE03471B
:10336000F4FE930704FD3A868325C4FC3E85EF8076
:1033700011698347F4FE130704FFBA97238007FE01
:10338000930704FD3E85EF20D0742320A4FE232262
:10339000B4FE832704FE032844FE3E85C285F25016
:1033A000625421618280797122D60018232EA4FCF8
:1033B0008327C4FD83C74700A10713F7F70F8327AF
:1033C000C4FD2382E7008327C4FD03C74700DD4710
:1033D00063FEE7128327C4FD83C74700A11713F7D5
:1033E000F70F8327C4FD2382E7008327C4FD83C72B
:1033F0003700850713F7F70F8327C4FDA381E70084
:103400008327C4FD03C7270089476319F704F147E1
:10341000A307F4FE8327C4FD83D707008D8BC20763
:10342000C18381EF8327C4FD03D7070093074006BC
:10343000B377F702C207C18381EF8327C4FD03D7A7
:10344000070093070019B377F702C207C183A9EBFE
:103450008347F4FE8507A307F4FE99A0FD47A30761
:10346000F4FE8327C4FD03C7270091476307F702D3
:103470008327C4FD03C7270099476300F70283270A
:10348000C4FD03C72700A5476309F7008327C4FDD0
:1034900003C72700AD476315F700F947A307F4FEFC
:1034A0008327C4FD83C737000347F4FE6370F70624
:1034B0008327C4FD0547A381E7008327C4FD83C795
:1034C0002700850713F7F70F8327C4FD2381E70043
:1034D0008327C4FD03C72700B14763F9E7028327A9
:1034E000C4FD83C72700D11713F7F70F8327C4FD47
:1034F0002381E7008327C4FD83D70700850713973F
:10350000070141838327C4FD2390E7000100325463
:10351000456182801D7186CEA2CCCACACEC88010F9
:103520002326A4FA2324B4FA8327C4FA2324F4FE1E
:10353000A30704FE832584FE09455131AA873E87EF
:10354000832784FEBA9783870700A303F4FE8327AB
:1035500084FA23840700034774FE93071004631A58
:10356000F7348547A307F4FE832784FA05472384AD
:10357000E700832584FE11459931AA873E8783277A
:1035800084FEBA9703870700832784FA2384E7021F
:10359000832584FE19452531AA873E87832784FE2B
:1035A000BA9703870700832784FAA384E702832559
:1035B00084FE0D452931AA873E87832784FEBA976A
:1035C0003E85A53B232CA4FC232EB4FC832584FE3E
:1035D0001545F536AA873E87832784FEBA973E8530
:1035E000A93B2328A4FC232AB4FC032584FD8325BE
:1035F000C4FDEF70710C2A8793074006B347F702AA
:10360000139707014183832784FA2395E7008327D3
:1036100084FA83D7A7003E8793074006B307F702D3
:103620003E85EF70D120AA872E883E86C28603256C
:1036300084FD8325C4FDEF60B157AA872E883E859F
:10364000C285EF70B13AD307A5202726F4FC87275F
:10365000C4FCD39707C0139707014183832784FADB
:103660002396E700832784FA83D7C700D3F707D0D0
:103670000727C4FC5377F708B7F7010087A7870827
:10368000D377F7102724F4FC872784FCD39707C04F
:10369000139707014183832784FA2397E7000325C3
:1036A00004FD832544FDEF7031012A87930740060E
:1036B000B347F702139707014183832784FA2398BE
:1036C000E700832784FA83D707013E8793074006E4
:1036D000B307F7023E85EF709115AA872E883E86C4
:1036E000C286032504FD832544FDEF60714CAA8743
:1036F0002E883E85C285EF70712FD307A520272223
:10370000F4FC872744FCD39707C013970701418334
:10371000832784FA2399E700832784FA83D7270134
:10372000D3F707D0072744FC5377F708B7F7010012
:1037300087A78708D377F7102720F4FC872704FC96
:10374000D39707C0139707014183832784FA239AED
:10375000E700832784FA83D7A7003E85EF70310DF9
:103760002A89AE89832784FA83D7C7003E85EF7004
:103770001113B7F7010003A6070983A64709EF5005
:10378000F13EAA872E883E86C2864A85CE85EF50B6
:10379000011DAA872E883E89C289832784FA83D790
:1037A000E7003E85EF70B10FB7F7010003A6870968
:1037B00083A6C709EF50913BAA872E883E86C28612
:1037C0004A85CE85EF50A119AA872E88032784FA4F
:1037D0001CCF232E0701832784FA83D707013E8558
:1037E000EF70F1042A89AE89832784FA83D72701F1
:1037F0003E85EF70D10AB7F7010003A6070983A63B
:103800004709EF50B136AA872E883E86C2864A8580
:10381000CE85EF50C114AA872E883E89C28983279E
:1038200084FA83D747013E85EF707107B7F701002F
:1038300003A6870983A6C709EF505133AA872E88AC
:103840003E86C2864A85CE85EF506111AA872E88B2
:10385000032784FA1CD323220703832584FE1D45F6
:10386000EFF0FF95AA873E87832784FEBA973E85AF
:10387000EFF07FA5272EA4FA0727C4FBB7F70100B6
:1038800087A7070AD377F710832784FADCF7832505
:1038900084FE2145EFF0BF92AA873E87832784FEEE
:1038A000BA973E85EFF03FA2D307A520832784FA7D
:1038B0009CFB832784FE9D0783870700938707FD72
:1038C00093F7F70F3E87BA878A07BA97860713F7E9
:1038D000F70F832784FEA1078387070093F7F70F6D
:1038E000BA9793F7F70F938707FD13F7F70F83271F
:1038F00084FA2382E700832784FEA50783870700D5
:10390000938707FD93F7F70F3E87BA878A07BA9721
:10391000860713F7F70F832784FEA907838707001D
:1039200093F7F70FBA9793F7F70F938707FD13F7FE
:10393000F70F832784FAA382E700832784FEAD076D
:1039400083870700938707FD93F7F70F3E87BA87B2
:103950008A07BA97860713F7F70F832784FEB10704
:103960008387070093F7F70FBA9793F7F70F9387BB
:1039700007FD13F7F70F832784FA2383E7008325D6
:1039800084FE2545EFF0BF83AA87A30DF4FA834791
:10399000B4FB032784FEBA9783870700938707FD4C
:1039A00093F7F70F3E87BA878A07BA97860713F708
:1039B000F70F8347B4FB8507832684FEB69783877A
:1039C000070093F7F70FBA9793F7F70F938707FD61
:1039D00013F7F70F832784FAA381E7008347B4FB2B
:1039E0008907032784FEBA9783870700938707FD1B
:1039F00093F7F70F3E87BA878A07BA97860713F7B8
:103A0000F70F8347B4FB8D07832684FEB697838721
:103A1000070093F7F70FBA9793F7F70F938707FD10
:103A200013F7F70F832784FA2381E7008347B4FB5A
:103A30009107032784FEBA9783870700938707FDC2
:103A4000C207C1833E87BA878A07BA97860713974A
:103A5000070141838347B4FB9507832684FEB6970D
:103A600083870700C207C183BA97C207C1839387C0
:103A7000077A139707014183832784FA2390E7008D
:103A8000832784FA3E85EFF01F928347F4FE3E853C
:103A9000F64066445649C64925618280397106DE82
:103AA00022DC22F680002326A4FC2324B4FC8327F6
:103AB000C4FC232CF4FCA30F04FC832584FD0945DE
:103AC000EFF0EFEFAA873E87832784FDBA978387BD
:103AD0000700A30BF4FC034774FD9307C002630EB9
:103AE000F708832584FD1D45EFF06FEDAA873E871B
:103AF000832784FDBA973E85EFF0CFF6AA8713F7A8
:103B0000F70F832784FC238AE702832584FD214560
:103B1000EFF0EFEAAA873E87832784FDBA973E85B8
:103B2000EFF06FFAD307A520832784FCDCFF832501
:103B300084FD2545EFF0AFE8AA873E87832784FD03
:103B4000BA973E85EFF02FF85304A520832584FD16
:103B50002D45EFF0CFE6AA873E87832784FDBA97ED
:103B60003E85EFF04FF6D307A520D377F4008327E7
:103B700084FC9CFF8547A30FF4FC8347F4FD3E853E
:103B8000F2506254327421618280011106CE22CC3F
:103B90000010A30704FE03A701892320E4FE9387F6
:103BA000018983C747002302F4FEA30304FE230711
:103BB00004FE03A7018A85476314F70A094723A077
:103BC000E18A9305A0021385C1EFEF80C15DAA874A
:103BD00013871700930704FE89070946BA853E85B7
:103BE000EF80E161930704FE3E85EF205015AA8720
:103BF000A303F4FE9387C1EF83C717002307F4FEE6
:103C000089472324F4FE15A01387C1EF832784FE80
:103C1000BA9703C707008347E4FEB98F2307F4FE72
:103C2000832784FE85072324F4FE1387C1EF8327AF
:103C300084FEBA9703C707009307A002E316F7FCB8
:103C40000347E4FE834774FE6306F7008547A30736
:103C5000F4FEC9A0938501E21385C1EFEFF09F8BBD
:103C600023A0018A03A7C18985476313F70A09477F
:103C700023AEE1889305A0021385C1E7EF80A1522E
:103C8000AA8713871700930704FE89070946BA8598
:103C90003E85EF80C156930704FE3E85EF20300A33
:103CA000AA87A303F4FE9387C1E783C717002307FE
:103CB000F4FE89472324F4FE15A01387C1E7832768
:103CC00084FEBA9703C707008347E4FEB98F230732
:103CD000F4FE832784FE85072324F4FE1387C1E7BF
:103CE000832784FEBA9703C707009307A002E31651
:103CF000F7FC0347E4FE834774FE6306F70085473D
:103D0000A307F4FE01A8938501E21385C1E7793387
:103D100023AE01888347F4FE3E85F240624405618C
:103D20008280011106CE22CC001083C7B189638C3A
:103D3000070E09A8930734FE0546BE85138501E6E4
:103D4000EF101038930734FEBE851D45EFE03FE6C7
:103D5000AA87EDF3034734FEA9476316F70C99478A
:103D60002322F4FE130744FE930784FE85463A8619
:103D7000BE85138501E6EF101065930784FE138757
:103D800037000D46B7F70100938507FE3A85EF80AF
:103D90004144AA879DEB03A7018A8947630EF70672
:103DA000054723A0E18A138501E6EF10102DAA87AD
:103DB0002322F4FE930744FE81463E869385C1EF9D
:103DC000138501E6EF10306081A8930784FE138706
:103DD00037000D46B7F70100938547FE3A85EF801F
:103DE000413FAA8795EB03A7C18989476306F7027C
:103DF000054723AEE188138501E6EF101028AA8756
:103E00002322F4FE930744FE81463E869385C1E754
:103E1000138501E6EF10305B138501E6EF10D01536
:103E20000547238DE1880100F240624405618280EC
:103E3000011106CE22CC0010A30704FE230704FEC6
:103E4000231604FE99A08357C4FE13871700231678
:103E5000E4FE1307F00F6376F70085472307F4FEAF
:103E600015A8930550071385C1F7EFE06F90AA8757
:103E7000A307F4FE03A781818967938707F4B357EB
:103E8000F702A9453E85EFC0CFD50347F4FEC947E9
:103E9000E31BF7FA8347E4FE3E85F2406244056186
:103EA0008280011106CE22CC0010930784FE994631
:103EB0003E869305B0031385C1F7EFE04F96834725
:103EC00084FEA207139707014187834794FEC20728
:103ED000C187D98F1397070141872395E18A8347CB
:103EE000A4FEA2071397070141878347B4FEC207C8
:103EF000C187D98F1397070141872396E18A8347AA
:103F0000C4FEA2071397070141878347D4FEC20767
:103F1000C187D98F1397070141872397E18A010051
:103F2000F240624405618280011106CE22CC00106D
:103F3000930784FE99463E86930530041385C1F7A6
:103F4000EFE0EF8D834784FEA207139707014187B7
:103F5000834794FEC207C187D98F13970701418712
:103F60002392E18A8347A4FEA207139707014187A2
:103F70008347B4FEC207C187D98F139707014187D2
:103F80002393E18A8347C4FEA20713970701418761
:103F90008347D4FEC207C187D98F13970701418792
:103FA0002394E18A0100F24062440561828001119C
:103FB00006CE22CC0010A30504FEA30704FE2316A0
:103FC00004FE03A781818967938707F4B357F7023B
:103FD000A9453E85EFC0EFC013075002930630029B
:103FE00013064006930590061385C1F7EFE0AF9ED8
:103FF0008135AA8795C393064011B7F70100138650
:10400000070DB7F70100938507130145EF104055E1
:104010008547A307F4FECDA0130600089305B0065C
:104020001385C1F7EFD0BFEC03A781818967938720
:1040300007F4B357F70289453E85EFC08FBA930561
:10404000B0061385C1F7EFD0BFF2AA87A305F4FE2F
:104050008357C4FE138717002316E4FE1307F00FDF
:104060006373F70293064012B7F701001386070D3A
:10407000B7F701009385C7140145EF10604E8547DF
:10408000A307F4FE39A00347B4FE93071004E31816
:10409000F7FA0347F4FE8547630FF70405469305D7
:1040A000B0061385C1F7EFD09FE401469305C00623
:1040B0001385C1F7EFD0BFE30546E9451385C1F786
:1040C000EFD0FFE21D46E5451385C1F7EFD03FE293
:1040D0006146ED451385C1F7EFD07FE14146F145DB
:1040E0001385C1F7EFD0BFE00D46F5451385C1F745
:1040F000EFD0FFDF11A001008347F4FE3E85F240C0
:10410000624405618280011106CE22CC0010AA878C
:104110002E87A307F4FEBA872307F4FEB707002013
:104120009387C7009C4713070040D8CB0347E4FEA2
:104130008347F4FE3A86BE850945EFE00FA7B7072F
:1041400000209387C7009C471307004098CB0100CD
:10415000F240624405618280011106CE22CC00103B
:10416000AA872324B4FE2322C4FEA307F4FEB707C4
:1041700000209387C7009C4713070040D8CB834794
:10418000F4FE832644FE032684FEBE850945EFE047
:10419000CFAEB70700209387C7009C4713070040A6
:1041A00098CB0100F240624405618280797106D6A5
:1041B00022D40018AA87A30FF4FCB7070020938726
:1041C000C7009C4713070040D8CB8347F4FD93E713
:1041D00007F893F7F70F1307C4FE89463A86BE85A2
:1041E0000945EFE0AFB5B70700209387C7009C47AC
:1041F0001307004098CB8347D4FE3E85B25022542B
:1042000045618280797106D622D40018AA87232CB2
:10421000B4FC232AC4FCA30FF4FCB7070020938747
:10422000C7009C4713070040D8CB8347F4FD93E7B2
:1042300007F813F7F70F832744FD938617009307BA
:1042400044FE3E86BA850945EFE04FAFB707002030
:104250009387C7009C471307004098CB232604FE92
:104260003DA08327C4FE13871700832784FD938610
:104270001700232CD4FC930604FF3697034747FF0F
:104280002380E7008327C4FE85072326F4FE8327C7
:10429000C4FE032744FDE3E6E7FC0100B2502254CC
:1042A00045618280011106CE22CC0010A30504FED8
:1042B000A30704FE231604FE8357C4FE13871700CA
:1042C0002316E4FE1307F00F6376F7008547A30774
:1042D000F4FE3DA00145D93DAA87A305F4FE03A73E
:1042E00081818967938707F4B357F70285453E8537
:1042F000EFC02F8F0347B4FE93074002E31EF7FA87
:104300008347F4FE3E85F2406244056182800111DC
:1043100006CE22CC0010930784FE1946BE85314597
:10432000D535834794FEA20713970701418783473A
:1043300084FEC207C187D98F139707014187239B4A
:10434000E18A8347B4FEA207139707014187834799
:10435000A4FEC207C187D98F139707014187239C09
:10436000E18A8347D4FEA207139707014187834759
:10437000C4FEC207C187D98F139707014187239DC8
:10438000E18A0100F240624405618280011106CE9B
:1043900022CC0010930784FE1946BE8549459D3501
:1043A000834794FEA207139707014187834784FE42
:1043B000C207C187D98F1397070141872398E18AE4
:1043C0008347B4FEA2071397070141878347A4FEE2
:1043D000C207C187D98F1397070141872399E18AC3
:1043E0008347D4FEA2071397070141878347C4FE82
:1043F000C207C187D98F139707014187239AE18AA2
:104400000100F240624405618280011106CE22CC97
:104410000010A30704FE03A781818967938707F42F
:10442000B357F702D1453E85EFB0BFFB1308F00F3D
:10443000896793874702096713075702896693863E
:104440003602379698001306066881450945EFE065
:10445000EF9DC146054685451305A004EFC0FF8CBE
:104460000145EFF0BFD43D3DAA8795C393060011E7
:10447000B7F701001386C716B7F701009385C71C6D
:104480000145EF10E00D8547A307F4FEC9A0814563
:104490001305C007EFF03FC703A7818189679387A2
:1044A00007F4B357F70285453E85EFB09FF381458A
:1044B00013059005EFF03FC50966B73702009385F5
:1044C00047D81305E005EFF03FC985451305900572
:1044D000EFF07FC303A781818967938707F4B35700
:1044E000F702D1453E85EFB0DFEF13051002EFF084
:1044F000FFCBAA8795E39306F011B7F70100138667
:10450000C716B7F701009385871E0145EF104005D8
:104510008547A307F4FE25A8B9451305D007EFF09A
:104520009FBE9305700A13050004EFF0DFBD9305ED
:10453000900A13052004EFF01FBD894513051004F0
:10454000EFF07FBC814513053004EFF0DFBB8347FC
:10455000F4FE3E85F240624405618280797106D6A0
:1045600022D40018AA87AE863287A30FF4FCB68740
:10457000230FF4FCBA87A30EF4FCA30704FE231652
:1045800004FE8347F4FD8607A30FF4FC0146DD45D6
:104590001385C1F8EFD0BF958347F4FD3E86D5451E
:1045A0001385C1F8EFD0BF948347E4FD3E86D9451B
:1045B0001385C1F8EFD0BF938347D4FD3E869305A2
:1045C00010021385C1F8EFD09F921306C004D145A5
:1045D0001385C1F8EFD0BF9115A88357C4FE138788
:1045E00017002316E4FE1307F00F6376F7008547E4
:1045F000A307F4FE3DA003A781818967938707F491
:10460000B357F70289453E85EFB0BFDD9305200221
:104610001385C1F8EFD07FB0AA87E207E187E3DE18
:1046200007FA8347F4FE3E85B250225445618280EA
:10463000797106D622D40018AA872E87A30FF4FC1E
:10464000BA87230FF4FC231704FE8347F4FD860783
:10465000A30FF4FC8347F4FD93E7170093F7F70FDC
:104660003E86D5451385C1F8EFD07F888347E4FDAA
:104670003E86D9451385C1F8EFD07F870546DD45D5
:104680001385C1F8EFD0BF861306C004D14513854A
:10469000C1F8EFD0DF8535A08357E4FE13871700FC
:1046A0002317E4FE1307F00F6369F70203A7818164
:1046B0008967938707F4B357F70289453E85EFB0C2
:1046C0005FD2930520021385C1F8EFD01FA5AA87FA
:1046D000858B93F7F70FE9D311A001008945138566
:1046E000C1F8EFD09FA3AA873E85B25022544561FE
:1046F0008280011106CE22CC0010AA872E87A30744
:10470000F4FEBA872307F4FE8347F4FE8607A30767
:10471000F4FE8347F4FE93E7170093F7F70F3E8606
:10472000D5451385C1F8EFD08FFC8347E4FE3E8664
:10473000D9451385C1F8EFD08FFB1946DD451385A8
:10474000C1F8EFD0CFFA1306C006D1451385C1F8E2
:10475000EFD0EFF90100F24062440561828001115F
:1047600006CE22CC0010A30704FE230704FE231666
:1047700004FE91A08357C4FE138717002316E4FE9E
:104780001307F00F6376F7008547A307F4FE15A81B
:10479000BD451385C1F8EFD05F98AA872307F4FEC3
:1047A00003A781818967938707F4B357F702A94567
:1047B0003E85EFB01FC30347E4FE9307B006E31B3B
:1047C000F7FA8347F4FE3E85F24062440561828039
:1047D000011106CE22CC0010A30704FE230704FE1D
:1047E000231604FE89A08357C4FE138717002316DF
:1047F000E4FE1307F00F6376F7008547A307F4FE86
:104800000DA8B5453545EFF0BFE2AA872307F4FEB2
:1048100003A781818967938707F4B357F702A945F6
:104820003E85EFB01FBC0347E4FE9307F00FE31C87
:10483000F7FA8347F4FE3E85F240624405618280C8
:10484000011106CE22CC0010930784FE99463E86C5
:10485000930580021385C1F8EFD06FFC834794FE67
:10486000A207139707014187834784FEC207C187C8
:10487000D98F1397070141872391E18C8347B4FEB9
:10488000A2071397070141878347A4FEC207C18788
:10489000D98F1397070141872392E18C8347D4FE78
:1048A000A2071397070141878347C4FEC207C18748
:1048B000D98F1397070141872393E18C0100F240C0
:1048C000624405618280011106CE22CC001093075C
:1048D00084FE99463E86930520021385C1F8EFD0E9
:1048E0000FF4834794FEA20713970701418783477C
:1048F00084FEC207C187D98F139707014187239E82
:10490000E18A8347B4FEA2071397070141878347D3
:10491000A4FEC207C187D98F139707014187239F40
:10492000E18A8347D4FEA207139707014187834793
:10493000C4FEC207C187D98F13970701418723900F
:10494000E18C0100F240624405618280011106CED3
:1049500022CC00101306000485451385C1F8EFD062
:104960000FD9930520021385C1F8EFD00FFBAA875A
:10497000A307F4FE8347F4FE858B93F7F70FB5CBBF
:10498000930784FE99463E8689451385C1F8EFD08A
:104990000FE9834794FEA2071397070141878347D6
:1049A00084FEC207C187D98F1397070141872394DB
:1049B000E18C8347B4FEA207139707014187834721
:1049C000A4FEC207C187D98F13970701418723959A
:1049D000E18C8347D4FEA2071397070141878347E1
:1049E000C4FEC207C187D98F139707014187239659
:1049F000E18C014685451385C1F8EFD04FCF01000A
:104A0000F240624405618280011106CE22CC001082
:104A1000A30704FE03A781818967938707F4B3572F
:104A2000F702A9453E85EFB0DF9B130760089306A8
:104A3000500829469305B0061385C1F8EFD0AFF9A9
:104A4000014685451385C1F8EFD06FCA0546C945B3
:104A50001385C1F8EFD0AFC903A781818967938718
:104A600007F4B357F70289453E85EFB09F9701469B
:104A700085451385C1F8EFD08FC7EFF05FCEAA87C9
:104A800095C39306701BB7F7010013868720B7F70D
:104A90000100938587260145EF00902C8547A307E9
:104AA000F4FE8DAA0D46B5451385C1F8EFD02FC48D
:104AB0001306C003C1451385C1F8EFD04FC31306D9
:104AC000C005C5451385C1F8EFD06FC21306400479
:104AD000C9451385C1F8EFD08FC10946CD4513856F
:104AE000C1F8EFD0CFC00146D1451385C1F8EFD052
:104AF0000FC00146D5451385C1F8EFD04FBF014621
:104B0000D9451385C1F8EFD08FBE0546E145138521
:104B1000C1F8EFD0CFBD1306000485451385C1F859
:104B2000EFD0EFBC13060008D1451385C1F8EFD0D4
:104B30000FBC03A781818967938707F4B357F702F6
:104B400089453E85EFB0FF890146D1451385C1F8FF
:104B5000EFD0EFB903A781818967938707F4B35733
:104B6000F70289453E85EFB0DF8713060008A945A7
:104B70003545EFF0BF9E03A781818967938707F4CE
:104B8000B357F70289453E85EFB0BF850146A94579
:104B90003545EFF0BF9C03A781818967938707F4B0
:104BA000B357F70289453E85EFB0BF83EFF05FC290
:104BB000AA8795C39306201EB7F7010013868720A6
:104BC000B7F70100938507290145EF007019854764
:104BD000A307F4FE81A06546A5453545EFF01F9873
:104BE0000546AD453545EFF07F9781453545EFF0FA
:104BF0005FB0014685451385C1F8EFD04FAF03A7DD
:104C000081818967938707F4B357F702D1453E85C1
:104C1000EFB02FFD8347F4FE3E85F240624405610C
:104C20008280411122C60008010032444101828085
:104C3000411122C60008B71702409843B717024037
:104C40001367170098C3B7170240D443B717024041
:104C50003707FFF8758FD8C3B71702409443B717CB
:104C600002403707F7FE7D17758F98C3B7170240CC
:104C70009443B71702403707FCFF7D17758F98C321
:104C8000B7170240D443B7170240370781FF7D179B
:104C9000758FD8C3B717024037079F0098C7010028
:104CA000324441018280797122D60018232EA4FC5F
:104CB000232604FE232404FEB71702409443B717AB
:104CC00002404167558F98C3B71702409843B70712
:104CD0000200F98F2324F4FE8327C4FE85072326D0
:104CE000F4FE832784FE91E70327C4FE8567E31D56
:104CF000F7FCB71702409843B7070200F98F89C73E
:104D000085472324F4FE19A0232404FE032784FEF0
:104D100085476312F71637170240B717024058430A
:104D2000D8C337170240B71702405843D8C33717C4
:104D30000240B71702405843D8C3B7170240D443C4
:104D4000B71702403707C1FF7D17758FD8C30327F8
:104D5000C4FDB747950893870740631BF700B71753
:104D60000240D443B71702404167558FD8C355A8B6
:104D70000327C4FDB7172707938707E0631CF700D5
:104D8000B7170240D443B717024037073900558F91
:104D9000D8C341A80327C4FDB7E7B80593870780A8
:104DA000631CF700B7170240D443B7170240370718
:104DB0002900558FD8C3B5A00327C4FDB7A74A045F
:104DC00093870720631CF700B7170240D443B71737
:104DD000024037071D00558FD8C3A1A00327C4FD8B
:104DE000B777DC02938707C0631CF700B717024050
:104DF000D443B717024037071100558FD8C315A009
:104E00000327C4FDB7376E0193870760631BF70064
:104E1000B7170240D443B717024037070500558F34
:104E2000D8C3B71702409443B717024037070001B1
:104E3000558F98C30100B71702409843B707000287
:104E4000F98FF5DBB7170240D843B7170240719BC3
:104E5000D8C3B7170240D843B717024013672700DB
:104E6000D8C30100B7170240DC4313F7C700A147BE
:104E7000E31AF7FE11A001A03254456182800111AE
:104E800006CE22CC00102326A4FE0327C4FE23ACAA
:104E9000E180EFF0FFD90325C4FEEFF0DFE0EF1073
:104EA00050180100F240624405618280411122C61F
:104EB000000801000100324441018280011106CE48
:104EC00022CC0010232604FE232404FE232604FE05
:104ED0002DA0232404FE01A8EFF05FFD832784FEAC
:104EE00085072324F4FE032784FEC167E366F7FEEB
:104EF0008327C4FE85072326F4FE0327C4FE9307F9
:104F0000F00FE3F8E7FC0100F240624405618280A3
:104F1000411122C600080100324441018280011182
:104F200006CE22CC00102326A4FE8325C4FE09450C
:104F3000EFD07FB90100F240624405618280130125
:104F400001D9232611262324812623229126801C81
:104F5000232EA4D8232CB4D8232AC4D82328D4D8C9
:104F6000231504FE231404FE231304FE231204FE5F
:104F7000231104FE032584D9EF708124AA87C20778
:104F8000C1872313F4FE83D7C1F989C79387C1F979
:104F90009C4B829783C7E18C93F7F70F6383074C91
:104FA00083D7C1F9638B07449387C1F9D4478357EB
:104FB00024FE13970701418793170701C1838507D3
:104FC000C207C183C207C1872311F4FE93170701EB
:104FD000C1830326C4D9BE8501458296832784D91F
:104FE0002326F4FE032584D9EF70811DAA87C2070A
:104FF000C1872313F4FE9387C1F983D727003E8727
:105000009387C1F983C76700B347F702C207C18717
:105010002312F4FE01008327C4FE13871700232602
:10502000E4FE83870700E5FB231404FEA1A8832781
:10503000C4FEFD172326F4FE8327C4FE0387070062
:105040009307F002630AF7008327C4FE0387070073
:105050009307C005631BF700835784FEC207C18313
:105060008507C207C1832314F4FE835764FEC20779
:10507000C187C207C183FD17C207C183C207C187A9
:105080002313F4FE835784FE13970701418385475A
:1050900063E8E700835764FEC207C187E3D907F8D6
:1050A000835764FEC207C18763C307028327C4FE18
:1050B00085072326F4FE130704EE0326C4FEB7F784
:1050C00001009385472B3A85EF7081092DA88357FE
:1050D00084FEC207C18389EF130704EE0326C4FED2
:1050E000B7F701009385072C3A85EF70610721A877
:1050F000130704EE0326C4FEB7F701009385472B80
:105100003A85EF70E105231504FE21AA231404FE5D
:1051100059A0930704EE3E85EF70810A2A878357D2
:1051200084FEC207C183BE868357A4FEC207C18323
:105130003E86835744FEC207C187B307F602B6977F
:105140006367F706835784FEC207C1833E87835790
:10515000A4FEC207C183BE86835744FEC207C1872F
:10516000B387F602BA97035784FE42074183BA8693
:10517000130704FFBA97038707EF930704FFB69757
:105180002388E7EA835784FEC207C1838507C207E5
:10519000C1832314F4FE835784FEC207C1833E8774
:1051A000835744FEC207C187E345F7F611A001000B
:1051B000835784FEC207C183130704FFBA9723886D
:1051C00007EA9387C1F903A8C7009387C1F983C78A
:1051D0007700139707014183835724FE93960701B5
:1051E000C18693970601C1838507C207C183C207A1
:1051F000C1872311F4FE93970601C183B307F70219
:10520000C207C183130704EA3A86BE8501450298A6
:105210008357A4FEC207C1838507C207C183231534
:10522000F4FE8357A4FEC207C183BE84930704EE35
:105230003E85EF60F1782A87835744FEC207C18715
:10524000B357F7028507E3E3F4EC130704EE0326F4
:1052500044D9B7F701009385072D3A85EF60517067
:105260009387C1F903A8C7009387C1F983C7770063
:10527000139707014183835724FE93960701C18644
:1052800093970601C1838507C207C183C207C187FF
:105290002311F4FE93970601C183B307F702C207F7
:1052A000C183130704EE3A86BE8501450298832721
:1052B00004D96388071A231504FE21AA231404FEC7
:1052C00059A0032504D9EF60B16F2A87835784FE64
:1052D000C207C183BE868357A4FEC207C1833E8630
:1052E000835744FEC207C187B307F602B6976368C7
:1052F000F706835784FEC207C1833E878357A4FE07
:10530000C207C183BE86835744FEC207C187B387E5
:10531000F602BA973E87832704D9BA97035784FECB
:1053200042074183BA8603870700930704FFB697B5
:105330002388E7EA835784FEC207C1838507C20733
:10534000C1832314F4FE835784FEC207C1833E87C2
:10535000835744FEC207C187E345F7F611A0010059
:10536000835784FEC207C183130704FFBA972388BB
:1053700007EA9387C1F903A8C7009387C1F983C7D8
:105380007700139707014183835724FE9396070103
:10539000C18693970601C1838507C207C183C207EF
:1053A000C1872311F4FE93970601C183B307F70267
:1053B000C207C183130704EA3A86BE8501450298F5
:1053C0008357A4FEC207C1838507C207C183231583
:1053D000F4FE8357A4FEC207C183BE84032504D90B
:1053E000EF60115E2A87835744FEC207C187B35717
:1053F000F7028507E3E4F4ECADA0930704DA1306A3
:10540000001081453E85EFA0BFDF9387C1F99C471F
:105410000325C4D98297832704D985C3130504DAE9
:10542000032704D9832644D9032684D9B7F701007A
:105430009385C72DEF60D15231A8130704DA832674
:1054400044D9032684D9B7F701009385872F3A857D
:10545000EF6011519387C1F99847930704DA3E85AD
:10546000029701008320C12603248126832441263C
:10547000130101278280797106D622D40018232EC9
:10548000A4FC232CB4FC232AC4FC232604FEB9A0CC
:105490000100B7070200938707C99C4793050004E2
:1054A0003E85EF400055AA87EDD7B70702009387E6
:1054B00007C99C47BE86832784FD13871700232CCA
:1054C000E4FC83870700C207C183BE853685EF40B1
:1054D000604F8327C4FE85072326F4FE0327C4FEFE
:1054E000832744FDE346F7FA832744FD3E85B25007
:1054F000225445618280011106CE22CC0010AA8779
:105500002324B4FE2322C4FEA307F4FE8347F4FE43
:10551000B9E383C7C18193F7F70F95CF83C7F18CA8
:1055200091C301A083C7F18C850713F7F70FA387F9
:10553000E18CEF10402CEFF0BF9D8146032644FE26
:10554000832584FEB7F7010013850731EFF03F9FF5
:10555000EFF0DF96DDB70100F24062440561828022
:10556000011106CE22CC0010AA872324B4FE2322E8
:10557000C4FE2320D4FEA307F4FE8347F4FE9DE37C
:1055800083C7E18C93F7F70F99CF832684FE032618
:1055900004FE832544FEB7F7010013850732EFF0C0
:1055A0001F9A11A001000100F2406244056182804F
:1055B000011122CE00102326A4FE8327C4FE2390CF
:1055C00007008327C4FE7D572391E7008327C4FE8D
:1055D0007D572392E7008327C4FE7D572383E7008E
:1055E0008327C4FE7D57A383E7008327C4FE23A43B
:1055F00007008327C4FE23A607008327C4FE23A831
:1056000007000100724405618280011122CE001062
:105610002326A4FE8327C4FE03D70700239EE1F8B8
:105620008327C4FE03D727009387C1F92391E7009E
:105630008327C4FE03D747009387C1F92392E7006D
:105640008327C4FE03C767009387C1F92383E7005C
:105650008327C4FE03C777009387C1F9A383E700BC
:105660008327C4FE98479387C1F998C78327C4FE50
:10567000D8479387C1F9D8C78327C4FE984B93872F
:10568000C1F998CB05472387E18C0100724405617D
:105690008280797106D622D400189307C4FD3E8516
:1056A000EFF01FF1B75700009387E7F12322F4FED4
:1056B0009307C4FD3E85EFF05FF589679386B702D7
:1056C00089671386A702F167938507200945EFD004
:1056D0002FD40100B250225445618280011122CEA4
:1056E00000102326A4FE2324B4FE8327C4FED8473B
:1056F000832784FE3E978327C4FED8C719A8832733
:10570000C4FED8478327C4FE9C4F1D8F8327C4FE49
:10571000D8C78327C4FE984F8327C4FEDC47E3F035
:10572000E7FE0100724405618280011122CE001063
:105730002326A4FE2324B4FE8327C4FE984B83278C
:1057400084FE3E978327C4FE98CB19A88327C4FE06
:10575000984B8327C4FE9C4F1D8F8327C4FE98CB94
:105760008327C4FE984F8327C4FE9C4BE3F0E7FEDB
:105770000100724405618280797106D622D4001836
:10578000232EA4FC8327C4FDB337F00093F7F70F53
:105790003E8713064005B7F701009385C7323A8567
:1057A000EFF07FD5232604FE8327C4FD83C70700BF
:1057B000858B93F7F70F89C789472326F4FE7DA0D1
:1057C0008327C4FD83C7070093E7170013F7F70F7C
:1057D0008327C4FD2380E7008327C4FD23A6070099
:1057E0008327C4FD23A807008327C4FD984F832780
:1057F000C4FDD8CB8327C4FDDC4305476383E702A0
:1058000089C70947638CE702B9A08327C4FD98477D
:105810008327C4FD9C4F3E8681453A85EFA05F9E5D
:105820001DA88327C4FD98478327C4FD9C4F860786
:105830003E8681453A85EFA0BF9C31A88327C4FDF1
:1058400098478327C4FD9C4F8A073E8681453A8549
:10585000EFA01F9B01008327C4FD83C70700F99BAE
:1058600013F7F70F8327C4FD2380E7008327C4FEC7
:105870003E85B250225445618280011106CE22CC71
:1058800000102326A4FE8327C4FEB337F00093F74D
:10589000F70F3E871306C007B7F701009385C7329D
:1058A0003A85EFF05FC58327C4FE984F8327C4FE77
:1058B000DC4BB307F7403E85F240624405618280CD
:1058C000797106D622D40018232EA4FC232CB4FC14
:1058D000232AC4FC8327C4FDB337F00093F7F70FE6
:1058E0003E871306C00BB7F701009385C7323A8590
:1058F000EFF07FC0232604FE232404FE832784FDCB
:1059000089E78D472326F4FE45AC8327C4FD83C772
:105910000700898B93F7F70F89C785472326F4FE85
:1059200061AC8327C4FD83C7070093E7270013F703
:10593000F70F8327C4FD2380E7008327C4FDDC4BDA
:10594000032744FD63ECE7248327C4FD984F832796
:10595000C4FDDC47B307F7402324F4FE032744FDCE
:10596000832784FE63F2E7188327C4FDDC430547E1
:10597000638FE70689C709476389E70E31A4832748
:10598000C4FD98478327C4FDDC47BA97032684FEED
:10599000832584FD3E85EF50313F832584FE03251A
:1059A000C4FDEFF0BFD38327C4FD98478327C4FD10
:1059B000DC47B306F700032784FD832784FEB30585
:1059C000F700032744FD832784FEB307F7403E8694
:1059D0003685EF50713B032744FD832784FEB307D0
:1059E000F740BE850325C4FDEFF05FCF71AA832782
:1059F000C4FD98478327C4FDDC4786073E9783276D
:105A000084FE86073E86832584FD3A85EF50D13794
:105A1000832584FE0325C4FDEFF05FCC8327C4FDFE
:105A200098478327C4FDDC478607B306F700832722
:105A300084FE8607032784FDB305F700032744FD92
:105A4000832784FEB307F74086073E863685EF50EE
:105A5000B133032744FD832784FEB307F740BE8597
:105A60000325C4FDEFF09FC705A28327C4FD984717
:105A70008327C4FDDC478A073E97832784FE8A0775
:105A80003E86832584FD3A85EF501130832584FEC0
:105A90000325C4FDEFF09FC48327C4FD98478327E7
:105AA000C4FDDC478A07B306F700832784FE8A0714
:105AB000032784FDB305F700032744FD832784FEF5
:105AC000B307F7408A073E863685EF50F12B032750
:105AD00044FD832784FEB307F740BE850325C4FD3C
