:100000006F50100F130000001300000013000000D9
:100010001300000013000000130000001300000094
:100020001300000013000000130000001300000084
:08003000130000007300100032
:1000380000000000000000004A5700005A57000066
:10004800000000003658000000000000000000001A
:10005800385800003A580000000000000000000076
:100068003C580000000000003E580000000000005E
:10007800405800004258000044580000465800000C
:10008800485800004A580000324E0000A64E0000B2
:100098001A4F00008E4F0000025000005658000012
:1000A800585800005A5800005C5800005E5800007C
:1000B800605800006258000064580000665800004C
:1000C800685800006A5800006C580000765000001C
:1000D8007058000032520000745800007658000032
:1000E800C65200003E530000DA5300007E5800005C
:1000F800805800008258000084580000865800008C
:100108008858000084490000084A00008C4A000012
:100118004E51000092580000945800009658000074
:10012800D25500009A5800009C5800009E580000C4
:10013800A0580000A25800005A540000A658000019
:10014800104B0000944B0000DA5400005255000098
:10015800B0580000B2580000B4580000B65800006B
:10016800B8580000BA580000BC580000BE5800003B
:10017800C0580000C2580000C4580000627F000048
:10018800C8580000CA580000A24D0000164C0000D4
:100198009A4C0000224D0000D4580000525600002E
:1001A800D8580000DA580000DC580000D256000089
:1001B800E0580000E2580000E4580000E65800004B
:1001C800E8580000EA580000EC580000EE5800001B
:1001D8000000000000000000000000000000000017
:1001E8000000000000000000000000000000000007
:0801F8000000000000000000FF
:100200003D432A876373C3029377F700BDEFADE5E3
:10021000937606FF3D8ABA960CC34CC30CC74CC7F5
:100220004107E36BD7FE11E28280B306C3408A0622
:100230009702000096966780A6002307B700A306E2
:10024000B7002306B700A305B7002305B700A30432
:10025000B7002304B700A303B7002303B700A3022A
:10026000B7002302B700A301B7002301B700A30022
:10027000B7002300B700828093F5F50F93968500B1
:10028000D58D93960501D58D61B79396270097027A
:10029000000096968682E78086FA9680C1171D8FA9
:1002A0003E96E374C3F8A5B7797106D622D4001838
:1002B000232EA4FC8327C4FDB18393F7F70FBD8BD6
:1002C000A307F4FE8327C4FDA18393F7F70FBD8B2B
:1002D0002307F4FE0347F4FEB73700200A0793878D
:1002E00007A5BA979C430347E4FE91460546BA85A5
:1002F0003E85EF5010110347F4FEB73700200A0780
:10030000938707A5BA979C4385453E85EF50300BF0
:1003100001000347F4FEB73700200A07938707A5BB
:10032000BA979C4389453E85EF503032AA87F5D372
:100330000347F4FEB73700200A07938707A5BA974B
:100340009C43FC478346F4FE1387018D3697034791
:100350000700B3D7E700C207C1833E85B2502254DD
:1003600045618280797106D622D40018232EA4FC20
:10037000AE87A30DF4FC0347B4FD13060005B7D701
:1003800002009385C7FA3A85EF307075232404FE86
:10039000A30704FE05A00325C4FD3937AA873E87BD
:1003A000832784FEBA972324F4FE8347F4FE85074F
:1003B000A307F4FE0347F4FE8347B4FDE36DF7FCA7
:1003C0008347B4FD032784FEB357F7022324F4FECA
:1003D000832784FEC207C1833E85B2502254456103
:1003E00082805D7186C6A2C48008232EA4FA232CC5
:1003F000B4FA232604FC232804FC232A04FC232C1F
:1004000004FC232E04FC232004FE232204FE2324C8
:1004100004FE8327C4FBB18393F7F70FBD8BA307BB
:10042000F4FE8327C4FB93F7F70F8146014681450D
:100430003E85EF00B03F8347F4FE99E785451305FD
:100440000020EF60804619A80347F4FE8547631734
:10045000F700854513050040EF6020453165EF60EA
:1004600000140347F4FEB73700200A07938707A557
:10047000BA979C433E85EF504050232604FC232826
:1004800004FC232A04FCB7070E00232CF4FC232EC3
:1004900004FC85472300F4FE0347F4FEB737002031
:1004A0000A07938707A5BA979C431307C4FCBA852C
:1004B0003E85EF5080520347F4FEB73700200A070D
:1004C000938707A5BA979C4385453E85EF50006109
:1004D0000347F4FEB73700200A07938707A5BA97AA
:1004E0009C4381453E85EF50F0190347F4FEB73732
:1004F00000200A07938707A5BA979C433E85EF50D3
:10050000C06101000347F4FEB73700200A07938754
:1005100007A5BA979C433E85EF504062AA87FDF33A
:100520000347F4FEB73700200A07938707A5BA9759
:100530009C433E85EF50806301000347F4FEB737CC
:1005400000200A07938707A5BA979C433E85EF5082
:100550000064AA87FDF38346F4FE832784FB13F728
:10056000F70F9387018DB6972380E7000100B6400F
:10057000264461618280011122CE00102326A4FE50
:1005800037F500E08328450037F500E093F8E8FFF1
:100590002322150183A801820965130505F433D5CB
:1005A000A802AA8601470325C4FEAA87014837F599
:1005B00000E03303F702B308D8029A983383F602B7
:1005C00033B6F6029A85B387C8003E860CC950C977
:1005D000B7F700E09843B7F700E01367070198C347
:1005E000B7F700E09843B7F700E01367170298C326
:1005F0000100B7F700E0DC4313F717008547E31A63
:10060000F7FEB7F700E09843B7F700E0799B98C38F
:100610000100724405618280011122CE0010232660
:10062000A4FE37F500E08328450037F500E093F895
:10063000E8FF2322150183A8018237157A001305EC
:10064000052033D5A802AA8601470325C4FEAA8740
:10065000014837F500E03303F702B308D8029A984F
:100660003383F60233B6F6029A85B387C8003E8616
:100670000CC950C9B7F700E09843B7F700E013671B
:10068000070198C3B7F700E09843B7F700E0136796
:10069000170298C30100B7F700E0DC4313F7170017
:1006A0008547E31AF7FEB7F700E09843B7F700E095
:1006B000799B98C30100724405618280797106D6E6
:1006C00022D40018232EA4FC231704FE231604FEB4
:1006D0000327C4FDA54763E1E70C8327C4FD1397F7
:1006E0002700B7E7020093878701BA979C43828768
:1006F000B7370140938707C083D74702C207C1833A
:100700002317F4FE69A8B707004083D74702C20742
:10071000C1832317F4FE61A0B70700409387074009
:1007200083D74702C207C1832317F4FE8DA8B717EA
:1007300000409387078083D74702C207C1832317EE
:10074000F4FEB1A8B7170040938707C083D74702CC
:10075000C207C1832317F4FE99A0B73701409387DE
:10076000074083D74702C207C1832317F4FE05A8B9
:10077000B7570140938707C083D74702C207C18399
:100780002317F4FE29A8B757014083D74702C207B1
:10079000C1832317F4FE21A0231704FE0100B7072D
:1007A0000020138707008327C4FDBA9783C707007B
:1007B00013F7F70F9307F00F6317F7008357E4FE63
:1007C0002316F4FE35A8B7070020138707008327F8
:1007D000C4FDBA9783C7070093F7F70F3E85EF0074
:1007E000D000AA8791EB8357E4FEB307F040C2071D
:1007F000C1832316F4FE29A08357E4FE2316F4FEDA
:100800008317C4FE3E85B250225445618280011197
:1008100022CE00102326A4FE0327C4FEA54763E1D1
:10082000E7088327C4FE13972700B7E702009387E2
:100830000704BA979C438287B7370140938707C064
:1008400023920702B9A8B70700402392070291A894
:10085000B7070040938707402392070299A0B71774
:100860000040938707802392070225A8B71700400E
:10087000938707C0239207022DA0B73701409387C3
:1008800007402392070231A8B7570140938707C05A
:100890002392070239A0B75701402392070211A003
:1008A00001000100724405618280397106DE22DC9C
:1008B00080002326A4FC2324B4FC2322C4FC23268A
:1008C00004FE91450325C4FCEF20A041AA873E8782
:1008D0001306100DB7D70200938587003A85EF30D5
:1008E00010208327C4FC1397C700832784FC7D8FC7
:1008F0008327C4FCB207B307F74093B7170093F7F9
:10090000F70F3E871306200DB7D7020093858700A7
:100910003A85EF30D01C8327C4FC1397C700832788
:1009200044FC7D8F8327C4FCB207B307F74093B71D
:10093000170093F7F70F3E871306300DB7D7020065
:10094000938587003A85EF3090190325C4FCEF208A
:10095000A03F832784FC93F7F70F9306800401469A
:1009600081453E85E125832744FC93F7F70F9306E5
:100970008004014681453E85552D832784FC13F76D
:10098000F70FB7070020938607008327C4FCB697AC
:100990002380E7000327C4FCA54763E1E70883271A
:1009A000C4FC13972700B7E7020093878706BA971E
:1009B0009C438287B7370140938707C02324F4FE06
:1009C0008DA0B70700402324F4FEA1A8B70700407C
:1009D000938707402324F4FEA9A0B717004093870C
:1009E00007802324F4FE35A8B7170040938707C07B
:1009F0002324F4FE3DA0B73701409387074023240A
:100A0000F4FE05A0B7570140938707C02324F4FEE6
:100A100009A8B75701402324F4FE21A085472326C7
:100A2000F4FE85450545EF505068832784FC13D7B5
:100A300087008D47631AF7008545B70716001385B1
:100A4000070CEF505019E5A8832784FC13D78700C3
:100A5000C547631AF7008545B707180013850710C7
:100A6000EF507017E9A8832784FC13D787009307FA
:100A70002002631AF7008545B7171A00138507800F
:100A8000EF5070156DA8832784FC13D78700930758
:100A90003002631AF7008545B7171A00138507C09F
:100AA000EF50701369A8832784FC13D7870093073E
:100AB00010036317F70085450565EF50D01141A07D
:100AC000832784FC13D7870093071007631AF70066
:100AD0008545B707008013854700EF50D00F85A0EC
:100AE000832784FC13D7870093073008631AF70025
:100AF0008545B707138013850701EF50D00D81A0FE
:100B0000832784FC13D7870093071009631AF70023
:100B10008545B707158013850702EF50D00B05A058
:100B2000832784FC13D78700930730096319F700E4
:100B30008545B707158013850704EF50D009832733
:100B4000C4FEA9EB232E04FC232004FE231204FE82
:100B50009307C4FD3E85EF603008231E04FCFD575B
:100B60002310F4FE231104FE231F04FC230204FEC1
:100B70009307C4FDBE85032584FEEF600001930545
:100B80000006032584FEEF60701B8545032584FE67
:100B9000EF6050080100F250625421618280797147
:100BA00006D622D40018232EA4FC232CB4FC8327C1
:100BB000C4FD93B7070493F7F70F3E87130680032E
:100BC000B7D70200938587063A85EF3040718327B7
:100BD00084FD93B7470093F7F70F3E871306900302
:100BE000B7D70200938587063A85EF30406FA30799
:100BF00004FE0327C4FDA167BA9713972700832734
:100C000084FDBA97AA072324F4FEEF30B0532322C1
:100C1000A4FEB7172707138507E0EF20B067231658
:100C200004FE35A00357C4FE832784FEBA97984379
:100C3000B7E739E3938797336306F7008547A30740
:100C4000F4FE21A88357C4FE91072316F4FE035730
:100C5000C4FE9307F03FE3F7E7FC83A701823E85DC
:100C6000EF205063032544FEEF30D04A8347F4FE63
:100C70003E85B250225445618280797106D622D4D5
:100C80000018232EA4FC232CB4FC8327C4FD93B7A7
:100C9000070493F7F70F3E871306C005B7D7020086
:100CA000938587063A85EF308063832784FD93B769
:100CB000470093F7F70F3E871306D005B7D702001A
:100CC000938587063A85EF308061A30704FE0327EA
:100CD000C4FDA167BA9713972700832784FDBA97AD
:100CE000AA072324F4FEEF30F0452322A4FEB71711
:100CF0002707138507E0EF20F059EF504024130534
:100D00004003EF50803A032584FEEF50C0272A8726
:100D1000B737002023ACE7A413050002EF50E038FA
:100D2000EF508024B737002003A787A591476305BC
:100D3000F7008547A307F4FE83A701823E85EF20D5
:100D40007055032544FEEF30F03C8347F4FE3E85AA
:100D5000B250225445618280797106D622D400189F
:100D6000232EA4FC232CB4FC8327C4FD93B70704D3
:100D700093F7F70F3E871306F00CB7D70200938561
:100D800087063A85EF30A055832784FD93B7470047
:100D900093F7F70F3E871306000DB7D70200938530
:100DA00087063A85EF30A0530327C4FDA167BA97A1
:100DB00013972700832784FDBA97AA072324F4FEFC
:100DC000EF3050382322A4FEB7172707138507E01A
:100DD000EF20504C231704FE3DA08357E4FE8A0702
:100DE0003E87832784FEBA978356E4FE9843B7373D
:100DF00000208A06938787C9B69798C38357E4FE75
:100E000085072317F4FE0357E4FE9307F00FE3F67C
:100E1000E7FC83A701823E85EF20D047032544FEEF
:100E2000EF30502F0100B250225445618280797119
:100E300006D622D40018232EA4FC232CB4FC83272E
:100E4000C4FD93B7070493F7F70F3E871306A00E70
:100E5000B7D70200938587063A85EF30404883274D
:100E600084FD93B7470093F7F70F3E871306B00E44
:100E7000B7D70200938587063A85EF304046A3072F
:100E800004FE232404FE231304FE0327C4FDA167EC
:100E9000BA9713972700832784FDBA97AA072324BC
:100EA000F4FE832584FD0325C4FDD539AA8791C7A7
:100EB000832584FD0325C4FDC933EF30B0282320EA
:100EC000A4FEB7172707138507E0EF20B03CEF50CB
:100ED0000007A9A0035764FEB73700200A079387CD
:100EE00087C9BA979C43BE85032584FEEF50001145
:100EF0002A8723A6E18003A7C18091476306F700F4
:100F00008547A307F4FE0DA0835764FE85072313CE
:100F1000F4FE832784FE91072324F4FE035764FE26
:100F20009307F00FE3F8E7FAEF50000483A701827C
:100F30003E85EF203036032504FEEF30B01D834799
:100F4000F4FE3E85B250225445618280411106C6AE
:100F500022C40008130600409305F00FB7370020A5
:100F6000138587C9EFF0CFA90100B24022444101A7
:100F70008280011122CE00102326A4FEAE87A30595
:100F8000F4FE8347B4FE85CB8327C4FEBD8B0547A3
:100F9000B317F70093960701C1828327C4FE13D7C6
:100FA0005700B70700200A079387C700BA979C43EA
:100FB000368798CB3DA08327C4FEBD8B0547B3176A
:100FC000F70093960701C1828327C4FE13D7570009
:100FD000B70700200A079387C700BA979C43368754
:100FE000D8CB0100724405618280011122CE00102D
:100FF0002326A4FE8327C4FE958313F77700B70743
:1010000000200A079387C700BA979C439C47032791
:10101000C4FE7D8B85463397E600F98FB337F00029
:1010200093F7F70F3E85724405618280797106D689
:1010300022D40018232EA4FC232CB4FCB28723282E
:10104000D4FCA30BF4FC232004FE232204FE23245F
:1010500004FE8327C4FD958393F7F70F9D8BA307A9
:10106000F4FE8327C4FD93F7F70FFD8B2307F4FEEF
:101070008347F4FE91E785451145EF50100391A891
:101080000347F4FE85476317F70085452145EF5078
:10109000D00181A00347F4FE89476317F700854517
:1010A0004145EF50900035A00347F4FE8D4763188B
:1010B000F700854513050002EF50207F19A803476C
:1010C000F4FE91476317F700854513050004EF50C0
:1010D000C07D8347E4FE0547B317F700C207C1830D
:1010E0002310F4FE032784FD85476317F702832747
:1010F00004FDC207C183A183C207C18389E78D476D
:101100002322F4FE11A8832704FDC207C183A18313
:10111000C207C1832322F4FE832704FDC207C183D3
:1011200093F7F70F2324F4FE0347F4FEB7070020DC
:101130000A079387C700BA979C43130704FEBA8532
:101140003E85EF502003032784FD85476319F7028E
:101150000347F4FEB70700200A079387C700BA9732
:1011600094438347E4FE0547B317F700C207C183E2
:10117000034774FD3A86BE853685EF504022010054
:10118000B2502254456182801D7186CEA2CC80105F
:101190002326A4FA2324B4FA85450325C4FAEF10C4
:1011A0005034AA873E871306D006B7D7020093852E
:1011B000C70E3A85EF30A012832784FAB337F000C8
:1011C00093F7F70F3E871306F006B7D70200938513
:1011D000C70E3A85EF30A010832784FABD8323150C
:1011E000F4FE8357A4FE85073E87832784FAB3D78E
:1011F000E7022314F4FE0325C4FAEF10F034B737E6
:101200000140938707C02326F4FE0327C4FAA547AD
:1012100063EDE7088327C4FA13972700B7E70200B6
:1012200093870709BA979C438287B7370140938712
:1012300007C02326F4FE95A8B70700402326F4FE36
:10124000ADA0B7070040938707402326F4FEB1A85E
:10125000B7170040938707802326F4FEB9A0B7177D
:101260000040938707C02326F4FE81A0B7170040F3
:101270002326F4FE1DA8B7170040938707402326B6
:10128000F4FE25A0B7370140938707402326F4FEDC
:1012900029A8B7570140938707C02326F4FE31A041
:1012A000B75701402326F4FE0100232E04FC23201F
:1012B00004FE231204FE835784FE2310F4FE83579A
:1012C000A4FE231EF4FC231104FE231F04FC2302AE
:1012D00004FE9307C4FDBE850325C4FEEF50F00A4B
:1012E000054685450325C4FEEF60401E8545032560
:1012F000C4FEEF60E05DB7D7020003AE470C138772
:10130000470C032347001387470C83288700138764
:10131000470C0328C7001387470C084B1387470C5B
:101320004C4B1387470C104F1387470C544F1387B0
:10133000470C18539387470CDC53232AC4FB232CF8
:1013400064FA232E14FB232004FD2322A4FC23246F
:10135000B4FC2326C4FC2328D4FC232AE4FC232C3D
:10136000F4FC8327C4FA93F7F70F8A07130704FFE7
:10137000BA9783A747FC8D453E85EF3020578327DA
:10138000C4FA8A07130704FFBA9783A747FC3E8570
:10139000EF30405285450325C4FEEF60A0070100F1
:1013A000F640664425618280797106D622D4001801
:1013B000232EA4FC232CB4FC032784FD8967938788
:1013C0001771B337F70093F7F70F3E8713065003F3
:1013D000B7D70200938587143A85EF205070B7374E
:1013E0000140938707C02326F4FE8327C4FDC183F1
:1013F000BD8B2547636FF70613972700B7E70200F9
:101400009387870BBA979C438287B73701409387AE
:1014100007C02326F4FEB1A8B70700402326F4FE38
:1014200089A8B7070040938707402326F4FE91A0C0
:10143000B7170040938707802326F4FE1DA8B7172F
:101440000040938707C02326F4FE25A0B73701404C
:10145000938707402326F4FE29A8B75701409387B6
:1014600007C02326F4FE31A0B75701402326F4FE1F
:1014700001008327C4FE83D7C7022315F4FE035758
:10148000A4FE832784FD3307F702896793870771DA
:10149000B357F7022314F4FE8327C4FDA1838D8B79
:1014A00081EB8327C4FE035784FE239AE702A9A891
:1014B0008327C4FDA18313F7370085476319F7001D
:1014C0008327C4FE035784FE239CE70235A88327A5
:1014D000C4FDA18313F7370089476319F7008327F9
:1014E000C4FE035784FE239EE70239A88327C4FD68
:1014F000A18313F737008D476318F7008327C4FED5
:10150000035784FE2390E7040100B2502254456142
:101510008280797122D60018232EA4FC232CB4FCDF
:10152000232AC4FC231504FE231404FE03A701820E
:10153000832784FDB357F702C1832314F4FE03A766
:101540000182835784FE8507BE86832784FDB38787
:10155000F602B357F7022315F4FEB737014093871D
:1015600007C02326F4FE8327C4FDC183BD8B254716
:10157000636FF70613972700B7E702009387070EFC
:10158000BA979C438287B7370140938707C02326C9
:10159000F4FEB1A8B70700402326F4FE89A8B707D8
:1015A0000040938707402326F4FE91A0B717004020
:1015B000938707802326F4FE1DA8B7170040938762
:1015C00007C02326F4FE25A0B737014093870740C4
:1015D0002326F4FE29A8B7570140938707C0232686
:1015E000F4FE31A0B75701402326F4FE01008357D3
:1015F000A4FEFD171397070141838327C4FE23969A
:10160000E7028327C4FE035784FE2394E7020357AF
:10161000A4FE832744FD3307F70289679387077188
:10162000B357F7022313F4FE8327C4FDA1838D8BE8
:1016300081EB8327C4FE035764FE239AE702A9A81F
:101640008327C4FDA18313F7370085476319F7008B
:101650008327C4FE035764FE239CE70235A8832733
:10166000C4FDA18313F7370089476319F700832767
:10167000C4FE035764FE239EE70239A88327C4FDF6
:10168000A18313F737008D476318F7008327C4FE43
:10169000035764FE2390E7040100325445618280C1
:1016A0005D7186C6A2C48008232EA4FA232CB4FA46
:1016B000232AC4FA8327C4FBC1838D453E85EF10DE
:1016C0004062AA873E871306D00AB7D702009385E7
:1016D00087143A85EF20B040032744FB896793873E
:1016E0001771B337F70093F7F70F3E871306F00A29
:1016F000B7D70200938587143A85EF20503E232EFA
:1017000004FC232004FE231204FE232604FC2328C9
:1017100004FC232A04FC232C04FC231504FE832749
:10172000C4FBC183BD8B3E85EF1000628327C4FBE1
:1017300093F7F70F93068031014685453E85EFF01C
:10174000FF8E85450545EF504016B737014093871A
:1017500007C02326F4FE8327C4FBC183BD8B254726
:10176000636FF70613972700B7E702009387871088
:10177000BA979C438287B7370140938707C02326D7
:10178000F4FEB1A8B70700402326F4FE89A8B707E6
:101790000040938707402326F4FE91A0B71700402E
:1017A000938707802326F4FE1DA8B7170040938770
:1017B00007C02326F4FE25A0B737014093870740D2
:1017C0002326F4FE29A8B7570140938707C0232694
:1017D000F4FE31A0B75701402326F4FE0100832711
:1017E000C4FB13D7C7008D47631AF7008545B707B9
:1017F00016001385070CEF40103E15AA8327C4FB83
:1018000013D7C700C547631AF7008545B707180007
:1018100013850710EF40303C19AA8327C4FB13D768
:10182000C700C947631AF7008545B7071800138535
:101830000720EF40503AE5A88327C4FB13D7C70021
:10184000CD47631AF7008545B707180013850730A1
:10185000EF407038E9A88327C4FB13D7C70093076C
:101860002002631AF7008545B7171A001385078011
:10187000EF4070366DA88327C4FB13D7C7009307CA
:101880003002631AF7008545B7171A00138507C0A1
:10189000EF40703469A88327C4FB13D7C7009307B0
:1018A00010036317F70085450565EF40D03241A06E
:1018B0008327C4FB13D7C70093071007631AF700E9
:1018C0008545B707008013854700EF40D03085A0DD
:1018D0008327C4FB13D7C70093073008631AF700A8
:1018E0008545B707138013850701EF40D02E81A0EF
:1018F0008327C4FB13D7C70093071009631AF700A7
:101900008545B707158013850702EF40D02C05A049
:101910008327C4FB13D7C700930730096319F70067
:101920008545B707158013850704EF40D02A03A724
:101930000182832784FBB357F702C1832315F4FE8A
:1019400003A701828357A4FE8507BE86832784FBF5
:10195000B387F602B357F7022314F4FE035784FE4D
:10196000832744FB3307F702896793870771B357CF
:10197000F7022313F4FE835784FEFD17C207C183C9
:101980002310F4FE8357A4FE231EF4FC231104FE4F
:10199000231F04FC230204FE9307C4FDBE85032518
:1019A000C4FEEF50801E930700072316F4FC854702
:1019B0002317F4FC231804FC835764FE2319F4FC5A
:1019C0008947231AF4FC8947231BF4FC231C04FCDD
:1019D000231D04FC8327C4FBA1838D8B9DE3930708
:1019E000C4FCBE850325C4FEEF500032A14503258B
:1019F000C4FEEF50F03D91450325C4FEEF50105258
:101A000045A08327C4FBA18313F7370085476315DF
:101A1000F7029307C4FCBE850325C4FEEF5080483F
:101A2000A1450325C4FEEF50703F930500400325F8
:101A3000C4FEEF507053ADA08327C4FBA18313F7FE
:101A4000370089476314F7029307C4FCBE8503255A
:101A5000C4FEEF504063A1450325C4FEEF50B041E2
:101A600091450325C4FEEF5090551DA88327C4FB64
:101A7000A18313F737008D476314F7029307C4FC63
:101A8000BE850325C4FEEF50C07DA1450325C4FEDD
:101A9000EF503043930500400325C4FEEF50F0564D
:101AA00085450325C4FEEF50701C85450325C4FE03
:101AB000EF5050160100B640264461618280797172
:101AC00006D622D40018232EA4FC8327C4FDB337E6
:101AD000F00093F7F70F3E8713061004B7D7020004
:101AE0009385471A3A85EF20807F8327C4FD9C4366
:101AF000BD8B0547B317F70093960701C182832773
:101B0000C4FD9C4313D75700B70700200A079387EB
:101B1000C700BA979C43368798CB8327C4FDDC4324
:101B2000BD8B0547B317F70093960701C182832742
:101B3000C4FDDC4313D75700B70700200A0793877B
:101B4000C700BA979C43368798CB8327C4FDDC47F0
:101B50002326F4FE01008327C4FE1387F7FF232604
:101B6000E4FEF5FB8327C4FDDC43BD8B0547B317BB
:101B7000F70093960701C1828327C4FDDC4313D786
:101B80005700B70700200A079387C700BA979C43FE
:101B90003687D8CB8327C4FDDC472324F4FE01001D
:101BA000832784FE1387F7FF2324E4FEF5FB8327B6
:101BB000C4FD9C43BD8B0547B317F70093960701FF
:101BC000C1828327C4FD9C4313D75700B707002069
:101BD0000A079387C700BA979C433687D8CB010082
:101BE000B250225445618280797106D622D4001801
:101BF000232EA4FC8327C4FDB337F00093F7F70F1F
:101C00003E8713064005B7D702009385471A3A85E9
:101C1000EF20E06C8327C4FDDC43BD8B0547B31781
:101C2000F70093960701C1828327C4FDDC4313D7D5
:101C30005700B70700200A079387C700BA979C434D
:101C40003687D8CB8327C4FD9C43BD8B0547B3178C
:101C5000F70093960701C1828327C4FD9C4313D7E5
:101C60005700B70700200A079387C700BA979C431D
:101C70003687D8CB8327C4FDDC472326F4FE01003A
:101C80008327C4FE1387F7FF2326E4FEF5FB832793
:101C9000C4FD9C43BD8B0547B317F700939607011E
:101CA000C1828327C4FD9C4313D75700B707002088
:101CB0000A079387C700BA979C43368798CB832738
:101CC000C4FDDC472324F4FE0100832784FE138730
:101CD000F7FF2324E4FEF5FB8327C4FDDC43BD8B23
:101CE0000547B317F70093960701C1828327C4FD08
:101CF000DC4313D75700B70700200A079387C700B4
:101D0000BA979C43368798CB8327C4FDDC472322B0
:101D1000F4FE0100832744FE1387F7FF2322E4FE2D
:101D2000F5FB0100B250225445618280797106D6DC
:101D300022D40018232EA4FCAE87A30DF4FC832725
:101D4000C4FDB337F00093F7F70F3E8713069006F4
:101D5000B7D702009385471A3A85EF20405883276A
:101D6000C4FD9C43BD8B0547B317F700939607014D
:101D7000C1828327C4FD9C4313D75700B7070020B7
:101D80000A079387C700BA979C433687D8CB834707
:101D9000B4FD95CB8327C4FDDC43BD8B0547B3174A
:101DA000F70093960701C1828327C4FDDC4313D754
:101DB0005700B70700200A079387C700BA979C43CC
:101DC000368798CB0DA88327C4FDDC43BD8B054720
:101DD000B317F70093960701C1828327C4FDDC4344
:101DE00013D75700B70700200A079387C700BA9791
:101DF0009C433687D8CB8327C4FDDC472326F4FEDB
:101E000001008327C4FE1387F7FF2326E4FEF5FBBA
:101E10008327C4FD9C43BD8B0547B317F7009396FA
:101E20000701C1828327C4FD9C4313D75700B7071E
:101E300000200A079387C700BA979C43368798CB40
:101E40008327C4FDDC472324F4FE0100832784FE9E
:101E50001387F7FF2324E4FEF5FB8327C4FD9C438F
:101E6000BD8B0547B317F70093960701C1828327FF
:101E7000C4FD9C4313D75700B70700200A07938778
:101E8000C700BA979C433687D8CB8327C4FDDC4371
:101E9000BD8B0547B317F70093960701C1828327CF
:101EA000C4FDDC4313D75700B70700200A07938708
:101EB000C700BA979C43368798CB0100B250225492
:101EC00045618280797106D622D40018232EA4FCA5
:101ED0008327C4FDB337F00093F7F70F3E8713064F
:101EE0005008B7D702009385471A3A85EF20203F64
:101EF000A30704FE8327C4FD9C43BD8B0547B3178E
:101F0000F70093960701C1828327C4FD9C4313D732
:101F10005700B70700200A079387C700BA979C436A
:101F20003687D8CB8327C4FDDC43BD8B0547B31769
:101F3000F70093960701C1828327C4FDDC4313D7C2
:101F40005700B70700200A079387C700BA979C433A
:101F5000368798CB8327C4FDDC472324F4FE010099
:101F6000832784FE1387F7FF2324E4FEF5FB8327F2
:101F7000C4FD9C43BD8B0547B317F700939607013B
:101F8000C1828327C4FD9C4313D75700B7070020A5
:101F90000A079387C700BA979C43368798CB832755
:101FA000C4FDDC472322F4FE0100832744FE13878F
:101FB000F7FF2322E4FEF5FB8327C4FDDC433E85C7
:101FC000EFF0AF82AA8781C78547A307F4FE832776
:101FD000C4FD9C43BD8B0547B317F70093960701DB
:101FE000C1828327C4FD9C4313D75700B707002045
:101FF0000A079387C700BA979C433687D8CB8327B5
:10200000C4FDDC472320F4FE0100832704FE138770
:10201000F7FF2320E4FEF5FB8347F4FE3E85B25034
:10202000225445618280797106D622D40018232E6D
:10203000A4FCAE87A30DF4FC8327C4FDB337F000E6
:1020400093F7F70F3E871306700AB7D70200938500
:10205000471A3A85EF20A028930700F8A307F4FE5B
:1020600009AA0347B4FD8347F4FEF98F93F7F70FEE
:1020700095CB8327C4FDDC43BD8B0547B317F70021
:1020800093960701C1828327C4FDDC4313D7570011
:10209000B70700200A079387C700BA979C43368783
:1020A00098CB0DA88327C4FDDC43BD8B0547B31730
:1020B000F70093960701C1828327C4FDDC4313D741
:1020C0005700B70700200A079387C700BA979C43B9
:1020D0003687D8CB8347F4FE8583A307F4FE832796
:1020E000C4FDDC472324F4FE0100832784FE13870C
:1020F000F7FF2324E4FEF5FB8327C4FD9C43BD8B3F
:102100000547B317F70093960701C1828327C4FDE3
:102110009C4313D75700B70700200A079387C700CF
:10212000BA979C43368798CB8327C4FDDC4723228C
:10213000F4FE0100832744FE1387F7FF2322E4FE09
:10214000F5FB8327C4FD9C43BD8B0547B317F70000
:1021500093960701C1828327C4FD9C4313D7570080
:10216000B70700200A079387C700BA979C433687B2
:10217000D8CB8347F4FEE39607EE0325C4FD9933DD
:10218000AA87FD17B337F00093F7F70F3E85B250DB
:10219000225445618280397106DE22DC26DA800015
:1021A0002326A4FCAE87A305F4FC8327C4FCB33725
:1021B000F00093F7F70F3E871306000CB7D7020025
:1021C0009385471A3A85EF208011A30704FEA147A3
:1021D0002307F4FE8327C4FC9C43BD8B0547B3173C
:1021E000F70093960701C1828327C4FC9C4313D751
:1021F0005700B70700200A079387C700BA979C4388
:102200003687D8CB8327C4FCDC472324F4FE0100A7
:10221000832784FE1387F7FF2324E4FEF5FB83273F
:10222000C4FCDC43BD8B0547B317F7009396070149
:10223000C1828327C4FCDC4313D75700B7070020B3
:102240000A079387C700BA979C43368798CB7DA827
:102250008327C4FC9C43BD8B0547B317F7009396B7
:102260000701C1828327C4FC9C4313D75700B707DB
:1022700000200A079387C700BA979C433687D8CBBC
:102280008327C4FCDC472322F4FE0100832744FE9D
:102290001387F7FF2322E4FEF5FB8327C4FC9C434E
:1022A000BD8B0547B317F70093960701C1828327BB
:1022B000C4FC9C4313D75700B70700200A07938735
:1022C000C700BA979C43368798CB8327C4FCDC476A
:1022D0002320F4FE0100832704FE1387F7FF232049
:1022E000E4FEF5FB8347F4FE860793948701E184BF
:1022F0008327C4FCDC433E85EFE03FCFAA87E2079B
:10230000E187C58FE207E187A307F4FE8347E4FE78
:102310001387F7FF2307E4FE85FF8327C4FC9C4354
:10232000BD8B0547B317F70093960701C18283273A
:10233000C4FC9C4313D75700B70700200A079387B4
:10234000C700BA979C433687D8CB8327C4FCDC47A9
:10235000232EF4FC01008327C4FD1387F7FF232EEF
:10236000E4FCF5FB8347B4FCBE850325C4FCEFF019
:10237000FF9B8347F4FE3E85F2506254D2542161A4
:102380008280011106CE22CC00102326A4FEAE8747
:102390003287A305F4FEBA872305F4FE8327C4FE23
:1023A000B337F00093F7F70F3E8713066013B7D7E4
:1023B00002009385471A3A85EF1070720325C4FE18
:1023C000EFF0EFEF8327C4FE83C78700860793F7FC
:1023D000F70FBE850325C4FEB9318347B4FEBE8521
:1023E0000325C4FE89318347A4FEBE850325C4FEB0
:1023F0001D390325C4FEEFF02FFF0100F2406244B7
:1024000005618280797106D622D40018232EA4FC9F
:10241000AE87A30DF4FC8327C4FDB337F00093F718
:10242000F70F3E871306401EB7D702009385471A61
:102430003A85EF10D06AA30704FE0325C4FDEFF030
:102440000FE88327C4FD83C78700860793F7F70F3C
:10245000BE850325C4FDC13E8347B4FDBE8503256B
:10246000C4FDD1360325C4FDEFF06FE58327C4FD1D
:1024700083C787008607E207E18793E71700E20733
:10248000E18793F7F70FBE850325C4FD693E8545B7
:102490000325C4FD0933AA87A307F4FE0325C4FD61
:1024A000EFF08FF48347F4FE3E85B250225445612D
:1024B0008280011106CE22CC26CA00102326A4FE5B
:1024C000AE872322C4FE2320D4FEA305F4FE832777
:1024D000C4FEB337F00093F7F70F3E871306C01F13
:1024E000B7D702009385471A3A85EF10505F8327CC
:1024F00044FEB337F00093F7F70F3E871306D01F63
:10250000B7D702009385471A3A85EF10505D03252F
:10251000C4FEEFF0CFDA8327C4FE83C787008607A7
:1025200093F7F70FBE850325C4FEF53C8347B4FE41
:10253000BE850325C4FEC53C0325C4FEEFF02FD89D
:102540008327C4FE83C787008607E207E18793E7F6
:102550001700E207E18793F7F70FBE850325C4FE56
:10256000D9342DA0832704FE93B7170093F7F70FF4
:102570003E87832444FE938714002322F4FEBA8509
:102580000325C4FE0939AA872380F400832704FEAB
:102590001387F7FF2320E4FEF1F70325C4FEEFF0D5
:1025A000AFE40100F2406244D24405618280797157
:1025B00006D622D400182326A4FEAE872322C4FE0A
:1025C0002320D4FE232EE4FCA305F4FE8327C4FEBF
:1025D000B337F00093F7F70F3E871306802BB7D77A
:1025E00002009385471A3A85EF10704F032704FEC7
:1025F0008327C4FDB307F740B337F00093F7F70F15
:102600003E871306902BB7D702009385471A3A8569
:10261000EF10F04C8327C4FE032704FE98C38327E2
:10262000C4FE0327C4FDD8C38327C4FE0347B4FEFA
:102630002384E7008327C4FE032744FED8C7C1468E
:1026400005468545032504FEEFE05F9ED14605461D
:1026500085450325C4FDEFE07F9D0100B250225463
:1026600045618280011122CE00102326A4FEAE8790
:10267000A305F4FEB7E702000327C4FE0A07938709
:102680000713BA979C433E878347B4FEC207C183B2
:102690002316F7000100B7E702000327C4FE0A076C
:1026A00093870713BA979C4383D78700C207C183D8
:1026B00093F70708EDF3B7E702000327C4FE0A0704
:1026C00093870713BA979C4383D7C70001007244CE
:1026D00005618280011122CE00102326A4FEAE8760
:1026E0002315F4FE8357A4FEA183C207C18393F68A
:1026F000F70FB7E702000327C4FE0A079387071303
:10270000BA979C433E8793970601C1832316F7002F
:102710000100B7E702000327C4FE0A0793870713E7
:10272000BA979C4383D78700C207C18393F70708F2
:10273000EDF38357A4FE93F6F70FB7E702000327E4
:10274000C4FE0A0793870713BA979C433E87939763
:102750000601C1832316F7000100B7E70200032733
:10276000C4FE0A0793870713BA979C4383D7870051
:10277000C207C18393F70708EDF3010072440561B6
:102780008280011122CE00102326A4FEAE8732875C
:10279000A305F4FEBA872305F4FEB7E7020003277A
:1027A000C4FE0A0793870713BA979C433E87834763
:1027B000B4FEC207C1832316F7000100B7E7020089
:1027C0000327C4FE0A0793870713BA979C4383D74E
:1027D0008700C207C18393F70708EDF3B7E702004C
:1027E0000327C4FE0A0793870713BA979C4383D72E
:1027F000C700B7E702000327C4FE0A079387071341
:10280000BA979C433E878347A4FEC207C183231621
:10281000F7000100B7E702000327C4FE0A07938709
:102820000713BA979C4383D78700C207C18393F7E6
:102830000708EDF3B7E702000327C4FE0A079387F2
:102840000713BA979C4383D7C70001007244056100
:102850008280011122CE00102326A4FEAE872322FF
:10286000C4FE2320D4FEA305F4FEB7E7020003272D
:10287000C4FE0A0793870713BA979C433E87834792
:10288000B4FEC207C1832316F7000100B7E70200B8
:102890000327C4FE0A0793870713BA979C4383D77D
:1028A0008700C207C18393F70708EDF389A8832740
:1028B00044FE138717002322E4FE83C60700B7E710
:1028C00002000327C4FE0A0793870713BA979C43A5
:1028D0003E8793970601C1832316F7000100B7E7EF
:1028E00002000327C4FE0A0793870713BA979C4385
:1028F00083D78700C207C18393F70708EDF38327C7
:1029000004FE1387F7FF2320E4FED5F30100724491
:1029100005618280011122CE00102326A4FEAE871D
:102920002322C4FE2320D4FEA305F4FEB7E7020051
:102930000327C4FE0A0793870713BA979C433E8771
:102940008347B4FEC207C1832316F7000100B7E72F
:1029500002000327C4FE0A0793870713BA979C4314
:1029600083D78700C207C18393F70708EDF3B7E762
:1029700002000327C4FE0A0793870713BA979C43F4
:1029800083D7C700ADA0B7E702000327C4FE0A073C
:1029900093870713BA979C43239607000100B7E774
:1029A00002000327C4FE0A0793870713BA979C43C4
:1029B00083D78700C207C18393F70708EDF3B7E712
:1029C00002000327C4FE0A0793870713BA979C43A4
:1029D00083D7C70093960701C182832744FE1387DC
:1029E00017002322E4FE13F7F60F2380E700832766
:1029F00004FE1387F7FF2320E4FED1F701007244A1
:102A0000056182805D7186C6A2C480082326A4FC6D
:102A10002324B4FC2322C4FC2320D4FC232EE4FA78
:102A2000232CF4FA232A04FBB7E702000327C4FC93
:102A30000A0793870713BA979C433E85EF30707857
:102A400085450545EF307066032704FC9307301277
:102A5000631DF7000327C4FB930750126317F700A9
:102A600085450545EF30301725A0032704FC89670D
:102A70009387A714631EF7000327C4FB8967938716
:102A8000C7146317F700854537152000EF30B014E1
:102A90008327C4FC91E785450565EF30106125A0CB
:102AA0000327C4FC85476317F70085451165EF30A0
:102AB000306411A80327C4FC89476316F7008545D5
:102AC0002165EF30F062832704FC93F7F70F93063C
:102AD0008031054685453E85EFE04FD58327C4FB11
:102AE00093F7F70F93068031054685453E85EFE065
:102AF000EFD3032784FBC167F917630DF700832722
:102B000084FB93F7F70F93068034054681453E8595
:102B1000EFE0CFD1032744FB9307F00F630DF700DD
:102B2000832744FB93F7F70F930600310146854551
:102B30003E85EFE0AFCF232E04FC232004FE2322AA
:102B400004FE232404FE231604FE231E04FC930724
:102B50004010231FF4FC231004FE032784FC854748
:102B60006305F702832784FC81CF032784FC894710
:102B70006303F702032784FC8D476304F7020DA863
:102B8000231104FE231204FE25A0231104FE854711
:102B90002312F4FE31A889472311F4FE231204FE08
:102BA00001A889472311F4FE85472312F4FE010092
:102BB000231704FE03A70182832744FCB357F702BF
:102BC0002317F4FE03A70182832744FCB377F7029F
:102BD00091E78357E4FEFD172317F4FE0357E4FE45
:102BE0009307F00763F7E700930780032317F4FECA
:102BF00051A80357E4FE9307F00363F7E700930738
:102C000000032317F4FEBDA80357E4FEFD4763F756
:102C1000E700930780022317F4FEADA00357E4FEFC
:102C2000BD4763F7E700930700022317F4FE99A856
:102C30000357E4FE9D4763F6E700E1472317F4FEE0
:102C400091A00357E4FE8D4763F6E700C1472317C1
:102C5000F4FE0DA80357E4FE854763F6E700A1479D
:102C60002317F4FE05A08357E4FE81C7231704FE53
:102C700011A813067021B7D702009385472001459C
:102C8000EF10E0658357E4FE2314F4FE9307002061
:102C90002313F4FE231504FE9D472316F4FEB7E725
:102CA00002000327C4FC0A0793870713BA979C43C3
:102CB0003E879307C4FDBE853A85EF30F057B7E7EE
:102CC00002000327C4FC0A0793870713BA979C43A3
:102CD00085453E85EF30D0650100B64026446161F0
:102CE0008280797122D60018232EA4FC232CB4FCF8
:102CF0008547A307F4FE0327C4FD0A07938781E4F1
:102D0000BA979C4399EB0327C4FD0A07938781E494
:102D1000BA97032784FD98C315A00327C4FD0A07AB
:102D2000938781E4BA979C43032784FD6316F700D9
:102D30008547A307F4FE19A0A30704FE8347F4FE0A
:102D40003E85325445618280011106CE22CC0010AE
:102D50002326A4FE8327C4FE81EB85458567138562
:102D60000780EF3090346DA80327C4FE85476317B2
:102D7000F70085450545EF30B0375DA00327C4FE59
:102D800089476317F70085450945EF30703649A834
:102D90000327C4FE8D476317F70085451145EF30C3
:102DA0003035BDA80327C4FE91476317F70085455A
:102DB0002145EF30F033ADA00327C4FE95476317DC
:102DC000F70085454145EF30B03299A80327C4FE8E
:102DD00099476318F700854513050002EF3050311D
:102DE00081A00327C4FE9D476317F7008545096549
:102DF000EF30B02B35A00327C4FEA1476318F700BE
:102E0000854537050800EF30502A19A80327C4FE6E
:102E1000A5476317F700854537051000EF30F02808
:102E20000100F240624405618280011122CE00104F
:102E30002326A4FEAE87A305F4FE0100B7E7020037
:102E40000327C4FE0A079387C713BA979C4383D707
:102E50000700C207C18393F70708EDD3B7E7020065
:102E60000327C4FE0A079387C713BA979C433E877C
:102E70008347B4FEC207C1832312F70001007244E6
:102E800005618280011106CE22CC00102326A4FE0B
:102E90002324B4FE2322C4FE832784FEB337F0002C
:102EA00093F7F70F3E8713061004B7D702009385F8
:102EB00007263A85EF10A04229A8832784FE1387AE
:102EC00017002324E4FE83C70700BE850325C4FE44
:102ED000A93F832744FE1387F7FF2322E4FEF1FF77
:102EE0000100F240624405618280011106CE22CCCD
:102EF00000102326A4FE2324B4FE832784FEB337C8
:102F0000F00093F7F70F3E8713060005B7D70200CE
:102F1000938507263A85EF10803C39A8832784FEE5
:102F2000138717002324E4FE8387070093F7F70F26
:102F3000BE850325C4FED53D832784FE8387070015
:102F4000F1FF0100F240624405618280011106CE6A
:102F500022CC00102326A4FEAE87A305F4FEB7E71B
:102F600002000327C4FE0A079387C713BA979C433E
:102F70003E878347B4FE3E86930550523A85EF4024
:102F800050411387818B8327C4FEBA9783C70700FC
:102F900081453E85EF1090158347B4FE81CF13879E
:102FA000818B8327C4FEBA9783C707003E85EF1045
:102FB000701019A81387818B8327C4FEBA9783C723
:102FC00007003E85EF10D0100100F2406244056119
:102FD0008280011122CE00102326A4FE2324B4FEF9
:102FE000B7E702000327C4FE0A079387C713BA97FF
:102FF0009C4383D70700C207C18393F7070295C795
:10300000B7E702000327C4FE0A079387C713BA97DE
:103010009C4383D74700C207C18313F7F70F832769
:1030200084FE2380E700854711A081473E857244D6
:1030300005618280797106D622D40018232EA4FC63
:10304000232CB4FC232AC4FC2328D4FC032744FDEE
:10305000832704FD3D8F8327C4FDB207F98F93B703
:10306000170093F7F70F3E871306A00AB7D70200A1
:10307000938507263A85EF108026832744FD13D7D2
:103080008700832704FDA183B307F74093B7170098
:1030900093F7F70F3E871306B00AB7D70200938560
:1030A00007263A85EF10A023832744FD93F7F70FF7
:1030B000E146014685453E85EFD05FF7832704FD55
:1030C00093F7F70F93068004014681453E85EFD0C4
:1030D000FFF585450545EF30407D032744FDC16779
:1030E000FD17F98F0D67130707386385E7200D6714
:1030F000130707386369F7040567130757166381D9
:10310000E716056713075716636FF7001307F022DA
:10311000638AE70C130760306381E71013076012BE
:103120006388E70855A6096713078736638AE71699
:103130000D67130707126385E71809671307A714BC
:103140006380E71451A615671307A738638CE72639
:1031500015671307A7386362F702116713078738EB
:10316000638EE71E1567130787126383E7221167D3
:1031700013074712638AE71A81AE19671307C73826
:103180006386E72A19671307C7386368F70019676A
:10319000130767106382E72605AE1D671307E71064
:1031A0006380E72C1D671307E7386385E72E29AE98
:1031B000B7070140D44FB7070140370700FC7D1720
:1031C000758FD8CFB7070140D843B70701406D9B33
:1031D000D8C3B7070140D843B7070140136747007A
:1031E000D8C3DDA4B7070140D44FB7070140370764
:1031F00000FC7D17758FD8CFB7070140D44FB707B4
:10320000014037070004558FD8CFB7070140D84396
:10321000B70701406D9BD8C345ACB7070140D44FF9
:10322000B7070140370700FC7D17758FD8CFB70768
:103230000140D44FB707014037070004558FD8CF5E
:10324000B7070140D843B70701406D9BD8C3B70704
:103250000140D843B707014013674700D8C3ADA466
:10326000B7070140D843B70701405D9BD8C3B707F4
:103270000140D843B707014013678700D8C3A9A40A
:10328000B7070140D843B70701401D9BD8C3B70714
:103290000140D843B707014013678700D8C32DA466
:1032A000B7070140D843B70701401D9BD8C3B707F4
:1032B0000140D843B707014013678701D8C329A449
:1032C000B7070140D44FB70701403707FDFF7D170F
:1032D000758FD8CFB7070140D44F832744FDA18312
:1032E00013970701B70703007D8FB7070140558F7C
:1032F000D8CFD9AAB7070140D44FB7070140370745
:10330000FDFF7D17758FD8CFB7070140D44F8327B6
:1033100044FDA18313970701B70703007D8FB7070B
:103320000140558FD8CF4DA2B7070140D44FB70702
:1033300001403707F4FF7D17758FD8CFB7070140DD
:10334000D44F832744FDA18313972701B7070C00AF
:103350007D8FB7070140558FD8CFBDA2B707014079
:10336000D44FB70701403707F4FF7D17758FD8CFCB
:10337000B7070140D44F832744FDA183139727014A
:10338000B7070C007D8FB7070140558FD8CF2DAA06
:10339000B7070140D44FB70701403707D0FF7D176B
:1033A000758FD8CFB7070140D44F832744FDA18341
:1033B00013974701B70730007D8FB7070140558F3E
:1033C000D8CF19A2B7070140D44FB707014037073C
:1033D000D0FF7D17758FD8CFB7070140D44F832713
:1033E00044FDA18313974701B70730007D8FB707CE
:1033F0000140558FD8CFC9A8B7070140D44FB707B0
:103400000140370740FF7D17758FD8CFB7070140C0
:10341000D44F832744FDA18313976701B707C000EA
:103420007D8FB7070140558FD8CF79A8B7070140E6
:10343000D44FB7070140370740FF7D17758FD8CFAE
:10344000B7070140D44F832744FDA1831397670139
:10345000B707C0007D8FB7070140558FD8CFADA00B
:10346000B7070140D44FB7070140370700FD7D176C
:10347000758FD8CFB7070140D44F832744FDA18370
:1034800013978701B70700037D8FB7070140558F5A
:10349000D8CF1DA8B7070140D44FB7070140370761
:1034A00000FD7D17758FD8CFB7070140D44F832714
:1034B00044FDA18313978701B70700037D8FB707EA
:1034C0000140558FD8CF01008327C4FD91E7854582
:1034D0001165EF30803D69A80327C4FD8547631857
:1034E000F700854537050200EF30804051A00327E3
:1034F000C4FD89476318F700854537050400EF30A0
:10350000203FBDA00327C4FD8D476318F700854504
:1035100037050800EF30C03DA1A80327C4FD91473F
:103520006318F700854537051000EF30603C89A02F
:103530000327C4FD95476318F7008545130500046C
:10354000EF30003B35A00327C4FD99476318F7000F
:10355000854513050008EF30A03919A80327C4FDDD
:103560009D476317F700854513050010EF3040387D
:10357000232004FE232204FE232404FE232604FE2B
:10358000832784FD2320F4FE231204FE231304FE6C
:10359000231404FE231604FEB1472315F4FEB7E7F7
:1035A00002000327C4FD0A079387C713BA979C43F9
:1035B0003E87930704FEBE853A85EF404034B7E767
:1035C00002000327C4FD0A079387C713BA979C43D9
:1035D00085453E85EF40E0550100B25022544561DB
:1035E0008280011106CE22CC0010AA872E87A30765
:1035F000F4FEBA872307F4FEB70700209387C700BD
:103600009C4713070040D8CB0347E4FE8347F4FEF2
:103610003A86BE850945EFF0CF96B707002093871D
:10362000C7009C471307004098CB0100F24062445A
:1036300005618280011106CE22CC0010AA872324C6
:10364000B4FE2322C4FEA307F4FEB707002093872D
:10365000C7009C4713070040D8CB8347F4FE83265E
:1036600044FE032684FEBE850945EFF08F9EB70712
:1036700000209387C7009C471307004098CB0100A8
:10368000F240624405618280797106D622D4001826
:10369000AA87A30FF4FCB70700209387C7009C47B5
:1036A00013070040D8CB8347F4FD93E707F893F75F
:1036B000F70F1307C4FE89463A86BE850945EFF029
:1036C0006FA5B70700209387C7009C4713070040EA
:1036D00098CB8347D4FE3E85B25022544561828008
:1036E000797106D622D40018AA87232CB4FC232A89
:1036F000C4FCA30FF4FCB70700209387C7009C47C6
:1037000013070040D8CB8347F4FD93E707F813F77E
:10371000F70F832744FD93861700930744FE3E86E8
:10372000BA850945EFF00F9FB70700209387C700C0
:103730009C471307004098CB232604FE3DA0832717
:10374000C4FE13871700832784FD93861700232C5C
:10375000D4FC930604FF3697034747FF2380E70016
:103760008327C4FE85072326F4FE8327C4FE032790
:1037700044FDE3E6E7FC0100B2502254456182803B
:10378000011106CE22CC0010A30504FEA30704FEFF
:10379000231604FE8357C4FE138717002316E4FE86
:1037A0001307F00F6376F7008547A307F4FE39A8E7
:1037B0000145D93DAA87A305F4FE0545EFC0BFDB4F
:1037C0000347B4FE93074002E316F7FC8347F4FE79
:1037D0003E85F240624405618280011106CE22CC12
:1037E0000010930784FE1946BE853145D53D8347B9
:1037F00094FEA207139707014187834784FEC207FF
:10380000C187D98F139707014187239CE18C834798
:10381000B4FEA2071397070141878347A4FEC2079E
:10382000C187D98F139707014187239DE18C834777
:10383000D4FEA2071397070141878347C4FEC2073E
:10384000C187D98F139707014187239EE18C01001F
:10385000F240624405618280011106CE22CC001044
:10386000930784FE1946BE8549459D3D834794FED6
:10387000A207139707014187834784FEC207C187C8
:10388000D98F1397070141872399E18C8347B4FEB1
:10389000A2071397070141878347A4FEC207C18788
:1038A000D98F139707014187239AE18C8347D4FE70
:1038B000A2071397070141878347C4FEC207C18748
:1038C000D98F139707014187239BE18C0100F240B8
:1038D000624405618280011106CE22CC0010A3074C
:1038E00004FE5145EFC03FC91308F00F8967938765
:1038F000470209671307570289669386360237968F
:1039000098001306066881450945EFF0AF8FC14660
:10391000054685451305A004EFD04FF10145AD33B1
:103920008535AA8795C39306600EB7D70200138624
:10393000C72BB7D702009385C7310145EF00B020F0
:103940008547A307F4FE75A881451305C0075139C3
:103950000545EFC05FC281451305900559310966E1
:10396000B7070300938547CE1305E005E131854590
:1039700013059005BD315145EFC0FFBF130510027F
:103980002133AA8795E39306500FB7D70200138619
:10399000C72BB7D70200938587330145EF00B01AD4
:1039A0008547A307F4FEB1A8B9451305D00715391B
:1039B0009305700A130500042D319305900A130531
:1039C00020040531894513051004213937D7020039
:1039D0008727073527A8F18001000347F4FE8547B4
:1039E0006300F702814513053004EFF09FBF938712
:1039F000018137D7020087274735DCE3010011A09A
:103A000001008347F4FE3E85F240624405618280F6
:103A1000411122C600080100324441018280411157
:103A200022C60008B71702409843B7170240136731
:103A3000170098C3B7170240D443B717024037079F
:103A4000FFF8758FD8C3B71702409443B7170240E9
:103A50003707F7FE7D17758F98C3B7170240944359
:103A6000B71702403707FCFF7D17758F98C3B7174C
:103A70000240D443B7170240370781FF7D17758F87
:103A8000D8C3B717024037079F0098C701003244D8
:103A900041018280797122D60018232EA4FC2326AE
:103AA00004FE232404FEB71702409443B7170240D4
:103AB0004167558F98C3B71702409843B707020074
:103AC000F98F2324F4FE8327C4FE85072326F4FE02
:103AD000832784FE91E70327C4FE8567E31DF7FC77
:103AE000B71702409843B7070200F98F89C7854787
:103AF0002324F4FE19A0232404FE032784FE854713
:103B00006312F71637170240B71702405843D8C35D
:103B100037170240B71702405843D8C3371702403F
:103B2000B71702405843D8C3B7170240D443B7175A
:103B300002403707C1FF7D17758FD8C30327C4FD27
:103B4000B747950893870740631BF700B7170240F4
:103B5000D443B71702404167558FD8C355A80327F0
:103B6000C4FDB7172707938707E0631CF700B71753
:103B70000240D443B717024037073900558FD8C3E6
:103B800041A80327C4FDB7E7B80593870780631CE6
:103B9000F700B7170240D443B71702403707290090
:103BA000558FD8C3B5A00327C4FDB7A74A04938790
:103BB0000720631CF700B7170240D443B717024031
:103BC00037071D00558FD8C3A1A00327C4FDB777C1
:103BD000DC02938707C0631CF700B7170240D44389
:103BE000B717024037071100558FD8C315A0032718
:103BF000C4FDB7376E0193870760631BF700B717E3
:103C00000240D443B717024037070500558FD8C389
:103C1000B71702409443B717024037070001558F8A
:103C200098C30100B71702409843B7070002F98F05
:103C3000F5DBB7170240D843B7170240719BD8C3D2
:103C4000B7170240D843B717024013672700D8C3FD
:103C50000100B7170240DC4313F7C700A147E31A7E
:103C6000F7FE11A001A0325445618280011106CEF9
:103C700022CC00102326A4FE0327C4FE23A0E18249
:103C8000793B0325C4FE3935EF00704E0100F24048
:103C9000624405618280411122C6000801000100D2
:103CA000324441018280011106CE22CC001023262D
:103CB00004FE232404FE232604FE25A0232404FE60
:103CC00039A0D13F832784FE85072324F4FE0327F0
:103CD00084FEC167E367F7FE8327C4FE85072326BA
:103CE000F4FE0327C4FE9307F00FE3F9E7FC01009D
:103CF000F240624405618280411122C60008010041
:103D0000324441018280011106CE22CC00102326CC
:103D1000A4FE8325C4FE0945EFF02F9D0100F2406B
:103D2000624405618280130101D9232611262324D0
:103D3000812623229126801C232EA4D8232CB4D89C
:103D4000232AC4D82328D4D8231504FE231404FE20
:103D5000231304FE231204FE231104FE032584D939
:103D6000EF60A271AA87C207C1872313F4FE83D72D
:103D700001E789C7938701E79C4B829783C7E18D51
:103D800093F7F70F6383074C83D701E7638B0744EF
:103D9000938701E7D447835724FE13970701418790
:103DA00093170701C1838507C207C183C207C18773
:103DB0002311F4FE93170701C1830326C4D9BE85DE
:103DC00001458296832784D92326F4FE032584D9CE
:103DD000EF60A26AAA87C207C1872313F4FE938704
:103DE00001E783D727003E87938701E783C76700F2
:103DF000B347F702C207C1872312F4FE01008327ED
:103E0000C4FE138717002326E4FE83870700E5FB23
:103E1000231404FEA1A88327C4FEFD172326F4FE65
:103E20008327C4FE038707009307F002630AF700A5
:103E30008327C4FE038707009307C005631BF700B1
:103E4000835784FEC207C1838507C207C183231439
:103E5000F4FE835764FEC207C187C207C183FD1702
:103E6000C207C183C207C1872313F4FE835784FEB0
:103E7000139707014183854763E8E700835764FE92
:103E8000C207C187E3D907F8835764FEC207C18719
:103E900063C307028327C4FE85072326F4FE1307A6
:103EA00004EE0326C4FEB7D70200938587353A8512
:103EB000EF6042582DA8835784FEC207C18389EF63
:103EC000130704EE0326C4FEB7D7020093854736D6
:103ED0003A85EF60225621A8130704EE0326C4FE9C
:103EE000B7D70200938587353A85EF60A254231532
:103EF00004FE21AA231404FE59A0930704EE3E8574
:103F0000EF60A2572A87835784FEC207C183BE860B
:103F10008357A4FEC207C1833E86835744FEC2076F
:103F2000C187B307F602B6976367F706835784FE27
:103F3000C207C1833E878357A4FEC207C183BE86E2
:103F4000835744FEC207C187B387F602BA97035767
:103F500084FE42074183BA86130704FFBA9703879A
:103F600007EF930704FFB6972388E7EA835784FE99
:103F7000C207C1838507C207C1832314F4FE835798
:103F800084FEC207C1833E87835744FEC207C187B0
:103F9000E345F7F611A00100835784FEC207C183F1
:103FA000130704FFBA97238807EA938701E703A85A
:103FB000C700938701E783C7770013970701418301
:103FC000835724FE93960701C18693970601C18308
:103FD0008507C207C183C207C1872311F4FE9397E7
:103FE0000601C183B307F702C207C183130704EABE
:103FF0003A86BE85014502988357A4FEC207C18355
:104000008507C207C1832315F4FE8357A4FEC207A8
:10401000C183BE84930704EE3E85EF6002462A8783
:10402000835744FEC207C187B357F7028507E3E30E
:10403000F4EC130704EE032644D9B7D702009385A6
:1040400047373A85EF60023F938701E703A8C7002F
:10405000938701E783C7770013970701418383574D
:1040600024FE93960701C18693970601C1838507B5
:10407000C207C183C207C1872311F4FE93970601CB
:10408000C183B307F702C207C183130704EE3A8660
:10409000BE8501450298832704D96388071A231532
:1040A00004FE21AA231404FE59A0032504D9EF60BD
:1040B000C23C2A87835784FEC207C183BE868357CA
:1040C000A4FEC207C1833E86835744FEC207C18750
:1040D000B307F602B6976368F706835784FEC207F4
:1040E000C1833E878357A4FEC207C183BE86835720
:1040F00044FEC207C187B387F602BA973E8783277B
:1041000004D9BA97035784FE42074183BA860387CE
:104110000700930704FFB6972388E7EA835784FED6
:10412000C207C1838507C207C1832314F4FE8357E6
:1041300084FEC207C1833E87835744FEC207C187FE
:10414000E345F7F611A00100835784FEC207C1833F
:10415000130704FFBA97238807EA938701E703A8A8
:10416000C700938701E783C777001397070141834F
:10417000835724FE93960701C18693970601C18356
:104180008507C207C183C207C1872311F4FE939735
:104190000601C183B307F702C207C183130704EA0C
:1041A0003A86BE85014502988357A4FEC207C183A3
:1041B0008507C207C1832315F4FE8357A4FEC207F7
:1041C000C183BE84032504D9EF60222B2A8783573D
:1041D00044FEC207C187B357F7028507E3E4F4EC56
:1041E000ADA0930704DA1306001081453E85EFC0A9
:1041F0002F81938701E79C470325C4D982978327A2
:1042000004D985C3130504DA032704D9832644D9C6
:10421000032684D9B7D7020093850738EF6082213F
:1042200031A8130704DA832644D9032684D9B7D7E3
:1042300002009385C7393A85EF60C21F938701E773
:104240009847930704DA3E85029701008320C12630
:10425000032481268324412613010127828079715A
:1042600006D622D40018232EA4FC232CB4FC232A27
:10427000C4FC232604FEB9A00100B7E7020093871F
:10428000C7139C47930500043E85EF30B01FAA87F3
:10429000EDD7B7E702009387C7139C47BE868327F5
:1042A00084FD13871700232CE4FC83870700C207D3
:1042B000C183BE853685EF30101A8327C4FE85077B
:1042C0002326F4FE0327C4FE832744FDE346F7FAC2
:1042D000832744FD3E85B2502254456182800111FE
:1042E00006CE22CC0010AA872324B4FE2322C4FECB
:1042F000A307F4FE8347F4FEB1E383C7418293F73B
:10430000F70F8DCF83C7F18D91C301A083C7F18DC6
:10431000850713F7F70FA38FE18C2D25EFF0DF9DB5
:104320008146032644FE832584FEB7D70200138509
:10433000473BEFF05F9FEFF01F97DDB70100F240C2
:10434000624405618280011106CE22CC0010AA874A
:104350002324B4FE2322C4FE2320D4FEA307F4FEAC
:104360008347F4FE9DE383C7E18D93F7F70F99CF61
:10437000832684FE032604FE832544FEB7D702006D
:104380001385473CEFF03F9A11A001000100F24075
:10439000624405618280011122CE00102326A4FE12
:1043A0008327C4FE239007008327C4FE7D572391F3
:1043B000E7008327C4FE7D572392E7008327C4FECE
:1043C0007D572383E7008327C4FE7D57A383E7003F
:1043D0008327C4FE23A407008327C4FE23A6070067
:1043E0008327C4FE23A80700010072440561828070
:1043F000011122CE00102326A4FE8327C4FE03D77A
:1044000007002398E1E68327C4FE03D7270093879C
:1044100001E72391E7008327C4FE03D74700938772
:1044200001E72392E7008327C4FE03C76700938751
:1044300001E72383E7008327C4FE03C77700938740
:1044400001E7A383E7008327C4FE9847938701E72A
:1044500098C78327C4FED847938701E7D8C7832727
:10446000C4FE984B938701E798CB0547238FE18CD7
:104470000100724405618280797106D622D4001849
:104480009307C4FD3E85013FB7470000938767D07F
:104490002322F4FE9307C4FD3E85993F89679386E6
:1044A000B70289671386A702F1679385072009453C
:1044B000EFE05FB80100B25022544561828039714B
:1044C00006DE22DC80002326A4FC2324B4FC832700
:1044D000C4FCB337F00093F7F70F3E871306C00C08
:1044E000B7D702009385073D3A85D53BA30704FE65
:1044F0008327C4FCD9CB832784FCB1E38327C4FC86
:10450000130700032380E70051A0032784FCA94779
:10451000B376F7028347F4FE13871700A307E4FE80
:10452000139786016187930604FFB6972386E7FEFB
:10453000032784FCA947B357F7022324F4FC8327FD
:1045400084FCE1F73DA88347F4FEFD17130704FF41
:10455000BA978387C7FE93F7F70F9387070393F6FE
:10456000F70F8327C4FC138717002326E4FC139757
:10457000860161872380E7008347F4FEFD17A307C8
:10458000F4FE8347F4FEE1F311A001000100F250B4
:10459000625421618280597186D6A2D48018232E5C
:1045A000A4F8272CA4F8AE87A30BF4F88327C4F94A
:1045B000B337F00093F7F70F3E8713060013B7D712
:1045C00002009385073D3A85EFF07FD1232604FE54
:1045D000232404FE834774F9A303F4FE8327C4F95C
:1045E00063870720872784F9D39707C02326F4FE23
:1045F000872784F9530700F0D397E7A081CF83275B
:10460000C4F913871700232EE4F81307D002238080
:10461000E70099A0872784F9530700F0D3A7E7A004
:1046200085CF8327C4F913871700232EE4F81307D7
:1046300000032380E7008327C4F913871700232E84
:10464000E4F81307E0022380E7008327C4F9130787
:1046500000032380E70069AA8327C4FED3F707D0AD
:10466000072784F9D377F708272CF4F819A8072728
:1046700084F9B7D7020087A74744D377F710272CD0
:10468000F4F8834774FE1387F7FFA303E4FEE5F312
:10469000872784F9D39707C02324F4FEA30304FEDD
:1046A000834774FE13871700A303E4FEBE86032727
:1046B000C4FEA9473367F70293972600930604FFC9
:1046C000B69723AAE7FC0327C4FEA947B347F7021E
:1046D0002326F4FE8327C4FEE1F7A1A0834774FEDE
:1046E000FD178A07130704FFBA9783A747FD13D75F
:1046F000F741B98F998F93F7F70F9387070393F6D5
:10470000F70F8327C4F913871700232EE4F81397B4
:10471000860161872380E700834774FEFD17A303AA
:10472000F4FE834774FEDDFB834774F9F1C3A303F2
:1047300004FE8327C4F913871700232EE4F8130718
:10474000E0022380E700832784FEB9E78327C4F9CA
:10475000130700032380E70061A8834774FE1387D3
:104760001700A303E4FEBE86032784FEA947336730
:10477000F70293972600930604FFB69723AEE7FA55
:10478000032784FEA947B347F7022324F4FE834797
:1047900074F9FD17A30BF4F8834774F9DDFFA1A0AA
:1047A000834774FEFD178A07130704FFBA9783A790
:1047B000C7FB13D7F741B98F998F93F7F70F9387FB
:1047C000070393F6F70F8327C4F913871700232EE7
:1047D000E4F81397860161872380E700834774FE1E
:1047E000FD17A303F4FE834774FEDDFB11A0010057
:1047F0000100B650265465618280411122C600082E
:1048000099679387870873900780010032444101BC
:104810008280411122C600089967739007800100C9
:10482000324441018280011122CE00102326A4FED1
:104830008327C4FEFD8B0547B316F70037E700E07A
:104840008327C4FE9583938707048A07BA9794C386
:104850000100724405618280011122CE00102326DE
:10486000A4FE8327C4FEFD8B0547B316F70037E788
:1048700000E08327C4FE9583938707068A07BA97CB
:1048800094C30100724405618280011122CE0010A0
:104890002326A4FEAE87A305F4FE37E700E08327B6
:1048A000C4FEBA970347B4FE2380E7400100724478
:1048B00005618280011106CE22CC00102326A4FEC1
:1048C0000325C4FE8D370100F240624405618280F9
:1048D000011106CE22CC00102326A4FE0325C4FE1F
:1048E000A53F0100F240624405618280011106CEBD
:1048F00022CC00102326A4FEAE87A305F4FE834736
:10490000B4FEBE850325C4FE49370100F24062446F
:1049100005618280011106CE22CC00102326A4FE60
:104920008327C4FE99C783A7018E1387F7FF23A0AF
:10493000E18E83A7018E91E3C9350100F240624404
:1049400005618280411106C622C4000883A7018E3A
:1049500091E3C13583A7018E1387170023A0E18E51
:1049600083A7018E3E85B2402244410182804111DD
:1049700006C622C400080145713F0100B24022442E
:10498000410182801D71A2CE82E686E48AE28EE039
:1049900012FE16FC1AFA1EF82AF62EF432F236F03F
:1049A0003AEE3EEC42EA46E872E676E47AE27EE0EF
:1049B000801093055052B747014013850780EF30B0
:1049C000C030AA8789CB93055052B7470140138561
:1049D0000780EF30A03F010076443660A660166184
:1049E00086617272E2725273C2733275A275127668
:1049F00082767267E2675268C268326EA26E126F88
:104A0000826F2561730020301D71A2CE82E686E49C
:104A10008AE28EE012FE16FC1AFA1EF82AF62EF42E
:104A200032F236F03AEE3EEC42EA46E872E676E4DE
:104A30007AE27EE0801093055052B747004013851C
:104A40000740EF308028AA8789CB93055052B7479B
:104A5000004013850740EF30603701007644366030
:104A6000A660166186617272E2725273C273327509
:104A7000A275127682767267E2675268C268326EF9
:104A8000A26E126F826F2561730020301D71A2CE5D
:104A900082E686E48AE28EE012FE16FC1AFA1EF81E
:104AA0002AF62EF432F236F03AEE3EEC42EA46E8CE
:104AB00072E676E47AE27EE0801093055052B757B2
:104AC000004013850780EF304020AA8789CB9305EB
:104AD0005052B757004013850780EF30202F010058
:104AE00076443660A660166186617272E272527315
:104AF000C2733275A275127682767267E267526867
:104B0000C268326EA26E126F826F25617300203010
:104B10001D71A2CE82E686E48AE28EE012FE16FCC9
:104B20001AFA1EF82AF62EF432F236F03AEE3EEC7D
:104B300042EA46E872E676E47AE27EE08010930587
:104B40005052B7570040138507C0EF300018AA87AE
:104B500089CB93055052B7570040138507C0EF30FB
:104B6000E026010076443660A660166186617272A6
:104B7000E2725273C2733275A275127682767267D0
:104B8000E2675268C268326EA26E126F826F256150
:104B9000730020301D71A2CE82E686E48AE28EE0A8
:104BA00012FE16FC1AFA1EF82AF62EF432F236F02D
:104BB0003AEE3EEC42EA46E872E676E47AE27EE0DD
:104BC00080109305505237550040EF300010AA87EF
:104BD00091CB83A78181829793055052375500402E
:104BE000EF30C01E010076443660A6601661866113
:104BF0007272E2725273C2733275A2751276827645
:104C00007267E2675268C268326EA26E126F826F7C
:104C10002561730020301D71A2CE82E686E48AE20F
:104C20008EE012FE16FC1AFA1EF82AF62EF432F264
:104C300036F03AEE3EEC42EA46E872E676E47AE294
:104C40007EE0801093055052B727004013850780FF
:104C5000EF30A007AA8789CB93055052B7270040B1
:104C600013850780EF308016010076443660A66019
:104C7000166186617272E2725273C2733275A275E6
:104C8000127682767267E2675268C268326EA26EEE
:104C9000126F826F2561730020301D71A2CE82E6F3
:104CA00086E48AE28EE012FE16FC1AFA1EF82AF654
:104CB0002EF432F236F03AEE3EEC42EA46E872E684
:104CC00076E47AE27EE0801093055052B7270040E8
:104CD000138507C0EF20707FAA8799CBEFB001063C
:104CE00093055052B7270040138507C0EF30000EE0
:104CF000010076443660A660166186617272E272C7
:104D00005273C2733275A275127682767267E26749
:104D10005268C268326EA26E126F826F2561730094
:104D200020301D71A2CE82E686E48AE28EE012FE79
:104D300016FC1AFA1EF82AF62EF432F236F03AEE83
:104D40003EEC42EA46E872E676E47AE27EE08010E3
:104D50009305505237250040EF203077AA8789CB42
:104D6000EF40010C9305505237250040EF3000060C
:104D7000010076443660A660166186617272E27246
:104D80005273C2733275A275127682767267E267C9
:104D90005268C268326EA26E126F826F2561730014
:104DA00020301D71A2CE82E686E48AE28EE012FEF9
:104DB00016FC1AFA1EF82AF62EF432F236F03AEE03
:104DC0003EEC42EA46E872E676E47AE27EE0801063
:104DD000B707055083C7070193F7F70F918B8DC372
:104DE00083A7C1818297B707055083C7070113F7CF
:104DF000F70FB70705506D9B1377F70F2388E70070
:104E0000010076443660A660166186617272E272B5
:104E10005273C2733275A275127682767267E26738
:104E20005268C268326EA26E126F826F2561730083
:104E300020301D71A2CE82E686E48AE28EE012FE68
:104E400016FC1AFA1EF82AF62EF432F236F03AEE72
:104E50003EEC42EA46E872E676E47AE27EE08010D2
:104E60000545EF1060062A8785476315F70005455D
:104E7000EF10E00A010076443660A6601661866194
:104E80007272E2725273C2733275A27512768276B2
:104E90007267E2675268C268326EA26E126F826FEA
:104EA0002561730020301D71A2CE82E686E48AE27D
:104EB0008EE012FE16FC1AFA1EF82AF62EF432F2D2
:104EC00036F03AEE3EEC42EA46E872E676E47AE202
:104ED0007EE080100945EF00307F2A878547631503
:104EE000F7000945EF10A003010076443660A66084
:104EF000166186617272E2725273C2733275A27564
:104F0000127682767267E2675268C268326EA26E6B
:104F1000126F826F2561730020301D71A2CE82E670
:104F200086E48AE28EE012FE16FC1AFA1EF82AF6D1
:104F30002EF432F236F03AEE3EEC42EA46E872E601
:104F400076E47AE27EE080101145EF00F0772A8760
:104F500085476315F7001145EF00707C010076442A
:104F60003660A660166186617272E2725273C27315
:104F70003275A275127682767267E2675268C268ED
:104F8000326EA26E126F826F2561730020301D7128
:104F9000A2CE82E686E48AE28EE012FE16FC1AFABF
:104FA0001EF82AF62EF432F236F03AEE3EEC42EAE1
:104FB00046E872E676E47AE27EE080102145EF0072
:104FC000B0702A8785476315F7002145EF003075DB
:104FD000010076443660A660166186617272E272E4
:104FE0005273C2733275A275127682767267E26767
:104FF0005268C268326EA26E126F826F25617300B2
:1050000020301D71A2CE82E686E48AE28EE012FE96
:1050100016FC1AFA1EF82AF62EF432F236F03AEEA0
:105020003EEC42EA46E872E676E47AE27EE0801000
:105030004145EF0070692A8785476315F7004145B0
:10504000EF00F06D010076443660A660166186615F
:105050007272E2725273C2733275A27512768276E0
:105060007267E2675268C268326EA26E126F826F18
:105070002561730020301D71A2CE82E686E48AE2AB
:105080008EE012FE16FC1AFA1EF82AF62EF432F200
:1050900036F03AEE3EEC42EA46E872E676E47AE230
:1050A0007EE0801013050002EF0010622A8785471A
:1050B0006316F70013050002EF0070661305000485
:1050C000EF0090602A8785476316F70013050004F8
:1050D000EF00F06413050008EF00105F2A87854792
:1050E0006316F70013050008EF0070631305001046
:1050F000EF00905D2A8785476316F70013050010BF
:10510000EF00F06113050020EF00105C2A8785474F
:105110006316F70013050020EF007060010076446D
:105120003660A660166186617272E2725273C27353
:105130003275A275127682767267E2675268C2682B
:10514000326EA26E126F826F2561730020301D7166
:10515000A2CE82E686E48AE28EE012FE16FC1AFAFD
:105160001EF82AF62EF432F236F03AEE3EEC42EA1F
:1051700046E872E676E47AE27EE0801013050040AD
:10518000EF0090542A8785476316F7001305004007
:10519000EF00F058856713850780EF00F0522A87EB
:1051A00085476317F700856713850780EF00305741
:1051B0000565EF0070512A8785476315F70005657F
:1051C000EF00F0550965EF0030502A8785476315D9
:1051D000F7000965EF00B0541165EF00F04E2A8723
:1051E00085476315F7001165EF0070532165EF00E7
:1051F000B04D2A8785476315F7002165EF003052CF
:10520000010076443660A660166186617272E272B1
:105210005273C2733275A275127682767267E26734
:105220005268C268326EA26E126F826F256173007F
:1052300020301D71A2CE82E686E48AE28EE012FE64
:1052400016FC1AFA1EF82AF62EF432F236F03AEE6E
:105250003EEC42EA46E872E676E47AE27EE08010CE
:105260008545B7370140138507C0EF20605FAA87E7
:1052700095C38545B7370140138507C0EF204065CA
:10528000EFD0101BEFE0205AEFD0707EEFE0E03A55
:10529000EFE0601E010076443660A660166186610C
:1052A0007272E2725273C2733275A275127682768E
:1052B0007267E2675268C268326EA26E126F826FC6
:1052C0002561730020301D71A2CE82E686E48AE259
:1052D0008EE012FE16FC1AFA1EF82AF62EF432F2AE
:1052E00036F03AEE3EEC42EA46E872E676E47AE2DE
:1052F0007EE08010854537050040EF206056AA8784
:1053000091C7854537050040EF20805C0100764459
:105310003660A660166186617272E2725273C27361
:105320003275A275127682767267E2675268C26839
:10533000326EA26E126F826F2561730020301D7174
:10534000A2CE82E686E48AE28EE012FE16FC1AFA0B
:105350001EF82AF62EF432F236F03AEE3EEC42EA2D
:1053600046E872E676E47AE27EE080108545B7078B
:10537000004013850740EF20A04EAA8795C78545BA
:10538000B707004013850740EF20805483A7418E64
:105390001387170023A2E18EEFD0006AEFE0807C34
:1053A000EFE02054EF10411D010076443660A66006
:1053B000166186617272E2725273C2733275A2759F
:1053C000127682767267E2675268C268326EA26EA7
:1053D000126F826F2561730020301D71A2CE82E6AC
:1053E00086E48AE28EE012FE16FC1AFA1EF82AF60D
:1053F0002EF432F236F03AEE3EEC42EA46E872E63D
:1054000076E47AE27EE080108545B7170040138588
:105410000780EF20E044AA8781CB8545B71700407D
:1054200013850780EF20C04A010076443660A660ED
:10543000166186617272E2725273C2733275A2751E
:10544000127682767267E2675268C268326EA26E26
:10545000126F826F2561730020301D71A2CE82E62B
:1054600086E48AE28EE012FE16FC1AFA1EF82AF68C
:105470002EF432F236F03AEE3EEC42EA46E872E6BC
:1054800076E47AE27EE080108545B7170040138508
:1054900007C0EF20E03CAA8781CB8545B7170040C5
:1054A000138507C0EF20C042010076443660A66035
:1054B000166186617272E2725273C2733275A2759E
:1054C000127682767267E2675268C268326EA26EA6
:1054D000126F826F2561730020301D71A2CE82E6AB
:1054E00086E48AE28EE012FE16FC1AFA1EF82AF60C
:1054F0002EF432F236F03AEE3EEC42EA46E872E63C
:1055000076E47AE27EE08010854537150040EF2092
:105510002035AA8791C7854537150040EF20403BCD
:10552000010076443660A660166186617272E2728E
:105530005273C2733275A275127682767267E26711
:105540005268C268326EA26E126F826F256173005C
:1055500020301D71A2CE82E686E48AE28EE012FE41
:1055600016FC1AFA1EF82AF62EF432F236F03AEE4B
:105570003EEC42EA46E872E676E47AE27EE08010AB
:105580008545B717004013850740EF20602DAA8797
:1055900081CB8545B717004013850740EF20403386
:1055A000010076443660A660166186617272E2720E
:1055B0005273C2733275A275127682767267E26791
:1055C0005268C268326EA26E126F826F25617300DC
:1055D00020301D71A2CE82E686E48AE28EE012FEC1
:1055E00016FC1AFA1EF82AF62EF432F236F03AEECB
:1055F0003EEC42EA46E872E676E47AE27EE080102B
:105600008545B737014013850740EF206025AA87FD
:1056100081CB8545B737014013850740EF20402BEC
:10562000010076443660A660166186617272E2728D
:105630005273C2733275A275127682767267E26710
:105640005268C268326EA26E126F826F256173005B
:1056500020301D71A2CE82E686E48AE28EE012FE40
:1056600016FC1AFA1EF82AF62EF432F236F03AEE4A
:105670003EEC42EA46E872E676E47AE27EE08010AA
:105680008545B7570140138507C0EF20601DAA87E5
:1056900081CB8545B7570140138507C0EF204023D4
:1056A000010076443660A660166186617272E2720D
:1056B0005273C2733275A275127682767267E26790
:1056C0005268C268326EA26E126F826F25617300DB
:1056D00020301D71A2CE82E686E48AE28EE012FEC0
:1056E00016FC1AFA1EF82AF62EF432F236F03AEECA
:1056F0003EEC42EA46E872E676E47AE27EE080102A
:10570000854537550140EF20A015AA8791C78545EB
:1057100037550140EF20C01B010076443660A6607B
:10572000166186617272E2725273C2733275A2752B
:10573000127682767267E2675268C268326EA26E33
:10574000126F826F256173002030411122C600085C
:1057500001003244410173002030411122C600088B
:1057600001A0411106C622C40008B7479508138559
:105770000740EFE0AFCFEFE03FD001286545EFA055
:105780009FDF5145EF005169D5BF411106C622C4C4
:105790000008EFA05172EF2041670545EF00514A24
:1057A0008145856713852720EFA0BFC3EFD08026F2
:1057B000EF201170EFA0C168EFA0414E0145EF60EE
:1057C0002153EF205172EF30B172EFA08126EFC06C
:1057D0000023EFE02074EFD0E03F0100B24022440C
:1057E00041018280011106CE22CC0010A9458567B7
:1057F00013852720EFA01FB7AA87D3F717D0272636
:10580000F4FE0727C4FEB7D7020087A707475377E0
:10581000F710B7D7020087A74747D377F718272491
:10582000F4FE872784FE5385F720F2406244056129
:10583000828001A001A001A001A001A001A001A0FF
:1058400001A001A001A001A001A001A001A001A050
:1058500001A001A001A001A001A001A001A001A040
:1058600001A001A001A001A001A001A001A001A030
:1058700001A001A001A001A001A001A001A001A020
:1058800001A001A001A001A001A001A001A001A010
:1058900001A001A001A001A001A001A001A001A000
:1058A00001A001A001A001A001A001A001A001A0F0
:1058B00001A001A001A001A001A001A001A001A0E0
:1058C00001A001A001A001A001A001A001A001A0D0
:1058D00001A001A001A001A001A001A001A001A0C0
:1058E00001A001A001A001A001A001A001A001A0B0
:1058F00097E1FF1F93810196172101201301817009
:1059000017D502001305458797A5FF1F9385856F5F
:105910001386018D63FAC5008322050023A055007C
:1059200011059105E3EAC5FE1385018D97F5002069
:105930009385854C6377B500232005001105E36D41
:10594000B5FEFD42739002BCFD4273904280B76287
:1059500000009382820873A0023097A2FFFF938217
:10596000E26D93E23200739052309702000093820E
:1059700082DF7390123473002030011106CE22CCE6
:1059800000102326A4FE0327C4FEB72701409387F7
:105990000740631DF700854513050020EF00B0792F
:1059A000814513050020EF0010791DA00327C4FED8
:1059B000B737014093870780631CF70085451305BF
:1059C0000040EF005077814513050040EF00B076AE
:1059D0000100F240624405618280797122D600188C
:1059E000232EA4FC232CB4FC232604FEA30504FED2
:1059F0008327C4FDDC432326F4FE0327C4FEB70738
:105A0000F1E09387F7EFF98F2326F4FE832784FDD7
:105A10009843832784FD9C4F5D8F832784FDDC4F53
:105A20005D8F832784FDDC43A207D98F0327C4FE43
:105A3000D98F2326F4FE8327C4FD0327C4FED8C3D1
:105A40008327C4FD9C472326F4FE0327C4FEB7F733
:105A5000F1FF9387D77FF98F2326F4FE832784FDF8
:105A6000984B832784FDDC475D8F832784FD9C470B
:105A70008607D98F0327C4FED98F2326F4FE8327F8
:105A8000C4FD0327C4FE98C78327C4FDDC57232623
:105A9000F4FE0327C4FEB70710FFFD17F98F232676
:105AA000F4FE832784FD83C74701FD1713F7F70F23
:105AB0008347B4FED98FA305F4FE8347B4FED20713
:105AC0000327C4FED98F2326F4FE8327C4FD0327B2
:105AD000C4FED8D70100325445618280011122CE24
