:100000006F40000D130000001300000013000000FB
:100010001300000013000000130000001300000094
:100020001300000013000000130000001300000084
:08003000130000007300100032
:1000380000000000000000004E3F00005E3F00008E
:100048000000000016400000000000000000000052
:10005800184000001A4000000000000000000000E6
:100068001C400000000000001E40000000000000CE
:1000780020400000224000002440000026400000EC
:10008800284000002A4000005E360000D2360000FA
:1000980046370000BA3700002E380000364000000E
:1000A800384000003A4000003C4000003E4000005C
:1000B800404000004240000044400000464000002C
:1000C800484000004A4000004C400000A2380000B0
:1000D80050400000663A00005440000056400000BE
:1000E800E63A00005E3B0000DE3B00005E40000098
:1000F800604000006240000064400000664000006C
:1001080068400000AE31000032320000B632000014
:100118007A39000072400000744000007640000008
:10012800D63D00007A4000007C4000007E40000080
:1001380080400000824000005E3C000086400000D5
:100148003A330000BE330000DE3C0000563D00009C
:10015800904000009240000094400000964000004B
:10016800984000009A4000009C4000009E4000001B
:10017800A0400000A2400000A4400000DA510000A6
:10018800A8400000AA400000CE350000403400001E
:10019800C43400004E350000B4400000563E000054
:1001A800B8400000BA400000BC400000D63E000045
:1001B800C0400000C2400000C4400000C64000002B
:1001C800C8400000CA400000CC400000CE400000FB
:1001D8000000000000000000000000000000000017
:1001E8000000000000000000000000000000000007
:0801F8000000000000000000FF
:100200003D432A876373C3029377F700BDEFADE5E3
:10021000937606FF3D8ABA960CC34CC30CC74CC7F5
:100220004107E36BD7FE11E28280B306C3408A0622
:100230009702000096966780A6002307B700A306E2
:10024000B7002306B700A305B7002305B700A30432
:10025000B7002304B700A303B7002303B700A3022A
:10026000B7002302B700A301B7002301B700A30022
:10027000B7002300B700828093F5F50F93968500B1
:10028000D58D93960501D58D61B79396270097027A
:10029000000096968682E78086FA9680C1171D8FA9
:1002A0003E96E374C3F8A5B7011122CE00102326B1
:1002B000A4FE2324B4FE37F600E04C4237F600E0FB
:1002C000F9994CC20326C4FEB2860147032684FE78
:1002D000B287014837F600E03305F702B305D802CC
:1002E000AA953385F602B3B3F6022A83B387750065
:1002F000BE8323286600232A7600B7F700E09843E0
:10030000B7F700E01367070198C3B7F700E0984319
:10031000B7F700E01367170298C30100B7F700E0D2
:10032000DC4313F717008547E31AF7FEB7F700E041
:100330009843B7F700E0799B98C3010072440561C8
:100340008280011122CE00102326A4FE8327C4FE42
:10035000958313F77700B70700200A0793870700F4
:10036000BA979C439C470327C4FE7D8B85463397F1
:10037000E600F98FB337F00093F7F70F3E8572442C
:1003800005618280797106D622D40018232EA4FC40
:10039000232CB4FCB2872328D4FCA30BF4FC232029
:1003A00004FE232204FE232404FE8327C4FD958338
:1003B00093F7F70F9D8BA307F4FE8327C4FD93F7F4
:1003C000F70FFD8B2307F4FE8347F4FE91E7854585
:1003D0001145EF40A04E91A80347F4FE85476317EF
:1003E000F70085452145EF40604D81A00347F4FEAD
:1003F00089476317F70085454145EF40204C35A0FC
:100400000347F4FE8D476318F70085451305000286
:10041000EF40C04A19A80347F4FE91476317F7005D
:10042000854513050004EF4060498347E4FE054716
:10043000B317F700C207C1832310F4FE032784FD1E
:1004400085476317F702832704FDC207C183A18391
:10045000C207C18389E78D472322F4FE11A88327B1
:1004600004FDC207C183A183C207C1832322F4FE16
:10047000832704FDC207C18393F7F70F2324F4FEFB
:100480000347F4FEB70700200A0793870700BA97CF
:100490009C43130704FEBA853E85EF303053032793
:1004A00084FD85476319F7020347F4FEB707002070
:1004B0000A0793870700BA9794438347E4FE0547EA
:1004C000B317F700C207C183034774FD3A86BE85A0
:1004D0003685EF3050720100B2502254456182805F
:1004E000011122CE00102326A4FEAE87A305F4FE40
:1004F000B1670327C4FE0A0793874748BA979C430E
:100500003E878347B4FEC207C1832316F70001006C
:10051000B1670327C4FE0A0793874748BA979C43ED
:1005200083D78700C207C18393F70708F5F3B16744
:100530000327C4FE0A0793874748BA979C4383D78B
:10054000C7000100724405618280011122CE0010B3
:100550002326A4FEAE872315F4FE8357A4FEA183B1
:10056000C207C18393F6F70FB1670327C4FE0A07DA
:1005700093874748BA979C433E8793970601C18368
:100580002316F7000100B1670327C4FE0A0793870B
:100590004748BA979C4383D78700C207C18393F724
:1005A0000708F5F38357A4FE93F6F70FB167032707
:1005B000C4FE0A0793874748BA979C433E879397A0
:1005C0000601C1832316F7000100B1670327C4FEAB
:1005D0000A0793874748BA979C4383D78700C20787
:1005E000C18393F70708F5F3010072440561828027
:1005F0005D7186C6A2C480082326A4FC2324B4FC13
:100600002322C4FC2320D4FC232EE4FA232CF4FA66
:10061000232A04FBB1670327C4FC0A0793874748D2
:10062000BA979C433E85EF40E03A85450545EF404B
:10063000E028032704FC930730126313F702032713
:1006400084FB93074012631DF7000327C4FB930745
:1006500050126317F70085450545EF30505D1DA822
:10066000032704FC89679387A7146315F702032700
:1006700084FB89679387B714631EF7000327C4FBC5
:1006800089679387C7146317F700854537152000DE
:10069000EF30F0598327C4FC91E785450565EF40AD
:1006A000E02125A00327C4FC85476317F700854593
:1006B0001165EF40002511A80327C4FC8947631684
:1006C000F70085452165EF40C023832704FC93F79D
:1006D000F70F93068031054685453E8565318327B2
:1006E000C4FB93F7F70F93068031054685453E8599
:1006F0005139032784FBC167F917630CF70083277F
:1007000084FB93F7F70F93068034054681453E85B9
:100710009539032744FB9307F00F630CF7008327F9
:1007200044FB93F7F70F93060031014685453E855C
:100730009139232E04FC232004FE232204FE2324CB
:1007400004FE231604FE231E04FC93074010231FFF
:10075000F4FC231004FE032784FC85476305F7029D
:10076000832784FC81CF032784FC89476303F70236
:10077000032784FC8D476304F7020DA8231104FEB0
:10078000231204FE25A0231104FE85472312F4FE44
:1007900031A889472311F4FE231204FE01A88947DA
:1007A0002311F4FE85472312F4FE0100231704FEF3
:1007B00003A70182832744FCB357F7022317F4FEF3
:1007C00003A70182832744FCB377F70291E783579D
:1007D000E4FEFD172317F4FE0357E4FE9307F0072A
:1007E00063F7E700930780032317F4FE49A8035734
:1007F000E4FE9307F00363F7E70093070003231772
:10080000F4FEB5A80357E4FEFD4763F7E70093073E
:1008100080022317F4FEA5A00357E4FEBD4763F74B
:10082000E700930700022317F4FE91A80357E4FEA4
:100830009D4763F6E700E1472317F4FE89A00357BD
:10084000E4FE8D4763F6E700C1472317F4FE05A8D1
:100850000357E4FE854763F6E700A1472317F4FE3C
:1008600039A88357E4FE81C7231704FE09A813069D
:100870007021B167938507110145EF10707483579C
:10088000E4FE2314F4FE930700202313F4FE231543
:1008900004FE9D472316F4FEB1670327C4FC0A0734
:1008A00093874748BA979C433E879307C4FDBE850C
:1008B0003A85EF408019B1670327C4FC0A07938784
:1008C0004748BA979C4385453E85EF408027010005
:1008D000B640264461618280797122D60018232EA9
:1008E000A4FCB7370140938707C02326F4FE2315E5
:1008F00004FE0327C4FDA54763ECE7088327C4FD76
:1009000013972700B16793870749BA979C4382875B
:10091000B7370140938707C02326F4FE95A8B70791
:1009200000402326F4FEADA0B707004093870740A0
:100930002326F4FEB1A8B71700409387078023262B
:10094000F4FEB9A0B7170040938707C02326F4FE32
:1009500081A0B71700402326F4FE1DA8B71700405A
:10096000938707402326F4FE25A0B73701409387DD
:1009700007402326F4FE29A8B7570140938707C0F4
:100980002326F4FE31A0B75701402326F4FE0100D0
:100990000327C4FD0A079387018ABA9798438947BA
:1009A000631FF7008327C4FE83D74702139707010D
:1009B00041838D47B357F7022315F4FE39A08327EF
:1009C000C4FE83D747022315F4FE8357A4FE3E8559
:1009D000325445618280797122D60018232EA4FCFE
:1009E000B7370140938707C02326F4FE0327C4FDD1
:1009F000A54763ECE7088327C4FD13972700B16779
:100A00009387874BBA979C438287B7370140938778
:100A100007C02326F4FE95A8B70700402326F4FE5E
:100A2000ADA0B7070040938707402326F4FEB1A886
:100A3000B7170040938707802326F4FEB9A0B717A5
:100A40000040938707C02326F4FE81A0B71700401B
:100A50002326F4FE1DA8B7170040938707402326DE
:100A6000F4FE25A0B7370140938707402326F4FE04
:100A700029A8B7570140938707C02326F4FE31A069
:100A8000B75701402326F4FE01008327C4FE2392BA
:100A900007020100325445618280011122CE00100C
:100AA0002326A4FEAE87A305F4FE0100B167032749
:100AB000C4FE0A079387074EBA979C4383D7070063
:100AC000C207C18393F70708F5D3B1670327C4FEB4
:100AD0000A079387074EBA979C433E878347B4FE25
:100AE000C207C1832312F7000100724405618280AE
:100AF000011106CE22CC00102326A4FE2324B4FE2E
:100B0000832784FEB337F00093F7F70F3E87130671
:100B10000005B1679385C7163A85EF10704A39A86A
:100B2000832784FE138717002324E4FE83870700AE
:100B300093F7F70FBE850325C4FE8537832784FE10
:100B400083870700F1FF0100F24062440561828063
:100B5000011122CE00102326A4FE2324B4FEB16787
:100B60000327C4FE0A079387074EBA979C4383D78F
:100B70000700C207C18393F707028DC7B167032738
:100B8000C4FE0A079387074EBA979C4383D7470052
:100B9000C207C18313F7F70F832784FE2380E70082
:100BA000854711A081473E85724405618280797135
:100BB00006D622D40018232EA4FC232CB4FC232A0E
:100BC000C4FC2328D4FC032744FD832704FD3D8F68
:100BD0008327C4FDB207F98F93B7170093F7F70F78
:100BE0003E871306A00AB1679385C7163A85EF10B2
:100BF000303D832744FD13D78700832704FDA1835D
:100C0000B307F74093B7170093F7F70F3E87130624
:100C1000B00AB1679385C7163A85EF10703A8327FB
:100C200044FD93F7F70FE146014685453E85EFF019
:100C30006FF5832704FD93F7F70F930680040146B1
:100C400081453E85EFF00FF485450545EF301047AF
:100C5000032744FDC167FD17F98F0D671307073898
:100C60006385E7200D67130707386369F704056795
:100C7000130757166381E716056713075716636F47
:100C8000F7001307F022638AE70C130760306381D3
:100C9000E710130760126388E70855A60967130772
:100CA0008736638AE7160D67130707126385E7180F
:100CB00009671307A7146380E71451A61567130784
:100CC000A738638CE72615671307A7386362F70216
:100CD000116713078738638EE71E1567130787129E
:100CE0006383E722116713074712638AE71A81AE0D
:100CF00019671307C7386386E72A19671307C738C8
:100D00006368F7001967130767106382E72605AE6B
:100D10001D671307E7106380E72C1D671307E7388B
:100D20006385E72E29AEB7070140D44FB7070140CE
:100D3000370700FC7D17758FD8CFB7070140D84320
:100D4000B70701406D9BD8C3B7070140D843B70729
:100D5000014013674700D8C3DDA4B7070140D44F53
:100D6000B7070140370700FC7D17758FD8CFB7074D
:100D70000140D44FB707014037070004558FD8CF43
:100D8000B7070140D843B70701406D9BD8C345ACB6
:100D9000B7070140D44FB7070140370700FC7D1764
:100DA000758FD8CFB7070140D44FB7070140370739
:100DB0000004558FD8CFB7070140D843B70701408B
:100DC0006D9BD8C3B7070140D843B70701401367ED
:100DD0004700D8C3ADA4B7070140D843B7070140C7
:100DE0005D9BD8C3B7070140D843B70701401367DD
:100DF0008700D8C3A9A4B7070140D843B70701406B
:100E00001D9BD8C3B7070140D843B70701401367FC
:100E10008700D8C32DA4B7070140D843B7070140C6
:100E20001D9BD8C3B7070140D843B70701401367DC
:100E30008701D8C329A4B7070140D44FB7070140A1
:100E40003707FDFF7D17758FD8CFB7070140D44F07
:100E5000832744FDA18313970701B70703007D8F04
:100E6000B7070140558FD8CFD9AAB7070140D44F53
:100E7000B70701403707FDFF7D17758FD8CFB7073C
:100E80000140D44F832744FDA18313970701B7077F
:100E900003007D8FB7070140558FD8CF4DA2B7070C
:100EA0000140D44FB70701403707F4FF7D17758F16
:100EB000D8CFB7070140D44F832744FDA1831397B0
:100EC0002701B7070C007D8FB7070140558FD8CF9A
:100ED000BDA2B7070140D44FB70701403707F4FF61
:100EE0007D17758FD8CFB7070140D44F832744FDB6
:100EF000A18313972701B7070C007D8FB707014027
:100F0000558FD8CF2DAAB7070140D44FB70701405E
:100F10003707D0FF7D17758FD8CFB7070140D44F63
:100F2000832744FDA18313974701B70730007D8FC6
:100F3000B7070140558FD8CF19A2B7070140D44F4A
:100F4000B70701403707D0FF7D17758FD8CFB70798
:100F50000140D44F832744FDA18313974701B7076E
:100F600030007D8FB7070140558FD8CFC9A8B7078C
:100F70000140D44FB7070140370740FF7D17758FF9
:100F8000D8CFB7070140D44F832744FDA1831397DF
:100F90006701B707C0007D8FB7070140558FD8CFD5
:100FA00079A8B7070140D44FB7070140370740FF82
:100FB0007D17758FD8CFB7070140D44F832744FDE5
:100FC000A18313976701B707C0007D8FB707014062
:100FD000558FD8CFADA0B7070140D44FB707014018
:100FE000370700FD7D17758FD8CFB7070140D44F65
:100FF000832744FDA18313978701B70700037D8FE3
:10100000B7070140558FD8CF1DA8B7070140D44F6F
:10101000B7070140370700FD7D17758FD8CFB70799
:101020000140D44F832744FDA18313978701B7075D
:1010300000037D8FB7070140558FD8CF010083276C
:10104000C4FD91E785451165EF30500769A8032776
:10105000C4FD85476318F700854537050200EF306A
:10106000500A51A00327C4FD89476318F70085453E
:1010700037050400EF30F008BDA00327C4FD8D47FD
:101080006318F700854537050800EF309007A1A8E1
:101090000327C4FD91476318F70085453705100005
:1010A000EF30300689A00327C4FD95476318F70089
:1010B000854513050004EF30D00435A00327C4FD97
:1010C00099476318F700854513050008EF30700352
:1010D00019A80327C4FD9D476317F700854513052D
:1010E0000010EF301002232004FE232204FE2324EC
:1010F00004FE232604FE832784FD2320F4FE23120E
:1011000004FE231304FE231404FE231604FEB14739
:101110002315F4FEB1670327C4FD0A079387074E22
:10112000BA979C433E87930704FEBE853A85EF300D
:10113000D030B1670327C4FD0A079387074EBA97DB
:101140009C4385453E85EF3090520100B2502254B9
:1011500045618280411106C622C4000883A7C1846C
:101160000547638BE7006388070C0947638DE70039
:101170000D47638FE702E9A083A7818413871700D7
:1011800023A4E18475A883A781841387170023A46F
:10119000E18403A78184A54763F1E70AB70700202C
:1011A000938707009C4B1167D8CB23A4018471A0BF
:1011B00003A7018585476314F7081305F008EFF0CE
:1011C0004F98AA87ADC31945EFF00FF1AA873E8764
:1011D00083A781841D8F9307600963F2E706194591
:1011E000EFF06FFF83A78184D3F717D05385F720E3
:1011F000EF705001B16703A6071D83A6471DEF607E
:10120000C045AA872E883E85C285EF706068AA8790
:10121000139707014183B7070020239CE722094762
:1012200023A8E18429A81945EFF00FEBAA873E8790
:1012300023A4E18429A0010021A0010011A0010044
:101240000100B240224441018280411106C622C4FD
:10125000000883A7C1840947637CF7000D47639AA0
:10126000E7001945EFF02FF7054723A8E18411A007
:1012700001000100B240224441018280011106CEEA
:1012800022CC001083C75185638A070E09A89307F3
:1012900034FE0546BE851385818CEF1050099307F7
:1012A00034FEBE851D45EFF0BF8AAA87EDF30347E4
:1012B00034FEA9476314F70C99472322F4FE130761
:1012C00044FE930784FE85463A86BE851385818C4D
:1012D000EF103036930784FE138737000D46B16751
:1012E0009385871D3A85EF80203CAA879DEB03A755
:1012F000C1858947630DF706054723AEE184138551
:10130000818CEF10807EAA872322F4FE930744FE8F
:1013100081463E86938541961385818CEF1070310E
:10132000B9A0930784FE138737000D46B1679385F4
:10133000C71D3A85EF804037AA8795EB03A78185C3
:1013400089476306F702054723ACE1841385818C46
:10135000EF10A079AA872322F4FE930744FE81466A
:101360003E869385418E1385818CEF10902C1385DA
:10137000818CEF10A0670547238AE1840100F240C9
:10138000624405618280011106CE22CC0010AA873A
:10139000A307F4FEB707002093870700DC47130775
:1013A0000008D8CB8347F4FEBE850545EFF04F9388
:1013B000B707002093870700DC471307000898CB86
:1013C0000100F240624405618280011106CE22CC08
:1013D0000010AA8736872317F4FEAE872316F4FE83
:1013E000B2872315F4FEBA872314F4FE83C7018164
:1013F000C207C1830357E4FEB337F70093F7F70F33
:101400003E8713069008B1679385872C3A85EF10C5
:10141000203B83C71181C207C1830357C4FEB33782
:10142000F70093F7F70F3E871306A008B16793857F
:10143000872C3A85EF10C03883C70181C207C1836A
:101440000357A4FEB337F70093F7F70F3E87130651
:10145000B008B1679385872C3A85EF10603683C753
:101460001181C207C183035784FEB337F70093F796
:10147000F70F3E871306C008B1679385872C3A851E
:10148000EF10003483A78180BDE31305A002E53D82
:101490008357E4FE93874703C207C183BE85054592
:1014A000EFF0AF8A8357A4FE93874703C207C18337
:1014B000BE850545EFF06F891305B002E935835706
:1014C000C4FE93878702C207C183BE850545EFF03E
:1014D000CF87835784FE93878702C207C183BE8567
:1014E0000545EFF08F861305C002713D81A203A769
:1014F000818085476314F7061305A0026935835779
:10150000E4FE93875703C207C183BE850545EFF00C
:10151000CF838357A4FE93875703C207C183BE8539
:101520000545EFF08F821305B002B13D8357C4FE2D
:1015300093878702C207C183BE850545EFF0EF8020
:10154000835784FE93878702C207C183BE85054502
:10155000EFE0BFFF1305C0023D35C9A803A7818096
:1015600089476314F7061305A002313D8357E4FE53
:1015700093878702C207C183BE850545EFE0FFFC64
:101580008357A4FE93878702C207C183BE850545A2
:10159000EFE0BFFB1305B002FD338357C4FE938712
:1015A0005703C207C183BE850545EFE01FFA835785
:1015B00084FE93875703C207C183BE850545EFE0CC
:1015C000DFF81305C002C13395A01305A002653BE7
:1015D0008357E4FE93878702C207C183BE85054512
:1015E000EFE0BFF68357A4FE93878702C207C1834B
:1015F000BE850545EFE07FF51305B00269338357DB
:10160000C4FE93874703C207C183BE850545EFE04B
:10161000DFF3835784FE93874703C207C183BE85E8
:101620000545EFE09FF21305C002B13B0100F24017
:10163000624405618280797106D622D4001893072E
:10164000C4FD3E85EF10401E8547231EF4FC83C772
:101650000181C207C183231FF4FC83C71181C20724
:10166000C1832310F4FE83A7C1800547638AE70086
:1016700099EF99472301F4FEA147A301F4FE09A8BD
:10168000A1472301F4FEC147A301F4FE11A001000C
:10169000B72700009387C7A62324F4FEB7170000DE
:1016A0009387C76B2326F4FE9307C4FD3E85EF1096
:1016B000401D0100B250225445618280011106CEC6
:1016C00022CC001083C701813E8783C71181B307F5
:1016D000F7022326F4FEB707002093870700DC47B4
:1016E0004147D8CB83C70181C207C183FD17139738
:1016F0000701418383C71181C207C183FD17C20758
:10170000C183BE863A8681450145C13131A8B707FC
:10171000002083D7C723BE850545EFE01FE383275D
:10172000C4FEFD172326F4FE8327C4FEEDF3B7079E
:10173000002093870700DC47414798CB0100F24027
:10174000624405618280011122CE00102326A4FE8E
:101750000327C4FE23A4E1800327C4FE854763EA70
:10176000E700130770F82388E1804157A388E180E0
:1017700001A841572388E180130770F8A388E1800E
:101780000100724405618280011122CE0010AA87F7
:101790002E872317F4FEBA872316F4FEB70700201E
:1017A0000357E4FE239DE722B70700200357C4FE3A
:1017B000239EE7220100724405618280797106D67A
:1017C00022D40018AA87AE863287231FF4FCB6877E
:1017D000231EF4FCBA87A30DF4FC83C70181C20762
:1017E000C1830357E4FDB337F70093F7F70F3E8744
:1017F00013065019B1679385872C3A85EF00507C0A
:1018000083C71181C207C1830357C4FDB337F700F3
:1018100093F7F70F3E8713066019B1679385872CFE
:101820003A85EF00F079B707002093870700DC477F
:101830004147D8CB83A7C1800547638DE70C639AE6
:101840000720A30704FEC9A08347F4FE13970701EE
:1018500041838357E4FDBA9713950701418183477C
:10186000F4FE1397070141838357E4FDBA9713975A
:10187000070141838357C4FDA10793960701C182E5
:101880008357C4FD3A86BE8589368307B4FD138726
:1018900007FE8346F4FE3566BA878607BA97860741
:1018A000130706AFBA97B69783C70700A306F4FEDF
:1018B000230704FE81A08347D4FE858B91CBB70715
:1018C000002083D7A723BE850545EFE01FC809A8E0
:1018D000B707002083D7C723BE850545EFE0FFC6C5
:1018E0008347D4FE8583A306F4FE8347E4FE850781
:1018F0002307F4FE0347E4FE9D47E3FEE7FA834730
:10190000F4FE8507A307F4FE0347F4FE9547E3FDC5
:10191000E7F289A2A30704FE3DA28347F4FE1397D2
:10192000070141838357E4FDBA971395070141816D
:101930008347F4FE1397070141838357E4FDBA9769
:101940001397070141838357C4FDBD079396070191
:10195000C1828357C4FD3A86BE85EFF01FA7830777
:10196000B4FD938607FE8347F4FE316792061307A2
:1019700007503697BA9783C707002306F4FE8307FC
:10198000B4FD938607FE8347F4FEA10731679206F4
:10199000130707503697BA9783C70700A305F4FECD
:1019A000230704FE81A08347C4FE858B91CBB70734
:1019B000002083D7A723BE850545EFE01FB909A8FE
:1019C000B707002083D7C723BE850545EFE0FFB7E3
:1019D0008347C4FE85832306F4FE8347E4FE850720
:1019E0002307F4FE0347E4FE9D47E3FEE7FA2307DF
:1019F00004FE81A08347B4FE858B91CBB7070020FE
:101A000083D7A723BE850545EFE03FB409A8B707F4
:101A1000002083D7C723BE850545EFE01FB383476A
:101A2000B4FE8583A305F4FE8347E4FE8507230700
:101A3000F4FE0347E4FE9D47E3FEE7FA8347F4FE26
:101A40008507A307F4FE0347F4FE9D47E3F7E7ECA1
:101A500011A00100B707002093870700DC4741472A
:101A600098CB0100B250225445618280797106D62C
:101A700022D40018AA872E87232CC4FC231FF4FC31
:101A8000BA87231EF4FC83C70181C207C1830357B1
:101A9000E4FDB337F70093F7F70F3E871306601E98
:101AA000B1679385872C3A85EF00905183C71181E8
:101AB000C207C1830357C4FDB337F70093F7F70F8D
:101AC0003E871306701EB1679385872C3A85EF0019
:101AD000304F231704FE69A883A7C1800547638997
:101AE000E70489C709476384E70859A00357E4FE60
:101AF000BA878607BA9786071397070141838357EA
:101B0000E4FDBA9793960701C1828357E4FE032749
:101B100084FDBA97038707008357C4FD3A86BE85C4
:101B2000368569398357E4FE85072317F4FE89A0BB
:101B30008357E4FE8E071397070141838357E4FD23
:101B4000BA9793960701C1828357E4FE032784FD69
:101B5000BA97038707008357C4FD3A86BE8536854A
:101B6000B1398357E4FE85072317F4FE11A0010065
:101B70008357E4FE032784FDBA9783870700A9FFF4
:101B80000100B250225445618280411106C622C430
:101B900000081308F00FC167F91705671307F7026C
:101BA00085669386D60237A64A0413060620814529
:101BB0000545EFE0FFA3C1460146854513057006C4
:101BC000EFE04FFCC1460146854513057002EFE08A
:101BD0006FFBC1460546854513054006EFE08FFAC9
:101BE000C1460546854513050006EFE0AFF983A71A
:101BF00081803E85893EB707002003D7A723B7071A
:101C0000002083D7C723BE853A85BD3EEFF0BFA233
:101C1000B707002093870700DC4313070008D8CBE1
:101C200003A701828967938707F4B357F7029305E7
:101C3000800C3E85EFE04FE7B70700209387070051
:101C4000DC431307000898CB03A7018289679387B9
:101C500007F4B357F702930540063E85EFE0CFE463
:101C6000B707002093870700DC474147D8CB13050F
:101C70006003EFF04FF103A701828967938707F4B0
:101C8000B357F702930540063E85EFE0EFE183A7E7
:101C9000818091E781450545EFE09F8425A803A752
:101CA000818085476318F7009305000C0545EFE038
:101CB0003F830DA003A7818089476318F700930530
:101CC00000070545EFE0DF8131A09305000A0545D7
:101CD000EFE01F811305A003EFF0EFEA95450545FE
:101CE000EFE01F801305200BEFF0EFE9B14505454C
:101CF000EFE00FFFB1450545EFE08FFE814505455B
:101D0000EFE00FFE930530030545EFE06FFD93050F
:101D100030030545EFE0CFFC1305700BEFF0AFE6A5
:101D2000930550030545EFE0AFFB1305B00BEFF053
:101D30008FE5930570030545EFE08FFA1305000C5E
:101D4000EFF06FE49305C0020545EFE06FF913056E
:101D5000200CEFF04FE385450545EFE06FF81305E4
:101D6000300CEFF04FE2C9450545EFE06FF7130582
:101D7000400CEFF04FE1930500020545EFE04FF610
:101D80001305600CEFF02FE0BD450545EFE04FF582
:101D90001305000DEFF02FDF9305400A0545EFE036
:101DA0002FF49305100A0545EFE08FF31305000E9D
:101DB000EFF06FDD9305000D0545EFE06FF2914503
:101DC0000545EFE0EFF1B5450545EFE06FF1C5459D
:101DD0000545EFE0EFF0CD450545EFE06FF09305E9
:101DE000B0020545EFE0CFEF9305F0030545EFE0C6
:101DF0002FEF930540050545EFE08FEE9305C004F6
:101E00000545EFE0EFEDE1450545EFE06FEDB54548
:101E10000545EFE0EFECAD450545EFE06FECFD4526
:101E20000545EFE0EFEB930530020545EFE04FEBA2
:101E30001305100EEFF02FD59305000D0545EFE0CB
:101E40002FEA91450545EFE0AFE9B1450545EFE0E3
:101E50002FE9C5450545EFE0AFE8CD450545EFE085
:101E60002FE89305C0020545EFE08FE79305F003E7
:101E70000545EFE0EFE6930540040545EFE04FE64A
:101E8000930510050545EFE0AFE59305F002054524
:101E9000EFE00FE5FD450545EFE08FE4FD45054525
:101EA000EFE00FE4930500020545EFE06FE39305D3
:101EB00030020545EFE0CFE213051002EFF0AFCCA2
:101EC0004545EFF04FCC03A701828967938707F45C
:101ED000B357F702930580073E85EFE0EFBC13058B
:101EE0009002EFF04FCAB707002093870700DC4746
:101EF000414798CBEFF08FFC0100B24022444101F2
:101F00008280411122C600080100324441018280D2
:101F1000411122C60008B71702409843B717024084
:101F20001367170098C3B7170240D443B71702408E
:101F30003707FFF8758FD8C3B71702409443B71718
:101F400002403707F7FE7D17758F98C3B717024019
:101F50009443B71702403707FCFF7D17758F98C36E
:101F6000B7170240D443B7170240370781FF7D17E8
:101F7000758FD8C3B717024037079F0098C7010075
:101F8000324441018280797122D60018232EA4FCAC
:101F9000232604FE232404FEB71702409443B717F8
:101FA00002404167558F98C3B71702409843B7075F
:101FB0000200F98F2324F4FE8327C4FE850723261D
:101FC000F4FE832784FE91E70327C4FE8567E31DA3
:101FD000F7FCB71702409843B7070200F98F89C78B
:101FE00085472324F4FE19A0232404FE032784FE3E
:101FF00085476312F71637170240B7170240584358
:10200000D8C337170240B71702405843D8C3371711
:102010000240B71702405843D8C3B7170240D44311
:10202000B71702403707C1FF7D17758FD8C3032745
:10203000C4FDB747950893870740631BF700B717A0
:102040000240D443B71702404167558FD8C355A803
:102050000327C4FDB7172707938707E0631CF70022
:10206000B7170240D443B717024037073900558FDE
:10207000D8C341A80327C4FDB7E7B80593870780F5
:10208000631CF700B7170240D443B7170240370765
:102090002900558FD8C3B5A00327C4FDB7A74A04AC
:1020A00093870720631CF700B7170240D443B71784
:1020B000024037071D00558FD8C3A1A00327C4FDD8
:1020C000B777DC02938707C0631CF700B71702409D
:1020D000D443B717024037071100558FD8C315A056
:1020E0000327C4FDB7376E0193870760631BF700B2
:1020F000B7170240D443B717024037070500558F82
:10210000D8C3B71702409443B717024037070001FE
:10211000558F98C30100B71702409843B7070002D4
:10212000F98FF5DBB7170240D843B7170240719B10
:10213000D8C3B7170240D843B71702401367270028
:10214000D8C30100B7170240DC4313F7C700A1470B
:10215000E31AF7FE11A001A03254456182800111FB
:1021600006CE22CC00102326A4FE0327C4FE23A003
:10217000E182793B0325C4FE3935EF10E00101000F
:10218000F240624405618280411122C600080100CC
:102190000100324441018280011106CE22CC0010A0
:1021A000232604FE232404FE232604FE25A0232444
:1021B00004FE39A0D13F832784FE85072324F4FE43
:1021C000032784FEC167E367F7FE8327C4FE850704
:1021D0002326F4FE0327C4FE9307F00FE3F9E7FC80
:1021E0000100F240624405618280411122C600086C
:1021F0000100324441018280011106CE22CC001040
:102200002326A4FE8325C4FE0945EFE07F8E01004E
:10221000F240624405618280130101D92326112610
:102220002324812623229126801C232EA4D8232C0C
:10223000B4D8232AC4D82328D4D8231504FE2314C1
:1022400004FE231304FE231204FE231104FE0325BF
:1022500084D9EF704044AA87C207C1872313F4FED4
:1022600083D7419E89C79387419E9C4B829783C7A2
:10227000018693F7F70F638D074A83D7419E6387E3
:1022800007449387419ED447835724FE1397070141
:10229000418793170701C1838507C207C183C2071E
:1022A000C1872311F4FE93170701C1830326C4D904
:1022B000BE8501458296832784D92326F4FE032513
:1022C00084D9EF70403DAA87C207C1872313F4FE6B
:1022D0009387419E83D727003E879387419E83C77C
:1022E0006700B347F702C207C1872312F4FE01005B
:1022F0008327C4FE138717002326E4FE8387070085
:10230000E5FB231404FEA1A88327C4FEFD172326A2
:10231000F4FE8327C4FE038707009307F002630AD5
:10232000F7008327C4FE038707009307C005631BDC
:10233000F700835784FEC207C1838507C207C183A4
:102340002314F4FE835764FEC207C187C207C1830A
:10235000FD17C207C183C207C1872313F4FE835749
:1023600084FE139707014183854763E8E70083579D
:1023700064FEC207C187E3D907F8835764FEC2072A
:10238000C18763C207028327C4FE85072326F4FEA4
:10239000130704EE0326C4FEB167938507333A851D
:1023A000EF70002B1DA8835784FEC207C18381EF05
:1023B000130704EE0326C4FEB1679385C7333A853D
:1023C000EF70002919A8130704EE0326C4FEB167B5
:1023D000938507333A85EF70A027231504FE21AAC1
:1023E000231404FE59A0930704EE3E85EF70A02A43
:1023F0002A87835784FEC207C183BE868357A4FE03
:10240000C207C1833E86835744FEC207C187B30714
:10241000F602B6976367F706835784FEC207C18347
:102420003E878357A4FEC207C183BE86835744FEFE
:10243000C207C187B387F602BA97035784FE4207E3
:102440004183BA86130704FFBA97038707EF930700
:1024500004FFB6972388E7EA835784FEC207C18347
:102460008507C207C1832314F4FE835784FEC20785
:10247000C1833E87835744FEC207C187E345F7F611
:1024800011A00100835784FEC207C183130704FF14
:10249000BA97238807EA9387419E03A8C7009387CA
:1024A000419E83C77700139707014183835724FE1A
:1024B00093960701C18693970601C1838507C207DA
:1024C000C183C207C1872311F4FE93970601C1831C
:1024D000B307F702C207C183130704EA3A86BE8531
:1024E000014502988357A4FEC207C1838507C2072E
:1024F000C1832315F4FE8357A4FEC207C183BE84A3
:10250000930704EE3E85EF7000192A87835744FE37
:10251000C207C187B357F7028507E3E3F4EC13075B
:1025200004EE032644D9B1679385C7343A85EF702A
:1025300020129387419E03A8C7009387419E83C7BB
:102540007700139707014183835724FE9396070171
:10255000C18693970601C1838507C207C183C2075D
:10256000C1872311F4FE93970601C183B307F702D5
:10257000C207C183130704EE3A86BE85014502985F
:10258000832704D96386071A231504FE21AA23147E
:1025900004FE59A0032504D9EF70E00F2A87835762
:1025A00084FEC207C183BE868357A4FEC207C183CF
:1025B0003E86835744FEC207C187B307F602B6972B
:1025C0006368F706835784FEC207C1833E8783573B
:1025D000A4FEC207C183BE86835744FEC207C187DB
:1025E000B387F602BA973E87832704D9BA97035771
:1025F00084FE42074183BA8603870700930704FFDE
:10260000B6972388E7EA835784FEC207C18385070C
:10261000C207C1832314F4FE835784FEC207C1831B
:102620003E87835744FEC207C187E345F7F611A0F2
:102630000100835784FEC207C183130704FFBA97C2
:10264000238807EA9387419E03A8C7009387419E8A
:1026500083C77700139707014183835724FE93961E
:102660000701C18693970601C1838507C207C1830D
:10267000C207C1872311F4FE93970601C183B307F4
:10268000F702C207C183130704EA3A86BE850145F3
:1026900002988357A4FEC207C1838507C207C1837E
:1026A0002315F4FE8357A4FEC207C183BE8403250D
:1026B00004D9EF60507E2A87835744FEC207C18742
:1026C000B357F7028507E3E4F4EC9DA0930704DA1F
:1026D0001306001081453E85EFD09FB29387419E3F
:1026E0009C470325C4D98297832704D999CF130522
:1026F00004DA032704D9832644D9032684D9B16791
:1027000093858735EF60D07429A8130704DA8326F0
:1027100044D9032684D9B167938547373A85EF605A
:1027200030739387419E9847930704DA3E8502975A
:1027300001008320C126032481268324412613011E
:1027400001278280797106D622D40018232EA4FC9A
:10275000232CB4FC232AC4FC232604FEA9A00100D8
:10276000B1679387074E9C47930500043E85EF2091
:10277000E078AA87F5D7B1679387074E9C47BE8656
:10278000832784FD13871700232CE4FC838707002D
:10279000C207C183BE853685EF2060738327C4FEE0
:1027A00085072326F4FE0327C4FE832744FDE34860
:1027B000F7FA832744FD3E85B2502254456182805A
:1027C000011106CE22CC0010AA872324B4FE2322B6
:1027D000C4FEA307F4FE8347F4FEB1E383C741823E
:1027E00093F7F70F8DCF83C7118691C301A083C7DD
:1027F0001186850713F7F70FA380E186EF003017E6
:10280000EFF0BF9E8146032644FE832584FEB16718
:102810001385C738EFF05FA0EFF01F98E5B7010010
:10282000F240624405618280011122CE001023260D
:10283000A4FE8327C4FE239007008327C4FE7D5790
:102840002391E7008327C4FE7D572392E700832767
:10285000C4FE7D572383E7008327C4FE7D57A383EF
:10286000E7008327C4FE23A407008327C4FE23A612
:1028700007008327C4FE23A80700010072440561F6
:102880008280011122CE00102326A4FE8327C4FEDD
:1028900003D707002392E19E8327C4FE03D72700B6
:1028A0009387419E2391E7008327C4FE03D7470007
:1028B0009387419E2392E7008327C4FE03C76700E6
:1028C0009387419E2383E7008327C4FE03C77700D5
:1028D0009387419EA383E7008327C4FE984793878D
:1028E000419E98C78327C4FED8479387419ED8C787
:1028F0008327C4FE984B9387419E98CB054723803E
:10290000E1860100724405618280797106D622D485
:1029100000189307C4FD3E85013FB7270000938749
:10292000871F2322F4FE9307C4FD3E85993F8967E4
:102930009386B70289671386A702F16793850720FC
:102940000945EFE0CFA60100B250225445618280D4
:10295000011122CE00102326A4FE2324B4FE8327D7
:10296000C4FED847832784FE3E978327C4FED8C77A
:1029700019A88327C4FED8478327C4FE9C4F1D8F08
:102980008327C4FED8C78327C4FE984F8327C4FE7D
:10299000DC47E3F0E7FE010072440561828001112B
:1029A00022CE00102326A4FE2324B4FE8327C4FED7
:1029B000984B832784FE3E978327C4FE98CB19A8A3
:1029C0008327C4FE984B8327C4FE9C4F1D8F83270B
:1029D000C4FE98CB8327C4FE984F8327C4FE9C4B2C
:1029E000E3F0E7FE0100724405618280797106D64A
:1029F00022D40018232EA4FC8327C4FDB337F00093
:102A000093F7F70F3E8713064005B1679385873A22
:102A10003A857D33232604FE8327C4FD83C7070040
:102A2000858B93F7F70F89C789472326F4FE7DA08E
:102A30008327C4FD83C7070093E7170013F7F70F39
:102A40008327C4FD2380E7008327C4FD23A6070056
:102A50008327C4FD23A807008327C4FD984F83273D
:102A6000C4FDD8CB8327C4FDDC4305476383E7025D
:102A700089C70947638CE702B9A08327C4FD98473B
:102A80008327C4FD9C4F3E8681453A85EFD04FF7A2
:102A90001DA88327C4FD98478327C4FD9C4F860744
:102AA0003E8681453A85EFD0AFF531A88327C4FD36
:102AB00098478327C4FD9C4F8A073E8681453A8507
:102AC000EFD00FF401008327C4FD83C70700F99BF3
:102AD00013F7F70F8327C4FD2380E7008327C4FE85
:102AE0003E85B250225445618280011106CE22CC2F
:102AF00000102326A4FE8327C4FEB337F00093F70B
:102B0000F70F3E871306C007B1679385873A3A856A
:102B1000EFF01FCB8327C4FE984F8327C4FEDC4B06
:102B2000B307F7403E85F2406244056182807971C7
:102B300006D622D40018232EA4FC232CB4FC232A6E
:102B4000C4FC8327C4FDB337F00093F7F70F3E872B
:102B50001306C00BB1679385873A3A85EFF05FC6DD
:102B6000232604FE232404FE832784FD89E78D4762
:102B70002326F4FE45AC8327C4FD83C70700898B59
:102B800093F7F70F89C785472326F4FE61AC8327A7
:102B9000C4FD83C7070093E7270013F7F70F8327C8
:102BA000C4FD2380E7008327C4FDDC4B032744FDDD
:102BB00063ECE7248327C4FD984F8327C4FDDC47DB
:102BC000B307F7402324F4FE032744FD832784FE44
:102BD00063F2E7188327C4FDDC430547638FE706EC
:102BE00089C709476389E70E31A48327C4FD984745
:102BF0008327C4FDDC47BA97032684FE832584FD22
:102C00003E85EF501076832584FE0325C4FDEFF04A
:102C10003FD48327C4FD98478327C4FDDC47B30610
:102C2000F700032784FD832784FEB305F7000327FD
:102C300044FD832784FEB307F7403E863685EF5078
:102C40005072032744FD832784FEB307F740BE85F7
:102C50000325C4FDEFF0DFCF71AA8327C4FD984799
:102C60008327C4FDDC4786073E97832784FE8607BB
:102C70003E86832584FD3A85EF50B06E832584FE21
:102C80000325C4FDEFF0DFCC8327C4FD98478327DD
:102C9000C4FDDC478607B306F700832784FE86075A
:102CA000032784FDB305F700032744FD832784FE33
:102CB000B307F74086073E863685EF50906A0327B4
:102CC00044FD832784FEB307F740BE850325C4FD7A
:102CD000EFF01FC805A28327C4FD98478327C4FDD2
:102CE000DC478A073E97832784FE8A073E86832532
:102CF00084FD3A85EF50F066832584FE0325C4FDEC
:102D0000EFF01FC58327C4FD98478327C4FDDC4728
:102D10008A07B306F700832784FE8A07032784FD0A
:102D2000B305F700032744FD832784FEB307F7406C
:102D30008A073E863685EF50D062032744FD8327FD
:102D400084FEB307F740BE850325C4FDEFF05FC0E6
:102D500001004DA08327C4FDDC430547638CE702D7
:102D600089C709476380E70671A08327C4FD984798
:102D70008327C4FDDC47BA97032644FD832584FDE1
:102D80003E85EF50105E832544FD0325C4FDEFF022
:102D90003FBC8DA08327C4FD98478327C4FDDC4733
:102DA00086073E97832744FD86073E86832584FD5C
:102DB0003A85EF50105B832544FD0325C4FDEFF0F9
:102DC0003FB90DA88327C4FD98478327C4FDDC477E
:102DD0008A073E97832744FD8A073E86832584FD24
:102DE0003A85EF501058832544FD0325C4FDEFF0CC
:102DF0003FB601008327C4FDD84B832744FD1D8FB8
:102E00008327C4FDD8CB21A091472326F4FE832736
:102E1000C4FD83C70700F59B13F7F70F8327C4FD95
:102E20002380E7008327C4FE3E85B25022544561CB
:102E30008280797106D622D40018232EA4FC232C7C
:102E4000B4FC232AC4FC2328D4FC8327C4FDB33755
:102E5000F00093F7F70F3E8713067016B16793855E
:102E6000873A3A85EFF0DF95832744FDB337F000CA
:102E700093F7F70F3E8713068016B1679385873A5D
:102E80003A85EFF0FF93232604FE832784FD89E72C
:102E90008D472326F4FEA1AC8327C4FD83C707001A
:102EA00093E7470013F7F70F8327C4FD2380E7005C
:102EB0000325C4FDEFF07FC32324A4FE832744FD34
:102EC0009C43032784FE637AF700832744FD03278E
:102ED00084FE98C395472326F4FE8327C4FD984FAC
:102EE0008327C4FD9C4BB307F7402322F4FE8327BE
:102EF00044FD9C43032744FE6365F7088327C4FD14
:102F0000DC4305476388E70289C709476387E7040D
:102F1000BDA28327C4FD98478327C4FD9C4B3E97E1
:102F2000832744FD9C433E86BA85032584FDEF50EC
:102F30005043B1A28327C4FD98478327C4FD9C4B0F
:102F400086073E97832744FD9C4386073E86BA85C5
:102F5000032584FDEF50F0401DA28327C4FD984750
:102F60008327C4FD9C4B8A073E97832744FD9C43DF
:102F70008A073E86BA85032584FDEF50903E010006
:102F8000FDA88327C4FDDC430547638AE70489C79E
:102F90000947638EE708E5A08327C4FD9847832788
:102FA000C4FD9C4BBA97032644FEBE85032584FDD1
:102FB000EF50303B032784FD832744FEB306F70020
:102FC0008327C4FD8C47832744FD9843832744FE11
:102FD000B307F7403E863685EF50B0384DA08327C3
:102FE000C4FD98478327C4FD9C4B86073E978327E3
:102FF00044FE86073E86BA85032584FDEF50703671
:10300000832744FE8607032784FDB306F700832742
:10301000C4FD8C47832744FD9843832744FEB307B0
:10302000F74086073E863685EF50B03389A8832760
:10303000C4FD98478327C4FD9C4B8A073E9783278E
:1030400044FE8A073E86BA85032584FDEF50703121
:10305000832744FE8A07032784FDB306F7008327EE
:10306000C4FD8C47832744FD9843832744FEB30760
:10307000F7408A073E863685EF50B02E0100832741
:1030800004FDB5E78327C4FD83C70700858B93F74D
:10309000F70F89C789472326F4FE91A88327C4FD2B
:1030A00083C7070093E7170013F7F70F8327C4FDC3
:1030B0002380E700832744FD9C43BE850325C4FD90
:1030C000EFF0FF8D8327C4FDD84B832744FD9C433D
:1030D0003E978327C4FDD8CB8327C4FD83C7070051
:1030E000F99B13F7F70F8327C4FD2380E70083279D
:1030F000C4FD83C70700918B13F7F70F8327C4FD27
:103100002380E7008327C4FE3E85B25022544561E8
:103110008280411122C600089967938787087390BF
:1031200007800100324441018280411122C600081B
:103130009967739007800100324441018280011138
:1031400006CE22CC00102326A4FE8327C4FE99C7F6
:1031500083A741861387F7FF23A2E18683A74186D1
:1031600091E3453F0100F2406244056182804111D4
:1031700006C622C4000883A7418691E37D3783A752
:1031800041861387170023A2E18683A741863E85E7
:10319000B240224441018280411106C622C4000887
:1031A0000145713F0100B2402244410182801D71FE
:1031B000A2CE82E686E48AE28EE012FE16FC1AFABD
:1031C0001EF82AF62EF432F236F03AEE3EEC42EADF
:1031D00046E872E676E47AE27EE08010930550528B
:1031E000B747014013850780EF10B055AA8789CBF8
:1031F00093055052B747014013850780EF10906444
:10320000010076443660A660166186617272E272D1
:103210005273C2733275A275127682767267E26754
:103220005268C268326EA26E126F826F256173009F
:1032300020301D71A2CE82E686E48AE28EE012FE84
:1032400016FC1AFA1EF82AF62EF432F236F03AEE8E
:103250003EEC42EA46E872E676E47AE27EE08010EE
:1032600093055052B747004013850740EF10704D4B
:10327000AA8789CB93055052B74700401385074072
:10328000EF10505C010076443660A66016618661DE
:103290007272E2725273C2733275A27512768276BE
:1032A0007267E2675268C268326EA26E126F826FF6
:1032B0002561730020301D71A2CE82E686E48AE289
:1032C0008EE012FE16FC1AFA1EF82AF62EF432F2DE
:1032D00036F03AEE3EEC42EA46E872E676E47AE20E
:1032E0007EE0801093055052B75700401385078049
:1032F000EF103045AA8789CB93055052B75700404D
:1033000013850780EF101054010076443660A660E4
:10331000166186617272E2725273C2733275A2755F
:10332000127682767267E2675268C268326EA26E67
:10333000126F826F2561730020301D71A2CE82E66C
:1033400086E48AE28EE012FE16FC1AFA1EF82AF6CD
:103350002EF432F236F03AEE3EEC42EA46E872E6FD
:1033600076E47AE27EE0801093055052B757004031
:10337000138507C0EF10F03CAA8789CB9305505204
:10338000B7570040138507C0EF10D04B01007644BB
:103390003660A660166186617272E2725273C27301
:1033A0003275A275127682767267E2675268C268D9
:1033B000326EA26E126F826F2561730020301D7114
:1033C000A2CE82E686E48AE28EE012FE16FC1AFAAB
:1033D0001EF82AF62EF432F236F03AEE3EEC42EACD
:1033E00046E872E676E47AE27EE080109305505279
:1033F00037550040EF10F034AA8791CB83A7418165
:1034000082979305505237550040EF10B0430100AA
:1034100076443660A660166186617272E2725273FB
:10342000C2733275A275127682767267E26752684D
:10343000C268326EA26E126F826F256173002030F7
:103440001D71A2CE82E686E48AE28EE012FE16FCB0
:103450001AFA1EF82AF62EF432F236F03AEE3EEC64
:1034600042EA46E872E676E47AE27EE0801093056E
:103470005052B727004013850780EF10902CAA8781
:1034800089CB93055052B727004013850780EF1072
:10349000703B010076443660A660166186617272E8
:1034A000E2725273C2733275A275127682767267B7
:1034B000E2675268C268326EA26E126F826F256137
:1034C000730020301D71A2CE82E686E48AE28EE08F
:1034D00012FE16FC1AFA1EF82AF62EF432F236F014
:1034E0003AEE3EEC42EA46E872E676E47AE27EE0C4
:1034F000801093055052B7270040138507C0EF1086
:103500005024AA8781CF83A7C18182979305505207
:10351000B7270040138507C0EF10D0320100764472
:103520003660A660166186617272E2725273C2736F
:103530003275A275127682767267E2675268C26847
:10354000326EA26E126F826F2561730020301D7182
:10355000A2CE82E686E48AE28EE012FE16FC1AFA19
:103560001EF82AF62EF432F236F03AEE3EEC42EA3B
:1035700046E872E676E47AE27EE0801093055052E7
:1035800037250040EF10F01BAA8789CBEFD01FCF63
:103590009305505237250040EF10D02A01007644A1
:1035A0003660A660166186617272E2725273C273EF
:1035B0003275A275127682767267E2675268C268C7
:1035C000326EA26E126F826F2561730020301D7102
:1035D000A2CE82E686E48AE28EE012FE16FC1AFA99
:1035E0001EF82AF62EF432F236F03AEE3EEC42EABB
:1035F00046E872E676E47AE27EE08010B70705508E
:1036000083C7070193F7F70F918B8DC383A7818140
:103610008297B707055083C7070113F7F70FB7075E
:1036200005506D9B1377F70F2388E7000100764460
:103630003660A660166186617272E2725273C2735E
:103640003275A275127682767267E2675268C26836
:10365000326EA26E126F826F2561730020301D7171
:10366000A2CE82E686E48AE28EE012FE16FC1AFA08
:103670001EF82AF62EF432F236F03AEE3EEC42EA2A
:1036800046E872E676E47AE27EE080100545EF00D7
:10369000902C2A8785476315F7000545EF00103108
:1036A000010076443660A660166186617272E2722D
:1036B0005273C2733275A275127682767267E267B0
:1036C0005268C268326EA26E126F826F25617300FB
:1036D00020301D71A2CE82E686E48AE28EE012FEE0
:1036E00016FC1AFA1EF82AF62EF432F236F03AEEEA
:1036F0003EEC42EA46E872E676E47AE27EE080104A
:103700000945EF0050252A8785476315F7000945CD
:10371000EF00D029010076443660A660166186610C
:103720007272E2725273C2733275A2751276827629
:103730007267E2675268C268326EA26E126F826F61
:103740002561730020301D71A2CE82E686E48AE2F4
:103750008EE012FE16FC1AFA1EF82AF62EF432F249
:1037600036F03AEE3EEC42EA46E872E676E47AE279
:103770007EE080101145EF00101E2A8785476315F3
:10378000F7001145EF009022010076443660A660F4
:10379000166186617272E2725273C2733275A275DB
:1037A000127682767267E2675268C268326EA26EE3
:1037B000126F826F2561730020301D71A2CE82E6E8
:1037C00086E48AE28EE012FE16FC1AFA1EF82AF649
:1037D0002EF432F236F03AEE3EEC42EA46E872E679
:1037E00076E47AE27EE080102145EF00D0162A8749
:1037F00085476315F7002145EF00501B0100764413
:103800003660A660166186617272E2725273C2738C
:103810003275A275127682767267E2675268C26864
:10382000326EA26E126F826F2561730020301D719F
:10383000A2CE82E686E48AE28EE012FE16FC1AFA36
:103840001EF82AF62EF432F236F03AEE3EEC42EA58
:1038500046E872E676E47AE27EE080104145EF00C9
:10386000900F2A8785476315F7004145EF00101434
:10387000010076443660A660166186617272E2725B
:103880005273C2733275A275127682767267E267DE
:103890005268C268326EA26E126F826F2561730029
:1038A00020301D71A2CE82E686E48AE28EE012FE0E
:1038B00016FC1AFA1EF82AF62EF432F236F03AEE18
:1038C0003EEC42EA46E872E676E47AE27EE0801078
:1038D00013050002EF0030082A8785476316F700BA
:1038E00013050002EF00900C13050004EF00B00672
:1038F0002A8785476316F70013050004EF00100BB5
:1039000013050008EF0030052A8785476316F70086
:1039100013050008EF00900913050010EF00B00335
:103920002A8785476316F70013050010EF0010087B
:1039300013050020EF0030022A8785476316F70041
:1039400013050020EF009006010076443660A66063
:10395000166186617272E2725273C2733275A27519
:10396000127682767267E2675268C268326EA26E21
:10397000126F826F2561730020301D71A2CE82E626
:1039800086E48AE28EE012FE16FC1AFA1EF82AF687
:103990002EF432F236F03AEE3EEC42EA46E872E6B7
:1039A00076E47AE27EE0801013050040EF00A07A12
:1039B0002A8785476316F70013050040EF00007F54
:1039C000856713850780EF0000792A87854763178D
:1039D000F700856713850780EF00407D0565EF00E0
:1039E00080772A8785476315F7000565EF00007C1F
:1039F0000965EF0040762A8785476315F70009655A
:103A0000EF00C07A1165EF0000752A8785476317BC
:103A1000F700EFD09F831165EF0040792165EF003B
:103A200080732A8785476317F700EFD0AFF22165CF
:103A3000EF00C077010076443660A66016618661AB
:103A40007272E2725273C2733275A2751276827606
:103A50007267E2675268C268326EA26E126F826F3E
:103A60002561730020301D71A2CE82E686E48AE2D1
:103A70008EE012FE16FC1AFA1EF82AF62EF432F226
:103A800036F03AEE3EEC42EA46E872E676E47AE256
:103A90007EE080108545B7370140138507C0EF10E1
:103AA000E00FAA8781CB8545B7370140138507C052
:103AB000EF10C015010076443660A660166186617D
:103AC0007272E2725273C2733275A2751276827686
:103AD0007267E2675268C268326EA26E126F826FBE
:103AE0002561730020301D71A2CE82E686E48AE251
:103AF0008EE012FE16FC1AFA1EF82AF62EF432F2A6
:103B000036F03AEE3EEC42EA46E872E676E47AE2D5
:103B10007EE08010854537050040EF102008AA8719
:103B200091C7854537050040EF10400E01007644EF
:103B30003660A660166186617272E2725273C27359
:103B40003275A275127682767267E2675268C26831
:103B5000326EA26E126F826F2561730020301D716C
:103B6000A2CE82E686E48AE28EE012FE16FC1AFA03
:103B70001EF82AF62EF432F236F03AEE3EEC42EA25
:103B800046E872E676E47AE27EE080108545B70783
:103B9000004013850740EF106000AA8781CB854560
:103BA000B707004013850740EF1040060100764438
:103BB0003660A660166186617272E2725273C273D9
:103BC0003275A275127682767267E2675268C268B1
:103BD000326EA26E126F826F2561730020301D71EC
:103BE000A2CE82E686E48AE28EE012FE16FC1AFA83
:103BF0001EF82AF62EF432F236F03AEE3EEC42EAA5
:103C000046E872E676E47AE27EE080108545B717F2
:103C1000004013850780EF007078AA8781CB854527
:103C2000B717004013850780EF00507E01007644EF
:103C30003660A660166186617272E2725273C27358
:103C40003275A275127682767267E2675268C26830
:103C5000326EA26E126F826F2561730020301D716B
:103C6000A2CE82E686E48AE28EE012FE16FC1AFA02
:103C70001EF82AF62EF432F236F03AEE3EEC42EA24
:103C800046E872E676E47AE27EE080108545B71772
:103C90000040138507C0EF007070AA8781CB85456F
:103CA000B7170040138507C0EF0050760100764437
:103CB0003660A660166186617272E2725273C273D8
:103CC0003275A275127682767267E2675268C268B0
:103CD000326EA26E126F826F2561730020301D71EB
:103CE000A2CE82E686E48AE28EE012FE16FC1AFA82
:103CF0001EF82AF62EF432F236F03AEE3EEC42EAA4
:103D000046E872E676E47AE27EE080108545371573
:103D10000040EF00B068AA8791C78545371500407D
:103D2000EF00D06E010076443660A66016618661B1
:103D30007272E2725273C2733275A2751276827613
:103D40007267E2675268C268326EA26E126F826F4B
:103D50002561730020301D71A2CE82E686E48AE2DE
:103D60008EE012FE16FC1AFA1EF82AF62EF432F233
:103D700036F03AEE3EEC42EA46E872E676E47AE263
:103D80007EE080108545B717004013850740EF009F
:103D9000F060AA8781CB8545B7170040138507409F
:103DA000EF00D066010076443660A6601661866139
:103DB0007272E2725273C2733275A2751276827693
:103DC0007267E2675268C268326EA26E126F826FCB
:103DD0002561730020301D71A2CE82E686E48AE25E
:103DE0008EE012FE16FC1AFA1EF82AF62EF432F2B3
:103DF00036F03AEE3EEC42EA46E872E676E47AE2E3
:103E00007EE080108545B737014013850740EF00FD
:103E1000F058AA8781CB8545B73701401385074005
:103E2000EF00D05E010076443660A66016618661C0
:103E30007272E2725273C2733275A2751276827612
:103E40007267E2675268C268326EA26E126F826F4A
:103E50002561730020301D71A2CE82E686E48AE2DD
:103E60008EE012FE16FC1AFA1EF82AF62EF432F232
:103E700036F03AEE3EEC42EA46E872E676E47AE262
:103E80007EE080108545B7570140138507C0EF00DD
:103E9000F050AA8781CB8545B7570140138507C0ED
:103EA000EF00D056010076443660A6601661866148
:103EB0007272E2725273C2733275A2751276827692
:103EC0007267E2675268C268326EA26E126F826FCA
:103ED0002561730020301D71A2CE82E686E48AE25D
:103EE0008EE012FE16FC1AFA1EF82AF62EF432F2B2
:103EF00036F03AEE3EEC42EA46E872E676E47AE2E2
:103F00007EE08010854537550140EF003049AA8793
:103F100091C7854537550140EF00504F0100764469
:103F20003660A660166186617272E2725273C27365
:103F30003275A275127682767267E2675268C2683D
:103F4000326EA26E126F826F2561730020304111B4
:103F500022C60008010032444101730020304111A3
:103F600022C6000801A0011106CE22CC0010B747DE
:103F7000950813850740EFE08F9EEFE01F999305AA
:103F800020081385819FEF10F07E9305300813857C
:103F900081A1EF10307E93054008138581A3EF10B7
:103FA000707DB16713858740EF506066EFD0FFBD2D
:103FB000B1671386474181450145EFD03FAB2317D9
:103FC00004FE2945EF2000039387819F83C7C70123
:103FD00081CBB1671386C74181450145EFD01FA949
:103FE000938781A183C7C70181CBB16713868742BD
:103FF00081450145EFD09FA7938781A383C7C70160
:10400000E9D3B1671386474381450145EFD01FA629
:104010004DBF01A001A001A001A001A001A001A02D
:1040200001A001A001A001A001A001A001A001A088
:1040300001A001A001A001A001A001A001A001A078
:1040400001A001A001A001A001A001A001A001A068
:1040500001A001A001A001A001A001A001A001A058
:1040600001A001A001A001A001A001A001A001A048
:1040700001A001A001A001A001A001A001A001A038
:1040800001A001A001A001A001A001A001A001A028
:1040900001A001A001A001A001A001A001A001A018
:1040A00001A001A001A001A001A001A001A001A008
:1040B00001A001A001A001A001A001A001A001A0F8
:1040C00001A001A001A001A001A001A001A001A0E8
:1040D00097D1FF1F9381819617C10020130181F2B0
:1040E000179500001305452697C5FF1F938585F199
:1040F0001386818463FAC5008322050023A055003E
:1041000011059105E3EAC5FE138581849385C1A558
:104110006377B500232005001105E36DB5FEFD4270
:10412000739002BCFD4273904280B762000093829C
:10413000820873A0023097C2FFFF938222F093E2BD
:1041400032007390523097020000938202E2739023
:10415000123473002030797122D60018232EA4FC6B
:10416000232604FE232404FEB7070140938707405B
:104170009C430327C4FDF98F2324F4FEB7070140B5
:1041800093870740D84B8327C4FDF98F81CB8327C2
:1041900084FE89C785472326F4FE19A0232604FE42
:1041A0008327C4FE3E85325445618280011122CEB0
:1041B00000102326A4FEB70701409387074003277A
:1041C000C4FED8CB0100724405618280397122DEC1
:1041D00080002326A4FC2324B4FC232604FE2320F1
:1041E00004FE232404FE232E04FC232204FE232C9D
:1041F00004FC832784FC9C47BD8B2326F4FE832785
:1042000084FC9C47C18B89CB832784FCDC43032738
:10421000C4FED98F2326F4FE832784FC83D70700AE
:1042200093F7F70FF1CF8327C4FC9C432322F4FEBE
:10423000232404FE65A8832784FE0547B317F700EF
:10424000232EF4FC832784FC83D707003E87832733
:10425000C4FDF98F2320F4FE032704FE8327C4FD49
:104260006311F708832784FE8A07232EF4FC832733
:10427000C4FD3D47B317F700232CF4FC832784FDCE
:1042800093C7F7FF032744FEF98F2322F4FE832709
:10429000C4FD0327C4FEB317F700032744FED98FDC
:1042A0002322F4FE832784FC984793078002631B34
:1042B000F700832784FE05473317F7008327C4FCE4
:1042C000D8CB05A0832784FC984793078004631A02
:1042D000F700832784FE05473317F7008327C4FCC4
:1042E00098CB832784FE85072324F4FE032784FECE
:1042F0009D47E3F2E7F48327C4FC032744FE98C3F9
:10430000832784FC03D707009307F00F63F1E70EC0
:104310008327C4FCDC432322F4FE232404FE75A877
:10432000832784FEA1070547B317F700232EF4FC6B
:10433000832784FC83D707003E878327C4FDF98F3A
:104340002320F4FE032704FE8327C4FD6312F7082D
:10435000832784FE8A07232EF4FC8327C4FD3D4770
:10436000B317F700232CF4FC832784FD93C7F7FFD2
:10437000032744FEF98F2322F4FE8327C4FD03277D
:10438000C4FEB317F700032744FED98F2322F4FE9F
:10439000832784FC984793078002631BF7008327D9
:1043A00084FEA10705473317F7008327C4FCD8CB49
:1043B000832784FC984793078004631BF7008327B7
:1043C00084FEA10705473317F7008327C4FC98CB69
:1043D000832784FE85072324F4FE032784FE9D475C
:1043E000E3F0E7F48327C4FC032744FED8C30100AD
:1043F000725421618280011122CE00102326A4FE76
:10440000AE872322C4FE2315F4FE832744FE99C7FA
:104410000357A4FE8327C4FE98CB31A00357A4FE04
:104420008327C4FED8CB0100724405618280797174
:1044300022D60018232EA4FC232CB4FC232404FE33
:10444000232204FE232604FE232004FE8327C4FD2A
:1044500063D80700B7070140DC4F2326F4FE31A0E4
:10446000B7070140DC432326F4FE8327C4FDC18344
:10447000BD8B2320F4FE0327C4FDC167FD17F98F10
:104480002324F4FE8327C4FD63D407080327C4FD57
:10449000B70730007D8FB70730006314F70283271A
:1044A00004FEC1070D47B317F7002322F4FE83274C
:1044B00044FE93C7F7FF0327C4FEF98F2326F4FEBB
:1044C000C5A80327C4FDB7071000F98F95C383273C
:1044D00004FE0D47B317F7002322F4FE832744FEA2
:1044E00093C7F7FF0327C4FEF98F2326F4FEC9A064
:1044F0008327C4FDD5839207032784FEB317F700F3
:1045000093C7F7FF0327C4FEF98F2326F4FE4DA0BF
:104510000327C4FDB70730007D8FB7073000631550
:10452000F7020327C4FEB70700F1FD17F98F232612
:10453000F4FEB7070140D443B7070140370700F145
:104540007D17758FD8C3ADA00327C4FDB707100032
:10455000F98F8DCB832704FE0D47B317F700232275
:10456000F4FE832744FE93C7F7FF0327C4FEF98FA9
:104570002326F4FE0327C4FEB707000FD98F232696
:10458000F4FE3DA08327C4FDD5839207032784FE54
:10459000B317F70093C7F7FF0327C4FEF98F23264D
:1045A000F4FE0327C4FEB707000FD98F2326F4FEBD
:1045B000832784FD91CF8327C4FDD58392070327EA
:1045C00084FEB317F7000327C4FED98F2326F4FE19
:1045D0008327C4FD63D80700B70701400327C4FE43
:1045E000D8CF31A0B70701400327C4FED8C30100CC
:1045F000325445618280397122DE80002326A4FC7A
:10460000232204FE232604FE232004FE232E04FC82
:10461000232404FEB7170240DC43B18B2322F4FEAF
:10462000032744FE91476303F702032744FEA14793
:104630006306F702832744FE639907148327C4FCAB
:1046400037177A001307072098C389AA8327C4FC69
:1046500037177A001307072098C389A2B7170240BB
:10466000D843B7073C00F98F2326F4FEB717024062
:10467000D843C167F98F2320F4FE8327C4FEC98382
:1046800089072326F4FEB7F7FF1F9387C770984367
:104690009167F98F91EB0327C4FEC5476319F704AF
:1046A000C9472326F4FEA1A00327C4FE894763154A
:1046B000F700C9472326F4FE0327C4FEBD4763184D
:1046C000F700B5472326F4FE85472324F4FE03278D
:1046D000C4FEC1476315F700BD472326F4FE032738
:1046E000C4FEC5476315F700C1472326F4FE8327A0
:1046F00004FEA1E3B7470240938707809C43C18B28
:1047000089CF0327C4FEB7177A00938707203307A2
:10471000F7028327C4FC98C399A80327C4FEB717E0
:104720003D00938707903307F7028327C4FC98C3A3
:104730003DA8B7170240D843B7070200F98F89CFC9
:104740000327C4FEB7173D00938707903307F7028E
:104750008327C4FC98C321A80327C4FEB7177A0097
:10476000938707203307F7028327C4FC98C30327E6
:1047700084FE85476313F7028327C4FC9C4313D749
:1047800017008327C4FC98C309A88327C4FC3717E4
:104790007A001307072098C311A00100B717024041
:1047A000DC4393F7070F2322F4FE832744FE918313
:1047B0002322F4FEB707002013874701832744FE16
:1047C000BA9783C7070093F7F70F232EF4FC8327CC
:1047D000C4FC98438327C4FD3357F7008327C4FCE8
:1047E000D8C3B7170240DC4393F707702322F4FEC7
:1047F000832744FEA1832322F4FEB70700201387FA
:104800004701832744FEBA9783C7070093F7F70F42
:10481000232EF4FC8327C4FCD8438327C4FD3357DD
:10482000F7008327C4FC98C7B7170240D8439167A5
:1048300093870780F98F2322F4FE832744FEAD83FC
:104840002322F4FEB707002013874701832744FE85
:10485000BA9783C7070093F7F70F232EF4FC83273B
:10486000C4FCD8438327C4FD3357F7008327C4FC17
:10487000D8C7B7170240D843B167F98F2322F4FE97
:10488000832744FEB9832322F4FE13878182832782
:1048900044FEBA9783C7070093F7F70F232EF4FC63
:1048A0008327C4FCD8478327C4FD3357F7028327E7
:1048B000C4FC98CB0100725421618280011122CE88
:1048C00000102326A4FE2324B4FE832784FE99CB64
:1048D000B7170240944FB71702400327C4FE558F05
:1048E00098CF21A8B7170240944F8327C4FE13C75F
:1048F000F7FFB7170240758F98CF0100724405612A
:104900008280011122CE00102326A4FE2324B4FEAF
:10491000832784FE99CBB7170240D44FB7170240C4
:104920000327C4FE558FD8CF21A8B7170240D44F14
:104930008327C4FE13C7F7FFB7170240758FD8CF80
:104940000100724405618280011122CE00102326ED
:10495000A4FE2324B4FE832784FE99CBB71702401C
:10496000D447B71702400327C4FE558FD8C721A8E4
:10497000B7170240D4478327C4FE13C7F7FFB71702
:104980000240758FD8C70100724405618280011111
:1049900022CE00102326A4FE2324B4FE832784FE07
:1049A00099CBB7170240944BB71702400327C4FEB8
:1049B000558F98CB21A8B7170240944B8327C4FE8C
:1049C00013C7F7FFB7170240758F98CB01007244E9
:1049D00005618280011106CE22CC00102326A4FEA0
:1049E0000327C4FEB7370140631BF7008545056503
:1049F000EFF09FF581450565EFF01FF591A00327C6
:104A0000C4FEB747004093870780631BF7008545C6
:104A10001165EFF0DFF781451165EFF05FF70DA04D
:104A20000327C4FEB7470040938707C0631AF70007
:104A300085452165EFF0BFF581452165EFF03FF534
:104A40000100F240624405618280797122D600182B
:104A5000232EA4FC232CB4FC231704FE8327C4FDBF
:104A600083D707002317F4FE0357E4FE8D6793876F
:104A70000704F98F2317F4FE832784FD03D707006B
:104A8000832784FD83D72700D98F1397070141839C
:104A9000832784FD83D74700D98F1397070141836C
:104AA000832784FD83D76700D98F1397070141833C
:104AB000832784FD83D78700D98F1397070141830C
:104AC000832784FD83D7A700D98F139707014183DC
:104AD000832784FD83D7C700D98F139707014183AC
:104AE000832784FD83D7E700D98F1397070141837C
:104AF0008357E4FED98F2317F4FE8327C4FD0357A1
:104B0000E4FE2390E7008327C4FD83D7C7011397F2
:104B100007014183FD779387F77FF98F139707018B
:104B200041838327C4FD239EE700832784FD03D7A9
:104B300007018327C4FD2398E70001003254456133
:104B40008280011122CE00102326A4FE2324B4FE6D
:104B5000832784FE8DC38327C4FE83D70700C20743
:104B6000C18393E707041397070141838327C4FE9A
:104B70002390E70005A08327C4FE83D70700C20760
:104B8000C18393F7F7FB1397070141838327C4FE83
:104B90002390E7000100724405618280797122D67A
:104BA0000018232EA4FCAE87231DF4FC232604FE4C
:104BB000231504FE231404FE8327C4FD83D70701B5
:104BC0001397070141838357A4FDF98F2315F4FE42
:104BD0008327C4FD83D7C7001397070141838357F9
:104BE000A4FDF98F2314F4FE8357A4FE81CB8357D1
:104BF00084FE89C785472326F4FE19A0232604FED8
:104C00008327C4FE3E85325445618280011122CE45
:104C100000102326A4FEAE872315F4FE8357A4FEBE
:104C200093C7F7FF1397070141838327C4FE239897
:104C3000E70001007244056182805D7186C6A2C4EE
:104C40008008232EA4FA232CB4FA232604FE23245E
:104C500004FE232204FE232004FE232E04FC8327CB
:104C6000C4FB232EF4FC8327C4FB83D70701C207B0
:104C7000C1832326F4FE0327C4FEB567FD17F98F11
:104C80002326F4FE832784FB83D767003E87832790
:104C9000C4FED98F2326F4FE8327C4FE1397070191
:104CA00041838327C4FB2398E7008327C4FB83D772
:104CB000C700C207C1832326F4FE0327C4FEBD67D5
:104CC0009387379FF98F2326F4FE832784FB03D72E
:104CD0004700832784FB83D78700D98F1397070169
:104CE0004183832784FB83D7A700D98FC207C18361
:104CF0003E878327C4FED98F2326F4FE8327C4FE74
:104D00001397070141838327C4FB2396E70083277A
:104D1000C4FB83D74701C207C1832326F4FE0327C0
:104D2000C4FEC1679387F7CFF98F2326F4FE83274C
:104D300084FB83D7C7003E878327C4FED98F2326F1
:104D4000F4FE8327C4FE1397070141838327C4FB26
:104D5000239AE700930784FC3E85EFF0DF89032761
:104D6000C4FDB7470140938707806317F700832787
:104D700044FD2324F4FE29A0832704FD2324F4FE0C
:104D80008327C4FB83D7C700C207C183C207C1877B
:104D900063D20702032784FEBA878607BA978E0775
:104DA0003E97832784FB9C438607B357F702232251
:104DB000F4FE05A0032784FEBA878607BA978E07FC
:104DC0003E97832784FB9C438A07B357F70223222D
:104DD000F4FE032744FE93074006B357F7029207F9
:104DE0002326F4FE8327C4FE13D74700930740060B
:104DF000B307F702032744FEB307F7402320F4FE6E
:104E00008327C4FB83D7C700C207C183C207C187FA
:104E100063D20702832704FE8E07138727039307B5
:104E20004006B357F7029D8B0327C4FED98F232674
:104E3000F4FE05A0832704FE920713872703930738
:104E40004006B357F702BD8B0327C4FED98F232634
:104E5000F4FE8327C4FE1397070141838327C4FB15
:104E60002394E7000100B64026446161828001116D
:104E700022CE00102326A4FE2324B4FE832784FE22
:104E800095C38327C4FE83D7C700139707014183C7
:104E90008967D98F1397070141838327C4FE23961F
:104EA000E70015A08327C4FE83D7C7001397070127
:104EB0004183F977FD17F98F139707014183832702
:104EC000C4FE2396E700010072440561828001114F
:104ED00022CE00102326A4FEAE872315F4FE8357AE
:104EE000A4FE93F7F71F1397070141838327C4FE9E
:104EF0002392E7000100724405618280797122D615
:104F00000018232EA4FCAE87231DF4FC232604FEE8
:104F10008327C4FD83D70700139707014183835775
:104F2000A4FDF98FC207C18389C785472326F4FEF4
:104F300019A0232604FE8327C4FE3E853254456112
:104F40008280797122D60018232EA4FCAE87231DFF
:104F5000F4FC232204FE232604FE232004FE232443
:104F600004FE8357A4FD93F7F70F958393F7F70F8C
:104F70002320F4FE8357A4FDFD8B2326F4FE832714
:104F8000C4FE0547B317F7002326F4FE032704FEEB
:104F90008547631FF7008327C4FD83D7C700C20777
:104FA000C1833E878327C4FEF98F2326F4FE3DA8E4
:104FB000032704FE8947631FF7008327C4FD83D7B7
:104FC0000701C207C1833E878327C4FEF98F2326CA
:104FD000F4FE29A88327C4FD83D74701C207C183F4
:104FE0003E878327C4FEF98F2326F4FE8357A4FD52
:104FF000A183C207C1832322F4FE832744FE054711
:10500000B317F7002322F4FE8327C4FD83D70700DC
:10501000C207C1833E87832744FEF98F2322F4FE13
:105020008327C4FE81CB832744FE89C78547232479
:10503000F4FE19A0232404FE832784FE3E85325407
:1050400045618280797122D60018232EA4FCAE8798
:10505000231DF4FC231704FE231604FE8357A4FD2E
:10506000A1832317F4FE8357E4FE0547B317F70027
:105070002316F4FE8357C4FE93C7F7FF1397070167
:1050800041838327C4FD2390E7000100325445612A
:105090008280011122CE0010AA87A307F4FEB70771
:1050A00000500347F4FE42074183239AE702B70703
:1050B000005083C7670313F7F70FB7070050719BC2
:1050C0001377F70F238BE70201007244056182809A
:1050D000011122CE0010AA87A307F4FEB7070050E3
:1050E0000347F4FE42074183239CE702B7070050C1
:1050F00083C7A70313F7F70FB7070050719B137708
:10510000F70F238DE70201007244056182807971F7
:1051100006D622D40018AA87A30FF4FCA30704FE26
:1051200015A803A741878347F4FEBA9703C7070072
:1051300083A641878347F4FE93870704B6971347F6
:10514000F7FF1377F70F2380E7008347F4FE850707
:10515000A307F4FE0347F4FE8347F4FDE363F7FC83
:105160008347F4FD3E85EFF0DFF20100B250225498
:1051700045618280797106D622D40018AA87A30FD0
:10518000F4FCA30704FE15A803A781878347F4FE58
:10519000BA9703C7070083A681878347F4FE9387E6
:1051A0000704B6971347F7FF1377F70F2380E7003D
:1051B0008347F4FE8507A307F4FE0347F4FE834705
:1051C000F4FDE363F7FC8347F4FD3E85EFF05FF009
:1051D0000100B2502254456182805971A2D682EEFC
:1051E00086EC8AEA8EE892E696E49AE29EE02AFE4F
:1051F0002EFC32FA36F83AF63EF442F246F072EEFF
:1052000076EC7AEA7EE88018230F04F8B70700509E
:1052100083C76700A30EF4F88347D4F9898BE38A28
:10522000073CB707005083C7770093F7F70F93F752
:1052300007034147E384E73A41476346F700E38EBB
:1052400007206F00F03913070002E386E704130715
:105250000003E397E738B707005019472389E702AF
:10526000B70700501147A389E70283A7018703C747
:10527000670083C77700A207D98F1397070141837F
:105280002393E18883A7018703C717002382E1885E
:1052900083A7018783C70700230EF4F8A30F04F840
:1052A000230F04F883A7018783C7070093F7070636
:1052B000638B071283C7418893F7F70F93F70702B1
:1052C000D5C383C7418893F7F70F13071002638B89
:1052D000E700130720026389E708130700026387CA
:1052E000E708ADA81387018323AEE1869D47A30F8E
:1052F000F4F883D761881397070141839D4763E9D9
:10530000E70083D76188C207C18393F7F70F11A025
:10531000A147A30FF4F803A7018783A7C18783469A
:10532000F4F93686BE853A85EF30B00383D76188BD
:105330001397070141838347F4F9C207C183B30779
:10534000F7401397070141832393E18803A7C1879F
:105350008347F4F93E9723AEE18611A8FD57230F4A
:10536000F4F831A0010021A0010011A001000347C1
:10537000E4F99307F00F6303F7688347F4F9139791
:105380000701418383D76188C207C1836379F7002E
:105390008347F4F91397070141832393E18883D767
:1053A00001881397070141839D4763E9E70083D78D
:1053B0000188C207C18393F7F70F11A0A147A30F7C
:1053C000F4F883A7C1870347F4F93A86BE851385AD
:1053D0008186EF30007903A7C1878347F4F93E97B0
:1053E00023AEE18621AD83C7418893F7F70F2D47A0
:1053F000636BF75E13972700B567938747DCBA970F
:105400009C43828783A7018703C7270083C7370090
:10541000A207D98FC207C183A183C207C183130723
:1054200020026365F71213972700B567938747DF5C
:10543000BA979C4382873567130787D123AEE186ED
:10544000C947A30FF4F839A235671307C7D223AEB3
:10545000E18693073004A30FF4F8EDA883A7018732
:1054600003C7270083C73700A207D98FC207C183AC
:1054700093F7F70F05476386E70205476344F70094
:1054800089CB99A809476387E7020D47638DE70237
:10549000A1A01387C18323AEE1869147A30FF4F83F
:1054A00081A03567130747D823AEE186B947A30F1C
:1054B000F4F83DA03567130747D923AEE186B1471D
:1054C000A30FF4F831A83567130707DA23AEE18696
:1054D000D947A30FF4F829A0FD57230FF4F80100D2
:1054E00095A83567130707D723AEE186D147A30FE9
:1054F000F4F88DA03567130787DB23AEE186A94753
:10550000A30FF4F881A883C7C18293F7F70F9DE733
:1055100013061004B5679385E7D2B70700201385FB
:105520006702EF300064370700201307470223AEFD
:10553000E18693073004A30FF4F829A8FD57230F41
:10554000F4F809A8FD57230FF4F829A0FD57230FFD
:10555000F4F801008347F4F913970701418383D7D7
:105560006188C207C1836379F7008347F4F9139711
:10557000070141832393E18883D76188139707014B
:1055800041839D4763E9E70083D76188C207C183F0
:1055900093F7F70F11A0A147A30FF4F803A7018712
:1055A00083A7C1878346F4F93686BE853A85EF30F6
:1055B000405B03A7C1878347F4F93E9723AEE1869A
:1055C00035A983A7018703C7270083C73700A20730
:1055D000D98FC207C18393F7F70F13970701418350
:1055E0002393E18821A983A7018703C73188137713
:1055F000F70F2380E70083D7618813970701418362
:10560000854763F6E73E05472393E188CDA683A748
:10561000018703C7270083C73700A207D98FC207B6
:10562000C18313F7F70FA381E188C9AE83A7018770
:1056300083C7070013F7F7018947631FF70C83A798
:10564000018703C7470083C75700A207D98FC20746
:10565000C18393F7F70F09476388E7040947634657
:10566000F70005476387E7085DA013071008638B01
:10567000E70413072008639CE708B707005083C7B7
:10568000A70393F7F70FE207E187E19BE207E187C2
:1056900093E72700139787016187B70700501377B7
:1056A000F70F238DE702ADA8B707005083C7B703F4
:1056B00013F7F70FB7070050619B1377F70FA38D10
:1056C000E702B9A8B707005083C7670393F7F70F3E
:1056D000E207E187E19BE207E18793E72700139761
:1056E00087016187B70700501377F70F238BE70215
:1056F00005A8B707005083C7770313F7F70FB7075D
:105700000050619B1377F70FA38BE70211A8FD5799
:10571000230FF4F8010029A0FD57230FF4F8F9AC8A
:10572000F1AC9387818683C70700FD8BA1E3938744
:10573000818603C7270083C73700A207D98F139735
:10574000070141838547631FF7009307000A93F71A
:10575000070289C705472381E1884DA4FD57230F20
:10576000F4F869ACFD57230FF4F849AC93878186B0
:1057700083C7070013F7F7018947631CF710938766
:10578000818603C7270083C73700A207D98FC207C6
:10579000C183E5EF9387818603C7470083C757001E
:1057A000A207D98FC207C18393F7F70F0947638711
:1057B000E70409476346F7000547638DE708C9A07A
:1057C000130710086382E70613072008639AE70AA5
:1057D000B707005083C7A70393F7F70F37070050A9
:1057E000F19B93F7F70F230DF7023707005093E76C
:1057F000370093F7F70F230DF70245A0B7070050C6
:1058000083C7B70393F7F70F37070050F19B93F760
:10581000F70FA30DF7023707005093E7370093F710
:10582000F70FA30DF70295A8B707005083C76703CA
:1058300093F7F70F37070050F19B93F7F70F230B00
:10584000F7023707005093E7370093F7F70F230B62
:10585000F702A1A0B707005083C7770393F7F70FAC
:1058600037070050F19B93F7F70FA30BF7023707A9
:10587000005093E7370093F7F70FA30BF70231A817
:10588000FD57230FF4F8010009A8FD57230FF4F882
:10589000B5A2FD57230FF4F895A28DA283A7018727
:1058A0002380070083D761881397070141838547C9
:1058B00063F1E71405472393E18825AA2384018631
:1058C00083D70188139707014183854763F5E71262
:1058D00005472390E18805A223840186938781866A
:1058E000A38007009387818603C7470083C75700BB
:1058F000A207D98F139707014183930710086311FB
:10590000F702B707005083C7670393F7F70F13F742
:1059100037008D47631DF70A05472384E18645A8B4
:105920009387818603C7470083C75700A207D98F93
:1059300013970701418385476311F702B7070050AA
:1059400083C7770393F7F70F13F737008D4763107B
:10595000F70805472384E1869DA89387818603C7BE
:10596000470083C75700A207D98F139707014183C8
:10597000930720086311F702B707005083C7A703F6
:1059800093F7F70F13F737008D476312F7040547B6
:105990002384E1862DA89387818603C7470083C7A8
:1059A0005700A207D98F13970701418389476310D6
:1059B000F702B707005083C7B70393F7F70F13F742
:1059C00037008D476315F70005472384E18683D7A9
:1059D0000188139707014183894763F0E70209476C
:1059E0002390E18819A8FD57230FF4F801A80100BE
:1059F00031A0010021A0010011A001000347E4F93A
:105A00009307F00F631DF700B70700501D47238968
:105A1000E702B70700501D47A389E702E9A68307FD
:105A2000C4F963D5070483D76188139707014183BD
:105A3000A14763E9E70083D76188C207C18393F771
:105A4000F70F11A0A147A30FF4F883D7618813972C
:105A5000070141838347F4F9C207C183B307F740C5
:105A60001397070141832393E18819A0A30F04F83A
:105A7000B70700500347F4F9420741832398E70230
:105A8000B707005011472389E702B70700501147B5
:105A9000A389E70289AEB707005083C7770093F761
:105AA000F70F93F7F703130710026385E712130745
:105AB0002002638DE71413070002639EE71883C773
:105AC000418893F7F70F15476380E70A19476394F6
:105AD000E70E83D761881397070141839D4763E9E8
