:100000006F40E062130000001300000013000000C6
:100010001300000013000000130000001300000094
:100020001300000013000000130000001300000084
:08003000130000007300100032
:100038000000000000000000064500001645000012
:1000480000000000744500000000000000000000EF
:100058007645000078450000000000000000000020
:100068007A450000000000007C4500000000000008
:100078007E45000080450000824500008445000060
:100088008645000088450000003C0000743C0000E4
:10009800E83C00005C3D0000D03D000094450000B5
:1000A80096450000984500009A4500009C450000D0
:1000B8009E450000A0450000A2450000A4450000A0
:1000C800A6450000A8450000AA450000443E0000DF
:1000D800AE45000002400000B2450000B4450000F3
:1000E8009E4000001641000096410000BC450000FB
:1000F800BE450000C0450000C2450000C4450000E0
:10010800C645000050370000D437000058380000BA
:100118001C3F0000D0450000D2450000D445000037
:100128008E430000D8450000DA450000DC45000099
:10013800DE450000E045000016420000E4450000EE
:10014800DC38000060390000964200000E430000D1
:10015800EE450000F0450000F2450000F4450000BF
:10016800F6450000F8450000FA450000FC4500008F
:10017800FE45000000460000024600007E590000CF
:100188000646000008460000703B0000E239000007
:10019800663A0000F03A0000124600000E440000E3
:1001A80016460000184600001A4600008E4400005B
:1001B8001E4600002046000022460000244600009B
:1001C80026460000284600002A4600002C4600006B
:1001D8000000000000000000000000000000000017
:1001E8000000000000000000000000000000000007
:0801F8000000000000000000FF
:100200003D432A876373C3029377F700BDEFADE5E3
:10021000937606FF3D8ABA960CC34CC30CC74CC7F5
:100220004107E36BD7FE11E28280B306C3408A0622
:100230009702000096966780A6002307B700A306E2
:10024000B7002306B700A305B7002305B700A30432
:10025000B7002304B700A303B7002303B700A3022A
:10026000B7002302B700A301B7002301B700A30022
:10027000B7002300B700828093F5F50F93968500B1
:10028000D58D93960501D58D61B79396270097027A
:10029000000096968682E78086FA9680C1171D8FA9
:1002A0003E96E374C3F8A5B7011122CE00102326B1
:1002B000A4FE2324B4FE37F600E04C4237F600E0FB
:1002C000F9994CC20326C4FEB2860147032684FE78
:1002D000B287014837F600E03305F702B305D802CC
:1002E000AA953385F602B3B3F6022A83B387750065
:1002F000BE8323286600232A7600B7F700E09843E0
:10030000B7F700E01367070198C3B7F700E0984319
:10031000B7F700E01367170298C30100B7F700E0D2
:10032000DC4313F717008547E31AF7FEB7F700E041
:100330009843B7F700E0799B98C3010072440561C8
:100340008280011122CE00102326A4FE8327C4FE42
:10035000958313F77700B70700200A0793870700F4
:10036000BA979C439C470327C4FE7D8B85463397F1
:10037000E600F98FB337F00093F7F70F3E8572442C
:1003800005618280797106D622D40018232EA4FC40
:10039000232CB4FCB2872328D4FCA30BF4FC232029
:1003A00004FE232204FE232404FE8327C4FD958338
:1003B00093F7F70F9D8BA307F4FE8327C4FD93F7F4
:1003C000F70FFD8B2307F4FE8347F4FE91E7854585
:1003D0001145EF40902491A80347F4FE8547631729
:1003E000F70085452145EF40502381A00347F4FEE7
:1003F00089476317F70085454145EF40102235A036
:100400000347F4FE8D476318F70085451305000286
:10041000EF40B02019A80347F4FE91476317F70097
:10042000854513050004EF40501F8347E4FE054750
:10043000B317F700C207C1832310F4FE032784FD1E
:1004400085476317F702832704FDC207C183A18391
:10045000C207C18389E78D472322F4FE11A88327B1
:1004600004FDC207C183A183C207C1832322F4FE16
:10047000832704FDC207C18393F7F70F2324F4FEFB
:100480000347F4FEB70700200A0793870700BA97CF
:100490009C43130704FEBA853E85EF4000290327DD
:1004A00084FD85476319F7020347F4FEB707002070
:1004B0000A0793870700BA9794438347E4FE0547EA
:1004C000B317F700C207C183034774FD3A86BE85A0
:1004D0003685EF4020480100B250225445618280A9
:1004E0001D7186CEA2CC80102326A4FA2324B4FA50
:1004F00085450325C4FADD2BAA873E871306D0065F
:10050000B5679385078B3A85EF20807B832784FA34
:10051000B337F00093F7F70F3E871306F006B56781
:100520009385078B3A85EF20A079832784FABD83D2
:100530002315F4FE8357A4FE85073E87832784FA9C
:10054000B3D7E7022314F4FE0325C4FA1925B737FD
:100550000140938707C02326F4FE0327C4FAA5476A
:1005600063ECE7088327C4FA13972700B5679387DE
:1005700087CFBA979C438287B7370140938707C0DC
:100580002326F4FE95A8B70700402326F4FEADA06D
:10059000B7070040938707402326F4FEB1A8B7179A
:1005A0000040938707802326F4FEB9A0B7170040C8
:1005B000938707C02326F4FE81A0B71700402326A7
:1005C000F4FE1DA8B7170040938707402326F4FECA
:1005D00025A0B7370140938707402326F4FE29A8BA
:1005E000B7570140938707C02326F4FE31A0B757C1
:1005F00001402326F4FE0100232E04FC232004FEE8
:10060000231204FE835784FE2310F4FE8357A4FEB6
:10061000231EF4FC231104FE231F04FC230204FE0A
:100620009307C4FDBE850325C4FEEF40102D05468B
:1006300085450325C4FEEF40B04985450325C4FE2A
:10064000EF401057B56703AE878813878788032369
:1006500047001387878883288700138787880328A4
:10066000C70013878788084B138787884C4B1387ED
:100670008788104F13878788544F138787881853AC
:1006800093878788DC53232AC4FB232C64FA232E08
:1006900014FB232004FD2322A4FC2324B4FC2326E2
:1006A000C4FC2328D4FC232AE4FC232CF4FC832759
:1006B000C4FA93F7F70F8A07130704FFBA9783A7C3
:1006C00047FC8D453E85EF20307F8327C4FA8A079B
:1006D000130704FFBA9783A747FC3E85EF20107CE1
:1006E00085450325C4FEEF4030390100F6406644DD
:1006F00025618280011122CE00102326A4FEAE8740
:10070000A305F4FEB5670327C4FE0A07938707D243
:10071000BA979C433E878347B4FEC207C183231622
:10072000F7000100B5670327C4FE0A07938707D2C5
:10073000BA979C4383D78700C207C18393F7070802
:10074000F5F3B5670327C4FE0A07938707D2BA9764
:100750009C4383D7C7000100724405618280011168
:1007600022CE00102326A4FEAE872315F4FE835765
:10077000A4FEA183C207C18393F6F70FB5670327D1
:10078000C4FE0A07938707D2BA979C433E87939784
:100790000601C1832316F7000100B5670327C4FED5
:1007A0000A07938707D2BA979C4383D78700C2076B
:1007B000C18393F70708F5F38357A4FE93F6F70F69
:1007C000B5670327C4FE0A07938707D2BA979C43ED
:1007D0003E8793970601C1832316F7000100B56792
:1007E0000327C4FE0A07938707D2BA979C4383D78F
:1007F0008700C207C18393F70708F5F3010072442D
:10080000056182805D7186C6A2C480082326A4FC8F
:100810002324B4FC2322C4FC2320D4FC232EE4FA9A
:10082000232CF4FA232A04FBB5670327C4FC0A0728
:10083000938707D2BA979C433E85EF40806F8545EA
:100840000545EF40805D032704FC930730126313D6
:10085000F702032784FB93074012631DF700032769
:10086000C4FB930750126317F70085450545EF4019
:10087000E0111DA8032704FC89679387A71463155B
:10088000F702032784FB89679387B714631EF70079
:100890000327C4FB89679387C7146317F70085454F
:1008A00037152000EF40800E8327C4FC91E7854573
:1008B0000565EF40805625A00327C4FC85476317D4
:1008C000F70085451165EF40A05911A80327C4FC26
:1008D00089476316F70085452165EF4060588327F7
:1008E00004FC93F7F70F93068031054685453E8556
:1008F000513C8327C4FB93F7F70F930680310546DD
:1009000085453E854134032784FBC167F917630C95
:10091000F700832784FB93F7F70F9306803405468F
:1009200081453E858534032744FB9307F00F630C14
:10093000F700832744FB93F7F70F93060031014636
:1009400085453E858134232E04FC232004FE23228A
:1009500004FE232404FE231604FE231E04FC930736
:100960004010231FF4FC231004FE032784FC85475A
:100970006305F702832784FC81CF032784FC894722
:100980006303F702032784FC8D476304F7020DA875
:10099000231104FE231204FE25A0231104FE854723
:1009A0002312F4FE31A889472311F4FE231204FE1A
:1009B00001A889472311F4FE85472312F4FE0100A4
:1009C000231704FE03A7C181832744FCB357F70212
:1009D0002317F4FE03A7C181832744FCB377F702F2
:1009E00091E78357E4FEFD172317F4FE0357E4FE57
:1009F0009307F00763F7E700930780032317F4FEDC
:100A000049A80357E4FE9307F00363F7E700930751
:100A100000032317F4FEB5A80357E4FEFD4763F770
:100A2000E700930780022317F4FEA5A00357E4FE16
:100A3000BD4763F7E700930700022317F4FE91A870
:100A40000357E4FE9D4763F6E700E1472317F4FEF2
:100A500089A00357E4FE8D4763F6E700C1472317DB
:100A6000F4FE05A80357E4FE854763F6E700A147B7
:100A70002317F4FE39A88357E4FE81C7231704FE29
:100A800009A813067021B567938587910145EF206A
:100A900020238357E4FE2314F4FE9307002023133E
:100AA000F4FE231504FE9D472316F4FEB5670327C5
:100AB000C4FC0A07938707D2BA979C433E879307E3
:100AC000C4FDBE853A85EF40204EB5670327C4FCC0
:100AD0000A07938707D2BA979C4385453E85EF4026
:100AE000205C0100B640264461618280797122D683
:100AF0000018232EA4FC232CB4FC8547A307F4FE86
:100B00000327C4FD0A0793878189BA979C4399EB11
:100B10000327C4FD0A0793878189BA97032784FDB9
:100B200098C315A00327C4FD0A0793878189BA9744
:100B30009C43032784FD6316F7008547A307F4FE53
:100B400019A0A30704FE8347F4FE3E853254456195
:100B50008280011106CE22CC00102326A4FE83271A
:100B6000C4FE81EB8545856713850780EF40E02A49
:100B70006DA80327C4FE85476317F7008545054523
:100B8000EF40002E5DA00327C4FE89476317F700DE
:100B900085450945EF40C02C49A80327C4FE8D4771
:100BA0006317F70085451145EF40802BBDA803274B
:100BB000C4FE91476317F70085452145EF40402A61
:100BC000ADA00327C4FE95476317F700854541454F
:100BD000EF40002999A80327C4FE99476318F7003E
:100BE000854513050002EF40A02781A00327C4FE1E
:100BF0009D476317F70085450965EF40002235A042
:100C00000327C4FEA1476318F70085453705080090
:100C1000EF40A02019A80327C4FEA5476317F700DB
:100C2000854537051000EF40401F0100F240624447
:100C300005618280797122D60018232EA4FCB73773
:100C40000140938707C02326F4FE231504FE0327E3
:100C5000C4FDA54763ECE7088327C4FD139727006D
:100C6000B5679387C7D2BA979C438287B73701404D
:100C7000938707C02326F4FE95A8B70700402326D4
:100C8000F4FEADA0B7070040938707402326F4FE8B
:100C9000B1A8B7170040938707802326F4FEB9A0B8
:100CA000B7170040938707C02326F4FE81A0B7172B
:100CB00000402326F4FE1DA8B71700409387074085
:100CC0002326F4FE25A0B73701409387074023264B
:100CD000F4FE29A8B7570140938707C02326F4FEE6
:100CE00031A0B75701402326F4FE01000327C4FDBD
:100CF0000A079387018CBA9798438947631FF700C7
:100D00008327C4FE83D747021397070141838D478A
:100D1000B357F7022315F4FE39A08327C4FE83D707
:100D200047022315F4FE8357A4FE3E8532544561E5
:100D30008280797122D60018232EA4FCB737014097
:100D4000938707C02326F4FE0327C4FDA54763EC61
:100D5000E7088327C4FD13972700B567938747D516
:100D6000BA979C438287B7370140938707C02326F1
:100D7000F4FE95A8B70700402326F4FEADA0B70700
:100D80000040938707402326F4FEB1A8B717004020
:100D9000938707802326F4FEB9A0B71700409387F6
:100DA00007C02326F4FE81A0B71700402326F4FED7
:100DB0001DA8B7170040938707402326F4FE25A0FF
:100DC000B7370140938707402326F4FE29A8B75779
:100DD0000140938707C02326F4FE31A0B757014096
:100DE0002326F4FE01008327C4FE2392070201009C
:100DF000325445618280797106D622D40018232EA0
:100E0000A4FC232CB4FC85450325C4FDC531AA8769
:100E10003E871306200FB567938507983A85EF1034
:100E2000306A0327C4FD0A0793878189BA9705476B
:100E300098C3B7370140938707C02326F4FE0327E2
:100E4000C4FDA54763ECE7088327C4FD139727007B
:100E5000B5679387C7D7BA979C438287B737014056
:100E6000938707C02326F4FE95A8B70700402326E2
:100E7000F4FEADA0B7070040938707402326F4FE99
:100E8000B1A8B7170040938707802326F4FEB9A0C6
:100E9000B7170040938707C02326F4FE81A0B71739
:100EA00000402326F4FE1DA8B71700409387074093
:100EB0002326F4FE25A0B737014093870740232659
:100EC000F4FE29A8B7570140938707C02326F4FEF4
:100ED00031A0B75701402326F4FE01000325C4FDCD
:100EE0008D390327C4FD0A079387018CBA9703271E
:100EF00084FD98C3232004FE232204FE231404FE51
:100F0000032784FD85476315F702FD572312F4FE7E
:100F100003A7C181B7470F0093870724B357F70290
:100F2000C207C183FD17C207C1832310F4FE2DA899
:100F3000032784FD89476314F702FD572312F4FE4B
:100F400003A7C1818567938787BBB357F702C207A1
:100F5000C183FD17C207C1832310F4FE31A0FD57E2
:100F60002312F4FE231004FE231304FE231104FEB7
:100F7000230404FE930704FEBE850325C4FEEF4050
:100F8000C01785450325C4FEEF40002F0100B25075
:100F9000225445618280011122CE00102326A4FE36
:100FA000AE87A305F4FE0100B5670327C4FE0A0758
:100FB000938747DABA979C4383D70700C207C18358
:100FC00093F70708F5D3B5670327C4FE0A0793878D
:100FD00047DABA979C433E878347B4FEC207C18372
:100FE0002312F7000100724405618280011106CED0
:100FF00022CC00102326A4FE2324B4FE832784FEE3
:10100000B337F00093F7F70F3E8713060005B56777
:101010009385C79E3A85EF10B04A39A8832784FE8E
:10102000138717002324E4FE8387070093F7F70F45
:10103000BE850325C4FE8537832784FE838707008A
:10104000F1FF0100F240624405618280011122CE6D
:1010500000102326A4FE2324B4FEB5670327C4FE94
:101060000A07938747DABA979C4383D70700C207DA
:10107000C18393F707028DC7B5670327C4FE0A072C
:10108000938747DABA979C4383D74700C207C18347
:1010900013F7F70F832784FE2380E700854711A00D
:1010A00081473E85724405618280797106D622D4DB
:1010B0000018232EA4FC232CB4FC232AC4FC2328D0
:1010C000D4FC032744FD832704FD3D8F8327C4FD03
:1010D000B207F98F93B7170093F7F70F3E87130600
:1010E000A00AB5679385C79E3A85EF10703D8327A8
:1010F00044FD13D78700832704FDA183B307F7407E
:1011000093B7170093F7F70F3E871306B00AB5673A
:101110009385C79E3A85EF10B03A832744FD93F735
:10112000F70FE146014685453E85EFF0AFA58327E1
:1011300004FD93F7F70F93068004014681453E8531
:10114000EFF04FA485450545EF30304D032744FDB2
:10115000C167FD17F98F0D67130707386385E7200F
:101160000D67130707386369F704056713075716F8
:101170006381E716056713075716636FF7001307B8
:10118000F022638AE70C130760306381E7101307CE
:1011900060126388E70855A6096713078736638AD4
:1011A000E7160D67130707126385E718096713072A
:1011B000A7146380E71451A615671307A738638C3B
:1011C000E72615671307A7386362F702116713074D
:1011D0008738638EE71E1567130787126383E7223C
:1011E000116713074712638AE71A81AE196713075D
:1011F000C7386386E72A19671307C7386368F7009B
:101200001967130767106382E72605AE1D6713078A
:10121000E7106380E72C1D671307E7386385E72E27
:1012200029AEB7070140D44FB7070140370700FC8C
:101230007D17758FD8CFB7070140D843B707014056
:101240006D9BD8C3B7070140D843B7070140136768
:101250004700D8C3DDA4B7070140D44FB70701400A
:10126000370700FC7D17758FD8CFB7070140D44FE3
:10127000B707014037070004558FD8CFB7070140A3
:10128000D843B70701406D9BD8C345ACB7070140B1
:10129000D44FB7070140370700FC7D17758FD8CFB3
:1012A000B7070140D44FB707014037070004558FF7
:1012B000D8CFB7070140D843B70701406D9BD8C3CB
:1012C000B7070140D843B707014013674700D8C3A9
:1012D000ADA4B7070140D843B70701405D9BD8C311
:1012E000B7070140D843B707014013678700D8C349
:1012F000A9A4B7070140D843B70701401D9BD8C335
:10130000B7070140D843B707014013678700D8C328
:101310002DA4B7070140D843B70701401D9BD8C390
:10132000B7070140D843B707014013678701D8C307
:1013300029A4B7070140D44FB70701403707FDFF85
:101340007D17758FD8CFB7070140D44F832744FD51
:10135000A18313970701B70703007D8FB7070140EB
:10136000558FD8CFD9AAB7070140D44FB70701404E
:101370003707FDFF7D17758FD8CFB7070140D44FD2
:10138000832744FDA18313970701B70703007D8FCF
:10139000B7070140558FD8CF4DA2B7070140D44FB2
:1013A000B70701403707F4FF7D17758FD8CFB70710
:1013B0000140D44F832744FDA18313972701B7072A
:1013C0000C007D8FB7070140558FD8CFBDA2B7075E
:1013D0000140D44FB70701403707F4FF7D17758FE1
:1013E000D8CFB7070140D44F832744FDA18313977B
:1013F0002701B7070C007D8FB7070140558FD8CF65
:101400002DAAB7070140D44FB70701403707D0FFD7
:101410007D17758FD8CFB7070140D44F832744FD80
:10142000A18313974701B70730007D8FB7070140AD
:10143000558FD8CF19A2B7070140D44FB707014045
:101440003707D0FF7D17758FD8CFB7070140D44F2E
:10145000832744FDA18313974701B70730007D8F91
:10146000B7070140558FD8CFC9A8B7070140D44F5F
:10147000B7070140370740FF7D17758FD8CFB707F3
:101480000140D44F832744FDA18313976701B70719
:10149000C0007D8FB7070140558FD8CF79A8B70717
:1014A0000140D44FB7070140370740FF7D17758FC4
:1014B000D8CFB7070140D44F832744FDA1831397AA
:1014C0006701B707C0007D8FB7070140558FD8CFA0
:1014D000ADA0B7070140D44FB7070140370700FD63
:1014E0007D17758FD8CFB7070140D44F832744FDB0
:1014F000A18313978701B70700037D8FB7070140CA
:10150000558FD8CF1DA8B7070140D44FB70701406A
:10151000370700FD7D17758FD8CFB7070140D44F2F
:10152000832744FDA18313978701B70700037D8FAD
:10153000B7070140558FD8CF01008327C4FD91E73D
:1015400085451165EF30700D69A80327C4FD8547F7
:101550006318F700854537050200EF30701051A081
:101560000327C4FD89476318F70085453705040044
:10157000EF30100FBDA00327C4FD8D476318F7009F
:10158000854537050800EF30B00DA1A80327C4FD3D
:1015900091476318F700854537051000EF30500C70
:1015A00089A00327C4FD95476318F70085451305F7
:1015B0000004EF30F00A35A00327C4FD99476318F3
:1015C000F700854513050008EF30900919A8032797
:1015D000C4FD9D476317F700854513050010EF30E4
:1015E0003008232004FE232204FE232404FE2326A5
:1015F00004FE832784FD2320F4FE231204FE23131C
:1016000004FE231404FE231604FEB1472315F4FE42
:10161000B5670327C4FD0A07938747DABA979C4347
:101620003E87930704FEBE853A85EF30505BB56771
:101630000327C4FD0A07938747DABA979C43854579
:101640003E85EF30107D0100B2502254456182800A
:10165000411106C622C4000883A741840547638B55
:10166000E7006388070C0947638DE7000D47638F28
:10167000E702E9A083A701841387170023A0E18470
:1016800075A883A701841387170023A0E18403A70B
:101690000184A54763F1E70AB70700209387070095
:1016A0009C4B1167D8CB23A0018471A003A7818430
:1016B00085476314F7081305F008EFE09FC8AA8771
:1016C000ADC31945EFF00FD7AA873E8783A70184E2
:1016D0001D8F9307600963F2E7061945EFF06FE588
:1016E00083A70184D3F717D05385F720EF70F02834
:1016F000B56703A687A583A6C7A5EF60606DAA8717
:101700002E883E85C285EF701010AA8713970701B7
:101710004183B7070020239CE722094723A4E184E3
:1017200029A81945EFF00FD1AA873E8723A0E184AD
:1017300029A0010021A0010011A001000100B24078
:10174000224441018280411106C622C4000883A7B9
:1017500041840947637CF7000D47639AE700194508
:10176000EFF02FDD054723A4E18411A00100010063
:10177000B240224441018280011106CE22CC0010E9
:1017800083C7D184638A070E09A8930734FE0546F0
:10179000BE851385818EEF10B009930734FEBE8598
:1017A0001D45EFF0BF8AAA87EDF3034734FEA94732
:1017B0006314F70C99472322F4FE130744FE9307A2
:1017C00084FE85463A86BE851385818EEF1090365D
:1017D000930784FE138737000D46B567938507A6E8
:1017E0003A85EF80C063AA879DEB03A741858947AF
:1017F000630DF706054723AAE1841385818EEF1058
:10180000E07EAA872322F4FE930744FE81463E86AB
:10181000938541981385818EEF10D031B9A093073D
:1018200084FE138737000D46B567938547A63A8532
:10183000EF80E05EAA8795EB03A7018589476306E1
:10184000F702054723A8E1841385818EEF10007A03
:10185000AA872322F4FE930744FE81463E869385A1
:1018600041901385818EEF10F02C1385818EEF103F
:10187000E06705472386E1840100F2406244056188
:101880008280011106CE22CC0010AA87A307F4FEA5
:10189000B707002093870700DC4713070008D8CB61
:1018A0008347F4FEBE850545EFE0DFE4B70700207F
:1018B00093870700DC471307000898CB0100F2402C
:1018C000624405618280011106CE22CC0010AA87F5
:1018D00036872317F4FEAE872316F4FEB28723154E
:1018E000F4FEBA872314F4FE83C7C180C207C18304
:1018F0000357E4FEB337F70093F7F70F3E8713065D
:101900009008B567938507B53A85EF10603B83C7AC
:10191000D180C207C1830357C4FEB337F70093F7E2
:10192000F70F3E871306A008B567938507B53A857C
:10193000EF10003983C7C180C207C1830357A4FEDB
:10194000B337F70093F7F70F3E871306B008B56774
:10195000938507B53A85EF10A03683C7D180C207BB
:10196000C183035784FEB337F70093F7F70F3E8721
:101970001306C008B567938507B53A85EF10403464
:1019800083A78180BDE31305A002E53D8357E4FEF4
:1019900093874703C207C183BE850545EFE03FDC5F
:1019A0008357A4FE93874703C207C183BE850545BD
:1019B000EFE0FFDA1305B002E9358357C4FE9387E1
:1019C0008702C207C183BE850545EFE05FD9835713
:1019D00084FE93878702C207C183BE850545EFE079
:1019E0001FD81305C002713D81A203A781808547DE
:1019F0006314F7061305A00269358357E4FE938745
:101A00005703C207C183BE850545EFE05FD5835705
:101A1000A4FE93875703C207C183BE850545EFE047
:101A20001FD41305B002B13D8357C4FE93878702CC
:101A3000C207C183BE850545EFE07FD2835784FE90
:101A400093878702C207C183BE850545EFE03FD17A
:101A50001305C0023D35C9A803A7818089476314D7
:101A6000F7061305A002313D8357E4FE93878702F2
:101A7000C207C183BE850545EFE07FCE8357A4FE34
:101A800093878702C207C183BE850545EFE03FCD3E
:101A90001305B002FD338357C4FE93875703C20773
:101AA000C183BE850545EFE09FCB835784FE9387B6
:101AB0005703C207C183BE850545EFE05FCA130522
:101AC000C002C13395A01305A002653B8357E4FE15
:101AD00093878702C207C183BE850545EFE03FC8F3
:101AE0008357A4FE93878702C207C183BE8505453D
:101AF000EFE0FFC61305B00269338357C4FE938736
:101B00004703C207C183BE850545EFE05FC5835724
:101B100084FE93874703C207C183BE850545EFE076
:101B20001FC41305C002B13B0100F24062440561CD
:101B30008280797106D622D400189307C4FD3E85B1
:101B4000EF10801E8547231EF4FC83C7C180C207A7
:101B5000C183231FF4FC83C7D180C207C183231034
:101B6000F4FE83A781850547638AE70099EF9947CB
:101B70002301F4FEA147A301F4FE09A8A147230114
:101B8000F4FEC147A301F4FE11A00100B727000035
:101B9000938787F62324F4FEB7270000938787BB3B
:101BA0002326F4FE9307C4FD3E85EF10801D01003F
:101BB000B250225445618280011106CE22CC001021
:101BC00083C7C1803E8783C7D180B307F70223262E
:101BD000F4FEB707002093870700DC474147D8CBC6
:101BE00083C7C180C207C183FD17139707014183D3
:101BF00083C7D180C207C183FD17C207C183BE86D8
:101C00003A8681450145C13131A8B707002083D705
:101C1000C723BE850545EFE09FB48327C4FEFD17AB
:101C20002326F4FE8327C4FEEDF3B7070020938735
:101C30000700DC47414798CB0100F2406244056150
:101C40008280011122CE00102326A4FE0327C4FEA9
:101C500023A4E1800327C4FE854763EAE700130756
:101C600070F82386E1804157A386E18001A841579F
:101C70002386E180130770F8A386E1800100724497
:101C800005618280011122CE0010AA872E872317BA
:101C9000F4FEBA872316F4FEB70700200357E4FECC
:101CA000239DE722B70700200357C4FE239EE722A7
:101CB0000100724405618280797106D622D4001831
:101CC000AA87AE863287231FF4FCB687231EF4FC56
:101CD000BA87A30DF4FC83C7C180C207C183035731
:101CE000E4FDB337F70093F7F70F3E87130650195B
:101CF000B567938507B53A85EF00907C83C7D1809F
:101D0000C207C1830357C4FDB337F70093F7F70F3A
:101D10003E8713066019B567938507B53A85EF00CE
:101D2000307AB707002093870700DC474147D8CBBC
:101D300083A781850547638DE70C639A0720A30776
:101D400004FEC9A08347F4FE13970701418383571C
:101D5000E4FDBA971395070141818347F4FE139779
:101D6000070141838357E4FDBA9713970701418325
:101D70008357C4FDA10793960701C1828357C4FD11
:101D80003A86BE8589368307B4FD138707FE8346EE
:101D9000F4FE3566BA878607BA9786071307463B6F
:101DA000BA97B69783C70700A306F4FE230704FE7D
:101DB00081A08347D4FE858B91CBB707002083D7C2
:101DC000A723BE850545EFE09F9909A8B707002026
:101DD00083D7C723BE850545EFE07F988347D4FEB0
:101DE0008583A306F4FE8347E4FE85072307F4FEFC
:101DF0000347E4FE9D47E3FEE7FA8347F4FE8507C9
:101E0000A307F4FE0347F4FE9547E3FDE7F289A23A
:101E1000A30704FE3DA28347F4FE13970701418305
:101E20008357E4FDBA971395070141818347F4FE78
:101E30001397070141838357E4FDBA97139707016E
:101E400041838357C4FDBD0793960701C182835721
:101E5000C4FD3A86BE85EFF01FA78307B4FD9386C5
:101E600007FE8347F4FE35679206130747DC369773
:101E7000BA9783C707002306F4FE8307B4FD938651
:101E800007FE8347F4FEA10735679206130747DC78
:101E90003697BA9783C70700A305F4FE230704FE0D
:101EA00081A08347C4FE858B91CBB707002083D7E1
:101EB000A723BE850545EFE09F8A09A8B707002044
:101EC00083D7C723BE850545EFE07F898347C4FEDE
:101ED00085832306F4FE8347E4FE85072307F4FE8B
:101EE0000347E4FE9D47E3FEE7FA230704FE81A0D3
:101EF0008347B4FE858B91CBB707002083D7A723F8
:101F0000BE850545EFE0BF8509A8B707002083D748
:101F1000C723BE850545EFE09F848347B4FE8583D4
:101F2000A305F4FE8347E4FE85072307F4FE034779
:101F3000E4FE9D47E3FEE7FA8347F4FE8507A30727
:101F4000F4FE0347F4FE9D47E3F7E7EC11A0010020
:101F5000B707002093870700DC47414798CB010073
:101F6000B250225445618280797106D622D400187D
:101F7000AA872E87232CC4FC231FF4FCBA87231EB8
:101F8000F4FC83C7C180C207C1830357E4FDB337A4
:101F9000F70093F7F70F3E871306601EB56793852A
:101FA00007B53A85EF00D05183C7D180C207C183FE
:101FB0000357C4FDB337F70093F7F70F3E871306B7
:101FC000701EB567938507B53A85EF00704F2317EC
:101FD00004FE69A883A7818505476389E70489C74B
:101FE00009476384E70859A00357E4FEBA878607C8
:101FF000BA9786071397070141838357E4FDBA9781
:1020000093960701C1828357E4FE032784FDBA97A4
:10201000038707008357C4FD3A86BE853685693934
:102020008357E4FE85072317F4FE89A08357E4FE57
:102030008E071397070141838357E4FDBA97939660
:102040000701C1828357E4FE032784FDBA97038703
:1020500007008357C4FD3A86BE853685B13983575C
:10206000E4FE85072317F4FE11A001008357E4FE68
:10207000032784FDBA9783870700A9FF0100B250A8
:10208000225445618280411106C622C4000813080B
:10209000F00FC167F91705671307F7028566938686
:1020A000D60237A64A041306062081450545EFE00F
:1020B0006FF5C1460146854513057006EFE08FAC0C
:1020C000C1460146854513057002EFE0AFABC1463E
:1020D0000546854513054006EFE0CFAAC1460546F3
:1020E000854513050006EFE0EFA983A781803E85B3
:1020F000EFF03FB5B707002003D7A723B7070020AD
:1021000083D7C723BE853A85EFF0DFB7EFF07FA214
:10211000B707002093870700DC4313070008D8CBDC
:1021200003A7C1818967938707F4B357F702930523
:10213000800C3E85EFE04F97B7070020938707009C
:10214000DC431307000898CB03A7C18189679387F5
:1021500007F4B357F702930540063E85EFE0CF94AE
:10216000B707002093870700DC474147D8CB13050A
:102170006003EFF00FF103A7C1818967938707F42C
:10218000B357F702930540063E85EFE0EF9183A732
:10219000818091E781450545EFE0CFD525A803A7CC
:1021A000818085476318F7009305000C0545EFE033
:1021B0006FD40DA003A7818089476318F7009305AA
:1021C00000070545EFE00FD331A09305000A054550
:1021D000EFE04FD21305A003EFF0AFEA95450545B8
:1021E000EFE04FD11305200BEFF0AFE9B145054506
:1021F000EFE04FD0B1450545EFE0CFCF8145054534
:10220000EFE04FCF930530030545EFE0AFCE9305E8
:1022100030030545EFE00FCE1305700BEFF06FE6CE
:10222000930550030545EFE0EFCC1305B00BEFF03D
:102230004FE5930570030545EFE0CFCB1305000C88
:10224000EFF02FE49305C0020545EFE0AFCA130598
:10225000200CEFF00FE385450545EFE0AFC913050E
:10226000300CEFF00FE2C9450545EFE0AFC81305AC
:10227000400CEFF00FE1930500020545EFE08FC73A
:102280001305600CEFF0EFDFBD450545EFE08FC6AD
:102290001305000DEFF0EFDE9305400A0545EFE072
:1022A0006FC59305100A0545EFE0CFC41305000E76
:1022B000EFF02FDD9305000D0545EFE0AFC391452D
:1022C0000545EFE02FC3B5450545EFE0AFC2C54575
:1022D0000545EFE02FC2CD450545EFE0AFC19305C1
:1022E000B0020545EFE00FC19305F0030545EFE0AF
:1022F0006FC0930540050545EFE0CFBF9305C004CF
:102300000545EFE02FBFE1450545EFE0AFBEB54520
:102310000545EFE02FBEAD450545EFE0AFBDFD45FE
:102320000545EFE02FBD930530020545EFE08FBC7A
:102330001305100EEFF0EFD49305000D0545EFE007
:102340006FBB91450545EFE0EFBAB1450545EFE0BC
:102350006FBAC5450545EFE0EFB9CD450545EFE05E
:102360006FB99305C0020545EFE0CFB89305F003C0
:102370000545EFE02FB8930540040545EFE08FB722
:10238000930510050545EFE0EFB69305F00205450E
:10239000EFE04FB6FD450545EFE0CFB5FD450545FE
:1023A000EFE04FB5930500020545EFE0AFB49305AC
:1023B00030020545EFE00FB413051002EFF06FCCCB
:1023C0004545EFF00FCC03A7C1818967938707F4D8
:1023D000B357F702930580073E85EFD0FFEC130556
:1023E0009002EFF00FCAB707002093870700DC4781
:1023F000414798CBEFF04FFC0100B240224441012D
:102400008280411122C600080100324441018280CD
:10241000411122C60008B71702409843B71702407F
:102420001367170098C3B7170240D443B717024089
:102430003707FFF8758FD8C3B71702409443B71713
:1024400002403707F7FE7D17758F98C3B717024014
:102450009443B71702403707FCFF7D17758F98C369
:10246000B7170240D443B7170240370781FF7D17E3
:10247000758FD8C3B717024037079F0098C7010070
:10248000324441018280797122D60018232EA4FCA7
:10249000232604FE232404FEB71702409443B717F3
:1024A00002404167558F98C3B71702409843B7075A
:1024B0000200F98F2324F4FE8327C4FE8507232618
:1024C000F4FE832784FE91E70327C4FE8567E31D9E
:1024D000F7FCB71702409843B7070200F98F89C786
:1024E00085472324F4FE19A0232404FE032784FE39
:1024F00085476312F71637170240B7170240584353
:10250000D8C337170240B71702405843D8C337170C
:102510000240B71702405843D8C3B7170240D4430C
:10252000B71702403707C1FF7D17758FD8C3032740
:10253000C4FDB747950893870740631BF700B7179B
:102540000240D443B71702404167558FD8C355A8FE
:102550000327C4FDB7172707938707E0631CF7001D
:10256000B7170240D443B717024037073900558FD9
:10257000D8C341A80327C4FDB7E7B80593870780F0
:10258000631CF700B7170240D443B7170240370760
:102590002900558FD8C3B5A00327C4FDB7A74A04A7
:1025A00093870720631CF700B7170240D443B7177F
:1025B000024037071D00558FD8C3A1A00327C4FDD3
:1025C000B777DC02938707C0631CF700B717024098
:1025D000D443B717024037071100558FD8C315A051
:1025E0000327C4FDB7376E0193870760631BF700AD
:1025F000B7170240D443B717024037070500558F7D
:10260000D8C3B71702409443B717024037070001F9
:10261000558F98C30100B71702409843B7070002CF
:10262000F98FF5DBB7170240D843B7170240719B0B
:10263000D8C3B7170240D843B71702401367270023
:10264000D8C30100B7170240DC4313F7C700A14706
:10265000E31AF7FE11A001A03254456182800111F6
:1026600006CE22CC00102326A4FE0327C4FE23AEF0
:10267000E180793B0325C4FE3935EF10000C0100E1
:10268000F240624405618280411122C600080100C7
:102690000100324441018280011106CE22CC00109B
:1026A000232604FE232404FE232604FE25A023243F
:1026B00004FE39A0D13F832784FE85072324F4FE3E
:1026C000032784FEC167E367F7FE8327C4FE8507FF
:1026D0002326F4FE0327C4FE9307F00FE3F9E7FC7B
:1026E0000100F240624405618280411122C6000867
:1026F0000100324441018280011106CE22CC00103B
:102700002326A4FE8325C4FE0945EFE03F8E010089
:10271000F240624405618280130101D9232611260B
:102720002324812623229126801C232EA4D8232C07
:10273000B4D8232AC4D82328D4D8231504FE2314BC
:1027400004FE231304FE231204FE231104FE0325BA
:1027500084D9EF70A06BAA87C207C1872313F4FE48
:1027600083D741A089C7938741A09C4B829783C799
:10277000C18593F7F70F638D074A83D741A063871D
:102780000744938741A0D447835724FE139707013A
:10279000418793170701C1838507C207C183C20719
:1027A000C1872311F4FE93170701C1830326C4D9FF
:1027B000BE8501458296832784D92326F4FE03250E
:1027C00084D9EF70A064AA87C207C1872313F4FEDF
:1027D000938741A083D727003E87938741A083C773
:1027E0006700B347F702C207C1872312F4FE010056
:1027F0008327C4FE138717002326E4FE8387070080
:10280000E5FB231404FEA1A88327C4FEFD1723269D
:10281000F4FE8327C4FE038707009307F002630AD0
:10282000F7008327C4FE038707009307C005631BD7
:10283000F700835784FEC207C1838507C207C1839F
:102840002314F4FE835764FEC207C187C207C18305
:10285000FD17C207C183C207C1872313F4FE835744
:1028600084FE139707014183854763E8E700835798
:1028700064FEC207C187E3D907F8835764FEC20725
:10288000C18763C207028327C4FE85072326F4FE9F
:10289000130704EE0326C4FEB567938547BC3A854B
:1028A000EF7060521DA8835784FEC207C18381EF79
:1028B000130704EE0326C4FEB567938507BD3A856A
:1028C000EF70605019A8130704EE0326C4FEB56725
:1028D000938547BC3A85EF70004F231504FE21AA6B
:1028E000231404FE59A0930704EE3E85EF700052B6
:1028F0002A87835784FEC207C183BE868357A4FEFE
:10290000C207C1833E86835744FEC207C187B3070F
:10291000F602B6976367F706835784FEC207C18342
:102920003E878357A4FEC207C183BE86835744FEF9
:10293000C207C187B387F602BA97035784FE4207DE
:102940004183BA86130704FFBA97038707EF9307FB
:1029500004FFB6972388E7EA835784FEC207C18342
:102960008507C207C1832314F4FE835784FEC20780
:10297000C1833E87835744FEC207C187E345F7F60C
:1029800011A00100835784FEC207C183130704FF0F
:10299000BA97238807EA938741A003A8C7009387C3
:1029A00041A083C77700139707014183835724FE13
:1029B00093960701C18693970601C1838507C207D5
:1029C000C183C207C1872311F4FE93970601C18317
:1029D000B307F702C207C183130704EA3A86BE852C
:1029E000014502988357A4FEC207C1838507C20729
:1029F000C1832315F4FE8357A4FEC207C183BE849E
:102A0000930704EE3E85EF7060402A87835744FEAB
:102A1000C207C187B357F7028507E3E3F4EC130756
:102A200004EE032644D9B567938507BE3A85EF7057
:102A30008039938741A003A8C700938741A083C72B
:102A40007700139707014183835724FE939607016C
:102A5000C18693970601C1838507C207C183C20758
:102A6000C1872311F4FE93970601C183B307F702D0
:102A7000C207C183130704EE3A86BE85014502985A
:102A8000832704D96386071A231504FE21AA231479
:102A900004FE59A0032504D9EF7040372A878357D5
:102AA00084FEC207C183BE868357A4FEC207C183CA
:102AB0003E86835744FEC207C187B307F602B69726
:102AC0006368F706835784FEC207C1833E87835736
:102AD000A4FEC207C183BE86835744FEC207C187D6
:102AE000B387F602BA973E87832704D9BA9703576C
:102AF00084FE42074183BA8603870700930704FFD9
:102B0000B6972388E7EA835784FEC207C183850707
:102B1000C207C1832314F4FE835784FEC207C18316
:102B20003E87835744FEC207C187E345F7F611A0ED
:102B30000100835784FEC207C183130704FFBA97BD
:102B4000238807EA938741A003A8C700938741A081
:102B500083C77700139707014183835724FE939619
:102B60000701C18693970601C1838507C207C18308
:102B7000C207C1872311F4FE93970601C183B307EF
:102B8000F702C207C183130704EA3A86BE850145EE
:102B900002988357A4FEC207C1838507C207C18379
:102BA0002315F4FE8357A4FEC207C183BE84032508
:102BB00004D9EF70A0252A87835744FEC207C18736
:102BC000B357F7028507E3E4F4EC9DA0930704DA1A
:102BD0001306001081453E85EFD08FE2938741A018
:102BE0009C470325C4D98297832704D999CF13051D
:102BF00004DA032704D9832644D9032684D9B56788
:102C00009385C7BEEF70201C29A8130704DA83261A
:102C100044D9032684D9B567938587C03A85EF7078
:102C2000801A938741A09847930704DA3E8502975C
:102C300001008320C1260324812683244126130119
:102C400001278280797106D622D40018232EA4FC95
:102C5000232CB4FC232AC4FC232604FEA9A00100D3
:102C6000B567938747DA9C47930500043E85EF20BC
:102C70003023AA87F5D7B567938747DA9C47BE8686
:102C8000832784FD13871700232CE4FC8387070028
:102C9000C207C183BE853685EF20B01D8327C4FEE1
:102CA00085072326F4FE0327C4FE832744FDE3485B
:102CB000F7FA832744FD3E85B25022544561828055
:102CC000011106CE22CC0010AA872324B4FE2322B1
:102CD000C4FEA307F4FE8347F4FEB1E383C7018279
:102CE00093F7F70F8DCF83C7D18591C301A083C719
:102CF000D185850713F7F70FA38EE184EF005021EC
:102D0000EFF0BF9E8146032644FE832584FEB5670F
:102D1000138507C2EFF05FA0EFF01F98E5B7010041
:102D2000F240624405618280011122CE0010232608
:102D3000A4FE8327C4FE239007008327C4FE7D578B
:102D40002391E7008327C4FE7D572392E700832762
:102D5000C4FE7D572383E7008327C4FE7D57A383EA
:102D6000E7008327C4FE23A407008327C4FE23A60D
:102D700007008327C4FE23A80700010072440561F1
:102D80008280011122CE00102326A4FE8327C4FED8
:102D900003D707002392E1A08327C4FE03D72700AF
:102DA000938741A02391E7008327C4FE03D7470000
:102DB000938741A02392E7008327C4FE03C76700DF
:102DC000938741A02383E7008327C4FE03C77700CE
:102DD000938741A0A383E7008327C4FE9847938786
:102DE00041A098C78327C4FED847938741A0D8C77E
:102DF0008327C4FE984B938741A098CB0547238E29
:102E0000E1840100724405618280797106D622D482
:102E100000189307C4FD3E85013FB7270000938744
:102E2000876F2322F4FE9307C4FD3E85993F89678F
:102E30009386B70289671386A702F16793850720F7
:102E40000945EFE08FA60100B2502254456182800F
:102E5000011122CE00102326A4FE2324B4FE8327D2
:102E6000C4FED847832784FE3E978327C4FED8C775
:102E700019A88327C4FED8478327C4FE9C4F1D8F03
:102E80008327C4FED8C78327C4FE984F8327C4FE78
:102E9000DC47E3F0E7FE0100724405618280011126
:102EA00022CE00102326A4FE2324B4FE8327C4FED2
:102EB000984B832784FE3E978327C4FE98CB19A89E
:102EC0008327C4FE984B8327C4FE9C4F1D8F832706
:102ED000C4FE98CB8327C4FE984F8327C4FE9C4B27
:102EE000E3F0E7FE0100724405618280797106D645
:102EF00022D40018232EA4FC8327C4FDB337F0008E
:102F000093F7F70F3E8713064005B5679385C7C350
:102F10003A85EFF0FFDA232604FE8327C4FD83C73A
:102F20000700858B93F7F70F89C789472326F4FE9F
:102F30007DA08327C4FD83C7070093E7170013F71D
:102F4000F70F8327C4FD2380E7008327C4FD23A652
:102F500007008327C4FD23A807008327C4FD984FDB
:102F60008327C4FDD8CB8327C4FDDC430547638397
:102F7000E70289C70947638CE702B9A08327C4FD2C
:102F800098478327C4FD9C4F3E8681453A85EFD004
:102F90002FA71DA88327C4FD98478327C4FD9C4FF6
:102FA00086073E8681453A85EFD08FA531A88327D5
:102FB000C4FD98478327C4FD9C4F8A073E86814500
:102FC0003A85EFD0EFA301008327C4FD83C7070034
:102FD000F99B13F7F70F8327C4FD2380E7008327AE
:102FE000C4FE3E85B250225445618280011106CE56
:102FF00022CC00102326A4FE8327C4FEB337F000A2
:1030000093F7F70F3E871306C007B5679385C7C3CD
:103010003A85EFF0FFCA8327C4FE984F8327C4FE8A
:10302000DC4BB307F7403E85F24062440561828085
:10303000797106D622D40018232EA4FC232CB4FCCC
:10304000232AC4FC8327C4FDB337F00093F7F70F9E
:103050003E871306C00BB5679385C7C33A85EFF06B
:103060003FC6232604FE232404FE832784FD89E72C
:103070008D472326F4FE45AC8327C4FD83C7070094
:10308000898B93F7F70F89C785472326F4FE61AC38
:103090008327C4FD83C7070093E7270013F7F70FC3
:1030A0008327C4FD2380E7008327C4FDDC4B03276F
:1030B00044FD63ECE7248327C4FD984F8327C4FDB8
:1030C000DC47B307F7402324F4FE032744FD83279E
:1030D00084FE63F2E7188327C4FDDC430547638F52
:1030E000E70689C709476389E70E31A48327C4FD32
:1030F00098478327C4FDDC47BA97032684FE8325BF
:1031000084FD3E85EF60401D832584FE0325C4FDBC
:10311000EFF01FD48327C4FD98478327C4FDDC4705
:10312000B306F700032784FD832784FEB305F70069
:10313000032744FD832784FEB307F7403E86368588
:10314000EF608019032744FD832784FEB307F7400F
:10315000BE850325C4FDEFF0BFCF71AA8327C4FD50
:1031600098478327C4FDDC4786073E97832784FE64
:1031700086073E86832584FD3A85EF60E01583252A
:1031800084FE0325C4FDEFF0BFCC8327C4FD984720
:103190008327C4FDDC478607B306F700832784FE38
:1031A0008607032784FDB305F700032744FD832723
:1031B00084FEB307F74086073E863685EF60C01170
:1031C000032744FD832784FEB307F740BE8503250C
:1031D000C4FDEFF0FFC705A28327C4FD98478327EE
:1031E000C4FDDC478A073E97832784FE8A073E8614
:1031F000832584FD3A85EF60200E832584FE032518
:10320000C4FDEFF0FFC48327C4FD98478327C4FDA6
:10321000DC478A07B306F700832784FE8A07032763
:1032200084FDB305F700032744FD832784FEB3071D
:10323000F7408A073E863685EF60000A032744FD83
:10324000832784FEB307F740BE850325C4FDEFF056
:103250003FC001004DA08327C4FDDC430547638CBC
:10326000E70289C709476380E70671A08327C4FD89
:1032700098478327C4FDDC47BA97032644FD83257E
:1032800084FD3E85EF604005832544FD0325C4FD94
:10329000EFF01FBC8DA08327C4FD98478327C4FD92
:1032A000DC4786073E97832744FD86073E868325B5
:1032B00084FD3A85EF604002832544FD0325C4FD6B
:1032C000EFF01FB90DA88327C4FD98478327C4FDDD
:1032D000DC478A073E97832744FD8A073E8683257D
:1032E00084FD3A85EF50507F832544FD0325C4FDBE
:1032F000EFF01FB601008327C4FDD84B832744FDA0
:103300001D8F8327C4FDD8CB21A091472326F4FE2F
:103310008327C4FD83C70700F59B13F7F70F8327A7
:10332000C4FD2380E7008327C4FE3E85B2502254AB
:1033300045618280797106D622D40018232EA4FC20
:10334000232CB4FC232AC4FC2328D4FC8327C4FDEB
:10335000B337F00093F7F70F3E8713067016B56783
:103360009385C7C33A85EFF0BF95832744FDB337F4
:10337000F00093F7F70F3E8713068016B567938525
:10338000C7C33A85EFF0DF93232604FE832784FD2D
:1033900089E78D472326F4FEA1AC8327C4FD83C7AC
:1033A000070093E7470013F7F70F8327C4FD238037
:1033B000E7000325C4FDEFF07FC32324A4FE832789
:1033C00044FD9C43032784FE637AF700832744FD72
:1033D000032784FE98C395472326F4FE8327C4FD64
:1033E000984F8327C4FD9C4BB307F7402322F4FE7C
:1033F000832744FD9C43032744FE6365F708832726
:10340000C4FDDC4305476388E70289C70947638732
:10341000E704BDA28327C4FD98478327C4FD9C4BC6
:103420003E97832744FD9C433E86BA85032584FD51
:10343000EF50906AB1A28327C4FD98478327C4FD4B
:103440009C4B86073E97832744FD9C4386073E8618
:10345000BA85032584FDEF5030681DA28327C4FD83
:1034600098478327C4FD9C4B8A073E97832744FDDA
:103470009C438A073E86BA85032584FDEF50D065BC
:103480000100FDA88327C4FDDC430547638AE704E8
:1034900089C70947638EE708E5A08327C4FD9847DD
:1034A0008327C4FD9C4BBA97032644FEBE850325A3
:1034B00084FDEF507062032784FD832744FEB3062A
:1034C000F7008327C4FD8C47832744FD9843832757
:1034D00044FEB307F7403E863685EF50F05F4DA0BF
:1034E0008327C4FD98478327C4FD9C4B86073E97DE
:1034F000832744FE86073E86BA85032584FDEF5068
:10350000B05D832744FE8607032784FDB306F700DA
:103510008327C4FD8C47832744FD9843832744FEBB
:10352000B307F74086073E863685EF50F05A89A8E4
:103530008327C4FD98478327C4FD9C4B8A073E9789
:10354000832744FE8A073E86BA85032584FDEF5013
:10355000B058832744FE8A07032784FDB306F7008B
:103560008327C4FD8C47832744FD9843832744FE6B
:10357000B307F7408A073E863685EF50F0550100C5
:10358000832704FDB5E78327C4FD83C70700858B28
:1035900093F7F70F89C789472326F4FE91A883275D
:1035A000C4FD83C7070093E7170013F7F70F8327BE
:1035B000C4FD2380E700832744FD9C43BE8503258B
:1035C000C4FDEFF0DF8D8327C4FDD84B832744FD76
:1035D0009C433E978327C4FDD8CB8327C4FD83C774
:1035E0000700F99B13F7F70F8327C4FD2380E7003B
:1035F0008327C4FD83C70700918B13F7F70F832739
:10360000C4FD2380E7008327C4FE3E85B2502254C8
:1036100045618280411122C6000899679387870817
:10362000739007800100324441018280411122C61B
:10363000000899677390078001003244410182803D
:10364000011122CE00102326A4FE8327C4FEFD8B89
:103650000547B316F70037E700E08327C4FE9583DC
:10366000938707048A07BA9794C3010072440561DF
:103670008280011122CE00102326A4FEAE87A3056E
:10368000F4FE37E700E08327C4FEBA970347B4FE91
:103690002380E7400100724405618280011106CE5B
:1036A00022CC00102326A4FE0325C4FE513F0100B6
:1036B000F240624405618280011106CE22CC0010E6
:1036C0002326A4FEAE87A305F4FE8347B4FEBE8581
:1036D0000325C4FE793F0100F24062440561828007
:1036E000011106CE22CC00102326A4FE8327C4FE9F
:1036F00099C783A701861387F7FF23A0E18683A7D5
:10370000018691E3013F0100F2406244056182803D
:10371000411106C622C4000883A7018691E3393708
:1037200083A701861387170023A0E18683A701865C
:103730003E85B240224441018280411106C622C426
:1037400000080145713F0100B240224441018280DE
:103750001D71A2CE82E686E48AE28EE012FE16FC9D
:103760001AFA1EF82AF62EF432F236F03AEE3EEC51
:1037700042EA46E872E676E47AE27EE0801093055B
:103780005052B747014013850780EF10D075AA87C4
:1037900089CB93055052B747014013850780EF202E
:1037A000A004010076443660A660166186617272DC
:1037B000E2725273C2733275A275127682767267A4
:1037C000E2675268C268326EA26E126F826F256124
:1037D000730020301D71A2CE82E686E48AE28EE07C
:1037E00012FE16FC1AFA1EF82AF62EF432F236F001
:1037F0003AEE3EEC42EA46E872E676E47AE27EE0B1
:10380000801093055052B747004013850740EF10D2
:10381000906DAA8789CB93055052B7470040138516
:103820000740EF10707C010076443660A660166198
:1038300086617272E2725273C2733275A275127629
:1038400082767267E2675268C268326EA26E126F49
:10385000826F2561730020301D71A2CE82E686E45E
:103860008AE28EE012FE16FC1AFA1EF82AF62EF4F0
:1038700032F236F03AEE3EEC42EA46E872E676E4A0
:103880007AE27EE0801093055052B75700401385CE
:103890000780EF105065AA8789CB93055052B75720
:1038A000004013850780EF103074010076443660C5
:1038B000A660166186617272E2725273C2733275CB
:1038C000A275127682767267E2675268C268326EBB
:1038D000A26E126F826F2561730020301D71A2CE1F
:1038E00082E686E48AE28EE012FE16FC1AFA1EF8E0
:1038F0002AF62EF432F236F03AEE3EEC42EA46E890
:1039000072E676E47AE27EE0801093055052B75773
:103910000040138507C0EF10105DAA8789CB93057F
:103920005052B7570040138507C0EF10F06B0100ED
:1039300076443660A660166186617272E2725273D6
:10394000C2733275A275127682767267E267526828
:10395000C268326EA26E126F826F256173002030D2
:103960001D71A2CE82E686E48AE28EE012FE16FC8B
:103970001AFA1EF82AF62EF432F236F03AEE3EEC3F
:1039800042EA46E872E676E47AE27EE08010930549
:10399000505237550040EF101055AA8791CB83A79E
:1039A000018182979305505237550040EF10D06344
:1039B000010076443660A660166186617272E2721A
:1039C0005273C2733275A275127682767267E2679D
:1039D0005268C268326EA26E126F826F25617300E8
:1039E00020301D71A2CE82E686E48AE28EE012FECD
:1039F00016FC1AFA1EF82AF62EF432F236F03AEED7
:103A00003EEC42EA46E872E676E47AE27EE0801036
:103A100093055052B727004013850780EF10B04C34
:103A2000AA8789CB93055052B7270040138507809A
:103A3000EF10905B010076443660A66016618661E7
:103A40007272E2725273C2733275A2751276827606
:103A50007267E2675268C268326EA26E126F826F3E
:103A60002561730020301D71A2CE82E686E48AE2D1
:103A70008EE012FE16FC1AFA1EF82AF62EF432F226
:103A800036F03AEE3EEC42EA46E872E676E47AE256
:103A90007EE0801093055052B7270040138507C081
:103AA000EF107044AA8781CF83A781818297930505
:103AB0005052B7270040138507C0EF10F0520100A5
:103AC00076443660A660166186617272E272527345
:103AD000C2733275A275127682767267E267526897
:103AE000C268326EA26E126F826F25617300203041
:103AF0001D71A2CE82E686E48AE28EE012FE16FCFA
:103B00001AFA1EF82AF62EF432F236F03AEE3EECAD
:103B100042EA46E872E676E47AE27EE080109305B7
:103B2000505237250040EF10103CAA8789CBEFD0C8
:103B3000BFC49305505237250040EF10F04A0100F2
:103B400076443660A660166186617272E2725273C4
:103B5000C2733275A275127682767267E267526816
:103B6000C268326EA26E126F826F256173002030C0
:103B70001D71A2CE82E686E48AE28EE012FE16FC79
:103B80001AFA1EF82AF62EF432F236F03AEE3EEC2D
:103B900042EA46E872E676E47AE27EE08010B70711
:103BA000055083C7070193F7F70F918B8DC383A748
:103BB00041818297B707055083C7070113F7F70FB5
:103BC000B70705506D9B1377F70F2388E7000100B7
:103BD00076443660A660166186617272E272527334
:103BE000C2733275A275127682767267E267526886
:103BF000C268326EA26E126F826F25617300203030
:103C00001D71A2CE82E686E48AE28EE012FE16FCE8
:103C10001AFA1EF82AF62EF432F236F03AEE3EEC9C
:103C200042EA46E872E676E47AE27EE080100545F4
:103C3000EF0050282A8785476315F7000545EF00F8
:103C4000D02C010076443660A660166186617272DF
:103C5000E2725273C2733275A275127682767267FF
:103C6000E2675268C268326EA26E126F826F25617F
:103C7000730020301D71A2CE82E686E48AE28EE0D7
:103C800012FE16FC1AFA1EF82AF62EF432F236F05C
:103C90003AEE3EEC42EA46E872E676E47AE27EE00C
:103CA00080100945EF0010212A8785476315F7002A
:103CB0000945EF009025010076443660A660166144
:103CC00086617272E2725273C2733275A275127695
:103CD00082767267E2675268C268326EA26E126FB5
:103CE000826F2561730020301D71A2CE82E686E4CA
:103CF0008AE28EE012FE16FC1AFA1EF82AF62EF45C
:103D000032F236F03AEE3EEC42EA46E872E676E40B
:103D10007AE27EE080101145EF00D0192A878547AE
:103D20006315F7001145EF00501E01007644366020
:103D3000A660166186617272E2725273C273327546
:103D4000A275127682767267E2675268C268326E36
:103D5000A26E126F826F2561730020301D71A2CE9A
:103D600082E686E48AE28EE012FE16FC1AFA1EF85B
:103D70002AF62EF432F236F03AEE3EEC42EA46E80B
:103D800072E676E47AE27EE080102145EF00901240
:103D90002A8785476315F7002145EF0010170100BA
:103DA00076443660A660166186617272E272527362
:103DB000C2733275A275127682767267E2675268B4
:103DC000C268326EA26E126F826F2561730020305E
:103DD0001D71A2CE82E686E48AE28EE012FE16FC17
:103DE0001AFA1EF82AF62EF432F236F03AEE3EECCB
:103DF00042EA46E872E676E47AE27EE080104145E7
:103E0000EF00500B2A8785476315F7004145EF0007
:103E1000D00F010076443660A6601661866172722A
:103E2000E2725273C2733275A2751276827672672D
:103E3000E2675268C268326EA26E126F826F2561AD
:103E4000730020301D71A2CE82E686E48AE28EE005
:103E500012FE16FC1AFA1EF82AF62EF432F236F08A
:103E60003AEE3EEC42EA46E872E676E47AE27EE03A
:103E7000801013050002EF00F0032A8785476316C0
:103E8000F70013050002EF00500813050004EF00CF
:103E900070022A8785476316F70013050004EF00B8
:103EA000D00613050008EF00F0002A878547631647
:103EB000F70013050008EF00500513050010EF0090
:103EC000607F2A8785476316F70013050010EF000F
:103ED000D00313050020EF00E07D2A878547631695
:103EE000F70013050020EF00500201007644366011
:103EF000A660166186617272E2725273C273327585
:103F0000A275127682767267E2675268C268326E74
:103F1000A26E126F826F2561730020301D71A2CED8
:103F200082E686E48AE28EE012FE16FC1AFA1EF899
:103F30002AF62EF432F236F03AEE3EEC42EA46E849
:103F400072E676E47AE27EE0801013050040EF002E
:103F500060762A8785476316F70013050040EF0057
:103F6000C07A856713850780EF00C0742A8785476C
:103F70006317F700856713850780EF0000790565F3
:103F8000EF0040732A8785476315F7000565EF004A
:103F9000C077096505272A8785476315F7000965F6
:103FA000EF00A076116539272A8785476317F70048
:103FB000EFD06FF91165EF0040752165E52D2A8777
:103FC00085476317F700EFD0AFE82165EF00E07396
:103FD000010076443660A660166186617272E272F4
:103FE0005273C2733275A275127682767267E26777
:103FF0005268C268326EA26E126F826F25617300C2
:1040000020301D71A2CE82E686E48AE28EE012FEA6
:1040100016FC1AFA1EF82AF62EF432F236F03AEEB0
:104020003EEC42EA46E872E676E47AE27EE0801010
:104030008545B7370140138507C0EF106030AA8768
:1040400095C78545B7370140138507C0EF10403647
:10405000EF20407DEF20900D938781A183C7A701BA
:10406000BE85B567138547CAEF50D051010076442D
:104070003660A660166186617272E2725273C27314
:104080003275A275127682767267E2675268C268EC
:10409000326EA26E126F826F2561730020301D7127
:1040A000A2CE82E686E48AE28EE012FE16FC1AFABE
:1040B0001EF82AF62EF432F236F03AEE3EEC42EAE0
:1040C00046E872E676E47AE27EE0801085453705C0
:1040D0000040EF10E026AA8791C7854537050040CC
:1040E000EF10002D010076443660A66016618661EF
:1040F0007272E2725273C2733275A2751276827650
:104100007267E2675268C268326EA26E126F826F87
:104110002561730020301D71A2CE82E686E48AE21A
:104120008EE012FE16FC1AFA1EF82AF62EF432F26F
:1041300036F03AEE3EEC42EA46E872E676E47AE29F
:104140007EE080108545B707004013850740EF10DB
:10415000201FAA8781CB8545B707004013850740FC
:10416000EF100025010076443660A6601661866176
:104170007272E2725273C2733275A27512768276CF
:104180007267E2675268C268326EA26E126F826F07
:104190002561730020301D71A2CE82E686E48AE29A
:1041A0008EE012FE16FC1AFA1EF82AF62EF432F2EF
:1041B00036F03AEE3EEC42EA46E872E676E47AE21F
:1041C0007EE080108545B717004013850780EF100B
:1041D0002017AA8781CB8545B71700401385078034
:1041E000EF10001D010076443660A66016618661FE
:1041F0007272E2725273C2733275A275127682764F
:104200007267E2675268C268326EA26E126F826F86
:104210002561730020301D71A2CE82E686E48AE219
:104220008EE012FE16FC1AFA1EF82AF62EF432F26E
:1042300036F03AEE3EEC42EA46E872E676E47AE29E
:104240007EE080108545B7170040138507C0EF104A
:10425000200FAA8781CB8545B7170040138507C07B
:10426000EF100015010076443660A6601661866185
:104270007272E2725273C2733275A27512768276CE
:104280007267E2675268C268326EA26E126F826F06
:104290002561730020301D71A2CE82E686E48AE299
:1042A0008EE012FE16FC1AFA1EF82AF62EF432F2EE
:1042B00036F03AEE3EEC42EA46E872E676E47AE21E
:1042C0007EE08010854537150040EF106007AA8713
:1042D00091C7854537150040EF10800D01007644E9
:1042E0003660A660166186617272E2725273C273A2
:1042F0003275A275127682767267E2675268C2687A
:10430000326EA26E126F826F2561730020301D71B4
:10431000A2CE82E686E48AE28EE012FE16FC1AFA4B
:104320001EF82AF62EF432F236F03AEE3EEC42EA6D
:1043300046E872E676E47AE27EE080108545B717BB
:10434000004013850740EF00B07FAA8781CB8545E9
:10435000B717004013850740EF1080050100764431
:104360003660A660166186617272E2725273C27321
:104370003275A275127682767267E2675268C268F9
:10438000326EA26E126F826F2561730020301D7134
:10439000A2CE82E686E48AE28EE012FE16FC1AFACB
:1043A0001EF82AF62EF432F236F03AEE3EEC42EAED
:1043B00046E872E676E47AE27EE080108545B7371B
:1043C000014013850740EF00B077AA8781CB854570
:1043D000B737014013850740EF00907D0100764418
:1043E0003660A660166186617272E2725273C273A1
:1043F0003275A275127682767267E2675268C26879
:10440000326EA26E126F826F2561730020301D71B3
:10441000A2CE82E686E48AE28EE012FE16FC1AFA4A
:104420001EF82AF62EF432F236F03AEE3EEC42EA6C
:1044300046E872E676E47AE27EE080108545B7577A
:104440000140138507C0EF00B06FAA8781CB854577
:10445000B7570140138507C0EF00907501007644FF
:104460003660A660166186617272E2725273C27320
:104470003275A275127682767267E2675268C268F8
:10448000326EA26E126F826F2561730020301D7133
:10449000A2CE82E686E48AE28EE012FE16FC1AFACA
:1044A0001EF82AF62EF432F236F03AEE3EEC42EAEC
:1044B00046E872E676E47AE27EE08010854537557C
:1044C0000140EF00F067AA8791C785453755014045
:1044D000EF00106E010076443660A66016618661BA
:1044E0007272E2725273C2733275A275127682765C
:1044F0007267E2675268C268326EA26E126F826F94
:10450000256173002030411122C6000801003244A9
:10451000410173002030411122C6000801A0411161
:1045200006C622C40008B747950813850740EFE088
:104530000F93EFE09F8D93052008138581A1EF2055
:10454000C02593053008138541A3EF20002593056E
:104550004008138501A5EF204024EFD0DFB2854548
:104560000145EFB0FFF785450545EFC0DF8801A0A5
:1045700001A001A001A001A001A001A001A001A033
:1045800001A001A001A001A001A001A001A001A023
:1045900001A001A001A001A001A001A001A001A013
:1045A00001A001A001A001A001A001A001A001A003
:1045B00001A001A001A001A001A001A001A001A0F3
:1045C00001A001A001A001A001A001A001A001A0E3
:1045D00001A001A001A001A001A001A001A001A0D3
:1045E00001A001A001A001A001A001A001A001A0C3
:1045F00001A001A001A001A001A001A001A001A0B3
:1046000001A001A001A001A001A001A001A001A0A2
:1046100001A001A001A001A001A001A001A001A092
:1046200001A001A001A001A001A001A001A097C1CB
:10463000FF1F9381A14017C100201301A19C179572
:1046400000001305E55A97C5FF1F9385A59B1386A8
:10465000018463FAC5008322050023A055001105DB
:104660009105E3EAC5FE13850184938501A763776D
:10467000B500232005001105E36DB5FEFD427390E2
:1046800002BCFD4273904280B762000093828208B0
:1046900073A0023097C2FFFF9382429A93E23200E6
:1046A00073905230970200009382A2E77390123405
:1046B00073002030797122D60018232EA4FC232603
:1046C00004FE232404FEB7070140938707409C4360
:1046D0000327C4FDF98F2324F4FEB7070140938715
:1046E0000740D84B8327C4FDF98F81CB832784FEF5
:1046F00089C785472326F4FE19A0232604FE8327B5
:10470000C4FE3E85325445618280011122CE0010E4
:104710002326A4FEB7070140938707400327C4FE62
:10472000D8CB0100724405618280397122DE80009D
:104730002326A4FC2324B4FC232604FE232004FE09
:10474000232404FE232E04FC232204FE232C04FC39
:10475000832784FC9C47BD8B2326F4FE832784FC9F
:104760009C47C18B89CB832784FCDC430327C4FE91
:10477000D98F2326F4FE832784FC83D7070093F781
:10478000F70FF1CF8327C4FC9C432322F4FE23249C
:1047900004FE65A8832784FE0547B317F700232E80
:1047A000F4FC832784FC83D707003E878327C4FD5E
:1047B000F98F2320F4FE032704FE8327C4FD631131
:1047C000F708832784FE8A07232EF4FC8327C4FD81
:1047D0003D47B317F700232CF4FC832784FD93C7D0
:1047E000F7FF032744FEF98F2322F4FE8327C4FD3D
:1047F0000327C4FEB317F700032744FED98F2322F3
:10480000F4FE832784FC984793078002631BF7001C
:10481000832784FE05473317F7008327C4FCD8CBD2
:1048200005A0832784FC984793078004631AF70048
:10483000832784FE05473317F7008327C4FC98CBF2
:10484000832784FE85072324F4FE032784FE9D47E7
:10485000E3F2E7F48327C4FC032744FE98C38327CD
:1048600084FC03D707009307F00F63F1E70E83275B
:10487000C4FCDC432322F4FE232404FE75A8832712
:1048800084FEA1070547B317F700232EF4FC832706
:1048900084FC83D707003E878327C4FDF98F23203C
:1048A000F4FE032704FE8327C4FD6312F708832761
:1048B00084FE8A07232EF4FC8327C4FD3D47B317EB
:1048C000F700232CF4FC832784FD93C7F7FF03270D
:1048D00044FEF98F2322F4FE8327C4FD0327C4FE80
:1048E000B317F700032744FED98F2322F4FE832752
:1048F00084FC984793078002631BF700832784FE9C
:10490000A10705473317F7008327C4FCD8CB8327BB
:1049100084FC984793078004631BF700832784FE79
:10492000A10705473317F7008327C4FC98CB8327DB
:1049300084FE85072324F4FE032784FE9D47E3F0CD
:10494000E7F48327C4FC032744FED8C30100725454
:1049500021618280011122CE00102326A4FEAE87A1
:104960002322C4FE2315F4FE832744FE99C7035770
:10497000A4FE8327C4FE98CB31A00357A4FE83274F
:10498000C4FED8CB0100724405618280797122D6C1
:104990000018232EA4FC232CB4FC232404FE232281
:1049A00004FE232604FE232004FE8327C4FD63D8CF
:1049B0000700B7070140DC4F2326F4FE31A0B707FC
:1049C0000140DC432326F4FE8327C4FDC183BD8B55
:1049D0002320F4FE0327C4FDC167FD17F98F2324AC
:1049E000F4FE8327C4FD63D407080327C4FDB7077B
:1049F00030007D8FB70730006314F702832704FE71
:104A0000C1070D47B317F7002322F4FE832744FEA6
:104A100093C7F7FF0327C4FEF98F2326F4FEC5A82A
:104A20000327C4FDB7071000F98F95C3832704FE41
:104A30000D47B317F7002322F4FE832744FE93C7E4
:104A4000F7FF0327C4FEF98F2326F4FEC9A08327AE
:104A5000C4FDD5839207032784FEB317F70093C7DD
:104A6000F7FF0327C4FEF98F2326F4FE4DA003278A
:104A7000C4FDB70730007D8FB70730006315F7021C
:104A80000327C4FEB70700F1FD17F98F2326F4FEB4
:104A9000B7070140D443B7070140370700F17D173E
:104AA000758FD8C3ADA00327C4FDB7071000F98FD9
:104AB0008DCB832704FE0D47B317F7002322F4FEA6
:104AC000832744FE93C7F7FF0327C4FEF98F2326ED
:104AD000F4FE0327C4FEB707000FD98F2326F4FE88
:104AE0003DA08327C4FDD5839207032784FEB31717
:104AF000F70093C7F7FF0327C4FEF98F2326F4FEC0
:104B00000327C4FEB707000FD98F2326F4FE83279F
:104B100084FD91CF8327C4FDD5839207032784FEAC
:104B2000B317F7000327C4FED98F2326F4FE83278B
:104B3000C4FD63D80700B70701400327C4FED8CFE0
:104B400031A0B70701400327C4FED8C30100325487
:104B500045618280397122DE80002326A4FC232255
:104B600004FE232604FE232004FE232E04FC23241B
:104B700004FEB7170240DC43B18B2322F4FE032767
:104B800044FE91476303F702032744FEA1476306EF
:104B9000F702832744FE639907148327C4FC371761
:104BA0007A001307072098C389AA8327C4FC371704
:104BB0007A001307072098C389A2B7170240D84389
:104BC000B7073C00F98F2326F4FEB7170240D843FD
:104BD000C167F98F2320F4FE8327C4FEC9838907A8
:104BE0002326F4FEB7F7FF1F9387C770984391679A
:104BF000F98F91EB0327C4FEC5476319F704C94732
:104C00002326F4FEA1A00327C4FE89476315F700FD
:104C1000C9472326F4FE0327C4FEBD476318F700E7
:104C2000B5472326F4FE85472324F4FE0327C4FE5C
:104C3000C1476315F700BD472326F4FE0327C4FED2
:104C4000C5476315F700C1472326F4FE832704FEFA
:104C5000A1E3B7470240938707809C43C18B89CF6C
:104C60000327C4FEB7177A00938707203307F7029C
:104C70008327C4FC98C399A80327C4FEB7173D0037
:104C8000938707903307F7028327C4FC98C33DA896
:104C9000B7170240D843B7070200F98F89CF03271F
:104CA000C4FEB7173D00938707903307F7028327A9
:104CB000C4FC98C321A80327C4FEB7177A009387C2
:104CC00007203307F7028327C4FC98C3032784FE19
:104CD00085476313F7028327C4FC9C4313D717004F
:104CE0008327C4FC98C309A88327C4FC37177A001C
:104CF0001307072098C311A00100B7170240DC4337
:104D000093F7070F2322F4FE832744FE9183232287
:104D1000F4FEB707002013874701832744FEBA97A4
:104D200083C7070093F7F70F232EF4FC8327C4FCF7
:104D300098438327C4FD3357F7008327C4FCD8C3A7
:104D4000B7170240DC4393F707702322F4FE832752
:104D500044FEA1832322F4FEB707002013874701F6
:104D6000832744FEBA9783C7070093F7F70F232ED4
:104D7000F4FC8327C4FCD8438327C4FD3357F700D2
:104D80008327C4FC98C7B7170240D843916793871D
:104D90000780F98F2322F4FE832744FEAD8323226C
:104DA000F4FEB707002013874701832744FEBA9714
:104DB00083C7070093F7F70F232EF4FC8327C4FC67
:104DC000D8438327C4FD3357F7008327C4FCD8C7D3
:104DD000B7170240D843B167F98F2322F4FE832727
:104DE00044FEB9832322F4FE13874182832744FEC5
:104DF000BA9783C7070093F7F70F232EF4FC832796
:104E0000C4FCD8478327C4FD3357F7028327C4FC6B
:104E100098CB0100725421618280011122CE0010D2
:104E20002326A4FE2324B4FE832784FE99CBB71740
:104E30000240944FB71702400327C4FE558F98CF06
:104E400021A8B7170240944F8327C4FE13C7F7FF6A
:104E5000B7170240758F98CF0100724405618280B8
:104E6000011122CE00102326A4FE2324B4FE8327A2
:104E700084FE99CBB7170240D44FB71702400327DF
:104E8000C4FE558FD8CF21A8B7170240D44F83272F
:104E9000C4FE13C7F7FFB7170240758FD8CF0100C4
:104EA000724405618280011122CE00102326A4FEE7
:104EB0002324B4FE832784FE99CBB7170240D4473E
:104EC000B71702400327C4FE558FD8C721A8B717CC
:104ED0000240D4478327C4FE13C7F7FFB717024029
:104EE000758FD8C70100724405618280011122CEFE
:104EF00000102326A4FE2324B4FE832784FE99CB2E
:104F0000B7170240944BB71702400327C4FE558FD2
:104F100098CB21A8B7170240944B8327C4FE13C730
:104F2000F7FFB7170240758F98CB010072440561F7
:104F30008280011106CE22CC00102326A4FE032776
:104F4000C4FEB7370140631BF70085450565EFF0E8
:104F50009FF581450565EFF01FF591A00327C4FE7D
:104F6000B747004093870780631BF70085451165AD
:104F7000EFF0DFF781451165EFF05FF70DA0032734
:104F8000C4FEB7470040938707C0631AF700854502
:104F90002165EFF0BFF581452165EFF03FF5010098
:104FA000F240624405618280797122D60018232E76
:104FB000A4FC232CB4FC231704FE8327C4FD83D751
:104FC00007002317F4FE0357E4FE8D679387070459
:104FD000F98F2317F4FE832784FD03D70700832767
:104FE00084FD83D72700D98F139707014183832737
:104FF00084FD83D74700D98F139707014183832707
:1050000084FD83D76700D98F1397070141838327D6
:1050100084FD83D78700D98F1397070141838327A6
:1050200084FD83D7A700D98F139707014183832776
:1050300084FD83D7C700D98F139707014183832746
:1050400084FD83D7E700D98F1397070141838357E6
:10505000E4FED98F2317F4FE8327C4FD0357E4FE33
:105060002390E7008327C4FD83D7C7011397070167
:105070004183FD779387F77FF98F1397070141836A
:105080008327C4FD239EE700832784FD03D7070100
:105090008327C4FD2398E7000100325445618280D4
:1050A000011122CE00102326A4FE2324B4FE832760
:1050B00084FE8DC38327C4FE83D70700C207C18344
:1050C00093E707041397070141838327C4FE2390C6
:1050D000E70005A08327C4FE83D70700C207C1836A
:1050E00093F7F7FB1397070141838327C4FE2390AF
:1050F000E7000100724405618280797122D60018B0
:10510000232EA4FC232CB4FC231704FE8327C4FD08
:1051100083D707002317F4FE0327C4FDB7370140E8
:10512000938707C06306F7060327C4FDB70700404F
:105130006300F7060327C4FDB707004093870740C5
:105140006308F7040327C4FDB7170040938707805F
:105150006300F7040327C4FDB7170040938707C017
:105160006308F7020327C4FDB73701409387074060
:105170006300F7020327C4FDB7570140938707C0B8
:105180006308F7000327C4FDB75701406311F70216
:105190008357E4FE93F7F7F82317F4FE832784FD83
:1051A00003D727008357E4FED98F2317F4FE032784
:1051B000C4FDB71700406309F7020327C4FDB71702
:1051C0000040938707406301F7028357E4FE93F79B
:1051D000F7CF2317F4FE832784FD03D76700835797
:1051E000E4FED98F2317F4FE8327C4FD0357E4FEA2
:1051F0002390E700832784FD03D747008327C4FD5E
:105200002396E702832784FD03D707008327C4FD85
:105210002394E7020327C4FDB7370140938707C0F3
:105220006308F7020327C4FDB7370140938707409F
:105230006300F7020327C4FDB7570140938707C0F7
:105240006308F7000327C4FDB7570140631DF7004B
:10525000832784FD83C78700139707014183832732
:10526000C4FD2398E7028327C4FD0547239AE7007E
:105270000100325445618280011122CE00102326A4
:10528000A4FE2324B4FE832784FE8DC38327C4FE9B
:1052900083D70700C207C18393E71700139707015D
:1052A00041838327C4FE2390E70039A88327C4FEE7
:1052B00083D70700C207C183F99B13970701418376
:1052C0008327C4FE2390E7000100724405618280B9
:1052D000011122CE00102326A4FEAE872322C4FE95
:1052E0002315F4FE832744FE9DC38327C4FE83D782
:1052F000C7001397070141838357A4FED98F1397E3
:10530000070141838327C4FE2396E70035A0832746
:10531000C4FE83D7C7001397070141838357A4FEB8
:1053200093C7F7FFC207C183F98F13970701418322
:105330008327C4FE2396E700010072440561828042
:10534000797122D60018232EA4FCAE87231DF4FC0D
:10535000232604FE231504FE231404FE8327C4FD24
:1053600083D707011397070141838357A4FDF98F62
:105370002315F4FE8327C4FD83D7C70013970701C5
:1053800041838357A4FDF98F2314F4FE8357A4FEB1
:1053900081CB835784FE89C785472326F4FE19A055
:1053A000232604FE8327C4FE3E8532544561828055
:1053B000011122CE00102326A4FEAE872315F4FE91
:1053C0008357A4FE93C7F7FF1397070141838327F1
:1053D000C4FE2398E70001007244056182805D717C
:1053E00086C6A2C48008232EA4FA232CB4FA23264E
:1053F00004FE232404FE232204FE232004FE232E85
:1054000004FC8327C4FB232EF4FC8327C4FB83D72F
:105410000701C207C1832326F4FE0327C4FEB56734
:10542000FD17F98F2326F4FE832784FB83D76700BB
:105430003E878327C4FED98F2326F4FE8327C4FE2C
:105440001397070141838327C4FB2398E700832731
:10545000C4FB83D7C700C207C1832326F4FE0327FA
:10546000C4FEBD679387379FF98F2326F4FE8327F9
:1054700084FB03D74700832784FB83D78700D98F1A
:10548000139707014183832784FB83D7A700D98F14
:10549000C207C1833E878327C4FED98F2326F4FE2B
:1054A0008327C4FE1397070141838327C4FB2396F8
:1054B000E7008327C4FB83D74701C207C1832326A4
:1054C000F4FE0327C4FEC1679387F7CFF98F232625
:1054D000F4FE832784FB83D7C7003E878327C4FE5F
:1054E000D98F2326F4FE8327C4FE13970701418337
:1054F0008327C4FB239AE700930784FC3E85EFF0E3
:105500006FE50327C4FDB747014093870780631702
:10551000F700832744FD2324F4FE29A0832704FDFC
:105520002324F4FE8327C4FB83D7C700C207C183AB
:10553000C207C18763D20702032784FEBA878607A2
:10554000BA978E073E97832784FB9C438607B35701
:10555000F7022322F4FE05A0032784FEBA878607FC
:10556000BA978E073E97832784FB9C438A07B357DD
:10557000F7022322F4FE032744FE93074006B357A5
:10558000F70292072326F4FE8327C4FE13D74700B1
:1055900093074006B307F702032744FEB307F7401B
:1055A0002320F4FE8327C4FB83D7C700C207C1832F
:1055B000C207C18763D20702832704FE8E071387C1
:1055C000270393074006B357F7029D8B0327C4FEBA
:1055D000D98F2326F4FE05A0832704FE92071387A4
:1055E000270393074006B357F702BD8B0327C4FE7A
:1055F000D98F2326F4FE8327C4FE13970701418326
:105600008327C4FB2394E7000100B6402644616170
:105610008280011122CE00102326A4FE2324B4FE92
:10562000832784FE95C38327C4FE83D7C7001397BF
:10563000070141838967D98F139707014183832726
:10564000C4FE2396E70015A08327C4FE83D7C700B6
:10565000139707014183F977FD17F98F1397070116
:1056600041838327C4FE2396E7000100724405614D
:105670008280011122CE00102326A4FEAE872315BE
:10568000F4FE8357A4FE93F7F71F13970701418396
:105690008327C4FE2392E7000100724405618280E3
:1056A000797122D60018232EA4FCAE87231DF4FCAA
:1056B000232604FE8327C4FD83D707001397070121
:1056C00041838357A4FDF98FC207C18389C78547EA
:1056D0002326F4FE19A0232604FE8327C4FE3E855C
:1056E000325445618280797122D60018232EA4FCA1
:1056F000AE87231DF4FC232204FE232604FE232070
:1057000004FE232404FE8357A4FD93F7F70F95832B
:1057100093F7F70F2320F4FE8357A4FDFD8B232678
:10572000F4FE8327C4FE0547B317F7002326F4FED3
:10573000032704FE8547631FF7008327C4FD83D733
:10574000C700C207C1833E878327C4FEF98F232683
:10575000F4FE3DA8032704FE8947631FF700832753
:10576000C4FD83D70701C207C1833E878327C4FED8
:10577000F98F2326F4FE29A88327C4FD83D7470188
:10578000C207C1833E878327C4FEF98F2326F4FE18
:105790008357A4FDA183C207C1832322F4FE83277C
:1057A00044FE0547B317F7002322F4FE8327C4FD08
:1057B00083D70700C207C1833E87832744FEF98F42
:1057C0002322F4FE8327C4FE81CB832744FE89C7AE
:1057D00085472324F4FE19A0232404FE832784FE96
:1057E0003E85325445618280797122D60018232E7D
:1057F000A4FCAE87231DF4FC231704FE231604FE2D
:105800008357A4FDA1832317F4FE8357E4FE0547C5
:10581000B317F7002316F4FE8357C4FE93C7F7FFB0
:105820001397070141838327C4FD2390E7000100FC
:10583000325445618280011122CE0010AA87A3074D
:10584000F4FEB70700500347F4FE42074183239A52
:10585000E702B707005083C7670313F7F70FB707CF
:105860000050719B1377F70F238BE70201007244FE
:1058700005618280011122CE0010AA87A307F4FEE1
:10588000B70700500347F4FE42074183239CE70219
:10589000B707005083C7A70313F7F70FB7070050E8
:1058A000719B1377F70F238DE702010072440561A6
:1058B0008280797106D622D40018AA87A30FF4FC3F
:1058C000A30704FE15A803A701878347F4FEBA9730
:1058D00003C7070083A601878347F4FE9387070465
:1058E000B6971347F7FF1377F70F2380E700834737
:1058F000F4FE8507A307F4FE0347F4FE8347F4FD97
:10590000E363F7FC8347F4FD3E85EFF0DFF201002F
:10591000B250225445618280797106D622D4001893
:10592000AA87A30FF4FCA30704FE15A803A74187C9
:105930008347F4FEBA9703C7070083A641878347CE
:10594000F4FE93870704B6971347F7FF1377F70F13
:105950002380E7008347F4FE8507A307F4FE03478F
:10596000F4FE8347F4FDE363F7FC8347F4FD3E85D3
:10597000EFF05FF00100B25022544561828059710E
:10598000A2D682EE86EC8AEA8EE892E696E49AE265
:105990009EE02AFE2EFC32FA36F83AF63EF442F247
:1059A00046F072EE76EC7AEA7EE88018230F04F86F
:1059B000B707005083C76700A30EF4F88347D4F9F4
:1059C000898BE38A073CB707005083C7770093F7BA
:1059D000F70F93F707034147E384E73A41476346EC
:1059E000F700E38E07206F00F03913070002E3860B
:1059F000E70413070003E397E738B7070050194798
:105A00002389E702B70700501147A389E70283A75C
:105A1000C18603C7670083C77700A207D98F139792
:105A2000070141832391E18883A7C18603C717003B
:105A30002380E18883A7C18683C70700230EF4F87B
:105A4000A30F04F8230F04F883A7C18683C70700B8
:105A500093F70706638B071283C7018893F7F70F45
:105A600093F70702D5C383C7018893F7F70F13078E
:105A70001002638BE700130720026389E70813070E
:105A800000026387E708ADA81387C18223ACE186D3
:105A90009D47A30FF4F883D721881397070141830B
:105AA0009D4763E9E70083D72188C207C18393F745
:105AB000F70F11A0A147A30FF4F803A7C18683A78E
:105AC00081878346F4F93686BE853A85EF30D0006B
:105AD00083D721881397070141838347F4F9C207CD
