:100000006F40001F130000001300000013000000E9
:100010001300000013000000130000001300000094
:100020001300000013000000130000001300000084
:08003000130000007300100032
:100038000000000000000000884000009840000018
:100048000000000036410000000000000000000031
:10005800384100003A4100000000000000000000A4
:100068003C410000000000003E410000000000008C
:100078004041000042410000444100004641000068
:10008800484100004A4100008C3700000038000059
:1000980074380000E83800005C3900005641000060
:1000A800584100005A4100005C4100005E410000D8
:1000B80060410000624100006441000066410000A8
:1000C800684100006A4100006C410000D03900001E
:1000D80070410000943B000074410000764100002C
:1000E800203C0000983C0000183D00007E410000C4
:1000F80080410000824100008441000086410000E8
:1001080088410000DC32000060330000E433000066
:10011800A83A000092410000944100009641000076
:10012800103F00009A4100009C4100009E410000E1
:10013800A0410000A2410000983D0000A641000037
:1001480068340000EC340000183E0000903E0000C7
:10015800B0410000B2410000B4410000B6410000C7
:10016800B8410000BA410000BC410000BE41000097
:10017800C0410000C2410000C44100006A570000AD
:10018800C8410000CA410000FC3600006E3500007E
:10019800F23500007C360000D4410000903F00009A
:1001A800D8410000DA410000DC41000010400000A6
:1001B800E0410000E2410000E4410000E6410000A7
:1001C800E8410000EA410000EC410000EE41000077
:1001D8000000000000000000000000000000000017
:1001E8000000000000000000000000000000000007
:0801F8000000000000000000FF
:100200003D432A876373C3029377F700BDEFADE5E3
:10021000937606FF3D8ABA960CC34CC30CC74CC7F5
:100220004107E36BD7FE11E28280B306C3408A0622
:100230009702000096966780A6002307B700A306E2
:10024000B7002306B700A305B7002305B700A30432
:10025000B7002304B700A303B7002303B700A3022A
:10026000B7002302B700A301B7002301B700A30022
:10027000B7002300B700828093F5F50F93968500B1
:10028000D58D93960501D58D61B79396270097027A
:10029000000096968682E78086FA9680C1171D8FA9
:1002A0003E96E374C3F8A5B7011122CE00102326B1
:1002B000A4FE2324B4FE37F600E04C4237F600E0FB
:1002C000F9994CC20326C4FEB2860147032684FE78
:1002D000B287014837F600E03305F702B305D802CC
:1002E000AA953385F602B3B3F6022A83B387750065
:1002F000BE8323286600232A7600B7F700E09843E0
:10030000B7F700E01367070198C3B7F700E0984319
:10031000B7F700E01367170298C30100B7F700E0D2
:10032000DC4313F717008547E31AF7FEB7F700E041
:100330009843B7F700E0799B98C3010072440561C8
:100340008280797106D622D40018232EA4FC232C97
:10035000B4FC8327C4FD93B7070493F7F70F3E87D8
:1003600013067003CD679385C7F03A85EF206029A7
:10037000832784FD93B7470093F7F70F3E87130653
:100380008003CD679385C7F03A85EF208027A307C8
:1003900004FE0327C4FDA167BA971397270083279C
:1003A00084FDBA97AA072324F4FE231604FE35A081
:1003B0000357C4FE832784FEBA979843B747E339AF
:1003C0009387379E6306F7008547A307F4FE21A8AD
:1003D0008357C4FE91072316F4FE0357C4FE930708
:1003E000F03FE3F7E7FC8347F4FE3E85B25022542A
:1003F00045618280797106D622D40018232EA4FC90
:10040000232CB4FC8327C4FD93B7070493F7F70F9D
:100410003E8713064005CD679385C7F03A85EF20E8
:10042000401E832784FD93B7470093F7F70F3E875D
:1004300013065005CD679385C7F03A85EF20601C01
:10044000A30704FE0327C4FDA167BA9713972700EB
:10045000832784FDBA97AA072324F4FEEF3050695E
:1004600013054003EF30907F032584FEEF30D06CFE
:100470002A87B707002023ACE72213050002EF30DC
:10048000F07DEF309069B707002003A787239147DD
:100490006305F7008547A307F4FE8347F4FE3E8516
:1004A000B250225445618280797106D622D4001858
:1004B000232EA4FC232CB4FC8327C4FD93B707048C
:1004C00093F7F70F3E871306800BCD679385C7F030
:1004D0003A85EF200013832784FD93B7470093F7F5
:1004E000F70F3E871306900BCD679385C7F03A85CB
:1004F000EF2020110327C4FDA167BA9713972700A7
:10050000832784FDBA97AA072324F4FE231704FE49
:100510003DA08357E4FE8A073E87832784FEBA976F
:100520008356E4FE9843B70700208A069387073472
:10053000B69798C38357E4FE85072317F4FE035745
:10054000E4FE9307F00FE3F6E7FC0100B2502254FB
:1005500045618280797106D622D40018232EA4FC2E
:10056000232CB4FC8327C4FD93B7070493F7F70F3C
:100570003E871306D00CCD679385C7F03A85EF20F0
:100580004008832784FD93B7470093F7F70F3E8712
:100590001306E00CCD679385C7F03A85EF2060061F
:1005A000A30704FE232404FE231304FE0327C4FD33
:1005B000A167BA9713972700832784FDBA97AA07E4
:1005C0002324F4FE832584FD0325C4FD9D3BAA87D7
:1005D00091C7832584FD0325C4FD293DEF3050518B
:1005E00089A8035764FEB70700200A0793870734DA
:1005F000BA979C43BE85032584FEEF30505B2A8763
:10060000B707002023AEE722B707002003A7C723C0
:1006100091476306F7008547A307F4FE0DA08357B3
:1006200064FE85072313F4FE832784FE91072324A9
:10063000F4FE035764FE9307F00FE3F4E7FAEF309C
:10064000D04D8347F4FE3E85B250225445618280EE
:10065000411106C622C40008130600409305F00F9E
:10066000B707002013850734613E0100B2402244E1
:1006700041018280011122CE00102326A4FE83278F
:10068000C4FE958313F77700B70700200A07938706
:100690000700BA979C439C470327C4FE7D8B854681
:1006A0003397E600F98FB337F00093F7F70F3E85E5
:1006B000724405618280797106D622D40018232EF7
:1006C000A4FC232CB4FCB2872328D4FCA30BF4FC99
:1006D000232004FE232204FE232404FE8327C4FDDA
:1006E000958393F7F70F9D8BA307F4FE8327C4FD33
:1006F00093F7F70FFD8B2307F4FE8347F4FE91E792
:1007000085451145EF40205191A80347F4FE8547E8
:100710006317F70085452145EF40E04F81A003476F
:10072000F4FE89476317F70085454145EF40A04E29
:1007300035A00347F4FE8D476318F7008545130580
:100740000002EF40404D19A80347F4FE914763179C
:10075000F700854513050004EF40E04B8347E4FEB6
:100760000547B317F700C207C1832310F4FE032720
:1007700084FD85476317F702832704FDC207C18301
:10078000A183C207C18389E78D472322F4FE11A804
:10079000832704FDC207C183A183C207C18323222B
:1007A000F4FE832704FDC207C18393F7F70F2324C8
:1007B000F4FE0347F4FEB70700200A0793870700FB
:1007C000BA979C43130704FEBA853E85EF30B055B7
:1007D000032784FD85476319F7020347F4FEB70733
:1007E00000200A0793870700BA9794438347E4FEE3
:1007F0000547B317F700C207C183034774FD3A8664
:10080000BE853685EF30D0740100B2502254456168
:1008100082801D7186CEA2CC80102326A4FA2324C8
:10082000B4FA85450325C4FADD2BAA873E87130653
:10083000D006CD67938507FA3A85EF10905C832741
:1008400084FAB337F00093F7F70F3E871306F006EC
:10085000CD67938507FA3A85EF10B05A832784FA5B
:10086000BD832315F4FE8357A4FE85073E878327A7
:1008700084FAB3D7E7022314F4FE0325C4FA19253A
:10088000B7370140938707C02326F4FE0327C4FA35
:10089000A54763ECE7088327C4FA13972700CD67C1
:1008A00093870775BA979C438287B7370140938730
:1008B00007C02326F4FE95A8B70700402326F4FEC0
:1008C000ADA0B7070040938707402326F4FEB1A8E8
:1008D000B7170040938707802326F4FEB9A0B71707
:1008E0000040938707C02326F4FE81A0B71700407D
:1008F0002326F4FE1DA8B717004093870740232640
:10090000F4FE25A0B7370140938707402326F4FE65
:1009100029A8B7570140938707C02326F4FE31A0CA
:10092000B75701402326F4FE0100232E04FC2320A8
:1009300004FE231204FE835784FE2310F4FE835723
:10094000A4FE231EF4FC231104FE231F04FC230237
:1009500004FE9307C4FDBE850325C4FEEF40E058A6
:10096000054685450325C4FEEF4080758545032572
:10097000C4FEEF40F002CD6703AE87F7138787F719
:1009800003234700138787F783288700138787F798
:100990000328C700138787F7084B138787F74C4B4B
:1009A000138787F7104F138787F7544F138787F7FD
:1009B0001853938787F7DC53232AC4FB232C64FA4C
:1009C000232E14FB232004FD2322A4FC2324B4FCA7
:1009D0002326C4FC2328D4FC232AE4FC232CF4FC87
:1009E0008327C4FA93F7F70F8A07130704FFBA9710
:1009F00083A747FC8D453E85EF20D0048327C4FAAA
:100A00008A07130704FFBA9783A747FC3E85EF20A8
:100A1000B00185450325C4FEEF4000650100F640A6
:100A2000664425618280011122CE00102326A4FE97
:100A3000AE87A305F4FECD670327C4FE0A0793879C
:100A40008777BA979C433E878347B4FEC207C1832A
:100A50002316F7000100CD670327C4FE0A0793871A
:100A60008777BA979C4383D78700C207C18393F7E0
:100A70000708F5F3CD670327C4FE0A079387877736
:100A8000BA979C4383D7C7000100724405618280F6
:100A9000011122CE00102326A4FEAE872315F4FEFA
:100AA0008357A4FEA183C207C18393F6F70FCD67D6
:100AB0000327C4FE0A0793878777BA979C433E872C
:100AC00093970601C1832316F7000100CD67032722
:100AD000C4FE0A0793878777BA979C4383D787001A
:100AE000C207C18393F70708F5F38357A4FE93F673
:100AF000F70FCD670327C4FE0A0793878777BA9756
:100B00009C433E8793970601C1832316F70001009B
:100B1000CD670327C4FE0A0793878777BA979C435C
:100B200083D78700C207C18393F70708F5F3010055
:100B30007244056182805D7186C6A2C48008232646
:100B4000A4FC2324B4FC2322C4FC2320D4FC232EA5
:100B5000E4FA232CF4FA232A04FBCD670327C4FC10
:100B60000A0793878777BA979C433E85EF40201CFE
:100B700085450545EF40200A032704FC9307301202
:100B80006313F702032784FB93074012631DF700EA
:100B90000327C4FB930750126317F70085450545EB
:100BA000EF30903E1DA8032704FC89679387A714A4
:100BB0006315F702032784FB89679387B714631EC5
:100BC000F7000327C4FB89679387C7146317F700EF
:100BD000854537152000EF30303B8327C4FC91E773
:100BE00085450565EF40200325A00327C4FC854704
:100BF0006317F70085451165EF40400611A80327EC
:100C0000C4FC89476316F70085452165EF40000560
:100C1000832704FC93F7F70F93068031054685453B
:100C20003E85513C8327C4FB93F7F70F9306803131
:100C3000054685453E854134032784FBC167F91786
:100C4000630CF700832784FB93F7F70F9306803438
:100C5000054681453E858534032744FB9307F00F05
:100C6000630CF700832744FB93F7F70F93060031DB
:100C7000014685453E858134232E04FC232004FE55
:100C8000232204FE232404FE231604FE231E04FC58
:100C900093074010231FF4FC231004FE032784FC59
:100CA00085476305F702832784FC81CF032784FCF3
:100CB00089476303F702032784FC8D476304F70227
:100CC0000DA8231104FE231204FE25A0231104FE07
:100CD00085472312F4FE31A889472311F4FE23121D
:100CE00004FE01A889472311F4FE85472312F4FE70
:100CF0000100231704FE03A78181832744FCB35717
:100D0000F7022317F4FE03A78181832744FCB377FE
:100D1000F70291E78357E4FEFD172317F4FE03570C
:100D2000E4FE9307F00763F7E700930780032317B8
:100D3000F4FE49A80357E4FE9307F00363F7E700C6
:100D4000930700032317F4FEB5A80357E4FEFD47FD
:100D500063F7E700930780022317F4FEA5A003576B
:100D6000E4FEBD4763F7E700930700022317F4FE94
:100D700091A80357E4FE9D4763F6E700E147231778
:100D8000F4FE89A00357E4FE8D4763F6E700C147F0
:100D90002317F4FE05A80357E4FE854763F6E70032
:100DA000A1472317F4FE39A88357E4FE81C7231710
:100DB00004FE09A813067021CD67938587000145BD
:100DC000EF1030048357E4FE2314F4FE9307002051
:100DD0002313F4FE231504FE9D472316F4FECD676E
:100DE0000327C4FC0A0793878777BA979C433E87FB
:100DF0009307C4FDBE853A85EF30107ACD6703278F
:100E0000C4FC0A0793878777BA979C4385453E853C
:100E1000EF4000080100B64026446161828079718C
:100E200022D60018232EA4FC232CB4FC8547A3074C
:100E3000F4FE0327C4FD0A07938781D0BA979C4329
:100E400099EB0327C4FD0A07938781D0BA9703273C
:100E500084FD98C315A00327C4FD0A07938781D09A
:100E6000BA979C43032784FD6316F7008547A307C1
:100E7000F4FE19A0A30704FE8347F4FE3E85325416
:100E800045618280011106CE22CC00102326A4FEEB
:100E90008327C4FE81EB8545856713850780EF3086
:100EA00090576DA80327C4FE85476317F700854553
:100EB0000545EF30B05A5DA00327C4FE894763178C
:100EC000F70085450945EF30705949A80327C4FE4E
:100ED0008D476317F70085451145EF303058BDA8A1
:100EE0000327C4FE91476317F70085452145EF307E
:100EF000F056ADA00327C4FE95476317F70085455C
:100F00004145EF30B05599A80327C4FE99476318AF
:100F1000F700854513050002EF30505481A00327E8
:100F2000C4FE9D476317F70085450965EF30B04E55
:100F300035A00327C4FEA1476318F7008545370590
:100F40000800EF30504D19A80327C4FEA5476317CA
:100F5000F700854537051000EF30F04B0100F240F7
:100F6000624405618280797106D622D40018232E4E
:100F7000A4FCB7370140938707C02326F4FE03275C
:100F8000C4FDA54763ECE7088327C4FD139727003A
:100F9000CD6793874778BA979C438287B7370140DC
:100FA000938707C02326F4FE95A8B70700402326A1
:100FB000F4FEADA0B7070040938707402326F4FE58
:100FC000B1A8B7170040938707802326F4FEB9A085
:100FD000B7170040938707C02326F4FE81A0B717F8
:100FE00000402326F4FE1DA8B71700409387074052
:100FF0002326F4FE25A0B737014093870740232618
:10100000F4FE29A8B7570140938707C02326F4FEB2
:1010100031A0B75701402326F4FE01008545032582
:10102000C4FEEF4060040100B2502254456182804A
:10103000797106D622D40018232EA4FCB7370140BC
:10104000938707C02326F4FE0327C4FDA54763EC5E
:10105000E7088327C4FD13972700CD679387C77AD6
:10106000BA979C438287B7370140938707C02326EE
:10107000F4FE95A8B70700402326F4FEADA0B707FD
:101080000040938707402326F4FEB1A8B71700401D
:10109000938707802326F4FEB9A0B71700409387F3
:1010A00007C02326F4FE81A0B71700402326F4FED4
:1010B0001DA8B7170040938707402326F4FE25A0FC
:1010C000B7370140938707402326F4FE29A8B75776
:1010D0000140938707C02326F4FE31A0B757014093
:1010E0002326F4FE010081450325C4FEEF30D077AE
:1010F0000100B250225445618280797122D60018D5
:10110000232EA4FCB7370140938707C02326F4FEA3
:10111000231504FE0327C4FDA54763ECE7088327D6
:10112000C4FD13972700CD679387477DBA979C43EB
:101130008287B7370140938707C02326F4FE95A81E
:10114000B70700402326F4FEADA0B7070040938701
:1011500007402326F4FEB1A8B71700409387078005
:101160002326F4FEB9A0B7170040938707C02326B3
:10117000F4FE81A0B71700402326F4FE1DA8B71780
:101180000040938707402326F4FE25A0B73701408F
:10119000938707402326F4FE29A8B7570140938779
:1011A00007C02326F4FE31A0B75701402326F4FEE2
:1011B00001000327C4FD0A07938701D3BA97984318
:1011C0008947631FF7008327C4FE83D7470213971D
:1011D000070141838D47B357F7022315F4FE39A069
:1011E0008327C4FE83D747022315F4FE8357A4FE4A
:1011F0003E85325445618280797122D60018232EB3
:10120000A4FCB7370140938707C02326F4FE0327C9
:10121000C4FDA54763ECE7088327C4FD13972700A7
:10122000CD679387C77FBA979C438287B7370140C2
:10123000938707C02326F4FE95A8B707004023260E
:10124000F4FEADA0B7070040938707402326F4FEC5
:10125000B1A8B7170040938707802326F4FEB9A0F2
:10126000B7170040938707C02326F4FE81A0B71765
:1012700000402326F4FE1DA8B717004093870740BF
:101280002326F4FE25A0B737014093870740232685
:10129000F4FE29A8B7570140938707C02326F4FE20
:1012A00031A0B75701402326F4FE01008327C4FE76
:1012B000239207020100325445618280797106D67B
:1012C00022D40018232EA4FC232CB4FC854503252E
:1012D000C4FDB136AA873E871306200FCD679385DC
:1012E00007073A85EF10E0310327C4FD0A0793870B
:1012F00081D0BA97054798C3B7370140938707C095
:101300002326F4FE0327C4FDA54763ECE7088327E3
:10131000C4FD13972700D16793874782BA979C43F0
:101320008287B7370140938707C02326F4FE95A82C
:10133000B70700402326F4FEADA0B707004093870F
:1013400007402326F4FEB1A8B71700409387078013
:101350002326F4FEB9A0B7170040938707C02326C1
:10136000F4FE81A0B71700402326F4FE1DA8B7178E
:101370000040938707402326F4FE25A0B73701409D
:10138000938707402326F4FE29A8B7570140938787
:1013900007C02326F4FE31A0B75701402326F4FEF0
:1013A00001000325C4FDF93C0327C4FD0A07938708
:1013B00001D3BA97032784FD98C3232004FE232278
:1013C00004FE231404FE032784FD85476315F702FA
:1013D000FD572312F4FE03A78181B7470F009387BF
:1013E0000724B357F702C207C183FD17C207C183A1
:1013F0002310F4FE2DA8032784FD89476314F70208
:10140000FD572312F4FE03A781818567938787BB6D
:10141000B357F702C207C183FD17C207C183231068
:10142000F4FE31A0FD572312F4FE231004FE231313
:1014300004FE231104FE230404FE930704FEBE856C
:101440000325C4FEEF30702A85450325C4FEEF3026
:10145000B0410100B250225445618280011122CE78
:1014600000102326A4FEAE87A305F4FE0100D16779
:101470000327C4FE0A079387C784BA979C4383D780
:101480000700C207C18393F70708F5D3D167032785
:10149000C4FE0A079387C784BA979C433E87834755
:1014A000B4FEC207C1832312F70001007244056134
:1014B0008280011106CE22CC00102326A4FE232414
:1014C000B4FE832784FEB337F00093F7F70F3E870F
:1014D00013060005CD679385C70D3A85EF1060129E
:1014E00039A8832784FE138717002324E4FE83870B
:1014F000070093F7F70FBE850325C4FE85378327C2
:1015000084FE83870700F1FF0100F2406244056119
:101510008280011122CE00102326A4FE2324B4FED3
:10152000D1670327C4FE0A079387C784BA979C43F1
:1015300083D70700C207C18393F707028DC7D1671E
:101540000327C4FE0A079387C784BA979C4383D7AF
:101550004700C207C18313F7F70F832784FE238058
:10156000E700854711A081473E857244056182806E
:10157000797106D622D40018232EA4FC232CB4FCA7
:10158000232AC4FC2328D4FC032744FD832704FD1D
:101590003D8F8327C4FDB207F98F93B7170093F7E8
:1015A000F70F3E871306A00ACD679385C70D3A85CE
:1015B000EF102005832744FD13D78700832704FD00
:1015C000A183B307F74093B7170093F7F70F3E8750
:1015D0001306B00ACD679385C70D3A85EF106002F8
:1015E000832744FD93F7F70FE146014685453E8585
:1015F000EFF06F8C832704FD93F7F70F93068004B9
:10160000014681453E85EFF00F8B85450545EF305E
:101610008060032744FDC167FD17F98F0D6713072D
:1016200007386385E7200D67130707386369F704F8
:101630000567130757166381E716056713075716E3
:10164000636FF7001307F022638AE70C130760301B
:101650006381E710130760126388E70855A60967DE
:1016600013078736638AE7160D671307071263852A
:10167000E71809671307A7146380E71451A61567D5
:101680001307A738638CE72615671307A73863622B
:10169000F702116713078738638EE71E1567130774
:1016A00087126383E722116713074712638AE71AD9
:1016B00081AE19671307C7386386E72A19671307CE
:1016C000C7386368F7001967130767106382E72656
:1016D00005AE1D671307E7106380E72C1D6713072E
:1016E000E7386385E72E29AEB7070140D44FB70727
:1016F0000140370700FC7D17758FD8CFB707014031
:10170000D843B70701406D9BD8C3B7070140D84302
:10171000B707014013674700D8C3DDA4B7070140EE
:10172000D44FB7070140370700FC7D17758FD8CF1E
:10173000B7070140D44FB707014037070004558F62
:10174000D8CFB7070140D843B70701406D9BD8C336
:1017500045ACB7070140D44FB7070140370700FC3D
:101760007D17758FD8CFB7070140D44FB707014019
:1017700037070004558FD8CFB7070140D843B707C4
:1017800001406D9BD8C3B7070140D843B70701405C
:1017900013674700D8C3ADA4B7070140D843B707C4
:1017A00001405D9BD8C3B7070140D843B70701404C
:1017B00013678700D8C3A9A4B7070140D843B70768
:1017C00001401D9BD8C3B7070140D843B70701406C
:1017D00013678700D8C32DA4B7070140D843B707C4
:1017E00001401D9BD8C3B7070140D843B70701404C
:1017F00013678701D8C329A4B7070140D44FB7079F
:1018000001403707FDFF7D17758FD8CFB70701401F
:10181000D44F832744FDA18313970701B707030023
:101820007D8FB7070140558FD8CFD9AAB7070140A0
:10183000D44FB70701403707FDFF7D17758FD8CF0D
:10184000B7070140D44F832744FDA18313970701B5
:10185000B70703007D8FB7070140558FD8CF4DA242
:10186000B7070140D44FB70701403707F4FF7D1792
:10187000758FD8CFB7070140D44F832744FDA1838C
:1018800013972701B7070C007D8FB7070140558FCD
:10189000D8CFBDA2B7070140D44FB70701403707E3
:1018A000F4FF7D17758FD8CFB7070140D44F83273A
:1018B00044FDA18313972701B7070C007D8FB7075D
:1018C0000140558FD8CF2DAAB7070140D44FB70795
:1018D00001403707D0FF7D17758FD8CFB70701407C
:1018E000D44F832744FDA18313974701B7073000E6
:1018F0007D8FB7070140558FD8CF19A2B707014098
:10190000D44FB70701403707D0FF7D17758FD8CF69
:10191000B7070140D44F832744FDA18313974701A4
:10192000B70730007D8FB7070140558FD8CFC9A8C2
:10193000B7070140D44FB7070140370740FF7D1775
:10194000758FD8CFB7070140D44F832744FDA183BB
:1019500013976701B707C0007D8FB7070140558F08
:10196000D8CF79A8B7070140D44FB7070140370750
:1019700040FF7D17758FD8CFB7070140D44F83271D
:1019800044FDA18313976701B707C0007D8FB70798
:101990000140558FD8CFADA0B7070140D44FB7074E
:1019A0000140370700FD7D17758FD8CFB70701407D
:1019B000D44F832744FDA18313978701B707000302
:1019C0007D8FB7070140558FD8CF1DA8B7070140BD
:1019D000D44FB7070140370700FD7D17758FD8CF6B
:1019E000B7070140D44F832744FDA1831397870194
:1019F000B70700037D8FB7070140558FD8CF01008F
:101A00008327C4FD91E785451165EF30C02069A8A3
:101A10000327C4FD85476318F70085453705020095
:101A2000EF30C02351A00327C4FD89476318F70096
:101A3000854537050400EF306022BDA00327C4FDB3
:101A40008D476318F700854537050800EF30002102
:101A5000A1A80327C4FD91476318F7008545370502
:101A60001000EF30A01F89A00327C4FD954763181D
:101A7000F700854513050004EF30401E35A003270D
:101A8000C4FD99476318F700854513050008EF303A
:101A9000E01C19A80327C4FD9D476317F70085457F
:101AA00013050010EF30801B232004FE232204FEC8
:101AB000232404FE232604FE832784FD2320F4FE32
:101AC000231204FE231304FE231404FE231604FE33
:101AD000B1472315F4FED1670327C4FD0A07938796
:101AE000C784BA979C433E87930704FEBE853A8518
:101AF000EF30E06DD1670327C4FD0A079387C784E1
:101B0000BA979C4385453E85EF30B00F0100B25037
:101B1000225445618280411106C622C4000883A771
:101B2000C1860547638BE7006386070C0947638D11
:101B3000E7000D47638FE702D9A083A7818613874B
:101B4000170023A4E18665A883A781861387170061
:101B500023A4E18603A78186A54763FFE708B707AB
:101B60000020938707009C4B1167D8CB23A40186E4
:101B700061A003A7018785476312F7081305F008E2
:101B8000EFE05FAFAA87B9CF1945EFF00FD7AA876B
:101B90003E8783A781861D8F9307600963F0E70660
:101BA0001945EFF06FE583A78186D3F717D05385EA
:101BB000F720EFD0700DCD6703A6871483A6C71456
:101BC000EFC0E051AA872E883E85C285EFD0807491
:101BD000AA871397070141832394E180094723A82B
:101BE000E18629A81945EFF04FD1AA873E8723A4A3
:101BF000E18629A0010021A0010011A0010001003F
:101C0000B240224441018280411106C622C400082C
:101C100083A7C1860947637CF7000D47639AE700F5
:101C20001945EFF06FDD054723A8E18611A00100FB
:101C30000100B240224441018280011106CE22CC33
:101C4000001083C75187638A070E09A8930734FEE3
:101C50000546BE85138581D5EF007051930734FE8C
:101C6000BE851D45EFF0FF8AAA87EDF3034734FEDA
:101C7000A9476314F70C99472322F4FE130744FE87
:101C8000930784FE85463A86BE85138581D5EF008D
:101C9000507D930784FE138737000D46CD679385EB
:101CA00007153A85EFE0E07AAA879DEB03A7C18785
:101CB0008947630DF706054723AEE186138581D575
:101CC000EF00D046AA872322F4FE930744FE814604
:101CD0003E86938541DF138581D5EF009078B9A0CA
:101CE000930784FE138737000D46CD67938547150C
:101CF0003A85EFE00076AA8795EB03A781878947AD
:101D00006306F702054723ACE186138581D5EF0012
:101D1000F041AA872322F4FE930744FE81463E86C3
:101D2000938541D7138581D5EF00B073138581D595
:101D3000EF00F02F0547238AE1860100F24062445C
:101D400005618280411122C6000801003244410130
:101D50008280411122C60008B71702409843B71786
:101D600002401367170098C3B7170240D443B71750
:101D700002403707FFF8758FD8C3B7170240944366
:101D8000B71702403707F7FE7D17758F98C3B7174F
:101D900002409443B71702403707FCFF7D17758F49
:101DA00098C3B7170240D443B7170240370781FFE3
:101DB0007D17758FD8C3B717024037079F0098C7A4
:101DC0000100324441018280797122D60018232E0D
:101DD000A4FC232604FE232404FEB71702409443E8
:101DE000B71702404167558F98C3B7170240984311
:101DF000B7070200F98F2324F4FE8327C4FE85076A
:101E00002326F4FE832784FE91E70327C4FE85671B
:101E1000E31DF7FCB71702409843B7070200F98F9C
:101E200089C785472324F4FE19A0232404FE032731
:101E300084FE85476312F71637170240B717024032
:101E40005843D8C337170240B71702405843D8C386
:101E500037170240B71702405843D8C3B71702409C
:101E6000D443B71702403707C1FF7D17758FD8C31A
:101E70000327C4FDB747950893870740631BF70006
:101E8000B7170240D443B71702404167558FD8C3F4
:101E900055A80327C4FDB7172707938707E0631CDE
:101EA000F700B7170240D443B7170240370739008D
:101EB000558FD8C341A80327C4FDB7E7B80593875A
:101EC0000780631CF700B7170240D443B7170240DE
:101ED00037072900558FD8C3B5A00327C4FDB7A77E
:101EE0004A0493870720631CF700B7170240D443C6
:101EF000B717024037071D00558FD8C3A1A003278D
:101F0000C4FDB777DC02938707C0631CF700B717DF
:101F10000240D443B717024037071100558FD8C38A
:101F200015A00327C4FDB7376E0193870760631BB5
:101F3000F700B7170240D443B71702403707050030
:101F4000558FD8C3B71702409443B71702403707DD
:101F50000001558F98C30100B71702409843B70797
:101F60000002F98FF5DBB7170240D843B7170240DC
:101F7000719BD8C3B7170240D843B7170240136705
:101F80002700D8C30100B7170240DC4313F7C7008E
:101F9000A147E31AF7FE11A001A0325445618280E7
:101FA000011106CE22CC00102326A4FE0327C4FE76
:101FB00023ACE180793B0325C4FE3935EF10A03016
:101FC0000100F240624405618280411122C600088E
:101FD00001000100324441018280011106CE22CC71
:101FE0000010232604FE232404FE232604FE25A03D
:101FF000232404FE39A0D13F832784FE85072324B0
:10200000F4FE032784FEC167E367F7FE8327C4FE5F
:1020100085072326F4FE0327C4FE9307F00FE3F998
:10202000E7FC0100F240624405618280411122C652
:1020300000080100324441018280011106CE22CC09
:1020400000102326A4FE8325C4FE0945EFF06FC6C9
:102050000100F240624405618280130101D9232608
:1020600011262324812623229126801C232EA4D8E6
:10207000232CB4D8232AC4D82328D4D8231504FE6B
:10208000231404FE231304FE231204FE231104FE72
:10209000032584D9EFE0C03AAA87C207C18723137A
:1020A000F4FE83D741E789C7938741E79C4B82972A
:1020B00083C7018893F7F70F638D074A83D741E7FA
:1020C00063870744938741E7D447835724FE1397D8
:1020D0000701418793170701C1838507C207C183A1
:1020E000C207C1872311F4FE93170701C18303269A
:1020F000C4D9BE8501458296832784D92326F4FE60
:10210000032584D9EFE0C033AA87C207C187231310
:10211000F4FE938741E783D727003E87938741E703
:1021200083C76700B347F702C207C1872312F4FED3
:1021300001008327C4FE138717002326E4FE83874C
:102140000700E5FB231404FEA1A88327C4FEFD17A6
:102150002326F4FE8327C4FE038707009307F002BB
:10216000630AF7008327C4FE038707009307C005AF
:10217000631BF700835784FEC207C1838507C2072C
:10218000C1832314F4FE835764FEC207C187C207CC
:10219000C183FD17C207C183C207C1872313F4FEA1
:1021A000835784FE139707014183854763E8E7005F
:1021B000835764FEC207C187E3D907F8835764FEDB
:1021C000C207C18763C207028327C4FE850723268F
:1021D000F4FE130704EE0326C4FECD67938507249F
:1021E0003A85EFE080211DA8835784FEC207C18392
:1021F00081EF130704EE0326C4FECD679385C72441
:102200003A85EFE0801F19A8130704EE0326C4FEE9
:10221000CD67938507243A85EFE0201E231504FE41
:1022200021AA231404FE59A0930704EE3E85EFE093
:1022300020212A87835784FEC207C183BE86835725
:10224000A4FEC207C1833E86835744FEC207C187EE
:10225000B307F602B6976367F706835784FEC20793
:10226000C1833E878357A4FEC207C183BE868357BE
:1022700044FEC207C187B387F602BA97035784FEAC
:1022800042074183BA86130704FFBA97038707EF13
:10229000930704FFB6972388E7EA835784FEC207B3
:1022A000C1838507C207C1832314F4FE835784FECC
:1022B000C207C1833E87835744FEC207C187E345F7
:1022C000F7F611A00100835784FEC207C1831307EC
:1022D00004FFBA97238807EA938741E703A8C7005A
:1022E000938741E783C7770013970701418383579B
:1022F00024FE93960701C18693970601C183850743
:10230000C207C183C207C1872311F4FE9397060158
:10231000C183B307F702C207C183130704EA3A86F1
:10232000BE85014502988357A4FEC207C183850775
:10233000C207C1832315F4FE8357A4FEC207C183DD
:10234000BE84930704EE3E85EFE0800F2A87835713
:1023500044FEC207C187B357F7028507E3E3F4ECF5
:10236000130704EE032644D9CD679385C7253A8524
:10237000EFE0A008938741E703A8C700938741E7F0
:1023800083C77700139707014183835724FE9396F1
:102390000701C18693970601C1838507C207C183E0
:1023A000C207C1872311F4FE93970601C183B307C7
:1023B000F702C207C183130704EE3A86BE850145C2
:1023C0000298832704D96386071A231504FE21AADD
:1023D000231404FE59A0032504D9EFE060062A87E0
:1023E000835784FEC207C183BE868357A4FEC207FB
:1023F000C1833E86835744FEC207C187B307F602F6
:10240000B6976368F706835784FEC207C1833E8789
:102410008357A4FEC207C183BE86835744FEC2070A
:10242000C187B387F602BA973E87832704D9BA9744
:10243000035784FE42074183BA8603870700930748
:1024400004FFB6972388E7EA835784FEC207C18357
:102450008507C207C1832314F4FE835784FEC20795
:10246000C1833E87835744FEC207C187E345F7F621
:1024700011A00100835784FEC207C183130704FF24
:10248000BA97238807EA938741E703A8C700938791
:1024900041E783C77700139707014183835724FEE1
:1024A00093960701C18693970601C1838507C207EA
:1024B000C183C207C1872311F4FE93970601C1832C
:1024C000B307F702C207C183130704EA3A86BE8541
:1024D000014502988357A4FEC207C1838507C2073E
:1024E000C1832315F4FE8357A4FEC207C183BE84B3
:1024F000032504D9EFD0D0742A87835744FEC2073E
:10250000C187B357F7028507E3E4F4EC9DA0930776
:1025100004DA1306001081453E85EFD07FCE938705
:1025200041E79C470325C4D98297832704D999CFD3
:10253000130504DA032704D9832644D9032684D952
:10254000CD6793858726EFD0506B29A8130704DA4F
:10255000832644D9032684D9CD67938547283A85B5
:10256000EFD0B069938741E79847930704DA3E8537
:10257000029701008320C12603248126832441265B
:10258000130101278280797106D622D40018232EE8
:10259000A4FC232CB4FC232AC4FC232604FEA9A0FB
:1025A0000100D1679387C7849C47930500043E854B
:1025B000EF20106EAA87F5D7D1679387C7849C4711
:1025C000BE86832784FD13871700232CE4FC8387B2
:1025D0000700C207C183BE853685EF209068832738
:1025E000C4FE85072326F4FE0327C4FE832744FD8B
:1025F000E348F7FA832744FD3E85B25022544561F3
:102600008280011106CE22CC0010AA872324B4FEBA
:102610002322C4FEA307F4FE8347F4FEB1E383C77D
:10262000C18193F7F70F8DCF83C7118891C301A0A4
:1026300083C71188850713F7F70FA380E188EF00A0
:10264000F045EFF0BF9E8146032644FE832584FEBD
:10265000CD671385C729EFF05FA0EFF01F98E5B7AE
:102660000100F240624405618280011122CE001017
:102670002326A4FE8327C4FE239007008327C4FEDD
:102680007D572391E7008327C4FE7D572392E700FF
:102690008327C4FE7D572383E7008327C4FE7D572D
:1026A000A383E7008327C4FE23A407008327C4FE77
:1026B00023A607008327C4FE23A807000100724455
:1026C00005618280011122CE00102326A4FE8327FB
:1026D000C4FE03D70700239AE1E68327C4FE03D78D
:1026E0002700938741E72391E7008327C4FE03D7A0
:1026F0004700938741E72392E7008327C4FE03C77F
:102700006700938741E72383E7008327C4FE03C75D
:102710007700938741E7A383E7008327C4FE9847A8
:10272000938741E798C78327C4FED847938741E73B
:10273000D8C78327C4FE984B938741E798CB0547BA
:102740002380E1880100724405618280797106D698
:1027500022D400189307C4FD3E85013FB72700002F
:102760009387A7032322F4FE9307C4FD3E85993F78
:1027700089679386B70289671386A702F1679385F5
:1027800007200945EFE0DFDE0100B2502254456129
:102790008280011122CE00102326A4FE2324B4FE41
:1027A0008327C4FED847832784FE3E978327C4FE31
:1027B000D8C719A88327C4FED8478327C4FE9C4FD7
:1027C0001D8F8327C4FED8C78327C4FE984F832755
:1027D000C4FEDC47E3F0E7FE01007244056182803D
:1027E000011122CE00102326A4FE2324B4FE832749
:1027F000C4FE984B832784FE3E978327C4FE98CB64
:1028000019A88327C4FE984B8327C4FE9C4F1D8FB5
:102810008327C4FE98CB8327C4FE984F8327C4FE2A
:102820009C4BE3F0E7FE0100724405618280797100
:1028300006D622D40018232EA4FC8327C4FDB33768
:10284000F00093F7F70F3E8713064005CD67938599
:10285000872B3A857D33232604FE8327C4FD83C757
:102860000700858B93F7F70F89C789472326F4FE66
:102870007DA08327C4FD83C7070093E7170013F7E4
:10288000F70F8327C4FD2380E7008327C4FD23A619
:1028900007008327C4FD23A807008327C4FD984FA2
:1028A0008327C4FDD8CB8327C4FDDC43054763835E
:1028B000E70289C70947638CE702B9A08327C4FDF3
:1028C00098478327C4FD9C4F3E8681453A85EFD0CB
:1028D0003F931DA88327C4FD98478327C4FD9C4FC1
:1028E00086073E8681453A85EFD09F9131A88327A0
:1028F000C4FD98478327C4FD9C4F8A073E868145C7
:102900003A85EFD0FF8F01008327C4FD83C70700FE
:10291000F99B13F7F70F8327C4FD2380E700832774
:10292000C4FE3E85B250225445618280011106CE1C
:1029300022CC00102326A4FE8327C4FEB337F00068
:1029400093F7F70F3E871306C007CD679385872B54
:102950003A8545398327C4FE984F8327C4FEDC4B54
:10296000B307F7403E85F240624405618280797189
:1029700006D622D40018232EA4FC232CB4FC232A30
:10298000C4FC8327C4FDB337F00093F7F70F3E87ED
:102990001306C00BCD679385872B3A859D3123267F
:1029A00004FE232404FE832784FD89E78D47232624
:1029B000F4FE4DA48327C4FD83C70700898B93F7DA
:1029C000F70F89C785472326F4FE69A48327C4FD32
:1029D00083C7070093E7270013F7F70F8327C4FD8A
:1029E0002380E7008327C4FDDC4B032744FD63E518
:1029F000E7248327C4FD984F8327C4FDDC47B30732
:102A0000F7402324F4FE032744FD832784FE63FC60
:102A1000E7168327C4FDDC430547638DE70689C7B6
:102A200009476385E70EFDAA8327C4FD98478327DE
:102A3000C4FDDC47BA97032684FE832584FD3E85CA
:102A4000EFC0D06C832584FE0325C4FD9933832712
:102A5000C4FD98478327C4FDDC47B306F70003276E
:102A600084FD832784FEB305F700032744FD8327F5
:102A700084FEB307F7403E863685EFC030690327F2
:102A800044FD832784FEB307F740BE850325C4FDBC
:102A9000093349AA8327C4FD98478327C4FDDC472F
:102AA00086073E97832784FE86073E86832584FD1E
:102AB0003A85EFC0B065832584FE0325C4FDD13976
:102AC0008327C4FD98478327C4FDDC478607B306E8
:102AD000F700832784FE8607032784FDB305F700EC
:102AE000032744FD832784FEB307F74086073E860D
:102AF0003685EFC0B061032744FD832784FEB3070A
:102B0000F740BE850325C4FD693129AA8327C4FD8A
:102B100098478327C4FDDC478A073E97832784FEB6
:102B20008A073E86832584FD3A85EFC0305E832583
:102B300084FE0325C4FDB1398327C4FD984783274C
:102B4000C4FDDC478A07B306F700832784FE8A07A3
:102B5000032784FDB305F700032744FD832784FE84
:102B6000B307F7408A073E863685EFC0305A032701
:102B700044FD832784FEB307F740BE850325C4FDCB
:102B80000939010045A08327C4FDDC430547638B59
:102B9000E70289C70947638FE70469A08327C4FD5B
:102BA00098478327C4FDDC47BA97032644FD832555
:102BB00084FD3E85EFC09055832544FD0325C4FD6B
:102BC000C93E8DA08327C4FD98478327C4FDDC47F9
:102BD00086073E97832744FD86073E86832584FD2E
:102BE0003A85EFC0B052832544FD0325C4FDEFF0C4
:102BF0005FBA0DA88327C4FD98478327C4FDDC472F
:102C00008A073E97832744FD8A073E86832584FDF5
:102C10003A85EFC0B04F832544FD0325C4FDEFF096
:102C20005FB701008327C4FDD84B832744FD1D8F68
:102C30008327C4FDD8CB21A091472326F4FE832708
:102C4000C4FD83C70700F59B13F7F70F8327C4FD67
:102C50002380E7008327C4FE3E85B250225445619D
:102C60008280797106D622D40018232EA4FC232C4E
:102C7000B4FC232AC4FC2328D4FC8327C4FDB33727
:102C8000F00093F7F70F3E8713067016CD67938514
:102C9000872B3A85EFF0FF96832744FDB337F0008A
:102CA00093F7F70F3E8713068016CD679385872B22
:102CB0003A85EFF01F95232604FE832784FD89E7DC
:102CC0008D472326F4FE99AC8327C4FD83C70700F4
:102CD00093E7470013F7F70F8327C4FD2380E7002E
:102CE0000325C4FDA1312324A4FE832744FD9C4376
:102CF000032784FE637AF700832744FD032784FEBD
:102D000098C395472326F4FE8327C4FD984F832755
:102D1000C4FD9C4BB307F7402322F4FE832744FDF8
:102D20009C43032744FE6365F7088327C4FDDC4307
:102D300005476388E70289C709476387E704BDA29F
:102D40008327C4FD98478327C4FD9C4B3E97832768
:102D500044FD9C433E86BA85032584FDEFC0103BAD
:102D6000B1A28327C4FD98478327C4FD9C4B8607E7
:102D70003E97832744FD9C4386073E86BA850325FC
:102D800084FDEFC0B0381DA28327C4FD9847832778
:102D9000C4FD9C4B8A073E97832744FD9C438A07CA
:102DA0003E86BA85032584FDEFC050360100FDA89C
:102DB0008327C4FDDC430547638AE70489C70947C5
:102DC000638EE708E5A08327C4FD98478327C4FDE9
:102DD0009C4BBA97032644FEBE85032584FDEFC0B5
:102DE000F032032784FD832744FEB306F7008327D0
:102DF000C4FD8C47832744FD9843832744FEB307D3
:102E0000F7403E863685EFC070304DA08327C4FD65
:102E100098478327C4FD9C4B86073E97832744FE33
:102E200086073E86BA85032584FDEFC0302E8327B2
:102E300044FE8607032784FDB306F7008327C4FDFD
:102E40008C47832744FD9843832744FEB307F7400C
:102E500086073E863685EFC0702B89A88327C4FD80
:102E600098478327C4FD9C4B8A073E97832744FEDF
:102E70008A073E86BA85032584FDEFC03029832763
:102E800044FE8A07032784FDB306F7008327C4FDA9
:102E90008C47832744FD9843832744FEB307F740BC
:102EA0008A073E863685EFC070260100832704FD21
:102EB000B5E78327C4FD83C70700858B93F7F70F1A
:102EC00089C789472326F4FE91A88327C4FD83C7B9
:102ED000070093E7170013F7F70F8327C4FD23803C
:102EE000E700832744FD9C43BE850325C4FDEFF026
:102EF0003F8F8327C4FDD84B832744FD9C433E97D7
:102F00008327C4FDD8CB8327C4FD83C70700F99B63
:102F100013F7F70F8327C4FD2380E7008327C4FD41
:102F200083C70700918B13F7F70F8327C4FD238016
:102F3000E7008327C4FE3E85B2502254456182805B
:102F4000597186D6A2D48018232EA4F8272CA4F871
:102F5000AE87A30BF4F88327C4F9B337F00093F7D7
:102F6000F70F3E8713060013CD67938507323A8526
:102F7000EFF02FE9232604FE232404FE834774F98F
:102F8000A303F4FE8327C4F963860720872784F907
:102F9000D39707C02326F4FE872784F9530700F050
:102FA000D397E7A081CF8327C4F913871700232E77
:102FB000E4F81307D0022380E70099A0872784F95B
:102FC000530700F0D3A7E7A085CF8327C4F9138761
:102FD0001700232EE4F8130700032380E70083275C
:102FE000C4F913871700232EE4F81307E0022380A7
:102FF000E7008327C4F9130700032380E70061AAD1
:103000008327C4FED3F707D0072784F9D377F708BF
:10301000272CF4F811A8072784F9CD6787A7073A6A
:10302000D377F710272CF4F8834774FE1387F7FF44
:10303000A303E4FEEDF3872784F9D39707C0232485
:10304000F4FEA30304FE834774FE13871700A30353
:10305000E4FEBE860327C4FEA9473367F7029397B1
:103060002600930604FFB69723AAE7FC0327C4FEB5
:10307000A947B347F7022326F4FE8327C4FEE1F7EE
:10308000A1A0834774FEFD178A07130704FFBA97B0
:1030900083A747FD13D7F741B98F998F93F7F70FA0
:1030A0009387070393F6F70F8327C4F91387170055
:1030B000232EE4F81397860161872380E700834776
:1030C00074FEFD17A303F4FE834774FEDDFB834704
:1030D00074F9F1C3A30304FE8327C4F9138717000F
:1030E000232EE4F81307E0022380E700832784FE01
:1030F000B9E78327C4F9130700032380E70061A819
:10310000834774FE13871700A303E4FEBE860327DC
:1031100084FEA9473367F70293972600930604FFBE
:10312000B69723AEE7FA032784FEA947B347F70211
:103130002324F4FE834774F9FD17A30BF4F88347A7
:1031400074F9DDFFA1A0834774FEFD178A071307FA
:1031500004FFBA9783A7C7FB13D7F741B98F998F9D
:1031600093F7F70F9387070393F6F70F8327C4F9B5
:1031700013871700232EE4F81397860161872380B5
:10318000E700834774FEFD17A303F4FE834774FE34
:10319000DDFB11A001000100B6502654656182805C
:1031A000411122C6000899679387870873900780AA
:1031B0000100324441018280411122C60008996712
:1031C000739007800100324441018280011122CEB8
:1031D00000102326A4FE8327C4FEFD8B0547B316EB
:1031E000F70037E700E08327C4FE95839387070441
:1031F0008A07BA9794C30100724405618280011165
:1032000022CE00102326A4FEAE87A305F4FE37E7E6
:1032100000E08327C4FEBA970347B4FE2380E7404B
:103220000100724405618280011106CE22CC00109B
:103230002326A4FE0325C4FE513F0100F240624450
:1032400005618280011106CE22CC00102326A4FE47
:10325000AE87A305F4FE8347B4FEBE850325C4FEF6
:10326000793F0100F240624405618280011106CE7F
:1032700022CC00102326A4FE8327C4FE99C783A76F
:1032800041881387F7FF23A2E18883A7418891E350
:10329000013F0100F240624405618280411106C68F
:1032A00022C4000883A7418891E3393783A7418866
:1032B0001387170023A2E18883A741883E85B24087
:1032C000224441018280411106C622C40008014502
:1032D000713F0100B2402244410182801D71A2CEA3
:1032E00082E686E48AE28EE012FE16FC1AFA1EF8E6
:1032F0002AF62EF432F236F03AEE3EEC42EA46E896
:1033000072E676E47AE27EE0801093055052B74789
:10331000014013850780EF20001CAA8789CB930505
:103320005052B747014013850780EF20E02A010083
:1033300076443660A660166186617272E2725273DC
:10334000C2733275A275127682767267E26752682E
:10335000C268326EA26E126F826F256173002030D8
:103360001D71A2CE82E686E48AE28EE012FE16FC91
:103370001AFA1EF82AF62EF432F236F03AEE3EEC45
:1033800042EA46E872E676E47AE27EE0801093054F
:103390005052B747004013850740EF20C013AA875B
:1033A00089CB93055052B747004013850740EF2063
:1033B000A022010076443660A660166186617272B2
:1033C000E2725273C2733275A27512768276726798
:1033D000E2675268C268326EA26E126F826F256118
:1033E000730020301D71A2CE82E686E48AE28EE070
:1033F00012FE16FC1AFA1EF82AF62EF432F236F0F5
:103400003AEE3EEC42EA46E872E676E47AE27EE0A4
:10341000801093055052B757004013850780EF2066
:10342000800BAA8789CB93055052B757004013856C
:103430000780EF20601A010076443660A6601661AE
:1034400086617272E2725273C2733275A27512761D
:1034500082767267E2675268C268326EA26E126F3D
:10346000826F2561730020301D71A2CE82E686E452
:103470008AE28EE012FE16FC1AFA1EF82AF62EF4E4
:1034800032F236F03AEE3EEC42EA46E872E676E494
:103490007AE27EE0801093055052B75700401385C2
:1034A00007C0EF204003AA8789CB93055052B75736
:1034B0000040138507C0EF202012010076443660DB
:1034C000A660166186617272E2725273C2733275BF
:1034D000A275127682767267E2675268C268326EAF
:1034E000A26E126F826F2561730020301D71A2CE13
:1034F00082E686E48AE28EE012FE16FC1AFA1EF8D4
:103500002AF62EF432F236F03AEE3EEC42EA46E883
:1035100072E676E47AE27EE08010930550523755E9
:103520000040EF10507BAA8791CB83A7C180829780
:103530009305505237550040EF20000A01007644B1
:103540003660A660166186617272E2725273C2734F
:103550003275A275127682767267E2675268C26827
:10356000326EA26E126F826F2561730020301D7162
:10357000A2CE82E686E48AE28EE012FE16FC1AFAF9
:103580001EF82AF62EF432F236F03AEE3EEC42EA1B
:1035900046E872E676E47AE27EE0801093055052C7
:1035A000B727004013850780EF10F072AA8789CBF8
:1035B00093055052B727004013850780EF20C001C4
:1035C000010076443660A660166186617272E2720E
:1035D0005273C2733275A275127682767267E26791
:1035E0005268C268326EA26E126F826F25617300DC
:1035F00020301D71A2CE82E686E48AE28EE012FEC1
:1036000016FC1AFA1EF82AF62EF432F236F03AEECA
:103610003EEC42EA46E872E676E47AE27EE080102A
:1036200093055052B7270040138507C0EF10B06ACA
:10363000AA8781CF83A74181829793055052B727EC
:103640000040138507C0EF103079010076443660E2
:10365000A660166186617272E2725273C27332752D
:10366000A275127682767267E2675268C268326E1D
:10367000A26E126F826F2561730020301D71A2CE81
:1036800082E686E48AE28EE012FE16FC1AFA1EF842
:103690002AF62EF432F236F03AEE3EEC42EA46E8F2
:1036A00072E676E47AE27EE0801093055052372588
:1036B0000040EF105062AA8789CBEFE00FD8930546
:1036C000505237250040EF103071010076443660CB
:1036D000A660166186617272E2725273C2733275AD
:1036E000A275127682767267E2675268C268326E9D
:1036F000A26E126F826F2561730020301D71A2CE01
:1037000082E686E48AE28EE012FE16FC1AFA1EF8C1
:103710002AF62EF432F236F03AEE3EEC42EA46E871
:1037200072E676E47AE27EE08010B707055083C740
:10373000070193F7F70F918B8DC383A701818297C0
:10374000B707055083C7070113F7F70FB7070550F1
:103750006D9B1377F70F2388E700010076443660EE
:10376000A660166186617272E2725273C27332751C
:10377000A275127682767267E2675268C268326E0C
:10378000A26E126F826F2561730020301D71A2CE70
:1037900082E686E48AE28EE012FE16FC1AFA1EF831
:1037A0002AF62EF432F236F03AEE3EEC42EA46E8E1
:1037B00072E676E47AE27EE080100545EF00F02BB9
:1037C0002A8785476315F7000545EF007030010033
:1037D00076443660A660166186617272E272527338
:1037E000C2733275A275127682767267E26752688A
:1037F000C268326EA26E126F826F25617300203034
:103800001D71A2CE82E686E48AE28EE012FE16FCEC
:103810001AFA1EF82AF62EF432F236F03AEE3EECA0
:1038200042EA46E872E676E47AE27EE080100945F4
:10383000EF00B0242A8785476315F7000945EF009C
:103840003029010076443660A66016618661727286
:10385000E2725273C2733275A27512768276726703
:10386000E2675268C268326EA26E126F826F256183
:10387000730020301D71A2CE82E686E48AE28EE0DB
:1038800012FE16FC1AFA1EF82AF62EF432F236F060
:103890003AEE3EEC42EA46E872E676E47AE27EE010
:1038A00080101145EF00701D2A8785476315F700CA
:1038B0001145EF00F021010076443660A6601661E4
:1038C00086617272E2725273C2733275A275127699
:1038D00082767267E2675268C268326EA26E126FB9
:1038E000826F2561730020301D71A2CE82E686E4CE
:1038F0008AE28EE012FE16FC1AFA1EF82AF62EF460
:1039000032F236F03AEE3EEC42EA46E872E676E40F
:103910007AE27EE080102145EF0030162A87854745
:103920006315F7002145EF00B01A010076443660B8
:10393000A660166186617272E2725273C27332754A
:10394000A275127682767267E2675268C268326E3A
:10395000A26E126F826F2561730020301D71A2CE9E
:1039600082E686E48AE28EE012FE16FC1AFA1EF85F
:103970002AF62EF432F236F03AEE3EEC42EA46E80F
:1039800072E676E47AE27EE080104145EF00F00EC8
:103990002A8785476315F7004145EF007013010042
:1039A00076443660A660166186617272E272527366
:1039B000C2733275A275127682767267E2675268B8
:1039C000C268326EA26E126F826F25617300203062
:1039D0001D71A2CE82E686E48AE28EE012FE16FC1B
:1039E0001AFA1EF82AF62EF432F236F03AEE3EECCF
:1039F00042EA46E872E676E47AE27EE08010130559
:103A00000002EF0090072A8785476316F700130529
:103A10000002EF00F00B13050004EF0010062A87E8
:103A200085476316F70013050004EF00700A1305BD
:103A30000008EF0090042A8785476316F7001305F6
:103A40000008EF00F00813050010EF0010032A87AC
:103A500085476316F70013050010EF007007130584
:103A60000020EF0090012A8785476316F7001305B1
:103A70000020EF00F005010076443660A660166174
:103A800086617272E2725273C2733275A2751276D7
:103A900082767267E2675268C268326EA26E126FF7
:103AA000826F2561730020301D71A2CE82E686E40C
:103AB0008AE28EE012FE16FC1AFA1EF82AF62EF49E
:103AC00032F236F03AEE3EEC42EA46E872E676E44E
:103AD0007AE27EE0801013050040EF00007A2A872A
:103AE00085476316F70013050040EF00607E856789
:103AF00013850780EF0060782A8785476317F700F2
:103B0000856713850780EF00A07C0565EF00E076F0
:103B10002A8785476315F7000565EF00607B096517
:103B2000EF00A0752A8785476315F7000965EF0048
:103B3000207A1165EF0060742A8785476317F700C4
:103B4000EFE08F8C1165EF00A0782165EF00E07247
:103B50002A8785476317F700EFD0FFFB2165EF0049
:103B60002077010076443660A66016618661727225
:103B7000E2725273C2733275A275127682767267E0
:103B8000E2675268C268326EA26E126F826F256160
:103B9000730020301D71A2CE82E686E48AE28EE0B8
:103BA00012FE16FC1AFA1EF82AF62EF432F236F03D
:103BB0003AEE3EEC42EA46E872E676E47AE27EE0ED
:103BC00080108545B7370140138507C0EF10405678
:103BD000AA8791CF8545B7370140138507C0EF10FD
:103BE000205CEF20103AEF209010EF70403201007F
:103BF00076443660A660166186617272E272527314
:103C0000C2733275A275127682767267E267526865
:103C1000C268326EA26E126F826F2561730020300F
:103C20001D71A2CE82E686E48AE28EE012FE16FCC8
:103C30001AFA1EF82AF62EF432F236F03AEE3EEC7C
:103C400042EA46E872E676E47AE27EE08010854554
:103C500037050040EF10C04DAA8791C7854537054D
:103C60000040EF10E053010076443660A660166114
:103C700086617272E2725273C2733275A2751276E5
:103C800082767267E2675268C268326EA26E126F05
:103C9000826F2561730020301D71A2CE82E686E41A
:103CA0008AE28EE012FE16FC1AFA1EF82AF62EF4AC
:103CB00032F236F03AEE3EEC42EA46E872E676E45C
:103CC0007AE27EE080108545B70700401385074003
:103CD000EF100046AA8781CB8545B70700401385C2
:103CE0000740EF10E04B010076443660A660166195
:103CF00086617272E2725273C2733275A275127665
:103D000082767267E2675268C268326EA26E126F84
:103D1000826F2561730020301D71A2CE82E686E499
:103D20008AE28EE012FE16FC1AFA1EF82AF62EF42B
:103D300032F236F03AEE3EEC42EA46E872E676E4DB
:103D40007AE27EE080108545B71700401385078032
:103D5000EF10003EAA8781CB8545B7170040138539
:103D60000780EF10E043010076443660A6601661DC
:103D700086617272E2725273C2733275A2751276E4
:103D800082767267E2675268C268326EA26E126F04
:103D9000826F2561730020301D71A2CE82E686E419
:103DA0008AE28EE012FE16FC1AFA1EF82AF62EF4AB
:103DB00032F236F03AEE3EEC42EA46E872E676E45B
:103DC0007AE27EE080108545B7170040138507C072
:103DD000EF100036AA8781CB8545B71700401385C1
:103DE00007C0EF10E03B010076443660A660166124
:103DF00086617272E2725273C2733275A275127664
:103E000082767267E2675268C268326EA26E126F83
:103E1000826F2561730020301D71A2CE82E686E498
:103E20008AE28EE012FE16FC1AFA1EF82AF62EF42A
:103E300032F236F03AEE3EEC42EA46E872E676E4DA
:103E40007AE27EE08010854537150040EF10402E65
:103E5000AA8791C7854537150040EF1060340100EF
:103E600076443660A660166186617272E2725273A1
:103E7000C2733275A275127682767267E2675268F3
:103E8000C268326EA26E126F826F2561730020309D
:103E90001D71A2CE82E686E48AE28EE012FE16FC56
:103EA0001AFA1EF82AF62EF432F236F03AEE3EEC0A
:103EB00042EA46E872E676E47AE27EE080108545E2
:103EC000B717004013850740EF108026AA8781CBE3
:103ED0008545B717004013850740EF10602C01009F
:103EE00076443660A660166186617272E272527321
:103EF000C2733275A275127682767267E267526873
:103F0000C268326EA26E126F826F2561730020301C
:103F10001D71A2CE82E686E48AE28EE012FE16FCD5
:103F20001AFA1EF82AF62EF432F236F03AEE3EEC89
:103F300042EA46E872E676E47AE27EE08010854561
:103F4000B737014013850740EF10801EAA8781CB49
:103F50008545B737014013850740EF106024010005
:103F600076443660A660166186617272E2725273A0
:103F7000C2733275A275127682767267E2675268F2
:103F8000C268326EA26E126F826F2561730020309C
:103F90001D71A2CE82E686E48AE28EE012FE16FC55
:103FA0001AFA1EF82AF62EF432F236F03AEE3EEC09
:103FB00042EA46E872E676E47AE27EE080108545E1
:103FC000B7570140138507C0EF108016AA8781CB31
:103FD0008545B7570140138507C0EF10601C0100ED
:103FE00076443660A660166186617272E272527320
:103FF000C2733275A275127682767267E267526872
:10400000C268326EA26E126F826F2561730020301B
:104010001D71A2CE82E686E48AE28EE012FE16FCD4
:104020001AFA1EF82AF62EF432F236F03AEE3EEC88
:1040300042EA46E872E676E47AE27EE08010854560
:1040400037550140EF10C00EAA8791C785453755F7
:104050000140EF10E014010076443660A66016615E
:1040600086617272E2725273C2733275A2751276F1
:1040700082767267E2675268C268326EA26E126F11
:10408000826F256173002030411122C600080100B3
:104090003244410173002030411122C6000801A0C2
:1040A000411106C622C40008B7479508138507408A
:1040B000EFD01FEFEFE08FE90545EF60F050EF70B4
:1040C000005F85450545EFD06F9F03A7818193076A
:1040D000803E3357F702BA878A07BA978A07BE85A8
:1040E0000145EFC00FF303A781818967938707F428
:1040F000B357F7029305401F3E85EFC0EF9AEF508C
:10410000D00F0545EFC03FE60545EFC07FF20545FE
:10411000EFD08F8E5145EF60906903A78181896749
:10412000938707F4B357F702D1453E85EFC0CF9789
:10413000C9BF01A001A001A001A001A001A001A090
:1041400001A001A001A001A001A001A001A001A067
:1041500001A001A001A001A001A001A001A001A057
:1041600001A001A001A001A001A001A001A001A047
:1041700001A001A001A001A001A001A001A001A037
:1041800001A001A001A001A001A001A001A001A027
:1041900001A001A001A001A001A001A001A001A017
:1041A00001A001A001A001A001A001A001A001A007
:1041B00001A001A001A001A001A001A001A001A0F7
:1041C00001A001A001A001A001A001A001A001A0E7
:1041D00001A001A001A001A001A001A001A001A0D7
:1041E00001A001A001A001A001A001A001A001A0C7
:1041F00097D1FF1F9381818417C10020130181E0B3
:10420000172501001305C56497C5FF1F938585DF3A
:104210001386818663FAC5008322050023A055001A
:1042200011059105E3EAC5FE1385818697350020C7
:10423000938585036377B500232005001105E36DA1
:10424000B5FEFD42739002BCFD4273904280B7629E
:1042500000009382820873A0023097C2FFFF93820E
:10426000E2DD93E2320073905230970200009382B5
:1042700062E37390123473002030797122D60018F3
:10428000232EA4FC232604FE232404FEB7070140AA
:10429000938707409C430327C4FDF98F2324F4FE32
:1042A000B707014093870740D84B8327C4FDF98F98
:1042B00081CB832784FE89C785472326F4FE19A076
:1042C000232604FE8327C4FE3E8532544561828046
:1042D000011122CE00102326A4FEB70701409387C8
:1042E00007400327C4FED8CB0100724405618280D9
:1042F000411122C60008B727024037076745130758
:104300003712D8C3B72702403797EFCD1307B79AB4
:10431000D8C30100324441018280411122C6000805
:10432000B7270240984BB72702401367070898CB7E
:104330000100324441018280797106D622D40018EE
:10434000232EA4FC91472326F4FE37050B005122AF
:104350002326A4FE0327C4FE91476313F704B7275F
:104360000240984BB72702401367270098CBB72726
:1043700002400327C4FDD8CBB7270240984BB7278C
:1043800002401367070498CB37050B0099222326B8
:10439000A4FEB7270240984BB7270240759B98CBE5
:1043A0008327C4FE3E85B2502254456182807971D4
:1043B00006D622D40018232EA4FC232CB4FC91474B
:1043C0002326F4FE232404FE156521222326A4FEC1
:1043D0000327C4FE9147631CF706B7270240984B9A
:1043E000B72702401367170098CB8327C4FD032724
:1043F00084FD420741832390E7001565D9282326D1
:10440000A4FE0327C4FE9147631CF7028327C4FD63
:1044100089072324F4FE832784FDC183032784FEB8
:10442000C207C1832310F700156565202326A4FE6B
:10443000B7270240984BB7270240799B98CB01A839
:10444000B7270240984BB7270240799B98CB832728
:10445000C4FE3E85B250225445618280011122CEB5
:1044600000102326A4FEB72702400327C4FED8C7A6
:104470000100724405618280011122CE0010914733
:104480002326F4FEB7270240DC4713F717008547C1
:104490006316F70085472326F4FE35A0B7270240B0
:1044A000DC47918B89C789472326F4FE29A8B727C3
:1044B0000240DC47C18B89C78D472326F4FE21A02B
:1044C00091472326F4FE8327C4FE3E85724405618E
:1044D0008280797106D622D40018232EA4FC91473D
:1044E0002326F4FE513F2326A4FE09A87137232674
:1044F000A4FE8327C4FDFD17232EF4FC0327C4FE6E
:1045000085476315F7008327C4FDEDF38327C4FDBA
:1045100081E795472326F4FE8327C4FE3E85B250EB
:10452000225445618280397122DE80002326A4FC5A
:104530002324B4FC232604FE232004FE232404FEAB
:10454000232E04FC232204FE232C04FC832784FC5A
:104550009C47BD8B2326F4FE832784FC9C47C18B9C
:1045600089CB832784FCDC430327C4FED98F232611
:10457000F4FE832784FC83D7070093F7F70FF1CF6E
:104580008327C4FC9C432322F4FE232404FE65A855
:10459000832784FE0547B317F700232EF4FC8327F7
:1045A00084FC83D707003E878327C4FDF98F23202F
:1045B000F4FE032704FE8327C4FD6311F708832755
:1045C00084FE8A07232EF4FC8327C4FD3D47B317DE
:1045D000F700232CF4FC832784FD93C7F7FF032700
:1045E00044FEF98F2322F4FE8327C4FD0327C4FE73
:1045F000B317F700032744FED98F2322F4FE832745
:1046000084FC984793078002631BF700832784FE8E
:1046100005473317F7008327C4FCD8CB05A08327B1
:1046200084FC984793078004631AF700832784FE6D
:1046300005473317F7008327C4FC98CB832784FEF4
:1046400085072324F4FE032784FE9D47E3F2E7F465
:104650008327C4FC032744FE98C3832784FC03D725
:1046600007009307F00F63F1E70E8327C4FCDC43D8
:104670002322F4FE232404FE75A8832784FEA107C9
:104680000547B317F700232EF4FC832784FC83D758
:1046900007003E878327C4FDF98F2320F4FE0327FC
:1046A00004FE8327C4FD6312F708832784FE8A076C
:1046B000232EF4FC8327C4FD3D47B317F700232CBA
:1046C000F4FC832784FD93C7F7FF032744FEF98F8B
:1046D0002322F4FE8327C4FD0327C4FEB317F7008B
:1046E000032744FED98F2322F4FE832784FC9847B6
:1046F00093078002631BF700832784FEA107054709
:104700003317F7008327C4FCD8CB832784FC984752
:1047100093078004631BF700832784FEA1070547E6
:104720003317F7008327C4FC98CB832784FE8507C3
:104730002324F4FE032784FE9D47E3F0E7F4832758
:10474000C4FC032744FED8C3010072542161828057
:10475000011122CE00102326A4FEAE872322C4FE20
:104760002315F4FE832744FE99C70357A4FE83272D
:10477000C4FE98CB31A00357A4FE8327C4FED8CB38
:104780000100724405618280797122D60018232EBF
:10479000A4FC232CB4FC232404FE232204FE2326A1
:1047A00004FE232004FE8327C4FD63D80700B70757
:1047B0000140DC4F2326F4FE31A0B7070140DC4363
:1047C0002326F4FE8327C4FDC183BD8B2320F4FE82
:1047D0000327C4FDC167FD17F98F2324F4FE832747
:1047E000C4FD63D407080327C4FDB70730007D8FDD
:1047F000B70730006314F702832704FEC1070D4793
:10480000B317F7002322F4FE832744FE93C7F7FF74
:104810000327C4FEF98F2326F4FEC5A80327C4FD91
:10482000B7071000F98F95C3832704FE0D47B31710
:10483000F7002322F4FE832744FE93C7F7FF0327E4
:10484000C4FEF98F2326F4FEC9A08327C4FDD583B7
:104850009207032784FEB317F70093C7F7FF0327D8
:10486000C4FEF98F2326F4FE4DA00327C4FDB7072D
:1048700030007D8FB70730006315F7020327C4FEB1
:10488000B70700F1FD17F98F2326F4FEB7070140A3
:10489000D443B7070140370700F17D17758FD8C3A0
:1048A000ADA00327C4FDB7071000F98F8DCB832778
:1048B00004FE0D47B317F7002322F4FE832744FEBE
:1048C00093C7F7FF0327C4FEF98F2326F4FE0327BF
:1048D000C4FEB707000FD98F2326F4FE3DA083271F
:1048E000C4FDD5839207032784FEB317F70093C74F
:1048F000F7FF0327C4FEF98F2326F4FE0327C4FE27
:10490000B707000FD98F2326F4FE832784FD91CFAC
:104910008327C4FDD5839207032784FEB317F700CE
:104920000327C4FED98F2326F4FE8327C4FD63D852
:104930000700B70701400327C4FED8CF31A0B7074F
:1049400001400327C4FED8C3010032544561828070
:10495000397122DE80002326A4FC232204FE2326B4
:1049600004FE232004FE232E04FC232404FEB71798
:104970000240DC43B18B2322F4FE032744FE91471F
:104980006303F702032744FEA1476306F702832768
:1049900044FE639907148327C4FC37177A00130772
:1049A000072098C389AA8327C4FC37177A00130706
:1049B000072098C389A2B7170240D843B7073C0025
:1049C000F98F2326F4FEB7170240D843C167F98F49
:1049D0002320F4FE8327C4FEC98389072326F4FE1F
:1049E000B7F7FF1F9387C77098439167F98F91EBD3
:1049F0000327C4FEC5476319F704C9472326F4FEFD
:104A0000A1A00327C4FE89476315F700C9472326E1
:104A1000F4FE0327C4FEBD476318F700B5472326FD
:104A2000F4FE85472324F4FE0327C4FEC147631523
:104A3000F700BD472326F4FE0327C4FEC5476315D0
:104A4000F700C1472326F4FE832704FEA1E3B747FE
:104A50000240938707809C43C18B89CF0327C4FE04
:104A6000B7177A00938707203307F7028327C4FC20
:104A700098C399A80327C4FEB7173D0093870790F2
:104A80003307F7028327C4FC98C33DA8B717024039
:104A9000D843B7070200F98F89CF0327C4FEB717A1
:104AA0003D00938707903307F7028327C4FC98C320
:104AB00021A80327C4FEB7177A009387072033077E
:104AC000F7028327C4FC98C3032784FE854763133A
:104AD000F7028327C4FC9C4313D717008327C4FC29
:104AE00098C309A88327C4FC37177A001307072047
:104AF00098C311A00100B7170240DC4393F7070FDA
:104B00002322F4FE832744FE91832322F4FEB70779
:104B1000002013874701832744FEBA9783C7070005
:104B200093F7F70F232EF4FC8327C4FC98438327C5
:104B3000C4FD3357F7008327C4FCD8C3B71702401E
:104B4000DC4393F707702322F4FE832744FEA183FE
:104B50002322F4FEB707002013874701832744FE72
:104B6000BA9783C7070093F7F70F232EF4FC832728
:104B7000C4FCD8438327C4FD3357F7008327C4FC04
:104B800098C7B7170240D843916793870780F98F7A
:104B90002322F4FE832744FEAD832322F4FEB707CD
:104BA000002013874701832744FEBA9783C7070075
:104BB00093F7F70F232EF4FC8327C4FCD8438327F5
:104BC000C4FD3357F7008327C4FCD8C7B71702408A
:104BD000D843B167F98F2322F4FE832744FEB983BB
:104BE0002322F4FE13870182832744FEBA9783C7EA
:104BF000070093F7F70F232EF4FC8327C4FCD84754
:104C00008327C4FD3357F7028327C4FC98CB0100E8
:104C1000725421618280011122CE00102326A4FE4D
:104C20002324B4FE832784FE99CBB7170240944F08
:104C3000B71702400327C4FE558F98CF21A8B71796
:104C40000240944F8327C4FE13C7F7FFB7170240F3
:104C5000758F98CF0100724405618280011122CEC8
:104C600000102326A4FE2324B4FE832784FE99CBC0
:104C7000B7170240D44FB71702400327C4FE558F21
:104C8000D8CF21A8B7170240D44F8327C4FE13C73B
:104C9000F7FFB7170240758FD8CF01007244056146
:104CA0008280011122CE00102326A4FE2324B4FE0C
:104CB000832784FE99CBB7170240D447B717024029
:104CC0000327C4FE558FD8C721A8B7170240D44781
:104CD0008327C4FE13C7F7FFB7170240758FD8C7E5
:104CE0000100724405618280011122CE001023264A
:104CF000A4FE2324B4FE832784FE99CBB717024079
:104D0000944BB71702400327C4FE558F98CB21A8B8
:104D1000B7170240944B8327C4FE13C7F7FFB7179A
:104D20000240758F98CB01007244056182800111A9
:104D300006CE22CC00102326A4FE0327C4FEB737DC
:104D400001406319F70085450565A13F814505656B
:104D5000893F35A80327C4FEB747004093870780E3
:104D60006319F70085451165413781451165AD3FF0
:104D700039A80327C4FEB7470040938707C06318CC
:104D8000F700854521658D3781452165B13F0100DB
:104D9000F240624405618280797122D60018232E88
:104DA000A4FC232CB4FC231704FE8327C4FD83D763
:104DB00007002317F4FE0357E4FE8D67938707046B
:104DC000F98F2317F4FE832784FD03D70700832779
:104DD00084FD83D72700D98F139707014183832749
:104DE00084FD83D74700D98F139707014183832719
:104DF00084FD83D76700D98F1397070141838327E9
:104E000084FD83D78700D98F1397070141838327B8
:104E100084FD83D7A700D98F139707014183832788
:104E200084FD83D7C700D98F139707014183832758
:104E300084FD83D7E700D98F1397070141838357F8
:104E4000E4FED98F2317F4FE8327C4FD0357E4FE45
:104E50002390E7008327C4FD83D7C7011397070179
:104E60004183FD779387F77FF98F1397070141837C
:104E70008327C4FD239EE700832784FD03D7070112
:104E80008327C4FD2398E7000100325445618280E6
:104E9000011122CE00102326A4FE2324B4FE832772
:104EA00084FE8DC38327C4FE83D70700C207C18356
:104EB00093E707041397070141838327C4FE2390D8
:104EC000E70005A08327C4FE83D70700C207C1837C
:104ED00093F7F7FB1397070141838327C4FE2390C1
:104EE000E7000100724405618280797122D60018C2
:104EF000232EA4FC232CB4FC231704FE8327C4FD1B
:104F000083D707002317F4FE0327C4FDB7370140FA
:104F1000938707C06306F7060327C4FDB707004061
:104F20006300F7060327C4FDB707004093870740D7
:104F30006308F7040327C4FDB71700409387078071
:104F40006300F7040327C4FDB7170040938707C029
:104F50006308F7020327C4FDB73701409387074072
:104F60006300F7020327C4FDB7570140938707C0CA
:104F70006308F7000327C4FDB75701406311F70228
:104F80008357E4FE93F7F7F82317F4FE832784FD95
:104F900003D727008357E4FED98F2317F4FE032796
:104FA000C4FDB71700406309F7020327C4FDB71714
:104FB0000040938707406301F7028357E4FE93F7AD
:104FC000F7CF2317F4FE832784FD03D767008357A9
:104FD000E4FED98F2317F4FE8327C4FD0357E4FEB4
:104FE0002390E700832784FD03D747008327C4FD70
:104FF0002396E702832784FD03D707008327C4FD98
:105000002394E7020327C4FDB7370140938707C005
:105010006308F7020327C4FDB737014093870740B1
:105020006300F7020327C4FDB7570140938707C009
:105030006308F7000327C4FDB7570140631DF7005D
:10504000832784FD83C78700139707014183832744
:10505000C4FD2398E7028327C4FD0547239AE70090
:105060000100325445618280011122CE00102326B6
:10507000A4FE2324B4FE832784FE8DC38327C4FEAD
:1050800083D70700C207C18393E71700139707016F
:1050900041838327C4FE2390E70039A88327C4FEF9
:1050A00083D70700C207C183F99B13970701418388
:1050B0008327C4FE2390E7000100724405618280CB
:1050C000011122CE00102326A4FEAE872322C4FEA7
:1050D0002315F4FE832744FE9DC38327C4FE83D794
:1050E000C7001397070141838357A4FED98F1397F5
:1050F000070141838327C4FE2396E70035A0832759
:10510000C4FE83D7C7001397070141838357A4FECA
:1051100093C7F7FFC207C183F98F13970701418334
:105120008327C4FE2396E700010072440561828054
:10513000797122D60018232EA4FCAE87231DF4FC1F
:10514000232604FE231504FE231404FE8327C4FD36
:1051500083D707011397070141838357A4FDF98F74
:105160002315F4FE8327C4FD83D7C70013970701D7
:1051700041838357A4FDF98F2314F4FE8357A4FEC3
:1051800081CB835784FE89C785472326F4FE19A067
:10519000232604FE8327C4FE3E8532544561828067
:1051A000011122CE00102326A4FEAE872315F4FEA3
:1051B0008357A4FE93C7F7FF139707014183832703
:1051C000C4FE2398E70001007244056182805D718E
:1051D00086C6A2C48008232EA4FA232CB4FA232660
:1051E00004FE232404FE232204FE232004FE232E97
:1051F00004FC8327C4FB232EF4FC8327C4FB83D742
:105200000701C207C1832326F4FE0327C4FEB56746
:10521000FD17F98F2326F4FE832784FB83D76700CD
:105220003E878327C4FED98F2326F4FE8327C4FE3E
:105230001397070141838327C4FB2398E700832743
:10524000C4FB83D7C700C207C1832326F4FE03270C
:10525000C4FEBD679387379FF98F2326F4FE83270B
:1052600084FB03D74700832784FB83D78700D98F2C
:10527000139707014183832784FB83D7A700D98F26
:10528000C207C1833E878327C4FED98F2326F4FE3D
:105290008327C4FE1397070141838327C4FB23960A
:1052A000E7008327C4FB83D74701C207C1832326B6
:1052B000F4FE0327C4FEC1679387F7CFF98F232637
:1052C000F4FE832784FB83D7C7003E878327C4FE71
:1052D000D98F2326F4FE8327C4FE13970701418349
:1052E0008327C4FB239AE700930784FC3E85EFF0F5
:1052F0002FE60327C4FDB747014093870780631754
:10530000F700832744FD2324F4FE29A0832704FD0E
:105310002324F4FE8327C4FB83D7C700C207C183BD
:10532000C207C18763D20702032784FEBA878607B4
:10533000BA978E073E97832784FB9C438607B35713
:10534000F7022322F4FE05A0032784FEBA8786070E
:10535000BA978E073E97832784FB9C438A07B357EF
:10536000F7022322F4FE032744FE93074006B357B7
:10537000F70292072326F4FE8327C4FE13D74700C3
:1053800093074006B307F702032744FEB307F7402D
:105390002320F4FE8327C4FB83D7C700C207C18341
:1053A000C207C18763D20702832704FE8E071387D3
:1053B000270393074006B357F7029D8B0327C4FECC
:1053C000D98F2326F4FE05A0832704FE92071387B6
:1053D000270393074006B357F702BD8B0327C4FE8C
:1053E000D98F2326F4FE8327C4FE13970701418338
:1053F0008327C4FB2394E7000100B6402644616183
:105400008280011122CE00102326A4FE2324B4FEA4
:10541000832784FE95C38327C4FE83D7C7001397D1
:10542000070141838967D98F139707014183832738
:10543000C4FE2396E70015A08327C4FE83D7C700C8
:10544000139707014183F977FD17F98F1397070128
:1054500041838327C4FE2396E7000100724405615F
:105460008280011122CE00102326A4FEAE872315D0
:10547000F4FE8357A4FE93F7F71F139707014183A8
:105480008327C4FE2392E7000100724405618280F5
:10549000797122D60018232EA4FCAE87231DF4FCBC
:1054A000232604FE8327C4FD83D707001397070133
:1054B00041838357A4FDF98FC207C18389C78547FC
:1054C0002326F4FE19A0232604FE8327C4FE3E856E
:1054D000325445618280797122D60018232EA4FCB3
:1054E000AE87231DF4FC232204FE232604FE232082
:1054F00004FE232404FE8357A4FD93F7F70F95833E
:1055000093F7F70F2320F4FE8357A4FDFD8B23268A
:10551000F4FE8327C4FE0547B317F7002326F4FEE5
:10552000032704FE8547631FF7008327C4FD83D745
:10553000C700C207C1833E878327C4FEF98F232695
:10554000F4FE3DA8032704FE8947631FF700832765
:10555000C4FD83D70701C207C1833E878327C4FEEA
:10556000F98F2326F4FE29A88327C4FD83D747019A
:10557000C207C1833E878327C4FEF98F2326F4FE2A
:105580008357A4FDA183C207C1832322F4FE83278E
:1055900044FE0547B317F7002322F4FE8327C4FD1A
:1055A00083D70700C207C1833E87832744FEF98F54
:1055B0002322F4FE8327C4FE81CB832744FE89C7C0
:1055C00085472324F4FE19A0232404FE832784FEA8
:1055D0003E85325445618280797122D60018232E8F
:1055E000A4FCAE87231DF4FC231704FE231604FE3F
:1055F0008357A4FDA1832317F4FE8357E4FE0547D8
:10560000B317F7002316F4FE8357C4FE93C7F7FFC2
:105610001397070141838327C4FD2390E70001000E
:10562000325445618280011122CE0010AA87A3075F
:10563000F4FEB70700500347F4FE42074183239A64
:10564000E702B707005083C7670313F7F70FB707E1
:105650000050719B1377F70F238BE7020100724410
:1056600005618280011122CE0010AA87A307F4FEF3
:10567000B70700500347F4FE42074183239CE7022B
:10568000B707005083C7A70313F7F70FB7070050FA
:10569000719B1377F70F238DE702010072440561B8
:1056A0008280797106D622D40018AA87A30FF4FC51
:1056B000A30704FE15A803A741898347F4FEBA9700
:1056C00003C7070083A641898347F4FE9387070435
:1056D000B6971347F7FF1377F70F2380E700834749
:1056E000F4FE8507A307F4FE0347F4FE8347F4FDA9
:1056F000E363F7FC8347F4FD3E8535370100B25084
:10570000225445618280797106D622D40018AA8776
:10571000A30FF4FCA30704FE15A803A78189834700
:10572000F4FEBA9703C7070083A681898347F4FE76
:1057300093870704B6971347F7FF1377F70F238074
:10574000E7008347F4FE8507A307F4FE0347F4FE52
:105750008347F4FDE363F7FC8347F4FD3E85193787
:105760000100B2502254456182805971A2D682EE66
:1057700086EC8AEA8EE892E696E49AE29EE02AFEB9
:105780002EFC32FA36F83AF63EF442F246F072EE69
:1057900076EC7AEA7EE88018230F04F8B707005009
:1057A00083C76700A30EF4F88347D4F9898BE38A93
:1057B000073CB707005083C7770093F7F70F93F7BD
:1057C00007034147E384E73A41476346F700E38E26
:1057D00007206F00F03913070002E386E704130780
:1057E0000003E397E738B707005019472389E7021A
:1057F000B70700501147A389E70283A7018903C7B0
:10580000670083C77700A207D98F139707014183E9
:105810002393E18A83A7018903C717002382E18AC2
:1058200083A7018983C70700230EF4F8A30F04F8A8
:10583000230F04F883A7018983C7070093F707069E
:10584000638B071283C7418A93F7F70F93F7070219
:10585000D5C383C7418A93F7F70F13071002638BF1
:10586000E700130720026389E70813070002638734
:10587000E708ADA81387818223AEE1889D47A30F77
:10588000F4F883D7618A1397070141839D4763E941
:10589000E70083D7618AC207C18393F7F70F11A08E
:1058A000A147A30FF4F803A7018983A7C189834601
:1058B000F4F93686BE853A85EFA0400583D7618A24
:1058C0001397070141838347F4F9C207C183B307E4
:1058D000F7401397070141832393E18A03A7C18906
:1058E0008347F4F93E9723AEE18811A8FD57230FB3
:1058F000F4F831A0010021A0010011A0010003472C
:10590000E4F99307F00F6303F7688347F4F91397FB
:105910000701418383D7618AC207C1836379F70096
:105920008347F4F91397070141832393E18A83D7CF
:10593000018A1397070141839D4763E9E70083D7F5
:10594000018AC207C18393F7F70F11A0A147A30FE4
:10595000F4F883A7C1890347F4F93A86BE85138515
:105960008188EF90B07A03A7C1898347F4F93E9705
:1059700023AEE18821AD83C7418A93F7F70F2D4706
:10598000636BF75E13972700D16793870713BA9766
:105990009C43828783A7018903C7270083C73700F9
:1059A000A207D98FC207C183A183C207C18313078E
:1059B00020026365F71213972700D16793870716B4
:1059C000BA979C43828751671307470823AEE18843
:1059D000C947A30FF4F839A251671307870923AE0B
:1059E000E18893073004A30FF4F8EDA883A7018999
:1059F00003C7270083C73700A207D98FC207C18317
:105A000093F7F70F05476386E70205476344F700FE
:105A100089CB99A809476387E7020D47638DE702A1
:105A2000A1A01387018623AEE1889147A30FF4F864
:105A300081A051671307070F23AEE188B947A30F71
:105A4000F4F83DA051671307071023AEE188B14772
:105A5000A30FF4F831A851671307C71023AEE188EC
:105A6000D947A30FF4F829A0FD57230FF4F801003C
:105A700095A851671307C70D23AEE188D147A30F3F
:105A8000F4F88DA051671307471223AEE188A947A8
:105A9000A30FF4F881A883C7418293F7F70F9DE71E
:105AA00013061004D1679385A709B7070020138553
:105AB0006702EF90B065370700201307470223AE57
:105AC000E18893073004A30FF4F829A8FD57230FAA
:105AD000F4F809A8FD57230FF4F829A0FD57230F68
